{
	"data": {
		"bytecode": {
			"linkReferences": {},
			"object": "60a060405234801561001057600080fd5b506040516121e13803806121e183398101604081905261002f916102ea565b81604051806040016040528060128152602001712a34b6b2902b34b63630b3b2902a37b5b2b760711b8152506040518060400160405280600381526020016215159560ea1b815250816003908161008691906103bc565b50600461009382826103bc565b50506005805460ff19169055506001600160a01b0381166100cf57604051631e4fbdf760e01b8152600060048201526024015b60405180910390fd5b6100d881610110565b5060016006556100fe336100ee6012600a610579565b6100f990606461058f565b61016a565b6001600160a01b0316608052506105b9565b600580546001600160a01b03838116610100818102610100600160a81b031985161790945560405193909204169182907f8be0079c531659141344cd1fd0a4f28419497f9722a3daafe3b4186f6b6457e090600090a35050565b6001600160a01b0382166101945760405163ec442f0560e01b8152600060048201526024016100c6565b6101a0600083836101a4565b5050565b6001600160a01b0383166101cf5780600260008282546101c491906105a6565b909155506102419050565b6001600160a01b038316600090815260208190526040902054818110156102225760405163391434e360e21b81526001600160a01b038516600482015260248101829052604481018390526064016100c6565b6001600160a01b03841660009081526020819052604090209082900390555b6001600160a01b03821661025d5760028054829003905561027c565b6001600160a01b03821660009081526020819052604090208054820190555b816001600160a01b0316836001600160a01b03167fddf252ad1be2c89b69c2b068fc378daa952ba7f163c4a11628f55a4df523b3ef836040516102c191815260200190565b60405180910390a3505050565b80516001600160a01b03811681146102e557600080fd5b919050565b600080604083850312156102fd57600080fd5b610306836102ce565b9150610314602084016102ce565b90509250929050565b634e487b7160e01b600052604160045260246000fd5b600181811c9082168061034757607f821691505b60208210810361036757634e487b7160e01b600052602260045260246000fd5b50919050565b601f8211156103b757806000526020600020601f840160051c810160208510156103945750805b601f840160051c820191505b818110156103b457600081556001016103a0565b50505b505050565b81516001600160401b038111156103d5576103d561031d565b6103e9816103e38454610333565b8461036d565b6020601f82116001811461041d57600083156104055750848201515b600019600385901b1c1916600184901b1784556103b4565b600084815260208120601f198516915b8281101561044d578785015182556020948501946001909201910161042d565b508482101561046b5786840151600019600387901b60f8161c191681555b50505050600190811b01905550565b634e487b7160e01b600052601160045260246000fd5b6001815b60018411156104cb578085048111156104af576104af61047a565b60018416156104bd57908102905b60019390931c928002610494565b935093915050565b6000826104e257506001610573565b816104ef57506000610573565b8160018114610505576002811461050f5761052b565b6001915050610573565b60ff8411156105205761052061047a565b50506001821b610573565b5060208310610133831016604e8410600b841016171561054e575081810a610573565b61055b6000198484610490565b806000190482111561056f5761056f61047a565b0290505b92915050565b600061058860ff8416836104d3565b9392505050565b80820281158282048414176105735761057361047a565b808201808211156105735761057361047a565b608051611c0d6105d46000396000610d830152611c0d6000f3fe608060405234801561001057600080fd5b50600436106101a95760003560e01c806370a79d11116100f9578063a3c50cfd11610097578063dd62ed3e11610071578063dd62ed3e146103dc578063dda3082214610415578063e1e16ced1461047f578063f2fde38b146104bf57600080fd5b8063a3c50cfd146103a9578063a9059cbb146103b6578063c0cd40ee146103c957600080fd5b806379cc6790116100d357806379cc6790146103705780638456cb59146103835780638da5cb5b1461038b57806395d89b41146103a157600080fd5b806370a79d111461032a578063715018a61461033d578063741bef1a1461034557600080fd5b80633f4ba83a11610166578063584707eb11610140578063584707eb146102735780635c975abb146102e35780636ad56922146102ee57806370a082311461030157600080fd5b80633f4ba83a1461024357806342966c681461024d578063529d8b021461026057600080fd5b806302ab3fed146101ae57806306fdde03146101e1578063095ea7b3146101f657806318160ddd1461021957806323b872dd14610221578063313ce56714610234575b600080fd5b6101ce6101bc36600461179e565b600d6020526000908152604090205481565b6040519081526020015b60405180910390f35b6101e96104d2565b6040516101d891906117dd565b610209610204366004611810565b610564565b60405190151581526020016101d8565b6002546101ce565b61020961022f36600461183a565b61057e565b604051601281526020016101d8565b61024b6105a4565b005b61024b61025b366004611877565b6105b6565b61024b61026e366004611890565b6105c3565b6102d1610281366004611810565b600b602090815260009283526040808420909152908252902080546001820154600283015460038401546004909401546001600160a01b0390931693919290919060ff8082169161010090041686565b6040516101d89695949392919061190a565b60055460ff16610209565b61024b6102fc36600461194f565b610e03565b6101ce61030f36600461179e565b6001600160a01b031660009081526020819052604090205490565b61024b61033836600461194f565b610ec4565b61024b610f85565b600754610358906001600160a01b031681565b6040516001600160a01b0390911681526020016101d8565b61024b61037e366004611810565b610f97565b61024b610fb0565b60055461010090046001600160a01b0316610358565b6101e9610fc0565b6009546102099060ff1681565b6102096103c4366004611810565b610fcf565b61024b6103d7366004611877565b610fdd565b6101ce6103ea36600461197b565b6001600160a01b03918216600090815260016020908152604080832093909416825291909152205490565b61045561042336600461179e565b600e60205260009081526040902080546001820154600283015460038401546004909401549293919290919060ff1685565b6040805195865260208601949094529284019190915260608301521515608082015260a0016101d8565b61045561048d36600461179e565b600f60205260009081526040902080546001820154600283015460038401546004909401549293919290919060ff1685565b61024b6104cd36600461179e565b610ff1565b6060600380546104e1906119ae565b80601f016020809104026020016040519081016040528092919081815260200182805461050d906119ae565b801561055a5780601f1061052f5761010080835404028352916020019161055a565b820191906000526020600020905b81548152906001019060200180831161053d57829003601f168201915b5050505050905090565b60003361057281858561102c565b60019150505b92915050565b60003361058c858285611039565b6105978585856110b7565b60019150505b9392505050565b6105ac611116565b6105b4611149565b565b6105c0338261119b565b50565b6105cb6111d1565b6105d44261122a565b6001600160a01b0381166000908152600e602052604090206002015442106106395760405162461bcd60e51b8152602060048201526013602482015272141c99481cd85b19480c48199a5b9a5cda1959606a1b60448201526064015b60405180910390fd5b6001600160a01b0381166000908152600e60205260409020600301546298968010156106a75760405162461bcd60e51b815260206004820152601860248201527f50726573616c65203120746f6b656e2046696e697368656400000000000000006044820152606401610630565b600c60008360018111156106bd576106bd6118d2565b60018111156106ce576106ce6118d2565b815260200190815260200160002054600114806107205750600c60008360018111156106fc576106fc6118d2565b600181111561070d5761070d6118d2565b8152602001908152602001600020546000145b61076c5760405162461bcd60e51b815260206004820181905260248201527f5061796d656e742073686f756c6420626520696e2055534454206f7220424e426044820152606401610630565b6001600160a01b0381166000908152600e60209081526040808320600401805460ff19166001179055600f90915290206002015442106107e45760405162461bcd60e51b8152602060048201526013602482015272141c99481cd85b19480c88199a5b9a5cda1959606a1b6044820152606401610630565b6001600160a01b0381166000908152600f6020526040902060030154606410156108505760405162461bcd60e51b815260206004820152601860248201527f50726573616c65203220746f6b656e2046696e697368656400000000000000006044820152606401610630565b6001600160a01b0381166000908152600f602090815260408220600401805460ff19166001908117909155600c9091527f13649b2456f1b42fef0f0040b3aaeabcd21a76a0f3f5defd4f583839455116e88290558082527fd421a5181c571bba3f01190c922c3b2a896fc1d84e86c9f17ac10e67ebef8b5c8190556008805490910190556005906007906108e38661122a565b6001600160a01b0384166000908152600e60205260409020600401805460ff19166001179055600c600086600181111561091f5761091f6118d2565b6001811115610930576109306118d2565b815260200190815260200160002054600003610984576001600160a01b0384166000908152600e6020526040902054869061096b90856119fe565b6109759190611a20565b905061098281600a611a20565b505b600c600086600181111561099a5761099a6118d2565b60018111156109ab576109ab6118d2565b8152602001908152602001600020546001036109ff576001600160a01b0384166000908152600e602052604090205486906109e690846119fe565b6109f09190611a20565b90506109fd81600a611a20565b505b6001600160a01b0384166000908152600f60205260409020600401805460ff19166001179055600c6000866001811115610a3b57610a3b6118d2565b6001811115610a4c57610a4c6118d2565b815260200190815260200160002054600003610aa0576001600160a01b0384166000908152600f60205260409020548690610a8790856119fe565b610a919190611a20565b9050610a9e81600a611a20565b505b600c6000866001811115610ab657610ab66118d2565b6001811115610ac757610ac76118d2565b815260200190815260200160002054600103610b1b576001600160a01b0384166000908152600f60205260409020548690610b0290846119fe565b610b0c9190611a20565b9050610b1981600a611a20565b505b336000908152600d60205260408120805491610b3683611a37565b9091555050336000818152600d6020908152604080832054815160c0810183529485529184018a905290929190820190600c90896001811115610b7b57610b7b6118d2565b6001811115610b8c57610b8c6118d2565b815260200190815260200160002054600014610ba85784610baa565b855b8152602001838152602001600115158152602001876001811115610bd057610bd06118d2565b9052336000908152600b60209081526040808320858452825291829020835181546001600160a01b0319166001600160a01b039091161781559083015160018083019190915591830151600282015560608301516003820155608083015160048201805460ff198116921515928317825560a08601519394919261ffff1990911661ff00199091161790610100908490811115610c6f57610c6f6118d2565b021790555050506001600160a01b0385166000908152600e6020526040902060030154610c9d908390611a50565b6001600160a01b0386166000908152600e60209081526040808320600390810194909455600f90915290200154610cd5908390611a50565b6001600160a01b0386166000908152600f602052604090819020600301919091555163a9059cbb60e01b815233600482015260248101839052309063a9059cbb906044016020604051808303816000875af1158015610d38573d6000803e3d6000fd5b505050506040513d601f19601f82011682018060405250810190610d5c9190611a63565b50610dab33610d796005546001600160a01b036101009091041690565b6001600160a01b037f00000000000000000000000000000000000000000000000000000000000000001691908a61126f565b336001600160a01b03167fd4931b49116597ba4c0dc45e86282975f4a32d1b8f4491eac0bf71187e654d90888888604051610de893929190611a85565b60405180910390a250505050610dfe6001600655565b505050565b6040518060a00160405280848152602001428152602001838152602001610e28601290565b610e3390600a611b99565b6064610e3e60025490565b610e4b90620f4240611a20565b610e5591906119fe565b610e5f91906119fe565b8152600160209182018190526001600160a01b03939093166000908152600f825260409081902083518155918301519382019390935591810151600283015560608101516003830155608001516004909101805460ff19169115159190911790555050565b6040518060a00160405280848152602001428152602001838152602001610ee9601290565b610ef490600a611b99565b6064610eff60025490565b610f0c90620f4240611a20565b610f1691906119fe565b610f2091906119fe565b8152600160209182018190526001600160a01b03939093166000908152600e825260409081902083518155918301519382019390935591810151600283015560608101516003830155608001516004909101805460ff19169115159190911790555050565b610f8d611116565b6105b460006112c9565b610fa2823383611039565b610fac828261119b565b5050565b610fb8611116565b6105b4611323565b6060600480546104e1906119ae565b6000336105728185856110b7565b610fe5611116565b6105c03033818461126f565b610ff9611116565b6001600160a01b03811661102357604051631e4fbdf760e01b815260006004820152602401610630565b6105c0816112c9565b610dfe8383836001611360565b6001600160a01b0383811660009081526001602090815260408083209386168352929052205460001981146110b157818110156110a257604051637dc7a0d960e11b81526001600160a01b03841660048201526024810182905260448101839052606401610630565b6110b184848484036000611360565b50505050565b6001600160a01b0383166110e157604051634b637e8f60e11b815260006004820152602401610630565b6001600160a01b03821661110b5760405163ec442f0560e01b815260006004820152602401610630565b610dfe838383611435565b6005546001600160a01b036101009091041633146105b45760405163118cdaa760e01b8152336004820152602401610630565b61115161155f565b6005805460ff191690557f5db9ee0a495bf2e6ff9c91a7834c1ba4fdd244a5e8aa4e537bd38aeae4b073aa335b6040516001600160a01b03909116815260200160405180910390a1565b6001600160a01b0382166111c557604051634b637e8f60e11b815260006004820152602401610630565b610fac82600083611435565b6002600654036112235760405162461bcd60e51b815260206004820152601f60248201527f5265656e7472616e637947756172643a207265656e7472616e742063616c6c006044820152606401610630565b6002600655565b6105c08160405160240161124091815260200190565b60408051601f198184030181529190526020810180516001600160e01b031663f82c50f160e01b1790526115a8565b604080516001600160a01b0385811660248301528416604482015260648082018490528251808303909101815260849091019091526020810180516001600160e01b03166323b872dd60e01b1790526110b19085906115b1565b600580546001600160a01b03838116610100818102610100600160a81b031985161790945560405193909204169182907f8be0079c531659141344cd1fd0a4f28419497f9722a3daafe3b4186f6b6457e090600090a35050565b61132b611614565b6005805460ff191660011790557f62e78cea01bee320cd4e420270b5ea74000d11b0c9f74754ebdbfc544b05a25861117e3390565b6001600160a01b03841661138a5760405163e602df0560e01b815260006004820152602401610630565b6001600160a01b0383166113b457604051634a1406b160e11b815260006004820152602401610630565b6001600160a01b03808516600090815260016020908152604080832093871683529290522082905580156110b157826001600160a01b0316846001600160a01b03167f8c5be1e5ebec7d5bd14f71427d1e84f3dd0314c0f7b2291e5b200ac8c7c3b9258460405161142791815260200190565b60405180910390a350505050565b6001600160a01b0383166114605780600260008282546114559190611ba8565b909155506114d29050565b6001600160a01b038316600090815260208190526040902054818110156114b35760405163391434e360e21b81526001600160a01b03851660048201526024810182905260448101839052606401610630565b6001600160a01b03841660009081526020819052604090209082900390555b6001600160a01b0382166114ee5760028054829003905561150d565b6001600160a01b03821660009081526020819052604090208054820190555b816001600160a01b0316836001600160a01b03167fddf252ad1be2c89b69c2b068fc378daa952ba7f163c4a11628f55a4df523b3ef8360405161155291815260200190565b60405180910390a3505050565b60055460ff166105b45760405162461bcd60e51b815260206004820152601460248201527314185d5cd8589b194e881b9bdd081c185d5cd95960621b6044820152606401610630565b6105c08161165a565b60006115c66001600160a01b0384168361167b565b905080516000141580156115eb5750808060200190518101906115e99190611a63565b155b15610dfe57604051635274afe760e01b81526001600160a01b0384166004820152602401610630565b60055460ff16156105b45760405162461bcd60e51b815260206004820152601060248201526f14185d5cd8589b194e881c185d5cd95960821b6044820152606401610630565b60006a636f6e736f6c652e6c6f679050600080835160208501845afa505050565b606061059d8383600084600080856001600160a01b031684866040516116a19190611bbb565b60006040518083038185875af1925050503d80600081146116de576040519150601f19603f3d011682016040523d82523d6000602084013e6116e3565b606091505b50915091506116f38683836116fd565b9695505050505050565b6060826117125761170d82611759565b61059d565b815115801561172957506001600160a01b0384163b155b1561175257604051639996b31560e01b81526001600160a01b0385166004820152602401610630565b508061059d565b8051156117695780518082602001fd5b604051630a12f52160e11b815260040160405180910390fd5b80356001600160a01b038116811461179957600080fd5b919050565b6000602082840312156117b057600080fd5b61059d82611782565b60005b838110156117d45781810151838201526020016117bc565b50506000910152565b60208152600082518060208401526117fc8160408501602087016117b9565b601f01601f19169190910160400192915050565b6000806040838503121561182357600080fd5b61182c83611782565b946020939093013593505050565b60008060006060848603121561184f57600080fd5b61185884611782565b925061186660208501611782565b929592945050506040919091013590565b60006020828403121561188957600080fd5b5035919050565b6000806000606084860312156118a557600080fd5b833592506020840135600281106118bb57600080fd5b91506118c960408501611782565b90509250925092565b634e487b7160e01b600052602160045260246000fd5b6002811061190657634e487b7160e01b600052602160045260246000fd5b9052565b6001600160a01b0387168152602081018690526040810185905260608101849052821515608082015260c0810161194460a08301846118e8565b979650505050505050565b60008060006060848603121561196457600080fd5b83359250602084013591506118c960408501611782565b6000806040838503121561198e57600080fd5b61199783611782565b91506119a560208401611782565b90509250929050565b600181811c908216806119c257607f821691505b6020821081036119e257634e487b7160e01b600052602260045260246000fd5b50919050565b634e487b7160e01b600052601160045260246000fd5b600082611a1b57634e487b7160e01b600052601260045260246000fd5b500490565b8082028115828204841417610578576105786119e8565b600060018201611a4957611a496119e8565b5060010190565b81810381811115610578576105786119e8565b600060208284031215611a7557600080fd5b8151801515811461059d57600080fd5b83815260608101611a9960208301856118e8565b6001600160a01b03929092166040919091015292915050565b6001815b6001841115611aed57808504811115611ad157611ad16119e8565b6001841615611adf57908102905b60019390931c928002611ab6565b935093915050565b600082611b0457506001610578565b81611b1157506000610578565b8160018114611b275760028114611b3157611b4d565b6001915050610578565b60ff841115611b4257611b426119e8565b50506001821b610578565b5060208310610133831016604e8410600b8410161715611b70575081810a610578565b611b7d6000198484611ab2565b8060001904821115611b9157611b916119e8565b029392505050565b600061059d60ff841683611af5565b80820180821115610578576105786119e8565b60008251611bcd8184602087016117b9565b919091019291505056fea2646970667358221220096477a3bff1407bb0633ca154d3b419660b9d4e8b98a7379ff51dd6a7353b6e64736f6c634300081a0033",
			"opcodes": "PUSH1 0xA0 PUSH1 0x40 MSTORE CALLVALUE DUP1 ISZERO PUSH2 0x10 JUMPI PUSH1 0x0 DUP1 REVERT JUMPDEST POP PUSH1 0x40 MLOAD PUSH2 0x21E1 CODESIZE SUB DUP1 PUSH2 0x21E1 DUP4 CODECOPY DUP2 ADD PUSH1 0x40 DUP2 SWAP1 MSTORE PUSH2 0x2F SWAP2 PUSH2 0x2EA JUMP JUMPDEST DUP2 PUSH1 0x40 MLOAD DUP1 PUSH1 0x40 ADD PUSH1 0x40 MSTORE DUP1 PUSH1 0x12 DUP2 MSTORE PUSH1 0x20 ADD PUSH18 0x2A34B6B2902B34B63630B3B2902A37B5B2B7 PUSH1 0x71 SHL DUP2 MSTORE POP PUSH1 0x40 MLOAD DUP1 PUSH1 0x40 ADD PUSH1 0x40 MSTORE DUP1 PUSH1 0x3 DUP2 MSTORE PUSH1 0x20 ADD PUSH3 0x151595 PUSH1 0xEA SHL DUP2 MSTORE POP DUP2 PUSH1 0x3 SWAP1 DUP2 PUSH2 0x86 SWAP2 SWAP1 PUSH2 0x3BC JUMP JUMPDEST POP PUSH1 0x4 PUSH2 0x93 DUP3 DUP3 PUSH2 0x3BC JUMP JUMPDEST POP POP PUSH1 0x5 DUP1 SLOAD PUSH1 0xFF NOT AND SWAP1 SSTORE POP PUSH1 0x1 PUSH1 0x1 PUSH1 0xA0 SHL SUB DUP2 AND PUSH2 0xCF JUMPI PUSH1 0x40 MLOAD PUSH4 0x1E4FBDF7 PUSH1 0xE0 SHL DUP2 MSTORE PUSH1 0x0 PUSH1 0x4 DUP3 ADD MSTORE PUSH1 0x24 ADD JUMPDEST PUSH1 0x40 MLOAD DUP1 SWAP2 SUB SWAP1 REVERT JUMPDEST PUSH2 0xD8 DUP2 PUSH2 0x110 JUMP JUMPDEST POP PUSH1 0x1 PUSH1 0x6 SSTORE PUSH2 0xFE CALLER PUSH2 0xEE PUSH1 0x12 PUSH1 0xA PUSH2 0x579 JUMP JUMPDEST PUSH2 0xF9 SWAP1 PUSH1 0x64 PUSH2 0x58F JUMP JUMPDEST PUSH2 0x16A JUMP JUMPDEST PUSH1 0x1 PUSH1 0x1 PUSH1 0xA0 SHL SUB AND PUSH1 0x80 MSTORE POP PUSH2 0x5B9 JUMP JUMPDEST PUSH1 0x5 DUP1 SLOAD PUSH1 0x1 PUSH1 0x1 PUSH1 0xA0 SHL SUB DUP4 DUP2 AND PUSH2 0x100 DUP2 DUP2 MUL PUSH2 0x100 PUSH1 0x1 PUSH1 0xA8 SHL SUB NOT DUP6 AND OR SWAP1 SWAP5 SSTORE PUSH1 0x40 MLOAD SWAP4 SWAP1 SWAP3 DIV AND SWAP2 DUP3 SWAP1 PUSH32 0x8BE0079C531659141344CD1FD0A4F28419497F9722A3DAAFE3B4186F6B6457E0 SWAP1 PUSH1 0x0 SWAP1 LOG3 POP POP JUMP JUMPDEST PUSH1 0x1 PUSH1 0x1 PUSH1 0xA0 SHL SUB DUP3 AND PUSH2 0x194 JUMPI PUSH1 0x40 MLOAD PUSH4 0xEC442F05 PUSH1 0xE0 SHL DUP2 MSTORE PUSH1 0x0 PUSH1 0x4 DUP3 ADD MSTORE PUSH1 0x24 ADD PUSH2 0xC6 JUMP JUMPDEST PUSH2 0x1A0 PUSH1 0x0 DUP4 DUP4 PUSH2 0x1A4 JUMP JUMPDEST POP POP JUMP JUMPDEST PUSH1 0x1 PUSH1 0x1 PUSH1 0xA0 SHL SUB DUP4 AND PUSH2 0x1CF JUMPI DUP1 PUSH1 0x2 PUSH1 0x0 DUP3 DUP3 SLOAD PUSH2 0x1C4 SWAP2 SWAP1 PUSH2 0x5A6 JUMP JUMPDEST SWAP1 SWAP2 SSTORE POP PUSH2 0x241 SWAP1 POP JUMP JUMPDEST PUSH1 0x1 PUSH1 0x1 PUSH1 0xA0 SHL SUB DUP4 AND PUSH1 0x0 SWAP1 DUP2 MSTORE PUSH1 0x20 DUP2 SWAP1 MSTORE PUSH1 0x40 SWAP1 KECCAK256 SLOAD DUP2 DUP2 LT ISZERO PUSH2 0x222 JUMPI PUSH1 0x40 MLOAD PUSH4 0x391434E3 PUSH1 0xE2 SHL DUP2 MSTORE PUSH1 0x1 PUSH1 0x1 PUSH1 0xA0 SHL SUB DUP6 AND PUSH1 0x4 DUP3 ADD MSTORE PUSH1 0x24 DUP2 ADD DUP3 SWAP1 MSTORE PUSH1 0x44 DUP2 ADD DUP4 SWAP1 MSTORE PUSH1 0x64 ADD PUSH2 0xC6 JUMP JUMPDEST PUSH1 0x1 PUSH1 0x1 PUSH1 0xA0 SHL SUB DUP5 AND PUSH1 0x0 SWAP1 DUP2 MSTORE PUSH1 0x20 DUP2 SWAP1 MSTORE PUSH1 0x40 SWAP1 KECCAK256 SWAP1 DUP3 SWAP1 SUB SWAP1 SSTORE JUMPDEST PUSH1 0x1 PUSH1 0x1 PUSH1 0xA0 SHL SUB DUP3 AND PUSH2 0x25D JUMPI PUSH1 0x2 DUP1 SLOAD DUP3 SWAP1 SUB SWAP1 SSTORE PUSH2 0x27C JUMP JUMPDEST PUSH1 0x1 PUSH1 0x1 PUSH1 0xA0 SHL SUB DUP3 AND PUSH1 0x0 SWAP1 DUP2 MSTORE PUSH1 0x20 DUP2 SWAP1 MSTORE PUSH1 0x40 SWAP1 KECCAK256 DUP1 SLOAD DUP3 ADD SWAP1 SSTORE JUMPDEST DUP2 PUSH1 0x1 PUSH1 0x1 PUSH1 0xA0 SHL SUB AND DUP4 PUSH1 0x1 PUSH1 0x1 PUSH1 0xA0 SHL SUB AND PUSH32 0xDDF252AD1BE2C89B69C2B068FC378DAA952BA7F163C4A11628F55A4DF523B3EF DUP4 PUSH1 0x40 MLOAD PUSH2 0x2C1 SWAP2 DUP2 MSTORE PUSH1 0x20 ADD SWAP1 JUMP JUMPDEST PUSH1 0x40 MLOAD DUP1 SWAP2 SUB SWAP1 LOG3 POP POP POP JUMP JUMPDEST DUP1 MLOAD PUSH1 0x1 PUSH1 0x1 PUSH1 0xA0 SHL SUB DUP2 AND DUP2 EQ PUSH2 0x2E5 JUMPI PUSH1 0x0 DUP1 REVERT JUMPDEST SWAP2 SWAP1 POP JUMP JUMPDEST PUSH1 0x0 DUP1 PUSH1 0x40 DUP4 DUP6 SUB SLT ISZERO PUSH2 0x2FD JUMPI PUSH1 0x0 DUP1 REVERT JUMPDEST PUSH2 0x306 DUP4 PUSH2 0x2CE JUMP JUMPDEST SWAP2 POP PUSH2 0x314 PUSH1 0x20 DUP5 ADD PUSH2 0x2CE JUMP JUMPDEST SWAP1 POP SWAP3 POP SWAP3 SWAP1 POP JUMP JUMPDEST PUSH4 0x4E487B71 PUSH1 0xE0 SHL PUSH1 0x0 MSTORE PUSH1 0x41 PUSH1 0x4 MSTORE PUSH1 0x24 PUSH1 0x0 REVERT JUMPDEST PUSH1 0x1 DUP2 DUP2 SHR SWAP1 DUP3 AND DUP1 PUSH2 0x347 JUMPI PUSH1 0x7F DUP3 AND SWAP2 POP JUMPDEST PUSH1 0x20 DUP3 LT DUP2 SUB PUSH2 0x367 JUMPI PUSH4 0x4E487B71 PUSH1 0xE0 SHL PUSH1 0x0 MSTORE PUSH1 0x22 PUSH1 0x4 MSTORE PUSH1 0x24 PUSH1 0x0 REVERT JUMPDEST POP SWAP2 SWAP1 POP JUMP JUMPDEST PUSH1 0x1F DUP3 GT ISZERO PUSH2 0x3B7 JUMPI DUP1 PUSH1 0x0 MSTORE PUSH1 0x20 PUSH1 0x0 KECCAK256 PUSH1 0x1F DUP5 ADD PUSH1 0x5 SHR DUP2 ADD PUSH1 0x20 DUP6 LT ISZERO PUSH2 0x394 JUMPI POP DUP1 JUMPDEST PUSH1 0x1F DUP5 ADD PUSH1 0x5 SHR DUP3 ADD SWAP2 POP JUMPDEST DUP2 DUP2 LT ISZERO PUSH2 0x3B4 JUMPI PUSH1 0x0 DUP2 SSTORE PUSH1 0x1 ADD PUSH2 0x3A0 JUMP JUMPDEST POP POP JUMPDEST POP POP POP JUMP JUMPDEST DUP2 MLOAD PUSH1 0x1 PUSH1 0x1 PUSH1 0x40 SHL SUB DUP2 GT ISZERO PUSH2 0x3D5 JUMPI PUSH2 0x3D5 PUSH2 0x31D JUMP JUMPDEST PUSH2 0x3E9 DUP2 PUSH2 0x3E3 DUP5 SLOAD PUSH2 0x333 JUMP JUMPDEST DUP5 PUSH2 0x36D JUMP JUMPDEST PUSH1 0x20 PUSH1 0x1F DUP3 GT PUSH1 0x1 DUP2 EQ PUSH2 0x41D JUMPI PUSH1 0x0 DUP4 ISZERO PUSH2 0x405 JUMPI POP DUP5 DUP3 ADD MLOAD JUMPDEST PUSH1 0x0 NOT PUSH1 0x3 DUP6 SWAP1 SHL SHR NOT AND PUSH1 0x1 DUP5 SWAP1 SHL OR DUP5 SSTORE PUSH2 0x3B4 JUMP JUMPDEST PUSH1 0x0 DUP5 DUP2 MSTORE PUSH1 0x20 DUP2 KECCAK256 PUSH1 0x1F NOT DUP6 AND SWAP2 JUMPDEST DUP3 DUP2 LT ISZERO PUSH2 0x44D JUMPI DUP8 DUP6 ADD MLOAD DUP3 SSTORE PUSH1 0x20 SWAP5 DUP6 ADD SWAP5 PUSH1 0x1 SWAP1 SWAP3 ADD SWAP2 ADD PUSH2 0x42D JUMP JUMPDEST POP DUP5 DUP3 LT ISZERO PUSH2 0x46B JUMPI DUP7 DUP5 ADD MLOAD PUSH1 0x0 NOT PUSH1 0x3 DUP8 SWAP1 SHL PUSH1 0xF8 AND SHR NOT AND DUP2 SSTORE JUMPDEST POP POP POP POP PUSH1 0x1 SWAP1 DUP2 SHL ADD SWAP1 SSTORE POP JUMP JUMPDEST PUSH4 0x4E487B71 PUSH1 0xE0 SHL PUSH1 0x0 MSTORE PUSH1 0x11 PUSH1 0x4 MSTORE PUSH1 0x24 PUSH1 0x0 REVERT JUMPDEST PUSH1 0x1 DUP2 JUMPDEST PUSH1 0x1 DUP5 GT ISZERO PUSH2 0x4CB JUMPI DUP1 DUP6 DIV DUP2 GT ISZERO PUSH2 0x4AF JUMPI PUSH2 0x4AF PUSH2 0x47A JUMP JUMPDEST PUSH1 0x1 DUP5 AND ISZERO PUSH2 0x4BD JUMPI SWAP1 DUP2 MUL SWAP1 JUMPDEST PUSH1 0x1 SWAP4 SWAP1 SWAP4 SHR SWAP3 DUP1 MUL PUSH2 0x494 JUMP JUMPDEST SWAP4 POP SWAP4 SWAP2 POP POP JUMP JUMPDEST PUSH1 0x0 DUP3 PUSH2 0x4E2 JUMPI POP PUSH1 0x1 PUSH2 0x573 JUMP JUMPDEST DUP2 PUSH2 0x4EF JUMPI POP PUSH1 0x0 PUSH2 0x573 JUMP JUMPDEST DUP2 PUSH1 0x1 DUP2 EQ PUSH2 0x505 JUMPI PUSH1 0x2 DUP2 EQ PUSH2 0x50F JUMPI PUSH2 0x52B JUMP JUMPDEST PUSH1 0x1 SWAP2 POP POP PUSH2 0x573 JUMP JUMPDEST PUSH1 0xFF DUP5 GT ISZERO PUSH2 0x520 JUMPI PUSH2 0x520 PUSH2 0x47A JUMP JUMPDEST POP POP PUSH1 0x1 DUP3 SHL PUSH2 0x573 JUMP JUMPDEST POP PUSH1 0x20 DUP4 LT PUSH2 0x133 DUP4 LT AND PUSH1 0x4E DUP5 LT PUSH1 0xB DUP5 LT AND OR ISZERO PUSH2 0x54E JUMPI POP DUP2 DUP2 EXP PUSH2 0x573 JUMP JUMPDEST PUSH2 0x55B PUSH1 0x0 NOT DUP5 DUP5 PUSH2 0x490 JUMP JUMPDEST DUP1 PUSH1 0x0 NOT DIV DUP3 GT ISZERO PUSH2 0x56F JUMPI PUSH2 0x56F PUSH2 0x47A JUMP JUMPDEST MUL SWAP1 POP JUMPDEST SWAP3 SWAP2 POP POP JUMP JUMPDEST PUSH1 0x0 PUSH2 0x588 PUSH1 0xFF DUP5 AND DUP4 PUSH2 0x4D3 JUMP JUMPDEST SWAP4 SWAP3 POP POP POP JUMP JUMPDEST DUP1 DUP3 MUL DUP2 ISZERO DUP3 DUP3 DIV DUP5 EQ OR PUSH2 0x573 JUMPI PUSH2 0x573 PUSH2 0x47A JUMP JUMPDEST DUP1 DUP3 ADD DUP1 DUP3 GT ISZERO PUSH2 0x573 JUMPI PUSH2 0x573 PUSH2 0x47A JUMP JUMPDEST PUSH1 0x80 MLOAD PUSH2 0x1C0D PUSH2 0x5D4 PUSH1 0x0 CODECOPY PUSH1 0x0 PUSH2 0xD83 ADD MSTORE PUSH2 0x1C0D PUSH1 0x0 RETURN INVALID PUSH1 0x80 PUSH1 0x40 MSTORE CALLVALUE DUP1 ISZERO PUSH2 0x10 JUMPI PUSH1 0x0 DUP1 REVERT JUMPDEST POP PUSH1 0x4 CALLDATASIZE LT PUSH2 0x1A9 JUMPI PUSH1 0x0 CALLDATALOAD PUSH1 0xE0 SHR DUP1 PUSH4 0x70A79D11 GT PUSH2 0xF9 JUMPI DUP1 PUSH4 0xA3C50CFD GT PUSH2 0x97 JUMPI DUP1 PUSH4 0xDD62ED3E GT PUSH2 0x71 JUMPI DUP1 PUSH4 0xDD62ED3E EQ PUSH2 0x3DC JUMPI DUP1 PUSH4 0xDDA30822 EQ PUSH2 0x415 JUMPI DUP1 PUSH4 0xE1E16CED EQ PUSH2 0x47F JUMPI DUP1 PUSH4 0xF2FDE38B EQ PUSH2 0x4BF JUMPI PUSH1 0x0 DUP1 REVERT JUMPDEST DUP1 PUSH4 0xA3C50CFD EQ PUSH2 0x3A9 JUMPI DUP1 PUSH4 0xA9059CBB EQ PUSH2 0x3B6 JUMPI DUP1 PUSH4 0xC0CD40EE EQ PUSH2 0x3C9 JUMPI PUSH1 0x0 DUP1 REVERT JUMPDEST DUP1 PUSH4 0x79CC6790 GT PUSH2 0xD3 JUMPI DUP1 PUSH4 0x79CC6790 EQ PUSH2 0x370 JUMPI DUP1 PUSH4 0x8456CB59 EQ PUSH2 0x383 JUMPI DUP1 PUSH4 0x8DA5CB5B EQ PUSH2 0x38B JUMPI DUP1 PUSH4 0x95D89B41 EQ PUSH2 0x3A1 JUMPI PUSH1 0x0 DUP1 REVERT JUMPDEST DUP1 PUSH4 0x70A79D11 EQ PUSH2 0x32A JUMPI DUP1 PUSH4 0x715018A6 EQ PUSH2 0x33D JUMPI DUP1 PUSH4 0x741BEF1A EQ PUSH2 0x345 JUMPI PUSH1 0x0 DUP1 REVERT JUMPDEST DUP1 PUSH4 0x3F4BA83A GT PUSH2 0x166 JUMPI DUP1 PUSH4 0x584707EB GT PUSH2 0x140 JUMPI DUP1 PUSH4 0x584707EB EQ PUSH2 0x273 JUMPI DUP1 PUSH4 0x5C975ABB EQ PUSH2 0x2E3 JUMPI DUP1 PUSH4 0x6AD56922 EQ PUSH2 0x2EE JUMPI DUP1 PUSH4 0x70A08231 EQ PUSH2 0x301 JUMPI PUSH1 0x0 DUP1 REVERT JUMPDEST DUP1 PUSH4 0x3F4BA83A EQ PUSH2 0x243 JUMPI DUP1 PUSH4 0x42966C68 EQ PUSH2 0x24D JUMPI DUP1 PUSH4 0x529D8B02 EQ PUSH2 0x260 JUMPI PUSH1 0x0 DUP1 REVERT JUMPDEST DUP1 PUSH4 0x2AB3FED EQ PUSH2 0x1AE JUMPI DUP1 PUSH4 0x6FDDE03 EQ PUSH2 0x1E1 JUMPI DUP1 PUSH4 0x95EA7B3 EQ PUSH2 0x1F6 JUMPI DUP1 PUSH4 0x18160DDD EQ PUSH2 0x219 JUMPI DUP1 PUSH4 0x23B872DD EQ PUSH2 0x221 JUMPI DUP1 PUSH4 0x313CE567 EQ PUSH2 0x234 JUMPI JUMPDEST PUSH1 0x0 DUP1 REVERT JUMPDEST PUSH2 0x1CE PUSH2 0x1BC CALLDATASIZE PUSH1 0x4 PUSH2 0x179E JUMP JUMPDEST PUSH1 0xD PUSH1 0x20 MSTORE PUSH1 0x0 SWAP1 DUP2 MSTORE PUSH1 0x40 SWAP1 KECCAK256 SLOAD DUP2 JUMP JUMPDEST PUSH1 0x40 MLOAD SWAP1 DUP2 MSTORE PUSH1 0x20 ADD JUMPDEST PUSH1 0x40 MLOAD DUP1 SWAP2 SUB SWAP1 RETURN JUMPDEST PUSH2 0x1E9 PUSH2 0x4D2 JUMP JUMPDEST PUSH1 0x40 MLOAD PUSH2 0x1D8 SWAP2 SWAP1 PUSH2 0x17DD JUMP JUMPDEST PUSH2 0x209 PUSH2 0x204 CALLDATASIZE PUSH1 0x4 PUSH2 0x1810 JUMP JUMPDEST PUSH2 0x564 JUMP JUMPDEST PUSH1 0x40 MLOAD SWAP1 ISZERO ISZERO DUP2 MSTORE PUSH1 0x20 ADD PUSH2 0x1D8 JUMP JUMPDEST PUSH1 0x2 SLOAD PUSH2 0x1CE JUMP JUMPDEST PUSH2 0x209 PUSH2 0x22F CALLDATASIZE PUSH1 0x4 PUSH2 0x183A JUMP JUMPDEST PUSH2 0x57E JUMP JUMPDEST PUSH1 0x40 MLOAD PUSH1 0x12 DUP2 MSTORE PUSH1 0x20 ADD PUSH2 0x1D8 JUMP JUMPDEST PUSH2 0x24B PUSH2 0x5A4 JUMP JUMPDEST STOP JUMPDEST PUSH2 0x24B PUSH2 0x25B CALLDATASIZE PUSH1 0x4 PUSH2 0x1877 JUMP JUMPDEST PUSH2 0x5B6 JUMP JUMPDEST PUSH2 0x24B PUSH2 0x26E CALLDATASIZE PUSH1 0x4 PUSH2 0x1890 JUMP JUMPDEST PUSH2 0x5C3 JUMP JUMPDEST PUSH2 0x2D1 PUSH2 0x281 CALLDATASIZE PUSH1 0x4 PUSH2 0x1810 JUMP JUMPDEST PUSH1 0xB PUSH1 0x20 SWAP1 DUP2 MSTORE PUSH1 0x0 SWAP3 DUP4 MSTORE PUSH1 0x40 DUP1 DUP5 KECCAK256 SWAP1 SWAP2 MSTORE SWAP1 DUP3 MSTORE SWAP1 KECCAK256 DUP1 SLOAD PUSH1 0x1 DUP3 ADD SLOAD PUSH1 0x2 DUP4 ADD SLOAD PUSH1 0x3 DUP5 ADD SLOAD PUSH1 0x4 SWAP1 SWAP5 ADD SLOAD PUSH1 0x1 PUSH1 0x1 PUSH1 0xA0 SHL SUB SWAP1 SWAP4 AND SWAP4 SWAP2 SWAP3 SWAP1 SWAP2 SWAP1 PUSH1 0xFF DUP1 DUP3 AND SWAP2 PUSH2 0x100 SWAP1 DIV AND DUP7 JUMP JUMPDEST PUSH1 0x40 MLOAD PUSH2 0x1D8 SWAP7 SWAP6 SWAP5 SWAP4 SWAP3 SWAP2 SWAP1 PUSH2 0x190A JUMP JUMPDEST PUSH1 0x5 SLOAD PUSH1 0xFF AND PUSH2 0x209 JUMP JUMPDEST PUSH2 0x24B PUSH2 0x2FC CALLDATASIZE PUSH1 0x4 PUSH2 0x194F JUMP JUMPDEST PUSH2 0xE03 JUMP JUMPDEST PUSH2 0x1CE PUSH2 0x30F CALLDATASIZE PUSH1 0x4 PUSH2 0x179E JUMP JUMPDEST PUSH1 0x1 PUSH1 0x1 PUSH1 0xA0 SHL SUB AND PUSH1 0x0 SWAP1 DUP2 MSTORE PUSH1 0x20 DUP2 SWAP1 MSTORE PUSH1 0x40 SWAP1 KECCAK256 SLOAD SWAP1 JUMP JUMPDEST PUSH2 0x24B PUSH2 0x338 CALLDATASIZE PUSH1 0x4 PUSH2 0x194F JUMP JUMPDEST PUSH2 0xEC4 JUMP JUMPDEST PUSH2 0x24B PUSH2 0xF85 JUMP JUMPDEST PUSH1 0x7 SLOAD PUSH2 0x358 SWAP1 PUSH1 0x1 PUSH1 0x1 PUSH1 0xA0 SHL SUB AND DUP2 JUMP JUMPDEST PUSH1 0x40 MLOAD PUSH1 0x1 PUSH1 0x1 PUSH1 0xA0 SHL SUB SWAP1 SWAP2 AND DUP2 MSTORE PUSH1 0x20 ADD PUSH2 0x1D8 JUMP JUMPDEST PUSH2 0x24B PUSH2 0x37E CALLDATASIZE PUSH1 0x4 PUSH2 0x1810 JUMP JUMPDEST PUSH2 0xF97 JUMP JUMPDEST PUSH2 0x24B PUSH2 0xFB0 JUMP JUMPDEST PUSH1 0x5 SLOAD PUSH2 0x100 SWAP1 DIV PUSH1 0x1 PUSH1 0x1 PUSH1 0xA0 SHL SUB AND PUSH2 0x358 JUMP JUMPDEST PUSH2 0x1E9 PUSH2 0xFC0 JUMP JUMPDEST PUSH1 0x9 SLOAD PUSH2 0x209 SWAP1 PUSH1 0xFF AND DUP2 JUMP JUMPDEST PUSH2 0x209 PUSH2 0x3C4 CALLDATASIZE PUSH1 0x4 PUSH2 0x1810 JUMP JUMPDEST PUSH2 0xFCF JUMP JUMPDEST PUSH2 0x24B PUSH2 0x3D7 CALLDATASIZE PUSH1 0x4 PUSH2 0x1877 JUMP JUMPDEST PUSH2 0xFDD JUMP JUMPDEST PUSH2 0x1CE PUSH2 0x3EA CALLDATASIZE PUSH1 0x4 PUSH2 0x197B JUMP JUMPDEST PUSH1 0x1 PUSH1 0x1 PUSH1 0xA0 SHL SUB SWAP2 DUP3 AND PUSH1 0x0 SWAP1 DUP2 MSTORE PUSH1 0x1 PUSH1 0x20 SWAP1 DUP2 MSTORE PUSH1 0x40 DUP1 DUP4 KECCAK256 SWAP4 SWAP1 SWAP5 AND DUP3 MSTORE SWAP2 SWAP1 SWAP2 MSTORE KECCAK256 SLOAD SWAP1 JUMP JUMPDEST PUSH2 0x455 PUSH2 0x423 CALLDATASIZE PUSH1 0x4 PUSH2 0x179E JUMP JUMPDEST PUSH1 0xE PUSH1 0x20 MSTORE PUSH1 0x0 SWAP1 DUP2 MSTORE PUSH1 0x40 SWAP1 KECCAK256 DUP1 SLOAD PUSH1 0x1 DUP3 ADD SLOAD PUSH1 0x2 DUP4 ADD SLOAD PUSH1 0x3 DUP5 ADD SLOAD PUSH1 0x4 SWAP1 SWAP5 ADD SLOAD SWAP3 SWAP4 SWAP2 SWAP3 SWAP1 SWAP2 SWAP1 PUSH1 0xFF AND DUP6 JUMP JUMPDEST PUSH1 0x40 DUP1 MLOAD SWAP6 DUP7 MSTORE PUSH1 0x20 DUP7 ADD SWAP5 SWAP1 SWAP5 MSTORE SWAP3 DUP5 ADD SWAP2 SWAP1 SWAP2 MSTORE PUSH1 0x60 DUP4 ADD MSTORE ISZERO ISZERO PUSH1 0x80 DUP3 ADD MSTORE PUSH1 0xA0 ADD PUSH2 0x1D8 JUMP JUMPDEST PUSH2 0x455 PUSH2 0x48D CALLDATASIZE PUSH1 0x4 PUSH2 0x179E JUMP JUMPDEST PUSH1 0xF PUSH1 0x20 MSTORE PUSH1 0x0 SWAP1 DUP2 MSTORE PUSH1 0x40 SWAP1 KECCAK256 DUP1 SLOAD PUSH1 0x1 DUP3 ADD SLOAD PUSH1 0x2 DUP4 ADD SLOAD PUSH1 0x3 DUP5 ADD SLOAD PUSH1 0x4 SWAP1 SWAP5 ADD SLOAD SWAP3 SWAP4 SWAP2 SWAP3 SWAP1 SWAP2 SWAP1 PUSH1 0xFF AND DUP6 JUMP JUMPDEST PUSH2 0x24B PUSH2 0x4CD CALLDATASIZE PUSH1 0x4 PUSH2 0x179E JUMP JUMPDEST PUSH2 0xFF1 JUMP JUMPDEST PUSH1 0x60 PUSH1 0x3 DUP1 SLOAD PUSH2 0x4E1 SWAP1 PUSH2 0x19AE JUMP JUMPDEST DUP1 PUSH1 0x1F ADD PUSH1 0x20 DUP1 SWAP2 DIV MUL PUSH1 0x20 ADD PUSH1 0x40 MLOAD SWAP1 DUP2 ADD PUSH1 0x40 MSTORE DUP1 SWAP3 SWAP2 SWAP1 DUP2 DUP2 MSTORE PUSH1 0x20 ADD DUP3 DUP1 SLOAD PUSH2 0x50D SWAP1 PUSH2 0x19AE JUMP JUMPDEST DUP1 ISZERO PUSH2 0x55A JUMPI DUP1 PUSH1 0x1F LT PUSH2 0x52F JUMPI PUSH2 0x100 DUP1 DUP4 SLOAD DIV MUL DUP4 MSTORE SWAP2 PUSH1 0x20 ADD SWAP2 PUSH2 0x55A JUMP JUMPDEST DUP3 ADD SWAP2 SWAP1 PUSH1 0x0 MSTORE PUSH1 0x20 PUSH1 0x0 KECCAK256 SWAP1 JUMPDEST DUP2 SLOAD DUP2 MSTORE SWAP1 PUSH1 0x1 ADD SWAP1 PUSH1 0x20 ADD DUP1 DUP4 GT PUSH2 0x53D JUMPI DUP3 SWAP1 SUB PUSH1 0x1F AND DUP3 ADD SWAP2 JUMPDEST POP POP POP POP POP SWAP1 POP SWAP1 JUMP JUMPDEST PUSH1 0x0 CALLER PUSH2 0x572 DUP2 DUP6 DUP6 PUSH2 0x102C JUMP JUMPDEST PUSH1 0x1 SWAP2 POP POP JUMPDEST SWAP3 SWAP2 POP POP JUMP JUMPDEST PUSH1 0x0 CALLER PUSH2 0x58C DUP6 DUP3 DUP6 PUSH2 0x1039 JUMP JUMPDEST PUSH2 0x597 DUP6 DUP6 DUP6 PUSH2 0x10B7 JUMP JUMPDEST PUSH1 0x1 SWAP2 POP POP JUMPDEST SWAP4 SWAP3 POP POP POP JUMP JUMPDEST PUSH2 0x5AC PUSH2 0x1116 JUMP JUMPDEST PUSH2 0x5B4 PUSH2 0x1149 JUMP JUMPDEST JUMP JUMPDEST PUSH2 0x5C0 CALLER DUP3 PUSH2 0x119B JUMP JUMPDEST POP JUMP JUMPDEST PUSH2 0x5CB PUSH2 0x11D1 JUMP JUMPDEST PUSH2 0x5D4 TIMESTAMP PUSH2 0x122A JUMP JUMPDEST PUSH1 0x1 PUSH1 0x1 PUSH1 0xA0 SHL SUB DUP2 AND PUSH1 0x0 SWAP1 DUP2 MSTORE PUSH1 0xE PUSH1 0x20 MSTORE PUSH1 0x40 SWAP1 KECCAK256 PUSH1 0x2 ADD SLOAD TIMESTAMP LT PUSH2 0x639 JUMPI PUSH1 0x40 MLOAD PUSH3 0x461BCD PUSH1 0xE5 SHL DUP2 MSTORE PUSH1 0x20 PUSH1 0x4 DUP3 ADD MSTORE PUSH1 0x13 PUSH1 0x24 DUP3 ADD MSTORE PUSH19 0x141C99481CD85B19480C48199A5B9A5CDA1959 PUSH1 0x6A SHL PUSH1 0x44 DUP3 ADD MSTORE PUSH1 0x64 ADD JUMPDEST PUSH1 0x40 MLOAD DUP1 SWAP2 SUB SWAP1 REVERT JUMPDEST PUSH1 0x1 PUSH1 0x1 PUSH1 0xA0 SHL SUB DUP2 AND PUSH1 0x0 SWAP1 DUP2 MSTORE PUSH1 0xE PUSH1 0x20 MSTORE PUSH1 0x40 SWAP1 KECCAK256 PUSH1 0x3 ADD SLOAD PUSH3 0x989680 LT ISZERO PUSH2 0x6A7 JUMPI PUSH1 0x40 MLOAD PUSH3 0x461BCD PUSH1 0xE5 SHL DUP2 MSTORE PUSH1 0x20 PUSH1 0x4 DUP3 ADD MSTORE PUSH1 0x18 PUSH1 0x24 DUP3 ADD MSTORE PUSH32 0x50726573616C65203120746F6B656E2046696E69736865640000000000000000 PUSH1 0x44 DUP3 ADD MSTORE PUSH1 0x64 ADD PUSH2 0x630 JUMP JUMPDEST PUSH1 0xC PUSH1 0x0 DUP4 PUSH1 0x1 DUP2 GT ISZERO PUSH2 0x6BD JUMPI PUSH2 0x6BD PUSH2 0x18D2 JUMP JUMPDEST PUSH1 0x1 DUP2 GT ISZERO PUSH2 0x6CE JUMPI PUSH2 0x6CE PUSH2 0x18D2 JUMP JUMPDEST DUP2 MSTORE PUSH1 0x20 ADD SWAP1 DUP2 MSTORE PUSH1 0x20 ADD PUSH1 0x0 KECCAK256 SLOAD PUSH1 0x1 EQ DUP1 PUSH2 0x720 JUMPI POP PUSH1 0xC PUSH1 0x0 DUP4 PUSH1 0x1 DUP2 GT ISZERO PUSH2 0x6FC JUMPI PUSH2 0x6FC PUSH2 0x18D2 JUMP JUMPDEST PUSH1 0x1 DUP2 GT ISZERO PUSH2 0x70D JUMPI PUSH2 0x70D PUSH2 0x18D2 JUMP JUMPDEST DUP2 MSTORE PUSH1 0x20 ADD SWAP1 DUP2 MSTORE PUSH1 0x20 ADD PUSH1 0x0 KECCAK256 SLOAD PUSH1 0x0 EQ JUMPDEST PUSH2 0x76C JUMPI PUSH1 0x40 MLOAD PUSH3 0x461BCD PUSH1 0xE5 SHL DUP2 MSTORE PUSH1 0x20 PUSH1 0x4 DUP3 ADD DUP2 SWAP1 MSTORE PUSH1 0x24 DUP3 ADD MSTORE PUSH32 0x5061796D656E742073686F756C6420626520696E2055534454206F7220424E42 PUSH1 0x44 DUP3 ADD MSTORE PUSH1 0x64 ADD PUSH2 0x630 JUMP JUMPDEST PUSH1 0x1 PUSH1 0x1 PUSH1 0xA0 SHL SUB DUP2 AND PUSH1 0x0 SWAP1 DUP2 MSTORE PUSH1 0xE PUSH1 0x20 SWAP1 DUP2 MSTORE PUSH1 0x40 DUP1 DUP4 KECCAK256 PUSH1 0x4 ADD DUP1 SLOAD PUSH1 0xFF NOT AND PUSH1 0x1 OR SWAP1 SSTORE PUSH1 0xF SWAP1 SWAP2 MSTORE SWAP1 KECCAK256 PUSH1 0x2 ADD SLOAD TIMESTAMP LT PUSH2 0x7E4 JUMPI PUSH1 0x40 MLOAD PUSH3 0x461BCD PUSH1 0xE5 SHL DUP2 MSTORE PUSH1 0x20 PUSH1 0x4 DUP3 ADD MSTORE PUSH1 0x13 PUSH1 0x24 DUP3 ADD MSTORE PUSH19 0x141C99481CD85B19480C88199A5B9A5CDA1959 PUSH1 0x6A SHL PUSH1 0x44 DUP3 ADD MSTORE PUSH1 0x64 ADD PUSH2 0x630 JUMP JUMPDEST PUSH1 0x1 PUSH1 0x1 PUSH1 0xA0 SHL SUB DUP2 AND PUSH1 0x0 SWAP1 DUP2 MSTORE PUSH1 0xF PUSH1 0x20 MSTORE PUSH1 0x40 SWAP1 KECCAK256 PUSH1 0x3 ADD SLOAD PUSH1 0x64 LT ISZERO PUSH2 0x850 JUMPI PUSH1 0x40 MLOAD PUSH3 0x461BCD PUSH1 0xE5 SHL DUP2 MSTORE PUSH1 0x20 PUSH1 0x4 DUP3 ADD MSTORE PUSH1 0x18 PUSH1 0x24 DUP3 ADD MSTORE PUSH32 0x50726573616C65203220746F6B656E2046696E69736865640000000000000000 PUSH1 0x44 DUP3 ADD MSTORE PUSH1 0x64 ADD PUSH2 0x630 JUMP JUMPDEST PUSH1 0x1 PUSH1 0x1 PUSH1 0xA0 SHL SUB DUP2 AND PUSH1 0x0 SWAP1 DUP2 MSTORE PUSH1 0xF PUSH1 0x20 SWAP1 DUP2 MSTORE PUSH1 0x40 DUP3 KECCAK256 PUSH1 0x4 ADD DUP1 SLOAD PUSH1 0xFF NOT AND PUSH1 0x1 SWAP1 DUP2 OR SWAP1 SWAP2 SSTORE PUSH1 0xC SWAP1 SWAP2 MSTORE PUSH32 0x13649B2456F1B42FEF0F0040B3AAEABCD21A76A0F3F5DEFD4F583839455116E8 DUP3 SWAP1 SSTORE DUP1 DUP3 MSTORE PUSH32 0xD421A5181C571BBA3F01190C922C3B2A896FC1D84E86C9F17AC10E67EBEF8B5C DUP2 SWAP1 SSTORE PUSH1 0x8 DUP1 SLOAD SWAP1 SWAP2 ADD SWAP1 SSTORE PUSH1 0x5 SWAP1 PUSH1 0x7 SWAP1 PUSH2 0x8E3 DUP7 PUSH2 0x122A JUMP JUMPDEST PUSH1 0x1 PUSH1 0x1 PUSH1 0xA0 SHL SUB DUP5 AND PUSH1 0x0 SWAP1 DUP2 MSTORE PUSH1 0xE PUSH1 0x20 MSTORE PUSH1 0x40 SWAP1 KECCAK256 PUSH1 0x4 ADD DUP1 SLOAD PUSH1 0xFF NOT AND PUSH1 0x1 OR SWAP1 SSTORE PUSH1 0xC PUSH1 0x0 DUP7 PUSH1 0x1 DUP2 GT ISZERO PUSH2 0x91F JUMPI PUSH2 0x91F PUSH2 0x18D2 JUMP JUMPDEST PUSH1 0x1 DUP2 GT ISZERO PUSH2 0x930 JUMPI PUSH2 0x930 PUSH2 0x18D2 JUMP JUMPDEST DUP2 MSTORE PUSH1 0x20 ADD SWAP1 DUP2 MSTORE PUSH1 0x20 ADD PUSH1 0x0 KECCAK256 SLOAD PUSH1 0x0 SUB PUSH2 0x984 JUMPI PUSH1 0x1 PUSH1 0x1 PUSH1 0xA0 SHL SUB DUP5 AND PUSH1 0x0 SWAP1 DUP2 MSTORE PUSH1 0xE PUSH1 0x20 MSTORE PUSH1 0x40 SWAP1 KECCAK256 SLOAD DUP7 SWAP1 PUSH2 0x96B SWAP1 DUP6 PUSH2 0x19FE JUMP JUMPDEST PUSH2 0x975 SWAP2 SWAP1 PUSH2 0x1A20 JUMP JUMPDEST SWAP1 POP PUSH2 0x982 DUP2 PUSH1 0xA PUSH2 0x1A20 JUMP JUMPDEST POP JUMPDEST PUSH1 0xC PUSH1 0x0 DUP7 PUSH1 0x1 DUP2 GT ISZERO PUSH2 0x99A JUMPI PUSH2 0x99A PUSH2 0x18D2 JUMP JUMPDEST PUSH1 0x1 DUP2 GT ISZERO PUSH2 0x9AB JUMPI PUSH2 0x9AB PUSH2 0x18D2 JUMP JUMPDEST DUP2 MSTORE PUSH1 0x20 ADD SWAP1 DUP2 MSTORE PUSH1 0x20 ADD PUSH1 0x0 KECCAK256 SLOAD PUSH1 0x1 SUB PUSH2 0x9FF JUMPI PUSH1 0x1 PUSH1 0x1 PUSH1 0xA0 SHL SUB DUP5 AND PUSH1 0x0 SWAP1 DUP2 MSTORE PUSH1 0xE PUSH1 0x20 MSTORE PUSH1 0x40 SWAP1 KECCAK256 SLOAD DUP7 SWAP1 PUSH2 0x9E6 SWAP1 DUP5 PUSH2 0x19FE JUMP JUMPDEST PUSH2 0x9F0 SWAP2 SWAP1 PUSH2 0x1A20 JUMP JUMPDEST SWAP1 POP PUSH2 0x9FD DUP2 PUSH1 0xA PUSH2 0x1A20 JUMP JUMPDEST POP JUMPDEST PUSH1 0x1 PUSH1 0x1 PUSH1 0xA0 SHL SUB DUP5 AND PUSH1 0x0 SWAP1 DUP2 MSTORE PUSH1 0xF PUSH1 0x20 MSTORE PUSH1 0x40 SWAP1 KECCAK256 PUSH1 0x4 ADD DUP1 SLOAD PUSH1 0xFF NOT AND PUSH1 0x1 OR SWAP1 SSTORE PUSH1 0xC PUSH1 0x0 DUP7 PUSH1 0x1 DUP2 GT ISZERO PUSH2 0xA3B JUMPI PUSH2 0xA3B PUSH2 0x18D2 JUMP JUMPDEST PUSH1 0x1 DUP2 GT ISZERO PUSH2 0xA4C JUMPI PUSH2 0xA4C PUSH2 0x18D2 JUMP JUMPDEST DUP2 MSTORE PUSH1 0x20 ADD SWAP1 DUP2 MSTORE PUSH1 0x20 ADD PUSH1 0x0 KECCAK256 SLOAD PUSH1 0x0 SUB PUSH2 0xAA0 JUMPI PUSH1 0x1 PUSH1 0x1 PUSH1 0xA0 SHL SUB DUP5 AND PUSH1 0x0 SWAP1 DUP2 MSTORE PUSH1 0xF PUSH1 0x20 MSTORE PUSH1 0x40 SWAP1 KECCAK256 SLOAD DUP7 SWAP1 PUSH2 0xA87 SWAP1 DUP6 PUSH2 0x19FE JUMP JUMPDEST PUSH2 0xA91 SWAP2 SWAP1 PUSH2 0x1A20 JUMP JUMPDEST SWAP1 POP PUSH2 0xA9E DUP2 PUSH1 0xA PUSH2 0x1A20 JUMP JUMPDEST POP JUMPDEST PUSH1 0xC PUSH1 0x0 DUP7 PUSH1 0x1 DUP2 GT ISZERO PUSH2 0xAB6 JUMPI PUSH2 0xAB6 PUSH2 0x18D2 JUMP JUMPDEST PUSH1 0x1 DUP2 GT ISZERO PUSH2 0xAC7 JUMPI PUSH2 0xAC7 PUSH2 0x18D2 JUMP JUMPDEST DUP2 MSTORE PUSH1 0x20 ADD SWAP1 DUP2 MSTORE PUSH1 0x20 ADD PUSH1 0x0 KECCAK256 SLOAD PUSH1 0x1 SUB PUSH2 0xB1B JUMPI PUSH1 0x1 PUSH1 0x1 PUSH1 0xA0 SHL SUB DUP5 AND PUSH1 0x0 SWAP1 DUP2 MSTORE PUSH1 0xF PUSH1 0x20 MSTORE PUSH1 0x40 SWAP1 KECCAK256 SLOAD DUP7 SWAP1 PUSH2 0xB02 SWAP1 DUP5 PUSH2 0x19FE JUMP JUMPDEST PUSH2 0xB0C SWAP2 SWAP1 PUSH2 0x1A20 JUMP JUMPDEST SWAP1 POP PUSH2 0xB19 DUP2 PUSH1 0xA PUSH2 0x1A20 JUMP JUMPDEST POP JUMPDEST CALLER PUSH1 0x0 SWAP1 DUP2 MSTORE PUSH1 0xD PUSH1 0x20 MSTORE PUSH1 0x40 DUP2 KECCAK256 DUP1 SLOAD SWAP2 PUSH2 0xB36 DUP4 PUSH2 0x1A37 JUMP JUMPDEST SWAP1 SWAP2 SSTORE POP POP CALLER PUSH1 0x0 DUP2 DUP2 MSTORE PUSH1 0xD PUSH1 0x20 SWAP1 DUP2 MSTORE PUSH1 0x40 DUP1 DUP4 KECCAK256 SLOAD DUP2 MLOAD PUSH1 0xC0 DUP2 ADD DUP4 MSTORE SWAP5 DUP6 MSTORE SWAP2 DUP5 ADD DUP11 SWAP1 MSTORE SWAP1 SWAP3 SWAP2 SWAP1 DUP3 ADD SWAP1 PUSH1 0xC SWAP1 DUP10 PUSH1 0x1 DUP2 GT ISZERO PUSH2 0xB7B JUMPI PUSH2 0xB7B PUSH2 0x18D2 JUMP JUMPDEST PUSH1 0x1 DUP2 GT ISZERO PUSH2 0xB8C JUMPI PUSH2 0xB8C PUSH2 0x18D2 JUMP JUMPDEST DUP2 MSTORE PUSH1 0x20 ADD SWAP1 DUP2 MSTORE PUSH1 0x20 ADD PUSH1 0x0 KECCAK256 SLOAD PUSH1 0x0 EQ PUSH2 0xBA8 JUMPI DUP5 PUSH2 0xBAA JUMP JUMPDEST DUP6 JUMPDEST DUP2 MSTORE PUSH1 0x20 ADD DUP4 DUP2 MSTORE PUSH1 0x20 ADD PUSH1 0x1 ISZERO ISZERO DUP2 MSTORE PUSH1 0x20 ADD DUP8 PUSH1 0x1 DUP2 GT ISZERO PUSH2 0xBD0 JUMPI PUSH2 0xBD0 PUSH2 0x18D2 JUMP JUMPDEST SWAP1 MSTORE CALLER PUSH1 0x0 SWAP1 DUP2 MSTORE PUSH1 0xB PUSH1 0x20 SWAP1 DUP2 MSTORE PUSH1 0x40 DUP1 DUP4 KECCAK256 DUP6 DUP5 MSTORE DUP3 MSTORE SWAP2 DUP3 SWAP1 KECCAK256 DUP4 MLOAD DUP2 SLOAD PUSH1 0x1 PUSH1 0x1 PUSH1 0xA0 SHL SUB NOT AND PUSH1 0x1 PUSH1 0x1 PUSH1 0xA0 SHL SUB SWAP1 SWAP2 AND OR DUP2 SSTORE SWAP1 DUP4 ADD MLOAD PUSH1 0x1 DUP1 DUP4 ADD SWAP2 SWAP1 SWAP2 SSTORE SWAP2 DUP4 ADD MLOAD PUSH1 0x2 DUP3 ADD SSTORE PUSH1 0x60 DUP4 ADD MLOAD PUSH1 0x3 DUP3 ADD SSTORE PUSH1 0x80 DUP4 ADD MLOAD PUSH1 0x4 DUP3 ADD DUP1 SLOAD PUSH1 0xFF NOT DUP2 AND SWAP3 ISZERO ISZERO SWAP3 DUP4 OR DUP3 SSTORE PUSH1 0xA0 DUP7 ADD MLOAD SWAP4 SWAP5 SWAP2 SWAP3 PUSH2 0xFFFF NOT SWAP1 SWAP2 AND PUSH2 0xFF00 NOT SWAP1 SWAP2 AND OR SWAP1 PUSH2 0x100 SWAP1 DUP5 SWAP1 DUP2 GT ISZERO PUSH2 0xC6F JUMPI PUSH2 0xC6F PUSH2 0x18D2 JUMP JUMPDEST MUL OR SWAP1 SSTORE POP POP POP PUSH1 0x1 PUSH1 0x1 PUSH1 0xA0 SHL SUB DUP6 AND PUSH1 0x0 SWAP1 DUP2 MSTORE PUSH1 0xE PUSH1 0x20 MSTORE PUSH1 0x40 SWAP1 KECCAK256 PUSH1 0x3 ADD SLOAD PUSH2 0xC9D SWAP1 DUP4 SWAP1 PUSH2 0x1A50 JUMP JUMPDEST PUSH1 0x1 PUSH1 0x1 PUSH1 0xA0 SHL SUB DUP7 AND PUSH1 0x0 SWAP1 DUP2 MSTORE PUSH1 0xE PUSH1 0x20 SWAP1 DUP2 MSTORE PUSH1 0x40 DUP1 DUP4 KECCAK256 PUSH1 0x3 SWAP1 DUP2 ADD SWAP5 SWAP1 SWAP5 SSTORE PUSH1 0xF SWAP1 SWAP2 MSTORE SWAP1 KECCAK256 ADD SLOAD PUSH2 0xCD5 SWAP1 DUP4 SWAP1 PUSH2 0x1A50 JUMP JUMPDEST PUSH1 0x1 PUSH1 0x1 PUSH1 0xA0 SHL SUB DUP7 AND PUSH1 0x0 SWAP1 DUP2 MSTORE PUSH1 0xF PUSH1 0x20 MSTORE PUSH1 0x40 SWAP1 DUP2 SWAP1 KECCAK256 PUSH1 0x3 ADD SWAP2 SWAP1 SWAP2 SSTORE MLOAD PUSH4 0xA9059CBB PUSH1 0xE0 SHL DUP2 MSTORE CALLER PUSH1 0x4 DUP3 ADD MSTORE PUSH1 0x24 DUP2 ADD DUP4 SWAP1 MSTORE ADDRESS SWAP1 PUSH4 0xA9059CBB SWAP1 PUSH1 0x44 ADD PUSH1 0x20 PUSH1 0x40 MLOAD DUP1 DUP4 SUB DUP2 PUSH1 0x0 DUP8 GAS CALL ISZERO DUP1 ISZERO PUSH2 0xD38 JUMPI RETURNDATASIZE PUSH1 0x0 DUP1 RETURNDATACOPY RETURNDATASIZE PUSH1 0x0 REVERT JUMPDEST POP POP POP POP PUSH1 0x40 MLOAD RETURNDATASIZE PUSH1 0x1F NOT PUSH1 0x1F DUP3 ADD AND DUP3 ADD DUP1 PUSH1 0x40 MSTORE POP DUP2 ADD SWAP1 PUSH2 0xD5C SWAP2 SWAP1 PUSH2 0x1A63 JUMP JUMPDEST POP PUSH2 0xDAB CALLER PUSH2 0xD79 PUSH1 0x5 SLOAD PUSH1 0x1 PUSH1 0x1 PUSH1 0xA0 SHL SUB PUSH2 0x100 SWAP1 SWAP2 DIV AND SWAP1 JUMP JUMPDEST PUSH1 0x1 PUSH1 0x1 PUSH1 0xA0 SHL SUB PUSH32 0x0 AND SWAP2 SWAP1 DUP11 PUSH2 0x126F JUMP JUMPDEST CALLER PUSH1 0x1 PUSH1 0x1 PUSH1 0xA0 SHL SUB AND PUSH32 0xD4931B49116597BA4C0DC45E86282975F4A32D1B8F4491EAC0BF71187E654D90 DUP9 DUP9 DUP9 PUSH1 0x40 MLOAD PUSH2 0xDE8 SWAP4 SWAP3 SWAP2 SWAP1 PUSH2 0x1A85 JUMP JUMPDEST PUSH1 0x40 MLOAD DUP1 SWAP2 SUB SWAP1 LOG2 POP POP POP POP PUSH2 0xDFE PUSH1 0x1 PUSH1 0x6 SSTORE JUMP JUMPDEST POP POP POP JUMP JUMPDEST PUSH1 0x40 MLOAD DUP1 PUSH1 0xA0 ADD PUSH1 0x40 MSTORE DUP1 DUP5 DUP2 MSTORE PUSH1 0x20 ADD TIMESTAMP DUP2 MSTORE PUSH1 0x20 ADD DUP4 DUP2 MSTORE PUSH1 0x20 ADD PUSH2 0xE28 PUSH1 0x12 SWAP1 JUMP JUMPDEST PUSH2 0xE33 SWAP1 PUSH1 0xA PUSH2 0x1B99 JUMP JUMPDEST PUSH1 0x64 PUSH2 0xE3E PUSH1 0x2 SLOAD SWAP1 JUMP JUMPDEST PUSH2 0xE4B SWAP1 PUSH3 0xF4240 PUSH2 0x1A20 JUMP JUMPDEST PUSH2 0xE55 SWAP2 SWAP1 PUSH2 0x19FE JUMP JUMPDEST PUSH2 0xE5F SWAP2 SWAP1 PUSH2 0x19FE JUMP JUMPDEST DUP2 MSTORE PUSH1 0x1 PUSH1 0x20 SWAP2 DUP3 ADD DUP2 SWAP1 MSTORE PUSH1 0x1 PUSH1 0x1 PUSH1 0xA0 SHL SUB SWAP4 SWAP1 SWAP4 AND PUSH1 0x0 SWAP1 DUP2 MSTORE PUSH1 0xF DUP3 MSTORE PUSH1 0x40 SWAP1 DUP2 SWAP1 KECCAK256 DUP4 MLOAD DUP2 SSTORE SWAP2 DUP4 ADD MLOAD SWAP4 DUP3 ADD SWAP4 SWAP1 SWAP4 SSTORE SWAP2 DUP2 ADD MLOAD PUSH1 0x2 DUP4 ADD SSTORE PUSH1 0x60 DUP2 ADD MLOAD PUSH1 0x3 DUP4 ADD SSTORE PUSH1 0x80 ADD MLOAD PUSH1 0x4 SWAP1 SWAP2 ADD DUP1 SLOAD PUSH1 0xFF NOT AND SWAP2 ISZERO ISZERO SWAP2 SWAP1 SWAP2 OR SWAP1 SSTORE POP POP JUMP JUMPDEST PUSH1 0x40 MLOAD DUP1 PUSH1 0xA0 ADD PUSH1 0x40 MSTORE DUP1 DUP5 DUP2 MSTORE PUSH1 0x20 ADD TIMESTAMP DUP2 MSTORE PUSH1 0x20 ADD DUP4 DUP2 MSTORE PUSH1 0x20 ADD PUSH2 0xEE9 PUSH1 0x12 SWAP1 JUMP JUMPDEST PUSH2 0xEF4 SWAP1 PUSH1 0xA PUSH2 0x1B99 JUMP JUMPDEST PUSH1 0x64 PUSH2 0xEFF PUSH1 0x2 SLOAD SWAP1 JUMP JUMPDEST PUSH2 0xF0C SWAP1 PUSH3 0xF4240 PUSH2 0x1A20 JUMP JUMPDEST PUSH2 0xF16 SWAP2 SWAP1 PUSH2 0x19FE JUMP JUMPDEST PUSH2 0xF20 SWAP2 SWAP1 PUSH2 0x19FE JUMP JUMPDEST DUP2 MSTORE PUSH1 0x1 PUSH1 0x20 SWAP2 DUP3 ADD DUP2 SWAP1 MSTORE PUSH1 0x1 PUSH1 0x1 PUSH1 0xA0 SHL SUB SWAP4 SWAP1 SWAP4 AND PUSH1 0x0 SWAP1 DUP2 MSTORE PUSH1 0xE DUP3 MSTORE PUSH1 0x40 SWAP1 DUP2 SWAP1 KECCAK256 DUP4 MLOAD DUP2 SSTORE SWAP2 DUP4 ADD MLOAD SWAP4 DUP3 ADD SWAP4 SWAP1 SWAP4 SSTORE SWAP2 DUP2 ADD MLOAD PUSH1 0x2 DUP4 ADD SSTORE PUSH1 0x60 DUP2 ADD MLOAD PUSH1 0x3 DUP4 ADD SSTORE PUSH1 0x80 ADD MLOAD PUSH1 0x4 SWAP1 SWAP2 ADD DUP1 SLOAD PUSH1 0xFF NOT AND SWAP2 ISZERO ISZERO SWAP2 SWAP1 SWAP2 OR SWAP1 SSTORE POP POP JUMP JUMPDEST PUSH2 0xF8D PUSH2 0x1116 JUMP JUMPDEST PUSH2 0x5B4 PUSH1 0x0 PUSH2 0x12C9 JUMP JUMPDEST PUSH2 0xFA2 DUP3 CALLER DUP4 PUSH2 0x1039 JUMP JUMPDEST PUSH2 0xFAC DUP3 DUP3 PUSH2 0x119B JUMP JUMPDEST POP POP JUMP JUMPDEST PUSH2 0xFB8 PUSH2 0x1116 JUMP JUMPDEST PUSH2 0x5B4 PUSH2 0x1323 JUMP JUMPDEST PUSH1 0x60 PUSH1 0x4 DUP1 SLOAD PUSH2 0x4E1 SWAP1 PUSH2 0x19AE JUMP JUMPDEST PUSH1 0x0 CALLER PUSH2 0x572 DUP2 DUP6 DUP6 PUSH2 0x10B7 JUMP JUMPDEST PUSH2 0xFE5 PUSH2 0x1116 JUMP JUMPDEST PUSH2 0x5C0 ADDRESS CALLER DUP2 DUP5 PUSH2 0x126F JUMP JUMPDEST PUSH2 0xFF9 PUSH2 0x1116 JUMP JUMPDEST PUSH1 0x1 PUSH1 0x1 PUSH1 0xA0 SHL SUB DUP2 AND PUSH2 0x1023 JUMPI PUSH1 0x40 MLOAD PUSH4 0x1E4FBDF7 PUSH1 0xE0 SHL DUP2 MSTORE PUSH1 0x0 PUSH1 0x4 DUP3 ADD MSTORE PUSH1 0x24 ADD PUSH2 0x630 JUMP JUMPDEST PUSH2 0x5C0 DUP2 PUSH2 0x12C9 JUMP JUMPDEST PUSH2 0xDFE DUP4 DUP4 DUP4 PUSH1 0x1 PUSH2 0x1360 JUMP JUMPDEST PUSH1 0x1 PUSH1 0x1 PUSH1 0xA0 SHL SUB DUP4 DUP2 AND PUSH1 0x0 SWAP1 DUP2 MSTORE PUSH1 0x1 PUSH1 0x20 SWAP1 DUP2 MSTORE PUSH1 0x40 DUP1 DUP4 KECCAK256 SWAP4 DUP7 AND DUP4 MSTORE SWAP3 SWAP1 MSTORE KECCAK256 SLOAD PUSH1 0x0 NOT DUP2 EQ PUSH2 0x10B1 JUMPI DUP2 DUP2 LT ISZERO PUSH2 0x10A2 JUMPI PUSH1 0x40 MLOAD PUSH4 0x7DC7A0D9 PUSH1 0xE1 SHL DUP2 MSTORE PUSH1 0x1 PUSH1 0x1 PUSH1 0xA0 SHL SUB DUP5 AND PUSH1 0x4 DUP3 ADD MSTORE PUSH1 0x24 DUP2 ADD DUP3 SWAP1 MSTORE PUSH1 0x44 DUP2 ADD DUP4 SWAP1 MSTORE PUSH1 0x64 ADD PUSH2 0x630 JUMP JUMPDEST PUSH2 0x10B1 DUP5 DUP5 DUP5 DUP5 SUB PUSH1 0x0 PUSH2 0x1360 JUMP JUMPDEST POP POP POP POP JUMP JUMPDEST PUSH1 0x1 PUSH1 0x1 PUSH1 0xA0 SHL SUB DUP4 AND PUSH2 0x10E1 JUMPI PUSH1 0x40 MLOAD PUSH4 0x4B637E8F PUSH1 0xE1 SHL DUP2 MSTORE PUSH1 0x0 PUSH1 0x4 DUP3 ADD MSTORE PUSH1 0x24 ADD PUSH2 0x630 JUMP JUMPDEST PUSH1 0x1 PUSH1 0x1 PUSH1 0xA0 SHL SUB DUP3 AND PUSH2 0x110B JUMPI PUSH1 0x40 MLOAD PUSH4 0xEC442F05 PUSH1 0xE0 SHL DUP2 MSTORE PUSH1 0x0 PUSH1 0x4 DUP3 ADD MSTORE PUSH1 0x24 ADD PUSH2 0x630 JUMP JUMPDEST PUSH2 0xDFE DUP4 DUP4 DUP4 PUSH2 0x1435 JUMP JUMPDEST PUSH1 0x5 SLOAD PUSH1 0x1 PUSH1 0x1 PUSH1 0xA0 SHL SUB PUSH2 0x100 SWAP1 SWAP2 DIV AND CALLER EQ PUSH2 0x5B4 JUMPI PUSH1 0x40 MLOAD PUSH4 0x118CDAA7 PUSH1 0xE0 SHL DUP2 MSTORE CALLER PUSH1 0x4 DUP3 ADD MSTORE PUSH1 0x24 ADD PUSH2 0x630 JUMP JUMPDEST PUSH2 0x1151 PUSH2 0x155F JUMP JUMPDEST PUSH1 0x5 DUP1 SLOAD PUSH1 0xFF NOT AND SWAP1 SSTORE PUSH32 0x5DB9EE0A495BF2E6FF9C91A7834C1BA4FDD244A5E8AA4E537BD38AEAE4B073AA CALLER JUMPDEST PUSH1 0x40 MLOAD PUSH1 0x1 PUSH1 0x1 PUSH1 0xA0 SHL SUB SWAP1 SWAP2 AND DUP2 MSTORE PUSH1 0x20 ADD PUSH1 0x40 MLOAD DUP1 SWAP2 SUB SWAP1 LOG1 JUMP JUMPDEST PUSH1 0x1 PUSH1 0x1 PUSH1 0xA0 SHL SUB DUP3 AND PUSH2 0x11C5 JUMPI PUSH1 0x40 MLOAD PUSH4 0x4B637E8F PUSH1 0xE1 SHL DUP2 MSTORE PUSH1 0x0 PUSH1 0x4 DUP3 ADD MSTORE PUSH1 0x24 ADD PUSH2 0x630 JUMP JUMPDEST PUSH2 0xFAC DUP3 PUSH1 0x0 DUP4 PUSH2 0x1435 JUMP JUMPDEST PUSH1 0x2 PUSH1 0x6 SLOAD SUB PUSH2 0x1223 JUMPI PUSH1 0x40 MLOAD PUSH3 0x461BCD PUSH1 0xE5 SHL DUP2 MSTORE PUSH1 0x20 PUSH1 0x4 DUP3 ADD MSTORE PUSH1 0x1F PUSH1 0x24 DUP3 ADD MSTORE PUSH32 0x5265656E7472616E637947756172643A207265656E7472616E742063616C6C00 PUSH1 0x44 DUP3 ADD MSTORE PUSH1 0x64 ADD PUSH2 0x630 JUMP JUMPDEST PUSH1 0x2 PUSH1 0x6 SSTORE JUMP JUMPDEST PUSH2 0x5C0 DUP2 PUSH1 0x40 MLOAD PUSH1 0x24 ADD PUSH2 0x1240 SWAP2 DUP2 MSTORE PUSH1 0x20 ADD SWAP1 JUMP JUMPDEST PUSH1 0x40 DUP1 MLOAD PUSH1 0x1F NOT DUP2 DUP5 SUB ADD DUP2 MSTORE SWAP2 SWAP1 MSTORE PUSH1 0x20 DUP2 ADD DUP1 MLOAD PUSH1 0x1 PUSH1 0x1 PUSH1 0xE0 SHL SUB AND PUSH4 0xF82C50F1 PUSH1 0xE0 SHL OR SWAP1 MSTORE PUSH2 0x15A8 JUMP JUMPDEST PUSH1 0x40 DUP1 MLOAD PUSH1 0x1 PUSH1 0x1 PUSH1 0xA0 SHL SUB DUP6 DUP2 AND PUSH1 0x24 DUP4 ADD MSTORE DUP5 AND PUSH1 0x44 DUP3 ADD MSTORE PUSH1 0x64 DUP1 DUP3 ADD DUP5 SWAP1 MSTORE DUP3 MLOAD DUP1 DUP4 SUB SWAP1 SWAP2 ADD DUP2 MSTORE PUSH1 0x84 SWAP1 SWAP2 ADD SWAP1 SWAP2 MSTORE PUSH1 0x20 DUP2 ADD DUP1 MLOAD PUSH1 0x1 PUSH1 0x1 PUSH1 0xE0 SHL SUB AND PUSH4 0x23B872DD PUSH1 0xE0 SHL OR SWAP1 MSTORE PUSH2 0x10B1 SWAP1 DUP6 SWAP1 PUSH2 0x15B1 JUMP JUMPDEST PUSH1 0x5 DUP1 SLOAD PUSH1 0x1 PUSH1 0x1 PUSH1 0xA0 SHL SUB DUP4 DUP2 AND PUSH2 0x100 DUP2 DUP2 MUL PUSH2 0x100 PUSH1 0x1 PUSH1 0xA8 SHL SUB NOT DUP6 AND OR SWAP1 SWAP5 SSTORE PUSH1 0x40 MLOAD SWAP4 SWAP1 SWAP3 DIV AND SWAP2 DUP3 SWAP1 PUSH32 0x8BE0079C531659141344CD1FD0A4F28419497F9722A3DAAFE3B4186F6B6457E0 SWAP1 PUSH1 0x0 SWAP1 LOG3 POP POP JUMP JUMPDEST PUSH2 0x132B PUSH2 0x1614 JUMP JUMPDEST PUSH1 0x5 DUP1 SLOAD PUSH1 0xFF NOT AND PUSH1 0x1 OR SWAP1 SSTORE PUSH32 0x62E78CEA01BEE320CD4E420270B5EA74000D11B0C9F74754EBDBFC544B05A258 PUSH2 0x117E CALLER SWAP1 JUMP JUMPDEST PUSH1 0x1 PUSH1 0x1 PUSH1 0xA0 SHL SUB DUP5 AND PUSH2 0x138A JUMPI PUSH1 0x40 MLOAD PUSH4 0xE602DF05 PUSH1 0xE0 SHL DUP2 MSTORE PUSH1 0x0 PUSH1 0x4 DUP3 ADD MSTORE PUSH1 0x24 ADD PUSH2 0x630 JUMP JUMPDEST PUSH1 0x1 PUSH1 0x1 PUSH1 0xA0 SHL SUB DUP4 AND PUSH2 0x13B4 JUMPI PUSH1 0x40 MLOAD PUSH4 0x4A1406B1 PUSH1 0xE1 SHL DUP2 MSTORE PUSH1 0x0 PUSH1 0x4 DUP3 ADD MSTORE PUSH1 0x24 ADD PUSH2 0x630 JUMP JUMPDEST PUSH1 0x1 PUSH1 0x1 PUSH1 0xA0 SHL SUB DUP1 DUP6 AND PUSH1 0x0 SWAP1 DUP2 MSTORE PUSH1 0x1 PUSH1 0x20 SWAP1 DUP2 MSTORE PUSH1 0x40 DUP1 DUP4 KECCAK256 SWAP4 DUP8 AND DUP4 MSTORE SWAP3 SWAP1 MSTORE KECCAK256 DUP3 SWAP1 SSTORE DUP1 ISZERO PUSH2 0x10B1 JUMPI DUP3 PUSH1 0x1 PUSH1 0x1 PUSH1 0xA0 SHL SUB AND DUP5 PUSH1 0x1 PUSH1 0x1 PUSH1 0xA0 SHL SUB AND PUSH32 0x8C5BE1E5EBEC7D5BD14F71427D1E84F3DD0314C0F7B2291E5B200AC8C7C3B925 DUP5 PUSH1 0x40 MLOAD PUSH2 0x1427 SWAP2 DUP2 MSTORE PUSH1 0x20 ADD SWAP1 JUMP JUMPDEST PUSH1 0x40 MLOAD DUP1 SWAP2 SUB SWAP1 LOG3 POP POP POP POP JUMP JUMPDEST PUSH1 0x1 PUSH1 0x1 PUSH1 0xA0 SHL SUB DUP4 AND PUSH2 0x1460 JUMPI DUP1 PUSH1 0x2 PUSH1 0x0 DUP3 DUP3 SLOAD PUSH2 0x1455 SWAP2 SWAP1 PUSH2 0x1BA8 JUMP JUMPDEST SWAP1 SWAP2 SSTORE POP PUSH2 0x14D2 SWAP1 POP JUMP JUMPDEST PUSH1 0x1 PUSH1 0x1 PUSH1 0xA0 SHL SUB DUP4 AND PUSH1 0x0 SWAP1 DUP2 MSTORE PUSH1 0x20 DUP2 SWAP1 MSTORE PUSH1 0x40 SWAP1 KECCAK256 SLOAD DUP2 DUP2 LT ISZERO PUSH2 0x14B3 JUMPI PUSH1 0x40 MLOAD PUSH4 0x391434E3 PUSH1 0xE2 SHL DUP2 MSTORE PUSH1 0x1 PUSH1 0x1 PUSH1 0xA0 SHL SUB DUP6 AND PUSH1 0x4 DUP3 ADD MSTORE PUSH1 0x24 DUP2 ADD DUP3 SWAP1 MSTORE PUSH1 0x44 DUP2 ADD DUP4 SWAP1 MSTORE PUSH1 0x64 ADD PUSH2 0x630 JUMP JUMPDEST PUSH1 0x1 PUSH1 0x1 PUSH1 0xA0 SHL SUB DUP5 AND PUSH1 0x0 SWAP1 DUP2 MSTORE PUSH1 0x20 DUP2 SWAP1 MSTORE PUSH1 0x40 SWAP1 KECCAK256 SWAP1 DUP3 SWAP1 SUB SWAP1 SSTORE JUMPDEST PUSH1 0x1 PUSH1 0x1 PUSH1 0xA0 SHL SUB DUP3 AND PUSH2 0x14EE JUMPI PUSH1 0x2 DUP1 SLOAD DUP3 SWAP1 SUB SWAP1 SSTORE PUSH2 0x150D JUMP JUMPDEST PUSH1 0x1 PUSH1 0x1 PUSH1 0xA0 SHL SUB DUP3 AND PUSH1 0x0 SWAP1 DUP2 MSTORE PUSH1 0x20 DUP2 SWAP1 MSTORE PUSH1 0x40 SWAP1 KECCAK256 DUP1 SLOAD DUP3 ADD SWAP1 SSTORE JUMPDEST DUP2 PUSH1 0x1 PUSH1 0x1 PUSH1 0xA0 SHL SUB AND DUP4 PUSH1 0x1 PUSH1 0x1 PUSH1 0xA0 SHL SUB AND PUSH32 0xDDF252AD1BE2C89B69C2B068FC378DAA952BA7F163C4A11628F55A4DF523B3EF DUP4 PUSH1 0x40 MLOAD PUSH2 0x1552 SWAP2 DUP2 MSTORE PUSH1 0x20 ADD SWAP1 JUMP JUMPDEST PUSH1 0x40 MLOAD DUP1 SWAP2 SUB SWAP1 LOG3 POP POP POP JUMP JUMPDEST PUSH1 0x5 SLOAD PUSH1 0xFF AND PUSH2 0x5B4 JUMPI PUSH1 0x40 MLOAD PUSH3 0x461BCD PUSH1 0xE5 SHL DUP2 MSTORE PUSH1 0x20 PUSH1 0x4 DUP3 ADD MSTORE PUSH1 0x14 PUSH1 0x24 DUP3 ADD MSTORE PUSH20 0x14185D5CD8589B194E881B9BDD081C185D5CD959 PUSH1 0x62 SHL PUSH1 0x44 DUP3 ADD MSTORE PUSH1 0x64 ADD PUSH2 0x630 JUMP JUMPDEST PUSH2 0x5C0 DUP2 PUSH2 0x165A JUMP JUMPDEST PUSH1 0x0 PUSH2 0x15C6 PUSH1 0x1 PUSH1 0x1 PUSH1 0xA0 SHL SUB DUP5 AND DUP4 PUSH2 0x167B JUMP JUMPDEST SWAP1 POP DUP1 MLOAD PUSH1 0x0 EQ ISZERO DUP1 ISZERO PUSH2 0x15EB JUMPI POP DUP1 DUP1 PUSH1 0x20 ADD SWAP1 MLOAD DUP2 ADD SWAP1 PUSH2 0x15E9 SWAP2 SWAP1 PUSH2 0x1A63 JUMP JUMPDEST ISZERO JUMPDEST ISZERO PUSH2 0xDFE JUMPI PUSH1 0x40 MLOAD PUSH4 0x5274AFE7 PUSH1 0xE0 SHL DUP2 MSTORE PUSH1 0x1 PUSH1 0x1 PUSH1 0xA0 SHL SUB DUP5 AND PUSH1 0x4 DUP3 ADD MSTORE PUSH1 0x24 ADD PUSH2 0x630 JUMP JUMPDEST PUSH1 0x5 SLOAD PUSH1 0xFF AND ISZERO PUSH2 0x5B4 JUMPI PUSH1 0x40 MLOAD PUSH3 0x461BCD PUSH1 0xE5 SHL DUP2 MSTORE PUSH1 0x20 PUSH1 0x4 DUP3 ADD MSTORE PUSH1 0x10 PUSH1 0x24 DUP3 ADD MSTORE PUSH16 0x14185D5CD8589B194E881C185D5CD959 PUSH1 0x82 SHL PUSH1 0x44 DUP3 ADD MSTORE PUSH1 0x64 ADD PUSH2 0x630 JUMP JUMPDEST PUSH1 0x0 PUSH11 0x636F6E736F6C652E6C6F67 SWAP1 POP PUSH1 0x0 DUP1 DUP4 MLOAD PUSH1 0x20 DUP6 ADD DUP5 GAS STATICCALL POP POP POP JUMP JUMPDEST PUSH1 0x60 PUSH2 0x59D DUP4 DUP4 PUSH1 0x0 DUP5 PUSH1 0x0 DUP1 DUP6 PUSH1 0x1 PUSH1 0x1 PUSH1 0xA0 SHL SUB AND DUP5 DUP7 PUSH1 0x40 MLOAD PUSH2 0x16A1 SWAP2 SWAP1 PUSH2 0x1BBB JUMP JUMPDEST PUSH1 0x0 PUSH1 0x40 MLOAD DUP1 DUP4 SUB DUP2 DUP6 DUP8 GAS CALL SWAP3 POP POP POP RETURNDATASIZE DUP1 PUSH1 0x0 DUP2 EQ PUSH2 0x16DE JUMPI PUSH1 0x40 MLOAD SWAP2 POP PUSH1 0x1F NOT PUSH1 0x3F RETURNDATASIZE ADD AND DUP3 ADD PUSH1 0x40 MSTORE RETURNDATASIZE DUP3 MSTORE RETURNDATASIZE PUSH1 0x0 PUSH1 0x20 DUP5 ADD RETURNDATACOPY PUSH2 0x16E3 JUMP JUMPDEST PUSH1 0x60 SWAP2 POP JUMPDEST POP SWAP2 POP SWAP2 POP PUSH2 0x16F3 DUP7 DUP4 DUP4 PUSH2 0x16FD JUMP JUMPDEST SWAP7 SWAP6 POP POP POP POP POP POP JUMP JUMPDEST PUSH1 0x60 DUP3 PUSH2 0x1712 JUMPI PUSH2 0x170D DUP3 PUSH2 0x1759 JUMP JUMPDEST PUSH2 0x59D JUMP JUMPDEST DUP2 MLOAD ISZERO DUP1 ISZERO PUSH2 0x1729 JUMPI POP PUSH1 0x1 PUSH1 0x1 PUSH1 0xA0 SHL SUB DUP5 AND EXTCODESIZE ISZERO JUMPDEST ISZERO PUSH2 0x1752 JUMPI PUSH1 0x40 MLOAD PUSH4 0x9996B315 PUSH1 0xE0 SHL DUP2 MSTORE PUSH1 0x1 PUSH1 0x1 PUSH1 0xA0 SHL SUB DUP6 AND PUSH1 0x4 DUP3 ADD MSTORE PUSH1 0x24 ADD PUSH2 0x630 JUMP JUMPDEST POP DUP1 PUSH2 0x59D JUMP JUMPDEST DUP1 MLOAD ISZERO PUSH2 0x1769 JUMPI DUP1 MLOAD DUP1 DUP3 PUSH1 0x20 ADD REVERT JUMPDEST PUSH1 0x40 MLOAD PUSH4 0xA12F521 PUSH1 0xE1 SHL DUP2 MSTORE PUSH1 0x4 ADD PUSH1 0x40 MLOAD DUP1 SWAP2 SUB SWAP1 REVERT JUMPDEST DUP1 CALLDATALOAD PUSH1 0x1 PUSH1 0x1 PUSH1 0xA0 SHL SUB DUP2 AND DUP2 EQ PUSH2 0x1799 JUMPI PUSH1 0x0 DUP1 REVERT JUMPDEST SWAP2 SWAP1 POP JUMP JUMPDEST PUSH1 0x0 PUSH1 0x20 DUP3 DUP5 SUB SLT ISZERO PUSH2 0x17B0 JUMPI PUSH1 0x0 DUP1 REVERT JUMPDEST PUSH2 0x59D DUP3 PUSH2 0x1782 JUMP JUMPDEST PUSH1 0x0 JUMPDEST DUP4 DUP2 LT ISZERO PUSH2 0x17D4 JUMPI DUP2 DUP2 ADD MLOAD DUP4 DUP3 ADD MSTORE PUSH1 0x20 ADD PUSH2 0x17BC JUMP JUMPDEST POP POP PUSH1 0x0 SWAP2 ADD MSTORE JUMP JUMPDEST PUSH1 0x20 DUP2 MSTORE PUSH1 0x0 DUP3 MLOAD DUP1 PUSH1 0x20 DUP5 ADD MSTORE PUSH2 0x17FC DUP2 PUSH1 0x40 DUP6 ADD PUSH1 0x20 DUP8 ADD PUSH2 0x17B9 JUMP JUMPDEST PUSH1 0x1F ADD PUSH1 0x1F NOT AND SWAP2 SWAP1 SWAP2 ADD PUSH1 0x40 ADD SWAP3 SWAP2 POP POP JUMP JUMPDEST PUSH1 0x0 DUP1 PUSH1 0x40 DUP4 DUP6 SUB SLT ISZERO PUSH2 0x1823 JUMPI PUSH1 0x0 DUP1 REVERT JUMPDEST PUSH2 0x182C DUP4 PUSH2 0x1782 JUMP JUMPDEST SWAP5 PUSH1 0x20 SWAP4 SWAP1 SWAP4 ADD CALLDATALOAD SWAP4 POP POP POP JUMP JUMPDEST PUSH1 0x0 DUP1 PUSH1 0x0 PUSH1 0x60 DUP5 DUP7 SUB SLT ISZERO PUSH2 0x184F JUMPI PUSH1 0x0 DUP1 REVERT JUMPDEST PUSH2 0x1858 DUP5 PUSH2 0x1782 JUMP JUMPDEST SWAP3 POP PUSH2 0x1866 PUSH1 0x20 DUP6 ADD PUSH2 0x1782 JUMP JUMPDEST SWAP3 SWAP6 SWAP3 SWAP5 POP POP POP PUSH1 0x40 SWAP2 SWAP1 SWAP2 ADD CALLDATALOAD SWAP1 JUMP JUMPDEST PUSH1 0x0 PUSH1 0x20 DUP3 DUP5 SUB SLT ISZERO PUSH2 0x1889 JUMPI PUSH1 0x0 DUP1 REVERT JUMPDEST POP CALLDATALOAD SWAP2 SWAP1 POP JUMP JUMPDEST PUSH1 0x0 DUP1 PUSH1 0x0 PUSH1 0x60 DUP5 DUP7 SUB SLT ISZERO PUSH2 0x18A5 JUMPI PUSH1 0x0 DUP1 REVERT JUMPDEST DUP4 CALLDATALOAD SWAP3 POP PUSH1 0x20 DUP5 ADD CALLDATALOAD PUSH1 0x2 DUP2 LT PUSH2 0x18BB JUMPI PUSH1 0x0 DUP1 REVERT JUMPDEST SWAP2 POP PUSH2 0x18C9 PUSH1 0x40 DUP6 ADD PUSH2 0x1782 JUMP JUMPDEST SWAP1 POP SWAP3 POP SWAP3 POP SWAP3 JUMP JUMPDEST PUSH4 0x4E487B71 PUSH1 0xE0 SHL PUSH1 0x0 MSTORE PUSH1 0x21 PUSH1 0x4 MSTORE PUSH1 0x24 PUSH1 0x0 REVERT JUMPDEST PUSH1 0x2 DUP2 LT PUSH2 0x1906 JUMPI PUSH4 0x4E487B71 PUSH1 0xE0 SHL PUSH1 0x0 MSTORE PUSH1 0x21 PUSH1 0x4 MSTORE PUSH1 0x24 PUSH1 0x0 REVERT JUMPDEST SWAP1 MSTORE JUMP JUMPDEST PUSH1 0x1 PUSH1 0x1 PUSH1 0xA0 SHL SUB DUP8 AND DUP2 MSTORE PUSH1 0x20 DUP2 ADD DUP7 SWAP1 MSTORE PUSH1 0x40 DUP2 ADD DUP6 SWAP1 MSTORE PUSH1 0x60 DUP2 ADD DUP5 SWAP1 MSTORE DUP3 ISZERO ISZERO PUSH1 0x80 DUP3 ADD MSTORE PUSH1 0xC0 DUP2 ADD PUSH2 0x1944 PUSH1 0xA0 DUP4 ADD DUP5 PUSH2 0x18E8 JUMP JUMPDEST SWAP8 SWAP7 POP POP POP POP POP POP POP JUMP JUMPDEST PUSH1 0x0 DUP1 PUSH1 0x0 PUSH1 0x60 DUP5 DUP7 SUB SLT ISZERO PUSH2 0x1964 JUMPI PUSH1 0x0 DUP1 REVERT JUMPDEST DUP4 CALLDATALOAD SWAP3 POP PUSH1 0x20 DUP5 ADD CALLDATALOAD SWAP2 POP PUSH2 0x18C9 PUSH1 0x40 DUP6 ADD PUSH2 0x1782 JUMP JUMPDEST PUSH1 0x0 DUP1 PUSH1 0x40 DUP4 DUP6 SUB SLT ISZERO PUSH2 0x198E JUMPI PUSH1 0x0 DUP1 REVERT JUMPDEST PUSH2 0x1997 DUP4 PUSH2 0x1782 JUMP JUMPDEST SWAP2 POP PUSH2 0x19A5 PUSH1 0x20 DUP5 ADD PUSH2 0x1782 JUMP JUMPDEST SWAP1 POP SWAP3 POP SWAP3 SWAP1 POP JUMP JUMPDEST PUSH1 0x1 DUP2 DUP2 SHR SWAP1 DUP3 AND DUP1 PUSH2 0x19C2 JUMPI PUSH1 0x7F DUP3 AND SWAP2 POP JUMPDEST PUSH1 0x20 DUP3 LT DUP2 SUB PUSH2 0x19E2 JUMPI PUSH4 0x4E487B71 PUSH1 0xE0 SHL PUSH1 0x0 MSTORE PUSH1 0x22 PUSH1 0x4 MSTORE PUSH1 0x24 PUSH1 0x0 REVERT JUMPDEST POP SWAP2 SWAP1 POP JUMP JUMPDEST PUSH4 0x4E487B71 PUSH1 0xE0 SHL PUSH1 0x0 MSTORE PUSH1 0x11 PUSH1 0x4 MSTORE PUSH1 0x24 PUSH1 0x0 REVERT JUMPDEST PUSH1 0x0 DUP3 PUSH2 0x1A1B JUMPI PUSH4 0x4E487B71 PUSH1 0xE0 SHL PUSH1 0x0 MSTORE PUSH1 0x12 PUSH1 0x4 MSTORE PUSH1 0x24 PUSH1 0x0 REVERT JUMPDEST POP DIV SWAP1 JUMP JUMPDEST DUP1 DUP3 MUL DUP2 ISZERO DUP3 DUP3 DIV DUP5 EQ OR PUSH2 0x578 JUMPI PUSH2 0x578 PUSH2 0x19E8 JUMP JUMPDEST PUSH1 0x0 PUSH1 0x1 DUP3 ADD PUSH2 0x1A49 JUMPI PUSH2 0x1A49 PUSH2 0x19E8 JUMP JUMPDEST POP PUSH1 0x1 ADD SWAP1 JUMP JUMPDEST DUP2 DUP2 SUB DUP2 DUP2 GT ISZERO PUSH2 0x578 JUMPI PUSH2 0x578 PUSH2 0x19E8 JUMP JUMPDEST PUSH1 0x0 PUSH1 0x20 DUP3 DUP5 SUB SLT ISZERO PUSH2 0x1A75 JUMPI PUSH1 0x0 DUP1 REVERT JUMPDEST DUP2 MLOAD DUP1 ISZERO ISZERO DUP2 EQ PUSH2 0x59D JUMPI PUSH1 0x0 DUP1 REVERT JUMPDEST DUP4 DUP2 MSTORE PUSH1 0x60 DUP2 ADD PUSH2 0x1A99 PUSH1 0x20 DUP4 ADD DUP6 PUSH2 0x18E8 JUMP JUMPDEST PUSH1 0x1 PUSH1 0x1 PUSH1 0xA0 SHL SUB SWAP3 SWAP1 SWAP3 AND PUSH1 0x40 SWAP2 SWAP1 SWAP2 ADD MSTORE SWAP3 SWAP2 POP POP JUMP JUMPDEST PUSH1 0x1 DUP2 JUMPDEST PUSH1 0x1 DUP5 GT ISZERO PUSH2 0x1AED JUMPI DUP1 DUP6 DIV DUP2 GT ISZERO PUSH2 0x1AD1 JUMPI PUSH2 0x1AD1 PUSH2 0x19E8 JUMP JUMPDEST PUSH1 0x1 DUP5 AND ISZERO PUSH2 0x1ADF JUMPI SWAP1 DUP2 MUL SWAP1 JUMPDEST PUSH1 0x1 SWAP4 SWAP1 SWAP4 SHR SWAP3 DUP1 MUL PUSH2 0x1AB6 JUMP JUMPDEST SWAP4 POP SWAP4 SWAP2 POP POP JUMP JUMPDEST PUSH1 0x0 DUP3 PUSH2 0x1B04 JUMPI POP PUSH1 0x1 PUSH2 0x578 JUMP JUMPDEST DUP2 PUSH2 0x1B11 JUMPI POP PUSH1 0x0 PUSH2 0x578 JUMP JUMPDEST DUP2 PUSH1 0x1 DUP2 EQ PUSH2 0x1B27 JUMPI PUSH1 0x2 DUP2 EQ PUSH2 0x1B31 JUMPI PUSH2 0x1B4D JUMP JUMPDEST PUSH1 0x1 SWAP2 POP POP PUSH2 0x578 JUMP JUMPDEST PUSH1 0xFF DUP5 GT ISZERO PUSH2 0x1B42 JUMPI PUSH2 0x1B42 PUSH2 0x19E8 JUMP JUMPDEST POP POP PUSH1 0x1 DUP3 SHL PUSH2 0x578 JUMP JUMPDEST POP PUSH1 0x20 DUP4 LT PUSH2 0x133 DUP4 LT AND PUSH1 0x4E DUP5 LT PUSH1 0xB DUP5 LT AND OR ISZERO PUSH2 0x1B70 JUMPI POP DUP2 DUP2 EXP PUSH2 0x578 JUMP JUMPDEST PUSH2 0x1B7D PUSH1 0x0 NOT DUP5 DUP5 PUSH2 0x1AB2 JUMP JUMPDEST DUP1 PUSH1 0x0 NOT DIV DUP3 GT ISZERO PUSH2 0x1B91 JUMPI PUSH2 0x1B91 PUSH2 0x19E8 JUMP JUMPDEST MUL SWAP4 SWAP3 POP POP POP JUMP JUMPDEST PUSH1 0x0 PUSH2 0x59D PUSH1 0xFF DUP5 AND DUP4 PUSH2 0x1AF5 JUMP JUMPDEST DUP1 DUP3 ADD DUP1 DUP3 GT ISZERO PUSH2 0x578 JUMPI PUSH2 0x578 PUSH2 0x19E8 JUMP JUMPDEST PUSH1 0x0 DUP3 MLOAD PUSH2 0x1BCD DUP2 DUP5 PUSH1 0x20 DUP8 ADD PUSH2 0x17B9 JUMP JUMPDEST SWAP2 SWAP1 SWAP2 ADD SWAP3 SWAP2 POP POP JUMP INVALID LOG2 PUSH5 0x6970667358 0x22 SLT KECCAK256 MULMOD PUSH5 0x77A3BFF140 PUSH28 0xB0633CA154D3B419660B9D4E8B98A7379FF51DD6A7353B6E64736F6C PUSH4 0x4300081A STOP CALLER "
		},
		"gasEstimates": {
			"creation": {
				"codeDepositCost": "1436200",
				"executionCost": "infinite",
				"totalCost": "infinite"
			},
			"external": {
				"AdminAddToken(uint256)": "infinite",
				"IsClaim()": "2355",
				"NumberOfBuying(address)": "2532",
				"TokenRecord(address,uint256)": "11399",
				"allowance(address,address)": "infinite",
				"approve(address,uint256)": "24784",
				"balanceOf(address)": "2640",
				"burn(uint256)": "50989",
				"burnFrom(address,uint256)": "infinite",
				"buyTokens(uint256,uint8,address)": "infinite",
				"decimals()": "311",
				"name()": "infinite",
				"owner()": "2431",
				"pause()": "infinite",
				"paused()": "2371",
				"preSale_1_Listing(uint256,uint256,address)": "infinite",
				"preSale_2_Listing(uint256,uint256,address)": "infinite",
				"pre_Sale_1_mapping(address)": "11141",
				"pre_Sale_2_mapping(address)": "11163",
				"priceFeed()": "2427",
				"renounceOwnership()": "infinite",
				"symbol()": "infinite",
				"totalSupply()": "2371",
				"transfer(address,uint256)": "51289",
				"transferFrom(address,address,uint256)": "infinite",
				"transferOwnership(address)": "28479",
				"unpause()": "infinite"
			}
		},
		"methodIdentifiers": {
			"AdminAddToken(uint256)": "c0cd40ee",
			"IsClaim()": "a3c50cfd",
			"NumberOfBuying(address)": "02ab3fed",
			"TokenRecord(address,uint256)": "584707eb",
			"allowance(address,address)": "dd62ed3e",
			"approve(address,uint256)": "095ea7b3",
			"balanceOf(address)": "70a08231",
			"burn(uint256)": "42966c68",
			"burnFrom(address,uint256)": "79cc6790",
			"buyTokens(uint256,uint8,address)": "529d8b02",
			"decimals()": "313ce567",
			"name()": "06fdde03",
			"owner()": "8da5cb5b",
			"pause()": "8456cb59",
			"paused()": "5c975abb",
			"preSale_1_Listing(uint256,uint256,address)": "70a79d11",
			"preSale_2_Listing(uint256,uint256,address)": "6ad56922",
			"pre_Sale_1_mapping(address)": "dda30822",
			"pre_Sale_2_mapping(address)": "e1e16ced",
			"priceFeed()": "741bef1a",
			"renounceOwnership()": "715018a6",
			"symbol()": "95d89b41",
			"totalSupply()": "18160ddd",
			"transfer(address,uint256)": "a9059cbb",
			"transferFrom(address,address,uint256)": "23b872dd",
			"transferOwnership(address)": "f2fde38b",
			"unpause()": "3f4ba83a"
		}
	},
	"abi": [
		{
			"inputs": [
				{
					"internalType": "address",
					"name": "ownerAddress",
					"type": "address"
				},
				{
					"internalType": "address",
					"name": "_UsdcContract",
					"type": "address"
				}
			],
			"stateMutability": "nonpayable",
			"type": "constructor"
		},
		{
			"inputs": [
				{
					"internalType": "address",
					"name": "target",
					"type": "address"
				}
			],
			"name": "AddressEmptyCode",
			"type": "error"
		},
		{
			"inputs": [
				{
					"internalType": "address",
					"name": "account",
					"type": "address"
				}
			],
			"name": "AddressInsufficientBalance",
			"type": "error"
		},
		{
			"inputs": [
				{
					"internalType": "address",
					"name": "spender",
					"type": "address"
				},
				{
					"internalType": "uint256",
					"name": "allowance",
					"type": "uint256"
				},
				{
					"internalType": "uint256",
					"name": "needed",
					"type": "uint256"
				}
			],
			"name": "ERC20InsufficientAllowance",
			"type": "error"
		},
		{
			"inputs": [
				{
					"internalType": "address",
					"name": "sender",
					"type": "address"
				},
				{
					"internalType": "uint256",
					"name": "balance",
					"type": "uint256"
				},
				{
					"internalType": "uint256",
					"name": "needed",
					"type": "uint256"
				}
			],
			"name": "ERC20InsufficientBalance",
			"type": "error"
		},
		{
			"inputs": [
				{
					"internalType": "address",
					"name": "approver",
					"type": "address"
				}
			],
			"name": "ERC20InvalidApprover",
			"type": "error"
		},
		{
			"inputs": [
				{
					"internalType": "address",
					"name": "receiver",
					"type": "address"
				}
			],
			"name": "ERC20InvalidReceiver",
			"type": "error"
		},
		{
			"inputs": [
				{
					"internalType": "address",
					"name": "sender",
					"type": "address"
				}
			],
			"name": "ERC20InvalidSender",
			"type": "error"
		},
		{
			"inputs": [
				{
					"internalType": "address",
					"name": "spender",
					"type": "address"
				}
			],
			"name": "ERC20InvalidSpender",
			"type": "error"
		},
		{
			"inputs": [],
			"name": "FailedInnerCall",
			"type": "error"
		},
		{
			"inputs": [
				{
					"internalType": "address",
					"name": "owner",
					"type": "address"
				}
			],
			"name": "OwnableInvalidOwner",
			"type": "error"
		},
		{
			"inputs": [
				{
					"internalType": "address",
					"name": "account",
					"type": "address"
				}
			],
			"name": "OwnableUnauthorizedAccount",
			"type": "error"
		},
		{
			"inputs": [
				{
					"internalType": "address",
					"name": "token",
					"type": "address"
				}
			],
			"name": "SafeERC20FailedOperation",
			"type": "error"
		},
		{
			"anonymous": false,
			"inputs": [
				{
					"indexed": true,
					"internalType": "address",
					"name": "owner",
					"type": "address"
				},
				{
					"indexed": true,
					"internalType": "address",
					"name": "spender",
					"type": "address"
				},
				{
					"indexed": false,
					"internalType": "uint256",
					"name": "value",
					"type": "uint256"
				}
			],
			"name": "Approval",
			"type": "event"
		},
		{
			"anonymous": false,
			"inputs": [
				{
					"indexed": true,
					"internalType": "address",
					"name": "previousOwner",
					"type": "address"
				},
				{
					"indexed": true,
					"internalType": "address",
					"name": "newOwner",
					"type": "address"
				}
			],
			"name": "OwnershipTransferred",
			"type": "event"
		},
		{
			"anonymous": false,
			"inputs": [
				{
					"indexed": false,
					"internalType": "address",
					"name": "account",
					"type": "address"
				}
			],
			"name": "Paused",
			"type": "event"
		},
		{
			"anonymous": false,
			"inputs": [
				{
					"indexed": true,
					"internalType": "address",
					"name": "buyer",
					"type": "address"
				},
				{
					"indexed": false,
					"internalType": "uint256",
					"name": "amount",
					"type": "uint256"
				},
				{
					"indexed": false,
					"internalType": "enum TimeVillageToken.currency",
					"name": "choice",
					"type": "uint8"
				},
				{
					"indexed": false,
					"internalType": "address",
					"name": "mintContract",
					"type": "address"
				}
			],
			"name": "TokenPurchased",
			"type": "event"
		},
		{
			"anonymous": false,
			"inputs": [
				{
					"indexed": true,
					"internalType": "address",
					"name": "from",
					"type": "address"
				},
				{
					"indexed": true,
					"internalType": "address",
					"name": "to",
					"type": "address"
				},
				{
					"indexed": false,
					"internalType": "uint256",
					"name": "value",
					"type": "uint256"
				}
			],
			"name": "Transfer",
			"type": "event"
		},
		{
			"anonymous": false,
			"inputs": [
				{
					"indexed": false,
					"internalType": "address",
					"name": "account",
					"type": "address"
				}
			],
			"name": "Unpaused",
			"type": "event"
		},
		{
			"inputs": [
				{
					"internalType": "uint256",
					"name": "_amount",
					"type": "uint256"
				}
			],
			"name": "AdminAddToken",
			"outputs": [],
			"stateMutability": "nonpayable",
			"type": "function"
		},
		{
			"inputs": [],
			"name": "IsClaim",
			"outputs": [
				{
					"internalType": "bool",
					"name": "",
					"type": "bool"
				}
			],
			"stateMutability": "view",
			"type": "function"
		},
		{
			"inputs": [
				{
					"internalType": "address",
					"name": "",
					"type": "address"
				}
			],
			"name": "NumberOfBuying",
			"outputs": [
				{
					"internalType": "uint256",
					"name": "",
					"type": "uint256"
				}
			],
			"stateMutability": "view",
			"type": "function"
		},
		{
			"inputs": [
				{
					"internalType": "address",
					"name": "userAddress",
					"type": "address"
				},
				{
					"internalType": "uint256",
					"name": "transectionNumber",
					"type": "uint256"
				}
			],
			"name": "TokenRecord",
			"outputs": [
				{
					"internalType": "address",
					"name": "user",
					"type": "address"
				},
				{
					"internalType": "uint256",
					"name": "EnteredValue",
					"type": "uint256"
				},
				{
					"internalType": "uint256",
					"name": "priceOfCurrency",
					"type": "uint256"
				},
				{
					"internalType": "uint256",
					"name": "amountOfTokens",
					"type": "uint256"
				},
				{
					"internalType": "bool",
					"name": "saleAvtive",
					"type": "bool"
				},
				{
					"internalType": "enum TimeVillageToken.currency",
					"name": "choice",
					"type": "uint8"
				}
			],
			"stateMutability": "view",
			"type": "function"
		},
		{
			"inputs": [
				{
					"internalType": "address",
					"name": "owner",
					"type": "address"
				},
				{
					"internalType": "address",
					"name": "spender",
					"type": "address"
				}
			],
			"name": "allowance",
			"outputs": [
				{
					"internalType": "uint256",
					"name": "",
					"type": "uint256"
				}
			],
			"stateMutability": "view",
			"type": "function"
		},
		{
			"inputs": [
				{
					"internalType": "address",
					"name": "spender",
					"type": "address"
				},
				{
					"internalType": "uint256",
					"name": "value",
					"type": "uint256"
				}
			],
			"name": "approve",
			"outputs": [
				{
					"internalType": "bool",
					"name": "",
					"type": "bool"
				}
			],
			"stateMutability": "nonpayable",
			"type": "function"
		},
		{
			"inputs": [
				{
					"internalType": "address",
					"name": "account",
					"type": "address"
				}
			],
			"name": "balanceOf",
			"outputs": [
				{
					"internalType": "uint256",
					"name": "",
					"type": "uint256"
				}
			],
			"stateMutability": "view",
			"type": "function"
		},
		{
			"inputs": [
				{
					"internalType": "uint256",
					"name": "value",
					"type": "uint256"
				}
			],
			"name": "burn",
			"outputs": [],
			"stateMutability": "nonpayable",
			"type": "function"
		},
		{
			"inputs": [
				{
					"internalType": "address",
					"name": "account",
					"type": "address"
				},
				{
					"internalType": "uint256",
					"name": "value",
					"type": "uint256"
				}
			],
			"name": "burnFrom",
			"outputs": [],
			"stateMutability": "nonpayable",
			"type": "function"
		},
		{
			"inputs": [
				{
					"internalType": "uint256",
					"name": "amount",
					"type": "uint256"
				},
				{
					"internalType": "enum TimeVillageToken.currency",
					"name": "choice",
					"type": "uint8"
				},
				{
					"internalType": "address",
					"name": "mintContract",
					"type": "address"
				}
			],
			"name": "buyTokens",
			"outputs": [],
			"stateMutability": "nonpayable",
			"type": "function"
		},
		{
			"inputs": [],
			"name": "decimals",
			"outputs": [
				{
					"internalType": "uint8",
					"name": "",
					"type": "uint8"
				}
			],
			"stateMutability": "view",
			"type": "function"
		},
		{
			"inputs": [],
			"name": "name",
			"outputs": [
				{
					"internalType": "string",
					"name": "",
					"type": "string"
				}
			],
			"stateMutability": "view",
			"type": "function"
		},
		{
			"inputs": [],
			"name": "owner",
			"outputs": [
				{
					"internalType": "address",
					"name": "",
					"type": "address"
				}
			],
			"stateMutability": "view",
			"type": "function"
		},
		{
			"inputs": [],
			"name": "pause",
			"outputs": [],
			"stateMutability": "nonpayable",
			"type": "function"
		},
		{
			"inputs": [],
			"name": "paused",
			"outputs": [
				{
					"internalType": "bool",
					"name": "",
					"type": "bool"
				}
			],
			"stateMutability": "view",
			"type": "function"
		},
		{
			"inputs": [
				{
					"internalType": "uint256",
					"name": "_price",
					"type": "uint256"
				},
				{
					"internalType": "uint256",
					"name": "endTime",
					"type": "uint256"
				},
				{
					"internalType": "address",
					"name": "mintContract",
					"type": "address"
				}
			],
			"name": "preSale_1_Listing",
			"outputs": [],
			"stateMutability": "nonpayable",
			"type": "function"
		},
		{
			"inputs": [
				{
					"internalType": "uint256",
					"name": "_price",
					"type": "uint256"
				},
				{
					"internalType": "uint256",
					"name": "endTime",
					"type": "uint256"
				},
				{
					"internalType": "address",
					"name": "mintContract",
					"type": "address"
				}
			],
			"name": "preSale_2_Listing",
			"outputs": [],
			"stateMutability": "nonpayable",
			"type": "function"
		},
		{
			"inputs": [
				{
					"internalType": "address",
					"name": "",
					"type": "address"
				}
			],
			"name": "pre_Sale_1_mapping",
			"outputs": [
				{
					"internalType": "uint256",
					"name": "price",
					"type": "uint256"
				},
				{
					"internalType": "uint256",
					"name": "startTime",
					"type": "uint256"
				},
				{
					"internalType": "uint256",
					"name": "endTime",
					"type": "uint256"
				},
				{
					"internalType": "uint256",
					"name": "supplyAvailable",
					"type": "uint256"
				},
				{
					"internalType": "bool",
					"name": "saleActive",
					"type": "bool"
				}
			],
			"stateMutability": "view",
			"type": "function"
		},
		{
			"inputs": [
				{
					"internalType": "address",
					"name": "",
					"type": "address"
				}
			],
			"name": "pre_Sale_2_mapping",
			"outputs": [
				{
					"internalType": "uint256",
					"name": "price",
					"type": "uint256"
				},
				{
					"internalType": "uint256",
					"name": "startTime",
					"type": "uint256"
				},
				{
					"internalType": "uint256",
					"name": "endTime",
					"type": "uint256"
				},
				{
					"internalType": "uint256",
					"name": "supplyAvailable",
					"type": "uint256"
				},
				{
					"internalType": "bool",
					"name": "saleActive",
					"type": "bool"
				}
			],
			"stateMutability": "view",
			"type": "function"
		},
		{
			"inputs": [],
			"name": "priceFeed",
			"outputs": [
				{
					"internalType": "contract AggregatorV3Interface",
					"name": "",
					"type": "address"
				}
			],
			"stateMutability": "view",
			"type": "function"
		},
		{
			"inputs": [],
			"name": "renounceOwnership",
			"outputs": [],
			"stateMutability": "nonpayable",
			"type": "function"
		},
		{
			"inputs": [],
			"name": "symbol",
			"outputs": [
				{
					"internalType": "string",
					"name": "",
					"type": "string"
				}
			],
			"stateMutability": "view",
			"type": "function"
		},
		{
			"inputs": [],
			"name": "totalSupply",
			"outputs": [
				{
					"internalType": "uint256",
					"name": "",
					"type": "uint256"
				}
			],
			"stateMutability": "view",
			"type": "function"
		},
		{
			"inputs": [
				{
					"internalType": "address",
					"name": "to",
					"type": "address"
				},
				{
					"internalType": "uint256",
					"name": "value",
					"type": "uint256"
				}
			],
			"name": "transfer",
			"outputs": [
				{
					"internalType": "bool",
					"name": "",
					"type": "bool"
				}
			],
			"stateMutability": "nonpayable",
			"type": "function"
		},
		{
			"inputs": [
				{
					"internalType": "address",
					"name": "from",
					"type": "address"
				},
				{
					"internalType": "address",
					"name": "to",
					"type": "address"
				},
				{
					"internalType": "uint256",
					"name": "value",
					"type": "uint256"
				}
			],
			"name": "transferFrom",
			"outputs": [
				{
					"internalType": "bool",
					"name": "",
					"type": "bool"
				}
			],
			"stateMutability": "nonpayable",
			"type": "function"
		},
		{
			"inputs": [
				{
					"internalType": "address",
					"name": "newOwner",
					"type": "address"
				}
			],
			"name": "transferOwnership",
			"outputs": [],
			"stateMutability": "nonpayable",
			"type": "function"
		},
		{
			"inputs": [],
			"name": "unpause",
			"outputs": [],
			"stateMutability": "nonpayable",
			"type": "function"
		}
	]
}