{
	"data": {
		"bytecode": {
			"linkReferences": {},
			"object": "608060405234801561001057600080fd5b50604051612fae380380612fae83398101604081905261002f91610236565b6040518060400160405280600681526020016511905510d05560d21b8152506040518060400160405280600381526020016210d05560ea1b81525081600090816100799190610377565b5060016100868282610377565b50505061009f61009a61010b60201b60201c565b61010f565b601280546001600160a01b0319166001600160a01b038716179055600a6100c68582610377565b50600b6100d38482610377565b50600c6100e08382610377565b50600880546001600160a01b0319166001600160a01b03929092169190911790555061043592505050565b3390565b600780546001600160a01b038381166001600160a01b0319831681179093556040519116919082907f8be0079c531659141344cd1fd0a4f28419497f9722a3daafe3b4186f6b6457e090600090a35050565b80516001600160a01b038116811461017857600080fd5b919050565b634e487b7160e01b600052604160045260246000fd5b600082601f8301126101a457600080fd5b81516001600160401b038111156101bd576101bd61017d565b604051601f8201601f19908116603f011681016001600160401b03811182821017156101eb576101eb61017d565b60405281815283820160200185101561020357600080fd5b60005b8281101561022257602081860181015183830182015201610206565b506000918101602001919091529392505050565b600080600080600060a0868803121561024e57600080fd5b61025786610161565b60208701519095506001600160401b0381111561027357600080fd5b61027f88828901610193565b604088015190955090506001600160401b0381111561029d57600080fd5b6102a988828901610193565b606088015190945090506001600160401b038111156102c757600080fd5b6102d388828901610193565b9250506102e260808701610161565b90509295509295909350565b600181811c9082168061030257607f821691505b60208210810361032257634e487b7160e01b600052602260045260246000fd5b50919050565b601f82111561037257806000526020600020601f840160051c8101602085101561034f5750805b601f840160051c820191505b8181101561036f576000815560010161035b565b50505b505050565b81516001600160401b038111156103905761039061017d565b6103a48161039e84546102ee565b84610328565b6020601f8211600181146103d857600083156103c05750848201515b600019600385901b1c1916600184901b17845561036f565b600084815260208120601f198516915b8281101561040857878501518255602094850194600190920191016103e8565b50848210156104265786840151600019600387901b60f8161c191681555b50505050600190811b01905550565b612b6a806104446000396000f3fe608060405234801561001057600080fd5b50600436106102115760003560e01c806384c4bd4b11610125578063b88d4fde116100ad578063e985e9c51161007c578063e985e9c514610544578063f153768614610580578063f2fde38b14610593578063fa544161146105a6578063fc6f9468146105c657600080fd5b8063b88d4fde146104f8578063c87b56dd1461050b578063daa17f491461051e578063e7b253691461053157600080fd5b80638df9612b116100f45780638df9612b1461047b57806395d89b41146104a6578063a22cb465146104ae578063a784318a146104c1578063ac80ddeb146104e157600080fd5b806384c4bd4b146104475780638ad91345146104515780638b7afe2e146104645780638da5cb5b1461046a57600080fd5b80632c1e816d116101a85780636d9439c5116101775780636d9439c51461038c5780636e0cee09146103f957806370a082311461040c578063715018a61461041f5780637b613e521461042757600080fd5b80632c1e816d1461033257806342842e0e146103455780634c2a3f6c146103585780636352211e1461037957600080fd5b8063095ea7b3116101e4578063095ea7b3146102ac5780630a8595b0146102c15780630e8dbe62146102e457806323b872dd1461031f57600080fd5b806301ffc9a71461021657806305d85eda1461023e57806306fdde031461026c578063081812fc14610281575b600080fd5b6102296102243660046122a8565b6105d9565b60405190151581526020015b60405180910390f35b61025e61024c3660046122e1565b600e6020526000908152604090205481565b604051908152602001610235565b610274610604565b604051610235919061234c565b61029461028f36600461235f565b610696565b6040516001600160a01b039091168152602001610235565b6102bf6102ba366004612378565b6106bd565b005b6102296102cf36600461235f565b60146020526000908152604090205460ff1681565b61030a6102f23660046122e1565b60116020526000908152604090205463ffffffff1681565b60405163ffffffff9091168152602001610235565b6102bf61032d3660046123a2565b610749565b6102bf6103403660046122e1565b610785565b6102bf6103533660046123a2565b6107f5565b6102bf61036636600461235f565b6000908152601060205260409020429055565b61029461038736600461235f565b610810565b6103ce61039a36600461235f565b601060205260009081526040902080546001820154600283015460039093015491926001600160a01b039182169290911684565b604080519485526001600160a01b039384166020860152840191909152166060820152608001610235565b6102bf6104073660046123df565b610870565b61025e61041a3660046122e1565b6109bb565b6102bf610a41565b61043a6104353660046122e1565b610a55565b604051610235919061241b565b60095461025e9081565b61027461045f36600461235f565b610b60565b4761025e565b6007546001600160a01b0316610294565b61025e610489366004612378565b600d60209081526000928352604080842090915290825290205481565b610274610b6b565b6102bf6104bc36600461245f565b610b7a565b6104d46104cf36600461254b565b610b89565b6040516102359190612580565b6104e9610d2c565b60405161023593929190612646565b6102bf610506366004612689565b610ee6565b61027461051936600461235f565b610f1e565b600854610294906001600160a01b031681565b6102bf61053f366004612705565b610f29565b61022961055236600461277c565b6001600160a01b03918216600090815260056020908152604080832093909416825291909152205460ff1690565b6104d461058e3660046122e1565b6111ab565b6102bf6105a13660046122e1565b6115d3565b61025e6105b43660046122e1565b60136020526000908152604090205481565b601254610294906001600160a01b031681565b60006001600160e01b03198216632483248360e11b14806105fe57506105fe8261164c565b92915050565b606060008054610613906127af565b80601f016020809104026020016040519081016040528092919081815260200182805461063f906127af565b801561068c5780601f106106615761010080835404028352916020019161068c565b820191906000526020600020905b81548152906001019060200180831161066f57829003601f168201915b5050505050905090565b60006106a18261169c565b506000908152600460205260409020546001600160a01b031690565b60006106c882610810565b9050806001600160a01b0316836001600160a01b03160361073a5760405162461bcd60e51b815260206004820152602160248201527f4552433732313a20617070726f76616c20746f2063757272656e74206f776e656044820152603960f91b60648201526084015b60405180910390fd5b61074483836116fb565b505050565b6107533382611769565b61076f5760405162461bcd60e51b8152600401610731906127e9565b61077a8383836117e8565b610744828285610870565b6012546001600160a01b031633146107d35760405162461bcd60e51b81526020600482015260116024820152702cb7ba9030b932903737ba1020b236b4b760791b6044820152606401610731565b601280546001600160a01b0319166001600160a01b0392909216919091179055565b61074483838360405180602001604052806000815250610ee6565b6000818152600260205260408120546001600160a01b0316806105fe5760405162461bcd60e51b8152602060048201526018602482015277115490cdcc8c4e881a5b9d985b1a59081d1bdad95b88125160421b6044820152606401610731565b6000828152601460209081526040808320805460ff191660019081179091556001600160a01b0387168452600d8352818420600e909352908320548593916108b8919061284c565b81526020019081526020016000208190555060006108d5826111ab565b905060005b815181101561098b57838282815181106108f6576108f661285f565b60200260200101516000015103610983576001600160a01b0383166000818152600d60208181526040808420600e8352818520548552808352908420549484529190529061094584600161284c565b815260208082019290925260409081016000908120939093556001600160a01b0386168352600e909152812080549161097d83612875565b91905055505b6001016108da565b506001600160a01b0384166000908152600e602052604081208054916109b08361288c565b919050555050505050565b60006001600160a01b038216610a255760405162461bcd60e51b815260206004820152602960248201527f4552433732313a2061646472657373207a65726f206973206e6f7420612076616044820152683634b21037bbb732b960b91b6064820152608401610731565b506001600160a01b031660009081526003602052604090205490565b610a4961194c565b610a5360006119a6565b565b6001600160a01b0381166000908152600e60205260408120546060919067ffffffffffffffff811115610a8a57610a8a61249b565b604051908082528060200260200182016040528015610aca57816020015b604080516020810190915260008152815260200190600190039081610aa85790505b50905060005b6001600160a01b0384166000908152600e6020526040902054811015610b595760408051602080820183526001600160a01b0387166000908152600d9091529182209091829190610b2285600161284c565b815260200190815260200160002054815250828281518110610b4657610b4661285f565b6020908102919091010152600101610ad0565b5092915050565b60606105fe82610f1e565b606060018054610613906127af565b610b853383836119f8565b5050565b60606000600f83604051610b9d91906128a5565b9081526040805191829003602090810183208054808302850183019093528284529190830182828015610bef57602002820191906000526020600020905b815481526020019060010190808311610bdb575b505050505090506000815167ffffffffffffffff811115610c1257610c1261249b565b604051908082528060200260200182016040528015610c4b57816020015b610c3861223a565b815260200190600190039081610c305790505b50905060005b8251811015610d24576000838281518110610c6e57610c6e61285f565b602002602001015190506040518060e0016040528082815260200160106000848152602001908152602001600020600001548152602001610cae83610810565b6001600160a01b03908116825230602080840191909152600085815260108083526040808320600181015490951690860152908690529052600201546060820152608001610cfb83610f1e565b815250838381518110610d1057610d1061285f565b602090810291909101015250600101610c51565b509392505050565b6060806060600a600b600c828054610d43906127af565b80601f0160208091040260200160405190810160405280929190818152602001828054610d6f906127af565b8015610dbc5780601f10610d9157610100808354040283529160200191610dbc565b820191906000526020600020905b815481529060010190602001808311610d9f57829003601f168201915b50505050509250818054610dcf906127af565b80601f0160208091040260200160405190810160405280929190818152602001828054610dfb906127af565b8015610e485780601f10610e1d57610100808354040283529160200191610e48565b820191906000526020600020905b815481529060010190602001808311610e2b57829003601f168201915b50505050509150808054610e5b906127af565b80601f0160208091040260200160405190810160405280929190818152602001828054610e87906127af565b8015610ed45780601f10610ea957610100808354040283529160200191610ed4565b820191906000526020600020905b815481529060010190602001808311610eb757829003601f168201915b50505050509050925092509250909192565b610ef03383611769565b610f0c5760405162461bcd60e51b8152600401610731906127e9565b610f1884848484611ac6565b50505050565b60606105fe82611af9565b610f37600980546001019055565b600954336000908152600d60209081526040808320600e909252822054909190610f6290600161284c565b8152602081019190915260400160002055610f8533610f8060095490565b611c01565b610f97610f9160095490565b85611c1b565b336000908152600e60205260408120805491610fb28361288c565b9190505550610fc5338461032d60095490565b6008546001600160a01b031663456005c830610fe060095490565b6040516001600160e01b031960e085901b1681526001600160a01b0390921660048301526024820152600060448201523360648201526084810185905260a401600060405180830381600087803b15801561103a57600080fd5b505af115801561104e573d6000803e3d6000fd5b505050506040518060800160405280428152602001846001600160a01b0316815260200183815260200161108461038760095490565b6001600160a01b031690526010600061109c60095490565b8152602080820192909252604090810160002083518155918301516001830180546001600160a01b03199081166001600160a01b03938416179091558483015160028501556060909401516003909301805490941692169190911790915551600f906111099083906128a5565b90815260405190819003602001902061112160095490565b8154600181018355600092835260209283902001556040805191820190528061114960095490565b9052336000908152601360205260409020905190557fce6aa21cb694c41d8d6ef3c170ff341cacd0a4de75cc9743bcf703a6d9ee128e61118860095490565b60408051918252336020830152429082015260600160405180910390a150505050565b6001600160a01b0381166000908152600e60205260408120546060919067ffffffffffffffff8111156111e0576111e061249b565b60405190808252806020026020018201604052801561121957816020015b61120661223a565b8152602001906001900390816111fe5790505b50905060006112786040518060400160405280601281526020017121b7bab73a103337b91030b2323932b9b99d60711b81525085600e6000886001600160a01b03166001600160a01b0316815260200190815260200160002054611ce6565b6001600160a01b0384166000908152600e602052604081205467ffffffffffffffff8111156112a9576112a961249b565b6040519080825280602002602001820160405280156112d2578160200160208202803683370190505b509050600080805b6001600160a01b0388166000908152600e6020526040902054811015611421576001600160a01b0388166000908152600d602052604081208161131e84600161284c565b81526020019081526020016000205490506113636040518060400160405280601281526020017121b432b1b5b4b733902a37b5b2b71024a21d60711b81525082611d2d565b6000925060005b848110156113a357818682815181106113855761138561285f565b60200260200101510361139b57600193506113a3565b60010161136a565b50826113d957808585815181106113bc576113bc61285f565b6020908102919091010152836113d18161288c565b945050611418565b6114186040518060400160405280601c81526020017f4475706c696361746520666f756e6420616e6420736b69707065643a0000000081525082611d2d565b506001016112da565b5060005b828110156115c65760008482815181106114415761144161285f565b6020026020010151905061148160405180604001604052806014815260200173283937b1b2b9b9b4b733902a37b5b2b71024a21d60611b81525082611d2d565b886001600160a01b031661149482610810565b6001600160a01b0316036115bd5760008181526010602090815260409182902082516080810184528154815260018201546001600160a01b03908116828501526002830154828601526003909201549091166060820152825160e08101845284815281519281019290925291810161150b84610810565b6001600160a01b03168152602001306001600160a01b0316815260200182602001516001600160a01b031681526020018260400151815260200161154e84610f1e565b8152508888815181106115635761156361285f565b602002602001018190525086806115799061288c565b9750506115bb6040518060400160405280601b81526020017f546f6b656e20616464656420746f20617272617920696e6465783a000000000081525088611d2d565b505b50600101611425565b5050509082525092915050565b6115db61194c565b6001600160a01b0381166116405760405162461bcd60e51b815260206004820152602660248201527f4f776e61626c653a206e6577206f776e657220697320746865207a65726f206160448201526564647265737360d01b6064820152608401610731565b611649816119a6565b50565b60006001600160e01b031982166380ac58cd60e01b148061167d57506001600160e01b03198216635b5e139f60e01b145b806105fe57506301ffc9a760e01b6001600160e01b03198316146105fe565b6000818152600260205260409020546001600160a01b03166116495760405162461bcd60e51b8152602060048201526018602482015277115490cdcc8c4e881a5b9d985b1a59081d1bdad95b88125160421b6044820152606401610731565b600081815260046020526040902080546001600160a01b0319166001600160a01b038416908117909155819061173082610810565b6001600160a01b03167f8c5be1e5ebec7d5bd14f71427d1e84f3dd0314c0f7b2291e5b200ac8c7c3b92560405160405180910390a45050565b60008061177583610810565b9050806001600160a01b0316846001600160a01b031614806117bc57506001600160a01b0380821660009081526005602090815260408083209388168352929052205460ff165b806117e05750836001600160a01b03166117d584610696565b6001600160a01b0316145b949350505050565b826001600160a01b03166117fb82610810565b6001600160a01b0316146118215760405162461bcd60e51b8152600401610731906128c1565b6001600160a01b0382166118835760405162461bcd60e51b8152602060048201526024808201527f4552433732313a207472616e7366657220746f20746865207a65726f206164646044820152637265737360e01b6064820152608401610731565b826001600160a01b031661189682610810565b6001600160a01b0316146118bc5760405162461bcd60e51b8152600401610731906128c1565b600081815260046020908152604080832080546001600160a01b03199081169091556001600160a01b0387811680865260038552838620805460001901905590871680865283862080546001019055868652600290945282852080549092168417909155905184937fddf252ad1be2c89b69c2b068fc378daa952ba7f163c4a11628f55a4df523b3ef91a4505050565b6007546001600160a01b03163314610a535760405162461bcd60e51b815260206004820181905260248201527f4f776e61626c653a2063616c6c6572206973206e6f7420746865206f776e65726044820152606401610731565b600780546001600160a01b038381166001600160a01b0319831681179093556040519116919082907f8be0079c531659141344cd1fd0a4f28419497f9722a3daafe3b4186f6b6457e090600090a35050565b816001600160a01b0316836001600160a01b031603611a595760405162461bcd60e51b815260206004820152601960248201527f4552433732313a20617070726f766520746f2063616c6c6572000000000000006044820152606401610731565b6001600160a01b03838116600081815260056020908152604080832094871680845294825291829020805460ff191686151590811790915591519182527f17307eab39ab6107e8899845ad3d59bd9653f200f220920489ca2b5937696c31910160405180910390a3505050565b611ad18484846117e8565b611add84848484611d72565b610f185760405162461bcd60e51b815260040161073190612906565b6060611b048261169c565b60008281526006602052604081208054611b1d906127af565b80601f0160208091040260200160405190810160405280929190818152602001828054611b49906127af565b8015611b965780601f10611b6b57610100808354040283529160200191611b96565b820191906000526020600020905b815481529060010190602001808311611b7957829003601f168201915b505050505090506000611bb460408051602081019091526000815290565b90508051600003611bc6575092915050565b815115611bf8578082604051602001611be0929190612958565b60405160208183030381529060405292505050919050565b6117e084611e73565b610b85828260405180602001604052806000815250611ee7565b6000828152600260205260409020546001600160a01b0316611c965760405162461bcd60e51b815260206004820152602e60248201527f45524337323155524953746f726167653a2055524920736574206f66206e6f6e60448201526d32bc34b9ba32b73a103a37b5b2b760911b6064820152608401610731565b6000828152600660205260409020611cae82826129d5565b506040518281527ff8e1a15aba9398e019f0b49df1a4fde98ee17ae345cb5f6b5e2c27f5033e8ce79060200160405180910390a15050565b610744838383604051602401611cfe93929190612a94565b60408051601f198184030181529190526020810180516001600160e01b0316630d26b92560e01b179052611f1a565b610b858282604051602401611d43929190612ac2565b60408051601f198184030181529190526020810180516001600160e01b0316632d839cb360e21b179052611f1a565b60006001600160a01b0384163b15611e6857604051630a85bd0160e11b81526001600160a01b0385169063150b7a0290611db6903390899088908890600401612ae4565b6020604051808303816000875af1925050508015611df1575060408051601f3d908101601f19168201909252611dee91810190612b17565b60015b611e4e573d808015611e1f576040519150601f19603f3d011682016040523d82523d6000602084013e611e24565b606091505b508051600003611e465760405162461bcd60e51b815260040161073190612906565b805181602001fd5b6001600160e01b031916630a85bd0160e11b1490506117e0565b506001949350505050565b6060611e7e8261169c565b6000611e9560408051602081019091526000815290565b90506000815111611eb55760405180602001604052806000815250611ee0565b80611ebf84611f23565b604051602001611ed0929190612958565b6040516020818303038152906040525b9392505050565b611ef18383611fb6565b611efe6000848484611d72565b6107445760405162461bcd60e51b815260040161073190612906565b61164981612141565b60606000611f3083612162565b600101905060008167ffffffffffffffff811115611f5057611f5061249b565b6040519080825280601f01601f191660200182016040528015611f7a576020820181803683370190505b5090508181016020015b600019016f181899199a1a9b1b9c1cb0b131b232b360811b600a86061a8153600a8504945084611f8457509392505050565b6001600160a01b03821661200c5760405162461bcd60e51b815260206004820181905260248201527f4552433732313a206d696e7420746f20746865207a65726f20616464726573736044820152606401610731565b6000818152600260205260409020546001600160a01b0316156120715760405162461bcd60e51b815260206004820152601c60248201527f4552433732313a20746f6b656e20616c7265616479206d696e746564000000006044820152606401610731565b6000818152600260205260409020546001600160a01b0316156120d65760405162461bcd60e51b815260206004820152601c60248201527f4552433732313a20746f6b656e20616c7265616479206d696e746564000000006044820152606401610731565b6001600160a01b038216600081815260036020908152604080832080546001019055848352600290915280822080546001600160a01b0319168417905551839291907fddf252ad1be2c89b69c2b068fc378daa952ba7f163c4a11628f55a4df523b3ef908290a45050565b60006a636f6e736f6c652e6c6f679050600080835160208501845afa505050565b60008072184f03e93ff9f4daa797ed6e38ed64bf6a1f0160401b83106121a15772184f03e93ff9f4daa797ed6e38ed64bf6a1f0160401b830492506040015b6d04ee2d6d415b85acef810000000083106121cd576d04ee2d6d415b85acef8100000000830492506020015b662386f26fc1000083106121eb57662386f26fc10000830492506010015b6305f5e1008310612203576305f5e100830492506008015b612710831061221757612710830492506004015b60648310612229576064830492506002015b600a83106105fe5760010192915050565b6040518060e00160405280600081526020016000815260200160006001600160a01b0316815260200160006001600160a01b0316815260200160006001600160a01b0316815260200160008152602001606081525090565b6001600160e01b03198116811461164957600080fd5b6000602082840312156122ba57600080fd5b8135611ee081612292565b80356001600160a01b03811681146122dc57600080fd5b919050565b6000602082840312156122f357600080fd5b611ee0826122c5565b60005b838110156123175781810151838201526020016122ff565b50506000910152565b600081518084526123388160208601602086016122fc565b601f01601f19169290920160200192915050565b602081526000611ee06020830184612320565b60006020828403121561237157600080fd5b5035919050565b6000806040838503121561238b57600080fd5b612394836122c5565b946020939093013593505050565b6000806000606084860312156123b757600080fd5b6123c0846122c5565b92506123ce602085016122c5565b929592945050506040919091013590565b6000806000606084860312156123f457600080fd5b6123fd846122c5565b925060208401359150612412604085016122c5565b90509250925092565b602080825282518282018190526000918401906040840190835b8181101561245457835151835260209384019390920191600101612435565b509095945050505050565b6000806040838503121561247257600080fd5b61247b836122c5565b91506020830135801515811461249057600080fd5b809150509250929050565b634e487b7160e01b600052604160045260246000fd5b60008067ffffffffffffffff8411156124cc576124cc61249b565b50604051601f19601f85018116603f0116810181811067ffffffffffffffff821117156124fb576124fb61249b565b60405283815290508082840185101561251357600080fd5b83836020830137600060208583010152509392505050565b600082601f83011261253c57600080fd5b611ee0838335602085016124b1565b60006020828403121561255d57600080fd5b813567ffffffffffffffff81111561257457600080fd5b6117e08482850161252b565b6000602082016020835280845180835260408501915060408160051b86010192506020860160005b8281101561263a57603f198786030184528151805186526020810151602087015260018060a01b03604082015116604087015260018060a01b03606082015116606087015260018060a01b03608082015116608087015260a081015160a087015260c0810151905060e060c087015261262460e0870182612320565b95505060209384019391909101906001016125a8565b50929695505050505050565b6060815260006126596060830186612320565b828103602084015261266b8186612320565b9050828103604084015261267f8185612320565b9695505050505050565b6000806000806080858703121561269f57600080fd5b6126a8856122c5565b93506126b6602086016122c5565b925060408501359150606085013567ffffffffffffffff8111156126d957600080fd5b8501601f810187136126ea57600080fd5b6126f9878235602084016124b1565b91505092959194509250565b6000806000806080858703121561271b57600080fd5b843567ffffffffffffffff81111561273257600080fd5b61273e8782880161252b565b94505061274d602086016122c5565b925060408501359150606085013567ffffffffffffffff81111561277057600080fd5b6126f98782880161252b565b6000806040838503121561278f57600080fd5b612798836122c5565b91506127a6602084016122c5565b90509250929050565b600181811c908216806127c357607f821691505b6020821081036127e357634e487b7160e01b600052602260045260246000fd5b50919050565b6020808252602d908201527f4552433732313a2063616c6c6572206973206e6f7420746f6b656e206f776e6560408201526c1c881bdc88185c1c1c9bdd9959609a1b606082015260800190565b634e487b7160e01b600052601160045260246000fd5b808201808211156105fe576105fe612836565b634e487b7160e01b600052603260045260246000fd5b60008161288457612884612836565b506000190190565b60006001820161289e5761289e612836565b5060010190565b600082516128b78184602087016122fc565b9190910192915050565b60208082526025908201527f4552433732313a207472616e736665722066726f6d20696e636f72726563742060408201526437bbb732b960d91b606082015260800190565b60208082526032908201527f4552433732313a207472616e7366657220746f206e6f6e20455243373231526560408201527131b2b4bb32b91034b6b83632b6b2b73a32b960711b606082015260800190565b6000835161296a8184602088016122fc565b83519083019061297e8183602088016122fc565b01949350505050565b601f82111561074457806000526020600020601f840160051c810160208510156129ae5750805b601f840160051c820191505b818110156129ce57600081556001016129ba565b5050505050565b815167ffffffffffffffff8111156129ef576129ef61249b565b612a03816129fd84546127af565b84612987565b6020601f821160018114612a375760008315612a1f5750848201515b600019600385901b1c1916600184901b1784556129ce565b600084815260208120601f198516915b82811015612a675787850151825560209485019460019092019101612a47565b5084821015612a855786840151600019600387901b60f8161c191681555b50505050600190811b01905550565b606081526000612aa76060830186612320565b6001600160a01b039490941660208301525060400152919050565b604081526000612ad56040830185612320565b90508260208301529392505050565b6001600160a01b038581168252841660208201526040810183905260806060820181905260009061267f90830184612320565b600060208284031215612b2957600080fd5b8151611ee08161229256fea2646970667358221220095f119f6b7378df193af1550218cd02bef61c5c3472c80af7aec68030c5c23264736f6c634300081a0033",
			"opcodes": "PUSH1 0x80 PUSH1 0x40 MSTORE CALLVALUE DUP1 ISZERO PUSH2 0x10 JUMPI PUSH1 0x0 DUP1 REVERT JUMPDEST POP PUSH1 0x40 MLOAD PUSH2 0x2FAE CODESIZE SUB DUP1 PUSH2 0x2FAE DUP4 CODECOPY DUP2 ADD PUSH1 0x40 DUP2 SWAP1 MSTORE PUSH2 0x2F SWAP2 PUSH2 0x236 JUMP JUMPDEST PUSH1 0x40 MLOAD DUP1 PUSH1 0x40 ADD PUSH1 0x40 MSTORE DUP1 PUSH1 0x6 DUP2 MSTORE PUSH1 0x20 ADD PUSH6 0x11905510D055 PUSH1 0xD2 SHL DUP2 MSTORE POP PUSH1 0x40 MLOAD DUP1 PUSH1 0x40 ADD PUSH1 0x40 MSTORE DUP1 PUSH1 0x3 DUP2 MSTORE PUSH1 0x20 ADD PUSH3 0x10D055 PUSH1 0xEA SHL DUP2 MSTORE POP DUP2 PUSH1 0x0 SWAP1 DUP2 PUSH2 0x79 SWAP2 SWAP1 PUSH2 0x377 JUMP JUMPDEST POP PUSH1 0x1 PUSH2 0x86 DUP3 DUP3 PUSH2 0x377 JUMP JUMPDEST POP POP POP PUSH2 0x9F PUSH2 0x9A PUSH2 0x10B PUSH1 0x20 SHL PUSH1 0x20 SHR JUMP JUMPDEST PUSH2 0x10F JUMP JUMPDEST PUSH1 0x12 DUP1 SLOAD PUSH1 0x1 PUSH1 0x1 PUSH1 0xA0 SHL SUB NOT AND PUSH1 0x1 PUSH1 0x1 PUSH1 0xA0 SHL SUB DUP8 AND OR SWAP1 SSTORE PUSH1 0xA PUSH2 0xC6 DUP6 DUP3 PUSH2 0x377 JUMP JUMPDEST POP PUSH1 0xB PUSH2 0xD3 DUP5 DUP3 PUSH2 0x377 JUMP JUMPDEST POP PUSH1 0xC PUSH2 0xE0 DUP4 DUP3 PUSH2 0x377 JUMP JUMPDEST POP PUSH1 0x8 DUP1 SLOAD PUSH1 0x1 PUSH1 0x1 PUSH1 0xA0 SHL SUB NOT AND PUSH1 0x1 PUSH1 0x1 PUSH1 0xA0 SHL SUB SWAP3 SWAP1 SWAP3 AND SWAP2 SWAP1 SWAP2 OR SWAP1 SSTORE POP PUSH2 0x435 SWAP3 POP POP POP JUMP JUMPDEST CALLER SWAP1 JUMP JUMPDEST PUSH1 0x7 DUP1 SLOAD PUSH1 0x1 PUSH1 0x1 PUSH1 0xA0 SHL SUB DUP4 DUP2 AND PUSH1 0x1 PUSH1 0x1 PUSH1 0xA0 SHL SUB NOT DUP4 AND DUP2 OR SWAP1 SWAP4 SSTORE PUSH1 0x40 MLOAD SWAP2 AND SWAP2 SWAP1 DUP3 SWAP1 PUSH32 0x8BE0079C531659141344CD1FD0A4F28419497F9722A3DAAFE3B4186F6B6457E0 SWAP1 PUSH1 0x0 SWAP1 LOG3 POP POP JUMP JUMPDEST DUP1 MLOAD PUSH1 0x1 PUSH1 0x1 PUSH1 0xA0 SHL SUB DUP2 AND DUP2 EQ PUSH2 0x178 JUMPI PUSH1 0x0 DUP1 REVERT JUMPDEST SWAP2 SWAP1 POP JUMP JUMPDEST PUSH4 0x4E487B71 PUSH1 0xE0 SHL PUSH1 0x0 MSTORE PUSH1 0x41 PUSH1 0x4 MSTORE PUSH1 0x24 PUSH1 0x0 REVERT JUMPDEST PUSH1 0x0 DUP3 PUSH1 0x1F DUP4 ADD SLT PUSH2 0x1A4 JUMPI PUSH1 0x0 DUP1 REVERT JUMPDEST DUP2 MLOAD PUSH1 0x1 PUSH1 0x1 PUSH1 0x40 SHL SUB DUP2 GT ISZERO PUSH2 0x1BD JUMPI PUSH2 0x1BD PUSH2 0x17D JUMP JUMPDEST PUSH1 0x40 MLOAD PUSH1 0x1F DUP3 ADD PUSH1 0x1F NOT SWAP1 DUP2 AND PUSH1 0x3F ADD AND DUP2 ADD PUSH1 0x1 PUSH1 0x1 PUSH1 0x40 SHL SUB DUP2 GT DUP3 DUP3 LT OR ISZERO PUSH2 0x1EB JUMPI PUSH2 0x1EB PUSH2 0x17D JUMP JUMPDEST PUSH1 0x40 MSTORE DUP2 DUP2 MSTORE DUP4 DUP3 ADD PUSH1 0x20 ADD DUP6 LT ISZERO PUSH2 0x203 JUMPI PUSH1 0x0 DUP1 REVERT JUMPDEST PUSH1 0x0 JUMPDEST DUP3 DUP2 LT ISZERO PUSH2 0x222 JUMPI PUSH1 0x20 DUP2 DUP7 ADD DUP2 ADD MLOAD DUP4 DUP4 ADD DUP3 ADD MSTORE ADD PUSH2 0x206 JUMP JUMPDEST POP PUSH1 0x0 SWAP2 DUP2 ADD PUSH1 0x20 ADD SWAP2 SWAP1 SWAP2 MSTORE SWAP4 SWAP3 POP POP POP JUMP JUMPDEST PUSH1 0x0 DUP1 PUSH1 0x0 DUP1 PUSH1 0x0 PUSH1 0xA0 DUP7 DUP9 SUB SLT ISZERO PUSH2 0x24E JUMPI PUSH1 0x0 DUP1 REVERT JUMPDEST PUSH2 0x257 DUP7 PUSH2 0x161 JUMP JUMPDEST PUSH1 0x20 DUP8 ADD MLOAD SWAP1 SWAP6 POP PUSH1 0x1 PUSH1 0x1 PUSH1 0x40 SHL SUB DUP2 GT ISZERO PUSH2 0x273 JUMPI PUSH1 0x0 DUP1 REVERT JUMPDEST PUSH2 0x27F DUP9 DUP3 DUP10 ADD PUSH2 0x193 JUMP JUMPDEST PUSH1 0x40 DUP9 ADD MLOAD SWAP1 SWAP6 POP SWAP1 POP PUSH1 0x1 PUSH1 0x1 PUSH1 0x40 SHL SUB DUP2 GT ISZERO PUSH2 0x29D JUMPI PUSH1 0x0 DUP1 REVERT JUMPDEST PUSH2 0x2A9 DUP9 DUP3 DUP10 ADD PUSH2 0x193 JUMP JUMPDEST PUSH1 0x60 DUP9 ADD MLOAD SWAP1 SWAP5 POP SWAP1 POP PUSH1 0x1 PUSH1 0x1 PUSH1 0x40 SHL SUB DUP2 GT ISZERO PUSH2 0x2C7 JUMPI PUSH1 0x0 DUP1 REVERT JUMPDEST PUSH2 0x2D3 DUP9 DUP3 DUP10 ADD PUSH2 0x193 JUMP JUMPDEST SWAP3 POP POP PUSH2 0x2E2 PUSH1 0x80 DUP8 ADD PUSH2 0x161 JUMP JUMPDEST SWAP1 POP SWAP3 SWAP6 POP SWAP3 SWAP6 SWAP1 SWAP4 POP JUMP JUMPDEST PUSH1 0x1 DUP2 DUP2 SHR SWAP1 DUP3 AND DUP1 PUSH2 0x302 JUMPI PUSH1 0x7F DUP3 AND SWAP2 POP JUMPDEST PUSH1 0x20 DUP3 LT DUP2 SUB PUSH2 0x322 JUMPI PUSH4 0x4E487B71 PUSH1 0xE0 SHL PUSH1 0x0 MSTORE PUSH1 0x22 PUSH1 0x4 MSTORE PUSH1 0x24 PUSH1 0x0 REVERT JUMPDEST POP SWAP2 SWAP1 POP JUMP JUMPDEST PUSH1 0x1F DUP3 GT ISZERO PUSH2 0x372 JUMPI DUP1 PUSH1 0x0 MSTORE PUSH1 0x20 PUSH1 0x0 KECCAK256 PUSH1 0x1F DUP5 ADD PUSH1 0x5 SHR DUP2 ADD PUSH1 0x20 DUP6 LT ISZERO PUSH2 0x34F JUMPI POP DUP1 JUMPDEST PUSH1 0x1F DUP5 ADD PUSH1 0x5 SHR DUP3 ADD SWAP2 POP JUMPDEST DUP2 DUP2 LT ISZERO PUSH2 0x36F JUMPI PUSH1 0x0 DUP2 SSTORE PUSH1 0x1 ADD PUSH2 0x35B JUMP JUMPDEST POP POP JUMPDEST POP POP POP JUMP JUMPDEST DUP2 MLOAD PUSH1 0x1 PUSH1 0x1 PUSH1 0x40 SHL SUB DUP2 GT ISZERO PUSH2 0x390 JUMPI PUSH2 0x390 PUSH2 0x17D JUMP JUMPDEST PUSH2 0x3A4 DUP2 PUSH2 0x39E DUP5 SLOAD PUSH2 0x2EE JUMP JUMPDEST DUP5 PUSH2 0x328 JUMP JUMPDEST PUSH1 0x20 PUSH1 0x1F DUP3 GT PUSH1 0x1 DUP2 EQ PUSH2 0x3D8 JUMPI PUSH1 0x0 DUP4 ISZERO PUSH2 0x3C0 JUMPI POP DUP5 DUP3 ADD MLOAD JUMPDEST PUSH1 0x0 NOT PUSH1 0x3 DUP6 SWAP1 SHL SHR NOT AND PUSH1 0x1 DUP5 SWAP1 SHL OR DUP5 SSTORE PUSH2 0x36F JUMP JUMPDEST PUSH1 0x0 DUP5 DUP2 MSTORE PUSH1 0x20 DUP2 KECCAK256 PUSH1 0x1F NOT DUP6 AND SWAP2 JUMPDEST DUP3 DUP2 LT ISZERO PUSH2 0x408 JUMPI DUP8 DUP6 ADD MLOAD DUP3 SSTORE PUSH1 0x20 SWAP5 DUP6 ADD SWAP5 PUSH1 0x1 SWAP1 SWAP3 ADD SWAP2 ADD PUSH2 0x3E8 JUMP JUMPDEST POP DUP5 DUP3 LT ISZERO PUSH2 0x426 JUMPI DUP7 DUP5 ADD MLOAD PUSH1 0x0 NOT PUSH1 0x3 DUP8 SWAP1 SHL PUSH1 0xF8 AND SHR NOT AND DUP2 SSTORE JUMPDEST POP POP POP POP PUSH1 0x1 SWAP1 DUP2 SHL ADD SWAP1 SSTORE POP JUMP JUMPDEST PUSH2 0x2B6A DUP1 PUSH2 0x444 PUSH1 0x0 CODECOPY PUSH1 0x0 RETURN INVALID PUSH1 0x80 PUSH1 0x40 MSTORE CALLVALUE DUP1 ISZERO PUSH2 0x10 JUMPI PUSH1 0x0 DUP1 REVERT JUMPDEST POP PUSH1 0x4 CALLDATASIZE LT PUSH2 0x211 JUMPI PUSH1 0x0 CALLDATALOAD PUSH1 0xE0 SHR DUP1 PUSH4 0x84C4BD4B GT PUSH2 0x125 JUMPI DUP1 PUSH4 0xB88D4FDE GT PUSH2 0xAD JUMPI DUP1 PUSH4 0xE985E9C5 GT PUSH2 0x7C JUMPI DUP1 PUSH4 0xE985E9C5 EQ PUSH2 0x544 JUMPI DUP1 PUSH4 0xF1537686 EQ PUSH2 0x580 JUMPI DUP1 PUSH4 0xF2FDE38B EQ PUSH2 0x593 JUMPI DUP1 PUSH4 0xFA544161 EQ PUSH2 0x5A6 JUMPI DUP1 PUSH4 0xFC6F9468 EQ PUSH2 0x5C6 JUMPI PUSH1 0x0 DUP1 REVERT JUMPDEST DUP1 PUSH4 0xB88D4FDE EQ PUSH2 0x4F8 JUMPI DUP1 PUSH4 0xC87B56DD EQ PUSH2 0x50B JUMPI DUP1 PUSH4 0xDAA17F49 EQ PUSH2 0x51E JUMPI DUP1 PUSH4 0xE7B25369 EQ PUSH2 0x531 JUMPI PUSH1 0x0 DUP1 REVERT JUMPDEST DUP1 PUSH4 0x8DF9612B GT PUSH2 0xF4 JUMPI DUP1 PUSH4 0x8DF9612B EQ PUSH2 0x47B JUMPI DUP1 PUSH4 0x95D89B41 EQ PUSH2 0x4A6 JUMPI DUP1 PUSH4 0xA22CB465 EQ PUSH2 0x4AE JUMPI DUP1 PUSH4 0xA784318A EQ PUSH2 0x4C1 JUMPI DUP1 PUSH4 0xAC80DDEB EQ PUSH2 0x4E1 JUMPI PUSH1 0x0 DUP1 REVERT JUMPDEST DUP1 PUSH4 0x84C4BD4B EQ PUSH2 0x447 JUMPI DUP1 PUSH4 0x8AD91345 EQ PUSH2 0x451 JUMPI DUP1 PUSH4 0x8B7AFE2E EQ PUSH2 0x464 JUMPI DUP1 PUSH4 0x8DA5CB5B EQ PUSH2 0x46A JUMPI PUSH1 0x0 DUP1 REVERT JUMPDEST DUP1 PUSH4 0x2C1E816D GT PUSH2 0x1A8 JUMPI DUP1 PUSH4 0x6D9439C5 GT PUSH2 0x177 JUMPI DUP1 PUSH4 0x6D9439C5 EQ PUSH2 0x38C JUMPI DUP1 PUSH4 0x6E0CEE09 EQ PUSH2 0x3F9 JUMPI DUP1 PUSH4 0x70A08231 EQ PUSH2 0x40C JUMPI DUP1 PUSH4 0x715018A6 EQ PUSH2 0x41F JUMPI DUP1 PUSH4 0x7B613E52 EQ PUSH2 0x427 JUMPI PUSH1 0x0 DUP1 REVERT JUMPDEST DUP1 PUSH4 0x2C1E816D EQ PUSH2 0x332 JUMPI DUP1 PUSH4 0x42842E0E EQ PUSH2 0x345 JUMPI DUP1 PUSH4 0x4C2A3F6C EQ PUSH2 0x358 JUMPI DUP1 PUSH4 0x6352211E EQ PUSH2 0x379 JUMPI PUSH1 0x0 DUP1 REVERT JUMPDEST DUP1 PUSH4 0x95EA7B3 GT PUSH2 0x1E4 JUMPI DUP1 PUSH4 0x95EA7B3 EQ PUSH2 0x2AC JUMPI DUP1 PUSH4 0xA8595B0 EQ PUSH2 0x2C1 JUMPI DUP1 PUSH4 0xE8DBE62 EQ PUSH2 0x2E4 JUMPI DUP1 PUSH4 0x23B872DD EQ PUSH2 0x31F JUMPI PUSH1 0x0 DUP1 REVERT JUMPDEST DUP1 PUSH4 0x1FFC9A7 EQ PUSH2 0x216 JUMPI DUP1 PUSH4 0x5D85EDA EQ PUSH2 0x23E JUMPI DUP1 PUSH4 0x6FDDE03 EQ PUSH2 0x26C JUMPI DUP1 PUSH4 0x81812FC EQ PUSH2 0x281 JUMPI JUMPDEST PUSH1 0x0 DUP1 REVERT JUMPDEST PUSH2 0x229 PUSH2 0x224 CALLDATASIZE PUSH1 0x4 PUSH2 0x22A8 JUMP JUMPDEST PUSH2 0x5D9 JUMP JUMPDEST PUSH1 0x40 MLOAD SWAP1 ISZERO ISZERO DUP2 MSTORE PUSH1 0x20 ADD JUMPDEST PUSH1 0x40 MLOAD DUP1 SWAP2 SUB SWAP1 RETURN JUMPDEST PUSH2 0x25E PUSH2 0x24C CALLDATASIZE PUSH1 0x4 PUSH2 0x22E1 JUMP JUMPDEST PUSH1 0xE PUSH1 0x20 MSTORE PUSH1 0x0 SWAP1 DUP2 MSTORE PUSH1 0x40 SWAP1 KECCAK256 SLOAD DUP2 JUMP JUMPDEST PUSH1 0x40 MLOAD SWAP1 DUP2 MSTORE PUSH1 0x20 ADD PUSH2 0x235 JUMP JUMPDEST PUSH2 0x274 PUSH2 0x604 JUMP JUMPDEST PUSH1 0x40 MLOAD PUSH2 0x235 SWAP2 SWAP1 PUSH2 0x234C JUMP JUMPDEST PUSH2 0x294 PUSH2 0x28F CALLDATASIZE PUSH1 0x4 PUSH2 0x235F JUMP JUMPDEST PUSH2 0x696 JUMP JUMPDEST PUSH1 0x40 MLOAD PUSH1 0x1 PUSH1 0x1 PUSH1 0xA0 SHL SUB SWAP1 SWAP2 AND DUP2 MSTORE PUSH1 0x20 ADD PUSH2 0x235 JUMP JUMPDEST PUSH2 0x2BF PUSH2 0x2BA CALLDATASIZE PUSH1 0x4 PUSH2 0x2378 JUMP JUMPDEST PUSH2 0x6BD JUMP JUMPDEST STOP JUMPDEST PUSH2 0x229 PUSH2 0x2CF CALLDATASIZE PUSH1 0x4 PUSH2 0x235F JUMP JUMPDEST PUSH1 0x14 PUSH1 0x20 MSTORE PUSH1 0x0 SWAP1 DUP2 MSTORE PUSH1 0x40 SWAP1 KECCAK256 SLOAD PUSH1 0xFF AND DUP2 JUMP JUMPDEST PUSH2 0x30A PUSH2 0x2F2 CALLDATASIZE PUSH1 0x4 PUSH2 0x22E1 JUMP JUMPDEST PUSH1 0x11 PUSH1 0x20 MSTORE PUSH1 0x0 SWAP1 DUP2 MSTORE PUSH1 0x40 SWAP1 KECCAK256 SLOAD PUSH4 0xFFFFFFFF AND DUP2 JUMP JUMPDEST PUSH1 0x40 MLOAD PUSH4 0xFFFFFFFF SWAP1 SWAP2 AND DUP2 MSTORE PUSH1 0x20 ADD PUSH2 0x235 JUMP JUMPDEST PUSH2 0x2BF PUSH2 0x32D CALLDATASIZE PUSH1 0x4 PUSH2 0x23A2 JUMP JUMPDEST PUSH2 0x749 JUMP JUMPDEST PUSH2 0x2BF PUSH2 0x340 CALLDATASIZE PUSH1 0x4 PUSH2 0x22E1 JUMP JUMPDEST PUSH2 0x785 JUMP JUMPDEST PUSH2 0x2BF PUSH2 0x353 CALLDATASIZE PUSH1 0x4 PUSH2 0x23A2 JUMP JUMPDEST PUSH2 0x7F5 JUMP JUMPDEST PUSH2 0x2BF PUSH2 0x366 CALLDATASIZE PUSH1 0x4 PUSH2 0x235F JUMP JUMPDEST PUSH1 0x0 SWAP1 DUP2 MSTORE PUSH1 0x10 PUSH1 0x20 MSTORE PUSH1 0x40 SWAP1 KECCAK256 TIMESTAMP SWAP1 SSTORE JUMP JUMPDEST PUSH2 0x294 PUSH2 0x387 CALLDATASIZE PUSH1 0x4 PUSH2 0x235F JUMP JUMPDEST PUSH2 0x810 JUMP JUMPDEST PUSH2 0x3CE PUSH2 0x39A CALLDATASIZE PUSH1 0x4 PUSH2 0x235F JUMP JUMPDEST PUSH1 0x10 PUSH1 0x20 MSTORE PUSH1 0x0 SWAP1 DUP2 MSTORE PUSH1 0x40 SWAP1 KECCAK256 DUP1 SLOAD PUSH1 0x1 DUP3 ADD SLOAD PUSH1 0x2 DUP4 ADD SLOAD PUSH1 0x3 SWAP1 SWAP4 ADD SLOAD SWAP2 SWAP3 PUSH1 0x1 PUSH1 0x1 PUSH1 0xA0 SHL SUB SWAP2 DUP3 AND SWAP3 SWAP1 SWAP2 AND DUP5 JUMP JUMPDEST PUSH1 0x40 DUP1 MLOAD SWAP5 DUP6 MSTORE PUSH1 0x1 PUSH1 0x1 PUSH1 0xA0 SHL SUB SWAP4 DUP5 AND PUSH1 0x20 DUP7 ADD MSTORE DUP5 ADD SWAP2 SWAP1 SWAP2 MSTORE AND PUSH1 0x60 DUP3 ADD MSTORE PUSH1 0x80 ADD PUSH2 0x235 JUMP JUMPDEST PUSH2 0x2BF PUSH2 0x407 CALLDATASIZE PUSH1 0x4 PUSH2 0x23DF JUMP JUMPDEST PUSH2 0x870 JUMP JUMPDEST PUSH2 0x25E PUSH2 0x41A CALLDATASIZE PUSH1 0x4 PUSH2 0x22E1 JUMP JUMPDEST PUSH2 0x9BB JUMP JUMPDEST PUSH2 0x2BF PUSH2 0xA41 JUMP JUMPDEST PUSH2 0x43A PUSH2 0x435 CALLDATASIZE PUSH1 0x4 PUSH2 0x22E1 JUMP JUMPDEST PUSH2 0xA55 JUMP JUMPDEST PUSH1 0x40 MLOAD PUSH2 0x235 SWAP2 SWAP1 PUSH2 0x241B JUMP JUMPDEST PUSH1 0x9 SLOAD PUSH2 0x25E SWAP1 DUP2 JUMP JUMPDEST PUSH2 0x274 PUSH2 0x45F CALLDATASIZE PUSH1 0x4 PUSH2 0x235F JUMP JUMPDEST PUSH2 0xB60 JUMP JUMPDEST SELFBALANCE PUSH2 0x25E JUMP JUMPDEST PUSH1 0x7 SLOAD PUSH1 0x1 PUSH1 0x1 PUSH1 0xA0 SHL SUB AND PUSH2 0x294 JUMP JUMPDEST PUSH2 0x25E PUSH2 0x489 CALLDATASIZE PUSH1 0x4 PUSH2 0x2378 JUMP JUMPDEST PUSH1 0xD PUSH1 0x20 SWAP1 DUP2 MSTORE PUSH1 0x0 SWAP3 DUP4 MSTORE PUSH1 0x40 DUP1 DUP5 KECCAK256 SWAP1 SWAP2 MSTORE SWAP1 DUP3 MSTORE SWAP1 KECCAK256 SLOAD DUP2 JUMP JUMPDEST PUSH2 0x274 PUSH2 0xB6B JUMP JUMPDEST PUSH2 0x2BF PUSH2 0x4BC CALLDATASIZE PUSH1 0x4 PUSH2 0x245F JUMP JUMPDEST PUSH2 0xB7A JUMP JUMPDEST PUSH2 0x4D4 PUSH2 0x4CF CALLDATASIZE PUSH1 0x4 PUSH2 0x254B JUMP JUMPDEST PUSH2 0xB89 JUMP JUMPDEST PUSH1 0x40 MLOAD PUSH2 0x235 SWAP2 SWAP1 PUSH2 0x2580 JUMP JUMPDEST PUSH2 0x4E9 PUSH2 0xD2C JUMP JUMPDEST PUSH1 0x40 MLOAD PUSH2 0x235 SWAP4 SWAP3 SWAP2 SWAP1 PUSH2 0x2646 JUMP JUMPDEST PUSH2 0x2BF PUSH2 0x506 CALLDATASIZE PUSH1 0x4 PUSH2 0x2689 JUMP JUMPDEST PUSH2 0xEE6 JUMP JUMPDEST PUSH2 0x274 PUSH2 0x519 CALLDATASIZE PUSH1 0x4 PUSH2 0x235F JUMP JUMPDEST PUSH2 0xF1E JUMP JUMPDEST PUSH1 0x8 SLOAD PUSH2 0x294 SWAP1 PUSH1 0x1 PUSH1 0x1 PUSH1 0xA0 SHL SUB AND DUP2 JUMP JUMPDEST PUSH2 0x2BF PUSH2 0x53F CALLDATASIZE PUSH1 0x4 PUSH2 0x2705 JUMP JUMPDEST PUSH2 0xF29 JUMP JUMPDEST PUSH2 0x229 PUSH2 0x552 CALLDATASIZE PUSH1 0x4 PUSH2 0x277C JUMP JUMPDEST PUSH1 0x1 PUSH1 0x1 PUSH1 0xA0 SHL SUB SWAP2 DUP3 AND PUSH1 0x0 SWAP1 DUP2 MSTORE PUSH1 0x5 PUSH1 0x20 SWAP1 DUP2 MSTORE PUSH1 0x40 DUP1 DUP4 KECCAK256 SWAP4 SWAP1 SWAP5 AND DUP3 MSTORE SWAP2 SWAP1 SWAP2 MSTORE KECCAK256 SLOAD PUSH1 0xFF AND SWAP1 JUMP JUMPDEST PUSH2 0x4D4 PUSH2 0x58E CALLDATASIZE PUSH1 0x4 PUSH2 0x22E1 JUMP JUMPDEST PUSH2 0x11AB JUMP JUMPDEST PUSH2 0x2BF PUSH2 0x5A1 CALLDATASIZE PUSH1 0x4 PUSH2 0x22E1 JUMP JUMPDEST PUSH2 0x15D3 JUMP JUMPDEST PUSH2 0x25E PUSH2 0x5B4 CALLDATASIZE PUSH1 0x4 PUSH2 0x22E1 JUMP JUMPDEST PUSH1 0x13 PUSH1 0x20 MSTORE PUSH1 0x0 SWAP1 DUP2 MSTORE PUSH1 0x40 SWAP1 KECCAK256 SLOAD DUP2 JUMP JUMPDEST PUSH1 0x12 SLOAD PUSH2 0x294 SWAP1 PUSH1 0x1 PUSH1 0x1 PUSH1 0xA0 SHL SUB AND DUP2 JUMP JUMPDEST PUSH1 0x0 PUSH1 0x1 PUSH1 0x1 PUSH1 0xE0 SHL SUB NOT DUP3 AND PUSH4 0x24832483 PUSH1 0xE1 SHL EQ DUP1 PUSH2 0x5FE JUMPI POP PUSH2 0x5FE DUP3 PUSH2 0x164C JUMP JUMPDEST SWAP3 SWAP2 POP POP JUMP JUMPDEST PUSH1 0x60 PUSH1 0x0 DUP1 SLOAD PUSH2 0x613 SWAP1 PUSH2 0x27AF JUMP JUMPDEST DUP1 PUSH1 0x1F ADD PUSH1 0x20 DUP1 SWAP2 DIV MUL PUSH1 0x20 ADD PUSH1 0x40 MLOAD SWAP1 DUP2 ADD PUSH1 0x40 MSTORE DUP1 SWAP3 SWAP2 SWAP1 DUP2 DUP2 MSTORE PUSH1 0x20 ADD DUP3 DUP1 SLOAD PUSH2 0x63F SWAP1 PUSH2 0x27AF JUMP JUMPDEST DUP1 ISZERO PUSH2 0x68C JUMPI DUP1 PUSH1 0x1F LT PUSH2 0x661 JUMPI PUSH2 0x100 DUP1 DUP4 SLOAD DIV MUL DUP4 MSTORE SWAP2 PUSH1 0x20 ADD SWAP2 PUSH2 0x68C JUMP JUMPDEST DUP3 ADD SWAP2 SWAP1 PUSH1 0x0 MSTORE PUSH1 0x20 PUSH1 0x0 KECCAK256 SWAP1 JUMPDEST DUP2 SLOAD DUP2 MSTORE SWAP1 PUSH1 0x1 ADD SWAP1 PUSH1 0x20 ADD DUP1 DUP4 GT PUSH2 0x66F JUMPI DUP3 SWAP1 SUB PUSH1 0x1F AND DUP3 ADD SWAP2 JUMPDEST POP POP POP POP POP SWAP1 POP SWAP1 JUMP JUMPDEST PUSH1 0x0 PUSH2 0x6A1 DUP3 PUSH2 0x169C JUMP JUMPDEST POP PUSH1 0x0 SWAP1 DUP2 MSTORE PUSH1 0x4 PUSH1 0x20 MSTORE PUSH1 0x40 SWAP1 KECCAK256 SLOAD PUSH1 0x1 PUSH1 0x1 PUSH1 0xA0 SHL SUB AND SWAP1 JUMP JUMPDEST PUSH1 0x0 PUSH2 0x6C8 DUP3 PUSH2 0x810 JUMP JUMPDEST SWAP1 POP DUP1 PUSH1 0x1 PUSH1 0x1 PUSH1 0xA0 SHL SUB AND DUP4 PUSH1 0x1 PUSH1 0x1 PUSH1 0xA0 SHL SUB AND SUB PUSH2 0x73A JUMPI PUSH1 0x40 MLOAD PUSH3 0x461BCD PUSH1 0xE5 SHL DUP2 MSTORE PUSH1 0x20 PUSH1 0x4 DUP3 ADD MSTORE PUSH1 0x21 PUSH1 0x24 DUP3 ADD MSTORE PUSH32 0x4552433732313A20617070726F76616C20746F2063757272656E74206F776E65 PUSH1 0x44 DUP3 ADD MSTORE PUSH1 0x39 PUSH1 0xF9 SHL PUSH1 0x64 DUP3 ADD MSTORE PUSH1 0x84 ADD JUMPDEST PUSH1 0x40 MLOAD DUP1 SWAP2 SUB SWAP1 REVERT JUMPDEST PUSH2 0x744 DUP4 DUP4 PUSH2 0x16FB JUMP JUMPDEST POP POP POP JUMP JUMPDEST PUSH2 0x753 CALLER DUP3 PUSH2 0x1769 JUMP JUMPDEST PUSH2 0x76F JUMPI PUSH1 0x40 MLOAD PUSH3 0x461BCD PUSH1 0xE5 SHL DUP2 MSTORE PUSH1 0x4 ADD PUSH2 0x731 SWAP1 PUSH2 0x27E9 JUMP JUMPDEST PUSH2 0x77A DUP4 DUP4 DUP4 PUSH2 0x17E8 JUMP JUMPDEST PUSH2 0x744 DUP3 DUP3 DUP6 PUSH2 0x870 JUMP JUMPDEST PUSH1 0x12 SLOAD PUSH1 0x1 PUSH1 0x1 PUSH1 0xA0 SHL SUB AND CALLER EQ PUSH2 0x7D3 JUMPI PUSH1 0x40 MLOAD PUSH3 0x461BCD PUSH1 0xE5 SHL DUP2 MSTORE PUSH1 0x20 PUSH1 0x4 DUP3 ADD MSTORE PUSH1 0x11 PUSH1 0x24 DUP3 ADD MSTORE PUSH17 0x2CB7BA9030B932903737BA1020B236B4B7 PUSH1 0x79 SHL PUSH1 0x44 DUP3 ADD MSTORE PUSH1 0x64 ADD PUSH2 0x731 JUMP JUMPDEST PUSH1 0x12 DUP1 SLOAD PUSH1 0x1 PUSH1 0x1 PUSH1 0xA0 SHL SUB NOT AND PUSH1 0x1 PUSH1 0x1 PUSH1 0xA0 SHL SUB SWAP3 SWAP1 SWAP3 AND SWAP2 SWAP1 SWAP2 OR SWAP1 SSTORE JUMP JUMPDEST PUSH2 0x744 DUP4 DUP4 DUP4 PUSH1 0x40 MLOAD DUP1 PUSH1 0x20 ADD PUSH1 0x40 MSTORE DUP1 PUSH1 0x0 DUP2 MSTORE POP PUSH2 0xEE6 JUMP JUMPDEST PUSH1 0x0 DUP2 DUP2 MSTORE PUSH1 0x2 PUSH1 0x20 MSTORE PUSH1 0x40 DUP2 KECCAK256 SLOAD PUSH1 0x1 PUSH1 0x1 PUSH1 0xA0 SHL SUB AND DUP1 PUSH2 0x5FE JUMPI PUSH1 0x40 MLOAD PUSH3 0x461BCD PUSH1 0xE5 SHL DUP2 MSTORE PUSH1 0x20 PUSH1 0x4 DUP3 ADD MSTORE PUSH1 0x18 PUSH1 0x24 DUP3 ADD MSTORE PUSH24 0x115490CDCC8C4E881A5B9D985B1A59081D1BDAD95B881251 PUSH1 0x42 SHL PUSH1 0x44 DUP3 ADD MSTORE PUSH1 0x64 ADD PUSH2 0x731 JUMP JUMPDEST PUSH1 0x0 DUP3 DUP2 MSTORE PUSH1 0x14 PUSH1 0x20 SWAP1 DUP2 MSTORE PUSH1 0x40 DUP1 DUP4 KECCAK256 DUP1 SLOAD PUSH1 0xFF NOT AND PUSH1 0x1 SWAP1 DUP2 OR SWAP1 SWAP2 SSTORE PUSH1 0x1 PUSH1 0x1 PUSH1 0xA0 SHL SUB DUP8 AND DUP5 MSTORE PUSH1 0xD DUP4 MSTORE DUP2 DUP5 KECCAK256 PUSH1 0xE SWAP1 SWAP4 MSTORE SWAP1 DUP4 KECCAK256 SLOAD DUP6 SWAP4 SWAP2 PUSH2 0x8B8 SWAP2 SWAP1 PUSH2 0x284C JUMP JUMPDEST DUP2 MSTORE PUSH1 0x20 ADD SWAP1 DUP2 MSTORE PUSH1 0x20 ADD PUSH1 0x0 KECCAK256 DUP2 SWAP1 SSTORE POP PUSH1 0x0 PUSH2 0x8D5 DUP3 PUSH2 0x11AB JUMP JUMPDEST SWAP1 POP PUSH1 0x0 JUMPDEST DUP2 MLOAD DUP2 LT ISZERO PUSH2 0x98B JUMPI DUP4 DUP3 DUP3 DUP2 MLOAD DUP2 LT PUSH2 0x8F6 JUMPI PUSH2 0x8F6 PUSH2 0x285F JUMP JUMPDEST PUSH1 0x20 MUL PUSH1 0x20 ADD ADD MLOAD PUSH1 0x0 ADD MLOAD SUB PUSH2 0x983 JUMPI PUSH1 0x1 PUSH1 0x1 PUSH1 0xA0 SHL SUB DUP4 AND PUSH1 0x0 DUP2 DUP2 MSTORE PUSH1 0xD PUSH1 0x20 DUP2 DUP2 MSTORE PUSH1 0x40 DUP1 DUP5 KECCAK256 PUSH1 0xE DUP4 MSTORE DUP2 DUP6 KECCAK256 SLOAD DUP6 MSTORE DUP1 DUP4 MSTORE SWAP1 DUP5 KECCAK256 SLOAD SWAP5 DUP5 MSTORE SWAP2 SWAP1 MSTORE SWAP1 PUSH2 0x945 DUP5 PUSH1 0x1 PUSH2 0x284C JUMP JUMPDEST DUP2 MSTORE PUSH1 0x20 DUP1 DUP3 ADD SWAP3 SWAP1 SWAP3 MSTORE PUSH1 0x40 SWAP1 DUP2 ADD PUSH1 0x0 SWAP1 DUP2 KECCAK256 SWAP4 SWAP1 SWAP4 SSTORE PUSH1 0x1 PUSH1 0x1 PUSH1 0xA0 SHL SUB DUP7 AND DUP4 MSTORE PUSH1 0xE SWAP1 SWAP2 MSTORE DUP2 KECCAK256 DUP1 SLOAD SWAP2 PUSH2 0x97D DUP4 PUSH2 0x2875 JUMP JUMPDEST SWAP2 SWAP1 POP SSTORE POP JUMPDEST PUSH1 0x1 ADD PUSH2 0x8DA JUMP JUMPDEST POP PUSH1 0x1 PUSH1 0x1 PUSH1 0xA0 SHL SUB DUP5 AND PUSH1 0x0 SWAP1 DUP2 MSTORE PUSH1 0xE PUSH1 0x20 MSTORE PUSH1 0x40 DUP2 KECCAK256 DUP1 SLOAD SWAP2 PUSH2 0x9B0 DUP4 PUSH2 0x288C JUMP JUMPDEST SWAP2 SWAP1 POP SSTORE POP POP POP POP POP JUMP JUMPDEST PUSH1 0x0 PUSH1 0x1 PUSH1 0x1 PUSH1 0xA0 SHL SUB DUP3 AND PUSH2 0xA25 JUMPI PUSH1 0x40 MLOAD PUSH3 0x461BCD PUSH1 0xE5 SHL DUP2 MSTORE PUSH1 0x20 PUSH1 0x4 DUP3 ADD MSTORE PUSH1 0x29 PUSH1 0x24 DUP3 ADD MSTORE PUSH32 0x4552433732313A2061646472657373207A65726F206973206E6F742061207661 PUSH1 0x44 DUP3 ADD MSTORE PUSH9 0x3634B21037BBB732B9 PUSH1 0xB9 SHL PUSH1 0x64 DUP3 ADD MSTORE PUSH1 0x84 ADD PUSH2 0x731 JUMP JUMPDEST POP PUSH1 0x1 PUSH1 0x1 PUSH1 0xA0 SHL SUB AND PUSH1 0x0 SWAP1 DUP2 MSTORE PUSH1 0x3 PUSH1 0x20 MSTORE PUSH1 0x40 SWAP1 KECCAK256 SLOAD SWAP1 JUMP JUMPDEST PUSH2 0xA49 PUSH2 0x194C JUMP JUMPDEST PUSH2 0xA53 PUSH1 0x0 PUSH2 0x19A6 JUMP JUMPDEST JUMP JUMPDEST PUSH1 0x1 PUSH1 0x1 PUSH1 0xA0 SHL SUB DUP2 AND PUSH1 0x0 SWAP1 DUP2 MSTORE PUSH1 0xE PUSH1 0x20 MSTORE PUSH1 0x40 DUP2 KECCAK256 SLOAD PUSH1 0x60 SWAP2 SWAP1 PUSH8 0xFFFFFFFFFFFFFFFF DUP2 GT ISZERO PUSH2 0xA8A JUMPI PUSH2 0xA8A PUSH2 0x249B JUMP JUMPDEST PUSH1 0x40 MLOAD SWAP1 DUP1 DUP3 MSTORE DUP1 PUSH1 0x20 MUL PUSH1 0x20 ADD DUP3 ADD PUSH1 0x40 MSTORE DUP1 ISZERO PUSH2 0xACA JUMPI DUP2 PUSH1 0x20 ADD JUMPDEST PUSH1 0x40 DUP1 MLOAD PUSH1 0x20 DUP2 ADD SWAP1 SWAP2 MSTORE PUSH1 0x0 DUP2 MSTORE DUP2 MSTORE PUSH1 0x20 ADD SWAP1 PUSH1 0x1 SWAP1 SUB SWAP1 DUP2 PUSH2 0xAA8 JUMPI SWAP1 POP JUMPDEST POP SWAP1 POP PUSH1 0x0 JUMPDEST PUSH1 0x1 PUSH1 0x1 PUSH1 0xA0 SHL SUB DUP5 AND PUSH1 0x0 SWAP1 DUP2 MSTORE PUSH1 0xE PUSH1 0x20 MSTORE PUSH1 0x40 SWAP1 KECCAK256 SLOAD DUP2 LT ISZERO PUSH2 0xB59 JUMPI PUSH1 0x40 DUP1 MLOAD PUSH1 0x20 DUP1 DUP3 ADD DUP4 MSTORE PUSH1 0x1 PUSH1 0x1 PUSH1 0xA0 SHL SUB DUP8 AND PUSH1 0x0 SWAP1 DUP2 MSTORE PUSH1 0xD SWAP1 SWAP2 MSTORE SWAP2 DUP3 KECCAK256 SWAP1 SWAP2 DUP3 SWAP2 SWAP1 PUSH2 0xB22 DUP6 PUSH1 0x1 PUSH2 0x284C JUMP JUMPDEST DUP2 MSTORE PUSH1 0x20 ADD SWAP1 DUP2 MSTORE PUSH1 0x20 ADD PUSH1 0x0 KECCAK256 SLOAD DUP2 MSTORE POP DUP3 DUP3 DUP2 MLOAD DUP2 LT PUSH2 0xB46 JUMPI PUSH2 0xB46 PUSH2 0x285F JUMP JUMPDEST PUSH1 0x20 SWAP1 DUP2 MUL SWAP2 SWAP1 SWAP2 ADD ADD MSTORE PUSH1 0x1 ADD PUSH2 0xAD0 JUMP JUMPDEST POP SWAP3 SWAP2 POP POP JUMP JUMPDEST PUSH1 0x60 PUSH2 0x5FE DUP3 PUSH2 0xF1E JUMP JUMPDEST PUSH1 0x60 PUSH1 0x1 DUP1 SLOAD PUSH2 0x613 SWAP1 PUSH2 0x27AF JUMP JUMPDEST PUSH2 0xB85 CALLER DUP4 DUP4 PUSH2 0x19F8 JUMP JUMPDEST POP POP JUMP JUMPDEST PUSH1 0x60 PUSH1 0x0 PUSH1 0xF DUP4 PUSH1 0x40 MLOAD PUSH2 0xB9D SWAP2 SWAP1 PUSH2 0x28A5 JUMP JUMPDEST SWAP1 DUP2 MSTORE PUSH1 0x40 DUP1 MLOAD SWAP2 DUP3 SWAP1 SUB PUSH1 0x20 SWAP1 DUP2 ADD DUP4 KECCAK256 DUP1 SLOAD DUP1 DUP4 MUL DUP6 ADD DUP4 ADD SWAP1 SWAP4 MSTORE DUP3 DUP5 MSTORE SWAP2 SWAP1 DUP4 ADD DUP3 DUP3 DUP1 ISZERO PUSH2 0xBEF JUMPI PUSH1 0x20 MUL DUP3 ADD SWAP2 SWAP1 PUSH1 0x0 MSTORE PUSH1 0x20 PUSH1 0x0 KECCAK256 SWAP1 JUMPDEST DUP2 SLOAD DUP2 MSTORE PUSH1 0x20 ADD SWAP1 PUSH1 0x1 ADD SWAP1 DUP1 DUP4 GT PUSH2 0xBDB JUMPI JUMPDEST POP POP POP POP POP SWAP1 POP PUSH1 0x0 DUP2 MLOAD PUSH8 0xFFFFFFFFFFFFFFFF DUP2 GT ISZERO PUSH2 0xC12 JUMPI PUSH2 0xC12 PUSH2 0x249B JUMP JUMPDEST PUSH1 0x40 MLOAD SWAP1 DUP1 DUP3 MSTORE DUP1 PUSH1 0x20 MUL PUSH1 0x20 ADD DUP3 ADD PUSH1 0x40 MSTORE DUP1 ISZERO PUSH2 0xC4B JUMPI DUP2 PUSH1 0x20 ADD JUMPDEST PUSH2 0xC38 PUSH2 0x223A JUMP JUMPDEST DUP2 MSTORE PUSH1 0x20 ADD SWAP1 PUSH1 0x1 SWAP1 SUB SWAP1 DUP2 PUSH2 0xC30 JUMPI SWAP1 POP JUMPDEST POP SWAP1 POP PUSH1 0x0 JUMPDEST DUP3 MLOAD DUP2 LT ISZERO PUSH2 0xD24 JUMPI PUSH1 0x0 DUP4 DUP3 DUP2 MLOAD DUP2 LT PUSH2 0xC6E JUMPI PUSH2 0xC6E PUSH2 0x285F JUMP JUMPDEST PUSH1 0x20 MUL PUSH1 0x20 ADD ADD MLOAD SWAP1 POP PUSH1 0x40 MLOAD DUP1 PUSH1 0xE0 ADD PUSH1 0x40 MSTORE DUP1 DUP3 DUP2 MSTORE PUSH1 0x20 ADD PUSH1 0x10 PUSH1 0x0 DUP5 DUP2 MSTORE PUSH1 0x20 ADD SWAP1 DUP2 MSTORE PUSH1 0x20 ADD PUSH1 0x0 KECCAK256 PUSH1 0x0 ADD SLOAD DUP2 MSTORE PUSH1 0x20 ADD PUSH2 0xCAE DUP4 PUSH2 0x810 JUMP JUMPDEST PUSH1 0x1 PUSH1 0x1 PUSH1 0xA0 SHL SUB SWAP1 DUP2 AND DUP3 MSTORE ADDRESS PUSH1 0x20 DUP1 DUP5 ADD SWAP2 SWAP1 SWAP2 MSTORE PUSH1 0x0 DUP6 DUP2 MSTORE PUSH1 0x10 DUP1 DUP4 MSTORE PUSH1 0x40 DUP1 DUP4 KECCAK256 PUSH1 0x1 DUP2 ADD SLOAD SWAP1 SWAP6 AND SWAP1 DUP7 ADD MSTORE SWAP1 DUP7 SWAP1 MSTORE SWAP1 MSTORE PUSH1 0x2 ADD SLOAD PUSH1 0x60 DUP3 ADD MSTORE PUSH1 0x80 ADD PUSH2 0xCFB DUP4 PUSH2 0xF1E JUMP JUMPDEST DUP2 MSTORE POP DUP4 DUP4 DUP2 MLOAD DUP2 LT PUSH2 0xD10 JUMPI PUSH2 0xD10 PUSH2 0x285F JUMP JUMPDEST PUSH1 0x20 SWAP1 DUP2 MUL SWAP2 SWAP1 SWAP2 ADD ADD MSTORE POP PUSH1 0x1 ADD PUSH2 0xC51 JUMP JUMPDEST POP SWAP4 SWAP3 POP POP POP JUMP JUMPDEST PUSH1 0x60 DUP1 PUSH1 0x60 PUSH1 0xA PUSH1 0xB PUSH1 0xC DUP3 DUP1 SLOAD PUSH2 0xD43 SWAP1 PUSH2 0x27AF JUMP JUMPDEST DUP1 PUSH1 0x1F ADD PUSH1 0x20 DUP1 SWAP2 DIV MUL PUSH1 0x20 ADD PUSH1 0x40 MLOAD SWAP1 DUP2 ADD PUSH1 0x40 MSTORE DUP1 SWAP3 SWAP2 SWAP1 DUP2 DUP2 MSTORE PUSH1 0x20 ADD DUP3 DUP1 SLOAD PUSH2 0xD6F SWAP1 PUSH2 0x27AF JUMP JUMPDEST DUP1 ISZERO PUSH2 0xDBC JUMPI DUP1 PUSH1 0x1F LT PUSH2 0xD91 JUMPI PUSH2 0x100 DUP1 DUP4 SLOAD DIV MUL DUP4 MSTORE SWAP2 PUSH1 0x20 ADD SWAP2 PUSH2 0xDBC JUMP JUMPDEST DUP3 ADD SWAP2 SWAP1 PUSH1 0x0 MSTORE PUSH1 0x20 PUSH1 0x0 KECCAK256 SWAP1 JUMPDEST DUP2 SLOAD DUP2 MSTORE SWAP1 PUSH1 0x1 ADD SWAP1 PUSH1 0x20 ADD DUP1 DUP4 GT PUSH2 0xD9F JUMPI DUP3 SWAP1 SUB PUSH1 0x1F AND DUP3 ADD SWAP2 JUMPDEST POP POP POP POP POP SWAP3 POP DUP2 DUP1 SLOAD PUSH2 0xDCF SWAP1 PUSH2 0x27AF JUMP JUMPDEST DUP1 PUSH1 0x1F ADD PUSH1 0x20 DUP1 SWAP2 DIV MUL PUSH1 0x20 ADD PUSH1 0x40 MLOAD SWAP1 DUP2 ADD PUSH1 0x40 MSTORE DUP1 SWAP3 SWAP2 SWAP1 DUP2 DUP2 MSTORE PUSH1 0x20 ADD DUP3 DUP1 SLOAD PUSH2 0xDFB SWAP1 PUSH2 0x27AF JUMP JUMPDEST DUP1 ISZERO PUSH2 0xE48 JUMPI DUP1 PUSH1 0x1F LT PUSH2 0xE1D JUMPI PUSH2 0x100 DUP1 DUP4 SLOAD DIV MUL DUP4 MSTORE SWAP2 PUSH1 0x20 ADD SWAP2 PUSH2 0xE48 JUMP JUMPDEST DUP3 ADD SWAP2 SWAP1 PUSH1 0x0 MSTORE PUSH1 0x20 PUSH1 0x0 KECCAK256 SWAP1 JUMPDEST DUP2 SLOAD DUP2 MSTORE SWAP1 PUSH1 0x1 ADD SWAP1 PUSH1 0x20 ADD DUP1 DUP4 GT PUSH2 0xE2B JUMPI DUP3 SWAP1 SUB PUSH1 0x1F AND DUP3 ADD SWAP2 JUMPDEST POP POP POP POP POP SWAP2 POP DUP1 DUP1 SLOAD PUSH2 0xE5B SWAP1 PUSH2 0x27AF JUMP JUMPDEST DUP1 PUSH1 0x1F ADD PUSH1 0x20 DUP1 SWAP2 DIV MUL PUSH1 0x20 ADD PUSH1 0x40 MLOAD SWAP1 DUP2 ADD PUSH1 0x40 MSTORE DUP1 SWAP3 SWAP2 SWAP1 DUP2 DUP2 MSTORE PUSH1 0x20 ADD DUP3 DUP1 SLOAD PUSH2 0xE87 SWAP1 PUSH2 0x27AF JUMP JUMPDEST DUP1 ISZERO PUSH2 0xED4 JUMPI DUP1 PUSH1 0x1F LT PUSH2 0xEA9 JUMPI PUSH2 0x100 DUP1 DUP4 SLOAD DIV MUL DUP4 MSTORE SWAP2 PUSH1 0x20 ADD SWAP2 PUSH2 0xED4 JUMP JUMPDEST DUP3 ADD SWAP2 SWAP1 PUSH1 0x0 MSTORE PUSH1 0x20 PUSH1 0x0 KECCAK256 SWAP1 JUMPDEST DUP2 SLOAD DUP2 MSTORE SWAP1 PUSH1 0x1 ADD SWAP1 PUSH1 0x20 ADD DUP1 DUP4 GT PUSH2 0xEB7 JUMPI DUP3 SWAP1 SUB PUSH1 0x1F AND DUP3 ADD SWAP2 JUMPDEST POP POP POP POP POP SWAP1 POP SWAP3 POP SWAP3 POP SWAP3 POP SWAP1 SWAP2 SWAP3 JUMP JUMPDEST PUSH2 0xEF0 CALLER DUP4 PUSH2 0x1769 JUMP JUMPDEST PUSH2 0xF0C JUMPI PUSH1 0x40 MLOAD PUSH3 0x461BCD PUSH1 0xE5 SHL DUP2 MSTORE PUSH1 0x4 ADD PUSH2 0x731 SWAP1 PUSH2 0x27E9 JUMP JUMPDEST PUSH2 0xF18 DUP5 DUP5 DUP5 DUP5 PUSH2 0x1AC6 JUMP JUMPDEST POP POP POP POP JUMP JUMPDEST PUSH1 0x60 PUSH2 0x5FE DUP3 PUSH2 0x1AF9 JUMP JUMPDEST PUSH2 0xF37 PUSH1 0x9 DUP1 SLOAD PUSH1 0x1 ADD SWAP1 SSTORE JUMP JUMPDEST PUSH1 0x9 SLOAD CALLER PUSH1 0x0 SWAP1 DUP2 MSTORE PUSH1 0xD PUSH1 0x20 SWAP1 DUP2 MSTORE PUSH1 0x40 DUP1 DUP4 KECCAK256 PUSH1 0xE SWAP1 SWAP3 MSTORE DUP3 KECCAK256 SLOAD SWAP1 SWAP2 SWAP1 PUSH2 0xF62 SWAP1 PUSH1 0x1 PUSH2 0x284C JUMP JUMPDEST DUP2 MSTORE PUSH1 0x20 DUP2 ADD SWAP2 SWAP1 SWAP2 MSTORE PUSH1 0x40 ADD PUSH1 0x0 KECCAK256 SSTORE PUSH2 0xF85 CALLER PUSH2 0xF80 PUSH1 0x9 SLOAD SWAP1 JUMP JUMPDEST PUSH2 0x1C01 JUMP JUMPDEST PUSH2 0xF97 PUSH2 0xF91 PUSH1 0x9 SLOAD SWAP1 JUMP JUMPDEST DUP6 PUSH2 0x1C1B JUMP JUMPDEST CALLER PUSH1 0x0 SWAP1 DUP2 MSTORE PUSH1 0xE PUSH1 0x20 MSTORE PUSH1 0x40 DUP2 KECCAK256 DUP1 SLOAD SWAP2 PUSH2 0xFB2 DUP4 PUSH2 0x288C JUMP JUMPDEST SWAP2 SWAP1 POP SSTORE POP PUSH2 0xFC5 CALLER DUP5 PUSH2 0x32D PUSH1 0x9 SLOAD SWAP1 JUMP JUMPDEST PUSH1 0x8 SLOAD PUSH1 0x1 PUSH1 0x1 PUSH1 0xA0 SHL SUB AND PUSH4 0x456005C8 ADDRESS PUSH2 0xFE0 PUSH1 0x9 SLOAD SWAP1 JUMP JUMPDEST PUSH1 0x40 MLOAD PUSH1 0x1 PUSH1 0x1 PUSH1 0xE0 SHL SUB NOT PUSH1 0xE0 DUP6 SWAP1 SHL AND DUP2 MSTORE PUSH1 0x1 PUSH1 0x1 PUSH1 0xA0 SHL SUB SWAP1 SWAP3 AND PUSH1 0x4 DUP4 ADD MSTORE PUSH1 0x24 DUP3 ADD MSTORE PUSH1 0x0 PUSH1 0x44 DUP3 ADD MSTORE CALLER PUSH1 0x64 DUP3 ADD MSTORE PUSH1 0x84 DUP2 ADD DUP6 SWAP1 MSTORE PUSH1 0xA4 ADD PUSH1 0x0 PUSH1 0x40 MLOAD DUP1 DUP4 SUB DUP2 PUSH1 0x0 DUP8 DUP1 EXTCODESIZE ISZERO DUP1 ISZERO PUSH2 0x103A JUMPI PUSH1 0x0 DUP1 REVERT JUMPDEST POP GAS CALL ISZERO DUP1 ISZERO PUSH2 0x104E JUMPI RETURNDATASIZE PUSH1 0x0 DUP1 RETURNDATACOPY RETURNDATASIZE PUSH1 0x0 REVERT JUMPDEST POP POP POP POP PUSH1 0x40 MLOAD DUP1 PUSH1 0x80 ADD PUSH1 0x40 MSTORE DUP1 TIMESTAMP DUP2 MSTORE PUSH1 0x20 ADD DUP5 PUSH1 0x1 PUSH1 0x1 PUSH1 0xA0 SHL SUB AND DUP2 MSTORE PUSH1 0x20 ADD DUP4 DUP2 MSTORE PUSH1 0x20 ADD PUSH2 0x1084 PUSH2 0x387 PUSH1 0x9 SLOAD SWAP1 JUMP JUMPDEST PUSH1 0x1 PUSH1 0x1 PUSH1 0xA0 SHL SUB AND SWAP1 MSTORE PUSH1 0x10 PUSH1 0x0 PUSH2 0x109C PUSH1 0x9 SLOAD SWAP1 JUMP JUMPDEST DUP2 MSTORE PUSH1 0x20 DUP1 DUP3 ADD SWAP3 SWAP1 SWAP3 MSTORE PUSH1 0x40 SWAP1 DUP2 ADD PUSH1 0x0 KECCAK256 DUP4 MLOAD DUP2 SSTORE SWAP2 DUP4 ADD MLOAD PUSH1 0x1 DUP4 ADD DUP1 SLOAD PUSH1 0x1 PUSH1 0x1 PUSH1 0xA0 SHL SUB NOT SWAP1 DUP2 AND PUSH1 0x1 PUSH1 0x1 PUSH1 0xA0 SHL SUB SWAP4 DUP5 AND OR SWAP1 SWAP2 SSTORE DUP5 DUP4 ADD MLOAD PUSH1 0x2 DUP6 ADD SSTORE PUSH1 0x60 SWAP1 SWAP5 ADD MLOAD PUSH1 0x3 SWAP1 SWAP4 ADD DUP1 SLOAD SWAP1 SWAP5 AND SWAP3 AND SWAP2 SWAP1 SWAP2 OR SWAP1 SWAP2 SSTORE MLOAD PUSH1 0xF SWAP1 PUSH2 0x1109 SWAP1 DUP4 SWAP1 PUSH2 0x28A5 JUMP JUMPDEST SWAP1 DUP2 MSTORE PUSH1 0x40 MLOAD SWAP1 DUP2 SWAP1 SUB PUSH1 0x20 ADD SWAP1 KECCAK256 PUSH2 0x1121 PUSH1 0x9 SLOAD SWAP1 JUMP JUMPDEST DUP2 SLOAD PUSH1 0x1 DUP2 ADD DUP4 SSTORE PUSH1 0x0 SWAP3 DUP4 MSTORE PUSH1 0x20 SWAP3 DUP4 SWAP1 KECCAK256 ADD SSTORE PUSH1 0x40 DUP1 MLOAD SWAP2 DUP3 ADD SWAP1 MSTORE DUP1 PUSH2 0x1149 PUSH1 0x9 SLOAD SWAP1 JUMP JUMPDEST SWAP1 MSTORE CALLER PUSH1 0x0 SWAP1 DUP2 MSTORE PUSH1 0x13 PUSH1 0x20 MSTORE PUSH1 0x40 SWAP1 KECCAK256 SWAP1 MLOAD SWAP1 SSTORE PUSH32 0xCE6AA21CB694C41D8D6EF3C170FF341CACD0A4DE75CC9743BCF703A6D9EE128E PUSH2 0x1188 PUSH1 0x9 SLOAD SWAP1 JUMP JUMPDEST PUSH1 0x40 DUP1 MLOAD SWAP2 DUP3 MSTORE CALLER PUSH1 0x20 DUP4 ADD MSTORE TIMESTAMP SWAP1 DUP3 ADD MSTORE PUSH1 0x60 ADD PUSH1 0x40 MLOAD DUP1 SWAP2 SUB SWAP1 LOG1 POP POP POP POP JUMP JUMPDEST PUSH1 0x1 PUSH1 0x1 PUSH1 0xA0 SHL SUB DUP2 AND PUSH1 0x0 SWAP1 DUP2 MSTORE PUSH1 0xE PUSH1 0x20 MSTORE PUSH1 0x40 DUP2 KECCAK256 SLOAD PUSH1 0x60 SWAP2 SWAP1 PUSH8 0xFFFFFFFFFFFFFFFF DUP2 GT ISZERO PUSH2 0x11E0 JUMPI PUSH2 0x11E0 PUSH2 0x249B JUMP JUMPDEST PUSH1 0x40 MLOAD SWAP1 DUP1 DUP3 MSTORE DUP1 PUSH1 0x20 MUL PUSH1 0x20 ADD DUP3 ADD PUSH1 0x40 MSTORE DUP1 ISZERO PUSH2 0x1219 JUMPI DUP2 PUSH1 0x20 ADD JUMPDEST PUSH2 0x1206 PUSH2 0x223A JUMP JUMPDEST DUP2 MSTORE PUSH1 0x20 ADD SWAP1 PUSH1 0x1 SWAP1 SUB SWAP1 DUP2 PUSH2 0x11FE JUMPI SWAP1 POP JUMPDEST POP SWAP1 POP PUSH1 0x0 PUSH2 0x1278 PUSH1 0x40 MLOAD DUP1 PUSH1 0x40 ADD PUSH1 0x40 MSTORE DUP1 PUSH1 0x12 DUP2 MSTORE PUSH1 0x20 ADD PUSH18 0x21B7BAB73A103337B91030B2323932B9B99D PUSH1 0x71 SHL DUP2 MSTORE POP DUP6 PUSH1 0xE PUSH1 0x0 DUP9 PUSH1 0x1 PUSH1 0x1 PUSH1 0xA0 SHL SUB AND PUSH1 0x1 PUSH1 0x1 PUSH1 0xA0 SHL SUB AND DUP2 MSTORE PUSH1 0x20 ADD SWAP1 DUP2 MSTORE PUSH1 0x20 ADD PUSH1 0x0 KECCAK256 SLOAD PUSH2 0x1CE6 JUMP JUMPDEST PUSH1 0x1 PUSH1 0x1 PUSH1 0xA0 SHL SUB DUP5 AND PUSH1 0x0 SWAP1 DUP2 MSTORE PUSH1 0xE PUSH1 0x20 MSTORE PUSH1 0x40 DUP2 KECCAK256 SLOAD PUSH8 0xFFFFFFFFFFFFFFFF DUP2 GT ISZERO PUSH2 0x12A9 JUMPI PUSH2 0x12A9 PUSH2 0x249B JUMP JUMPDEST PUSH1 0x40 MLOAD SWAP1 DUP1 DUP3 MSTORE DUP1 PUSH1 0x20 MUL PUSH1 0x20 ADD DUP3 ADD PUSH1 0x40 MSTORE DUP1 ISZERO PUSH2 0x12D2 JUMPI DUP2 PUSH1 0x20 ADD PUSH1 0x20 DUP3 MUL DUP1 CALLDATASIZE DUP4 CALLDATACOPY ADD SWAP1 POP JUMPDEST POP SWAP1 POP PUSH1 0x0 DUP1 DUP1 JUMPDEST PUSH1 0x1 PUSH1 0x1 PUSH1 0xA0 SHL SUB DUP9 AND PUSH1 0x0 SWAP1 DUP2 MSTORE PUSH1 0xE PUSH1 0x20 MSTORE PUSH1 0x40 SWAP1 KECCAK256 SLOAD DUP2 LT ISZERO PUSH2 0x1421 JUMPI PUSH1 0x1 PUSH1 0x1 PUSH1 0xA0 SHL SUB DUP9 AND PUSH1 0x0 SWAP1 DUP2 MSTORE PUSH1 0xD PUSH1 0x20 MSTORE PUSH1 0x40 DUP2 KECCAK256 DUP2 PUSH2 0x131E DUP5 PUSH1 0x1 PUSH2 0x284C JUMP JUMPDEST DUP2 MSTORE PUSH1 0x20 ADD SWAP1 DUP2 MSTORE PUSH1 0x20 ADD PUSH1 0x0 KECCAK256 SLOAD SWAP1 POP PUSH2 0x1363 PUSH1 0x40 MLOAD DUP1 PUSH1 0x40 ADD PUSH1 0x40 MSTORE DUP1 PUSH1 0x12 DUP2 MSTORE PUSH1 0x20 ADD PUSH18 0x21B432B1B5B4B733902A37B5B2B71024A21D PUSH1 0x71 SHL DUP2 MSTORE POP DUP3 PUSH2 0x1D2D JUMP JUMPDEST PUSH1 0x0 SWAP3 POP PUSH1 0x0 JUMPDEST DUP5 DUP2 LT ISZERO PUSH2 0x13A3 JUMPI DUP2 DUP7 DUP3 DUP2 MLOAD DUP2 LT PUSH2 0x1385 JUMPI PUSH2 0x1385 PUSH2 0x285F JUMP JUMPDEST PUSH1 0x20 MUL PUSH1 0x20 ADD ADD MLOAD SUB PUSH2 0x139B JUMPI PUSH1 0x1 SWAP4 POP PUSH2 0x13A3 JUMP JUMPDEST PUSH1 0x1 ADD PUSH2 0x136A JUMP JUMPDEST POP DUP3 PUSH2 0x13D9 JUMPI DUP1 DUP6 DUP6 DUP2 MLOAD DUP2 LT PUSH2 0x13BC JUMPI PUSH2 0x13BC PUSH2 0x285F JUMP JUMPDEST PUSH1 0x20 SWAP1 DUP2 MUL SWAP2 SWAP1 SWAP2 ADD ADD MSTORE DUP4 PUSH2 0x13D1 DUP2 PUSH2 0x288C JUMP JUMPDEST SWAP5 POP POP PUSH2 0x1418 JUMP JUMPDEST PUSH2 0x1418 PUSH1 0x40 MLOAD DUP1 PUSH1 0x40 ADD PUSH1 0x40 MSTORE DUP1 PUSH1 0x1C DUP2 MSTORE PUSH1 0x20 ADD PUSH32 0x4475706C696361746520666F756E6420616E6420736B69707065643A00000000 DUP2 MSTORE POP DUP3 PUSH2 0x1D2D JUMP JUMPDEST POP PUSH1 0x1 ADD PUSH2 0x12DA JUMP JUMPDEST POP PUSH1 0x0 JUMPDEST DUP3 DUP2 LT ISZERO PUSH2 0x15C6 JUMPI PUSH1 0x0 DUP5 DUP3 DUP2 MLOAD DUP2 LT PUSH2 0x1441 JUMPI PUSH2 0x1441 PUSH2 0x285F JUMP JUMPDEST PUSH1 0x20 MUL PUSH1 0x20 ADD ADD MLOAD SWAP1 POP PUSH2 0x1481 PUSH1 0x40 MLOAD DUP1 PUSH1 0x40 ADD PUSH1 0x40 MSTORE DUP1 PUSH1 0x14 DUP2 MSTORE PUSH1 0x20 ADD PUSH20 0x283937B1B2B9B9B4B733902A37B5B2B71024A21D PUSH1 0x61 SHL DUP2 MSTORE POP DUP3 PUSH2 0x1D2D JUMP JUMPDEST DUP9 PUSH1 0x1 PUSH1 0x1 PUSH1 0xA0 SHL SUB AND PUSH2 0x1494 DUP3 PUSH2 0x810 JUMP JUMPDEST PUSH1 0x1 PUSH1 0x1 PUSH1 0xA0 SHL SUB AND SUB PUSH2 0x15BD JUMPI PUSH1 0x0 DUP2 DUP2 MSTORE PUSH1 0x10 PUSH1 0x20 SWAP1 DUP2 MSTORE PUSH1 0x40 SWAP2 DUP3 SWAP1 KECCAK256 DUP3 MLOAD PUSH1 0x80 DUP2 ADD DUP5 MSTORE DUP2 SLOAD DUP2 MSTORE PUSH1 0x1 DUP3 ADD SLOAD PUSH1 0x1 PUSH1 0x1 PUSH1 0xA0 SHL SUB SWAP1 DUP2 AND DUP3 DUP6 ADD MSTORE PUSH1 0x2 DUP4 ADD SLOAD DUP3 DUP7 ADD MSTORE PUSH1 0x3 SWAP1 SWAP3 ADD SLOAD SWAP1 SWAP2 AND PUSH1 0x60 DUP3 ADD MSTORE DUP3 MLOAD PUSH1 0xE0 DUP2 ADD DUP5 MSTORE DUP5 DUP2 MSTORE DUP2 MLOAD SWAP3 DUP2 ADD SWAP3 SWAP1 SWAP3 MSTORE SWAP2 DUP2 ADD PUSH2 0x150B DUP5 PUSH2 0x810 JUMP JUMPDEST PUSH1 0x1 PUSH1 0x1 PUSH1 0xA0 SHL SUB AND DUP2 MSTORE PUSH1 0x20 ADD ADDRESS PUSH1 0x1 PUSH1 0x1 PUSH1 0xA0 SHL SUB AND DUP2 MSTORE PUSH1 0x20 ADD DUP3 PUSH1 0x20 ADD MLOAD PUSH1 0x1 PUSH1 0x1 PUSH1 0xA0 SHL SUB AND DUP2 MSTORE PUSH1 0x20 ADD DUP3 PUSH1 0x40 ADD MLOAD DUP2 MSTORE PUSH1 0x20 ADD PUSH2 0x154E DUP5 PUSH2 0xF1E JUMP JUMPDEST DUP2 MSTORE POP DUP9 DUP9 DUP2 MLOAD DUP2 LT PUSH2 0x1563 JUMPI PUSH2 0x1563 PUSH2 0x285F JUMP JUMPDEST PUSH1 0x20 MUL PUSH1 0x20 ADD ADD DUP2 SWAP1 MSTORE POP DUP7 DUP1 PUSH2 0x1579 SWAP1 PUSH2 0x288C JUMP JUMPDEST SWAP8 POP POP PUSH2 0x15BB PUSH1 0x40 MLOAD DUP1 PUSH1 0x40 ADD PUSH1 0x40 MSTORE DUP1 PUSH1 0x1B DUP2 MSTORE PUSH1 0x20 ADD PUSH32 0x546F6B656E20616464656420746F20617272617920696E6465783A0000000000 DUP2 MSTORE POP DUP9 PUSH2 0x1D2D JUMP JUMPDEST POP JUMPDEST POP PUSH1 0x1 ADD PUSH2 0x1425 JUMP JUMPDEST POP POP POP SWAP1 DUP3 MSTORE POP SWAP3 SWAP2 POP POP JUMP JUMPDEST PUSH2 0x15DB PUSH2 0x194C JUMP JUMPDEST PUSH1 0x1 PUSH1 0x1 PUSH1 0xA0 SHL SUB DUP2 AND PUSH2 0x1640 JUMPI PUSH1 0x40 MLOAD PUSH3 0x461BCD PUSH1 0xE5 SHL DUP2 MSTORE PUSH1 0x20 PUSH1 0x4 DUP3 ADD MSTORE PUSH1 0x26 PUSH1 0x24 DUP3 ADD MSTORE PUSH32 0x4F776E61626C653A206E6577206F776E657220697320746865207A65726F2061 PUSH1 0x44 DUP3 ADD MSTORE PUSH6 0x646472657373 PUSH1 0xD0 SHL PUSH1 0x64 DUP3 ADD MSTORE PUSH1 0x84 ADD PUSH2 0x731 JUMP JUMPDEST PUSH2 0x1649 DUP2 PUSH2 0x19A6 JUMP JUMPDEST POP JUMP JUMPDEST PUSH1 0x0 PUSH1 0x1 PUSH1 0x1 PUSH1 0xE0 SHL SUB NOT DUP3 AND PUSH4 0x80AC58CD PUSH1 0xE0 SHL EQ DUP1 PUSH2 0x167D JUMPI POP PUSH1 0x1 PUSH1 0x1 PUSH1 0xE0 SHL SUB NOT DUP3 AND PUSH4 0x5B5E139F PUSH1 0xE0 SHL EQ JUMPDEST DUP1 PUSH2 0x5FE JUMPI POP PUSH4 0x1FFC9A7 PUSH1 0xE0 SHL PUSH1 0x1 PUSH1 0x1 PUSH1 0xE0 SHL SUB NOT DUP4 AND EQ PUSH2 0x5FE JUMP JUMPDEST PUSH1 0x0 DUP2 DUP2 MSTORE PUSH1 0x2 PUSH1 0x20 MSTORE PUSH1 0x40 SWAP1 KECCAK256 SLOAD PUSH1 0x1 PUSH1 0x1 PUSH1 0xA0 SHL SUB AND PUSH2 0x1649 JUMPI PUSH1 0x40 MLOAD PUSH3 0x461BCD PUSH1 0xE5 SHL DUP2 MSTORE PUSH1 0x20 PUSH1 0x4 DUP3 ADD MSTORE PUSH1 0x18 PUSH1 0x24 DUP3 ADD MSTORE PUSH24 0x115490CDCC8C4E881A5B9D985B1A59081D1BDAD95B881251 PUSH1 0x42 SHL PUSH1 0x44 DUP3 ADD MSTORE PUSH1 0x64 ADD PUSH2 0x731 JUMP JUMPDEST PUSH1 0x0 DUP2 DUP2 MSTORE PUSH1 0x4 PUSH1 0x20 MSTORE PUSH1 0x40 SWAP1 KECCAK256 DUP1 SLOAD PUSH1 0x1 PUSH1 0x1 PUSH1 0xA0 SHL SUB NOT AND PUSH1 0x1 PUSH1 0x1 PUSH1 0xA0 SHL SUB DUP5 AND SWAP1 DUP2 OR SWAP1 SWAP2 SSTORE DUP2 SWAP1 PUSH2 0x1730 DUP3 PUSH2 0x810 JUMP JUMPDEST PUSH1 0x1 PUSH1 0x1 PUSH1 0xA0 SHL SUB AND PUSH32 0x8C5BE1E5EBEC7D5BD14F71427D1E84F3DD0314C0F7B2291E5B200AC8C7C3B925 PUSH1 0x40 MLOAD PUSH1 0x40 MLOAD DUP1 SWAP2 SUB SWAP1 LOG4 POP POP JUMP JUMPDEST PUSH1 0x0 DUP1 PUSH2 0x1775 DUP4 PUSH2 0x810 JUMP JUMPDEST SWAP1 POP DUP1 PUSH1 0x1 PUSH1 0x1 PUSH1 0xA0 SHL SUB AND DUP5 PUSH1 0x1 PUSH1 0x1 PUSH1 0xA0 SHL SUB AND EQ DUP1 PUSH2 0x17BC JUMPI POP PUSH1 0x1 PUSH1 0x1 PUSH1 0xA0 SHL SUB DUP1 DUP3 AND PUSH1 0x0 SWAP1 DUP2 MSTORE PUSH1 0x5 PUSH1 0x20 SWAP1 DUP2 MSTORE PUSH1 0x40 DUP1 DUP4 KECCAK256 SWAP4 DUP9 AND DUP4 MSTORE SWAP3 SWAP1 MSTORE KECCAK256 SLOAD PUSH1 0xFF AND JUMPDEST DUP1 PUSH2 0x17E0 JUMPI POP DUP4 PUSH1 0x1 PUSH1 0x1 PUSH1 0xA0 SHL SUB AND PUSH2 0x17D5 DUP5 PUSH2 0x696 JUMP JUMPDEST PUSH1 0x1 PUSH1 0x1 PUSH1 0xA0 SHL SUB AND EQ JUMPDEST SWAP5 SWAP4 POP POP POP POP JUMP JUMPDEST DUP3 PUSH1 0x1 PUSH1 0x1 PUSH1 0xA0 SHL SUB AND PUSH2 0x17FB DUP3 PUSH2 0x810 JUMP JUMPDEST PUSH1 0x1 PUSH1 0x1 PUSH1 0xA0 SHL SUB AND EQ PUSH2 0x1821 JUMPI PUSH1 0x40 MLOAD PUSH3 0x461BCD PUSH1 0xE5 SHL DUP2 MSTORE PUSH1 0x4 ADD PUSH2 0x731 SWAP1 PUSH2 0x28C1 JUMP JUMPDEST PUSH1 0x1 PUSH1 0x1 PUSH1 0xA0 SHL SUB DUP3 AND PUSH2 0x1883 JUMPI PUSH1 0x40 MLOAD PUSH3 0x461BCD PUSH1 0xE5 SHL DUP2 MSTORE PUSH1 0x20 PUSH1 0x4 DUP3 ADD MSTORE PUSH1 0x24 DUP1 DUP3 ADD MSTORE PUSH32 0x4552433732313A207472616E7366657220746F20746865207A65726F20616464 PUSH1 0x44 DUP3 ADD MSTORE PUSH4 0x72657373 PUSH1 0xE0 SHL PUSH1 0x64 DUP3 ADD MSTORE PUSH1 0x84 ADD PUSH2 0x731 JUMP JUMPDEST DUP3 PUSH1 0x1 PUSH1 0x1 PUSH1 0xA0 SHL SUB AND PUSH2 0x1896 DUP3 PUSH2 0x810 JUMP JUMPDEST PUSH1 0x1 PUSH1 0x1 PUSH1 0xA0 SHL SUB AND EQ PUSH2 0x18BC JUMPI PUSH1 0x40 MLOAD PUSH3 0x461BCD PUSH1 0xE5 SHL DUP2 MSTORE PUSH1 0x4 ADD PUSH2 0x731 SWAP1 PUSH2 0x28C1 JUMP JUMPDEST PUSH1 0x0 DUP2 DUP2 MSTORE PUSH1 0x4 PUSH1 0x20 SWAP1 DUP2 MSTORE PUSH1 0x40 DUP1 DUP4 KECCAK256 DUP1 SLOAD PUSH1 0x1 PUSH1 0x1 PUSH1 0xA0 SHL SUB NOT SWAP1 DUP2 AND SWAP1 SWAP2 SSTORE PUSH1 0x1 PUSH1 0x1 PUSH1 0xA0 SHL SUB DUP8 DUP2 AND DUP1 DUP7 MSTORE PUSH1 0x3 DUP6 MSTORE DUP4 DUP7 KECCAK256 DUP1 SLOAD PUSH1 0x0 NOT ADD SWAP1 SSTORE SWAP1 DUP8 AND DUP1 DUP7 MSTORE DUP4 DUP7 KECCAK256 DUP1 SLOAD PUSH1 0x1 ADD SWAP1 SSTORE DUP7 DUP7 MSTORE PUSH1 0x2 SWAP1 SWAP5 MSTORE DUP3 DUP6 KECCAK256 DUP1 SLOAD SWAP1 SWAP3 AND DUP5 OR SWAP1 SWAP2 SSTORE SWAP1 MLOAD DUP5 SWAP4 PUSH32 0xDDF252AD1BE2C89B69C2B068FC378DAA952BA7F163C4A11628F55A4DF523B3EF SWAP2 LOG4 POP POP POP JUMP JUMPDEST PUSH1 0x7 SLOAD PUSH1 0x1 PUSH1 0x1 PUSH1 0xA0 SHL SUB AND CALLER EQ PUSH2 0xA53 JUMPI PUSH1 0x40 MLOAD PUSH3 0x461BCD PUSH1 0xE5 SHL DUP2 MSTORE PUSH1 0x20 PUSH1 0x4 DUP3 ADD DUP2 SWAP1 MSTORE PUSH1 0x24 DUP3 ADD MSTORE PUSH32 0x4F776E61626C653A2063616C6C6572206973206E6F7420746865206F776E6572 PUSH1 0x44 DUP3 ADD MSTORE PUSH1 0x64 ADD PUSH2 0x731 JUMP JUMPDEST PUSH1 0x7 DUP1 SLOAD PUSH1 0x1 PUSH1 0x1 PUSH1 0xA0 SHL SUB DUP4 DUP2 AND PUSH1 0x1 PUSH1 0x1 PUSH1 0xA0 SHL SUB NOT DUP4 AND DUP2 OR SWAP1 SWAP4 SSTORE PUSH1 0x40 MLOAD SWAP2 AND SWAP2 SWAP1 DUP3 SWAP1 PUSH32 0x8BE0079C531659141344CD1FD0A4F28419497F9722A3DAAFE3B4186F6B6457E0 SWAP1 PUSH1 0x0 SWAP1 LOG3 POP POP JUMP JUMPDEST DUP2 PUSH1 0x1 PUSH1 0x1 PUSH1 0xA0 SHL SUB AND DUP4 PUSH1 0x1 PUSH1 0x1 PUSH1 0xA0 SHL SUB AND SUB PUSH2 0x1A59 JUMPI PUSH1 0x40 MLOAD PUSH3 0x461BCD PUSH1 0xE5 SHL DUP2 MSTORE PUSH1 0x20 PUSH1 0x4 DUP3 ADD MSTORE PUSH1 0x19 PUSH1 0x24 DUP3 ADD MSTORE PUSH32 0x4552433732313A20617070726F766520746F2063616C6C657200000000000000 PUSH1 0x44 DUP3 ADD MSTORE PUSH1 0x64 ADD PUSH2 0x731 JUMP JUMPDEST PUSH1 0x1 PUSH1 0x1 PUSH1 0xA0 SHL SUB DUP4 DUP2 AND PUSH1 0x0 DUP2 DUP2 MSTORE PUSH1 0x5 PUSH1 0x20 SWAP1 DUP2 MSTORE PUSH1 0x40 DUP1 DUP4 KECCAK256 SWAP5 DUP8 AND DUP1 DUP5 MSTORE SWAP5 DUP3 MSTORE SWAP2 DUP3 SWAP1 KECCAK256 DUP1 SLOAD PUSH1 0xFF NOT AND DUP7 ISZERO ISZERO SWAP1 DUP2 OR SWAP1 SWAP2 SSTORE SWAP2 MLOAD SWAP2 DUP3 MSTORE PUSH32 0x17307EAB39AB6107E8899845AD3D59BD9653F200F220920489CA2B5937696C31 SWAP2 ADD PUSH1 0x40 MLOAD DUP1 SWAP2 SUB SWAP1 LOG3 POP POP POP JUMP JUMPDEST PUSH2 0x1AD1 DUP5 DUP5 DUP5 PUSH2 0x17E8 JUMP JUMPDEST PUSH2 0x1ADD DUP5 DUP5 DUP5 DUP5 PUSH2 0x1D72 JUMP JUMPDEST PUSH2 0xF18 JUMPI PUSH1 0x40 MLOAD PUSH3 0x461BCD PUSH1 0xE5 SHL DUP2 MSTORE PUSH1 0x4 ADD PUSH2 0x731 SWAP1 PUSH2 0x2906 JUMP JUMPDEST PUSH1 0x60 PUSH2 0x1B04 DUP3 PUSH2 0x169C JUMP JUMPDEST PUSH1 0x0 DUP3 DUP2 MSTORE PUSH1 0x6 PUSH1 0x20 MSTORE PUSH1 0x40 DUP2 KECCAK256 DUP1 SLOAD PUSH2 0x1B1D SWAP1 PUSH2 0x27AF JUMP JUMPDEST DUP1 PUSH1 0x1F ADD PUSH1 0x20 DUP1 SWAP2 DIV MUL PUSH1 0x20 ADD PUSH1 0x40 MLOAD SWAP1 DUP2 ADD PUSH1 0x40 MSTORE DUP1 SWAP3 SWAP2 SWAP1 DUP2 DUP2 MSTORE PUSH1 0x20 ADD DUP3 DUP1 SLOAD PUSH2 0x1B49 SWAP1 PUSH2 0x27AF JUMP JUMPDEST DUP1 ISZERO PUSH2 0x1B96 JUMPI DUP1 PUSH1 0x1F LT PUSH2 0x1B6B JUMPI PUSH2 0x100 DUP1 DUP4 SLOAD DIV MUL DUP4 MSTORE SWAP2 PUSH1 0x20 ADD SWAP2 PUSH2 0x1B96 JUMP JUMPDEST DUP3 ADD SWAP2 SWAP1 PUSH1 0x0 MSTORE PUSH1 0x20 PUSH1 0x0 KECCAK256 SWAP1 JUMPDEST DUP2 SLOAD DUP2 MSTORE SWAP1 PUSH1 0x1 ADD SWAP1 PUSH1 0x20 ADD DUP1 DUP4 GT PUSH2 0x1B79 JUMPI DUP3 SWAP1 SUB PUSH1 0x1F AND DUP3 ADD SWAP2 JUMPDEST POP POP POP POP POP SWAP1 POP PUSH1 0x0 PUSH2 0x1BB4 PUSH1 0x40 DUP1 MLOAD PUSH1 0x20 DUP2 ADD SWAP1 SWAP2 MSTORE PUSH1 0x0 DUP2 MSTORE SWAP1 JUMP JUMPDEST SWAP1 POP DUP1 MLOAD PUSH1 0x0 SUB PUSH2 0x1BC6 JUMPI POP SWAP3 SWAP2 POP POP JUMP JUMPDEST DUP2 MLOAD ISZERO PUSH2 0x1BF8 JUMPI DUP1 DUP3 PUSH1 0x40 MLOAD PUSH1 0x20 ADD PUSH2 0x1BE0 SWAP3 SWAP2 SWAP1 PUSH2 0x2958 JUMP JUMPDEST PUSH1 0x40 MLOAD PUSH1 0x20 DUP2 DUP4 SUB SUB DUP2 MSTORE SWAP1 PUSH1 0x40 MSTORE SWAP3 POP POP POP SWAP2 SWAP1 POP JUMP JUMPDEST PUSH2 0x17E0 DUP5 PUSH2 0x1E73 JUMP JUMPDEST PUSH2 0xB85 DUP3 DUP3 PUSH1 0x40 MLOAD DUP1 PUSH1 0x20 ADD PUSH1 0x40 MSTORE DUP1 PUSH1 0x0 DUP2 MSTORE POP PUSH2 0x1EE7 JUMP JUMPDEST PUSH1 0x0 DUP3 DUP2 MSTORE PUSH1 0x2 PUSH1 0x20 MSTORE PUSH1 0x40 SWAP1 KECCAK256 SLOAD PUSH1 0x1 PUSH1 0x1 PUSH1 0xA0 SHL SUB AND PUSH2 0x1C96 JUMPI PUSH1 0x40 MLOAD PUSH3 0x461BCD PUSH1 0xE5 SHL DUP2 MSTORE PUSH1 0x20 PUSH1 0x4 DUP3 ADD MSTORE PUSH1 0x2E PUSH1 0x24 DUP3 ADD MSTORE PUSH32 0x45524337323155524953746F726167653A2055524920736574206F66206E6F6E PUSH1 0x44 DUP3 ADD MSTORE PUSH14 0x32BC34B9BA32B73A103A37B5B2B7 PUSH1 0x91 SHL PUSH1 0x64 DUP3 ADD MSTORE PUSH1 0x84 ADD PUSH2 0x731 JUMP JUMPDEST PUSH1 0x0 DUP3 DUP2 MSTORE PUSH1 0x6 PUSH1 0x20 MSTORE PUSH1 0x40 SWAP1 KECCAK256 PUSH2 0x1CAE DUP3 DUP3 PUSH2 0x29D5 JUMP JUMPDEST POP PUSH1 0x40 MLOAD DUP3 DUP2 MSTORE PUSH32 0xF8E1A15ABA9398E019F0B49DF1A4FDE98EE17AE345CB5F6B5E2C27F5033E8CE7 SWAP1 PUSH1 0x20 ADD PUSH1 0x40 MLOAD DUP1 SWAP2 SUB SWAP1 LOG1 POP POP JUMP JUMPDEST PUSH2 0x744 DUP4 DUP4 DUP4 PUSH1 0x40 MLOAD PUSH1 0x24 ADD PUSH2 0x1CFE SWAP4 SWAP3 SWAP2 SWAP1 PUSH2 0x2A94 JUMP JUMPDEST PUSH1 0x40 DUP1 MLOAD PUSH1 0x1F NOT DUP2 DUP5 SUB ADD DUP2 MSTORE SWAP2 SWAP1 MSTORE PUSH1 0x20 DUP2 ADD DUP1 MLOAD PUSH1 0x1 PUSH1 0x1 PUSH1 0xE0 SHL SUB AND PUSH4 0xD26B925 PUSH1 0xE0 SHL OR SWAP1 MSTORE PUSH2 0x1F1A JUMP JUMPDEST PUSH2 0xB85 DUP3 DUP3 PUSH1 0x40 MLOAD PUSH1 0x24 ADD PUSH2 0x1D43 SWAP3 SWAP2 SWAP1 PUSH2 0x2AC2 JUMP JUMPDEST PUSH1 0x40 DUP1 MLOAD PUSH1 0x1F NOT DUP2 DUP5 SUB ADD DUP2 MSTORE SWAP2 SWAP1 MSTORE PUSH1 0x20 DUP2 ADD DUP1 MLOAD PUSH1 0x1 PUSH1 0x1 PUSH1 0xE0 SHL SUB AND PUSH4 0x2D839CB3 PUSH1 0xE2 SHL OR SWAP1 MSTORE PUSH2 0x1F1A JUMP JUMPDEST PUSH1 0x0 PUSH1 0x1 PUSH1 0x1 PUSH1 0xA0 SHL SUB DUP5 AND EXTCODESIZE ISZERO PUSH2 0x1E68 JUMPI PUSH1 0x40 MLOAD PUSH4 0xA85BD01 PUSH1 0xE1 SHL DUP2 MSTORE PUSH1 0x1 PUSH1 0x1 PUSH1 0xA0 SHL SUB DUP6 AND SWAP1 PUSH4 0x150B7A02 SWAP1 PUSH2 0x1DB6 SWAP1 CALLER SWAP1 DUP10 SWAP1 DUP9 SWAP1 DUP9 SWAP1 PUSH1 0x4 ADD PUSH2 0x2AE4 JUMP JUMPDEST PUSH1 0x20 PUSH1 0x40 MLOAD DUP1 DUP4 SUB DUP2 PUSH1 0x0 DUP8 GAS CALL SWAP3 POP POP POP DUP1 ISZERO PUSH2 0x1DF1 JUMPI POP PUSH1 0x40 DUP1 MLOAD PUSH1 0x1F RETURNDATASIZE SWAP1 DUP2 ADD PUSH1 0x1F NOT AND DUP3 ADD SWAP1 SWAP3 MSTORE PUSH2 0x1DEE SWAP2 DUP2 ADD SWAP1 PUSH2 0x2B17 JUMP JUMPDEST PUSH1 0x1 JUMPDEST PUSH2 0x1E4E JUMPI RETURNDATASIZE DUP1 DUP1 ISZERO PUSH2 0x1E1F JUMPI PUSH1 0x40 MLOAD SWAP2 POP PUSH1 0x1F NOT PUSH1 0x3F RETURNDATASIZE ADD AND DUP3 ADD PUSH1 0x40 MSTORE RETURNDATASIZE DUP3 MSTORE RETURNDATASIZE PUSH1 0x0 PUSH1 0x20 DUP5 ADD RETURNDATACOPY PUSH2 0x1E24 JUMP JUMPDEST PUSH1 0x60 SWAP2 POP JUMPDEST POP DUP1 MLOAD PUSH1 0x0 SUB PUSH2 0x1E46 JUMPI PUSH1 0x40 MLOAD PUSH3 0x461BCD PUSH1 0xE5 SHL DUP2 MSTORE PUSH1 0x4 ADD PUSH2 0x731 SWAP1 PUSH2 0x2906 JUMP JUMPDEST DUP1 MLOAD DUP2 PUSH1 0x20 ADD REVERT JUMPDEST PUSH1 0x1 PUSH1 0x1 PUSH1 0xE0 SHL SUB NOT AND PUSH4 0xA85BD01 PUSH1 0xE1 SHL EQ SWAP1 POP PUSH2 0x17E0 JUMP JUMPDEST POP PUSH1 0x1 SWAP5 SWAP4 POP POP POP POP JUMP JUMPDEST PUSH1 0x60 PUSH2 0x1E7E DUP3 PUSH2 0x169C JUMP JUMPDEST PUSH1 0x0 PUSH2 0x1E95 PUSH1 0x40 DUP1 MLOAD PUSH1 0x20 DUP2 ADD SWAP1 SWAP2 MSTORE PUSH1 0x0 DUP2 MSTORE SWAP1 JUMP JUMPDEST SWAP1 POP PUSH1 0x0 DUP2 MLOAD GT PUSH2 0x1EB5 JUMPI PUSH1 0x40 MLOAD DUP1 PUSH1 0x20 ADD PUSH1 0x40 MSTORE DUP1 PUSH1 0x0 DUP2 MSTORE POP PUSH2 0x1EE0 JUMP JUMPDEST DUP1 PUSH2 0x1EBF DUP5 PUSH2 0x1F23 JUMP JUMPDEST PUSH1 0x40 MLOAD PUSH1 0x20 ADD PUSH2 0x1ED0 SWAP3 SWAP2 SWAP1 PUSH2 0x2958 JUMP JUMPDEST PUSH1 0x40 MLOAD PUSH1 0x20 DUP2 DUP4 SUB SUB DUP2 MSTORE SWAP1 PUSH1 0x40 MSTORE JUMPDEST SWAP4 SWAP3 POP POP POP JUMP JUMPDEST PUSH2 0x1EF1 DUP4 DUP4 PUSH2 0x1FB6 JUMP JUMPDEST PUSH2 0x1EFE PUSH1 0x0 DUP5 DUP5 DUP5 PUSH2 0x1D72 JUMP JUMPDEST PUSH2 0x744 JUMPI PUSH1 0x40 MLOAD PUSH3 0x461BCD PUSH1 0xE5 SHL DUP2 MSTORE PUSH1 0x4 ADD PUSH2 0x731 SWAP1 PUSH2 0x2906 JUMP JUMPDEST PUSH2 0x1649 DUP2 PUSH2 0x2141 JUMP JUMPDEST PUSH1 0x60 PUSH1 0x0 PUSH2 0x1F30 DUP4 PUSH2 0x2162 JUMP JUMPDEST PUSH1 0x1 ADD SWAP1 POP PUSH1 0x0 DUP2 PUSH8 0xFFFFFFFFFFFFFFFF DUP2 GT ISZERO PUSH2 0x1F50 JUMPI PUSH2 0x1F50 PUSH2 0x249B JUMP JUMPDEST PUSH1 0x40 MLOAD SWAP1 DUP1 DUP3 MSTORE DUP1 PUSH1 0x1F ADD PUSH1 0x1F NOT AND PUSH1 0x20 ADD DUP3 ADD PUSH1 0x40 MSTORE DUP1 ISZERO PUSH2 0x1F7A JUMPI PUSH1 0x20 DUP3 ADD DUP2 DUP1 CALLDATASIZE DUP4 CALLDATACOPY ADD SWAP1 POP JUMPDEST POP SWAP1 POP DUP2 DUP2 ADD PUSH1 0x20 ADD JUMPDEST PUSH1 0x0 NOT ADD PUSH16 0x181899199A1A9B1B9C1CB0B131B232B3 PUSH1 0x81 SHL PUSH1 0xA DUP7 MOD BYTE DUP2 MSTORE8 PUSH1 0xA DUP6 DIV SWAP5 POP DUP5 PUSH2 0x1F84 JUMPI POP SWAP4 SWAP3 POP POP POP JUMP JUMPDEST PUSH1 0x1 PUSH1 0x1 PUSH1 0xA0 SHL SUB DUP3 AND PUSH2 0x200C JUMPI PUSH1 0x40 MLOAD PUSH3 0x461BCD PUSH1 0xE5 SHL DUP2 MSTORE PUSH1 0x20 PUSH1 0x4 DUP3 ADD DUP2 SWAP1 MSTORE PUSH1 0x24 DUP3 ADD MSTORE PUSH32 0x4552433732313A206D696E7420746F20746865207A65726F2061646472657373 PUSH1 0x44 DUP3 ADD MSTORE PUSH1 0x64 ADD PUSH2 0x731 JUMP JUMPDEST PUSH1 0x0 DUP2 DUP2 MSTORE PUSH1 0x2 PUSH1 0x20 MSTORE PUSH1 0x40 SWAP1 KECCAK256 SLOAD PUSH1 0x1 PUSH1 0x1 PUSH1 0xA0 SHL SUB AND ISZERO PUSH2 0x2071 JUMPI PUSH1 0x40 MLOAD PUSH3 0x461BCD PUSH1 0xE5 SHL DUP2 MSTORE PUSH1 0x20 PUSH1 0x4 DUP3 ADD MSTORE PUSH1 0x1C PUSH1 0x24 DUP3 ADD MSTORE PUSH32 0x4552433732313A20746F6B656E20616C7265616479206D696E74656400000000 PUSH1 0x44 DUP3 ADD MSTORE PUSH1 0x64 ADD PUSH2 0x731 JUMP JUMPDEST PUSH1 0x0 DUP2 DUP2 MSTORE PUSH1 0x2 PUSH1 0x20 MSTORE PUSH1 0x40 SWAP1 KECCAK256 SLOAD PUSH1 0x1 PUSH1 0x1 PUSH1 0xA0 SHL SUB AND ISZERO PUSH2 0x20D6 JUMPI PUSH1 0x40 MLOAD PUSH3 0x461BCD PUSH1 0xE5 SHL DUP2 MSTORE PUSH1 0x20 PUSH1 0x4 DUP3 ADD MSTORE PUSH1 0x1C PUSH1 0x24 DUP3 ADD MSTORE PUSH32 0x4552433732313A20746F6B656E20616C7265616479206D696E74656400000000 PUSH1 0x44 DUP3 ADD MSTORE PUSH1 0x64 ADD PUSH2 0x731 JUMP JUMPDEST PUSH1 0x1 PUSH1 0x1 PUSH1 0xA0 SHL SUB DUP3 AND PUSH1 0x0 DUP2 DUP2 MSTORE PUSH1 0x3 PUSH1 0x20 SWAP1 DUP2 MSTORE PUSH1 0x40 DUP1 DUP4 KECCAK256 DUP1 SLOAD PUSH1 0x1 ADD SWAP1 SSTORE DUP5 DUP4 MSTORE PUSH1 0x2 SWAP1 SWAP2 MSTORE DUP1 DUP3 KECCAK256 DUP1 SLOAD PUSH1 0x1 PUSH1 0x1 PUSH1 0xA0 SHL SUB NOT AND DUP5 OR SWAP1 SSTORE MLOAD DUP4 SWAP3 SWAP2 SWAP1 PUSH32 0xDDF252AD1BE2C89B69C2B068FC378DAA952BA7F163C4A11628F55A4DF523B3EF SWAP1 DUP3 SWAP1 LOG4 POP POP JUMP JUMPDEST PUSH1 0x0 PUSH11 0x636F6E736F6C652E6C6F67 SWAP1 POP PUSH1 0x0 DUP1 DUP4 MLOAD PUSH1 0x20 DUP6 ADD DUP5 GAS STATICCALL POP POP POP JUMP JUMPDEST PUSH1 0x0 DUP1 PUSH19 0x184F03E93FF9F4DAA797ED6E38ED64BF6A1F01 PUSH1 0x40 SHL DUP4 LT PUSH2 0x21A1 JUMPI PUSH19 0x184F03E93FF9F4DAA797ED6E38ED64BF6A1F01 PUSH1 0x40 SHL DUP4 DIV SWAP3 POP PUSH1 0x40 ADD JUMPDEST PUSH14 0x4EE2D6D415B85ACEF8100000000 DUP4 LT PUSH2 0x21CD JUMPI PUSH14 0x4EE2D6D415B85ACEF8100000000 DUP4 DIV SWAP3 POP PUSH1 0x20 ADD JUMPDEST PUSH7 0x2386F26FC10000 DUP4 LT PUSH2 0x21EB JUMPI PUSH7 0x2386F26FC10000 DUP4 DIV SWAP3 POP PUSH1 0x10 ADD JUMPDEST PUSH4 0x5F5E100 DUP4 LT PUSH2 0x2203 JUMPI PUSH4 0x5F5E100 DUP4 DIV SWAP3 POP PUSH1 0x8 ADD JUMPDEST PUSH2 0x2710 DUP4 LT PUSH2 0x2217 JUMPI PUSH2 0x2710 DUP4 DIV SWAP3 POP PUSH1 0x4 ADD JUMPDEST PUSH1 0x64 DUP4 LT PUSH2 0x2229 JUMPI PUSH1 0x64 DUP4 DIV SWAP3 POP PUSH1 0x2 ADD JUMPDEST PUSH1 0xA DUP4 LT PUSH2 0x5FE JUMPI PUSH1 0x1 ADD SWAP3 SWAP2 POP POP JUMP JUMPDEST PUSH1 0x40 MLOAD DUP1 PUSH1 0xE0 ADD PUSH1 0x40 MSTORE DUP1 PUSH1 0x0 DUP2 MSTORE PUSH1 0x20 ADD PUSH1 0x0 DUP2 MSTORE PUSH1 0x20 ADD PUSH1 0x0 PUSH1 0x1 PUSH1 0x1 PUSH1 0xA0 SHL SUB AND DUP2 MSTORE PUSH1 0x20 ADD PUSH1 0x0 PUSH1 0x1 PUSH1 0x1 PUSH1 0xA0 SHL SUB AND DUP2 MSTORE PUSH1 0x20 ADD PUSH1 0x0 PUSH1 0x1 PUSH1 0x1 PUSH1 0xA0 SHL SUB AND DUP2 MSTORE PUSH1 0x20 ADD PUSH1 0x0 DUP2 MSTORE PUSH1 0x20 ADD PUSH1 0x60 DUP2 MSTORE POP SWAP1 JUMP JUMPDEST PUSH1 0x1 PUSH1 0x1 PUSH1 0xE0 SHL SUB NOT DUP2 AND DUP2 EQ PUSH2 0x1649 JUMPI PUSH1 0x0 DUP1 REVERT JUMPDEST PUSH1 0x0 PUSH1 0x20 DUP3 DUP5 SUB SLT ISZERO PUSH2 0x22BA JUMPI PUSH1 0x0 DUP1 REVERT JUMPDEST DUP2 CALLDATALOAD PUSH2 0x1EE0 DUP2 PUSH2 0x2292 JUMP JUMPDEST DUP1 CALLDATALOAD PUSH1 0x1 PUSH1 0x1 PUSH1 0xA0 SHL SUB DUP2 AND DUP2 EQ PUSH2 0x22DC JUMPI PUSH1 0x0 DUP1 REVERT JUMPDEST SWAP2 SWAP1 POP JUMP JUMPDEST PUSH1 0x0 PUSH1 0x20 DUP3 DUP5 SUB SLT ISZERO PUSH2 0x22F3 JUMPI PUSH1 0x0 DUP1 REVERT JUMPDEST PUSH2 0x1EE0 DUP3 PUSH2 0x22C5 JUMP JUMPDEST PUSH1 0x0 JUMPDEST DUP4 DUP2 LT ISZERO PUSH2 0x2317 JUMPI DUP2 DUP2 ADD MLOAD DUP4 DUP3 ADD MSTORE PUSH1 0x20 ADD PUSH2 0x22FF JUMP JUMPDEST POP POP PUSH1 0x0 SWAP2 ADD MSTORE JUMP JUMPDEST PUSH1 0x0 DUP2 MLOAD DUP1 DUP5 MSTORE PUSH2 0x2338 DUP2 PUSH1 0x20 DUP7 ADD PUSH1 0x20 DUP7 ADD PUSH2 0x22FC JUMP JUMPDEST PUSH1 0x1F ADD PUSH1 0x1F NOT AND SWAP3 SWAP1 SWAP3 ADD PUSH1 0x20 ADD SWAP3 SWAP2 POP POP JUMP JUMPDEST PUSH1 0x20 DUP2 MSTORE PUSH1 0x0 PUSH2 0x1EE0 PUSH1 0x20 DUP4 ADD DUP5 PUSH2 0x2320 JUMP JUMPDEST PUSH1 0x0 PUSH1 0x20 DUP3 DUP5 SUB SLT ISZERO PUSH2 0x2371 JUMPI PUSH1 0x0 DUP1 REVERT JUMPDEST POP CALLDATALOAD SWAP2 SWAP1 POP JUMP JUMPDEST PUSH1 0x0 DUP1 PUSH1 0x40 DUP4 DUP6 SUB SLT ISZERO PUSH2 0x238B JUMPI PUSH1 0x0 DUP1 REVERT JUMPDEST PUSH2 0x2394 DUP4 PUSH2 0x22C5 JUMP JUMPDEST SWAP5 PUSH1 0x20 SWAP4 SWAP1 SWAP4 ADD CALLDATALOAD SWAP4 POP POP POP JUMP JUMPDEST PUSH1 0x0 DUP1 PUSH1 0x0 PUSH1 0x60 DUP5 DUP7 SUB SLT ISZERO PUSH2 0x23B7 JUMPI PUSH1 0x0 DUP1 REVERT JUMPDEST PUSH2 0x23C0 DUP5 PUSH2 0x22C5 JUMP JUMPDEST SWAP3 POP PUSH2 0x23CE PUSH1 0x20 DUP6 ADD PUSH2 0x22C5 JUMP JUMPDEST SWAP3 SWAP6 SWAP3 SWAP5 POP POP POP PUSH1 0x40 SWAP2 SWAP1 SWAP2 ADD CALLDATALOAD SWAP1 JUMP JUMPDEST PUSH1 0x0 DUP1 PUSH1 0x0 PUSH1 0x60 DUP5 DUP7 SUB SLT ISZERO PUSH2 0x23F4 JUMPI PUSH1 0x0 DUP1 REVERT JUMPDEST PUSH2 0x23FD DUP5 PUSH2 0x22C5 JUMP JUMPDEST SWAP3 POP PUSH1 0x20 DUP5 ADD CALLDATALOAD SWAP2 POP PUSH2 0x2412 PUSH1 0x40 DUP6 ADD PUSH2 0x22C5 JUMP JUMPDEST SWAP1 POP SWAP3 POP SWAP3 POP SWAP3 JUMP JUMPDEST PUSH1 0x20 DUP1 DUP3 MSTORE DUP3 MLOAD DUP3 DUP3 ADD DUP2 SWAP1 MSTORE PUSH1 0x0 SWAP2 DUP5 ADD SWAP1 PUSH1 0x40 DUP5 ADD SWAP1 DUP4 JUMPDEST DUP2 DUP2 LT ISZERO PUSH2 0x2454 JUMPI DUP4 MLOAD MLOAD DUP4 MSTORE PUSH1 0x20 SWAP4 DUP5 ADD SWAP4 SWAP1 SWAP3 ADD SWAP2 PUSH1 0x1 ADD PUSH2 0x2435 JUMP JUMPDEST POP SWAP1 SWAP6 SWAP5 POP POP POP POP POP JUMP JUMPDEST PUSH1 0x0 DUP1 PUSH1 0x40 DUP4 DUP6 SUB SLT ISZERO PUSH2 0x2472 JUMPI PUSH1 0x0 DUP1 REVERT JUMPDEST PUSH2 0x247B DUP4 PUSH2 0x22C5 JUMP JUMPDEST SWAP2 POP PUSH1 0x20 DUP4 ADD CALLDATALOAD DUP1 ISZERO ISZERO DUP2 EQ PUSH2 0x2490 JUMPI PUSH1 0x0 DUP1 REVERT JUMPDEST DUP1 SWAP2 POP POP SWAP3 POP SWAP3 SWAP1 POP JUMP JUMPDEST PUSH4 0x4E487B71 PUSH1 0xE0 SHL PUSH1 0x0 MSTORE PUSH1 0x41 PUSH1 0x4 MSTORE PUSH1 0x24 PUSH1 0x0 REVERT JUMPDEST PUSH1 0x0 DUP1 PUSH8 0xFFFFFFFFFFFFFFFF DUP5 GT ISZERO PUSH2 0x24CC JUMPI PUSH2 0x24CC PUSH2 0x249B JUMP JUMPDEST POP PUSH1 0x40 MLOAD PUSH1 0x1F NOT PUSH1 0x1F DUP6 ADD DUP2 AND PUSH1 0x3F ADD AND DUP2 ADD DUP2 DUP2 LT PUSH8 0xFFFFFFFFFFFFFFFF DUP3 GT OR ISZERO PUSH2 0x24FB JUMPI PUSH2 0x24FB PUSH2 0x249B JUMP JUMPDEST PUSH1 0x40 MSTORE DUP4 DUP2 MSTORE SWAP1 POP DUP1 DUP3 DUP5 ADD DUP6 LT ISZERO PUSH2 0x2513 JUMPI PUSH1 0x0 DUP1 REVERT JUMPDEST DUP4 DUP4 PUSH1 0x20 DUP4 ADD CALLDATACOPY PUSH1 0x0 PUSH1 0x20 DUP6 DUP4 ADD ADD MSTORE POP SWAP4 SWAP3 POP POP POP JUMP JUMPDEST PUSH1 0x0 DUP3 PUSH1 0x1F DUP4 ADD SLT PUSH2 0x253C JUMPI PUSH1 0x0 DUP1 REVERT JUMPDEST PUSH2 0x1EE0 DUP4 DUP4 CALLDATALOAD PUSH1 0x20 DUP6 ADD PUSH2 0x24B1 JUMP JUMPDEST PUSH1 0x0 PUSH1 0x20 DUP3 DUP5 SUB SLT ISZERO PUSH2 0x255D JUMPI PUSH1 0x0 DUP1 REVERT JUMPDEST DUP2 CALLDATALOAD PUSH8 0xFFFFFFFFFFFFFFFF DUP2 GT ISZERO PUSH2 0x2574 JUMPI PUSH1 0x0 DUP1 REVERT JUMPDEST PUSH2 0x17E0 DUP5 DUP3 DUP6 ADD PUSH2 0x252B JUMP JUMPDEST PUSH1 0x0 PUSH1 0x20 DUP3 ADD PUSH1 0x20 DUP4 MSTORE DUP1 DUP5 MLOAD DUP1 DUP4 MSTORE PUSH1 0x40 DUP6 ADD SWAP2 POP PUSH1 0x40 DUP2 PUSH1 0x5 SHL DUP7 ADD ADD SWAP3 POP PUSH1 0x20 DUP7 ADD PUSH1 0x0 JUMPDEST DUP3 DUP2 LT ISZERO PUSH2 0x263A JUMPI PUSH1 0x3F NOT DUP8 DUP7 SUB ADD DUP5 MSTORE DUP2 MLOAD DUP1 MLOAD DUP7 MSTORE PUSH1 0x20 DUP2 ADD MLOAD PUSH1 0x20 DUP8 ADD MSTORE PUSH1 0x1 DUP1 PUSH1 0xA0 SHL SUB PUSH1 0x40 DUP3 ADD MLOAD AND PUSH1 0x40 DUP8 ADD MSTORE PUSH1 0x1 DUP1 PUSH1 0xA0 SHL SUB PUSH1 0x60 DUP3 ADD MLOAD AND PUSH1 0x60 DUP8 ADD MSTORE PUSH1 0x1 DUP1 PUSH1 0xA0 SHL SUB PUSH1 0x80 DUP3 ADD MLOAD AND PUSH1 0x80 DUP8 ADD MSTORE PUSH1 0xA0 DUP2 ADD MLOAD PUSH1 0xA0 DUP8 ADD MSTORE PUSH1 0xC0 DUP2 ADD MLOAD SWAP1 POP PUSH1 0xE0 PUSH1 0xC0 DUP8 ADD MSTORE PUSH2 0x2624 PUSH1 0xE0 DUP8 ADD DUP3 PUSH2 0x2320 JUMP JUMPDEST SWAP6 POP POP PUSH1 0x20 SWAP4 DUP5 ADD SWAP4 SWAP2 SWAP1 SWAP2 ADD SWAP1 PUSH1 0x1 ADD PUSH2 0x25A8 JUMP JUMPDEST POP SWAP3 SWAP7 SWAP6 POP POP POP POP POP POP JUMP JUMPDEST PUSH1 0x60 DUP2 MSTORE PUSH1 0x0 PUSH2 0x2659 PUSH1 0x60 DUP4 ADD DUP7 PUSH2 0x2320 JUMP JUMPDEST DUP3 DUP2 SUB PUSH1 0x20 DUP5 ADD MSTORE PUSH2 0x266B DUP2 DUP7 PUSH2 0x2320 JUMP JUMPDEST SWAP1 POP DUP3 DUP2 SUB PUSH1 0x40 DUP5 ADD MSTORE PUSH2 0x267F DUP2 DUP6 PUSH2 0x2320 JUMP JUMPDEST SWAP7 SWAP6 POP POP POP POP POP POP JUMP JUMPDEST PUSH1 0x0 DUP1 PUSH1 0x0 DUP1 PUSH1 0x80 DUP6 DUP8 SUB SLT ISZERO PUSH2 0x269F JUMPI PUSH1 0x0 DUP1 REVERT JUMPDEST PUSH2 0x26A8 DUP6 PUSH2 0x22C5 JUMP JUMPDEST SWAP4 POP PUSH2 0x26B6 PUSH1 0x20 DUP7 ADD PUSH2 0x22C5 JUMP JUMPDEST SWAP3 POP PUSH1 0x40 DUP6 ADD CALLDATALOAD SWAP2 POP PUSH1 0x60 DUP6 ADD CALLDATALOAD PUSH8 0xFFFFFFFFFFFFFFFF DUP2 GT ISZERO PUSH2 0x26D9 JUMPI PUSH1 0x0 DUP1 REVERT JUMPDEST DUP6 ADD PUSH1 0x1F DUP2 ADD DUP8 SGT PUSH2 0x26EA JUMPI PUSH1 0x0 DUP1 REVERT JUMPDEST PUSH2 0x26F9 DUP8 DUP3 CALLDATALOAD PUSH1 0x20 DUP5 ADD PUSH2 0x24B1 JUMP JUMPDEST SWAP2 POP POP SWAP3 SWAP6 SWAP2 SWAP5 POP SWAP3 POP JUMP JUMPDEST PUSH1 0x0 DUP1 PUSH1 0x0 DUP1 PUSH1 0x80 DUP6 DUP8 SUB SLT ISZERO PUSH2 0x271B JUMPI PUSH1 0x0 DUP1 REVERT JUMPDEST DUP5 CALLDATALOAD PUSH8 0xFFFFFFFFFFFFFFFF DUP2 GT ISZERO PUSH2 0x2732 JUMPI PUSH1 0x0 DUP1 REVERT JUMPDEST PUSH2 0x273E DUP8 DUP3 DUP9 ADD PUSH2 0x252B JUMP JUMPDEST SWAP5 POP POP PUSH2 0x274D PUSH1 0x20 DUP7 ADD PUSH2 0x22C5 JUMP JUMPDEST SWAP3 POP PUSH1 0x40 DUP6 ADD CALLDATALOAD SWAP2 POP PUSH1 0x60 DUP6 ADD CALLDATALOAD PUSH8 0xFFFFFFFFFFFFFFFF DUP2 GT ISZERO PUSH2 0x2770 JUMPI PUSH1 0x0 DUP1 REVERT JUMPDEST PUSH2 0x26F9 DUP8 DUP3 DUP9 ADD PUSH2 0x252B JUMP JUMPDEST PUSH1 0x0 DUP1 PUSH1 0x40 DUP4 DUP6 SUB SLT ISZERO PUSH2 0x278F JUMPI PUSH1 0x0 DUP1 REVERT JUMPDEST PUSH2 0x2798 DUP4 PUSH2 0x22C5 JUMP JUMPDEST SWAP2 POP PUSH2 0x27A6 PUSH1 0x20 DUP5 ADD PUSH2 0x22C5 JUMP JUMPDEST SWAP1 POP SWAP3 POP SWAP3 SWAP1 POP JUMP JUMPDEST PUSH1 0x1 DUP2 DUP2 SHR SWAP1 DUP3 AND DUP1 PUSH2 0x27C3 JUMPI PUSH1 0x7F DUP3 AND SWAP2 POP JUMPDEST PUSH1 0x20 DUP3 LT DUP2 SUB PUSH2 0x27E3 JUMPI PUSH4 0x4E487B71 PUSH1 0xE0 SHL PUSH1 0x0 MSTORE PUSH1 0x22 PUSH1 0x4 MSTORE PUSH1 0x24 PUSH1 0x0 REVERT JUMPDEST POP SWAP2 SWAP1 POP JUMP JUMPDEST PUSH1 0x20 DUP1 DUP3 MSTORE PUSH1 0x2D SWAP1 DUP3 ADD MSTORE PUSH32 0x4552433732313A2063616C6C6572206973206E6F7420746F6B656E206F776E65 PUSH1 0x40 DUP3 ADD MSTORE PUSH13 0x1C881BDC88185C1C1C9BDD9959 PUSH1 0x9A SHL PUSH1 0x60 DUP3 ADD MSTORE PUSH1 0x80 ADD SWAP1 JUMP JUMPDEST PUSH4 0x4E487B71 PUSH1 0xE0 SHL PUSH1 0x0 MSTORE PUSH1 0x11 PUSH1 0x4 MSTORE PUSH1 0x24 PUSH1 0x0 REVERT JUMPDEST DUP1 DUP3 ADD DUP1 DUP3 GT ISZERO PUSH2 0x5FE JUMPI PUSH2 0x5FE PUSH2 0x2836 JUMP JUMPDEST PUSH4 0x4E487B71 PUSH1 0xE0 SHL PUSH1 0x0 MSTORE PUSH1 0x32 PUSH1 0x4 MSTORE PUSH1 0x24 PUSH1 0x0 REVERT JUMPDEST PUSH1 0x0 DUP2 PUSH2 0x2884 JUMPI PUSH2 0x2884 PUSH2 0x2836 JUMP JUMPDEST POP PUSH1 0x0 NOT ADD SWAP1 JUMP JUMPDEST PUSH1 0x0 PUSH1 0x1 DUP3 ADD PUSH2 0x289E JUMPI PUSH2 0x289E PUSH2 0x2836 JUMP JUMPDEST POP PUSH1 0x1 ADD SWAP1 JUMP JUMPDEST PUSH1 0x0 DUP3 MLOAD PUSH2 0x28B7 DUP2 DUP5 PUSH1 0x20 DUP8 ADD PUSH2 0x22FC JUMP JUMPDEST SWAP2 SWAP1 SWAP2 ADD SWAP3 SWAP2 POP POP JUMP JUMPDEST PUSH1 0x20 DUP1 DUP3 MSTORE PUSH1 0x25 SWAP1 DUP3 ADD MSTORE PUSH32 0x4552433732313A207472616E736665722066726F6D20696E636F727265637420 PUSH1 0x40 DUP3 ADD MSTORE PUSH5 0x37BBB732B9 PUSH1 0xD9 SHL PUSH1 0x60 DUP3 ADD MSTORE PUSH1 0x80 ADD SWAP1 JUMP JUMPDEST PUSH1 0x20 DUP1 DUP3 MSTORE PUSH1 0x32 SWAP1 DUP3 ADD MSTORE PUSH32 0x4552433732313A207472616E7366657220746F206E6F6E204552433732315265 PUSH1 0x40 DUP3 ADD MSTORE PUSH18 0x31B2B4BB32B91034B6B83632B6B2B73A32B9 PUSH1 0x71 SHL PUSH1 0x60 DUP3 ADD MSTORE PUSH1 0x80 ADD SWAP1 JUMP JUMPDEST PUSH1 0x0 DUP4 MLOAD PUSH2 0x296A DUP2 DUP5 PUSH1 0x20 DUP9 ADD PUSH2 0x22FC JUMP JUMPDEST DUP4 MLOAD SWAP1 DUP4 ADD SWAP1 PUSH2 0x297E DUP2 DUP4 PUSH1 0x20 DUP9 ADD PUSH2 0x22FC JUMP JUMPDEST ADD SWAP5 SWAP4 POP POP POP POP JUMP JUMPDEST PUSH1 0x1F DUP3 GT ISZERO PUSH2 0x744 JUMPI DUP1 PUSH1 0x0 MSTORE PUSH1 0x20 PUSH1 0x0 KECCAK256 PUSH1 0x1F DUP5 ADD PUSH1 0x5 SHR DUP2 ADD PUSH1 0x20 DUP6 LT ISZERO PUSH2 0x29AE JUMPI POP DUP1 JUMPDEST PUSH1 0x1F DUP5 ADD PUSH1 0x5 SHR DUP3 ADD SWAP2 POP JUMPDEST DUP2 DUP2 LT ISZERO PUSH2 0x29CE JUMPI PUSH1 0x0 DUP2 SSTORE PUSH1 0x1 ADD PUSH2 0x29BA JUMP JUMPDEST POP POP POP POP POP JUMP JUMPDEST DUP2 MLOAD PUSH8 0xFFFFFFFFFFFFFFFF DUP2 GT ISZERO PUSH2 0x29EF JUMPI PUSH2 0x29EF PUSH2 0x249B JUMP JUMPDEST PUSH2 0x2A03 DUP2 PUSH2 0x29FD DUP5 SLOAD PUSH2 0x27AF JUMP JUMPDEST DUP5 PUSH2 0x2987 JUMP JUMPDEST PUSH1 0x20 PUSH1 0x1F DUP3 GT PUSH1 0x1 DUP2 EQ PUSH2 0x2A37 JUMPI PUSH1 0x0 DUP4 ISZERO PUSH2 0x2A1F JUMPI POP DUP5 DUP3 ADD MLOAD JUMPDEST PUSH1 0x0 NOT PUSH1 0x3 DUP6 SWAP1 SHL SHR NOT AND PUSH1 0x1 DUP5 SWAP1 SHL OR DUP5 SSTORE PUSH2 0x29CE JUMP JUMPDEST PUSH1 0x0 DUP5 DUP2 MSTORE PUSH1 0x20 DUP2 KECCAK256 PUSH1 0x1F NOT DUP6 AND SWAP2 JUMPDEST DUP3 DUP2 LT ISZERO PUSH2 0x2A67 JUMPI DUP8 DUP6 ADD MLOAD DUP3 SSTORE PUSH1 0x20 SWAP5 DUP6 ADD SWAP5 PUSH1 0x1 SWAP1 SWAP3 ADD SWAP2 ADD PUSH2 0x2A47 JUMP JUMPDEST POP DUP5 DUP3 LT ISZERO PUSH2 0x2A85 JUMPI DUP7 DUP5 ADD MLOAD PUSH1 0x0 NOT PUSH1 0x3 DUP8 SWAP1 SHL PUSH1 0xF8 AND SHR NOT AND DUP2 SSTORE JUMPDEST POP POP POP POP PUSH1 0x1 SWAP1 DUP2 SHL ADD SWAP1 SSTORE POP JUMP JUMPDEST PUSH1 0x60 DUP2 MSTORE PUSH1 0x0 PUSH2 0x2AA7 PUSH1 0x60 DUP4 ADD DUP7 PUSH2 0x2320 JUMP JUMPDEST PUSH1 0x1 PUSH1 0x1 PUSH1 0xA0 SHL SUB SWAP5 SWAP1 SWAP5 AND PUSH1 0x20 DUP4 ADD MSTORE POP PUSH1 0x40 ADD MSTORE SWAP2 SWAP1 POP JUMP JUMPDEST PUSH1 0x40 DUP2 MSTORE PUSH1 0x0 PUSH2 0x2AD5 PUSH1 0x40 DUP4 ADD DUP6 PUSH2 0x2320 JUMP JUMPDEST SWAP1 POP DUP3 PUSH1 0x20 DUP4 ADD MSTORE SWAP4 SWAP3 POP POP POP JUMP JUMPDEST PUSH1 0x1 PUSH1 0x1 PUSH1 0xA0 SHL SUB DUP6 DUP2 AND DUP3 MSTORE DUP5 AND PUSH1 0x20 DUP3 ADD MSTORE PUSH1 0x40 DUP2 ADD DUP4 SWAP1 MSTORE PUSH1 0x80 PUSH1 0x60 DUP3 ADD DUP2 SWAP1 MSTORE PUSH1 0x0 SWAP1 PUSH2 0x267F SWAP1 DUP4 ADD DUP5 PUSH2 0x2320 JUMP JUMPDEST PUSH1 0x0 PUSH1 0x20 DUP3 DUP5 SUB SLT ISZERO PUSH2 0x2B29 JUMPI PUSH1 0x0 DUP1 REVERT JUMPDEST DUP2 MLOAD PUSH2 0x1EE0 DUP2 PUSH2 0x2292 JUMP INVALID LOG2 PUSH5 0x6970667358 0x22 SLT KECCAK256 MULMOD PUSH0 GT SWAP16 PUSH12 0x7378DF193AF1550218CD02BE 0xF6 SHR TLOAD CALLVALUE PUSH19 0xC80AF7AEC68030C5C23264736F6C634300081A STOP CALLER "
		},
		"gasEstimates": {
			"creation": {
				"codeDepositCost": "2222800",
				"executionCost": "infinite",
				"totalCost": "infinite"
			},
			"external": {
				"NFTMetadata(uint256)": "8939",
				"TokenId(address,uint256)": "2657",
				"_tokenIdCounter()": "2344",
				"adminAddress()": "2469",
				"approve(address,uint256)": "infinite",
				"balanceOf(address)": "2678",
				"contractBalance()": "284",
				"count(address)": "2588",
				"getApproved(uint256)": "4837",
				"getColletionDetails()": "infinite",
				"getOwner(address)": "2629",
				"getTokenId(address)": "infinite",
				"getTokenId_W_R_T_A(address)": "infinite",
				"getTokenIdsByCollection(string)": "infinite",
				"getTokenUri(uint256)": "infinite",
				"isApprovedForAll(address,address)": "infinite",
				"marketplaceAddress()": "2426",
				"name()": "infinite",
				"owner()": "2443",
				"ownerOf(uint256)": "2650",
				"processedTokenIds(uint256)": "2507",
				"renounceOwnership()": "infinite",
				"safeMint(string,address,uint256,string)": "infinite",
				"safeTransferFrom(address,address,uint256)": "infinite",
				"safeTransferFrom(address,address,uint256,bytes)": "infinite",
				"setAdminAddress(address)": "26757",
				"setApprovalForAll(address,bool)": "26772",
				"supportsInterface(bytes4)": "infinite",
				"symbol()": "infinite",
				"tokenURI(uint256)": "infinite",
				"transferFrom(address,address,uint256)": "infinite",
				"transferOwnership(address)": "28424",
				"updateTokenId(address,uint256,address)": "infinite",
				"update_TokenIdTime(uint256)": "22473",
				"userTransferRecievedCount(address)": "2624"
			},
			"internal": {
				"_burn(uint256)": "infinite"
			}
		},
		"methodIdentifiers": {
			"NFTMetadata(uint256)": "6d9439c5",
			"TokenId(address,uint256)": "8df9612b",
			"_tokenIdCounter()": "84c4bd4b",
			"adminAddress()": "fc6f9468",
			"approve(address,uint256)": "095ea7b3",
			"balanceOf(address)": "70a08231",
			"contractBalance()": "8b7afe2e",
			"count(address)": "05d85eda",
			"getApproved(uint256)": "081812fc",
			"getColletionDetails()": "ac80ddeb",
			"getOwner(address)": "fa544161",
			"getTokenId(address)": "f1537686",
			"getTokenId_W_R_T_A(address)": "7b613e52",
			"getTokenIdsByCollection(string)": "a784318a",
			"getTokenUri(uint256)": "8ad91345",
			"isApprovedForAll(address,address)": "e985e9c5",
			"marketplaceAddress()": "daa17f49",
			"name()": "06fdde03",
			"owner()": "8da5cb5b",
			"ownerOf(uint256)": "6352211e",
			"processedTokenIds(uint256)": "0a8595b0",
			"renounceOwnership()": "715018a6",
			"safeMint(string,address,uint256,string)": "e7b25369",
			"safeTransferFrom(address,address,uint256)": "42842e0e",
			"safeTransferFrom(address,address,uint256,bytes)": "b88d4fde",
			"setAdminAddress(address)": "2c1e816d",
			"setApprovalForAll(address,bool)": "a22cb465",
			"supportsInterface(bytes4)": "01ffc9a7",
			"symbol()": "95d89b41",
			"tokenURI(uint256)": "c87b56dd",
			"transferFrom(address,address,uint256)": "23b872dd",
			"transferOwnership(address)": "f2fde38b",
			"updateTokenId(address,uint256,address)": "6e0cee09",
			"update_TokenIdTime(uint256)": "4c2a3f6c",
			"userTransferRecievedCount(address)": "0e8dbe62"
		}
	},
	"abi": [
		{
			"inputs": [
				{
					"internalType": "address",
					"name": "_adminAddress",
					"type": "address"
				},
				{
					"internalType": "string",
					"name": "_collectionName",
					"type": "string"
				},
				{
					"internalType": "string",
					"name": "_collectionSymbol",
					"type": "string"
				},
				{
					"internalType": "string",
					"name": "_Network",
					"type": "string"
				},
				{
					"internalType": "address",
					"name": "_marketplaceAddress",
					"type": "address"
				}
			],
			"stateMutability": "nonpayable",
			"type": "constructor"
		},
		{
			"anonymous": false,
			"inputs": [
				{
					"indexed": true,
					"internalType": "address",
					"name": "owner",
					"type": "address"
				},
				{
					"indexed": true,
					"internalType": "address",
					"name": "approved",
					"type": "address"
				},
				{
					"indexed": true,
					"internalType": "uint256",
					"name": "tokenId",
					"type": "uint256"
				}
			],
			"name": "Approval",
			"type": "event"
		},
		{
			"anonymous": false,
			"inputs": [
				{
					"indexed": true,
					"internalType": "address",
					"name": "owner",
					"type": "address"
				},
				{
					"indexed": true,
					"internalType": "address",
					"name": "operator",
					"type": "address"
				},
				{
					"indexed": false,
					"internalType": "bool",
					"name": "approved",
					"type": "bool"
				}
			],
			"name": "ApprovalForAll",
			"type": "event"
		},
		{
			"anonymous": false,
			"inputs": [
				{
					"indexed": false,
					"internalType": "uint256",
					"name": "_fromTokenId",
					"type": "uint256"
				},
				{
					"indexed": false,
					"internalType": "uint256",
					"name": "_toTokenId",
					"type": "uint256"
				}
			],
			"name": "BatchMetadataUpdate",
			"type": "event"
		},
		{
			"anonymous": false,
			"inputs": [
				{
					"indexed": false,
					"internalType": "uint256",
					"name": "_tokenId",
					"type": "uint256"
				}
			],
			"name": "MetadataUpdate",
			"type": "event"
		},
		{
			"anonymous": false,
			"inputs": [
				{
					"indexed": true,
					"internalType": "address",
					"name": "previousOwner",
					"type": "address"
				},
				{
					"indexed": true,
					"internalType": "address",
					"name": "newOwner",
					"type": "address"
				}
			],
			"name": "OwnershipTransferred",
			"type": "event"
		},
		{
			"anonymous": false,
			"inputs": [
				{
					"indexed": false,
					"internalType": "uint256",
					"name": "tokenId",
					"type": "uint256"
				},
				{
					"indexed": false,
					"internalType": "address",
					"name": "Minter",
					"type": "address"
				},
				{
					"indexed": false,
					"internalType": "uint256",
					"name": "MintingTime",
					"type": "uint256"
				}
			],
			"name": "SafeMinting",
			"type": "event"
		},
		{
			"anonymous": false,
			"inputs": [
				{
					"indexed": true,
					"internalType": "address",
					"name": "from",
					"type": "address"
				},
				{
					"indexed": true,
					"internalType": "address",
					"name": "to",
					"type": "address"
				},
				{
					"indexed": true,
					"internalType": "uint256",
					"name": "tokenId",
					"type": "uint256"
				}
			],
			"name": "Transfer",
			"type": "event"
		},
		{
			"inputs": [
				{
					"internalType": "uint256",
					"name": "",
					"type": "uint256"
				}
			],
			"name": "NFTMetadata",
			"outputs": [
				{
					"internalType": "uint256",
					"name": "mintTime",
					"type": "uint256"
				},
				{
					"internalType": "address",
					"name": "mintArtist",
					"type": "address"
				},
				{
					"internalType": "uint256",
					"name": "artistFeePerAge",
					"type": "uint256"
				},
				{
					"internalType": "address",
					"name": "owner",
					"type": "address"
				}
			],
			"stateMutability": "view",
			"type": "function"
		},
		{
			"inputs": [
				{
					"internalType": "address",
					"name": "",
					"type": "address"
				},
				{
					"internalType": "uint256",
					"name": "",
					"type": "uint256"
				}
			],
			"name": "TokenId",
			"outputs": [
				{
					"internalType": "uint256",
					"name": "",
					"type": "uint256"
				}
			],
			"stateMutability": "view",
			"type": "function"
		},
		{
			"inputs": [],
			"name": "_tokenIdCounter",
			"outputs": [
				{
					"internalType": "uint256",
					"name": "_value",
					"type": "uint256"
				}
			],
			"stateMutability": "view",
			"type": "function"
		},
		{
			"inputs": [],
			"name": "adminAddress",
			"outputs": [
				{
					"internalType": "address",
					"name": "",
					"type": "address"
				}
			],
			"stateMutability": "view",
			"type": "function"
		},
		{
			"inputs": [
				{
					"internalType": "address",
					"name": "to",
					"type": "address"
				},
				{
					"internalType": "uint256",
					"name": "tokenId",
					"type": "uint256"
				}
			],
			"name": "approve",
			"outputs": [],
			"stateMutability": "nonpayable",
			"type": "function"
		},
		{
			"inputs": [
				{
					"internalType": "address",
					"name": "owner",
					"type": "address"
				}
			],
			"name": "balanceOf",
			"outputs": [
				{
					"internalType": "uint256",
					"name": "",
					"type": "uint256"
				}
			],
			"stateMutability": "view",
			"type": "function"
		},
		{
			"inputs": [],
			"name": "contractBalance",
			"outputs": [
				{
					"internalType": "uint256",
					"name": "",
					"type": "uint256"
				}
			],
			"stateMutability": "view",
			"type": "function"
		},
		{
			"inputs": [
				{
					"internalType": "address",
					"name": "",
					"type": "address"
				}
			],
			"name": "count",
			"outputs": [
				{
					"internalType": "uint256",
					"name": "",
					"type": "uint256"
				}
			],
			"stateMutability": "view",
			"type": "function"
		},
		{
			"inputs": [
				{
					"internalType": "uint256",
					"name": "tokenId",
					"type": "uint256"
				}
			],
			"name": "getApproved",
			"outputs": [
				{
					"internalType": "address",
					"name": "",
					"type": "address"
				}
			],
			"stateMutability": "view",
			"type": "function"
		},
		{
			"inputs": [],
			"name": "getColletionDetails",
			"outputs": [
				{
					"internalType": "string",
					"name": "",
					"type": "string"
				},
				{
					"internalType": "string",
					"name": "",
					"type": "string"
				},
				{
					"internalType": "string",
					"name": "",
					"type": "string"
				}
			],
			"stateMutability": "view",
			"type": "function"
		},
		{
			"inputs": [
				{
					"internalType": "address",
					"name": "",
					"type": "address"
				}
			],
			"name": "getOwner",
			"outputs": [
				{
					"internalType": "uint256",
					"name": "tokenId",
					"type": "uint256"
				}
			],
			"stateMutability": "view",
			"type": "function"
		},
		{
			"inputs": [
				{
					"internalType": "address",
					"name": "to",
					"type": "address"
				}
			],
			"name": "getTokenId",
			"outputs": [
				{
					"components": [
						{
							"internalType": "uint256",
							"name": "tokenId",
							"type": "uint256"
						},
						{
							"internalType": "uint256",
							"name": "mintTime",
							"type": "uint256"
						},
						{
							"internalType": "address",
							"name": "owner",
							"type": "address"
						},
						{
							"internalType": "address",
							"name": "mintContract",
							"type": "address"
						},
						{
							"internalType": "address",
							"name": "mintArtist",
							"type": "address"
						},
						{
							"internalType": "uint256",
							"name": "artistFeePerAge",
							"type": "uint256"
						},
						{
							"internalType": "string",
							"name": "uri",
							"type": "string"
						}
					],
					"internalType": "struct Minting.MyNft[]",
					"name": "",
					"type": "tuple[]"
				}
			],
			"stateMutability": "view",
			"type": "function"
		},
		{
			"inputs": [
				{
					"internalType": "address",
					"name": "to",
					"type": "address"
				}
			],
			"name": "getTokenId_W_R_T_A",
			"outputs": [
				{
					"components": [
						{
							"internalType": "uint256",
							"name": "tokenId",
							"type": "uint256"
						}
					],
					"internalType": "struct Minting.OwnerAddress[]",
					"name": "",
					"type": "tuple[]"
				}
			],
			"stateMutability": "view",
			"type": "function"
		},
		{
			"inputs": [
				{
					"internalType": "string",
					"name": "collectionId",
					"type": "string"
				}
			],
			"name": "getTokenIdsByCollection",
			"outputs": [
				{
					"components": [
						{
							"internalType": "uint256",
							"name": "tokenId",
							"type": "uint256"
						},
						{
							"internalType": "uint256",
							"name": "mintTime",
							"type": "uint256"
						},
						{
							"internalType": "address",
							"name": "owner",
							"type": "address"
						},
						{
							"internalType": "address",
							"name": "mintContract",
							"type": "address"
						},
						{
							"internalType": "address",
							"name": "mintArtist",
							"type": "address"
						},
						{
							"internalType": "uint256",
							"name": "artistFeePerAge",
							"type": "uint256"
						},
						{
							"internalType": "string",
							"name": "uri",
							"type": "string"
						}
					],
					"internalType": "struct Minting.MyNft[]",
					"name": "",
					"type": "tuple[]"
				}
			],
			"stateMutability": "view",
			"type": "function"
		},
		{
			"inputs": [
				{
					"internalType": "uint256",
					"name": "tokenId",
					"type": "uint256"
				}
			],
			"name": "getTokenUri",
			"outputs": [
				{
					"internalType": "string",
					"name": "",
					"type": "string"
				}
			],
			"stateMutability": "view",
			"type": "function"
		},
		{
			"inputs": [
				{
					"internalType": "address",
					"name": "owner",
					"type": "address"
				},
				{
					"internalType": "address",
					"name": "operator",
					"type": "address"
				}
			],
			"name": "isApprovedForAll",
			"outputs": [
				{
					"internalType": "bool",
					"name": "",
					"type": "bool"
				}
			],
			"stateMutability": "view",
			"type": "function"
		},
		{
			"inputs": [],
			"name": "marketplaceAddress",
			"outputs": [
				{
					"internalType": "address",
					"name": "",
					"type": "address"
				}
			],
			"stateMutability": "view",
			"type": "function"
		},
		{
			"inputs": [],
			"name": "name",
			"outputs": [
				{
					"internalType": "string",
					"name": "",
					"type": "string"
				}
			],
			"stateMutability": "view",
			"type": "function"
		},
		{
			"inputs": [],
			"name": "owner",
			"outputs": [
				{
					"internalType": "address",
					"name": "",
					"type": "address"
				}
			],
			"stateMutability": "view",
			"type": "function"
		},
		{
			"inputs": [
				{
					"internalType": "uint256",
					"name": "tokenId",
					"type": "uint256"
				}
			],
			"name": "ownerOf",
			"outputs": [
				{
					"internalType": "address",
					"name": "",
					"type": "address"
				}
			],
			"stateMutability": "view",
			"type": "function"
		},
		{
			"inputs": [
				{
					"internalType": "uint256",
					"name": "",
					"type": "uint256"
				}
			],
			"name": "processedTokenIds",
			"outputs": [
				{
					"internalType": "bool",
					"name": "",
					"type": "bool"
				}
			],
			"stateMutability": "view",
			"type": "function"
		},
		{
			"inputs": [],
			"name": "renounceOwnership",
			"outputs": [],
			"stateMutability": "nonpayable",
			"type": "function"
		},
		{
			"inputs": [
				{
					"internalType": "string",
					"name": "uri",
					"type": "string"
				},
				{
					"internalType": "address",
					"name": "artist",
					"type": "address"
				},
				{
					"internalType": "uint256",
					"name": "artistFeePerAge",
					"type": "uint256"
				},
				{
					"internalType": "string",
					"name": "collectionId",
					"type": "string"
				}
			],
			"name": "safeMint",
			"outputs": [],
			"stateMutability": "nonpayable",
			"type": "function"
		},
		{
			"inputs": [
				{
					"internalType": "address",
					"name": "from",
					"type": "address"
				},
				{
					"internalType": "address",
					"name": "to",
					"type": "address"
				},
				{
					"internalType": "uint256",
					"name": "tokenId",
					"type": "uint256"
				}
			],
			"name": "safeTransferFrom",
			"outputs": [],
			"stateMutability": "nonpayable",
			"type": "function"
		},
		{
			"inputs": [
				{
					"internalType": "address",
					"name": "from",
					"type": "address"
				},
				{
					"internalType": "address",
					"name": "to",
					"type": "address"
				},
				{
					"internalType": "uint256",
					"name": "tokenId",
					"type": "uint256"
				},
				{
					"internalType": "bytes",
					"name": "data",
					"type": "bytes"
				}
			],
			"name": "safeTransferFrom",
			"outputs": [],
			"stateMutability": "nonpayable",
			"type": "function"
		},
		{
			"inputs": [
				{
					"internalType": "address",
					"name": "_adminAddress",
					"type": "address"
				}
			],
			"name": "setAdminAddress",
			"outputs": [],
			"stateMutability": "nonpayable",
			"type": "function"
		},
		{
			"inputs": [
				{
					"internalType": "address",
					"name": "operator",
					"type": "address"
				},
				{
					"internalType": "bool",
					"name": "approved",
					"type": "bool"
				}
			],
			"name": "setApprovalForAll",
			"outputs": [],
			"stateMutability": "nonpayable",
			"type": "function"
		},
		{
			"inputs": [
				{
					"internalType": "bytes4",
					"name": "interfaceId",
					"type": "bytes4"
				}
			],
			"name": "supportsInterface",
			"outputs": [
				{
					"internalType": "bool",
					"name": "",
					"type": "bool"
				}
			],
			"stateMutability": "view",
			"type": "function"
		},
		{
			"inputs": [],
			"name": "symbol",
			"outputs": [
				{
					"internalType": "string",
					"name": "",
					"type": "string"
				}
			],
			"stateMutability": "view",
			"type": "function"
		},
		{
			"inputs": [
				{
					"internalType": "uint256",
					"name": "tokenId",
					"type": "uint256"
				}
			],
			"name": "tokenURI",
			"outputs": [
				{
					"internalType": "string",
					"name": "",
					"type": "string"
				}
			],
			"stateMutability": "view",
			"type": "function"
		},
		{
			"inputs": [
				{
					"internalType": "address",
					"name": "from",
					"type": "address"
				},
				{
					"internalType": "address",
					"name": "to",
					"type": "address"
				},
				{
					"internalType": "uint256",
					"name": "tokenId",
					"type": "uint256"
				}
			],
			"name": "transferFrom",
			"outputs": [],
			"stateMutability": "nonpayable",
			"type": "function"
		},
		{
			"inputs": [
				{
					"internalType": "address",
					"name": "newOwner",
					"type": "address"
				}
			],
			"name": "transferOwnership",
			"outputs": [],
			"stateMutability": "nonpayable",
			"type": "function"
		},
		{
			"inputs": [
				{
					"internalType": "address",
					"name": "_to",
					"type": "address"
				},
				{
					"internalType": "uint256",
					"name": "_tokenId",
					"type": "uint256"
				},
				{
					"internalType": "address",
					"name": "_seller",
					"type": "address"
				}
			],
			"name": "updateTokenId",
			"outputs": [],
			"stateMutability": "nonpayable",
			"type": "function"
		},
		{
			"inputs": [
				{
					"internalType": "uint256",
					"name": "_tokenId",
					"type": "uint256"
				}
			],
			"name": "update_TokenIdTime",
			"outputs": [],
			"stateMutability": "nonpayable",
			"type": "function"
		},
		{
			"inputs": [
				{
					"internalType": "address",
					"name": "",
					"type": "address"
				}
			],
			"name": "userTransferRecievedCount",
			"outputs": [
				{
					"internalType": "uint32",
					"name": "",
					"type": "uint32"
				}
			],
			"stateMutability": "view",
			"type": "function"
		}
	]
}