{
	"data": {
		"bytecode": {
			"linkReferences": {},
			"object": "6080604052348015600f57600080fd5b506101928061001f6000396000f3fe608060405234801561001057600080fd5b506004361061002b5760003560e01c80634270349414610030575b600080fd5b61004361003e3660046100db565b610057565b604051901515815260200160405180910390f35b60006001821161006957506000919050565b8160020361007957506001919050565b6100846002836100f4565b60000361009357506000919050565b60035b826100a1828061012c565b116100d2576100b081846100f4565b6000036100c05750600092915050565b6100cb600282610149565b9050610096565b50600192915050565b6000602082840312156100ed57600080fd5b5035919050565b60008261011157634e487b7160e01b600052601260045260246000fd5b500690565b634e487b7160e01b600052601160045260246000fd5b808202811582820484141761014357610143610116565b92915050565b808201808211156101435761014361011656fea264697066735822122007cb041e998c1e9f77a0fd032ebb4fb63affa5c00ea49a8998fc0d74ef25e3af64736f6c634300081a0033",
			"opcodes": "PUSH1 0x80 PUSH1 0x40 MSTORE CALLVALUE DUP1 ISZERO PUSH1 0xF JUMPI PUSH1 0x0 DUP1 REVERT JUMPDEST POP PUSH2 0x192 DUP1 PUSH2 0x1F PUSH1 0x0 CODECOPY PUSH1 0x0 RETURN INVALID PUSH1 0x80 PUSH1 0x40 MSTORE CALLVALUE DUP1 ISZERO PUSH2 0x10 JUMPI PUSH1 0x0 DUP1 REVERT JUMPDEST POP PUSH1 0x4 CALLDATASIZE LT PUSH2 0x2B JUMPI PUSH1 0x0 CALLDATALOAD PUSH1 0xE0 SHR DUP1 PUSH4 0x42703494 EQ PUSH2 0x30 JUMPI JUMPDEST PUSH1 0x0 DUP1 REVERT JUMPDEST PUSH2 0x43 PUSH2 0x3E CALLDATASIZE PUSH1 0x4 PUSH2 0xDB JUMP JUMPDEST PUSH2 0x57 JUMP JUMPDEST PUSH1 0x40 MLOAD SWAP1 ISZERO ISZERO DUP2 MSTORE PUSH1 0x20 ADD PUSH1 0x40 MLOAD DUP1 SWAP2 SUB SWAP1 RETURN JUMPDEST PUSH1 0x0 PUSH1 0x1 DUP3 GT PUSH2 0x69 JUMPI POP PUSH1 0x0 SWAP2 SWAP1 POP JUMP JUMPDEST DUP2 PUSH1 0x2 SUB PUSH2 0x79 JUMPI POP PUSH1 0x1 SWAP2 SWAP1 POP JUMP JUMPDEST PUSH2 0x84 PUSH1 0x2 DUP4 PUSH2 0xF4 JUMP JUMPDEST PUSH1 0x0 SUB PUSH2 0x93 JUMPI POP PUSH1 0x0 SWAP2 SWAP1 POP JUMP JUMPDEST PUSH1 0x3 JUMPDEST DUP3 PUSH2 0xA1 DUP3 DUP1 PUSH2 0x12C JUMP JUMPDEST GT PUSH2 0xD2 JUMPI PUSH2 0xB0 DUP2 DUP5 PUSH2 0xF4 JUMP JUMPDEST PUSH1 0x0 SUB PUSH2 0xC0 JUMPI POP PUSH1 0x0 SWAP3 SWAP2 POP POP JUMP JUMPDEST PUSH2 0xCB PUSH1 0x2 DUP3 PUSH2 0x149 JUMP JUMPDEST SWAP1 POP PUSH2 0x96 JUMP JUMPDEST POP PUSH1 0x1 SWAP3 SWAP2 POP POP JUMP JUMPDEST PUSH1 0x0 PUSH1 0x20 DUP3 DUP5 SUB SLT ISZERO PUSH2 0xED JUMPI PUSH1 0x0 DUP1 REVERT JUMPDEST POP CALLDATALOAD SWAP2 SWAP1 POP JUMP JUMPDEST PUSH1 0x0 DUP3 PUSH2 0x111 JUMPI PUSH4 0x4E487B71 PUSH1 0xE0 SHL PUSH1 0x0 MSTORE PUSH1 0x12 PUSH1 0x4 MSTORE PUSH1 0x24 PUSH1 0x0 REVERT JUMPDEST POP MOD SWAP1 JUMP JUMPDEST PUSH4 0x4E487B71 PUSH1 0xE0 SHL PUSH1 0x0 MSTORE PUSH1 0x11 PUSH1 0x4 MSTORE PUSH1 0x24 PUSH1 0x0 REVERT JUMPDEST DUP1 DUP3 MUL DUP2 ISZERO DUP3 DUP3 DIV DUP5 EQ OR PUSH2 0x143 JUMPI PUSH2 0x143 PUSH2 0x116 JUMP JUMPDEST SWAP3 SWAP2 POP POP JUMP JUMPDEST DUP1 DUP3 ADD DUP1 DUP3 GT ISZERO PUSH2 0x143 JUMPI PUSH2 0x143 PUSH2 0x116 JUMP INVALID LOG2 PUSH5 0x6970667358 0x22 SLT KECCAK256 SMOD 0xCB DIV 0x1E SWAP10 DUP13 0x1E SWAP16 PUSH24 0xA0FD032EBB4FB63AFFA5C00EA49A8998FC0D74EF25E3AF64 PUSH20 0x6F6C634300081A00330000000000000000000000 "
		},
		"gasEstimates": {
			"creation": {
				"codeDepositCost": "80400",
				"executionCost": "129",
				"totalCost": "80529"
			},
			"external": {
				"isPrime(uint256)": "infinite"
			}
		},
		"methodIdentifiers": {
			"isPrime(uint256)": "42703494"
		}
	},
	"abi": [
		{
			"inputs": [
				{
					"internalType": "uint256",
					"name": "number",
					"type": "uint256"
				}
			],
			"name": "isPrime",
			"outputs": [
				{
					"internalType": "bool",
					"name": "",
					"type": "bool"
				}
			],
			"stateMutability": "pure",
			"type": "function"
		}
	]
}