{
	"contracts/Element of Soul/Land.sol": {
		"SuperVet": {
			"abi": [
				{
					"inputs": [
						{
							"internalType": "address",
							"name": "initialOwner",
							"type": "address"
						}
					],
					"stateMutability": "nonpayable",
					"type": "constructor"
				},
				{
					"inputs": [
						{
							"internalType": "address",
							"name": "sender",
							"type": "address"
						},
						{
							"internalType": "uint256",
							"name": "tokenId",
							"type": "uint256"
						},
						{
							"internalType": "address",
							"name": "owner",
							"type": "address"
						}
					],
					"name": "ERC721IncorrectOwner",
					"type": "error"
				},
				{
					"inputs": [
						{
							"internalType": "address",
							"name": "operator",
							"type": "address"
						},
						{
							"internalType": "uint256",
							"name": "tokenId",
							"type": "uint256"
						}
					],
					"name": "ERC721InsufficientApproval",
					"type": "error"
				},
				{
					"inputs": [
						{
							"internalType": "address",
							"name": "approver",
							"type": "address"
						}
					],
					"name": "ERC721InvalidApprover",
					"type": "error"
				},
				{
					"inputs": [
						{
							"internalType": "address",
							"name": "operator",
							"type": "address"
						}
					],
					"name": "ERC721InvalidOperator",
					"type": "error"
				},
				{
					"inputs": [
						{
							"internalType": "address",
							"name": "owner",
							"type": "address"
						}
					],
					"name": "ERC721InvalidOwner",
					"type": "error"
				},
				{
					"inputs": [
						{
							"internalType": "address",
							"name": "receiver",
							"type": "address"
						}
					],
					"name": "ERC721InvalidReceiver",
					"type": "error"
				},
				{
					"inputs": [
						{
							"internalType": "address",
							"name": "sender",
							"type": "address"
						}
					],
					"name": "ERC721InvalidSender",
					"type": "error"
				},
				{
					"inputs": [
						{
							"internalType": "uint256",
							"name": "tokenId",
							"type": "uint256"
						}
					],
					"name": "ERC721NonexistentToken",
					"type": "error"
				},
				{
					"inputs": [
						{
							"internalType": "address",
							"name": "owner",
							"type": "address"
						}
					],
					"name": "OwnableInvalidOwner",
					"type": "error"
				},
				{
					"inputs": [
						{
							"internalType": "address",
							"name": "account",
							"type": "address"
						}
					],
					"name": "OwnableUnauthorizedAccount",
					"type": "error"
				},
				{
					"anonymous": false,
					"inputs": [
						{
							"indexed": true,
							"internalType": "address",
							"name": "owner",
							"type": "address"
						},
						{
							"indexed": true,
							"internalType": "address",
							"name": "approved",
							"type": "address"
						},
						{
							"indexed": true,
							"internalType": "uint256",
							"name": "tokenId",
							"type": "uint256"
						}
					],
					"name": "Approval",
					"type": "event"
				},
				{
					"anonymous": false,
					"inputs": [
						{
							"indexed": true,
							"internalType": "address",
							"name": "owner",
							"type": "address"
						},
						{
							"indexed": true,
							"internalType": "address",
							"name": "operator",
							"type": "address"
						},
						{
							"indexed": false,
							"internalType": "bool",
							"name": "approved",
							"type": "bool"
						}
					],
					"name": "ApprovalForAll",
					"type": "event"
				},
				{
					"anonymous": false,
					"inputs": [
						{
							"indexed": false,
							"internalType": "uint256",
							"name": "_fromTokenId",
							"type": "uint256"
						},
						{
							"indexed": false,
							"internalType": "uint256",
							"name": "_toTokenId",
							"type": "uint256"
						}
					],
					"name": "BatchMetadataUpdate",
					"type": "event"
				},
				{
					"anonymous": false,
					"inputs": [
						{
							"indexed": false,
							"internalType": "uint256",
							"name": "_tokenId",
							"type": "uint256"
						}
					],
					"name": "MetadataUpdate",
					"type": "event"
				},
				{
					"anonymous": false,
					"inputs": [
						{
							"indexed": true,
							"internalType": "address",
							"name": "previousOwner",
							"type": "address"
						},
						{
							"indexed": true,
							"internalType": "address",
							"name": "newOwner",
							"type": "address"
						}
					],
					"name": "OwnershipTransferred",
					"type": "event"
				},
				{
					"anonymous": false,
					"inputs": [
						{
							"indexed": true,
							"internalType": "address",
							"name": "from",
							"type": "address"
						},
						{
							"indexed": true,
							"internalType": "address",
							"name": "to",
							"type": "address"
						},
						{
							"indexed": true,
							"internalType": "uint256",
							"name": "tokenId",
							"type": "uint256"
						}
					],
					"name": "Transfer",
					"type": "event"
				},
				{
					"inputs": [
						{
							"internalType": "address",
							"name": "",
							"type": "address"
						},
						{
							"internalType": "uint256",
							"name": "",
							"type": "uint256"
						}
					],
					"name": "NftId",
					"outputs": [
						{
							"internalType": "uint256",
							"name": "",
							"type": "uint256"
						}
					],
					"stateMutability": "view",
					"type": "function"
				},
				{
					"inputs": [
						{
							"internalType": "uint256",
							"name": "",
							"type": "uint256"
						}
					],
					"name": "NftMinting",
					"outputs": [
						{
							"internalType": "uint256",
							"name": "tokenId",
							"type": "uint256"
						},
						{
							"internalType": "uint256",
							"name": "count",
							"type": "uint256"
						},
						{
							"internalType": "string",
							"name": "uri",
							"type": "string"
						},
						{
							"internalType": "uint256",
							"name": "mintTime",
							"type": "uint256"
						},
						{
							"internalType": "bool",
							"name": "minted",
							"type": "bool"
						}
					],
					"stateMutability": "view",
					"type": "function"
				},
				{
					"inputs": [
						{
							"internalType": "address",
							"name": "to",
							"type": "address"
						},
						{
							"internalType": "uint256",
							"name": "tokenId",
							"type": "uint256"
						}
					],
					"name": "approve",
					"outputs": [],
					"stateMutability": "nonpayable",
					"type": "function"
				},
				{
					"inputs": [
						{
							"internalType": "address",
							"name": "owner",
							"type": "address"
						}
					],
					"name": "balanceOf",
					"outputs": [
						{
							"internalType": "uint256",
							"name": "",
							"type": "uint256"
						}
					],
					"stateMutability": "view",
					"type": "function"
				},
				{
					"inputs": [
						{
							"internalType": "address",
							"name": "",
							"type": "address"
						}
					],
					"name": "count",
					"outputs": [
						{
							"internalType": "uint256",
							"name": "",
							"type": "uint256"
						}
					],
					"stateMutability": "view",
					"type": "function"
				},
				{
					"inputs": [
						{
							"internalType": "uint256",
							"name": "tokenId",
							"type": "uint256"
						}
					],
					"name": "getApproved",
					"outputs": [
						{
							"internalType": "address",
							"name": "",
							"type": "address"
						}
					],
					"stateMutability": "view",
					"type": "function"
				},
				{
					"inputs": [
						{
							"internalType": "address",
							"name": "_seller",
							"type": "address"
						}
					],
					"name": "getTokenId",
					"outputs": [
						{
							"components": [
								{
									"internalType": "uint256",
									"name": "tokenId",
									"type": "uint256"
								},
								{
									"internalType": "uint256",
									"name": "count",
									"type": "uint256"
								},
								{
									"internalType": "string",
									"name": "uri",
									"type": "string"
								},
								{
									"internalType": "uint256",
									"name": "mintTime",
									"type": "uint256"
								},
								{
									"internalType": "bool",
									"name": "minted",
									"type": "bool"
								}
							],
							"internalType": "struct SuperVet.NFT[]",
							"name": "",
							"type": "tuple[]"
						}
					],
					"stateMutability": "view",
					"type": "function"
				},
				{
					"inputs": [
						{
							"internalType": "uint256",
							"name": "tokenId",
							"type": "uint256"
						}
					],
					"name": "getTokenUri",
					"outputs": [
						{
							"internalType": "string",
							"name": "",
							"type": "string"
						}
					],
					"stateMutability": "view",
					"type": "function"
				},
				{
					"inputs": [
						{
							"internalType": "address",
							"name": "owner",
							"type": "address"
						},
						{
							"internalType": "address",
							"name": "operator",
							"type": "address"
						}
					],
					"name": "isApprovedForAll",
					"outputs": [
						{
							"internalType": "bool",
							"name": "",
							"type": "bool"
						}
					],
					"stateMutability": "view",
					"type": "function"
				},
				{
					"inputs": [],
					"name": "name",
					"outputs": [
						{
							"internalType": "string",
							"name": "",
							"type": "string"
						}
					],
					"stateMutability": "view",
					"type": "function"
				},
				{
					"inputs": [],
					"name": "owner",
					"outputs": [
						{
							"internalType": "address",
							"name": "",
							"type": "address"
						}
					],
					"stateMutability": "view",
					"type": "function"
				},
				{
					"inputs": [
						{
							"internalType": "uint256",
							"name": "tokenId",
							"type": "uint256"
						}
					],
					"name": "ownerOf",
					"outputs": [
						{
							"internalType": "address",
							"name": "",
							"type": "address"
						}
					],
					"stateMutability": "view",
					"type": "function"
				},
				{
					"inputs": [],
					"name": "renounceOwnership",
					"outputs": [],
					"stateMutability": "nonpayable",
					"type": "function"
				},
				{
					"inputs": [
						{
							"internalType": "string",
							"name": "uri",
							"type": "string"
						}
					],
					"name": "safeMint",
					"outputs": [],
					"stateMutability": "nonpayable",
					"type": "function"
				},
				{
					"inputs": [
						{
							"internalType": "address",
							"name": "from",
							"type": "address"
						},
						{
							"internalType": "address",
							"name": "to",
							"type": "address"
						},
						{
							"internalType": "uint256",
							"name": "tokenId",
							"type": "uint256"
						}
					],
					"name": "safeTransferFrom",
					"outputs": [],
					"stateMutability": "nonpayable",
					"type": "function"
				},
				{
					"inputs": [
						{
							"internalType": "address",
							"name": "from",
							"type": "address"
						},
						{
							"internalType": "address",
							"name": "to",
							"type": "address"
						},
						{
							"internalType": "uint256",
							"name": "tokenId",
							"type": "uint256"
						},
						{
							"internalType": "bytes",
							"name": "data",
							"type": "bytes"
						}
					],
					"name": "safeTransferFrom",
					"outputs": [],
					"stateMutability": "nonpayable",
					"type": "function"
				},
				{
					"inputs": [
						{
							"internalType": "address",
							"name": "operator",
							"type": "address"
						},
						{
							"internalType": "bool",
							"name": "approved",
							"type": "bool"
						}
					],
					"name": "setApprovalForAll",
					"outputs": [],
					"stateMutability": "nonpayable",
					"type": "function"
				},
				{
					"inputs": [
						{
							"internalType": "bytes4",
							"name": "interfaceId",
							"type": "bytes4"
						}
					],
					"name": "supportsInterface",
					"outputs": [
						{
							"internalType": "bool",
							"name": "",
							"type": "bool"
						}
					],
					"stateMutability": "view",
					"type": "function"
				},
				{
					"inputs": [],
					"name": "symbol",
					"outputs": [
						{
							"internalType": "string",
							"name": "",
							"type": "string"
						}
					],
					"stateMutability": "view",
					"type": "function"
				},
				{
					"inputs": [
						{
							"internalType": "uint256",
							"name": "tokenId",
							"type": "uint256"
						}
					],
					"name": "tokenURI",
					"outputs": [
						{
							"internalType": "string",
							"name": "",
							"type": "string"
						}
					],
					"stateMutability": "view",
					"type": "function"
				},
				{
					"inputs": [
						{
							"internalType": "address",
							"name": "from",
							"type": "address"
						},
						{
							"internalType": "address",
							"name": "to",
							"type": "address"
						},
						{
							"internalType": "uint256",
							"name": "tokenId",
							"type": "uint256"
						}
					],
					"name": "transferFrom",
					"outputs": [],
					"stateMutability": "nonpayable",
					"type": "function"
				},
				{
					"inputs": [
						{
							"internalType": "address",
							"name": "newOwner",
							"type": "address"
						}
					],
					"name": "transferOwnership",
					"outputs": [],
					"stateMutability": "nonpayable",
					"type": "function"
				},
				{
					"inputs": [
						{
							"internalType": "address",
							"name": "_authorized",
							"type": "address"
						}
					],
					"name": "unwhitelist",
					"outputs": [],
					"stateMutability": "nonpayable",
					"type": "function"
				},
				{
					"inputs": [
						{
							"internalType": "address",
							"name": "_to",
							"type": "address"
						},
						{
							"internalType": "uint256",
							"name": "_tokenId",
							"type": "uint256"
						},
						{
							"internalType": "address",
							"name": "_seller",
							"type": "address"
						}
					],
					"name": "updateTokenId",
					"outputs": [],
					"stateMutability": "nonpayable",
					"type": "function"
				},
				{
					"inputs": [
						{
							"internalType": "address",
							"name": "_authorized",
							"type": "address"
						}
					],
					"name": "whitelist",
					"outputs": [],
					"stateMutability": "nonpayable",
					"type": "function"
				},
				{
					"inputs": [
						{
							"internalType": "address",
							"name": "",
							"type": "address"
						}
					],
					"name": "whitelisted",
					"outputs": [
						{
							"internalType": "bool",
							"name": "",
							"type": "bool"
						}
					],
					"stateMutability": "view",
					"type": "function"
				}
			],
			"devdoc": {
				"errors": {
					"ERC721IncorrectOwner(address,uint256,address)": [
						{
							"details": "Indicates an error related to the ownership over a particular token. Used in transfers.",
							"params": {
								"owner": "Address of the current owner of a token.",
								"sender": "Address whose tokens are being transferred.",
								"tokenId": "Identifier number of a token."
							}
						}
					],
					"ERC721InsufficientApproval(address,uint256)": [
						{
							"details": "Indicates a failure with the `operator`’s approval. Used in transfers.",
							"params": {
								"operator": "Address that may be allowed to operate on tokens without being their owner.",
								"tokenId": "Identifier number of a token."
							}
						}
					],
					"ERC721InvalidApprover(address)": [
						{
							"details": "Indicates a failure with the `approver` of a token to be approved. Used in approvals.",
							"params": {
								"approver": "Address initiating an approval operation."
							}
						}
					],
					"ERC721InvalidOperator(address)": [
						{
							"details": "Indicates a failure with the `operator` to be approved. Used in approvals.",
							"params": {
								"operator": "Address that may be allowed to operate on tokens without being their owner."
							}
						}
					],
					"ERC721InvalidOwner(address)": [
						{
							"details": "Indicates that an address can't be an owner. For example, `address(0)` is a forbidden owner in EIP-20. Used in balance queries.",
							"params": {
								"owner": "Address of the current owner of a token."
							}
						}
					],
					"ERC721InvalidReceiver(address)": [
						{
							"details": "Indicates a failure with the token `receiver`. Used in transfers.",
							"params": {
								"receiver": "Address to which tokens are being transferred."
							}
						}
					],
					"ERC721InvalidSender(address)": [
						{
							"details": "Indicates a failure with the token `sender`. Used in transfers.",
							"params": {
								"sender": "Address whose tokens are being transferred."
							}
						}
					],
					"ERC721NonexistentToken(uint256)": [
						{
							"details": "Indicates a `tokenId` whose `owner` is the zero address.",
							"params": {
								"tokenId": "Identifier number of a token."
							}
						}
					],
					"OwnableInvalidOwner(address)": [
						{
							"details": "The owner is not a valid owner account. (eg. `address(0)`)"
						}
					],
					"OwnableUnauthorizedAccount(address)": [
						{
							"details": "The caller account is not authorized to perform an operation."
						}
					]
				},
				"events": {
					"Approval(address,address,uint256)": {
						"details": "Emitted when `owner` enables `approved` to manage the `tokenId` token."
					},
					"ApprovalForAll(address,address,bool)": {
						"details": "Emitted when `owner` enables or disables (`approved`) `operator` to manage all of its assets."
					},
					"BatchMetadataUpdate(uint256,uint256)": {
						"details": "This event emits when the metadata of a range of tokens is changed. So that the third-party platforms such as NFT market could timely update the images and related attributes of the NFTs."
					},
					"MetadataUpdate(uint256)": {
						"details": "This event emits when the metadata of a token is changed. So that the third-party platforms such as NFT market could timely update the images and related attributes of the NFT."
					},
					"Transfer(address,address,uint256)": {
						"details": "Emitted when `tokenId` token is transferred from `from` to `to`."
					}
				},
				"kind": "dev",
				"methods": {
					"approve(address,uint256)": {
						"details": "See {IERC721-approve}."
					},
					"balanceOf(address)": {
						"details": "See {IERC721-balanceOf}."
					},
					"getApproved(uint256)": {
						"details": "See {IERC721-getApproved}."
					},
					"isApprovedForAll(address,address)": {
						"details": "See {IERC721-isApprovedForAll}."
					},
					"name()": {
						"details": "See {IERC721Metadata-name}."
					},
					"owner()": {
						"details": "Returns the address of the current owner."
					},
					"ownerOf(uint256)": {
						"details": "See {IERC721-ownerOf}."
					},
					"renounceOwnership()": {
						"details": "Leaves the contract without owner. It will not be possible to call `onlyOwner` functions. Can only be called by the current owner. NOTE: Renouncing ownership will leave the contract without an owner, thereby disabling any functionality that is only available to the owner."
					},
					"safeTransferFrom(address,address,uint256)": {
						"details": "See {IERC721-safeTransferFrom}."
					},
					"safeTransferFrom(address,address,uint256,bytes)": {
						"details": "See {IERC721-safeTransferFrom}."
					},
					"setApprovalForAll(address,bool)": {
						"details": "See {IERC721-setApprovalForAll}."
					},
					"symbol()": {
						"details": "See {IERC721Metadata-symbol}."
					},
					"transferFrom(address,address,uint256)": {
						"details": "See {IERC721-transferFrom}."
					},
					"transferOwnership(address)": {
						"details": "Transfers ownership of the contract to a new account (`newOwner`). Can only be called by the current owner."
					},
					"updateTokenId(address,uint256,address)": {
						"details": "Transfers a token ID from one owner to another and updates internal tracking.",
						"params": {
							"_seller": "The current owner of the token ID. This function updates the internal mapping of token IDs to reflect a change in ownership. It also adjusts the count of NFTs owned by both the seller and the buyer. Note: This function does not perform the actual transfer of tokens but is intended to be called in conjunction with a transfer function that handles ownership change.",
							"_to": "The address to receive the token ID.",
							"_tokenId": "The token ID to be transferred."
						}
					}
				},
				"version": 1
			},
			"evm": {
				"assembly": "    /* \"contracts/Element of Soul/Land.sol\":585:5631  contract SuperVet is ERC721, ERC721URIStorage, Ownable {... */\n  mstore(0x40, 0x80)\n    /* \"contracts/Element of Soul/Land.sol\":1657:1744  constructor(address initialOwner) ERC721(\"Lands\", \"Land\") Ownable(initialOwner) {... */\n  callvalue\n  dup1\n  iszero\n  tag_1\n  jumpi\n  0x00\n  dup1\n  revert\ntag_1:\n  pop\n  mload(0x40)\n  sub(codesize, bytecodeSize)\n  dup1\n  bytecodeSize\n  dup4\n  codecopy\n  dup2\n  add\n  0x40\n  dup2\n  swap1\n  mstore\n  tag_2\n  swap2\n  tag_3\n  jump\t// in\ntag_2:\n    /* \"contracts/Element of Soul/Land.sol\":1723:1735  initialOwner */\n  dup1\n    /* \"@openzeppelin/contracts/token/ERC721/ERC721.sol\":1382:1495  constructor(string memory name_, string memory symbol_) {... */\n  mload(0x40)\n  dup1\n  0x40\n  add\n  0x40\n  mstore\n  dup1\n  0x05\n  dup2\n  mstore\n  0x20\n  add\n  shl(0xd8, 0x4c616e6473)\n  dup2\n  mstore\n  pop\n  mload(0x40)\n  dup1\n  0x40\n  add\n  0x40\n  mstore\n  dup1\n  0x04\n  dup2\n  mstore\n  0x20\n  add\n  shl(0xe2, 0x13185b99)\n  dup2\n  mstore\n  pop\n    /* \"@openzeppelin/contracts/token/ERC721/ERC721.sol\":1456:1461  name_ */\n  dup2\n    /* \"@openzeppelin/contracts/token/ERC721/ERC721.sol\":1448:1453  _name */\n  0x00\n    /* \"@openzeppelin/contracts/token/ERC721/ERC721.sol\":1448:1461  _name = name_ */\n  swap1\n  dup2\n  tag_8\n  swap2\n  swap1\n  tag_9\n  jump\t// in\ntag_8:\n  pop\n    /* \"@openzeppelin/contracts/token/ERC721/ERC721.sol\":1471:1478  _symbol */\n  0x01\n    /* \"@openzeppelin/contracts/token/ERC721/ERC721.sol\":1471:1488  _symbol = symbol_ */\n  tag_10\n    /* \"@openzeppelin/contracts/token/ERC721/ERC721.sol\":1481:1488  symbol_ */\n  dup3\n    /* \"@openzeppelin/contracts/token/ERC721/ERC721.sol\":1471:1478  _symbol */\n  dup3\n    /* \"@openzeppelin/contracts/token/ERC721/ERC721.sol\":1471:1488  _symbol = symbol_ */\n  tag_9\n  jump\t// in\ntag_10:\n  pop\n  pop\n  pop\n  sub(shl(0xa0, 0x01), 0x01)\n    /* \"@openzeppelin/contracts/access/Ownable.sol\":1273:1299  initialOwner == address(0) */\n  dup2\n  and\n    /* \"@openzeppelin/contracts/access/Ownable.sol\":1269:1364  if (initialOwner == address(0)) {... */\n  tag_12\n  jumpi\n    /* \"@openzeppelin/contracts/access/Ownable.sol\":1322:1353  OwnableInvalidOwner(address(0)) */\n  mload(0x40)\n  shl(0xe0, 0x1e4fbdf7)\n  dup2\n  mstore\n    /* \"@openzeppelin/contracts/access/Ownable.sol\":1350:1351  0 */\n  0x00\n    /* \"@openzeppelin/contracts/access/Ownable.sol\":1322:1353  OwnableInvalidOwner(address(0)) */\n  0x04\n  dup3\n  add\n    /* \"#utility.yul\":3096:3147   */\n  mstore\n    /* \"#utility.yul\":3069:3087   */\n  0x24\n  add\n    /* \"@openzeppelin/contracts/access/Ownable.sol\":1322:1353  OwnableInvalidOwner(address(0)) */\n  mload(0x40)\n  dup1\n  swap2\n  sub\n  swap1\n  revert\n    /* \"@openzeppelin/contracts/access/Ownable.sol\":1269:1364  if (initialOwner == address(0)) {... */\ntag_12:\n    /* \"@openzeppelin/contracts/access/Ownable.sol\":1373:1405  _transferOwnership(initialOwner) */\n  tag_15\n    /* \"@openzeppelin/contracts/access/Ownable.sol\":1392:1404  initialOwner */\n  dup2\n    /* \"@openzeppelin/contracts/access/Ownable.sol\":1373:1391  _transferOwnership */\n  tag_16\n    /* \"@openzeppelin/contracts/access/Ownable.sol\":1373:1405  _transferOwnership(initialOwner) */\n  jump\t// in\ntag_15:\n    /* \"@openzeppelin/contracts/access/Ownable.sol\":1225:1412  constructor(address initialOwner) {... */\n  pop\n    /* \"contracts/Element of Soul/Land.sol\":1657:1744  constructor(address initialOwner) ERC721(\"Lands\", \"Land\") Ownable(initialOwner) {... */\n  pop\n    /* \"contracts/Element of Soul/Land.sol\":585:5631  contract SuperVet is ERC721, ERC721URIStorage, Ownable {... */\n  jump(tag_25)\n    /* \"@openzeppelin/contracts/access/Ownable.sol\":2912:3099  function _transferOwnership(address newOwner) internal virtual {... */\ntag_16:\n    /* \"@openzeppelin/contracts/access/Ownable.sol\":3004:3010  _owner */\n  0x07\n  dup1\n  sload\n  sub(shl(0xa0, 0x01), 0x01)\n    /* \"@openzeppelin/contracts/access/Ownable.sol\":3020:3037  _owner = newOwner */\n  dup4\n  dup2\n  and\n  not(sub(shl(0xa0, 0x01), 0x01))\n  dup4\n  and\n  dup2\n  or\n  swap1\n  swap4\n  sstore\n    /* \"@openzeppelin/contracts/access/Ownable.sol\":3052:3092  OwnershipTransferred(oldOwner, newOwner) */\n  mload(0x40)\n    /* \"@openzeppelin/contracts/access/Ownable.sol\":3004:3010  _owner */\n  swap2\n  and\n  swap2\n    /* \"@openzeppelin/contracts/access/Ownable.sol\":3020:3037  _owner = newOwner */\n  swap1\n    /* \"@openzeppelin/contracts/access/Ownable.sol\":3004:3010  _owner */\n  dup3\n  swap1\n    /* \"@openzeppelin/contracts/access/Ownable.sol\":3052:3092  OwnershipTransferred(oldOwner, newOwner) */\n  0x8be0079c531659141344cd1fd0a4f28419497f9722a3daafe3b4186f6b6457e0\n  swap1\n    /* \"@openzeppelin/contracts/access/Ownable.sol\":2985:3001  address oldOwner */\n  0x00\n  swap1\n    /* \"@openzeppelin/contracts/access/Ownable.sol\":3052:3092  OwnershipTransferred(oldOwner, newOwner) */\n  log3\n    /* \"@openzeppelin/contracts/access/Ownable.sol\":2975:3099  {... */\n  pop\n    /* \"@openzeppelin/contracts/access/Ownable.sol\":2912:3099  function _transferOwnership(address newOwner) internal virtual {... */\n  pop\n  jump\t// out\n    /* \"#utility.yul\":14:304   */\ntag_3:\n    /* \"#utility.yul\":84:90   */\n  0x00\n    /* \"#utility.yul\":137:139   */\n  0x20\n    /* \"#utility.yul\":125:134   */\n  dup3\n    /* \"#utility.yul\":116:123   */\n  dup5\n    /* \"#utility.yul\":112:135   */\n  sub\n    /* \"#utility.yul\":108:140   */\n  slt\n    /* \"#utility.yul\":105:157   */\n  iszero\n  tag_27\n  jumpi\n    /* \"#utility.yul\":153:154   */\n  0x00\n    /* \"#utility.yul\":150:151   */\n  dup1\n    /* \"#utility.yul\":143:155   */\n  revert\n    /* \"#utility.yul\":105:157   */\ntag_27:\n    /* \"#utility.yul\":179:195   */\n  dup2\n  mload\n  sub(shl(0xa0, 0x01), 0x01)\n    /* \"#utility.yul\":224:255   */\n  dup2\n  and\n    /* \"#utility.yul\":214:256   */\n  dup2\n  eq\n    /* \"#utility.yul\":204:274   */\n  tag_28\n  jumpi\n    /* \"#utility.yul\":270:271   */\n  0x00\n    /* \"#utility.yul\":267:268   */\n  dup1\n    /* \"#utility.yul\":260:272   */\n  revert\n    /* \"#utility.yul\":204:274   */\ntag_28:\n    /* \"#utility.yul\":293:298   */\n  swap4\n    /* \"#utility.yul\":14:304   */\n  swap3\n  pop\n  pop\n  pop\n  jump\t// out\n    /* \"#utility.yul\":309:436   */\ntag_20:\n    /* \"#utility.yul\":370:380   */\n  0x4e487b71\n    /* \"#utility.yul\":365:368   */\n  0xe0\n    /* \"#utility.yul\":361:381   */\n  shl\n    /* \"#utility.yul\":358:359   */\n  0x00\n    /* \"#utility.yul\":351:382   */\n  mstore\n    /* \"#utility.yul\":401:405   */\n  0x41\n    /* \"#utility.yul\":398:399   */\n  0x04\n    /* \"#utility.yul\":391:406   */\n  mstore\n    /* \"#utility.yul\":425:429   */\n  0x24\n    /* \"#utility.yul\":422:423   */\n  0x00\n    /* \"#utility.yul\":415:430   */\n  revert\n    /* \"#utility.yul\":441:821   */\ntag_21:\n    /* \"#utility.yul\":520:521   */\n  0x01\n    /* \"#utility.yul\":516:528   */\n  dup2\n  dup2\n  shr\n  swap1\n    /* \"#utility.yul\":563:575   */\n  dup3\n  and\n  dup1\n    /* \"#utility.yul\":584:645   */\n  tag_31\n  jumpi\n    /* \"#utility.yul\":638:642   */\n  0x7f\n    /* \"#utility.yul\":630:636   */\n  dup3\n    /* \"#utility.yul\":626:643   */\n  and\n    /* \"#utility.yul\":616:643   */\n  swap2\n  pop\n    /* \"#utility.yul\":584:645   */\ntag_31:\n    /* \"#utility.yul\":691:693   */\n  0x20\n    /* \"#utility.yul\":683:689   */\n  dup3\n    /* \"#utility.yul\":680:694   */\n  lt\n    /* \"#utility.yul\":660:678   */\n  dup2\n    /* \"#utility.yul\":657:695   */\n  sub\n    /* \"#utility.yul\":654:815   */\n  tag_32\n  jumpi\n    /* \"#utility.yul\":737:747   */\n  0x4e487b71\n    /* \"#utility.yul\":732:735   */\n  0xe0\n    /* \"#utility.yul\":728:748   */\n  shl\n    /* \"#utility.yul\":725:726   */\n  0x00\n    /* \"#utility.yul\":718:749   */\n  mstore\n    /* \"#utility.yul\":772:776   */\n  0x22\n    /* \"#utility.yul\":769:770   */\n  0x04\n    /* \"#utility.yul\":762:777   */\n  mstore\n    /* \"#utility.yul\":800:804   */\n  0x24\n    /* \"#utility.yul\":797:798   */\n  0x00\n    /* \"#utility.yul\":790:805   */\n  revert\n    /* \"#utility.yul\":654:815   */\ntag_32:\n  pop\n    /* \"#utility.yul\":441:821   */\n  swap2\n  swap1\n  pop\n  jump\t// out\n    /* \"#utility.yul\":952:1470   */\ntag_23:\n    /* \"#utility.yul\":1054:1056   */\n  0x1f\n    /* \"#utility.yul\":1049:1052   */\n  dup3\n    /* \"#utility.yul\":1046:1057   */\n  gt\n    /* \"#utility.yul\":1043:1464   */\n  iszero\n  tag_35\n  jumpi\n    /* \"#utility.yul\":1090:1095   */\n  dup1\n    /* \"#utility.yul\":1087:1088   */\n  0x00\n    /* \"#utility.yul\":1080:1096   */\n  mstore\n    /* \"#utility.yul\":1134:1138   */\n  0x20\n    /* \"#utility.yul\":1131:1132   */\n  0x00\n    /* \"#utility.yul\":1121:1139   */\n  keccak256\n    /* \"#utility.yul\":1204:1206   */\n  0x1f\n    /* \"#utility.yul\":1192:1202   */\n  dup5\n    /* \"#utility.yul\":1188:1207   */\n  add\n    /* \"#utility.yul\":1185:1186   */\n  0x05\n    /* \"#utility.yul\":1181:1208   */\n  shr\n    /* \"#utility.yul\":1175:1179   */\n  dup2\n    /* \"#utility.yul\":1171:1209   */\n  add\n    /* \"#utility.yul\":1240:1244   */\n  0x20\n    /* \"#utility.yul\":1228:1238   */\n  dup6\n    /* \"#utility.yul\":1225:1245   */\n  lt\n    /* \"#utility.yul\":1222:1269   */\n  iszero\n  tag_36\n  jumpi\n  pop\n    /* \"#utility.yul\":1263:1267   */\n  dup1\n    /* \"#utility.yul\":1222:1269   */\ntag_36:\n    /* \"#utility.yul\":1318:1320   */\n  0x1f\n    /* \"#utility.yul\":1313:1316   */\n  dup5\n    /* \"#utility.yul\":1309:1321   */\n  add\n    /* \"#utility.yul\":1306:1307   */\n  0x05\n    /* \"#utility.yul\":1302:1322   */\n  shr\n    /* \"#utility.yul\":1296:1300   */\n  dup3\n    /* \"#utility.yul\":1292:1323   */\n  add\n    /* \"#utility.yul\":1282:1323   */\n  swap2\n  pop\n    /* \"#utility.yul\":1373:1454   */\ntag_37:\n    /* \"#utility.yul\":1391:1393   */\n  dup2\n    /* \"#utility.yul\":1384:1389   */\n  dup2\n    /* \"#utility.yul\":1381:1394   */\n  lt\n    /* \"#utility.yul\":1373:1454   */\n  iszero\n  tag_39\n  jumpi\n    /* \"#utility.yul\":1450:1451   */\n  0x00\n    /* \"#utility.yul\":1436:1452   */\n  dup2\n  sstore\n    /* \"#utility.yul\":1417:1418   */\n  0x01\n    /* \"#utility.yul\":1406:1419   */\n  add\n    /* \"#utility.yul\":1373:1454   */\n  jump(tag_37)\ntag_39:\n    /* \"#utility.yul\":1377:1380   */\n  pop\n  pop\n    /* \"#utility.yul\":1043:1464   */\ntag_35:\n    /* \"#utility.yul\":952:1470   */\n  pop\n  pop\n  pop\n  jump\t// out\n    /* \"#utility.yul\":1646:2945   */\ntag_9:\n    /* \"#utility.yul\":1766:1776   */\n  dup2\n  mload\n  sub(shl(0x40, 0x01), 0x01)\n    /* \"#utility.yul\":1788:1818   */\n  dup2\n  gt\n    /* \"#utility.yul\":1785:1841   */\n  iszero\n  tag_43\n  jumpi\n    /* \"#utility.yul\":1821:1839   */\n  tag_43\n  tag_20\n  jump\t// in\ntag_43:\n    /* \"#utility.yul\":1850:1947   */\n  tag_44\n    /* \"#utility.yul\":1940:1946   */\n  dup2\n    /* \"#utility.yul\":1900:1938   */\n  tag_45\n    /* \"#utility.yul\":1932:1936   */\n  dup5\n    /* \"#utility.yul\":1926:1937   */\n  sload\n    /* \"#utility.yul\":1900:1938   */\n  tag_21\n  jump\t// in\ntag_45:\n    /* \"#utility.yul\":1894:1898   */\n  dup5\n    /* \"#utility.yul\":1850:1947   */\n  tag_23\n  jump\t// in\ntag_44:\n    /* \"#utility.yul\":1996:2000   */\n  0x20\n    /* \"#utility.yul\":2027:2029   */\n  0x1f\n    /* \"#utility.yul\":2016:2030   */\n  dup3\n  gt\n    /* \"#utility.yul\":2044:2045   */\n  0x01\n    /* \"#utility.yul\":2039:2688   */\n  dup2\n  eq\n  tag_47\n  jumpi\n    /* \"#utility.yul\":2732:2733   */\n  0x00\n    /* \"#utility.yul\":2749:2755   */\n  dup4\n    /* \"#utility.yul\":2746:2835   */\n  iszero\n  tag_48\n  jumpi\n  pop\n    /* \"#utility.yul\":2801:2820   */\n  dup5\n  dup3\n  add\n    /* \"#utility.yul\":2795:2821   */\n  mload\n    /* \"#utility.yul\":2746:2835   */\ntag_48:\n  not(0x00)\n    /* \"#utility.yul\":1603:1604   */\n  0x03\n    /* \"#utility.yul\":1599:1610   */\n  dup6\n  swap1\n  shl\n    /* \"#utility.yul\":1595:1619   */\n  shr\n    /* \"#utility.yul\":1591:1620   */\n  not\n    /* \"#utility.yul\":1581:1621   */\n  and\n    /* \"#utility.yul\":1627:1628   */\n  0x01\n    /* \"#utility.yul\":1623:1634   */\n  dup5\n  swap1\n  shl\n    /* \"#utility.yul\":1578:1635   */\n  or\n    /* \"#utility.yul\":2848:2929   */\n  dup5\n  sstore\n    /* \"#utility.yul\":2009:2939   */\n  jump(tag_39)\n    /* \"#utility.yul\":2039:2688   */\ntag_47:\n    /* \"#utility.yul\":899:900   */\n  0x00\n    /* \"#utility.yul\":892:906   */\n  dup5\n  dup2\n  mstore\n    /* \"#utility.yul\":936:940   */\n  0x20\n    /* \"#utility.yul\":923:941   */\n  dup2\n  keccak256\n  not(0x1f)\n    /* \"#utility.yul\":2075:2095   */\n  dup6\n  and\n  swap2\n    /* \"#utility.yul\":2193:2415   */\ntag_51:\n    /* \"#utility.yul\":2207:2214   */\n  dup3\n    /* \"#utility.yul\":2204:2205   */\n  dup2\n    /* \"#utility.yul\":2201:2215   */\n  lt\n    /* \"#utility.yul\":2193:2415   */\n  iszero\n  tag_53\n  jumpi\n    /* \"#utility.yul\":2289:2308   */\n  dup8\n  dup6\n  add\n    /* \"#utility.yul\":2283:2309   */\n  mload\n    /* \"#utility.yul\":2268:2310   */\n  dup3\n  sstore\n    /* \"#utility.yul\":2396:2400   */\n  0x20\n    /* \"#utility.yul\":2381:2401   */\n  swap5\n  dup6\n  add\n  swap5\n    /* \"#utility.yul\":2349:2350   */\n  0x01\n    /* \"#utility.yul\":2337:2351   */\n  swap1\n  swap3\n  add\n  swap2\n    /* \"#utility.yul\":2223:2235   */\n  add\n    /* \"#utility.yul\":2193:2415   */\n  jump(tag_51)\ntag_53:\n    /* \"#utility.yul\":2197:2200   */\n  pop\n    /* \"#utility.yul\":2443:2449   */\n  dup5\n    /* \"#utility.yul\":2434:2441   */\n  dup3\n    /* \"#utility.yul\":2431:2450   */\n  lt\n    /* \"#utility.yul\":2428:2629   */\n  iszero\n  tag_54\n  jumpi\n    /* \"#utility.yul\":2504:2523   */\n  dup7\n  dup5\n  add\n    /* \"#utility.yul\":2498:2524   */\n  mload\n  not(0x00)\n    /* \"#utility.yul\":2587:2588   */\n  0x03\n    /* \"#utility.yul\":2583:2597   */\n  dup8\n  swap1\n  shl\n    /* \"#utility.yul\":2599:2602   */\n  0xf8\n    /* \"#utility.yul\":2579:2603   */\n  and\n    /* \"#utility.yul\":2575:2612   */\n  shr\n    /* \"#utility.yul\":2571:2613   */\n  not\n    /* \"#utility.yul\":2556:2614   */\n  and\n    /* \"#utility.yul\":2541:2615   */\n  dup2\n  sstore\n    /* \"#utility.yul\":2428:2629   */\ntag_54:\n  pop\n  pop\n  pop\n  pop\n    /* \"#utility.yul\":2675:2676   */\n  0x01\n    /* \"#utility.yul\":2659:2673   */\n  swap1\n  dup2\n  shl\n    /* \"#utility.yul\":2655:2677   */\n  add\n    /* \"#utility.yul\":2642:2678   */\n  swap1\n  sstore\n  pop\n    /* \"#utility.yul\":1646:2945   */\n  jump\t// out\n    /* \"#utility.yul\":2950:3153   */\ntag_25:\n    /* \"contracts/Element of Soul/Land.sol\":585:5631  contract SuperVet is ERC721, ERC721URIStorage, Ownable {... */\n  dataSize(sub_0)\n  dup1\n  dataOffset(sub_0)\n  0x00\n  codecopy\n  0x00\n  return\nstop\n\nsub_0: assembly {\n        /* \"contracts/Element of Soul/Land.sol\":585:5631  contract SuperVet is ERC721, ERC721URIStorage, Ownable {... */\n      mstore(0x40, 0x80)\n      callvalue\n      dup1\n      iszero\n      tag_1\n      jumpi\n      0x00\n      dup1\n      revert\n    tag_1:\n      pop\n      jumpi(tag_2, lt(calldatasize, 0x04))\n      shr(0xe0, calldataload(0x00))\n      dup1\n      0x8ad91345\n      gt\n      tag_29\n      jumpi\n      dup1\n      0xb88d4fde\n      gt\n      tag_30\n      jumpi\n      dup1\n      0xe985e9c5\n      gt\n      tag_31\n      jumpi\n      dup1\n      0xe985e9c5\n      eq\n      tag_25\n      jumpi\n      dup1\n      0xf1537686\n      eq\n      tag_26\n      jumpi\n      dup1\n      0xf2fde38b\n      eq\n      tag_27\n      jumpi\n      dup1\n      0xfbbffcb0\n      eq\n      tag_28\n      jumpi\n      0x00\n      dup1\n      revert\n    tag_31:\n      dup1\n      0xb88d4fde\n      eq\n      tag_22\n      jumpi\n      dup1\n      0xc87b56dd\n      eq\n      tag_23\n      jumpi\n      dup1\n      0xd936547e\n      eq\n      tag_24\n      jumpi\n      0x00\n      dup1\n      revert\n    tag_30:\n      dup1\n      0x8ad91345\n      eq\n      tag_16\n      jumpi\n      dup1\n      0x8da5cb5b\n      eq\n      tag_17\n      jumpi\n      dup1\n      0x95d89b41\n      eq\n      tag_18\n      jumpi\n      dup1\n      0x9a590427\n      eq\n      tag_19\n      jumpi\n      dup1\n      0x9b19251a\n      eq\n      tag_20\n      jumpi\n      dup1\n      0xa22cb465\n      eq\n      tag_21\n      jumpi\n      0x00\n      dup1\n      revert\n    tag_29:\n      dup1\n      0x23b872dd\n      gt\n      tag_32\n      jumpi\n      dup1\n      0x695850fb\n      gt\n      tag_33\n      jumpi\n      dup1\n      0x695850fb\n      eq\n      tag_12\n      jumpi\n      dup1\n      0x6e0cee09\n      eq\n      tag_13\n      jumpi\n      dup1\n      0x70a08231\n      eq\n      tag_14\n      jumpi\n      dup1\n      0x715018a6\n      eq\n      tag_15\n      jumpi\n      0x00\n      dup1\n      revert\n    tag_33:\n      dup1\n      0x23b872dd\n      eq\n      tag_9\n      jumpi\n      dup1\n      0x42842e0e\n      eq\n      tag_10\n      jumpi\n      dup1\n      0x6352211e\n      eq\n      tag_11\n      jumpi\n      0x00\n      dup1\n      revert\n    tag_32:\n      dup1\n      0x01ffc9a7\n      eq\n      tag_3\n      jumpi\n      dup1\n      0x05d85eda\n      eq\n      tag_4\n      jumpi\n      dup1\n      0x06fdde03\n      eq\n      tag_5\n      jumpi\n      dup1\n      0x081812fc\n      eq\n      tag_6\n      jumpi\n      dup1\n      0x095ea7b3\n      eq\n      tag_7\n      jumpi\n      dup1\n      0x2295370a\n      eq\n      tag_8\n      jumpi\n    tag_2:\n      0x00\n      dup1\n      revert\n        /* \"contracts/Element of Soul/Land.sol\":5424:5629  function supportsInterface(bytes4 interfaceId)... */\n    tag_3:\n      tag_34\n      tag_35\n      calldatasize\n      0x04\n      tag_36\n      jump\t// in\n    tag_35:\n      tag_37\n      jump\t// in\n    tag_34:\n      mload(0x40)\n        /* \"#utility.yul\":565:579   */\n      swap1\n      iszero\n        /* \"#utility.yul\":558:580   */\n      iszero\n        /* \"#utility.yul\":540:581   */\n      dup2\n      mstore\n        /* \"#utility.yul\":528:530   */\n      0x20\n        /* \"#utility.yul\":513:531   */\n      add\n        /* \"contracts/Element of Soul/Land.sol\":5424:5629  function supportsInterface(bytes4 interfaceId)... */\n    tag_38:\n      mload(0x40)\n      dup1\n      swap2\n      sub\n      swap1\n      return\n        /* \"contracts/Element of Soul/Land.sol\":1192:1229  mapping(address => uint) public count */\n    tag_4:\n      tag_40\n      tag_41\n      calldatasize\n      0x04\n      tag_42\n      jump\t// in\n    tag_41:\n      mstore(0x20, 0x0a)\n      0x00\n      swap1\n      dup2\n      mstore\n      0x40\n      swap1\n      keccak256\n      sload\n      dup2\n      jump\n    tag_40:\n      mload(0x40)\n        /* \"#utility.yul\":1107:1132   */\n      swap1\n      dup2\n      mstore\n        /* \"#utility.yul\":1095:1097   */\n      0x20\n        /* \"#utility.yul\":1080:1098   */\n      add\n        /* \"contracts/Element of Soul/Land.sol\":1192:1229  mapping(address => uint) public count */\n      tag_38\n        /* \"#utility.yul\":961:1138   */\n      jump\n        /* \"@openzeppelin/contracts/token/ERC721/ERC721.sol\":2366:2455  function name() public view virtual returns (string memory) {... */\n    tag_5:\n      tag_46\n      tag_47\n      jump\t// in\n    tag_46:\n      mload(0x40)\n      tag_38\n      swap2\n      swap1\n      tag_49\n      jump\t// in\n        /* \"@openzeppelin/contracts/token/ERC721/ERC721.sol\":3498:3652  function getApproved(uint256 tokenId) public view virtual returns (address) {... */\n    tag_6:\n      tag_50\n      tag_51\n      calldatasize\n      0x04\n      tag_52\n      jump\t// in\n    tag_51:\n      tag_53\n      jump\t// in\n    tag_50:\n      mload(0x40)\n      sub(shl(0xa0, 0x01), 0x01)\n        /* \"#utility.yul\":2294:2326   */\n      swap1\n      swap2\n      and\n        /* \"#utility.yul\":2276:2327   */\n      dup2\n      mstore\n        /* \"#utility.yul\":2264:2266   */\n      0x20\n        /* \"#utility.yul\":2249:2267   */\n      add\n        /* \"@openzeppelin/contracts/token/ERC721/ERC721.sol\":3498:3652  function getApproved(uint256 tokenId) public view virtual returns (address) {... */\n      tag_38\n        /* \"#utility.yul\":2130:2333   */\n      jump\n        /* \"@openzeppelin/contracts/token/ERC721/ERC721.sol\":3324:3437  function approve(address to, uint256 tokenId) public virtual {... */\n    tag_7:\n      tag_56\n      tag_57\n      calldatasize\n      0x04\n      tag_58\n      jump\t// in\n    tag_57:\n      tag_59\n      jump\t// in\n    tag_56:\n      stop\n        /* \"contracts/Element of Soul/Land.sol\":1284:1322  mapping(uint => NFT) public NftMinting */\n    tag_8:\n      tag_60\n      tag_61\n      calldatasize\n      0x04\n      tag_52\n      jump\t// in\n    tag_61:\n      tag_62\n      jump\t// in\n    tag_60:\n      mload(0x40)\n      tag_38\n      swap6\n      swap5\n      swap4\n      swap3\n      swap2\n      swap1\n      tag_64\n      jump\t// in\n        /* \"@openzeppelin/contracts/token/ERC721/ERC721.sol\":4144:4722  function transferFrom(address from, address to, uint256 tokenId) public virtual {... */\n    tag_9:\n      tag_56\n      tag_66\n      calldatasize\n      0x04\n      tag_67\n      jump\t// in\n    tag_66:\n      tag_68\n      jump\t// in\n        /* \"@openzeppelin/contracts/token/ERC721/ERC721.sol\":4788:4920  function safeTransferFrom(address from, address to, uint256 tokenId) public {... */\n    tag_10:\n      tag_56\n      tag_70\n      calldatasize\n      0x04\n      tag_67\n      jump\t// in\n    tag_70:\n      tag_71\n      jump\t// in\n        /* \"@openzeppelin/contracts/token/ERC721/ERC721.sol\":2186:2304  function ownerOf(uint256 tokenId) public view virtual returns (address) {... */\n    tag_11:\n      tag_50\n      tag_73\n      calldatasize\n      0x04\n      tag_52\n      jump\t// in\n    tag_73:\n      tag_74\n      jump\t// in\n        /* \"contracts/Element of Soul/Land.sol\":2478:2972  function safeMint(string memory uri) public {... */\n    tag_12:\n      tag_56\n      tag_77\n      calldatasize\n      0x04\n      tag_78\n      jump\t// in\n    tag_77:\n      tag_79\n      jump\t// in\n        /* \"contracts/Element of Soul/Land.sol\":4046:4474  function updateTokenId(address _to,uint _tokenId,address _seller) public {... */\n    tag_13:\n      tag_56\n      tag_81\n      calldatasize\n      0x04\n      tag_82\n      jump\t// in\n    tag_81:\n      tag_83\n      jump\t// in\n        /* \"@openzeppelin/contracts/token/ERC721/ERC721.sol\":1921:2129  function balanceOf(address owner) public view virtual returns (uint256) {... */\n    tag_14:\n      tag_40\n      tag_85\n      calldatasize\n      0x04\n      tag_42\n      jump\t// in\n    tag_85:\n      tag_86\n      jump\t// in\n        /* \"@openzeppelin/contracts/access/Ownable.sol\":2293:2394  function renounceOwnership() public virtual onlyOwner {... */\n    tag_15:\n      tag_56\n      tag_89\n      jump\t// in\n        /* \"contracts/Element of Soul/Land.sol\":4650:4763  function getTokenUri(uint tokenId) external view returns(string memory) {... */\n    tag_16:\n      tag_46\n      tag_91\n      calldatasize\n      0x04\n      tag_52\n      jump\t// in\n    tag_91:\n      tag_92\n      jump\t// in\n        /* \"@openzeppelin/contracts/access/Ownable.sol\":1638:1723  function owner() public view virtual returns (address) {... */\n    tag_17:\n        /* \"@openzeppelin/contracts/access/Ownable.sol\":1710:1716  _owner */\n      and(sub(shl(0xa0, 0x01), 0x01), sload(0x07))\n        /* \"@openzeppelin/contracts/access/Ownable.sol\":1638:1723  function owner() public view virtual returns (address) {... */\n      jump(tag_50)\n        /* \"@openzeppelin/contracts/token/ERC721/ERC721.sol\":2519:2612  function symbol() public view virtual returns (string memory) {... */\n    tag_18:\n      tag_46\n      tag_98\n      jump\t// in\n        /* \"contracts/Element of Soul/Land.sol\":2195:2303  function unwhitelist(address _authorized) public onlyOwner {... */\n    tag_19:\n      tag_56\n      tag_101\n      calldatasize\n      0x04\n      tag_42\n      jump\t// in\n    tag_101:\n      tag_102\n      jump\t// in\n        /* \"contracts/Element of Soul/Land.sol\":1907:2012  function whitelist(address _authorized) public onlyOwner {... */\n    tag_20:\n      tag_56\n      tag_104\n      calldatasize\n      0x04\n      tag_42\n      jump\t// in\n    tag_104:\n      tag_105\n      jump\t// in\n        /* \"@openzeppelin/contracts/token/ERC721/ERC721.sol\":3719:3863  function setApprovalForAll(address operator, bool approved) public virtual {... */\n    tag_21:\n      tag_56\n      tag_107\n      calldatasize\n      0x04\n      tag_108\n      jump\t// in\n    tag_107:\n      tag_109\n      jump\t// in\n        /* \"@openzeppelin/contracts/token/ERC721/ERC721.sol\":4986:5194  function safeTransferFrom(address from, address to, uint256 tokenId, bytes memory data) public virtual {... */\n    tag_22:\n      tag_56\n      tag_111\n      calldatasize\n      0x04\n      tag_112\n      jump\t// in\n    tag_111:\n      tag_113\n      jump\t// in\n        /* \"contracts/Element of Soul/Land.sol\":4973:5162  function tokenURI(uint256 tokenId)... */\n    tag_23:\n      tag_46\n      tag_115\n      calldatasize\n      0x04\n      tag_52\n      jump\t// in\n    tag_115:\n      tag_116\n      jump\t// in\n        /* \"contracts/Element of Soul/Land.sol\":1368:1411  mapping(address => bool) public whitelisted */\n    tag_24:\n      tag_34\n      tag_119\n      calldatasize\n      0x04\n      tag_42\n      jump\t// in\n    tag_119:\n      mstore(0x20, 0x0c)\n      0x00\n      swap1\n      dup2\n      mstore\n      0x40\n      swap1\n      keccak256\n      sload\n      0xff\n      and\n      dup2\n      jump\n        /* \"@openzeppelin/contracts/token/ERC721/ERC721.sol\":3929:4082  function isApprovedForAll(address owner, address operator) public view virtual returns (bool) {... */\n    tag_25:\n      tag_34\n      tag_123\n      calldatasize\n      0x04\n      tag_124\n      jump\t// in\n    tag_123:\n      tag_125\n      jump\t// in\n        /* \"contracts/Element of Soul/Land.sol\":3088:3410  function getTokenId(address _seller) public view returns(NFT[] memory) {... */\n    tag_26:\n      tag_127\n      tag_128\n      calldatasize\n      0x04\n      tag_42\n      jump\t// in\n    tag_128:\n      tag_129\n      jump\t// in\n    tag_127:\n      mload(0x40)\n      tag_38\n      swap2\n      swap1\n      tag_131\n      jump\t// in\n        /* \"@openzeppelin/contracts/access/Ownable.sol\":2543:2758  function transferOwnership(address newOwner) public virtual onlyOwner {... */\n    tag_27:\n      tag_56\n      tag_133\n      calldatasize\n      0x04\n      tag_42\n      jump\t// in\n    tag_133:\n      tag_134\n      jump\t// in\n        /* \"contracts/Element of Soul/Land.sol\":1075:1129  mapping(address => mapping(uint => uint)) public NftId */\n    tag_28:\n      tag_40\n      tag_136\n      calldatasize\n      0x04\n      tag_58\n      jump\t// in\n    tag_136:\n      0x09\n      0x20\n      swap1\n      dup2\n      mstore\n      0x00\n      swap3\n      dup4\n      mstore\n      0x40\n      dup1\n      dup5\n      keccak256\n      swap1\n      swap2\n      mstore\n      swap1\n      dup3\n      mstore\n      swap1\n      keccak256\n      sload\n      dup2\n      jump\n        /* \"contracts/Element of Soul/Land.sol\":5424:5629  function supportsInterface(bytes4 interfaceId)... */\n    tag_37:\n        /* \"contracts/Element of Soul/Land.sol\":5559:5563  bool */\n      0x00\n        /* \"contracts/Element of Soul/Land.sol\":5586:5622  super.supportsInterface(interfaceId) */\n      tag_140\n        /* \"contracts/Element of Soul/Land.sol\":5610:5621  interfaceId */\n      dup3\n        /* \"contracts/Element of Soul/Land.sol\":5586:5609  super.supportsInterface */\n      tag_141\n        /* \"contracts/Element of Soul/Land.sol\":5586:5622  super.supportsInterface(interfaceId) */\n      jump\t// in\n    tag_140:\n        /* \"contracts/Element of Soul/Land.sol\":5579:5622  return super.supportsInterface(interfaceId) */\n      swap3\n        /* \"contracts/Element of Soul/Land.sol\":5424:5629  function supportsInterface(bytes4 interfaceId)... */\n      swap2\n      pop\n      pop\n      jump\t// out\n        /* \"@openzeppelin/contracts/token/ERC721/ERC721.sol\":2366:2455  function name() public view virtual returns (string memory) {... */\n    tag_47:\n        /* \"@openzeppelin/contracts/token/ERC721/ERC721.sol\":2411:2424  string memory */\n      0x60\n        /* \"@openzeppelin/contracts/token/ERC721/ERC721.sol\":2443:2448  _name */\n      0x00\n        /* \"@openzeppelin/contracts/token/ERC721/ERC721.sol\":2436:2448  return _name */\n      dup1\n      sload\n      tag_143\n      swap1\n      tag_144\n      jump\t// in\n    tag_143:\n      dup1\n      0x1f\n      add\n      0x20\n      dup1\n      swap2\n      div\n      mul\n      0x20\n      add\n      mload(0x40)\n      swap1\n      dup2\n      add\n      0x40\n      mstore\n      dup1\n      swap3\n      swap2\n      swap1\n      dup2\n      dup2\n      mstore\n      0x20\n      add\n      dup3\n      dup1\n      sload\n      tag_145\n      swap1\n      tag_144\n      jump\t// in\n    tag_145:\n      dup1\n      iszero\n      tag_146\n      jumpi\n      dup1\n      0x1f\n      lt\n      tag_147\n      jumpi\n      0x0100\n      dup1\n      dup4\n      sload\n      div\n      mul\n      dup4\n      mstore\n      swap2\n      0x20\n      add\n      swap2\n      jump(tag_146)\n    tag_147:\n      dup3\n      add\n      swap2\n      swap1\n      0x00\n      mstore\n      keccak256(0x00, 0x20)\n      swap1\n    tag_148:\n      dup2\n      sload\n      dup2\n      mstore\n      swap1\n      0x01\n      add\n      swap1\n      0x20\n      add\n      dup1\n      dup4\n      gt\n      tag_148\n      jumpi\n      dup3\n      swap1\n      sub\n      0x1f\n      and\n      dup3\n      add\n      swap2\n    tag_146:\n      pop\n      pop\n      pop\n      pop\n      pop\n      swap1\n      pop\n        /* \"@openzeppelin/contracts/token/ERC721/ERC721.sol\":2366:2455  function name() public view virtual returns (string memory) {... */\n      swap1\n      jump\t// out\n        /* \"@openzeppelin/contracts/token/ERC721/ERC721.sol\":3498:3652  function getApproved(uint256 tokenId) public view virtual returns (address) {... */\n    tag_53:\n        /* \"@openzeppelin/contracts/token/ERC721/ERC721.sol\":3565:3572  address */\n      0x00\n        /* \"@openzeppelin/contracts/token/ERC721/ERC721.sol\":3584:3606  _requireOwned(tokenId) */\n      tag_150\n        /* \"@openzeppelin/contracts/token/ERC721/ERC721.sol\":3598:3605  tokenId */\n      dup3\n        /* \"@openzeppelin/contracts/token/ERC721/ERC721.sol\":3584:3597  _requireOwned */\n      tag_151\n        /* \"@openzeppelin/contracts/token/ERC721/ERC721.sol\":3584:3606  _requireOwned(tokenId) */\n      jump\t// in\n    tag_150:\n      pop\n        /* \"@openzeppelin/contracts/token/ERC721/ERC721.sol\":6009:6016  address */\n      0x00\n        /* \"@openzeppelin/contracts/token/ERC721/ERC721.sol\":6035:6059  _tokenApprovals[tokenId] */\n      dup3\n      dup2\n      mstore\n        /* \"@openzeppelin/contracts/token/ERC721/ERC721.sol\":6035:6050  _tokenApprovals */\n      0x04\n        /* \"@openzeppelin/contracts/token/ERC721/ERC721.sol\":6035:6059  _tokenApprovals[tokenId] */\n      0x20\n      mstore\n      0x40\n      swap1\n      keccak256\n      sload\n      sub(shl(0xa0, 0x01), 0x01)\n      and\n        /* \"@openzeppelin/contracts/token/ERC721/ERC721.sol\":3624:3645  _getApproved(tokenId) */\n      tag_140\n        /* \"@openzeppelin/contracts/token/ERC721/ERC721.sol\":5939:6066  function _getApproved(uint256 tokenId) internal view virtual returns (address) {... */\n      jump\n        /* \"@openzeppelin/contracts/token/ERC721/ERC721.sol\":3324:3437  function approve(address to, uint256 tokenId) public virtual {... */\n    tag_59:\n        /* \"@openzeppelin/contracts/token/ERC721/ERC721.sol\":3395:3430  _approve(to, tokenId, _msgSender()) */\n      tag_155\n        /* \"@openzeppelin/contracts/token/ERC721/ERC721.sol\":3404:3406  to */\n      dup3\n        /* \"@openzeppelin/contracts/token/ERC721/ERC721.sol\":3408:3415  tokenId */\n      dup3\n        /* \"@openzeppelin/contracts/utils/Context.sol\":735:745  msg.sender */\n      caller\n        /* \"@openzeppelin/contracts/token/ERC721/ERC721.sol\":3395:3403  _approve */\n      tag_158\n        /* \"@openzeppelin/contracts/token/ERC721/ERC721.sol\":3395:3430  _approve(to, tokenId, _msgSender()) */\n      jump\t// in\n    tag_155:\n        /* \"@openzeppelin/contracts/token/ERC721/ERC721.sol\":3324:3437  function approve(address to, uint256 tokenId) public virtual {... */\n      pop\n      pop\n      jump\t// out\n        /* \"contracts/Element of Soul/Land.sol\":1284:1322  mapping(uint => NFT) public NftMinting */\n    tag_62:\n      mstore(0x20, 0x0b)\n      0x00\n      swap1\n      dup2\n      mstore\n      0x40\n      swap1\n      keccak256\n      dup1\n      sload\n      0x01\n      dup3\n      add\n      sload\n      0x02\n      dup4\n      add\n      dup1\n      sload\n      swap3\n      swap4\n      swap2\n      swap3\n      tag_159\n      swap1\n      tag_144\n      jump\t// in\n    tag_159:\n      dup1\n      0x1f\n      add\n      0x20\n      dup1\n      swap2\n      div\n      mul\n      0x20\n      add\n      mload(0x40)\n      swap1\n      dup2\n      add\n      0x40\n      mstore\n      dup1\n      swap3\n      swap2\n      swap1\n      dup2\n      dup2\n      mstore\n      0x20\n      add\n      dup3\n      dup1\n      sload\n      tag_160\n      swap1\n      tag_144\n      jump\t// in\n    tag_160:\n      dup1\n      iszero\n      tag_161\n      jumpi\n      dup1\n      0x1f\n      lt\n      tag_162\n      jumpi\n      0x0100\n      dup1\n      dup4\n      sload\n      div\n      mul\n      dup4\n      mstore\n      swap2\n      0x20\n      add\n      swap2\n      jump(tag_161)\n    tag_162:\n      dup3\n      add\n      swap2\n      swap1\n      0x00\n      mstore\n      keccak256(0x00, 0x20)\n      swap1\n    tag_163:\n      dup2\n      sload\n      dup2\n      mstore\n      swap1\n      0x01\n      add\n      swap1\n      0x20\n      add\n      dup1\n      dup4\n      gt\n      tag_163\n      jumpi\n      dup3\n      swap1\n      sub\n      0x1f\n      and\n      dup3\n      add\n      swap2\n    tag_161:\n      pop\n      pop\n      pop\n      pop\n      0x03\n      dup4\n      add\n      sload\n      0x04\n      swap1\n      swap4\n      add\n      sload\n      swap2\n      swap3\n      swap2\n      0xff\n      and\n      swap1\n      pop\n      dup6\n      jump\t// out\n        /* \"@openzeppelin/contracts/token/ERC721/ERC721.sol\":4144:4722  function transferFrom(address from, address to, uint256 tokenId) public virtual {... */\n    tag_68:\n      sub(shl(0xa0, 0x01), 0x01)\n        /* \"@openzeppelin/contracts/token/ERC721/ERC721.sol\":4238:4254  to == address(0) */\n      dup3\n      and\n        /* \"@openzeppelin/contracts/token/ERC721/ERC721.sol\":4234:4321  if (to == address(0)) {... */\n      tag_165\n      jumpi\n        /* \"@openzeppelin/contracts/token/ERC721/ERC721.sol\":4277:4310  ERC721InvalidReceiver(address(0)) */\n      mload(0x40)\n      shl(0xe1, 0x32505749)\n      dup2\n      mstore\n        /* \"@openzeppelin/contracts/token/ERC721/ERC721.sol\":4307:4308  0 */\n      0x00\n        /* \"@openzeppelin/contracts/token/ERC721/ERC721.sol\":4277:4310  ERC721InvalidReceiver(address(0)) */\n      0x04\n      dup3\n      add\n        /* \"#utility.yul\":2276:2327   */\n      mstore\n        /* \"#utility.yul\":2249:2267   */\n      0x24\n      add\n        /* \"@openzeppelin/contracts/token/ERC721/ERC721.sol\":4277:4310  ERC721InvalidReceiver(address(0)) */\n    tag_166:\n      mload(0x40)\n      dup1\n      swap2\n      sub\n      swap1\n      revert\n        /* \"@openzeppelin/contracts/token/ERC721/ERC721.sol\":4234:4321  if (to == address(0)) {... */\n    tag_165:\n        /* \"@openzeppelin/contracts/token/ERC721/ERC721.sol\":4539:4560  address previousOwner */\n      0x00\n        /* \"@openzeppelin/contracts/token/ERC721/ERC721.sol\":4563:4597  _update(to, tokenId, _msgSender()) */\n      tag_167\n        /* \"@openzeppelin/contracts/token/ERC721/ERC721.sol\":4571:4573  to */\n      dup4\n        /* \"@openzeppelin/contracts/token/ERC721/ERC721.sol\":4575:4582  tokenId */\n      dup4\n        /* \"@openzeppelin/contracts/utils/Context.sol\":735:745  msg.sender */\n      caller\n        /* \"@openzeppelin/contracts/token/ERC721/ERC721.sol\":4563:4570  _update */\n      tag_169\n        /* \"@openzeppelin/contracts/token/ERC721/ERC721.sol\":4563:4597  _update(to, tokenId, _msgSender()) */\n      jump\t// in\n    tag_167:\n        /* \"@openzeppelin/contracts/token/ERC721/ERC721.sol\":4539:4597  address previousOwner = _update(to, tokenId, _msgSender()) */\n      swap1\n      pop\n        /* \"@openzeppelin/contracts/token/ERC721/ERC721.sol\":4628:4632  from */\n      dup4\n      sub(shl(0xa0, 0x01), 0x01)\n        /* \"@openzeppelin/contracts/token/ERC721/ERC721.sol\":4611:4632  previousOwner != from */\n      and\n        /* \"@openzeppelin/contracts/token/ERC721/ERC721.sol\":4611:4624  previousOwner */\n      dup2\n      sub(shl(0xa0, 0x01), 0x01)\n        /* \"@openzeppelin/contracts/token/ERC721/ERC721.sol\":4611:4632  previousOwner != from */\n      and\n      eq\n        /* \"@openzeppelin/contracts/token/ERC721/ERC721.sol\":4607:4716  if (previousOwner != from) {... */\n      tag_170\n      jumpi\n        /* \"@openzeppelin/contracts/token/ERC721/ERC721.sol\":4655:4705  ERC721IncorrectOwner(from, tokenId, previousOwner) */\n      mload(0x40)\n      shl(0xe0, 0x64283d7b)\n      dup2\n      mstore\n      sub(shl(0xa0, 0x01), 0x01)\n        /* \"#utility.yul\":8383:8415   */\n      dup1\n      dup7\n      and\n        /* \"@openzeppelin/contracts/token/ERC721/ERC721.sol\":4655:4705  ERC721IncorrectOwner(from, tokenId, previousOwner) */\n      0x04\n      dup4\n      add\n        /* \"#utility.yul\":8365:8416   */\n      mstore\n        /* \"#utility.yul\":8432:8450   */\n      0x24\n      dup3\n      add\n        /* \"#utility.yul\":8425:8459   */\n      dup5\n      swap1\n      mstore\n        /* \"#utility.yul\":8495:8527   */\n      dup3\n      and\n        /* \"#utility.yul\":8475:8493   */\n      0x44\n      dup3\n      add\n        /* \"#utility.yul\":8468:8528   */\n      mstore\n        /* \"#utility.yul\":8338:8356   */\n      0x64\n      add\n        /* \"@openzeppelin/contracts/token/ERC721/ERC721.sol\":4655:4705  ERC721IncorrectOwner(from, tokenId, previousOwner) */\n      tag_166\n        /* \"#utility.yul\":8163:8534   */\n      jump\n        /* \"@openzeppelin/contracts/token/ERC721/ERC721.sol\":4607:4716  if (previousOwner != from) {... */\n    tag_170:\n        /* \"@openzeppelin/contracts/token/ERC721/ERC721.sol\":4224:4722  {... */\n      pop\n        /* \"@openzeppelin/contracts/token/ERC721/ERC721.sol\":4144:4722  function transferFrom(address from, address to, uint256 tokenId) public virtual {... */\n      pop\n      pop\n      pop\n      jump\t// out\n        /* \"@openzeppelin/contracts/token/ERC721/ERC721.sol\":4788:4920  function safeTransferFrom(address from, address to, uint256 tokenId) public {... */\n    tag_71:\n        /* \"@openzeppelin/contracts/token/ERC721/ERC721.sol\":4874:4913  safeTransferFrom(from, to, tokenId, \"\") */\n      tag_174\n        /* \"@openzeppelin/contracts/token/ERC721/ERC721.sol\":4891:4895  from */\n      dup4\n        /* \"@openzeppelin/contracts/token/ERC721/ERC721.sol\":4897:4899  to */\n      dup4\n        /* \"@openzeppelin/contracts/token/ERC721/ERC721.sol\":4901:4908  tokenId */\n      dup4\n        /* \"@openzeppelin/contracts/token/ERC721/ERC721.sol\":4874:4913  safeTransferFrom(from, to, tokenId, \"\") */\n      mload(0x40)\n      dup1\n      0x20\n      add\n      0x40\n      mstore\n      dup1\n      0x00\n      dup2\n      mstore\n      pop\n        /* \"@openzeppelin/contracts/token/ERC721/ERC721.sol\":4874:4890  safeTransferFrom */\n      tag_113\n        /* \"@openzeppelin/contracts/token/ERC721/ERC721.sol\":4874:4913  safeTransferFrom(from, to, tokenId, \"\") */\n      jump\t// in\n    tag_174:\n        /* \"@openzeppelin/contracts/token/ERC721/ERC721.sol\":4788:4920  function safeTransferFrom(address from, address to, uint256 tokenId) public {... */\n      pop\n      pop\n      pop\n      jump\t// out\n        /* \"@openzeppelin/contracts/token/ERC721/ERC721.sol\":2186:2304  function ownerOf(uint256 tokenId) public view virtual returns (address) {... */\n    tag_74:\n        /* \"@openzeppelin/contracts/token/ERC721/ERC721.sol\":2249:2256  address */\n      0x00\n        /* \"@openzeppelin/contracts/token/ERC721/ERC721.sol\":2275:2297  _requireOwned(tokenId) */\n      tag_140\n        /* \"@openzeppelin/contracts/token/ERC721/ERC721.sol\":2289:2296  tokenId */\n      dup3\n        /* \"@openzeppelin/contracts/token/ERC721/ERC721.sol\":2275:2288  _requireOwned */\n      tag_151\n        /* \"@openzeppelin/contracts/token/ERC721/ERC721.sol\":2275:2297  _requireOwned(tokenId) */\n      jump\t// in\n        /* \"contracts/Element of Soul/Land.sol\":2478:2972  function safeMint(string memory uri) public {... */\n    tag_79:\n        /* \"contracts/Element of Soul/Land.sol\":2552:2562  msg.sender */\n      caller\n        /* \"contracts/Element of Soul/Land.sol\":2540:2563  whitelisted[msg.sender] */\n      0x00\n      swap1\n      dup2\n      mstore\n        /* \"contracts/Element of Soul/Land.sol\":2540:2551  whitelisted */\n      0x0c\n        /* \"contracts/Element of Soul/Land.sol\":2540:2563  whitelisted[msg.sender] */\n      0x20\n      mstore\n      0x40\n      swap1\n      keccak256\n      sload\n      0xff\n      and\n        /* \"contracts/Element of Soul/Land.sol\":2532:2609  require(whitelisted[msg.sender], \"You are not authorized for minting land!!\") */\n      tag_178\n      jumpi\n      mload(0x40)\n      shl(0xe5, 0x461bcd)\n      dup2\n      mstore\n        /* \"#utility.yul\":8741:8743   */\n      0x20\n        /* \"contracts/Element of Soul/Land.sol\":2532:2609  require(whitelisted[msg.sender], \"You are not authorized for minting land!!\") */\n      0x04\n      dup3\n      add\n        /* \"#utility.yul\":8723:8744   */\n      mstore\n        /* \"#utility.yul\":8780:8782   */\n      0x29\n        /* \"#utility.yul\":8760:8778   */\n      0x24\n      dup3\n      add\n        /* \"#utility.yul\":8753:8783   */\n      mstore\n        /* \"#utility.yul\":8819:8853   */\n      0x596f7520617265206e6f7420617574686f72697a656420666f72206d696e7469\n        /* \"#utility.yul\":8799:8817   */\n      0x44\n      dup3\n      add\n        /* \"#utility.yul\":8792:8854   */\n      mstore\n      shl(0xb8, 0x6e67206c616e642121)\n        /* \"#utility.yul\":8870:8888   */\n      0x64\n      dup3\n      add\n        /* \"#utility.yul\":8863:8902   */\n      mstore\n        /* \"#utility.yul\":8919:8938   */\n      0x84\n      add\n        /* \"contracts/Element of Soul/Land.sol\":2532:2609  require(whitelisted[msg.sender], \"You are not authorized for minting land!!\") */\n      tag_166\n        /* \"#utility.yul\":8539:8944   */\n      jump\n        /* \"contracts/Element of Soul/Land.sol\":2532:2609  require(whitelisted[msg.sender], \"You are not authorized for minting land!!\") */\n    tag_178:\n        /* \"contracts/Element of Soul/Land.sol\":2619:2639  _itemsId.increment() */\n      tag_181\n        /* \"contracts/Element of Soul/Land.sol\":2619:2627  _itemsId */\n      0x08\n        /* \"@openzeppelin/contracts/utils/Counters.sol\":1032:1051  counter._value += 1 */\n      dup1\n      sload\n        /* \"@openzeppelin/contracts/utils/Counters.sol\":1050:1051  1 */\n      0x01\n        /* \"@openzeppelin/contracts/utils/Counters.sol\":1032:1051  counter._value += 1 */\n      add\n      swap1\n      sstore\n        /* \"@openzeppelin/contracts/utils/Counters.sol\":945:1068  function increment(Counter storage counter) internal {... */\n      jump\n        /* \"contracts/Element of Soul/Land.sol\":2619:2639  _itemsId.increment() */\n    tag_181:\n        /* \"contracts/Element of Soul/Land.sol\":2651:2668  uint256 newItemId */\n      0x00\n        /* \"contracts/Element of Soul/Land.sol\":2671:2689  _itemsId.current() */\n      tag_183\n        /* \"contracts/Element of Soul/Land.sol\":2671:2679  _itemsId */\n      0x08\n        /* \"@openzeppelin/contracts/utils/Counters.sol\":918:932  counter._value */\n      sload\n      swap1\n        /* \"@openzeppelin/contracts/utils/Counters.sol\":827:939  function current(Counter storage counter) internal view returns (uint256) {... */\n      jump\n        /* \"contracts/Element of Soul/Land.sol\":2671:2689  _itemsId.current() */\n    tag_183:\n        /* \"contracts/Element of Soul/Land.sol\":2707:2717  msg.sender */\n      caller\n        /* \"contracts/Element of Soul/Land.sol\":2701:2718  NftId[msg.sender] */\n      0x00\n      swap1\n      dup2\n      mstore\n        /* \"contracts/Element of Soul/Land.sol\":2701:2706  NftId */\n      0x09\n        /* \"contracts/Element of Soul/Land.sol\":2701:2718  NftId[msg.sender] */\n      0x20\n      swap1\n      dup2\n      mstore\n      0x40\n      dup1\n      dup4\n      keccak256\n        /* \"contracts/Element of Soul/Land.sol\":2719:2724  count */\n      0x0a\n        /* \"contracts/Element of Soul/Land.sol\":2719:2736  count[msg.sender] */\n      swap1\n      swap3\n      mstore\n      dup3\n      keccak256\n      sload\n        /* \"contracts/Element of Soul/Land.sol\":2651:2689  uint256 newItemId = _itemsId.current() */\n      swap3\n      swap4\n      pop\n      dup4\n      swap3\n        /* \"contracts/Element of Soul/Land.sol\":2701:2718  NftId[msg.sender] */\n      swap1\n      swap2\n      swap1\n        /* \"contracts/Element of Soul/Land.sol\":2719:2740  count[msg.sender] + 1 */\n      tag_185\n      swap1\n        /* \"contracts/Element of Soul/Land.sol\":2739:2740  1 */\n      0x01\n        /* \"contracts/Element of Soul/Land.sol\":2719:2740  count[msg.sender] + 1 */\n      tag_186\n      jump\t// in\n    tag_185:\n        /* \"contracts/Element of Soul/Land.sol\":2701:2741  NftId[msg.sender][count[msg.sender] + 1] */\n      dup2\n      mstore\n      0x20\n      dup1\n      dup3\n      add\n      swap3\n      swap1\n      swap3\n      mstore\n      0x40\n      swap1\n      dup2\n      add\n      0x00\n      swap1\n      dup2\n      keccak256\n        /* \"contracts/Element of Soul/Land.sol\":2701:2753  NftId[msg.sender][count[msg.sender] + 1] = newItemId */\n      swap4\n      swap1\n      swap4\n      sstore\n        /* \"contracts/Element of Soul/Land.sol\":2787:2852  NFT(newItemId, count[msg.sender] + 1, uri, block.timestamp, true) */\n      dup1\n      mload\n      0xa0\n      dup2\n      add\n      dup3\n      mstore\n      dup5\n      dup2\n      mstore\n        /* \"contracts/Element of Soul/Land.sol\":2808:2818  msg.sender */\n      caller\n        /* \"contracts/Element of Soul/Land.sol\":2802:2819  count[msg.sender] */\n      dup5\n      mstore\n        /* \"contracts/Element of Soul/Land.sol\":2802:2807  count */\n      0x0a\n        /* \"contracts/Element of Soul/Land.sol\":2802:2819  count[msg.sender] */\n      dup4\n      mstore\n      swap3\n      keccak256\n      sload\n        /* \"contracts/Element of Soul/Land.sol\":2787:2852  NFT(newItemId, count[msg.sender] + 1, uri, block.timestamp, true) */\n      swap1\n      dup3\n      add\n      swap1\n        /* \"contracts/Element of Soul/Land.sol\":2802:2823  count[msg.sender] + 1 */\n      tag_187\n      swap1\n        /* \"contracts/Element of Soul/Land.sol\":2822:2823  1 */\n      0x01\n        /* \"contracts/Element of Soul/Land.sol\":2802:2823  count[msg.sender] + 1 */\n      tag_186\n      jump\t// in\n    tag_187:\n        /* \"contracts/Element of Soul/Land.sol\":2787:2852  NFT(newItemId, count[msg.sender] + 1, uri, block.timestamp, true) */\n      dup2\n      mstore\n      0x20\n      add\n        /* \"contracts/Element of Soul/Land.sol\":2825:2828  uri */\n      dup4\n        /* \"contracts/Element of Soul/Land.sol\":2787:2852  NFT(newItemId, count[msg.sender] + 1, uri, block.timestamp, true) */\n      dup2\n      mstore\n      0x20\n      add\n        /* \"contracts/Element of Soul/Land.sol\":2830:2845  block.timestamp */\n      timestamp\n        /* \"contracts/Element of Soul/Land.sol\":2787:2852  NFT(newItemId, count[msg.sender] + 1, uri, block.timestamp, true) */\n      dup2\n      mstore\n      0x20\n      add\n        /* \"contracts/Element of Soul/Land.sol\":2847:2851  true */\n      0x01\n        /* \"contracts/Element of Soul/Land.sol\":2787:2852  NFT(newItemId, count[msg.sender] + 1, uri, block.timestamp, true) */\n      iszero\n      iszero\n      dup2\n      mstore\n      pop\n        /* \"contracts/Element of Soul/Land.sol\":2763:2773  NftMinting */\n      0x0b\n        /* \"contracts/Element of Soul/Land.sol\":2763:2784  NftMinting[newItemId] */\n      0x00\n        /* \"contracts/Element of Soul/Land.sol\":2774:2783  newItemId */\n      dup4\n        /* \"contracts/Element of Soul/Land.sol\":2763:2784  NftMinting[newItemId] */\n      dup2\n      mstore\n      0x20\n      add\n      swap1\n      dup2\n      mstore\n      0x20\n      add\n      0x00\n      keccak256\n        /* \"contracts/Element of Soul/Land.sol\":2763:2852  NftMinting[newItemId] = NFT(newItemId, count[msg.sender] + 1, uri, block.timestamp, true) */\n      0x00\n      dup3\n      add\n      mload\n      dup2\n      0x00\n      add\n      sstore\n      0x20\n      dup3\n      add\n      mload\n      dup2\n      0x01\n      add\n      sstore\n      0x40\n      dup3\n      add\n      mload\n      dup2\n      0x02\n      add\n      swap1\n      dup2\n      tag_188\n      swap2\n      swap1\n      tag_189\n      jump\t// in\n    tag_188:\n      pop\n      0x60\n      dup3\n      add\n      mload\n      0x03\n      dup3\n      add\n      sstore\n      0x80\n      swap1\n      swap2\n      add\n      mload\n      0x04\n      swap1\n      swap2\n      add\n      dup1\n      sload\n      not(0xff)\n      and\n      swap2\n      iszero\n      iszero\n      swap2\n      swap1\n      swap2\n      or\n      swap1\n      sstore\n        /* \"contracts/Element of Soul/Land.sol\":2862:2894  _safeMint(msg.sender, newItemId) */\n      tag_190\n        /* \"contracts/Element of Soul/Land.sol\":2872:2882  msg.sender */\n      caller\n        /* \"contracts/Element of Soul/Land.sol\":2884:2893  newItemId */\n      dup3\n        /* \"contracts/Element of Soul/Land.sol\":2862:2871  _safeMint */\n      tag_191\n        /* \"contracts/Element of Soul/Land.sol\":2862:2894  _safeMint(msg.sender, newItemId) */\n      jump\t// in\n    tag_190:\n        /* \"contracts/Element of Soul/Land.sol\":2906:2934  _setTokenURI(newItemId, uri) */\n      tag_192\n        /* \"contracts/Element of Soul/Land.sol\":2919:2928  newItemId */\n      dup2\n        /* \"contracts/Element of Soul/Land.sol\":2930:2933  uri */\n      dup4\n        /* \"contracts/Element of Soul/Land.sol\":2906:2918  _setTokenURI */\n      tag_193\n        /* \"contracts/Element of Soul/Land.sol\":2906:2934  _setTokenURI(newItemId, uri) */\n      jump\t// in\n    tag_192:\n        /* \"contracts/Element of Soul/Land.sol\":2951:2961  msg.sender */\n      caller\n        /* \"contracts/Element of Soul/Land.sol\":2945:2962  count[msg.sender] */\n      0x00\n      swap1\n      dup2\n      mstore\n        /* \"contracts/Element of Soul/Land.sol\":2945:2950  count */\n      0x0a\n        /* \"contracts/Element of Soul/Land.sol\":2945:2962  count[msg.sender] */\n      0x20\n      mstore\n      0x40\n      dup2\n      keccak256\n        /* \"contracts/Element of Soul/Land.sol\":2945:2964  count[msg.sender]++ */\n      dup1\n      sload\n      swap2\n      tag_194\n      dup4\n      tag_195\n      jump\t// in\n    tag_194:\n      swap2\n      swap1\n      pop\n      sstore\n      pop\n        /* \"contracts/Element of Soul/Land.sol\":2522:2972  {... */\n      pop\n        /* \"contracts/Element of Soul/Land.sol\":2478:2972  function safeMint(string memory uri) public {... */\n      pop\n      jump\t// out\n        /* \"contracts/Element of Soul/Land.sol\":4046:4474  function updateTokenId(address _to,uint _tokenId,address _seller) public {... */\n    tag_83:\n      sub(shl(0xa0, 0x01), 0x01)\n        /* \"contracts/Element of Soul/Land.sol\":4129:4139  NftId[_to] */\n      dup4\n      and\n      0x00\n      swap1\n      dup2\n      mstore\n        /* \"contracts/Element of Soul/Land.sol\":4129:4134  NftId */\n      0x09\n        /* \"contracts/Element of Soul/Land.sol\":4129:4139  NftId[_to] */\n      0x20\n      swap1\n      dup2\n      mstore\n      0x40\n      dup1\n      dup4\n      keccak256\n        /* \"contracts/Element of Soul/Land.sol\":4140:4145  count */\n      0x0a\n        /* \"contracts/Element of Soul/Land.sol\":4140:4150  count[_to] */\n      swap1\n      swap3\n      mstore\n      dup3\n      keccak256\n      sload\n        /* \"contracts/Element of Soul/Land.sol\":4158:4166  _tokenId */\n      dup5\n      swap3\n        /* \"contracts/Element of Soul/Land.sol\":4129:4139  NftId[_to] */\n      swap1\n        /* \"contracts/Element of Soul/Land.sol\":4140:4154  count[_to] + 1 */\n      tag_197\n      swap1\n        /* \"contracts/Element of Soul/Land.sol\":4153:4154  1 */\n      0x01\n        /* \"contracts/Element of Soul/Land.sol\":4140:4154  count[_to] + 1 */\n      tag_186\n      jump\t// in\n    tag_197:\n        /* \"contracts/Element of Soul/Land.sol\":4129:4155  NftId[_to][count[_to] + 1] */\n      dup2\n      mstore\n      0x20\n      add\n      swap1\n      dup2\n      mstore\n      0x20\n      add\n      0x00\n      keccak256\n        /* \"contracts/Element of Soul/Land.sol\":4129:4166  NftId[_to][count[_to] + 1] = _tokenId */\n      dup2\n      swap1\n      sstore\n      pop\n        /* \"contracts/Element of Soul/Land.sol\":4176:4196  NFT[] memory myArray */\n      0x00\n        /* \"contracts/Element of Soul/Land.sol\":4200:4219  getTokenId(_seller) */\n      tag_198\n        /* \"contracts/Element of Soul/Land.sol\":4211:4218  _seller */\n      dup3\n        /* \"contracts/Element of Soul/Land.sol\":4200:4210  getTokenId */\n      tag_129\n        /* \"contracts/Element of Soul/Land.sol\":4200:4219  getTokenId(_seller) */\n      jump\t// in\n    tag_198:\n        /* \"contracts/Element of Soul/Land.sol\":4176:4219  NFT[] memory myArray =  getTokenId(_seller) */\n      swap1\n      pop\n        /* \"contracts/Element of Soul/Land.sol\":4233:4239  uint i */\n      0x00\n        /* \"contracts/Element of Soul/Land.sol\":4229:4446  for(uint i=0 ; i < myArray.length ; i++){... */\n    tag_199:\n        /* \"contracts/Element of Soul/Land.sol\":4248:4255  myArray */\n      dup2\n        /* \"contracts/Element of Soul/Land.sol\":4248:4262  myArray.length */\n      mload\n        /* \"contracts/Element of Soul/Land.sol\":4244:4245  i */\n      dup2\n        /* \"contracts/Element of Soul/Land.sol\":4244:4262  i < myArray.length */\n      lt\n        /* \"contracts/Element of Soul/Land.sol\":4229:4446  for(uint i=0 ; i < myArray.length ; i++){... */\n      iszero\n      tag_200\n      jumpi\n        /* \"contracts/Element of Soul/Land.sol\":4308:4316  _tokenId */\n      dup4\n        /* \"contracts/Element of Soul/Land.sol\":4286:4293  myArray */\n      dup3\n        /* \"contracts/Element of Soul/Land.sol\":4294:4295  i */\n      dup3\n        /* \"contracts/Element of Soul/Land.sol\":4286:4296  myArray[i] */\n      dup2\n      mload\n      dup2\n      lt\n      tag_203\n      jumpi\n      tag_203\n      tag_204\n      jump\t// in\n    tag_203:\n      0x20\n      mul\n      0x20\n      add\n      add\n      mload\n        /* \"contracts/Element of Soul/Land.sol\":4286:4304  myArray[i].tokenId */\n      0x00\n      add\n      mload\n        /* \"contracts/Element of Soul/Land.sol\":4286:4316  myArray[i].tokenId == _tokenId */\n      sub\n        /* \"contracts/Element of Soul/Land.sol\":4283:4436  if(myArray[i].tokenId == _tokenId){... */\n      tag_205\n      jumpi\n      sub(shl(0xa0, 0x01), 0x01)\n        /* \"contracts/Element of Soul/Land.sol\":4357:4371  NftId[_seller] */\n      dup4\n      and\n      0x00\n      dup2\n      dup2\n      mstore\n        /* \"contracts/Element of Soul/Land.sol\":4357:4362  NftId */\n      0x09\n        /* \"contracts/Element of Soul/Land.sol\":4357:4371  NftId[_seller] */\n      0x20\n      dup2\n      dup2\n      mstore\n      0x40\n      dup1\n      dup5\n      keccak256\n        /* \"contracts/Element of Soul/Land.sol\":4372:4377  count */\n      0x0a\n        /* \"contracts/Element of Soul/Land.sol\":4372:4386  count[_seller] */\n      dup4\n      mstore\n      dup2\n      dup6\n      keccak256\n      sload\n        /* \"contracts/Element of Soul/Land.sol\":4357:4387  NftId[_seller][count[_seller]] */\n      dup6\n      mstore\n      dup1\n      dup4\n      mstore\n      swap1\n      dup5\n      keccak256\n      sload\n        /* \"contracts/Element of Soul/Land.sol\":4335:4349  NftId[_seller] */\n      swap5\n      dup5\n      mstore\n      swap2\n      swap1\n      mstore\n        /* \"contracts/Element of Soul/Land.sol\":4357:4371  NftId[_seller] */\n      swap1\n        /* \"contracts/Element of Soul/Land.sol\":4350:4353  i+1 */\n      tag_206\n        /* \"contracts/Element of Soul/Land.sol\":4350:4351  i */\n      dup5\n        /* \"contracts/Element of Soul/Land.sol\":4352:4353  1 */\n      0x01\n        /* \"contracts/Element of Soul/Land.sol\":4350:4353  i+1 */\n      tag_186\n      jump\t// in\n    tag_206:\n        /* \"contracts/Element of Soul/Land.sol\":4335:4354  NftId[_seller][i+1] */\n      dup2\n      mstore\n      0x20\n      dup1\n      dup3\n      add\n      swap3\n      swap1\n      swap3\n      mstore\n      0x40\n      swap1\n      dup2\n      add\n      0x00\n      swap1\n      dup2\n      keccak256\n        /* \"contracts/Element of Soul/Land.sol\":4335:4387  NftId[_seller][i+1] = NftId[_seller][count[_seller]] */\n      swap4\n      swap1\n      swap4\n      sstore\n      sub(shl(0xa0, 0x01), 0x01)\n        /* \"contracts/Element of Soul/Land.sol\":4405:4419  count[_seller] */\n      dup7\n      and\n      dup4\n      mstore\n        /* \"contracts/Element of Soul/Land.sol\":4405:4410  count */\n      0x0a\n        /* \"contracts/Element of Soul/Land.sol\":4405:4419  count[_seller] */\n      swap1\n      swap2\n      mstore\n      dup2\n      keccak256\n        /* \"contracts/Element of Soul/Land.sol\":4405:4421  count[_seller]-- */\n      dup1\n      sload\n      swap2\n      tag_207\n      dup4\n      tag_208\n      jump\t// in\n    tag_207:\n      swap2\n      swap1\n      pop\n      sstore\n      pop\n        /* \"contracts/Element of Soul/Land.sol\":4283:4436  if(myArray[i].tokenId == _tokenId){... */\n    tag_205:\n        /* \"contracts/Element of Soul/Land.sol\":4265:4268  i++ */\n      0x01\n      add\n        /* \"contracts/Element of Soul/Land.sol\":4229:4446  for(uint i=0 ; i < myArray.length ; i++){... */\n      jump(tag_199)\n    tag_200:\n      pop\n      sub(shl(0xa0, 0x01), 0x01)\n        /* \"contracts/Element of Soul/Land.sol\":4455:4465  count[_to] */\n      dup5\n      and\n      0x00\n      swap1\n      dup2\n      mstore\n        /* \"contracts/Element of Soul/Land.sol\":4455:4460  count */\n      0x0a\n        /* \"contracts/Element of Soul/Land.sol\":4455:4465  count[_to] */\n      0x20\n      mstore\n      0x40\n      dup2\n      keccak256\n        /* \"contracts/Element of Soul/Land.sol\":4455:4467  count[_to]++ */\n      dup1\n      sload\n      swap2\n      tag_209\n      dup4\n      tag_195\n      jump\t// in\n    tag_209:\n      swap2\n      swap1\n      pop\n      sstore\n      pop\n        /* \"contracts/Element of Soul/Land.sol\":4119:4474  {... */\n      pop\n        /* \"contracts/Element of Soul/Land.sol\":4046:4474  function updateTokenId(address _to,uint _tokenId,address _seller) public {... */\n      pop\n      pop\n      pop\n      jump\t// out\n        /* \"@openzeppelin/contracts/token/ERC721/ERC721.sol\":1921:2129  function balanceOf(address owner) public view virtual returns (uint256) {... */\n    tag_86:\n        /* \"@openzeppelin/contracts/token/ERC721/ERC721.sol\":1984:1991  uint256 */\n      0x00\n      sub(shl(0xa0, 0x01), 0x01)\n        /* \"@openzeppelin/contracts/token/ERC721/ERC721.sol\":2007:2026  owner == address(0) */\n      dup3\n      and\n        /* \"@openzeppelin/contracts/token/ERC721/ERC721.sol\":2003:2090  if (owner == address(0)) {... */\n      tag_211\n      jumpi\n        /* \"@openzeppelin/contracts/token/ERC721/ERC721.sol\":2049:2079  ERC721InvalidOwner(address(0)) */\n      mload(0x40)\n      shl(0xe2, 0x22718ad9)\n      dup2\n      mstore\n        /* \"@openzeppelin/contracts/token/ERC721/ERC721.sol\":2076:2077  0 */\n      0x00\n        /* \"@openzeppelin/contracts/token/ERC721/ERC721.sol\":2049:2079  ERC721InvalidOwner(address(0)) */\n      0x04\n      dup3\n      add\n        /* \"#utility.yul\":2276:2327   */\n      mstore\n        /* \"#utility.yul\":2249:2267   */\n      0x24\n      add\n        /* \"@openzeppelin/contracts/token/ERC721/ERC721.sol\":2049:2079  ERC721InvalidOwner(address(0)) */\n      tag_166\n        /* \"#utility.yul\":2130:2333   */\n      jump\n        /* \"@openzeppelin/contracts/token/ERC721/ERC721.sol\":2003:2090  if (owner == address(0)) {... */\n    tag_211:\n      pop\n      sub(shl(0xa0, 0x01), 0x01)\n        /* \"@openzeppelin/contracts/token/ERC721/ERC721.sol\":2106:2122  _balances[owner] */\n      and\n      0x00\n      swap1\n      dup2\n      mstore\n        /* \"@openzeppelin/contracts/token/ERC721/ERC721.sol\":2106:2115  _balances */\n      0x03\n        /* \"@openzeppelin/contracts/token/ERC721/ERC721.sol\":2106:2122  _balances[owner] */\n      0x20\n      mstore\n      0x40\n      swap1\n      keccak256\n      sload\n      swap1\n        /* \"@openzeppelin/contracts/token/ERC721/ERC721.sol\":1921:2129  function balanceOf(address owner) public view virtual returns (uint256) {... */\n      jump\t// out\n        /* \"@openzeppelin/contracts/access/Ownable.sol\":2293:2394  function renounceOwnership() public virtual onlyOwner {... */\n    tag_89:\n        /* \"@openzeppelin/contracts/access/Ownable.sol\":1531:1544  _checkOwner() */\n      tag_214\n        /* \"@openzeppelin/contracts/access/Ownable.sol\":1531:1542  _checkOwner */\n      tag_215\n        /* \"@openzeppelin/contracts/access/Ownable.sol\":1531:1544  _checkOwner() */\n      jump\t// in\n    tag_214:\n        /* \"@openzeppelin/contracts/access/Ownable.sol\":2357:2387  _transferOwnership(address(0)) */\n      tag_217\n        /* \"@openzeppelin/contracts/access/Ownable.sol\":2384:2385  0 */\n      0x00\n        /* \"@openzeppelin/contracts/access/Ownable.sol\":2357:2375  _transferOwnership */\n      tag_218\n        /* \"@openzeppelin/contracts/access/Ownable.sol\":2357:2387  _transferOwnership(address(0)) */\n      jump\t// in\n    tag_217:\n        /* \"@openzeppelin/contracts/access/Ownable.sol\":2293:2394  function renounceOwnership() public virtual onlyOwner {... */\n      jump\t// out\n        /* \"contracts/Element of Soul/Land.sol\":4650:4763  function getTokenUri(uint tokenId) external view returns(string memory) {... */\n    tag_92:\n        /* \"contracts/Element of Soul/Land.sol\":4707:4720  string memory */\n      0x60\n        /* \"contracts/Element of Soul/Land.sol\":4739:4756  tokenURI(tokenId) */\n      tag_140\n        /* \"contracts/Element of Soul/Land.sol\":4748:4755  tokenId */\n      dup3\n        /* \"contracts/Element of Soul/Land.sol\":4739:4747  tokenURI */\n      tag_116\n        /* \"contracts/Element of Soul/Land.sol\":4739:4756  tokenURI(tokenId) */\n      jump\t// in\n        /* \"@openzeppelin/contracts/token/ERC721/ERC721.sol\":2519:2612  function symbol() public view virtual returns (string memory) {... */\n    tag_98:\n        /* \"@openzeppelin/contracts/token/ERC721/ERC721.sol\":2566:2579  string memory */\n      0x60\n        /* \"@openzeppelin/contracts/token/ERC721/ERC721.sol\":2598:2605  _symbol */\n      0x01\n        /* \"@openzeppelin/contracts/token/ERC721/ERC721.sol\":2591:2605  return _symbol */\n      dup1\n      sload\n      tag_143\n      swap1\n      tag_144\n      jump\t// in\n        /* \"contracts/Element of Soul/Land.sol\":2195:2303  function unwhitelist(address _authorized) public onlyOwner {... */\n    tag_102:\n        /* \"@openzeppelin/contracts/access/Ownable.sol\":1531:1544  _checkOwner() */\n      tag_229\n        /* \"@openzeppelin/contracts/access/Ownable.sol\":1531:1542  _checkOwner */\n      tag_215\n        /* \"@openzeppelin/contracts/access/Ownable.sol\":1531:1544  _checkOwner() */\n      jump\t// in\n    tag_229:\n      sub(shl(0xa0, 0x01), 0x01)\n        /* \"contracts/Element of Soul/Land.sol\":2264:2288  whitelisted[_authorized] */\n      and\n        /* \"contracts/Element of Soul/Land.sol\":2291:2296  false */\n      0x00\n        /* \"contracts/Element of Soul/Land.sol\":2264:2288  whitelisted[_authorized] */\n      swap1\n      dup2\n      mstore\n        /* \"contracts/Element of Soul/Land.sol\":2264:2275  whitelisted */\n      0x0c\n        /* \"contracts/Element of Soul/Land.sol\":2264:2288  whitelisted[_authorized] */\n      0x20\n      mstore\n      0x40\n      swap1\n      keccak256\n        /* \"contracts/Element of Soul/Land.sol\":2264:2296  whitelisted[_authorized] = false */\n      dup1\n      sload\n      not(0xff)\n      and\n      swap1\n      sstore\n        /* \"contracts/Element of Soul/Land.sol\":2195:2303  function unwhitelist(address _authorized) public onlyOwner {... */\n      jump\t// out\n        /* \"contracts/Element of Soul/Land.sol\":1907:2012  function whitelist(address _authorized) public onlyOwner {... */\n    tag_105:\n        /* \"@openzeppelin/contracts/access/Ownable.sol\":1531:1544  _checkOwner() */\n      tag_232\n        /* \"@openzeppelin/contracts/access/Ownable.sol\":1531:1542  _checkOwner */\n      tag_215\n        /* \"@openzeppelin/contracts/access/Ownable.sol\":1531:1544  _checkOwner() */\n      jump\t// in\n    tag_232:\n      sub(shl(0xa0, 0x01), 0x01)\n        /* \"contracts/Element of Soul/Land.sol\":1974:1998  whitelisted[_authorized] */\n      and\n      0x00\n      swap1\n      dup2\n      mstore\n        /* \"contracts/Element of Soul/Land.sol\":1974:1985  whitelisted */\n      0x0c\n        /* \"contracts/Element of Soul/Land.sol\":1974:1998  whitelisted[_authorized] */\n      0x20\n      mstore\n      0x40\n      swap1\n      keccak256\n        /* \"contracts/Element of Soul/Land.sol\":1974:2005  whitelisted[_authorized] = true */\n      dup1\n      sload\n      not(0xff)\n      and\n        /* \"contracts/Element of Soul/Land.sol\":2001:2005  true */\n      0x01\n        /* \"contracts/Element of Soul/Land.sol\":1974:2005  whitelisted[_authorized] = true */\n      or\n      swap1\n      sstore\n        /* \"contracts/Element of Soul/Land.sol\":1907:2012  function whitelist(address _authorized) public onlyOwner {... */\n      jump\t// out\n        /* \"@openzeppelin/contracts/token/ERC721/ERC721.sol\":3719:3863  function setApprovalForAll(address operator, bool approved) public virtual {... */\n    tag_109:\n        /* \"@openzeppelin/contracts/token/ERC721/ERC721.sol\":3804:3856  _setApprovalForAll(_msgSender(), operator, approved) */\n      tag_155\n        /* \"@openzeppelin/contracts/utils/Context.sol\":735:745  msg.sender */\n      caller\n        /* \"@openzeppelin/contracts/token/ERC721/ERC721.sol\":3837:3845  operator */\n      dup4\n        /* \"@openzeppelin/contracts/token/ERC721/ERC721.sol\":3847:3855  approved */\n      dup4\n        /* \"@openzeppelin/contracts/token/ERC721/ERC721.sol\":3804:3822  _setApprovalForAll */\n      tag_237\n        /* \"@openzeppelin/contracts/token/ERC721/ERC721.sol\":3804:3856  _setApprovalForAll(_msgSender(), operator, approved) */\n      jump\t// in\n        /* \"@openzeppelin/contracts/token/ERC721/ERC721.sol\":4986:5194  function safeTransferFrom(address from, address to, uint256 tokenId, bytes memory data) public virtual {... */\n    tag_113:\n        /* \"@openzeppelin/contracts/token/ERC721/ERC721.sol\":5099:5130  transferFrom(from, to, tokenId) */\n      tag_239\n        /* \"@openzeppelin/contracts/token/ERC721/ERC721.sol\":5112:5116  from */\n      dup5\n        /* \"@openzeppelin/contracts/token/ERC721/ERC721.sol\":5118:5120  to */\n      dup5\n        /* \"@openzeppelin/contracts/token/ERC721/ERC721.sol\":5122:5129  tokenId */\n      dup5\n        /* \"@openzeppelin/contracts/token/ERC721/ERC721.sol\":5099:5111  transferFrom */\n      tag_68\n        /* \"@openzeppelin/contracts/token/ERC721/ERC721.sol\":5099:5130  transferFrom(from, to, tokenId) */\n      jump\t// in\n    tag_239:\n        /* \"@openzeppelin/contracts/token/ERC721/ERC721.sol\":5140:5187  _checkOnERC721Received(from, to, tokenId, data) */\n      tag_170\n        /* \"@openzeppelin/contracts/token/ERC721/ERC721.sol\":5163:5167  from */\n      dup5\n        /* \"@openzeppelin/contracts/token/ERC721/ERC721.sol\":5169:5171  to */\n      dup5\n        /* \"@openzeppelin/contracts/token/ERC721/ERC721.sol\":5173:5180  tokenId */\n      dup5\n        /* \"@openzeppelin/contracts/token/ERC721/ERC721.sol\":5182:5186  data */\n      dup5\n        /* \"@openzeppelin/contracts/token/ERC721/ERC721.sol\":5140:5162  _checkOnERC721Received */\n      tag_241\n        /* \"@openzeppelin/contracts/token/ERC721/ERC721.sol\":5140:5187  _checkOnERC721Received(from, to, tokenId, data) */\n      jump\t// in\n        /* \"contracts/Element of Soul/Land.sol\":4973:5162  function tokenURI(uint256 tokenId)... */\n    tag_116:\n        /* \"contracts/Element of Soul/Land.sol\":5096:5109  string memory */\n      0x60\n        /* \"contracts/Element of Soul/Land.sol\":5132:5155  super.tokenURI(tokenId) */\n      tag_140\n        /* \"contracts/Element of Soul/Land.sol\":5147:5154  tokenId */\n      dup3\n        /* \"contracts/Element of Soul/Land.sol\":5132:5146  super.tokenURI */\n      tag_244\n        /* \"contracts/Element of Soul/Land.sol\":5132:5155  super.tokenURI(tokenId) */\n      jump\t// in\n        /* \"@openzeppelin/contracts/token/ERC721/ERC721.sol\":3929:4082  function isApprovedForAll(address owner, address operator) public view virtual returns (bool) {... */\n    tag_125:\n      sub(shl(0xa0, 0x01), 0x01)\n        /* \"@openzeppelin/contracts/token/ERC721/ERC721.sol\":4040:4065  _operatorApprovals[owner] */\n      swap2\n      dup3\n      and\n        /* \"@openzeppelin/contracts/token/ERC721/ERC721.sol\":4017:4021  bool */\n      0x00\n        /* \"@openzeppelin/contracts/token/ERC721/ERC721.sol\":4040:4065  _operatorApprovals[owner] */\n      swap1\n      dup2\n      mstore\n        /* \"@openzeppelin/contracts/token/ERC721/ERC721.sol\":4040:4058  _operatorApprovals */\n      0x05\n        /* \"@openzeppelin/contracts/token/ERC721/ERC721.sol\":4040:4065  _operatorApprovals[owner] */\n      0x20\n      swap1\n      dup2\n      mstore\n      0x40\n      dup1\n      dup4\n      keccak256\n        /* \"@openzeppelin/contracts/token/ERC721/ERC721.sol\":4040:4075  _operatorApprovals[owner][operator] */\n      swap4\n      swap1\n      swap5\n      and\n      dup3\n      mstore\n      swap2\n      swap1\n      swap2\n      mstore\n      keccak256\n      sload\n      0xff\n      and\n      swap1\n        /* \"@openzeppelin/contracts/token/ERC721/ERC721.sol\":3929:4082  function isApprovedForAll(address owner, address operator) public view virtual returns (bool) {... */\n      jump\t// out\n        /* \"contracts/Element of Soul/Land.sol\":3088:3410  function getTokenId(address _seller) public view returns(NFT[] memory) {... */\n    tag_129:\n      sub(shl(0xa0, 0x01), 0x01)\n        /* \"contracts/Element of Soul/Land.sol\":3202:3216  count[_seller] */\n      dup2\n      and\n        /* \"contracts/Element of Soul/Land.sol\":3169:3189  NFT[] memory myArray */\n      0x00\n        /* \"contracts/Element of Soul/Land.sol\":3202:3216  count[_seller] */\n      swap1\n      dup2\n      mstore\n        /* \"contracts/Element of Soul/Land.sol\":3202:3207  count */\n      0x0a\n        /* \"contracts/Element of Soul/Land.sol\":3202:3216  count[_seller] */\n      0x20\n      mstore\n      0x40\n      dup2\n      keccak256\n      sload\n        /* \"contracts/Element of Soul/Land.sol\":3145:3157  NFT[] memory */\n      0x60\n      swap2\n        /* \"contracts/Element of Soul/Land.sol\":3169:3189  NFT[] memory myArray */\n      swap1\n        /* \"contracts/Element of Soul/Land.sol\":3192:3217  new NFT[](count[_seller]) */\n      0xffffffffffffffff\n      dup2\n      gt\n      iszero\n      tag_248\n      jumpi\n      tag_248\n      tag_249\n      jump\t// in\n    tag_248:\n      mload(0x40)\n      swap1\n      dup1\n      dup3\n      mstore\n      dup1\n      0x20\n      mul\n      0x20\n      add\n      dup3\n      add\n      0x40\n      mstore\n      dup1\n      iszero\n      tag_250\n      jumpi\n      dup2\n      0x20\n      add\n    tag_251:\n      tag_252\n      mload(0x40)\n      dup1\n      0xa0\n      add\n      0x40\n      mstore\n      dup1\n      0x00\n      dup2\n      mstore\n      0x20\n      add\n      0x00\n      dup2\n      mstore\n      0x20\n      add\n      0x60\n      dup2\n      mstore\n      0x20\n      add\n      0x00\n      dup2\n      mstore\n      0x20\n      add\n      iszero(iszero(0x00))\n      dup2\n      mstore\n      pop\n      swap1\n      jump\n    tag_252:\n      dup2\n      mstore\n      0x20\n      add\n      swap1\n      0x01\n      swap1\n      sub\n      swap1\n      dup2\n      tag_251\n      jumpi\n      swap1\n      pop\n    tag_250:\n      pop\n        /* \"contracts/Element of Soul/Land.sol\":3169:3217  NFT[] memory myArray = new NFT[](count[_seller]) */\n      swap1\n      pop\n        /* \"contracts/Element of Soul/Land.sol\":3234:3240  uint i */\n      0x00\n        /* \"contracts/Element of Soul/Land.sol\":3229:3380  for (uint i = 0; i < count[_seller]; i++) { ... */\n    tag_254:\n      sub(shl(0xa0, 0x01), 0x01)\n        /* \"contracts/Element of Soul/Land.sol\":3250:3264  count[_seller] */\n      dup5\n      and\n      0x00\n      swap1\n      dup2\n      mstore\n        /* \"contracts/Element of Soul/Land.sol\":3250:3255  count */\n      0x0a\n        /* \"contracts/Element of Soul/Land.sol\":3250:3264  count[_seller] */\n      0x20\n      mstore\n      0x40\n      swap1\n      keccak256\n      sload\n        /* \"contracts/Element of Soul/Land.sol\":3246:3264  i < count[_seller] */\n      dup2\n      lt\n        /* \"contracts/Element of Soul/Land.sol\":3229:3380  for (uint i = 0; i < count[_seller]; i++) { ... */\n      iszero\n      tag_255\n      jumpi\n      sub(shl(0xa0, 0x01), 0x01)\n        /* \"contracts/Element of Soul/Land.sol\":3301:3315  NftId[_seller] */\n      dup5\n      and\n        /* \"contracts/Element of Soul/Land.sol\":3286:3298  uint tokenId */\n      0x00\n        /* \"contracts/Element of Soul/Land.sol\":3301:3315  NftId[_seller] */\n      swap1\n      dup2\n      mstore\n        /* \"contracts/Element of Soul/Land.sol\":3301:3306  NftId */\n      0x09\n        /* \"contracts/Element of Soul/Land.sol\":3301:3315  NftId[_seller] */\n      0x20\n      mstore\n      0x40\n      dup2\n      keccak256\n        /* \"contracts/Element of Soul/Land.sol\":3286:3298  uint tokenId */\n      dup2\n        /* \"contracts/Element of Soul/Land.sol\":3316:3321  i + 1 */\n      tag_257\n        /* \"contracts/Element of Soul/Land.sol\":3316:3317  i */\n      dup5\n        /* \"contracts/Element of Soul/Land.sol\":3320:3321  1 */\n      0x01\n        /* \"contracts/Element of Soul/Land.sol\":3316:3321  i + 1 */\n      tag_186\n      jump\t// in\n    tag_257:\n        /* \"contracts/Element of Soul/Land.sol\":3301:3322  NftId[_seller][i + 1] */\n      dup2\n      mstore\n      0x20\n      add\n      swap1\n      dup2\n      mstore\n      0x20\n      add\n      0x00\n      keccak256\n      sload\n        /* \"contracts/Element of Soul/Land.sol\":3286:3322  uint tokenId = NftId[_seller][i + 1] */\n      swap1\n      pop\n        /* \"contracts/Element of Soul/Land.sol\":3349:3359  NftMinting */\n      0x0b\n        /* \"contracts/Element of Soul/Land.sol\":3349:3368  NftMinting[tokenId] */\n      0x00\n        /* \"contracts/Element of Soul/Land.sol\":3360:3367  tokenId */\n      dup3\n        /* \"contracts/Element of Soul/Land.sol\":3349:3368  NftMinting[tokenId] */\n      dup2\n      mstore\n      0x20\n      add\n      swap1\n      dup2\n      mstore\n      0x20\n      add\n      0x00\n      keccak256\n        /* \"contracts/Element of Soul/Land.sol\":3336:3368  myArray[i] = NftMinting[tokenId] */\n      mload(0x40)\n      dup1\n      0xa0\n      add\n      0x40\n      mstore\n      swap1\n      dup2\n      0x00\n      dup3\n      add\n      sload\n      dup2\n      mstore\n      0x20\n      add\n      0x01\n      dup3\n      add\n      sload\n      dup2\n      mstore\n      0x20\n      add\n      0x02\n      dup3\n      add\n      dup1\n      sload\n      tag_258\n      swap1\n      tag_144\n      jump\t// in\n    tag_258:\n      dup1\n      0x1f\n      add\n      0x20\n      dup1\n      swap2\n      div\n      mul\n      0x20\n      add\n      mload(0x40)\n      swap1\n      dup2\n      add\n      0x40\n      mstore\n      dup1\n      swap3\n      swap2\n      swap1\n      dup2\n      dup2\n      mstore\n      0x20\n      add\n      dup3\n      dup1\n      sload\n      tag_259\n      swap1\n      tag_144\n      jump\t// in\n    tag_259:\n      dup1\n      iszero\n      tag_260\n      jumpi\n      dup1\n      0x1f\n      lt\n      tag_261\n      jumpi\n      0x0100\n      dup1\n      dup4\n      sload\n      div\n      mul\n      dup4\n      mstore\n      swap2\n      0x20\n      add\n      swap2\n      jump(tag_260)\n    tag_261:\n      dup3\n      add\n      swap2\n      swap1\n      0x00\n      mstore\n      keccak256(0x00, 0x20)\n      swap1\n    tag_262:\n      dup2\n      sload\n      dup2\n      mstore\n      swap1\n      0x01\n      add\n      swap1\n      0x20\n      add\n      dup1\n      dup4\n      gt\n      tag_262\n      jumpi\n      dup3\n      swap1\n      sub\n      0x1f\n      and\n      dup3\n      add\n      swap2\n    tag_260:\n      pop\n      pop\n      pop\n      swap2\n      dup4\n      mstore\n      pop\n      pop\n      0x03\n      dup3\n      add\n      sload\n      0x20\n      dup3\n      add\n      mstore\n      0x04\n      swap1\n      swap2\n      add\n      sload\n      0xff\n      and\n      iszero\n      iszero\n      0x40\n      swap1\n      swap2\n      add\n      mstore\n        /* \"contracts/Element of Soul/Land.sol\":3336:3346  myArray[i] */\n      dup4\n      mload\n        /* \"contracts/Element of Soul/Land.sol\":3336:3343  myArray */\n      dup5\n      swap1\n        /* \"contracts/Element of Soul/Land.sol\":3344:3345  i */\n      dup5\n      swap1\n        /* \"contracts/Element of Soul/Land.sol\":3336:3346  myArray[i] */\n      dup2\n      lt\n      tag_264\n      jumpi\n      tag_264\n      tag_204\n      jump\t// in\n    tag_264:\n      0x20\n      swap1\n      dup2\n      mul\n      swap2\n      swap1\n      swap2\n      add\n      add\n        /* \"contracts/Element of Soul/Land.sol\":3336:3368  myArray[i] = NftMinting[tokenId] */\n      mstore\n      pop\n        /* \"contracts/Element of Soul/Land.sol\":3266:3269  i++ */\n      0x01\n      add\n        /* \"contracts/Element of Soul/Land.sol\":3229:3380  for (uint i = 0; i < count[_seller]; i++) { ... */\n      jump(tag_254)\n    tag_255:\n      pop\n        /* \"contracts/Element of Soul/Land.sol\":3396:3403  myArray */\n      swap3\n        /* \"contracts/Element of Soul/Land.sol\":3088:3410  function getTokenId(address _seller) public view returns(NFT[] memory) {... */\n      swap2\n      pop\n      pop\n      jump\t// out\n        /* \"@openzeppelin/contracts/access/Ownable.sol\":2543:2758  function transferOwnership(address newOwner) public virtual onlyOwner {... */\n    tag_134:\n        /* \"@openzeppelin/contracts/access/Ownable.sol\":1531:1544  _checkOwner() */\n      tag_266\n        /* \"@openzeppelin/contracts/access/Ownable.sol\":1531:1542  _checkOwner */\n      tag_215\n        /* \"@openzeppelin/contracts/access/Ownable.sol\":1531:1544  _checkOwner() */\n      jump\t// in\n    tag_266:\n      sub(shl(0xa0, 0x01), 0x01)\n        /* \"@openzeppelin/contracts/access/Ownable.sol\":2627:2649  newOwner == address(0) */\n      dup2\n      and\n        /* \"@openzeppelin/contracts/access/Ownable.sol\":2623:2714  if (newOwner == address(0)) {... */\n      tag_268\n      jumpi\n        /* \"@openzeppelin/contracts/access/Ownable.sol\":2672:2703  OwnableInvalidOwner(address(0)) */\n      mload(0x40)\n      shl(0xe0, 0x1e4fbdf7)\n      dup2\n      mstore\n        /* \"@openzeppelin/contracts/access/Ownable.sol\":2700:2701  0 */\n      0x00\n        /* \"@openzeppelin/contracts/access/Ownable.sol\":2672:2703  OwnableInvalidOwner(address(0)) */\n      0x04\n      dup3\n      add\n        /* \"#utility.yul\":2276:2327   */\n      mstore\n        /* \"#utility.yul\":2249:2267   */\n      0x24\n      add\n        /* \"@openzeppelin/contracts/access/Ownable.sol\":2672:2703  OwnableInvalidOwner(address(0)) */\n      tag_166\n        /* \"#utility.yul\":2130:2333   */\n      jump\n        /* \"@openzeppelin/contracts/access/Ownable.sol\":2623:2714  if (newOwner == address(0)) {... */\n    tag_268:\n        /* \"@openzeppelin/contracts/access/Ownable.sol\":2723:2751  _transferOwnership(newOwner) */\n      tag_270\n        /* \"@openzeppelin/contracts/access/Ownable.sol\":2742:2750  newOwner */\n      dup2\n        /* \"@openzeppelin/contracts/access/Ownable.sol\":2723:2741  _transferOwnership */\n      tag_218\n        /* \"@openzeppelin/contracts/access/Ownable.sol\":2723:2751  _transferOwnership(newOwner) */\n      jump\t// in\n    tag_270:\n        /* \"@openzeppelin/contracts/access/Ownable.sol\":2543:2758  function transferOwnership(address newOwner) public virtual onlyOwner {... */\n      pop\n      jump\t// out\n        /* \"@openzeppelin/contracts/token/ERC721/extensions/ERC721URIStorage.sol\":937:1144  function supportsInterface(bytes4 interfaceId) public view virtual override(ERC721, IERC165) returns (bool) {... */\n    tag_141:\n        /* \"@openzeppelin/contracts/token/ERC721/extensions/ERC721URIStorage.sol\":1039:1043  bool */\n      0x00\n      not(sub(shl(0xe0, 0x01), 0x01))\n        /* \"@openzeppelin/contracts/token/ERC721/extensions/ERC721URIStorage.sol\":1062:1097  interfaceId == ERC4906_INTERFACE_ID */\n      dup3\n      and\n      shl(0xe1, 0x24832483)\n      eq\n      dup1\n        /* \"@openzeppelin/contracts/token/ERC721/extensions/ERC721URIStorage.sol\":1062:1137  interfaceId == ERC4906_INTERFACE_ID || super.supportsInterface(interfaceId) */\n      tag_140\n      jumpi\n      pop\n        /* \"@openzeppelin/contracts/token/ERC721/extensions/ERC721URIStorage.sol\":1101:1137  super.supportsInterface(interfaceId) */\n      tag_140\n        /* \"@openzeppelin/contracts/token/ERC721/extensions/ERC721URIStorage.sol\":1125:1136  interfaceId */\n      dup3\n        /* \"@openzeppelin/contracts/token/ERC721/extensions/ERC721URIStorage.sol\":1101:1124  super.supportsInterface */\n      tag_274\n        /* \"@openzeppelin/contracts/token/ERC721/extensions/ERC721URIStorage.sol\":1101:1137  super.supportsInterface(interfaceId) */\n      jump\t// in\n        /* \"@openzeppelin/contracts/token/ERC721/ERC721.sol\":16172:16413  function _requireOwned(uint256 tokenId) internal view returns (address) {... */\n    tag_151:\n        /* \"@openzeppelin/contracts/token/ERC721/ERC721.sol\":16235:16242  address */\n      0x00\n        /* \"@openzeppelin/contracts/token/ERC721/ERC721.sol\":5800:5816  _owners[tokenId] */\n      dup2\n      dup2\n      mstore\n        /* \"@openzeppelin/contracts/token/ERC721/ERC721.sol\":5800:5807  _owners */\n      0x02\n        /* \"@openzeppelin/contracts/token/ERC721/ERC721.sol\":5800:5816  _owners[tokenId] */\n      0x20\n      mstore\n      0x40\n      dup2\n      keccak256\n      sload\n      sub(shl(0xa0, 0x01), 0x01)\n      and\n      dup1\n        /* \"@openzeppelin/contracts/token/ERC721/ERC721.sol\":16297:16385  if (owner == address(0)) {... */\n      tag_140\n      jumpi\n        /* \"@openzeppelin/contracts/token/ERC721/ERC721.sol\":16343:16374  ERC721NonexistentToken(tokenId) */\n      mload(0x40)\n      shl(0xe0, 0x7e273289)\n      dup2\n      mstore\n      0x04\n      dup2\n      add\n        /* \"#utility.yul\":1107:1132   */\n      dup5\n      swap1\n      mstore\n        /* \"#utility.yul\":1080:1098   */\n      0x24\n      add\n        /* \"@openzeppelin/contracts/token/ERC721/ERC721.sol\":16343:16374  ERC721NonexistentToken(tokenId) */\n      tag_166\n        /* \"#utility.yul\":961:1138   */\n      jump\n        /* \"@openzeppelin/contracts/token/ERC721/ERC721.sol\":14452:14572  function _approve(address to, uint256 tokenId, address auth) internal {... */\n    tag_158:\n        /* \"@openzeppelin/contracts/token/ERC721/ERC721.sol\":14532:14565  _approve(to, tokenId, auth, true) */\n      tag_174\n        /* \"@openzeppelin/contracts/token/ERC721/ERC721.sol\":14541:14543  to */\n      dup4\n        /* \"@openzeppelin/contracts/token/ERC721/ERC721.sol\":14545:14552  tokenId */\n      dup4\n        /* \"@openzeppelin/contracts/token/ERC721/ERC721.sol\":14554:14558  auth */\n      dup4\n        /* \"@openzeppelin/contracts/token/ERC721/ERC721.sol\":14560:14564  true */\n      0x01\n        /* \"@openzeppelin/contracts/token/ERC721/ERC721.sol\":14532:14540  _approve */\n      tag_284\n        /* \"@openzeppelin/contracts/token/ERC721/ERC721.sol\":14532:14565  _approve(to, tokenId, auth, true) */\n      jump\t// in\n        /* \"@openzeppelin/contracts/token/ERC721/ERC721.sol\":8839:9667  function _update(address to, uint256 tokenId, address auth) internal virtual returns (address) {... */\n    tag_169:\n        /* \"@openzeppelin/contracts/token/ERC721/ERC721.sol\":8925:8932  address */\n      0x00\n        /* \"@openzeppelin/contracts/token/ERC721/ERC721.sol\":5800:5816  _owners[tokenId] */\n      dup3\n      dup2\n      mstore\n        /* \"@openzeppelin/contracts/token/ERC721/ERC721.sol\":5800:5807  _owners */\n      0x02\n        /* \"@openzeppelin/contracts/token/ERC721/ERC721.sol\":5800:5816  _owners[tokenId] */\n      0x20\n      mstore\n      0x40\n      dup2\n      keccak256\n      sload\n      sub(shl(0xa0, 0x01), 0x01)\n      swap1\n      dup2\n      and\n      swap1\n        /* \"@openzeppelin/contracts/token/ERC721/ERC721.sol\":9036:9054  auth != address(0) */\n      dup4\n      and\n      iszero\n        /* \"@openzeppelin/contracts/token/ERC721/ERC721.sol\":9032:9118  if (auth != address(0)) {... */\n      tag_288\n      jumpi\n        /* \"@openzeppelin/contracts/token/ERC721/ERC721.sol\":9070:9107  _checkAuthorized(from, auth, tokenId) */\n      tag_288\n        /* \"@openzeppelin/contracts/token/ERC721/ERC721.sol\":9087:9091  from */\n      dup2\n        /* \"@openzeppelin/contracts/token/ERC721/ERC721.sol\":9093:9097  auth */\n      dup5\n        /* \"@openzeppelin/contracts/token/ERC721/ERC721.sol\":9099:9106  tokenId */\n      dup7\n        /* \"@openzeppelin/contracts/token/ERC721/ERC721.sol\":9070:9086  _checkAuthorized */\n      tag_289\n        /* \"@openzeppelin/contracts/token/ERC721/ERC721.sol\":9070:9107  _checkAuthorized(from, auth, tokenId) */\n      jump\t// in\n    tag_288:\n      sub(shl(0xa0, 0x01), 0x01)\n        /* \"@openzeppelin/contracts/token/ERC721/ERC721.sol\":9162:9180  from != address(0) */\n      dup2\n      and\n      iszero\n        /* \"@openzeppelin/contracts/token/ERC721/ERC721.sol\":9158:9431  if (from != address(0)) {... */\n      tag_290\n      jumpi\n        /* \"@openzeppelin/contracts/token/ERC721/ERC721.sol\":9278:9326  _approve(address(0), tokenId, address(0), false) */\n      tag_291\n        /* \"@openzeppelin/contracts/token/ERC721/ERC721.sol\":9295:9296  0 */\n      0x00\n        /* \"@openzeppelin/contracts/token/ERC721/ERC721.sol\":9299:9306  tokenId */\n      dup6\n        /* \"@openzeppelin/contracts/token/ERC721/ERC721.sol\":9316:9317  0 */\n      0x00\n        /* \"@openzeppelin/contracts/token/ERC721/ERC721.sol\":9320:9325  false */\n      dup1\n        /* \"@openzeppelin/contracts/token/ERC721/ERC721.sol\":9278:9286  _approve */\n      tag_284\n        /* \"@openzeppelin/contracts/token/ERC721/ERC721.sol\":9278:9326  _approve(address(0), tokenId, address(0), false) */\n      jump\t// in\n    tag_291:\n      sub(shl(0xa0, 0x01), 0x01)\n        /* \"@openzeppelin/contracts/token/ERC721/ERC721.sol\":9369:9384  _balances[from] */\n      dup2\n      and\n      0x00\n      swap1\n      dup2\n      mstore\n        /* \"@openzeppelin/contracts/token/ERC721/ERC721.sol\":9369:9378  _balances */\n      0x03\n        /* \"@openzeppelin/contracts/token/ERC721/ERC721.sol\":9369:9384  _balances[from] */\n      0x20\n      mstore\n      0x40\n      swap1\n      keccak256\n        /* \"@openzeppelin/contracts/token/ERC721/ERC721.sol\":9369:9389  _balances[from] -= 1 */\n      dup1\n      sload\n      not(0x00)\n      add\n      swap1\n      sstore\n        /* \"@openzeppelin/contracts/token/ERC721/ERC721.sol\":9158:9431  if (from != address(0)) {... */\n    tag_290:\n      sub(shl(0xa0, 0x01), 0x01)\n        /* \"@openzeppelin/contracts/token/ERC721/ERC721.sol\":9445:9461  to != address(0) */\n      dup6\n      and\n      iszero\n        /* \"@openzeppelin/contracts/token/ERC721/ERC721.sol\":9441:9564  if (to != address(0)) {... */\n      tag_292\n      jumpi\n      sub(shl(0xa0, 0x01), 0x01)\n        /* \"@openzeppelin/contracts/token/ERC721/ERC721.sol\":9505:9518  _balances[to] */\n      dup6\n      and\n      0x00\n      swap1\n      dup2\n      mstore\n        /* \"@openzeppelin/contracts/token/ERC721/ERC721.sol\":9505:9514  _balances */\n      0x03\n        /* \"@openzeppelin/contracts/token/ERC721/ERC721.sol\":9505:9518  _balances[to] */\n      0x20\n      mstore\n      0x40\n      swap1\n      keccak256\n        /* \"@openzeppelin/contracts/token/ERC721/ERC721.sol\":9505:9523  _balances[to] += 1 */\n      dup1\n      sload\n        /* \"@openzeppelin/contracts/token/ERC721/ERC721.sol\":9522:9523  1 */\n      0x01\n        /* \"@openzeppelin/contracts/token/ERC721/ERC721.sol\":9505:9523  _balances[to] += 1 */\n      add\n      swap1\n      sstore\n        /* \"@openzeppelin/contracts/token/ERC721/ERC721.sol\":9441:9564  if (to != address(0)) {... */\n    tag_292:\n        /* \"@openzeppelin/contracts/token/ERC721/ERC721.sol\":9574:9590  _owners[tokenId] */\n      0x00\n      dup5\n      dup2\n      mstore\n        /* \"@openzeppelin/contracts/token/ERC721/ERC721.sol\":9574:9581  _owners */\n      0x02\n        /* \"@openzeppelin/contracts/token/ERC721/ERC721.sol\":9574:9590  _owners[tokenId] */\n      0x20\n      mstore\n      0x40\n      dup1\n      dup3\n      keccak256\n        /* \"@openzeppelin/contracts/token/ERC721/ERC721.sol\":9574:9595  _owners[tokenId] = to */\n      dup1\n      sload\n      not(sub(shl(0xa0, 0x01), 0x01))\n      and\n      sub(shl(0xa0, 0x01), 0x01)\n      dup10\n      dup2\n      and\n      swap2\n      dup3\n      or\n      swap1\n      swap3\n      sstore\n        /* \"@openzeppelin/contracts/token/ERC721/ERC721.sol\":9611:9638  Transfer(from, to, tokenId) */\n      swap2\n      mload\n        /* \"@openzeppelin/contracts/token/ERC721/ERC721.sol\":9574:9590  _owners[tokenId] */\n      dup8\n      swap4\n        /* \"@openzeppelin/contracts/token/ERC721/ERC721.sol\":9611:9638  Transfer(from, to, tokenId) */\n      swap2\n      dup6\n      and\n      swap2\n      0xddf252ad1be2c89b69c2b068fc378daa952ba7f163c4a11628f55a4df523b3ef\n      swap2\n      log4\n        /* \"@openzeppelin/contracts/token/ERC721/ERC721.sol\":9656:9660  from */\n      swap5\n        /* \"@openzeppelin/contracts/token/ERC721/ERC721.sol\":8839:9667  function _update(address to, uint256 tokenId, address auth) internal virtual returns (address) {... */\n      swap4\n      pop\n      pop\n      pop\n      pop\n      jump\t// out\n        /* \"@openzeppelin/contracts/token/ERC721/ERC721.sol\":10667:10767  function _safeMint(address to, uint256 tokenId) internal {... */\n    tag_191:\n        /* \"@openzeppelin/contracts/token/ERC721/ERC721.sol\":10734:10760  _safeMint(to, tokenId, \"\") */\n      tag_155\n        /* \"@openzeppelin/contracts/token/ERC721/ERC721.sol\":10744:10746  to */\n      dup3\n        /* \"@openzeppelin/contracts/token/ERC721/ERC721.sol\":10748:10755  tokenId */\n      dup3\n        /* \"@openzeppelin/contracts/token/ERC721/ERC721.sol\":10734:10760  _safeMint(to, tokenId, \"\") */\n      mload(0x40)\n      dup1\n      0x20\n      add\n      0x40\n      mstore\n      dup1\n      0x00\n      dup2\n      mstore\n      pop\n        /* \"@openzeppelin/contracts/token/ERC721/ERC721.sol\":10734:10743  _safeMint */\n      tag_297\n        /* \"@openzeppelin/contracts/token/ERC721/ERC721.sol\":10734:10760  _safeMint(to, tokenId, \"\") */\n      jump\t// in\n        /* \"@openzeppelin/contracts/token/ERC721/extensions/ERC721URIStorage.sol\":1922:2089  function _setTokenURI(uint256 tokenId, string memory _tokenURI) internal virtual {... */\n    tag_193:\n        /* \"@openzeppelin/contracts/token/ERC721/extensions/ERC721URIStorage.sol\":2013:2032  _tokenURIs[tokenId] */\n      0x00\n      dup3\n      dup2\n      mstore\n        /* \"@openzeppelin/contracts/token/ERC721/extensions/ERC721URIStorage.sol\":2013:2023  _tokenURIs */\n      0x06\n        /* \"@openzeppelin/contracts/token/ERC721/extensions/ERC721URIStorage.sol\":2013:2032  _tokenURIs[tokenId] */\n      0x20\n      mstore\n      0x40\n      swap1\n      keccak256\n        /* \"@openzeppelin/contracts/token/ERC721/extensions/ERC721URIStorage.sol\":2013:2044  _tokenURIs[tokenId] = _tokenURI */\n      tag_299\n        /* \"@openzeppelin/contracts/token/ERC721/extensions/ERC721URIStorage.sol\":2035:2044  _tokenURI */\n      dup3\n        /* \"@openzeppelin/contracts/token/ERC721/extensions/ERC721URIStorage.sol\":2013:2032  _tokenURIs[tokenId] */\n      dup3\n        /* \"@openzeppelin/contracts/token/ERC721/extensions/ERC721URIStorage.sol\":2013:2044  _tokenURIs[tokenId] = _tokenURI */\n      tag_189\n      jump\t// in\n    tag_299:\n      pop\n        /* \"@openzeppelin/contracts/token/ERC721/extensions/ERC721URIStorage.sol\":2059:2082  MetadataUpdate(tokenId) */\n      mload(0x40)\n        /* \"#utility.yul\":1107:1132   */\n      dup3\n      dup2\n      mstore\n        /* \"@openzeppelin/contracts/token/ERC721/extensions/ERC721URIStorage.sol\":2059:2082  MetadataUpdate(tokenId) */\n      0xf8e1a15aba9398e019f0b49df1a4fde98ee17ae345cb5f6b5e2c27f5033e8ce7\n      swap1\n        /* \"#utility.yul\":1095:1097   */\n      0x20\n        /* \"#utility.yul\":1080:1098   */\n      add\n        /* \"@openzeppelin/contracts/token/ERC721/extensions/ERC721URIStorage.sol\":2059:2082  MetadataUpdate(tokenId) */\n      mload(0x40)\n      dup1\n      swap2\n      sub\n      swap1\n      log1\n        /* \"@openzeppelin/contracts/token/ERC721/extensions/ERC721URIStorage.sol\":1922:2089  function _setTokenURI(uint256 tokenId, string memory _tokenURI) internal virtual {... */\n      pop\n      pop\n      jump\t// out\n        /* \"@openzeppelin/contracts/access/Ownable.sol\":1796:1958  function _checkOwner() internal view virtual {... */\n    tag_215:\n        /* \"@openzeppelin/contracts/access/Ownable.sol\":1710:1716  _owner */\n      and(sub(shl(0xa0, 0x01), 0x01), sload(0x07))\n        /* \"@openzeppelin/contracts/utils/Context.sol\":735:745  msg.sender */\n      caller\n        /* \"@openzeppelin/contracts/access/Ownable.sol\":1855:1878  owner() != _msgSender() */\n      eq\n        /* \"@openzeppelin/contracts/access/Ownable.sol\":1851:1952  if (owner() != _msgSender()) {... */\n      tag_217\n      jumpi\n        /* \"@openzeppelin/contracts/access/Ownable.sol\":1901:1941  OwnableUnauthorizedAccount(_msgSender()) */\n      mload(0x40)\n      shl(0xe0, 0x118cdaa7)\n      dup2\n      mstore\n        /* \"@openzeppelin/contracts/utils/Context.sol\":735:745  msg.sender */\n      caller\n        /* \"@openzeppelin/contracts/access/Ownable.sol\":1901:1941  OwnableUnauthorizedAccount(_msgSender()) */\n      0x04\n      dup3\n      add\n        /* \"#utility.yul\":2276:2327   */\n      mstore\n        /* \"#utility.yul\":2249:2267   */\n      0x24\n      add\n        /* \"@openzeppelin/contracts/access/Ownable.sol\":1901:1941  OwnableUnauthorizedAccount(_msgSender()) */\n      tag_166\n        /* \"#utility.yul\":2130:2333   */\n      jump\n        /* \"@openzeppelin/contracts/access/Ownable.sol\":2912:3099  function _transferOwnership(address newOwner) internal virtual {... */\n    tag_218:\n        /* \"@openzeppelin/contracts/access/Ownable.sol\":3004:3010  _owner */\n      0x07\n      dup1\n      sload\n      sub(shl(0xa0, 0x01), 0x01)\n        /* \"@openzeppelin/contracts/access/Ownable.sol\":3020:3037  _owner = newOwner */\n      dup4\n      dup2\n      and\n      not(sub(shl(0xa0, 0x01), 0x01))\n      dup4\n      and\n      dup2\n      or\n      swap1\n      swap4\n      sstore\n        /* \"@openzeppelin/contracts/access/Ownable.sol\":3052:3092  OwnershipTransferred(oldOwner, newOwner) */\n      mload(0x40)\n        /* \"@openzeppelin/contracts/access/Ownable.sol\":3004:3010  _owner */\n      swap2\n      and\n      swap2\n        /* \"@openzeppelin/contracts/access/Ownable.sol\":3020:3037  _owner = newOwner */\n      swap1\n        /* \"@openzeppelin/contracts/access/Ownable.sol\":3004:3010  _owner */\n      dup3\n      swap1\n        /* \"@openzeppelin/contracts/access/Ownable.sol\":3052:3092  OwnershipTransferred(oldOwner, newOwner) */\n      0x8be0079c531659141344cd1fd0a4f28419497f9722a3daafe3b4186f6b6457e0\n      swap1\n        /* \"@openzeppelin/contracts/access/Ownable.sol\":2985:3001  address oldOwner */\n      0x00\n      swap1\n        /* \"@openzeppelin/contracts/access/Ownable.sol\":3052:3092  OwnershipTransferred(oldOwner, newOwner) */\n      log3\n        /* \"@openzeppelin/contracts/access/Ownable.sol\":2975:3099  {... */\n      pop\n        /* \"@openzeppelin/contracts/access/Ownable.sol\":2912:3099  function _transferOwnership(address newOwner) internal virtual {... */\n      pop\n      jump\t// out\n        /* \"@openzeppelin/contracts/token/ERC721/ERC721.sol\":15625:15937  function _setApprovalForAll(address owner, address operator, bool approved) internal virtual {... */\n    tag_237:\n      sub(shl(0xa0, 0x01), 0x01)\n        /* \"@openzeppelin/contracts/token/ERC721/ERC721.sol\":15732:15754  operator == address(0) */\n      dup3\n      and\n        /* \"@openzeppelin/contracts/token/ERC721/ERC721.sol\":15728:15819  if (operator == address(0)) {... */\n      tag_309\n      jumpi\n        /* \"@openzeppelin/contracts/token/ERC721/ERC721.sol\":15777:15808  ERC721InvalidOperator(operator) */\n      mload(0x40)\n      shl(0xe3, 0x0b611743)\n      dup2\n      mstore\n      sub(shl(0xa0, 0x01), 0x01)\n        /* \"#utility.yul\":2294:2326   */\n      dup4\n      and\n        /* \"@openzeppelin/contracts/token/ERC721/ERC721.sol\":15777:15808  ERC721InvalidOperator(operator) */\n      0x04\n      dup3\n      add\n        /* \"#utility.yul\":2276:2327   */\n      mstore\n        /* \"#utility.yul\":2249:2267   */\n      0x24\n      add\n        /* \"@openzeppelin/contracts/token/ERC721/ERC721.sol\":15777:15808  ERC721InvalidOperator(operator) */\n      tag_166\n        /* \"#utility.yul\":2130:2333   */\n      jump\n        /* \"@openzeppelin/contracts/token/ERC721/ERC721.sol\":15728:15819  if (operator == address(0)) {... */\n    tag_309:\n      sub(shl(0xa0, 0x01), 0x01)\n        /* \"@openzeppelin/contracts/token/ERC721/ERC721.sol\":15828:15853  _operatorApprovals[owner] */\n      dup4\n      dup2\n      and\n      0x00\n      dup2\n      dup2\n      mstore\n        /* \"@openzeppelin/contracts/token/ERC721/ERC721.sol\":15828:15846  _operatorApprovals */\n      0x05\n        /* \"@openzeppelin/contracts/token/ERC721/ERC721.sol\":15828:15853  _operatorApprovals[owner] */\n      0x20\n      swap1\n      dup2\n      mstore\n      0x40\n      dup1\n      dup4\n      keccak256\n        /* \"@openzeppelin/contracts/token/ERC721/ERC721.sol\":15828:15863  _operatorApprovals[owner][operator] */\n      swap5\n      dup8\n      and\n      dup1\n      dup5\n      mstore\n      swap5\n      dup3\n      mstore\n      swap2\n      dup3\n      swap1\n      keccak256\n        /* \"@openzeppelin/contracts/token/ERC721/ERC721.sol\":15828:15874  _operatorApprovals[owner][operator] = approved */\n      dup1\n      sload\n      not(0xff)\n      and\n      dup7\n      iszero\n      iszero\n      swap1\n      dup2\n      or\n      swap1\n      swap2\n      sstore\n        /* \"@openzeppelin/contracts/token/ERC721/ERC721.sol\":15889:15930  ApprovalForAll(owner, operator, approved) */\n      swap2\n      mload\n        /* \"#utility.yul\":540:581   */\n      swap2\n      dup3\n      mstore\n        /* \"@openzeppelin/contracts/token/ERC721/ERC721.sol\":15889:15930  ApprovalForAll(owner, operator, approved) */\n      0x17307eab39ab6107e8899845ad3d59bd9653f200f220920489ca2b5937696c31\n      swap2\n        /* \"#utility.yul\":513:531   */\n      add\n        /* \"@openzeppelin/contracts/token/ERC721/ERC721.sol\":15889:15930  ApprovalForAll(owner, operator, approved) */\n      mload(0x40)\n      dup1\n      swap2\n      sub\n      swap1\n      log3\n        /* \"@openzeppelin/contracts/token/ERC721/ERC721.sol\":15625:15937  function _setApprovalForAll(address owner, address operator, bool approved) internal virtual {... */\n      pop\n      pop\n      pop\n      jump\t// out\n        /* \"@openzeppelin/contracts/token/ERC721/ERC721.sol\":16952:17734  function _checkOnERC721Received(address from, address to, uint256 tokenId, bytes memory data) private {... */\n    tag_241:\n      sub(shl(0xa0, 0x01), 0x01)\n        /* \"@openzeppelin/contracts/token/ERC721/ERC721.sol\":17068:17082  to.code.length */\n      dup4\n      and\n      extcodesize\n        /* \"@openzeppelin/contracts/token/ERC721/ERC721.sol\":17068:17086  to.code.length > 0 */\n      iszero\n        /* \"@openzeppelin/contracts/token/ERC721/ERC721.sol\":17064:17728  if (to.code.length > 0) {... */\n      tag_170\n      jumpi\n        /* \"@openzeppelin/contracts/token/ERC721/ERC721.sol\":17106:17177  IERC721Receiver(to).onERC721Received(_msgSender(), from, tokenId, data) */\n      mload(0x40)\n      shl(0xe1, 0x0a85bd01)\n      dup2\n      mstore\n      sub(shl(0xa0, 0x01), 0x01)\n        /* \"@openzeppelin/contracts/token/ERC721/ERC721.sol\":17106:17142  IERC721Receiver(to).onERC721Received */\n      dup5\n      and\n      swap1\n      0x150b7a02\n      swap1\n        /* \"@openzeppelin/contracts/token/ERC721/ERC721.sol\":17106:17177  IERC721Receiver(to).onERC721Received(_msgSender(), from, tokenId, data) */\n      tag_315\n      swap1\n        /* \"@openzeppelin/contracts/utils/Context.sol\":735:745  msg.sender */\n      caller\n      swap1\n        /* \"@openzeppelin/contracts/token/ERC721/ERC721.sol\":17157:17161  from */\n      dup9\n      swap1\n        /* \"@openzeppelin/contracts/token/ERC721/ERC721.sol\":17163:17170  tokenId */\n      dup8\n      swap1\n        /* \"@openzeppelin/contracts/token/ERC721/ERC721.sol\":17172:17176  data */\n      dup8\n      swap1\n        /* \"@openzeppelin/contracts/token/ERC721/ERC721.sol\":17106:17177  IERC721Receiver(to).onERC721Received(_msgSender(), from, tokenId, data) */\n      0x04\n      add\n      tag_316\n      jump\t// in\n    tag_315:\n      0x20\n      mload(0x40)\n      dup1\n      dup4\n      sub\n      dup2\n      0x00\n      dup8\n      gas\n      call\n      swap3\n      pop\n      pop\n      pop\n      dup1\n      iszero\n      tag_317\n      jumpi\n      pop\n      0x40\n      dup1\n      mload\n      0x1f\n      returndatasize\n      swap1\n      dup2\n      add\n      not(0x1f)\n      and\n      dup3\n      add\n      swap1\n      swap3\n      mstore\n      tag_318\n      swap2\n      dup2\n      add\n      swap1\n      tag_319\n      jump\t// in\n    tag_318:\n      0x01\n    tag_317:\n        /* \"@openzeppelin/contracts/token/ERC721/ERC721.sol\":17102:17718  try IERC721Receiver(to).onERC721Received(_msgSender(), from, tokenId, data) returns (bytes4 retval) {... */\n      tag_320\n      jumpi\n      returndatasize\n      dup1\n      dup1\n      iszero\n      tag_325\n      jumpi\n      mload(0x40)\n      swap2\n      pop\n      and(add(returndatasize, 0x3f), not(0x1f))\n      dup3\n      add\n      0x40\n      mstore\n      returndatasize\n      dup3\n      mstore\n      returndatasize\n      0x00\n      0x20\n      dup5\n      add\n      returndatacopy\n      jump(tag_324)\n    tag_325:\n      0x60\n      swap2\n      pop\n    tag_324:\n      pop\n        /* \"@openzeppelin/contracts/token/ERC721/ERC721.sol\":17415:17421  reason */\n      dup1\n        /* \"@openzeppelin/contracts/token/ERC721/ERC721.sol\":17415:17428  reason.length */\n      mload\n        /* \"@openzeppelin/contracts/token/ERC721/ERC721.sol\":17432:17433  0 */\n      0x00\n        /* \"@openzeppelin/contracts/token/ERC721/ERC721.sol\":17415:17433  reason.length == 0 */\n      sub\n        /* \"@openzeppelin/contracts/token/ERC721/ERC721.sol\":17411:17704  if (reason.length == 0) {... */\n      tag_326\n      jumpi\n        /* \"@openzeppelin/contracts/token/ERC721/ERC721.sol\":17464:17489  ERC721InvalidReceiver(to) */\n      mload(0x40)\n      shl(0xe1, 0x32505749)\n      dup2\n      mstore\n      sub(shl(0xa0, 0x01), 0x01)\n        /* \"#utility.yul\":2294:2326   */\n      dup6\n      and\n        /* \"@openzeppelin/contracts/token/ERC721/ERC721.sol\":17464:17489  ERC721InvalidReceiver(to) */\n      0x04\n      dup3\n      add\n        /* \"#utility.yul\":2276:2327   */\n      mstore\n        /* \"#utility.yul\":2249:2267   */\n      0x24\n      add\n        /* \"@openzeppelin/contracts/token/ERC721/ERC721.sol\":17464:17489  ERC721InvalidReceiver(to) */\n      tag_166\n        /* \"#utility.yul\":2130:2333   */\n      jump\n        /* \"@openzeppelin/contracts/token/ERC721/ERC721.sol\":17411:17704  if (reason.length == 0) {... */\n    tag_326:\n        /* \"@openzeppelin/contracts/token/ERC721/ERC721.sol\":17656:17662  reason */\n      dup1\n        /* \"@openzeppelin/contracts/token/ERC721/ERC721.sol\":17650:17663  mload(reason) */\n      mload\n        /* \"@openzeppelin/contracts/token/ERC721/ERC721.sol\":17641:17647  reason */\n      dup2\n        /* \"@openzeppelin/contracts/token/ERC721/ERC721.sol\":17637:17639  32 */\n      0x20\n        /* \"@openzeppelin/contracts/token/ERC721/ERC721.sol\":17633:17648  add(32, reason) */\n      add\n        /* \"@openzeppelin/contracts/token/ERC721/ERC721.sol\":17626:17664  revert(add(32, reason), mload(reason)) */\n      revert\n        /* \"@openzeppelin/contracts/token/ERC721/ERC721.sol\":17102:17718  try IERC721Receiver(to).onERC721Received(_msgSender(), from, tokenId, data) returns (bytes4 retval) {... */\n    tag_320:\n      not(sub(shl(0xe0, 0x01), 0x01))\n        /* \"@openzeppelin/contracts/token/ERC721/ERC721.sol\":17224:17275  retval != IERC721Receiver.onERC721Received.selector */\n      dup2\n      and\n      shl(0xe1, 0x0a85bd01)\n      eq\n        /* \"@openzeppelin/contracts/token/ERC721/ERC721.sol\":17220:17350  if (retval != IERC721Receiver.onERC721Received.selector) {... */\n      tag_330\n      jumpi\n        /* \"@openzeppelin/contracts/token/ERC721/ERC721.sol\":17306:17331  ERC721InvalidReceiver(to) */\n      mload(0x40)\n      shl(0xe1, 0x32505749)\n      dup2\n      mstore\n      sub(shl(0xa0, 0x01), 0x01)\n        /* \"#utility.yul\":2294:2326   */\n      dup6\n      and\n        /* \"@openzeppelin/contracts/token/ERC721/ERC721.sol\":17306:17331  ERC721InvalidReceiver(to) */\n      0x04\n      dup3\n      add\n        /* \"#utility.yul\":2276:2327   */\n      mstore\n        /* \"#utility.yul\":2249:2267   */\n      0x24\n      add\n        /* \"@openzeppelin/contracts/token/ERC721/ERC721.sol\":17306:17331  ERC721InvalidReceiver(to) */\n      tag_166\n        /* \"#utility.yul\":2130:2333   */\n      jump\n        /* \"@openzeppelin/contracts/token/ERC721/ERC721.sol\":17220:17350  if (retval != IERC721Receiver.onERC721Received.selector) {... */\n    tag_330:\n        /* \"@openzeppelin/contracts/token/ERC721/ERC721.sol\":17178:17364  returns (bytes4 retval) {... */\n      pop\n        /* \"@openzeppelin/contracts/token/ERC721/ERC721.sol\":16952:17734  function _checkOnERC721Received(address from, address to, uint256 tokenId, bytes memory data) private {... */\n      pop\n      pop\n      pop\n      pop\n      jump\t// out\n        /* \"@openzeppelin/contracts/token/ERC721/extensions/ERC721URIStorage.sol\":1210:1803  function tokenURI(uint256 tokenId) public view virtual override returns (string memory) {... */\n    tag_244:\n        /* \"@openzeppelin/contracts/token/ERC721/extensions/ERC721URIStorage.sol\":1283:1296  string memory */\n      0x60\n        /* \"@openzeppelin/contracts/token/ERC721/extensions/ERC721URIStorage.sol\":1308:1330  _requireOwned(tokenId) */\n      tag_333\n        /* \"@openzeppelin/contracts/token/ERC721/extensions/ERC721URIStorage.sol\":1322:1329  tokenId */\n      dup3\n        /* \"@openzeppelin/contracts/token/ERC721/extensions/ERC721URIStorage.sol\":1308:1321  _requireOwned */\n      tag_151\n        /* \"@openzeppelin/contracts/token/ERC721/extensions/ERC721URIStorage.sol\":1308:1330  _requireOwned(tokenId) */\n      jump\t// in\n    tag_333:\n      pop\n        /* \"@openzeppelin/contracts/token/ERC721/extensions/ERC721URIStorage.sol\":1341:1364  string memory _tokenURI */\n      0x00\n        /* \"@openzeppelin/contracts/token/ERC721/extensions/ERC721URIStorage.sol\":1367:1386  _tokenURIs[tokenId] */\n      dup3\n      dup2\n      mstore\n        /* \"@openzeppelin/contracts/token/ERC721/extensions/ERC721URIStorage.sol\":1367:1377  _tokenURIs */\n      0x06\n        /* \"@openzeppelin/contracts/token/ERC721/extensions/ERC721URIStorage.sol\":1367:1386  _tokenURIs[tokenId] */\n      0x20\n      mstore\n      0x40\n      dup2\n      keccak256\n        /* \"@openzeppelin/contracts/token/ERC721/extensions/ERC721URIStorage.sol\":1341:1386  string memory _tokenURI = _tokenURIs[tokenId] */\n      dup1\n      sload\n      tag_334\n      swap1\n      tag_144\n      jump\t// in\n    tag_334:\n      dup1\n      0x1f\n      add\n      0x20\n      dup1\n      swap2\n      div\n      mul\n      0x20\n      add\n      mload(0x40)\n      swap1\n      dup2\n      add\n      0x40\n      mstore\n      dup1\n      swap3\n      swap2\n      swap1\n      dup2\n      dup2\n      mstore\n      0x20\n      add\n      dup3\n      dup1\n      sload\n      tag_335\n      swap1\n      tag_144\n      jump\t// in\n    tag_335:\n      dup1\n      iszero\n      tag_336\n      jumpi\n      dup1\n      0x1f\n      lt\n      tag_337\n      jumpi\n      0x0100\n      dup1\n      dup4\n      sload\n      div\n      mul\n      dup4\n      mstore\n      swap2\n      0x20\n      add\n      swap2\n      jump(tag_336)\n    tag_337:\n      dup3\n      add\n      swap2\n      swap1\n      0x00\n      mstore\n      keccak256(0x00, 0x20)\n      swap1\n    tag_338:\n      dup2\n      sload\n      dup2\n      mstore\n      swap1\n      0x01\n      add\n      swap1\n      0x20\n      add\n      dup1\n      dup4\n      gt\n      tag_338\n      jumpi\n      dup3\n      swap1\n      sub\n      0x1f\n      and\n      dup3\n      add\n      swap2\n    tag_336:\n      pop\n      pop\n      pop\n      pop\n      pop\n      swap1\n      pop\n        /* \"@openzeppelin/contracts/token/ERC721/extensions/ERC721URIStorage.sol\":1396:1414  string memory base */\n      0x00\n        /* \"@openzeppelin/contracts/token/ERC721/extensions/ERC721URIStorage.sol\":1417:1427  _baseURI() */\n      tag_339\n        /* \"@openzeppelin/contracts/token/ERC721/ERC721.sol\":3251:3260  return \"\" */\n      0x40\n      dup1\n      mload\n      0x20\n      dup2\n      add\n      swap1\n      swap2\n      mstore\n      0x00\n      dup2\n      mstore\n      swap1\n        /* \"@openzeppelin/contracts/token/ERC721/ERC721.sol\":3175:3267  function _baseURI() internal view virtual returns (string memory) {... */\n      jump\n        /* \"@openzeppelin/contracts/token/ERC721/extensions/ERC721URIStorage.sol\":1417:1427  _baseURI() */\n    tag_339:\n        /* \"@openzeppelin/contracts/token/ERC721/extensions/ERC721URIStorage.sol\":1396:1427  string memory base = _baseURI() */\n      swap1\n      pop\n        /* \"@openzeppelin/contracts/token/ERC721/extensions/ERC721URIStorage.sol\":1506:1510  base */\n      dup1\n        /* \"@openzeppelin/contracts/token/ERC721/extensions/ERC721URIStorage.sol\":1500:1518  bytes(base).length */\n      mload\n        /* \"@openzeppelin/contracts/token/ERC721/extensions/ERC721URIStorage.sol\":1522:1523  0 */\n      0x00\n        /* \"@openzeppelin/contracts/token/ERC721/extensions/ERC721URIStorage.sol\":1500:1523  bytes(base).length == 0 */\n      sub\n        /* \"@openzeppelin/contracts/token/ERC721/extensions/ERC721URIStorage.sol\":1496:1566  if (bytes(base).length == 0) {... */\n      tag_341\n      jumpi\n      pop\n        /* \"@openzeppelin/contracts/token/ERC721/extensions/ERC721URIStorage.sol\":1546:1555  _tokenURI */\n      swap3\n        /* \"@openzeppelin/contracts/token/ERC721/extensions/ERC721URIStorage.sol\":1210:1803  function tokenURI(uint256 tokenId) public view virtual override returns (string memory) {... */\n      swap2\n      pop\n      pop\n      jump\t// out\n        /* \"@openzeppelin/contracts/token/ERC721/extensions/ERC721URIStorage.sol\":1496:1566  if (bytes(base).length == 0) {... */\n    tag_341:\n        /* \"@openzeppelin/contracts/token/ERC721/extensions/ERC721URIStorage.sol\":1665:1688  bytes(_tokenURI).length */\n      dup2\n      mload\n        /* \"@openzeppelin/contracts/token/ERC721/extensions/ERC721URIStorage.sol\":1665:1692  bytes(_tokenURI).length > 0 */\n      iszero\n        /* \"@openzeppelin/contracts/token/ERC721/extensions/ERC721URIStorage.sol\":1661:1756  if (bytes(_tokenURI).length > 0) {... */\n      tag_342\n      jumpi\n        /* \"@openzeppelin/contracts/token/ERC721/extensions/ERC721URIStorage.sol\":1729:1733  base */\n      dup1\n        /* \"@openzeppelin/contracts/token/ERC721/extensions/ERC721URIStorage.sol\":1735:1744  _tokenURI */\n      dup3\n        /* \"@openzeppelin/contracts/token/ERC721/extensions/ERC721URIStorage.sol\":1715:1745  string.concat(base, _tokenURI) */\n      add(0x20, mload(0x40))\n      tag_343\n      swap3\n      swap2\n      swap1\n      tag_344\n      jump\t// in\n    tag_343:\n      mload(0x40)\n      0x20\n      dup2\n      dup4\n      sub\n      sub\n      dup2\n      mstore\n      swap1\n      0x40\n      mstore\n        /* \"@openzeppelin/contracts/token/ERC721/extensions/ERC721URIStorage.sol\":1708:1745  return string.concat(base, _tokenURI) */\n      swap3\n      pop\n      pop\n      pop\n        /* \"@openzeppelin/contracts/token/ERC721/extensions/ERC721URIStorage.sol\":1210:1803  function tokenURI(uint256 tokenId) public view virtual override returns (string memory) {... */\n      swap2\n      swap1\n      pop\n      jump\t// out\n        /* \"@openzeppelin/contracts/token/ERC721/extensions/ERC721URIStorage.sol\":1661:1756  if (bytes(_tokenURI).length > 0) {... */\n    tag_342:\n        /* \"@openzeppelin/contracts/token/ERC721/extensions/ERC721URIStorage.sol\":1773:1796  super.tokenURI(tokenId) */\n      tag_345\n        /* \"@openzeppelin/contracts/token/ERC721/extensions/ERC721URIStorage.sol\":1788:1795  tokenId */\n      dup5\n        /* \"@openzeppelin/contracts/token/ERC721/extensions/ERC721URIStorage.sol\":1773:1787  super.tokenURI */\n      tag_346\n        /* \"@openzeppelin/contracts/token/ERC721/extensions/ERC721URIStorage.sol\":1773:1796  super.tokenURI(tokenId) */\n      jump\t// in\n    tag_345:\n        /* \"@openzeppelin/contracts/token/ERC721/extensions/ERC721URIStorage.sol\":1766:1796  return super.tokenURI(tokenId) */\n      swap5\n        /* \"@openzeppelin/contracts/token/ERC721/extensions/ERC721URIStorage.sol\":1210:1803  function tokenURI(uint256 tokenId) public view virtual override returns (string memory) {... */\n      swap4\n      pop\n      pop\n      pop\n      pop\n      jump\t// out\n        /* \"@openzeppelin/contracts/token/ERC721/ERC721.sol\":1562:1862  function supportsInterface(bytes4 interfaceId) public view virtual override(ERC165, IERC165) returns (bool) {... */\n    tag_274:\n        /* \"@openzeppelin/contracts/token/ERC721/ERC721.sol\":1664:1668  bool */\n      0x00\n      not(sub(shl(0xe0, 0x01), 0x01))\n        /* \"@openzeppelin/contracts/token/ERC721/ERC721.sol\":1699:1739  interfaceId == type(IERC721).interfaceId */\n      dup3\n      and\n      shl(0xe0, 0x80ac58cd)\n      eq\n      dup1\n        /* \"@openzeppelin/contracts/token/ERC721/ERC721.sol\":1699:1803  interfaceId == type(IERC721).interfaceId ||... */\n      tag_348\n      jumpi\n      pop\n      not(sub(shl(0xe0, 0x01), 0x01))\n        /* \"@openzeppelin/contracts/token/ERC721/ERC721.sol\":1755:1803  interfaceId == type(IERC721Metadata).interfaceId */\n      dup3\n      and\n      shl(0xe0, 0x5b5e139f)\n      eq\n        /* \"@openzeppelin/contracts/token/ERC721/ERC721.sol\":1699:1803  interfaceId == type(IERC721).interfaceId ||... */\n    tag_348:\n        /* \"@openzeppelin/contracts/token/ERC721/ERC721.sol\":1699:1855  interfaceId == type(IERC721).interfaceId ||... */\n      dup1\n      tag_140\n      jumpi\n      pop\n      shl(0xe0, 0x01ffc9a7)\n      not(sub(shl(0xe0, 0x01), 0x01))\n        /* \"@openzeppelin/contracts/utils/introspection/ERC165.sol\":861:901  interfaceId == type(IERC165).interfaceId */\n      dup4\n      and\n      eq\n        /* \"@openzeppelin/contracts/token/ERC721/ERC721.sol\":1819:1855  super.supportsInterface(interfaceId) */\n      tag_140\n        /* \"@openzeppelin/contracts/utils/introspection/ERC165.sol\":762:908  function supportsInterface(bytes4 interfaceId) public view virtual returns (bool) {... */\n      jump\n        /* \"@openzeppelin/contracts/token/ERC721/ERC721.sol\":14754:15416  function _approve(address to, uint256 tokenId, address auth, bool emitEvent) internal virtual {... */\n    tag_284:\n        /* \"@openzeppelin/contracts/token/ERC721/ERC721.sol\":14914:14923  emitEvent */\n      dup1\n        /* \"@openzeppelin/contracts/token/ERC721/ERC721.sol\":14914:14945  emitEvent || auth != address(0) */\n      dup1\n      tag_354\n      jumpi\n      pop\n      sub(shl(0xa0, 0x01), 0x01)\n        /* \"@openzeppelin/contracts/token/ERC721/ERC721.sol\":14927:14945  auth != address(0) */\n      dup3\n      and\n      iszero\n      iszero\n        /* \"@openzeppelin/contracts/token/ERC721/ERC721.sol\":14914:14945  emitEvent || auth != address(0) */\n    tag_354:\n        /* \"@openzeppelin/contracts/token/ERC721/ERC721.sol\":14910:15370  if (emitEvent || auth != address(0)) {... */\n      iszero\n      tag_355\n      jumpi\n        /* \"@openzeppelin/contracts/token/ERC721/ERC721.sol\":14961:14974  address owner */\n      0x00\n        /* \"@openzeppelin/contracts/token/ERC721/ERC721.sol\":14977:14999  _requireOwned(tokenId) */\n      tag_356\n        /* \"@openzeppelin/contracts/token/ERC721/ERC721.sol\":14991:14998  tokenId */\n      dup5\n        /* \"@openzeppelin/contracts/token/ERC721/ERC721.sol\":14977:14990  _requireOwned */\n      tag_151\n        /* \"@openzeppelin/contracts/token/ERC721/ERC721.sol\":14977:14999  _requireOwned(tokenId) */\n      jump\t// in\n    tag_356:\n        /* \"@openzeppelin/contracts/token/ERC721/ERC721.sol\":14961:14999  address owner = _requireOwned(tokenId) */\n      swap1\n      pop\n      sub(shl(0xa0, 0x01), 0x01)\n        /* \"@openzeppelin/contracts/token/ERC721/ERC721.sol\":15127:15145  auth != address(0) */\n      dup4\n      and\n      iszero\n      dup1\n      iszero\n      swap1\n        /* \"@openzeppelin/contracts/token/ERC721/ERC721.sol\":15127:15162  auth != address(0) && owner != auth */\n      tag_357\n      jumpi\n      pop\n        /* \"@openzeppelin/contracts/token/ERC721/ERC721.sol\":15158:15162  auth */\n      dup3\n      sub(shl(0xa0, 0x01), 0x01)\n        /* \"@openzeppelin/contracts/token/ERC721/ERC721.sol\":15149:15162  owner != auth */\n      and\n        /* \"@openzeppelin/contracts/token/ERC721/ERC721.sol\":15149:15154  owner */\n      dup2\n      sub(shl(0xa0, 0x01), 0x01)\n        /* \"@openzeppelin/contracts/token/ERC721/ERC721.sol\":15149:15162  owner != auth */\n      and\n      eq\n      iszero\n        /* \"@openzeppelin/contracts/token/ERC721/ERC721.sol\":15127:15162  auth != address(0) && owner != auth */\n    tag_357:\n        /* \"@openzeppelin/contracts/token/ERC721/ERC721.sol\":15127:15196  auth != address(0) && owner != auth && !isApprovedForAll(owner, auth) */\n      dup1\n      iszero\n      tag_358\n      jumpi\n      pop\n        /* \"@openzeppelin/contracts/token/ERC721/ERC721.sol\":15167:15196  isApprovedForAll(owner, auth) */\n      tag_359\n        /* \"@openzeppelin/contracts/token/ERC721/ERC721.sol\":15184:15189  owner */\n      dup2\n        /* \"@openzeppelin/contracts/token/ERC721/ERC721.sol\":15191:15195  auth */\n      dup5\n        /* \"@openzeppelin/contracts/token/ERC721/ERC721.sol\":15167:15183  isApprovedForAll */\n      tag_125\n        /* \"@openzeppelin/contracts/token/ERC721/ERC721.sol\":15167:15196  isApprovedForAll(owner, auth) */\n      jump\t// in\n    tag_359:\n        /* \"@openzeppelin/contracts/token/ERC721/ERC721.sol\":15166:15196  !isApprovedForAll(owner, auth) */\n      iszero\n        /* \"@openzeppelin/contracts/token/ERC721/ERC721.sol\":15127:15196  auth != address(0) && owner != auth && !isApprovedForAll(owner, auth) */\n    tag_358:\n        /* \"@openzeppelin/contracts/token/ERC721/ERC721.sol\":15123:15265  if (auth != address(0) && owner != auth && !isApprovedForAll(owner, auth)) {... */\n      iszero\n      tag_360\n      jumpi\n        /* \"@openzeppelin/contracts/token/ERC721/ERC721.sol\":15223:15250  ERC721InvalidApprover(auth) */\n      mload(0x40)\n      shl(0xe0, 0xa9fbf51f)\n      dup2\n      mstore\n      sub(shl(0xa0, 0x01), 0x01)\n        /* \"#utility.yul\":2294:2326   */\n      dup5\n      and\n        /* \"@openzeppelin/contracts/token/ERC721/ERC721.sol\":15223:15250  ERC721InvalidApprover(auth) */\n      0x04\n      dup3\n      add\n        /* \"#utility.yul\":2276:2327   */\n      mstore\n        /* \"#utility.yul\":2249:2267   */\n      0x24\n      add\n        /* \"@openzeppelin/contracts/token/ERC721/ERC721.sol\":15223:15250  ERC721InvalidApprover(auth) */\n      tag_166\n        /* \"#utility.yul\":2130:2333   */\n      jump\n        /* \"@openzeppelin/contracts/token/ERC721/ERC721.sol\":15123:15265  if (auth != address(0) && owner != auth && !isApprovedForAll(owner, auth)) {... */\n    tag_360:\n        /* \"@openzeppelin/contracts/token/ERC721/ERC721.sol\":15283:15292  emitEvent */\n      dup2\n        /* \"@openzeppelin/contracts/token/ERC721/ERC721.sol\":15279:15360  if (emitEvent) {... */\n      iszero\n      tag_362\n      jumpi\n        /* \"@openzeppelin/contracts/token/ERC721/ERC721.sol\":15337:15344  tokenId */\n      dup4\n        /* \"@openzeppelin/contracts/token/ERC721/ERC721.sol\":15333:15335  to */\n      dup6\n      sub(shl(0xa0, 0x01), 0x01)\n        /* \"@openzeppelin/contracts/token/ERC721/ERC721.sol\":15317:15345  Approval(owner, to, tokenId) */\n      and\n        /* \"@openzeppelin/contracts/token/ERC721/ERC721.sol\":15326:15331  owner */\n      dup3\n      sub(shl(0xa0, 0x01), 0x01)\n        /* \"@openzeppelin/contracts/token/ERC721/ERC721.sol\":15317:15345  Approval(owner, to, tokenId) */\n      and\n      0x8c5be1e5ebec7d5bd14f71427d1e84f3dd0314c0f7b2291e5b200ac8c7c3b925\n      mload(0x40)\n      mload(0x40)\n      dup1\n      swap2\n      sub\n      swap1\n      log4\n        /* \"@openzeppelin/contracts/token/ERC721/ERC721.sol\":15279:15360  if (emitEvent) {... */\n    tag_362:\n        /* \"@openzeppelin/contracts/token/ERC721/ERC721.sol\":14947:15370  {... */\n      pop\n        /* \"@openzeppelin/contracts/token/ERC721/ERC721.sol\":14910:15370  if (emitEvent || auth != address(0)) {... */\n    tag_355:\n      pop\n      pop\n        /* \"@openzeppelin/contracts/token/ERC721/ERC721.sol\":15380:15404  _tokenApprovals[tokenId] */\n      0x00\n      swap1\n      dup2\n      mstore\n        /* \"@openzeppelin/contracts/token/ERC721/ERC721.sol\":15380:15395  _tokenApprovals */\n      0x04\n        /* \"@openzeppelin/contracts/token/ERC721/ERC721.sol\":15380:15404  _tokenApprovals[tokenId] */\n      0x20\n      mstore\n      0x40\n      swap1\n      keccak256\n        /* \"@openzeppelin/contracts/token/ERC721/ERC721.sol\":15380:15409  _tokenApprovals[tokenId] = to */\n      dup1\n      sload\n      not(sub(shl(0xa0, 0x01), 0x01))\n      and\n      sub(shl(0xa0, 0x01), 0x01)\n      swap3\n      swap1\n      swap3\n      and\n      swap2\n      swap1\n      swap2\n      or\n      swap1\n      sstore\n        /* \"@openzeppelin/contracts/token/ERC721/ERC721.sol\":14754:15416  function _approve(address to, uint256 tokenId, address auth, bool emitEvent) internal virtual {... */\n      jump\t// out\n        /* \"@openzeppelin/contracts/token/ERC721/ERC721.sol\":7083:7451  function _checkAuthorized(address owner, address spender, uint256 tokenId) internal view virtual {... */\n    tag_289:\n        /* \"@openzeppelin/contracts/token/ERC721/ERC721.sol\":7195:7233  _isAuthorized(owner, spender, tokenId) */\n      tag_364\n        /* \"@openzeppelin/contracts/token/ERC721/ERC721.sol\":7209:7214  owner */\n      dup4\n        /* \"@openzeppelin/contracts/token/ERC721/ERC721.sol\":7216:7223  spender */\n      dup4\n        /* \"@openzeppelin/contracts/token/ERC721/ERC721.sol\":7225:7232  tokenId */\n      dup4\n        /* \"@openzeppelin/contracts/token/ERC721/ERC721.sol\":7195:7208  _isAuthorized */\n      tag_365\n        /* \"@openzeppelin/contracts/token/ERC721/ERC721.sol\":7195:7233  _isAuthorized(owner, spender, tokenId) */\n      jump\t// in\n    tag_364:\n        /* \"@openzeppelin/contracts/token/ERC721/ERC721.sol\":7190:7445  if (!_isAuthorized(owner, spender, tokenId)) {... */\n      tag_174\n      jumpi\n      sub(shl(0xa0, 0x01), 0x01)\n        /* \"@openzeppelin/contracts/token/ERC721/ERC721.sol\":7253:7272  owner == address(0) */\n      dup4\n      and\n        /* \"@openzeppelin/contracts/token/ERC721/ERC721.sol\":7249:7435  if (owner == address(0)) {... */\n      tag_367\n      jumpi\n        /* \"@openzeppelin/contracts/token/ERC721/ERC721.sol\":7299:7330  ERC721NonexistentToken(tokenId) */\n      mload(0x40)\n      shl(0xe0, 0x7e273289)\n      dup2\n      mstore\n      0x04\n      dup2\n      add\n        /* \"#utility.yul\":1107:1132   */\n      dup3\n      swap1\n      mstore\n        /* \"#utility.yul\":1080:1098   */\n      0x24\n      add\n        /* \"@openzeppelin/contracts/token/ERC721/ERC721.sol\":7299:7330  ERC721NonexistentToken(tokenId) */\n      tag_166\n        /* \"#utility.yul\":961:1138   */\n      jump\n        /* \"@openzeppelin/contracts/token/ERC721/ERC721.sol\":7249:7435  if (owner == address(0)) {... */\n    tag_367:\n        /* \"@openzeppelin/contracts/token/ERC721/ERC721.sol\":7376:7420  ERC721InsufficientApproval(spender, tokenId) */\n      mload(0x40)\n      shl(0xe0, 0x177e802f)\n      dup2\n      mstore\n      sub(shl(0xa0, 0x01), 0x01)\n        /* \"#utility.yul\":13185:13217   */\n      dup4\n      and\n        /* \"@openzeppelin/contracts/token/ERC721/ERC721.sol\":7376:7420  ERC721InsufficientApproval(spender, tokenId) */\n      0x04\n      dup3\n      add\n        /* \"#utility.yul\":13167:13218   */\n      mstore\n        /* \"#utility.yul\":13234:13252   */\n      0x24\n      dup2\n      add\n        /* \"#utility.yul\":13227:13261   */\n      dup3\n      swap1\n      mstore\n        /* \"#utility.yul\":13140:13158   */\n      0x44\n      add\n        /* \"@openzeppelin/contracts/token/ERC721/ERC721.sol\":7376:7420  ERC721InsufficientApproval(spender, tokenId) */\n      tag_166\n        /* \"#utility.yul\":12993:13267   */\n      jump\n        /* \"@openzeppelin/contracts/token/ERC721/ERC721.sol\":10988:11170  function _safeMint(address to, uint256 tokenId, bytes memory data) internal virtual {... */\n    tag_297:\n        /* \"@openzeppelin/contracts/token/ERC721/ERC721.sol\":11082:11100  _mint(to, tokenId) */\n      tag_373\n        /* \"@openzeppelin/contracts/token/ERC721/ERC721.sol\":11088:11090  to */\n      dup4\n        /* \"@openzeppelin/contracts/token/ERC721/ERC721.sol\":11092:11099  tokenId */\n      dup4\n        /* \"@openzeppelin/contracts/token/ERC721/ERC721.sol\":11082:11087  _mint */\n      tag_374\n        /* \"@openzeppelin/contracts/token/ERC721/ERC721.sol\":11082:11100  _mint(to, tokenId) */\n      jump\t// in\n    tag_373:\n        /* \"@openzeppelin/contracts/token/ERC721/ERC721.sol\":11110:11163  _checkOnERC721Received(address(0), to, tokenId, data) */\n      tag_174\n        /* \"@openzeppelin/contracts/token/ERC721/ERC721.sol\":11141:11142  0 */\n      0x00\n        /* \"@openzeppelin/contracts/token/ERC721/ERC721.sol\":11145:11147  to */\n      dup5\n        /* \"@openzeppelin/contracts/token/ERC721/ERC721.sol\":11149:11156  tokenId */\n      dup5\n        /* \"@openzeppelin/contracts/token/ERC721/ERC721.sol\":11158:11162  data */\n      dup5\n        /* \"@openzeppelin/contracts/token/ERC721/ERC721.sol\":11110:11132  _checkOnERC721Received */\n      tag_241\n        /* \"@openzeppelin/contracts/token/ERC721/ERC721.sol\":11110:11163  _checkOnERC721Received(address(0), to, tokenId, data) */\n      jump\t// in\n        /* \"@openzeppelin/contracts/token/ERC721/ERC721.sol\":2678:2933  function tokenURI(uint256 tokenId) public view virtual returns (string memory) {... */\n    tag_346:\n        /* \"@openzeppelin/contracts/token/ERC721/ERC721.sol\":2742:2755  string memory */\n      0x60\n        /* \"@openzeppelin/contracts/token/ERC721/ERC721.sol\":2767:2789  _requireOwned(tokenId) */\n      tag_378\n        /* \"@openzeppelin/contracts/token/ERC721/ERC721.sol\":2781:2788  tokenId */\n      dup3\n        /* \"@openzeppelin/contracts/token/ERC721/ERC721.sol\":2767:2780  _requireOwned */\n      tag_151\n        /* \"@openzeppelin/contracts/token/ERC721/ERC721.sol\":2767:2789  _requireOwned(tokenId) */\n      jump\t// in\n    tag_378:\n      pop\n        /* \"@openzeppelin/contracts/token/ERC721/ERC721.sol\":2800:2821  string memory baseURI */\n      0x00\n        /* \"@openzeppelin/contracts/token/ERC721/ERC721.sol\":2824:2834  _baseURI() */\n      tag_379\n        /* \"@openzeppelin/contracts/token/ERC721/ERC721.sol\":3251:3260  return \"\" */\n      0x40\n      dup1\n      mload\n      0x20\n      dup2\n      add\n      swap1\n      swap2\n      mstore\n      0x00\n      dup2\n      mstore\n      swap1\n        /* \"@openzeppelin/contracts/token/ERC721/ERC721.sol\":3175:3267  function _baseURI() internal view virtual returns (string memory) {... */\n      jump\n        /* \"@openzeppelin/contracts/token/ERC721/ERC721.sol\":2824:2834  _baseURI() */\n    tag_379:\n        /* \"@openzeppelin/contracts/token/ERC721/ERC721.sol\":2800:2834  string memory baseURI = _baseURI() */\n      swap1\n      pop\n        /* \"@openzeppelin/contracts/token/ERC721/ERC721.sol\":2875:2876  0 */\n      0x00\n        /* \"@openzeppelin/contracts/token/ERC721/ERC721.sol\":2857:2864  baseURI */\n      dup2\n        /* \"@openzeppelin/contracts/token/ERC721/ERC721.sol\":2851:2872  bytes(baseURI).length */\n      mload\n        /* \"@openzeppelin/contracts/token/ERC721/ERC721.sol\":2851:2876  bytes(baseURI).length > 0 */\n      gt\n        /* \"@openzeppelin/contracts/token/ERC721/ERC721.sol\":2851:2926  bytes(baseURI).length > 0 ? string.concat(baseURI, tokenId.toString()) : \"\" */\n      tag_380\n      jumpi\n      mload(0x40)\n      dup1\n      0x20\n      add\n      0x40\n      mstore\n      dup1\n      0x00\n      dup2\n      mstore\n      pop\n      jump(tag_381)\n    tag_380:\n        /* \"@openzeppelin/contracts/token/ERC721/ERC721.sol\":2893:2900  baseURI */\n      dup1\n        /* \"@openzeppelin/contracts/token/ERC721/ERC721.sol\":2902:2920  tokenId.toString() */\n      tag_382\n        /* \"@openzeppelin/contracts/token/ERC721/ERC721.sol\":2902:2909  tokenId */\n      dup5\n        /* \"@openzeppelin/contracts/token/ERC721/ERC721.sol\":2902:2918  tokenId.toString */\n      tag_383\n        /* \"@openzeppelin/contracts/token/ERC721/ERC721.sol\":2902:2920  tokenId.toString() */\n      jump\t// in\n    tag_382:\n        /* \"@openzeppelin/contracts/token/ERC721/ERC721.sol\":2879:2921  string.concat(baseURI, tokenId.toString()) */\n      add(0x20, mload(0x40))\n      tag_384\n      swap3\n      swap2\n      swap1\n      tag_344\n      jump\t// in\n    tag_384:\n      mload(0x40)\n      0x20\n      dup2\n      dup4\n      sub\n      sub\n      dup2\n      mstore\n      swap1\n      0x40\n      mstore\n        /* \"@openzeppelin/contracts/token/ERC721/ERC721.sol\":2851:2926  bytes(baseURI).length > 0 ? string.concat(baseURI, tokenId.toString()) : \"\" */\n    tag_381:\n        /* \"@openzeppelin/contracts/token/ERC721/ERC721.sol\":2844:2926  return bytes(baseURI).length > 0 ? string.concat(baseURI, tokenId.toString()) : \"\" */\n      swap4\n        /* \"@openzeppelin/contracts/token/ERC721/ERC721.sol\":2678:2933  function tokenURI(uint256 tokenId) public view virtual returns (string memory) {... */\n      swap3\n      pop\n      pop\n      pop\n      jump\t// out\n        /* \"@openzeppelin/contracts/token/ERC721/ERC721.sol\":6377:6649  function _isAuthorized(address owner, address spender, uint256 tokenId) internal view virtual returns (bool) {... */\n    tag_365:\n        /* \"@openzeppelin/contracts/token/ERC721/ERC721.sol\":6480:6484  bool */\n      0x00\n      sub(shl(0xa0, 0x01), 0x01)\n        /* \"@openzeppelin/contracts/token/ERC721/ERC721.sol\":6515:6536  spender != address(0) */\n      dup4\n      and\n      iszero\n      dup1\n      iszero\n      swap1\n        /* \"@openzeppelin/contracts/token/ERC721/ERC721.sol\":6515:6642  spender != address(0) &&... */\n      tag_345\n      jumpi\n      pop\n        /* \"@openzeppelin/contracts/token/ERC721/ERC721.sol\":6562:6569  spender */\n      dup3\n      sub(shl(0xa0, 0x01), 0x01)\n        /* \"@openzeppelin/contracts/token/ERC721/ERC721.sol\":6553:6569  owner == spender */\n      and\n        /* \"@openzeppelin/contracts/token/ERC721/ERC721.sol\":6553:6558  owner */\n      dup5\n      sub(shl(0xa0, 0x01), 0x01)\n        /* \"@openzeppelin/contracts/token/ERC721/ERC721.sol\":6553:6569  owner == spender */\n      and\n      eq\n        /* \"@openzeppelin/contracts/token/ERC721/ERC721.sol\":6553:6605  owner == spender || isApprovedForAll(owner, spender) */\n      dup1\n      tag_389\n      jumpi\n      pop\n        /* \"@openzeppelin/contracts/token/ERC721/ERC721.sol\":6573:6605  isApprovedForAll(owner, spender) */\n      tag_389\n        /* \"@openzeppelin/contracts/token/ERC721/ERC721.sol\":6590:6595  owner */\n      dup5\n        /* \"@openzeppelin/contracts/token/ERC721/ERC721.sol\":6597:6604  spender */\n      dup5\n        /* \"@openzeppelin/contracts/token/ERC721/ERC721.sol\":6573:6589  isApprovedForAll */\n      tag_125\n        /* \"@openzeppelin/contracts/token/ERC721/ERC721.sol\":6573:6605  isApprovedForAll(owner, spender) */\n      jump\t// in\n    tag_389:\n        /* \"@openzeppelin/contracts/token/ERC721/ERC721.sol\":6553:6641  owner == spender || isApprovedForAll(owner, spender) || _getApproved(tokenId) == spender */\n      dup1\n      tag_345\n      jumpi\n      pop\n      pop\n        /* \"@openzeppelin/contracts/token/ERC721/ERC721.sol\":6009:6016  address */\n      0x00\n        /* \"@openzeppelin/contracts/token/ERC721/ERC721.sol\":6035:6059  _tokenApprovals[tokenId] */\n      swap1\n      dup2\n      mstore\n        /* \"@openzeppelin/contracts/token/ERC721/ERC721.sol\":6035:6050  _tokenApprovals */\n      0x04\n        /* \"@openzeppelin/contracts/token/ERC721/ERC721.sol\":6035:6059  _tokenApprovals[tokenId] */\n      0x20\n      mstore\n      0x40\n      swap1\n      keccak256\n      sload\n      sub(shl(0xa0, 0x01), 0x01)\n      swap1\n      dup2\n      and\n        /* \"@openzeppelin/contracts/token/ERC721/ERC721.sol\":6609:6641  _getApproved(tokenId) == spender */\n      swap2\n      and\n      eq\n      swap2\n        /* \"@openzeppelin/contracts/token/ERC721/ERC721.sol\":6496:6642  return... */\n      swap1\n      pop\n        /* \"@openzeppelin/contracts/token/ERC721/ERC721.sol\":6377:6649  function _isAuthorized(address owner, address spender, uint256 tokenId) internal view virtual returns (bool) {... */\n      jump\t// out\n        /* \"@openzeppelin/contracts/token/ERC721/ERC721.sol\":9989:10316  function _mint(address to, uint256 tokenId) internal {... */\n    tag_374:\n      sub(shl(0xa0, 0x01), 0x01)\n        /* \"@openzeppelin/contracts/token/ERC721/ERC721.sol\":10056:10072  to == address(0) */\n      dup3\n      and\n        /* \"@openzeppelin/contracts/token/ERC721/ERC721.sol\":10052:10139  if (to == address(0)) {... */\n      tag_393\n      jumpi\n        /* \"@openzeppelin/contracts/token/ERC721/ERC721.sol\":10095:10128  ERC721InvalidReceiver(address(0)) */\n      mload(0x40)\n      shl(0xe1, 0x32505749)\n      dup2\n      mstore\n        /* \"@openzeppelin/contracts/token/ERC721/ERC721.sol\":10125:10126  0 */\n      0x00\n        /* \"@openzeppelin/contracts/token/ERC721/ERC721.sol\":10095:10128  ERC721InvalidReceiver(address(0)) */\n      0x04\n      dup3\n      add\n        /* \"#utility.yul\":2276:2327   */\n      mstore\n        /* \"#utility.yul\":2249:2267   */\n      0x24\n      add\n        /* \"@openzeppelin/contracts/token/ERC721/ERC721.sol\":10095:10128  ERC721InvalidReceiver(address(0)) */\n      tag_166\n        /* \"#utility.yul\":2130:2333   */\n      jump\n        /* \"@openzeppelin/contracts/token/ERC721/ERC721.sol\":10052:10139  if (to == address(0)) {... */\n    tag_393:\n        /* \"@openzeppelin/contracts/token/ERC721/ERC721.sol\":10148:10169  address previousOwner */\n      0x00\n        /* \"@openzeppelin/contracts/token/ERC721/ERC721.sol\":10172:10204  _update(to, tokenId, address(0)) */\n      tag_395\n        /* \"@openzeppelin/contracts/token/ERC721/ERC721.sol\":10180:10182  to */\n      dup4\n        /* \"@openzeppelin/contracts/token/ERC721/ERC721.sol\":10184:10191  tokenId */\n      dup4\n        /* \"@openzeppelin/contracts/token/ERC721/ERC721.sol\":10201:10202  0 */\n      0x00\n        /* \"@openzeppelin/contracts/token/ERC721/ERC721.sol\":10172:10179  _update */\n      tag_169\n        /* \"@openzeppelin/contracts/token/ERC721/ERC721.sol\":10172:10204  _update(to, tokenId, address(0)) */\n      jump\t// in\n    tag_395:\n        /* \"@openzeppelin/contracts/token/ERC721/ERC721.sol\":10148:10204  address previousOwner = _update(to, tokenId, address(0)) */\n      swap1\n      pop\n      sub(shl(0xa0, 0x01), 0x01)\n        /* \"@openzeppelin/contracts/token/ERC721/ERC721.sol\":10218:10245  previousOwner != address(0) */\n      dup2\n      and\n      iszero\n        /* \"@openzeppelin/contracts/token/ERC721/ERC721.sol\":10214:10310  if (previousOwner != address(0)) {... */\n      tag_174\n      jumpi\n        /* \"@openzeppelin/contracts/token/ERC721/ERC721.sol\":10268:10299  ERC721InvalidSender(address(0)) */\n      mload(0x40)\n      shl(0xe1, 0x39e35637)\n      dup2\n      mstore\n        /* \"@openzeppelin/contracts/token/ERC721/ERC721.sol\":10296:10297  0 */\n      0x00\n        /* \"@openzeppelin/contracts/token/ERC721/ERC721.sol\":10268:10299  ERC721InvalidSender(address(0)) */\n      0x04\n      dup3\n      add\n        /* \"#utility.yul\":2276:2327   */\n      mstore\n        /* \"#utility.yul\":2249:2267   */\n      0x24\n      add\n        /* \"@openzeppelin/contracts/token/ERC721/ERC721.sol\":10268:10299  ERC721InvalidSender(address(0)) */\n      tag_166\n        /* \"#utility.yul\":2130:2333   */\n      jump\n        /* \"@openzeppelin/contracts/utils/Strings.sol\":637:1335  function toString(uint256 value) internal pure returns (string memory) {... */\n    tag_383:\n        /* \"@openzeppelin/contracts/utils/Strings.sol\":693:706  string memory */\n      0x60\n        /* \"@openzeppelin/contracts/utils/Strings.sol\":742:756  uint256 length */\n      0x00\n        /* \"@openzeppelin/contracts/utils/Strings.sol\":759:776  Math.log10(value) */\n      tag_399\n        /* \"@openzeppelin/contracts/utils/Strings.sol\":770:775  value */\n      dup4\n        /* \"@openzeppelin/contracts/utils/Strings.sol\":759:769  Math.log10 */\n      tag_400\n        /* \"@openzeppelin/contracts/utils/Strings.sol\":759:776  Math.log10(value) */\n      jump\t// in\n    tag_399:\n        /* \"@openzeppelin/contracts/utils/Strings.sol\":779:780  1 */\n      0x01\n        /* \"@openzeppelin/contracts/utils/Strings.sol\":759:780  Math.log10(value) + 1 */\n      add\n        /* \"@openzeppelin/contracts/utils/Strings.sol\":742:780  uint256 length = Math.log10(value) + 1 */\n      swap1\n      pop\n        /* \"@openzeppelin/contracts/utils/Strings.sol\":794:814  string memory buffer */\n      0x00\n        /* \"@openzeppelin/contracts/utils/Strings.sol\":828:834  length */\n      dup2\n        /* \"@openzeppelin/contracts/utils/Strings.sol\":817:835  new string(length) */\n      0xffffffffffffffff\n      dup2\n      gt\n      iszero\n      tag_402\n      jumpi\n      tag_402\n      tag_249\n      jump\t// in\n    tag_402:\n      mload(0x40)\n      swap1\n      dup1\n      dup3\n      mstore\n      dup1\n      0x1f\n      add\n      not(0x1f)\n      and\n      0x20\n      add\n      dup3\n      add\n      0x40\n      mstore\n      dup1\n      iszero\n      tag_403\n      jumpi\n      0x20\n      dup3\n      add\n      dup2\n      dup1\n      calldatasize\n      dup4\n      calldatacopy\n      add\n      swap1\n      pop\n    tag_403:\n      pop\n        /* \"@openzeppelin/contracts/utils/Strings.sol\":794:835  string memory buffer = new string(length) */\n      swap1\n      pop\n        /* \"@openzeppelin/contracts/utils/Strings.sol\":955:983  add(buffer, add(32, length)) */\n      dup2\n      dup2\n      add\n        /* \"@openzeppelin/contracts/utils/Strings.sol\":971:973  32 */\n      0x20\n        /* \"@openzeppelin/contracts/utils/Strings.sol\":955:983  add(buffer, add(32, length)) */\n      add\n        /* \"@openzeppelin/contracts/utils/Strings.sol\":1010:1292  while (true) {... */\n    tag_404:\n      not(0x00)\n        /* \"@openzeppelin/contracts/utils/Strings.sol\":1041:1046  ptr-- */\n      add\n      shl(0x81, 0x181899199a1a9b1b9c1cb0b131b232b3)\n        /* \"@openzeppelin/contracts/utils/Strings.sol\":1175:1177  10 */\n      0x0a\n        /* \"@openzeppelin/contracts/utils/Strings.sol\":1164:1178  mod(value, 10) */\n      dup7\n      mod\n        /* \"@openzeppelin/contracts/utils/Strings.sol\":1159:1191  byte(mod(value, 10), HEX_DIGITS) */\n      byte\n        /* \"@openzeppelin/contracts/utils/Strings.sol\":1041:1046  ptr-- */\n      dup2\n        /* \"@openzeppelin/contracts/utils/Strings.sol\":1146:1192  mstore8(ptr, byte(mod(value, 10), HEX_DIGITS)) */\n      mstore8\n        /* \"@openzeppelin/contracts/utils/Strings.sol\":1236:1238  10 */\n      0x0a\n        /* \"@openzeppelin/contracts/utils/Strings.sol\":1227:1238  value /= 10 */\n      dup6\n      div\n      swap5\n      pop\n        /* \"@openzeppelin/contracts/utils/Strings.sol\":1256:1277  if (value == 0) break */\n      dup5\n        /* \"@openzeppelin/contracts/utils/Strings.sol\":1010:1292  while (true) {... */\n      tag_404\n        /* \"@openzeppelin/contracts/utils/Strings.sol\":1256:1277  if (value == 0) break */\n      jumpi\n      pop\n        /* \"@openzeppelin/contracts/utils/Strings.sol\":1312:1318  buffer */\n      swap4\n        /* \"@openzeppelin/contracts/utils/Strings.sol\":637:1335  function toString(uint256 value) internal pure returns (string memory) {... */\n      swap3\n      pop\n      pop\n      pop\n      jump\t// out\n        /* \"@openzeppelin/contracts/utils/math/Math.sol\":12214:13130  function log10(uint256 value) internal pure returns (uint256) {... */\n    tag_400:\n        /* \"@openzeppelin/contracts/utils/math/Math.sol\":12267:12274  uint256 */\n      0x00\n      dup1\n      shl(0x40, 0x184f03e93ff9f4daa797ed6e38ed64bf6a1f01)\n        /* \"@openzeppelin/contracts/utils/math/Math.sol\":12342:12359  value >= 10 ** 64 */\n      dup4\n      lt\n        /* \"@openzeppelin/contracts/utils/math/Math.sol\":12338:12441  if (value >= 10 ** 64) {... */\n      tag_411\n      jumpi\n      shl(0x40, 0x184f03e93ff9f4daa797ed6e38ed64bf6a1f01)\n        /* \"@openzeppelin/contracts/utils/math/Math.sol\":12379:12396  value /= 10 ** 64 */\n      dup4\n      div\n      swap3\n      pop\n        /* \"@openzeppelin/contracts/utils/math/Math.sol\":12424:12426  64 */\n      0x40\n        /* \"@openzeppelin/contracts/utils/math/Math.sol\":12414:12426  result += 64 */\n      add\n        /* \"@openzeppelin/contracts/utils/math/Math.sol\":12338:12441  if (value >= 10 ** 64) {... */\n    tag_411:\n        /* \"@openzeppelin/contracts/utils/math/Math.sol\":12467:12475  10 ** 32 */\n      0x04ee2d6d415b85acef8100000000\n        /* \"@openzeppelin/contracts/utils/math/Math.sol\":12458:12463  value */\n      dup4\n        /* \"@openzeppelin/contracts/utils/math/Math.sol\":12458:12475  value >= 10 ** 32 */\n      lt\n        /* \"@openzeppelin/contracts/utils/math/Math.sol\":12454:12557  if (value >= 10 ** 32) {... */\n      tag_414\n      jumpi\n        /* \"@openzeppelin/contracts/utils/math/Math.sol\":12504:12512  10 ** 32 */\n      0x04ee2d6d415b85acef8100000000\n        /* \"@openzeppelin/contracts/utils/math/Math.sol\":12495:12512  value /= 10 ** 32 */\n      dup4\n      div\n      swap3\n      pop\n        /* \"@openzeppelin/contracts/utils/math/Math.sol\":12540:12542  32 */\n      0x20\n        /* \"@openzeppelin/contracts/utils/math/Math.sol\":12530:12542  result += 32 */\n      add\n        /* \"@openzeppelin/contracts/utils/math/Math.sol\":12454:12557  if (value >= 10 ** 32) {... */\n    tag_414:\n        /* \"@openzeppelin/contracts/utils/math/Math.sol\":12583:12591  10 ** 16 */\n      0x2386f26fc10000\n        /* \"@openzeppelin/contracts/utils/math/Math.sol\":12574:12579  value */\n      dup4\n        /* \"@openzeppelin/contracts/utils/math/Math.sol\":12574:12591  value >= 10 ** 16 */\n      lt\n        /* \"@openzeppelin/contracts/utils/math/Math.sol\":12570:12673  if (value >= 10 ** 16) {... */\n      tag_417\n      jumpi\n        /* \"@openzeppelin/contracts/utils/math/Math.sol\":12620:12628  10 ** 16 */\n      0x2386f26fc10000\n        /* \"@openzeppelin/contracts/utils/math/Math.sol\":12611:12628  value /= 10 ** 16 */\n      dup4\n      div\n      swap3\n      pop\n        /* \"@openzeppelin/contracts/utils/math/Math.sol\":12656:12658  16 */\n      0x10\n        /* \"@openzeppelin/contracts/utils/math/Math.sol\":12646:12658  result += 16 */\n      add\n        /* \"@openzeppelin/contracts/utils/math/Math.sol\":12570:12673  if (value >= 10 ** 16) {... */\n    tag_417:\n        /* \"@openzeppelin/contracts/utils/math/Math.sol\":12699:12706  10 ** 8 */\n      0x05f5e100\n        /* \"@openzeppelin/contracts/utils/math/Math.sol\":12690:12695  value */\n      dup4\n        /* \"@openzeppelin/contracts/utils/math/Math.sol\":12690:12706  value >= 10 ** 8 */\n      lt\n        /* \"@openzeppelin/contracts/utils/math/Math.sol\":12686:12786  if (value >= 10 ** 8) {... */\n      tag_420\n      jumpi\n        /* \"@openzeppelin/contracts/utils/math/Math.sol\":12735:12742  10 ** 8 */\n      0x05f5e100\n        /* \"@openzeppelin/contracts/utils/math/Math.sol\":12726:12742  value /= 10 ** 8 */\n      dup4\n      div\n      swap3\n      pop\n        /* \"@openzeppelin/contracts/utils/math/Math.sol\":12770:12771  8 */\n      0x08\n        /* \"@openzeppelin/contracts/utils/math/Math.sol\":12760:12771  result += 8 */\n      add\n        /* \"@openzeppelin/contracts/utils/math/Math.sol\":12686:12786  if (value >= 10 ** 8) {... */\n    tag_420:\n        /* \"@openzeppelin/contracts/utils/math/Math.sol\":12812:12819  10 ** 4 */\n      0x2710\n        /* \"@openzeppelin/contracts/utils/math/Math.sol\":12803:12808  value */\n      dup4\n        /* \"@openzeppelin/contracts/utils/math/Math.sol\":12803:12819  value >= 10 ** 4 */\n      lt\n        /* \"@openzeppelin/contracts/utils/math/Math.sol\":12799:12899  if (value >= 10 ** 4) {... */\n      tag_423\n      jumpi\n        /* \"@openzeppelin/contracts/utils/math/Math.sol\":12848:12855  10 ** 4 */\n      0x2710\n        /* \"@openzeppelin/contracts/utils/math/Math.sol\":12839:12855  value /= 10 ** 4 */\n      dup4\n      div\n      swap3\n      pop\n        /* \"@openzeppelin/contracts/utils/math/Math.sol\":12883:12884  4 */\n      0x04\n        /* \"@openzeppelin/contracts/utils/math/Math.sol\":12873:12884  result += 4 */\n      add\n        /* \"@openzeppelin/contracts/utils/math/Math.sol\":12799:12899  if (value >= 10 ** 4) {... */\n    tag_423:\n        /* \"@openzeppelin/contracts/utils/math/Math.sol\":12925:12932  10 ** 2 */\n      0x64\n        /* \"@openzeppelin/contracts/utils/math/Math.sol\":12916:12921  value */\n      dup4\n        /* \"@openzeppelin/contracts/utils/math/Math.sol\":12916:12932  value >= 10 ** 2 */\n      lt\n        /* \"@openzeppelin/contracts/utils/math/Math.sol\":12912:13012  if (value >= 10 ** 2) {... */\n      tag_426\n      jumpi\n        /* \"@openzeppelin/contracts/utils/math/Math.sol\":12961:12968  10 ** 2 */\n      0x64\n        /* \"@openzeppelin/contracts/utils/math/Math.sol\":12952:12968  value /= 10 ** 2 */\n      dup4\n      div\n      swap3\n      pop\n        /* \"@openzeppelin/contracts/utils/math/Math.sol\":12996:12997  2 */\n      0x02\n        /* \"@openzeppelin/contracts/utils/math/Math.sol\":12986:12997  result += 2 */\n      add\n        /* \"@openzeppelin/contracts/utils/math/Math.sol\":12912:13012  if (value >= 10 ** 2) {... */\n    tag_426:\n        /* \"@openzeppelin/contracts/utils/math/Math.sol\":13038:13045  10 ** 1 */\n      0x0a\n        /* \"@openzeppelin/contracts/utils/math/Math.sol\":13029:13034  value */\n      dup4\n        /* \"@openzeppelin/contracts/utils/math/Math.sol\":13029:13045  value >= 10 ** 1 */\n      lt\n        /* \"@openzeppelin/contracts/utils/math/Math.sol\":13025:13091  if (value >= 10 ** 1) {... */\n      tag_140\n      jumpi\n        /* \"@openzeppelin/contracts/utils/math/Math.sol\":13075:13076  1 */\n      0x01\n        /* \"@openzeppelin/contracts/utils/math/Math.sol\":13065:13076  result += 1 */\n      add\n        /* \"@openzeppelin/contracts/utils/math/Math.sol\":13117:13123  result */\n      swap3\n        /* \"@openzeppelin/contracts/utils/math/Math.sol\":12214:13130  function log10(uint256 value) internal pure returns (uint256) {... */\n      swap2\n      pop\n      pop\n      jump\t// out\n        /* \"#utility.yul\":14:145   */\n    tag_430:\n      not(sub(shl(0xe0, 0x01), 0x01))\n        /* \"#utility.yul\":88:120   */\n      dup2\n      and\n        /* \"#utility.yul\":78:121   */\n      dup2\n      eq\n        /* \"#utility.yul\":68:139   */\n      tag_270\n      jumpi\n        /* \"#utility.yul\":135:136   */\n      0x00\n        /* \"#utility.yul\":132:133   */\n      dup1\n        /* \"#utility.yul\":125:137   */\n      revert\n        /* \"#utility.yul\":150:395   */\n    tag_36:\n        /* \"#utility.yul\":208:214   */\n      0x00\n        /* \"#utility.yul\":261:263   */\n      0x20\n        /* \"#utility.yul\":249:258   */\n      dup3\n        /* \"#utility.yul\":240:247   */\n      dup5\n        /* \"#utility.yul\":236:259   */\n      sub\n        /* \"#utility.yul\":232:264   */\n      slt\n        /* \"#utility.yul\":229:281   */\n      iszero\n      tag_443\n      jumpi\n        /* \"#utility.yul\":277:278   */\n      0x00\n        /* \"#utility.yul\":274:275   */\n      dup1\n        /* \"#utility.yul\":267:279   */\n      revert\n        /* \"#utility.yul\":229:281   */\n    tag_443:\n        /* \"#utility.yul\":316:325   */\n      dup2\n        /* \"#utility.yul\":303:326   */\n      calldataload\n        /* \"#utility.yul\":335:365   */\n      tag_381\n        /* \"#utility.yul\":359:364   */\n      dup2\n        /* \"#utility.yul\":335:365   */\n      tag_430\n      jump\t// in\n        /* \"#utility.yul\":592:765   */\n    tag_431:\n        /* \"#utility.yul\":660:680   */\n      dup1\n      calldataload\n      sub(shl(0xa0, 0x01), 0x01)\n        /* \"#utility.yul\":709:740   */\n      dup2\n      and\n        /* \"#utility.yul\":699:741   */\n      dup2\n      eq\n        /* \"#utility.yul\":689:759   */\n      tag_447\n      jumpi\n        /* \"#utility.yul\":755:756   */\n      0x00\n        /* \"#utility.yul\":752:753   */\n      dup1\n        /* \"#utility.yul\":745:757   */\n      revert\n        /* \"#utility.yul\":689:759   */\n    tag_447:\n        /* \"#utility.yul\":592:765   */\n      swap2\n      swap1\n      pop\n      jump\t// out\n        /* \"#utility.yul\":770:956   */\n    tag_42:\n        /* \"#utility.yul\":829:835   */\n      0x00\n        /* \"#utility.yul\":882:884   */\n      0x20\n        /* \"#utility.yul\":870:879   */\n      dup3\n        /* \"#utility.yul\":861:868   */\n      dup5\n        /* \"#utility.yul\":857:880   */\n      sub\n        /* \"#utility.yul\":853:885   */\n      slt\n        /* \"#utility.yul\":850:902   */\n      iszero\n      tag_449\n      jumpi\n        /* \"#utility.yul\":898:899   */\n      0x00\n        /* \"#utility.yul\":895:896   */\n      dup1\n        /* \"#utility.yul\":888:900   */\n      revert\n        /* \"#utility.yul\":850:902   */\n    tag_449:\n        /* \"#utility.yul\":921:950   */\n      tag_381\n        /* \"#utility.yul\":940:949   */\n      dup3\n        /* \"#utility.yul\":921:950   */\n      tag_431\n      jump\t// in\n        /* \"#utility.yul\":1143:1393   */\n    tag_432:\n        /* \"#utility.yul\":1228:1229   */\n      0x00\n        /* \"#utility.yul\":1238:1351   */\n    tag_453:\n        /* \"#utility.yul\":1252:1258   */\n      dup4\n        /* \"#utility.yul\":1249:1250   */\n      dup2\n        /* \"#utility.yul\":1246:1259   */\n      lt\n        /* \"#utility.yul\":1238:1351   */\n      iszero\n      tag_455\n      jumpi\n        /* \"#utility.yul\":1328:1339   */\n      dup2\n      dup2\n      add\n        /* \"#utility.yul\":1322:1340   */\n      mload\n        /* \"#utility.yul\":1309:1320   */\n      dup4\n      dup3\n      add\n        /* \"#utility.yul\":1302:1341   */\n      mstore\n        /* \"#utility.yul\":1274:1276   */\n      0x20\n        /* \"#utility.yul\":1267:1277   */\n      add\n        /* \"#utility.yul\":1238:1351   */\n      jump(tag_453)\n    tag_455:\n      pop\n      pop\n        /* \"#utility.yul\":1385:1386   */\n      0x00\n        /* \"#utility.yul\":1367:1383   */\n      swap2\n      add\n        /* \"#utility.yul\":1360:1387   */\n      mstore\n        /* \"#utility.yul\":1143:1393   */\n      jump\t// out\n        /* \"#utility.yul\":1398:1669   */\n    tag_433:\n        /* \"#utility.yul\":1440:1443   */\n      0x00\n        /* \"#utility.yul\":1478:1483   */\n      dup2\n        /* \"#utility.yul\":1472:1484   */\n      mload\n        /* \"#utility.yul\":1505:1511   */\n      dup1\n        /* \"#utility.yul\":1500:1503   */\n      dup5\n        /* \"#utility.yul\":1493:1512   */\n      mstore\n        /* \"#utility.yul\":1521:1597   */\n      tag_457\n        /* \"#utility.yul\":1590:1596   */\n      dup2\n        /* \"#utility.yul\":1583:1587   */\n      0x20\n        /* \"#utility.yul\":1578:1581   */\n      dup7\n        /* \"#utility.yul\":1574:1588   */\n      add\n        /* \"#utility.yul\":1567:1571   */\n      0x20\n        /* \"#utility.yul\":1560:1565   */\n      dup7\n        /* \"#utility.yul\":1556:1572   */\n      add\n        /* \"#utility.yul\":1521:1597   */\n      tag_432\n      jump\t// in\n    tag_457:\n        /* \"#utility.yul\":1651:1653   */\n      0x1f\n        /* \"#utility.yul\":1630:1645   */\n      add\n      not(0x1f)\n        /* \"#utility.yul\":1626:1655   */\n      and\n        /* \"#utility.yul\":1617:1656   */\n      swap3\n      swap1\n      swap3\n      add\n        /* \"#utility.yul\":1658:1662   */\n      0x20\n        /* \"#utility.yul\":1613:1663   */\n      add\n      swap3\n        /* \"#utility.yul\":1398:1669   */\n      swap2\n      pop\n      pop\n      jump\t// out\n        /* \"#utility.yul\":1674:1894   */\n    tag_49:\n        /* \"#utility.yul\":1823:1825   */\n      0x20\n        /* \"#utility.yul\":1812:1821   */\n      dup2\n        /* \"#utility.yul\":1805:1826   */\n      mstore\n        /* \"#utility.yul\":1786:1790   */\n      0x00\n        /* \"#utility.yul\":1843:1888   */\n      tag_381\n        /* \"#utility.yul\":1884:1886   */\n      0x20\n        /* \"#utility.yul\":1873:1882   */\n      dup4\n        /* \"#utility.yul\":1869:1887   */\n      add\n        /* \"#utility.yul\":1861:1867   */\n      dup5\n        /* \"#utility.yul\":1843:1888   */\n      tag_433\n      jump\t// in\n        /* \"#utility.yul\":1899:2125   */\n    tag_52:\n        /* \"#utility.yul\":1958:1964   */\n      0x00\n        /* \"#utility.yul\":2011:2013   */\n      0x20\n        /* \"#utility.yul\":1999:2008   */\n      dup3\n        /* \"#utility.yul\":1990:1997   */\n      dup5\n        /* \"#utility.yul\":1986:2009   */\n      sub\n        /* \"#utility.yul\":1982:2014   */\n      slt\n        /* \"#utility.yul\":1979:2031   */\n      iszero\n      tag_461\n      jumpi\n        /* \"#utility.yul\":2027:2028   */\n      0x00\n        /* \"#utility.yul\":2024:2025   */\n      dup1\n        /* \"#utility.yul\":2017:2029   */\n      revert\n        /* \"#utility.yul\":1979:2031   */\n    tag_461:\n      pop\n        /* \"#utility.yul\":2072:2095   */\n      calldataload\n      swap2\n        /* \"#utility.yul\":1899:2125   */\n      swap1\n      pop\n      jump\t// out\n        /* \"#utility.yul\":2338:2638   */\n    tag_58:\n        /* \"#utility.yul\":2406:2412   */\n      0x00\n        /* \"#utility.yul\":2414:2420   */\n      dup1\n        /* \"#utility.yul\":2467:2469   */\n      0x40\n        /* \"#utility.yul\":2455:2464   */\n      dup4\n        /* \"#utility.yul\":2446:2453   */\n      dup6\n        /* \"#utility.yul\":2442:2465   */\n      sub\n        /* \"#utility.yul\":2438:2470   */\n      slt\n        /* \"#utility.yul\":2435:2487   */\n      iszero\n      tag_464\n      jumpi\n        /* \"#utility.yul\":2483:2484   */\n      0x00\n        /* \"#utility.yul\":2480:2481   */\n      dup1\n        /* \"#utility.yul\":2473:2485   */\n      revert\n        /* \"#utility.yul\":2435:2487   */\n    tag_464:\n        /* \"#utility.yul\":2506:2535   */\n      tag_465\n        /* \"#utility.yul\":2525:2534   */\n      dup4\n        /* \"#utility.yul\":2506:2535   */\n      tag_431\n      jump\t// in\n    tag_465:\n        /* \"#utility.yul\":2496:2535   */\n      swap5\n        /* \"#utility.yul\":2604:2606   */\n      0x20\n        /* \"#utility.yul\":2589:2607   */\n      swap4\n      swap1\n      swap4\n      add\n        /* \"#utility.yul\":2576:2608   */\n      calldataload\n      swap4\n      pop\n      pop\n      pop\n        /* \"#utility.yul\":2338:2638   */\n      jump\t// out\n        /* \"#utility.yul\":2643:3160   */\n    tag_64:\n        /* \"#utility.yul\":2898:2904   */\n      dup6\n        /* \"#utility.yul\":2887:2896   */\n      dup2\n        /* \"#utility.yul\":2880:2905   */\n      mstore\n        /* \"#utility.yul\":2941:2947   */\n      dup5\n        /* \"#utility.yul\":2936:2938   */\n      0x20\n        /* \"#utility.yul\":2925:2934   */\n      dup3\n        /* \"#utility.yul\":2921:2939   */\n      add\n        /* \"#utility.yul\":2914:2948   */\n      mstore\n        /* \"#utility.yul\":2984:2987   */\n      0xa0\n        /* \"#utility.yul\":2979:2981   */\n      0x40\n        /* \"#utility.yul\":2968:2977   */\n      dup3\n        /* \"#utility.yul\":2964:2982   */\n      add\n        /* \"#utility.yul\":2957:2988   */\n      mstore\n        /* \"#utility.yul\":2861:2865   */\n      0x00\n        /* \"#utility.yul\":3005:3051   */\n      tag_467\n        /* \"#utility.yul\":3046:3049   */\n      0xa0\n        /* \"#utility.yul\":3035:3044   */\n      dup4\n        /* \"#utility.yul\":3031:3050   */\n      add\n        /* \"#utility.yul\":3023:3029   */\n      dup7\n        /* \"#utility.yul\":3005:3051   */\n      tag_433\n      jump\t// in\n    tag_467:\n        /* \"#utility.yul\":3082:3084   */\n      0x60\n        /* \"#utility.yul\":3067:3085   */\n      dup4\n      add\n        /* \"#utility.yul\":3060:3094   */\n      swap5\n      swap1\n      swap5\n      mstore\n      pop\n        /* \"#utility.yul\":3138:3152   */\n      swap1\n      iszero\n        /* \"#utility.yul\":3131:3153   */\n      iszero\n        /* \"#utility.yul\":3125:3128   */\n      0x80\n        /* \"#utility.yul\":3110:3129   */\n      swap1\n      swap2\n      add\n        /* \"#utility.yul\":3103:3154   */\n      mstore\n        /* \"#utility.yul\":2997:3051   */\n      swap4\n        /* \"#utility.yul\":2643:3160   */\n      swap3\n      pop\n      pop\n      pop\n      jump\t// out\n        /* \"#utility.yul\":3165:3539   */\n    tag_67:\n        /* \"#utility.yul\":3242:3248   */\n      0x00\n        /* \"#utility.yul\":3250:3256   */\n      dup1\n        /* \"#utility.yul\":3258:3264   */\n      0x00\n        /* \"#utility.yul\":3311:3313   */\n      0x60\n        /* \"#utility.yul\":3299:3308   */\n      dup5\n        /* \"#utility.yul\":3290:3297   */\n      dup7\n        /* \"#utility.yul\":3286:3309   */\n      sub\n        /* \"#utility.yul\":3282:3314   */\n      slt\n        /* \"#utility.yul\":3279:3331   */\n      iszero\n      tag_469\n      jumpi\n        /* \"#utility.yul\":3327:3328   */\n      0x00\n        /* \"#utility.yul\":3324:3325   */\n      dup1\n        /* \"#utility.yul\":3317:3329   */\n      revert\n        /* \"#utility.yul\":3279:3331   */\n    tag_469:\n        /* \"#utility.yul\":3350:3379   */\n      tag_470\n        /* \"#utility.yul\":3369:3378   */\n      dup5\n        /* \"#utility.yul\":3350:3379   */\n      tag_431\n      jump\t// in\n    tag_470:\n        /* \"#utility.yul\":3340:3379   */\n      swap3\n      pop\n        /* \"#utility.yul\":3398:3436   */\n      tag_471\n        /* \"#utility.yul\":3432:3434   */\n      0x20\n        /* \"#utility.yul\":3421:3430   */\n      dup6\n        /* \"#utility.yul\":3417:3435   */\n      add\n        /* \"#utility.yul\":3398:3436   */\n      tag_431\n      jump\t// in\n    tag_471:\n        /* \"#utility.yul\":3165:3539   */\n      swap3\n      swap6\n        /* \"#utility.yul\":3388:3436   */\n      swap3\n      swap5\n      pop\n      pop\n      pop\n        /* \"#utility.yul\":3505:3507   */\n      0x40\n        /* \"#utility.yul\":3490:3508   */\n      swap2\n      swap1\n      swap2\n      add\n        /* \"#utility.yul\":3477:3509   */\n      calldataload\n      swap1\n        /* \"#utility.yul\":3165:3539   */\n      jump\t// out\n        /* \"#utility.yul\":3544:3671   */\n    tag_249:\n        /* \"#utility.yul\":3605:3615   */\n      0x4e487b71\n        /* \"#utility.yul\":3600:3603   */\n      0xe0\n        /* \"#utility.yul\":3596:3616   */\n      shl\n        /* \"#utility.yul\":3593:3594   */\n      0x00\n        /* \"#utility.yul\":3586:3617   */\n      mstore\n        /* \"#utility.yul\":3636:3640   */\n      0x41\n        /* \"#utility.yul\":3633:3634   */\n      0x04\n        /* \"#utility.yul\":3626:3641   */\n      mstore\n        /* \"#utility.yul\":3660:3664   */\n      0x24\n        /* \"#utility.yul\":3657:3658   */\n      0x00\n        /* \"#utility.yul\":3650:3665   */\n      revert\n        /* \"#utility.yul\":3676:4392   */\n    tag_434:\n        /* \"#utility.yul\":3741:3746   */\n      0x00\n        /* \"#utility.yul\":3773:3774   */\n      dup1\n        /* \"#utility.yul\":3797:3815   */\n      0xffffffffffffffff\n        /* \"#utility.yul\":3789:3795   */\n      dup5\n        /* \"#utility.yul\":3786:3816   */\n      gt\n        /* \"#utility.yul\":3783:3839   */\n      iszero\n      tag_475\n      jumpi\n        /* \"#utility.yul\":3819:3837   */\n      tag_475\n      tag_249\n      jump\t// in\n    tag_475:\n      pop\n        /* \"#utility.yul\":3974:3976   */\n      0x40\n        /* \"#utility.yul\":3968:3977   */\n      mload\n      not(0x1f)\n        /* \"#utility.yul\":3887:3889   */\n      0x1f\n        /* \"#utility.yul\":3866:3881   */\n      dup6\n      add\n        /* \"#utility.yul\":3862:3891   */\n      dup2\n      and\n        /* \"#utility.yul\":4032:4034   */\n      0x3f\n        /* \"#utility.yul\":4020:4035   */\n      add\n        /* \"#utility.yul\":4016:4045   */\n      and\n        /* \"#utility.yul\":4004:4046   */\n      dup2\n      add\n        /* \"#utility.yul\":4097:4119   */\n      dup2\n      dup2\n      lt\n        /* \"#utility.yul\":4076:4094   */\n      0xffffffffffffffff\n        /* \"#utility.yul\":4061:4095   */\n      dup3\n      gt\n        /* \"#utility.yul\":4058:4120   */\n      or\n        /* \"#utility.yul\":4055:4143   */\n      iszero\n      tag_477\n      jumpi\n        /* \"#utility.yul\":4123:4141   */\n      tag_477\n      tag_249\n      jump\t// in\n    tag_477:\n        /* \"#utility.yul\":4159:4161   */\n      0x40\n        /* \"#utility.yul\":4152:4174   */\n      mstore\n        /* \"#utility.yul\":4207:4229   */\n      dup4\n      dup2\n      mstore\n        /* \"#utility.yul\":4192:4198   */\n      swap1\n      pop\n      dup1\n        /* \"#utility.yul\":4244:4260   */\n      dup3\n      dup5\n      add\n        /* \"#utility.yul\":4241:4266   */\n      dup6\n      lt\n        /* \"#utility.yul\":4238:4283   */\n      iszero\n      tag_478\n      jumpi\n        /* \"#utility.yul\":4279:4280   */\n      0x00\n        /* \"#utility.yul\":4276:4277   */\n      dup1\n        /* \"#utility.yul\":4269:4281   */\n      revert\n        /* \"#utility.yul\":4238:4283   */\n    tag_478:\n        /* \"#utility.yul\":4329:4335   */\n      dup4\n        /* \"#utility.yul\":4324:4327   */\n      dup4\n        /* \"#utility.yul\":4317:4321   */\n      0x20\n        /* \"#utility.yul\":4309:4315   */\n      dup4\n        /* \"#utility.yul\":4305:4322   */\n      add\n        /* \"#utility.yul\":4292:4336   */\n      calldatacopy\n        /* \"#utility.yul\":4384:4385   */\n      0x00\n        /* \"#utility.yul\":4377:4381   */\n      0x20\n        /* \"#utility.yul\":4368:4374   */\n      dup6\n        /* \"#utility.yul\":4360:4366   */\n      dup4\n        /* \"#utility.yul\":4356:4375   */\n      add\n        /* \"#utility.yul\":4352:4382   */\n      add\n        /* \"#utility.yul\":4345:4386   */\n      mstore\n      pop\n        /* \"#utility.yul\":3676:4392   */\n      swap4\n      swap3\n      pop\n      pop\n      pop\n      jump\t// out\n        /* \"#utility.yul\":4397:4848   */\n    tag_78:\n        /* \"#utility.yul\":4466:4472   */\n      0x00\n        /* \"#utility.yul\":4519:4521   */\n      0x20\n        /* \"#utility.yul\":4507:4516   */\n      dup3\n        /* \"#utility.yul\":4498:4505   */\n      dup5\n        /* \"#utility.yul\":4494:4517   */\n      sub\n        /* \"#utility.yul\":4490:4522   */\n      slt\n        /* \"#utility.yul\":4487:4539   */\n      iszero\n      tag_480\n      jumpi\n        /* \"#utility.yul\":4535:4536   */\n      0x00\n        /* \"#utility.yul\":4532:4533   */\n      dup1\n        /* \"#utility.yul\":4525:4537   */\n      revert\n        /* \"#utility.yul\":4487:4539   */\n    tag_480:\n        /* \"#utility.yul\":4575:4584   */\n      dup2\n        /* \"#utility.yul\":4562:4585   */\n      calldataload\n        /* \"#utility.yul\":4608:4626   */\n      0xffffffffffffffff\n        /* \"#utility.yul\":4600:4606   */\n      dup2\n        /* \"#utility.yul\":4597:4627   */\n      gt\n        /* \"#utility.yul\":4594:4644   */\n      iszero\n      tag_481\n      jumpi\n        /* \"#utility.yul\":4640:4641   */\n      0x00\n        /* \"#utility.yul\":4637:4638   */\n      dup1\n        /* \"#utility.yul\":4630:4642   */\n      revert\n        /* \"#utility.yul\":4594:4644   */\n    tag_481:\n        /* \"#utility.yul\":4663:4685   */\n      dup3\n      add\n        /* \"#utility.yul\":4716:4720   */\n      0x1f\n        /* \"#utility.yul\":4708:4721   */\n      dup2\n      add\n        /* \"#utility.yul\":4704:4731   */\n      dup5\n      sgt\n        /* \"#utility.yul\":4694:4749   */\n      tag_482\n      jumpi\n        /* \"#utility.yul\":4745:4746   */\n      0x00\n        /* \"#utility.yul\":4742:4743   */\n      dup1\n        /* \"#utility.yul\":4735:4747   */\n      revert\n        /* \"#utility.yul\":4694:4749   */\n    tag_482:\n        /* \"#utility.yul\":4768:4842   */\n      tag_345\n        /* \"#utility.yul\":4834:4841   */\n      dup5\n        /* \"#utility.yul\":4829:4831   */\n      dup3\n        /* \"#utility.yul\":4816:4832   */\n      calldataload\n        /* \"#utility.yul\":4811:4813   */\n      0x20\n        /* \"#utility.yul\":4807:4809   */\n      dup5\n        /* \"#utility.yul\":4803:4814   */\n      add\n        /* \"#utility.yul\":4768:4842   */\n      tag_434\n      jump\t// in\n        /* \"#utility.yul\":4853:5227   */\n    tag_82:\n        /* \"#utility.yul\":4930:4936   */\n      0x00\n        /* \"#utility.yul\":4938:4944   */\n      dup1\n        /* \"#utility.yul\":4946:4952   */\n      0x00\n        /* \"#utility.yul\":4999:5001   */\n      0x60\n        /* \"#utility.yul\":4987:4996   */\n      dup5\n        /* \"#utility.yul\":4978:4985   */\n      dup7\n        /* \"#utility.yul\":4974:4997   */\n      sub\n        /* \"#utility.yul\":4970:5002   */\n      slt\n        /* \"#utility.yul\":4967:5019   */\n      iszero\n      tag_485\n      jumpi\n        /* \"#utility.yul\":5015:5016   */\n      0x00\n        /* \"#utility.yul\":5012:5013   */\n      dup1\n        /* \"#utility.yul\":5005:5017   */\n      revert\n        /* \"#utility.yul\":4967:5019   */\n    tag_485:\n        /* \"#utility.yul\":5038:5067   */\n      tag_486\n        /* \"#utility.yul\":5057:5066   */\n      dup5\n        /* \"#utility.yul\":5038:5067   */\n      tag_431\n      jump\t// in\n    tag_486:\n        /* \"#utility.yul\":5028:5067   */\n      swap3\n      pop\n        /* \"#utility.yul\":5136:5138   */\n      0x20\n        /* \"#utility.yul\":5121:5139   */\n      dup5\n      add\n        /* \"#utility.yul\":5108:5140   */\n      calldataload\n      swap2\n      pop\n        /* \"#utility.yul\":5183:5221   */\n      tag_487\n        /* \"#utility.yul\":5217:5219   */\n      0x40\n        /* \"#utility.yul\":5202:5220   */\n      dup6\n      add\n        /* \"#utility.yul\":5183:5221   */\n      tag_431\n      jump\t// in\n    tag_487:\n        /* \"#utility.yul\":5173:5221   */\n      swap1\n      pop\n        /* \"#utility.yul\":4853:5227   */\n      swap3\n      pop\n      swap3\n      pop\n      swap3\n      jump\t// out\n        /* \"#utility.yul\":5232:5579   */\n    tag_108:\n        /* \"#utility.yul\":5297:5303   */\n      0x00\n        /* \"#utility.yul\":5305:5311   */\n      dup1\n        /* \"#utility.yul\":5358:5360   */\n      0x40\n        /* \"#utility.yul\":5346:5355   */\n      dup4\n        /* \"#utility.yul\":5337:5344   */\n      dup6\n        /* \"#utility.yul\":5333:5356   */\n      sub\n        /* \"#utility.yul\":5329:5361   */\n      slt\n        /* \"#utility.yul\":5326:5378   */\n      iszero\n      tag_489\n      jumpi\n        /* \"#utility.yul\":5374:5375   */\n      0x00\n        /* \"#utility.yul\":5371:5372   */\n      dup1\n        /* \"#utility.yul\":5364:5376   */\n      revert\n        /* \"#utility.yul\":5326:5378   */\n    tag_489:\n        /* \"#utility.yul\":5397:5426   */\n      tag_490\n        /* \"#utility.yul\":5416:5425   */\n      dup4\n        /* \"#utility.yul\":5397:5426   */\n      tag_431\n      jump\t// in\n    tag_490:\n        /* \"#utility.yul\":5387:5426   */\n      swap2\n      pop\n        /* \"#utility.yul\":5476:5478   */\n      0x20\n        /* \"#utility.yul\":5465:5474   */\n      dup4\n        /* \"#utility.yul\":5461:5479   */\n      add\n        /* \"#utility.yul\":5448:5480   */\n      calldataload\n        /* \"#utility.yul\":5523:5528   */\n      dup1\n        /* \"#utility.yul\":5516:5529   */\n      iszero\n        /* \"#utility.yul\":5509:5530   */\n      iszero\n        /* \"#utility.yul\":5502:5507   */\n      dup2\n        /* \"#utility.yul\":5499:5531   */\n      eq\n        /* \"#utility.yul\":5489:5549   */\n      tag_491\n      jumpi\n        /* \"#utility.yul\":5545:5546   */\n      0x00\n        /* \"#utility.yul\":5542:5543   */\n      dup1\n        /* \"#utility.yul\":5535:5547   */\n      revert\n        /* \"#utility.yul\":5489:5549   */\n    tag_491:\n        /* \"#utility.yul\":5568:5573   */\n      dup1\n        /* \"#utility.yul\":5558:5573   */\n      swap2\n      pop\n      pop\n        /* \"#utility.yul\":5232:5579   */\n      swap3\n      pop\n      swap3\n      swap1\n      pop\n      jump\t// out\n        /* \"#utility.yul\":5584:6297   */\n    tag_112:\n        /* \"#utility.yul\":5679:5685   */\n      0x00\n        /* \"#utility.yul\":5687:5693   */\n      dup1\n        /* \"#utility.yul\":5695:5701   */\n      0x00\n        /* \"#utility.yul\":5703:5709   */\n      dup1\n        /* \"#utility.yul\":5756:5759   */\n      0x80\n        /* \"#utility.yul\":5744:5753   */\n      dup6\n        /* \"#utility.yul\":5735:5742   */\n      dup8\n        /* \"#utility.yul\":5731:5754   */\n      sub\n        /* \"#utility.yul\":5727:5760   */\n      slt\n        /* \"#utility.yul\":5724:5777   */\n      iszero\n      tag_493\n      jumpi\n        /* \"#utility.yul\":5773:5774   */\n      0x00\n        /* \"#utility.yul\":5770:5771   */\n      dup1\n        /* \"#utility.yul\":5763:5775   */\n      revert\n        /* \"#utility.yul\":5724:5777   */\n    tag_493:\n        /* \"#utility.yul\":5796:5825   */\n      tag_494\n        /* \"#utility.yul\":5815:5824   */\n      dup6\n        /* \"#utility.yul\":5796:5825   */\n      tag_431\n      jump\t// in\n    tag_494:\n        /* \"#utility.yul\":5786:5825   */\n      swap4\n      pop\n        /* \"#utility.yul\":5844:5882   */\n      tag_495\n        /* \"#utility.yul\":5878:5880   */\n      0x20\n        /* \"#utility.yul\":5867:5876   */\n      dup7\n        /* \"#utility.yul\":5863:5881   */\n      add\n        /* \"#utility.yul\":5844:5882   */\n      tag_431\n      jump\t// in\n    tag_495:\n        /* \"#utility.yul\":5834:5882   */\n      swap3\n      pop\n        /* \"#utility.yul\":5951:5953   */\n      0x40\n        /* \"#utility.yul\":5936:5954   */\n      dup6\n      add\n        /* \"#utility.yul\":5923:5955   */\n      calldataload\n      swap2\n      pop\n        /* \"#utility.yul\":6030:6032   */\n      0x60\n        /* \"#utility.yul\":6015:6033   */\n      dup6\n      add\n        /* \"#utility.yul\":6002:6034   */\n      calldataload\n        /* \"#utility.yul\":6057:6075   */\n      0xffffffffffffffff\n        /* \"#utility.yul\":6046:6076   */\n      dup2\n      gt\n        /* \"#utility.yul\":6043:6093   */\n      iszero\n      tag_496\n      jumpi\n        /* \"#utility.yul\":6089:6090   */\n      0x00\n        /* \"#utility.yul\":6086:6087   */\n      dup1\n        /* \"#utility.yul\":6079:6091   */\n      revert\n        /* \"#utility.yul\":6043:6093   */\n    tag_496:\n        /* \"#utility.yul\":6112:6134   */\n      dup6\n      add\n        /* \"#utility.yul\":6165:6169   */\n      0x1f\n        /* \"#utility.yul\":6157:6170   */\n      dup2\n      add\n        /* \"#utility.yul\":6153:6180   */\n      dup8\n      sgt\n        /* \"#utility.yul\":6143:6198   */\n      tag_497\n      jumpi\n        /* \"#utility.yul\":6194:6195   */\n      0x00\n        /* \"#utility.yul\":6191:6192   */\n      dup1\n        /* \"#utility.yul\":6184:6196   */\n      revert\n        /* \"#utility.yul\":6143:6198   */\n    tag_497:\n        /* \"#utility.yul\":6217:6291   */\n      tag_498\n        /* \"#utility.yul\":6283:6290   */\n      dup8\n        /* \"#utility.yul\":6278:6280   */\n      dup3\n        /* \"#utility.yul\":6265:6281   */\n      calldataload\n        /* \"#utility.yul\":6260:6262   */\n      0x20\n        /* \"#utility.yul\":6256:6258   */\n      dup5\n        /* \"#utility.yul\":6252:6263   */\n      add\n        /* \"#utility.yul\":6217:6291   */\n      tag_434\n      jump\t// in\n    tag_498:\n        /* \"#utility.yul\":6207:6291   */\n      swap2\n      pop\n      pop\n        /* \"#utility.yul\":5584:6297   */\n      swap3\n      swap6\n      swap2\n      swap5\n      pop\n      swap3\n      pop\n      jump\t// out\n        /* \"#utility.yul\":6302:6562   */\n    tag_124:\n        /* \"#utility.yul\":6370:6376   */\n      0x00\n        /* \"#utility.yul\":6378:6384   */\n      dup1\n        /* \"#utility.yul\":6431:6433   */\n      0x40\n        /* \"#utility.yul\":6419:6428   */\n      dup4\n        /* \"#utility.yul\":6410:6417   */\n      dup6\n        /* \"#utility.yul\":6406:6429   */\n      sub\n        /* \"#utility.yul\":6402:6434   */\n      slt\n        /* \"#utility.yul\":6399:6451   */\n      iszero\n      tag_500\n      jumpi\n        /* \"#utility.yul\":6447:6448   */\n      0x00\n        /* \"#utility.yul\":6444:6445   */\n      dup1\n        /* \"#utility.yul\":6437:6449   */\n      revert\n        /* \"#utility.yul\":6399:6451   */\n    tag_500:\n        /* \"#utility.yul\":6470:6499   */\n      tag_501\n        /* \"#utility.yul\":6489:6498   */\n      dup4\n        /* \"#utility.yul\":6470:6499   */\n      tag_431\n      jump\t// in\n    tag_501:\n        /* \"#utility.yul\":6460:6499   */\n      swap2\n      pop\n        /* \"#utility.yul\":6518:6556   */\n      tag_502\n        /* \"#utility.yul\":6552:6554   */\n      0x20\n        /* \"#utility.yul\":6541:6550   */\n      dup5\n        /* \"#utility.yul\":6537:6555   */\n      add\n        /* \"#utility.yul\":6518:6556   */\n      tag_431\n      jump\t// in\n    tag_502:\n        /* \"#utility.yul\":6508:6556   */\n      swap1\n      pop\n        /* \"#utility.yul\":6302:6562   */\n      swap3\n      pop\n      swap3\n      swap1\n      pop\n      jump\t// out\n        /* \"#utility.yul\":6567:7773   */\n    tag_131:\n        /* \"#utility.yul\":6751:6755   */\n      0x00\n        /* \"#utility.yul\":6799:6801   */\n      0x20\n        /* \"#utility.yul\":6788:6797   */\n      dup3\n        /* \"#utility.yul\":6784:6802   */\n      add\n        /* \"#utility.yul\":6829:6831   */\n      0x20\n        /* \"#utility.yul\":6818:6827   */\n      dup4\n        /* \"#utility.yul\":6811:6832   */\n      mstore\n        /* \"#utility.yul\":6852:6858   */\n      dup1\n        /* \"#utility.yul\":6887:6893   */\n      dup5\n        /* \"#utility.yul\":6881:6894   */\n      mload\n        /* \"#utility.yul\":6918:6924   */\n      dup1\n        /* \"#utility.yul\":6910:6916   */\n      dup4\n        /* \"#utility.yul\":6903:6925   */\n      mstore\n        /* \"#utility.yul\":6956:6958   */\n      0x40\n        /* \"#utility.yul\":6945:6954   */\n      dup6\n        /* \"#utility.yul\":6941:6959   */\n      add\n        /* \"#utility.yul\":6934:6959   */\n      swap2\n      pop\n        /* \"#utility.yul\":7018:7020   */\n      0x40\n        /* \"#utility.yul\":7008:7014   */\n      dup2\n        /* \"#utility.yul\":7005:7006   */\n      0x05\n        /* \"#utility.yul\":7001:7015   */\n      shl\n        /* \"#utility.yul\":6990:6999   */\n      dup7\n        /* \"#utility.yul\":6986:7016   */\n      add\n        /* \"#utility.yul\":6982:7021   */\n      add\n        /* \"#utility.yul\":6968:7021   */\n      swap3\n      pop\n        /* \"#utility.yul\":7056:7058   */\n      0x20\n        /* \"#utility.yul\":7048:7054   */\n      dup7\n        /* \"#utility.yul\":7044:7059   */\n      add\n        /* \"#utility.yul\":7077:7078   */\n      0x00\n        /* \"#utility.yul\":7087:7744   */\n    tag_504:\n        /* \"#utility.yul\":7101:7107   */\n      dup3\n        /* \"#utility.yul\":7098:7099   */\n      dup2\n        /* \"#utility.yul\":7095:7108   */\n      lt\n        /* \"#utility.yul\":7087:7744   */\n      iszero\n      tag_506\n      jumpi\n        /* \"#utility.yul\":7194:7196   */\n      0x3f\n        /* \"#utility.yul\":7190:7197   */\n      not\n        /* \"#utility.yul\":7178:7187   */\n      dup8\n        /* \"#utility.yul\":7170:7176   */\n      dup7\n        /* \"#utility.yul\":7166:7188   */\n      sub\n        /* \"#utility.yul\":7162:7198   */\n      add\n        /* \"#utility.yul\":7157:7160   */\n      dup5\n        /* \"#utility.yul\":7150:7199   */\n      mstore\n        /* \"#utility.yul\":7228:7234   */\n      dup2\n        /* \"#utility.yul\":7222:7235   */\n      mload\n        /* \"#utility.yul\":7269:7271   */\n      dup1\n        /* \"#utility.yul\":7263:7272   */\n      mload\n        /* \"#utility.yul\":7255:7261   */\n      dup7\n        /* \"#utility.yul\":7248:7273   */\n      mstore\n        /* \"#utility.yul\":7324:7326   */\n      0x20\n        /* \"#utility.yul\":7320:7322   */\n      dup2\n        /* \"#utility.yul\":7316:7327   */\n      add\n        /* \"#utility.yul\":7310:7328   */\n      mload\n        /* \"#utility.yul\":7305:7307   */\n      0x20\n        /* \"#utility.yul\":7297:7303   */\n      dup8\n        /* \"#utility.yul\":7293:7308   */\n      add\n        /* \"#utility.yul\":7286:7329   */\n      mstore\n        /* \"#utility.yul\":7376:7378   */\n      0x40\n        /* \"#utility.yul\":7372:7374   */\n      dup2\n        /* \"#utility.yul\":7368:7379   */\n      add\n        /* \"#utility.yul\":7362:7380   */\n      mload\n        /* \"#utility.yul\":7417:7421   */\n      0xa0\n        /* \"#utility.yul\":7412:7414   */\n      0x40\n        /* \"#utility.yul\":7404:7410   */\n      dup9\n        /* \"#utility.yul\":7400:7415   */\n      add\n        /* \"#utility.yul\":7393:7422   */\n      mstore\n        /* \"#utility.yul\":7449:7499   */\n      tag_507\n        /* \"#utility.yul\":7493:7497   */\n      0xa0\n        /* \"#utility.yul\":7485:7491   */\n      dup9\n        /* \"#utility.yul\":7481:7498   */\n      add\n        /* \"#utility.yul\":7467:7479   */\n      dup3\n        /* \"#utility.yul\":7449:7499   */\n      tag_433\n      jump\t// in\n    tag_507:\n        /* \"#utility.yul\":7552:7556   */\n      0x60\n        /* \"#utility.yul\":7544:7557   */\n      dup4\n      dup2\n      add\n        /* \"#utility.yul\":7538:7558   */\n      mload\n        /* \"#utility.yul\":7519:7536   */\n      swap1\n      dup10\n      add\n        /* \"#utility.yul\":7512:7559   */\n      mstore\n        /* \"#utility.yul\":7626:7630   */\n      0x80\n        /* \"#utility.yul\":7618:7631   */\n      swap3\n      dup4\n      add\n        /* \"#utility.yul\":7612:7632   */\n      mload\n        /* \"#utility.yul\":7605:7633   */\n      iszero\n        /* \"#utility.yul\":7598:7634   */\n      iszero\n        /* \"#utility.yul\":7579:7596   */\n      swap3\n      swap1\n      swap8\n      add\n        /* \"#utility.yul\":7572:7635   */\n      swap2\n      swap1\n      swap2\n      mstore\n      pop\n        /* \"#utility.yul\":7699:7701   */\n      0x20\n        /* \"#utility.yul\":7722:7734   */\n      swap4\n      dup5\n      add\n      swap4\n        /* \"#utility.yul\":7687:7702   */\n      swap2\n      swap1\n      swap2\n      add\n      swap1\n        /* \"#utility.yul\":7123:7124   */\n      0x01\n        /* \"#utility.yul\":7116:7125   */\n      add\n        /* \"#utility.yul\":7087:7744   */\n      jump(tag_504)\n    tag_506:\n      pop\n        /* \"#utility.yul\":7761:7767   */\n      swap3\n      swap7\n        /* \"#utility.yul\":6567:7773   */\n      swap6\n      pop\n      pop\n      pop\n      pop\n      pop\n      pop\n      jump\t// out\n        /* \"#utility.yul\":7778:8158   */\n    tag_144:\n        /* \"#utility.yul\":7857:7858   */\n      0x01\n        /* \"#utility.yul\":7853:7865   */\n      dup2\n      dup2\n      shr\n      swap1\n        /* \"#utility.yul\":7900:7912   */\n      dup3\n      and\n      dup1\n        /* \"#utility.yul\":7921:7982   */\n      tag_509\n      jumpi\n        /* \"#utility.yul\":7975:7979   */\n      0x7f\n        /* \"#utility.yul\":7967:7973   */\n      dup3\n        /* \"#utility.yul\":7963:7980   */\n      and\n        /* \"#utility.yul\":7953:7980   */\n      swap2\n      pop\n        /* \"#utility.yul\":7921:7982   */\n    tag_509:\n        /* \"#utility.yul\":8028:8030   */\n      0x20\n        /* \"#utility.yul\":8020:8026   */\n      dup3\n        /* \"#utility.yul\":8017:8031   */\n      lt\n        /* \"#utility.yul\":7997:8015   */\n      dup2\n        /* \"#utility.yul\":7994:8032   */\n      sub\n        /* \"#utility.yul\":7991:8152   */\n      tag_510\n      jumpi\n        /* \"#utility.yul\":8074:8084   */\n      0x4e487b71\n        /* \"#utility.yul\":8069:8072   */\n      0xe0\n        /* \"#utility.yul\":8065:8085   */\n      shl\n        /* \"#utility.yul\":8062:8063   */\n      0x00\n        /* \"#utility.yul\":8055:8086   */\n      mstore\n        /* \"#utility.yul\":8109:8113   */\n      0x22\n        /* \"#utility.yul\":8106:8107   */\n      0x04\n        /* \"#utility.yul\":8099:8114   */\n      mstore\n        /* \"#utility.yul\":8137:8141   */\n      0x24\n        /* \"#utility.yul\":8134:8135   */\n      0x00\n        /* \"#utility.yul\":8127:8142   */\n      revert\n        /* \"#utility.yul\":7991:8152   */\n    tag_510:\n      pop\n        /* \"#utility.yul\":7778:8158   */\n      swap2\n      swap1\n      pop\n      jump\t// out\n        /* \"#utility.yul\":8949:9076   */\n    tag_435:\n        /* \"#utility.yul\":9010:9020   */\n      0x4e487b71\n        /* \"#utility.yul\":9005:9008   */\n      0xe0\n        /* \"#utility.yul\":9001:9021   */\n      shl\n        /* \"#utility.yul\":8998:8999   */\n      0x00\n        /* \"#utility.yul\":8991:9022   */\n      mstore\n        /* \"#utility.yul\":9041:9045   */\n      0x11\n        /* \"#utility.yul\":9038:9039   */\n      0x04\n        /* \"#utility.yul\":9031:9046   */\n      mstore\n        /* \"#utility.yul\":9065:9069   */\n      0x24\n        /* \"#utility.yul\":9062:9063   */\n      0x00\n        /* \"#utility.yul\":9055:9070   */\n      revert\n        /* \"#utility.yul\":9081:9206   */\n    tag_186:\n        /* \"#utility.yul\":9146:9155   */\n      dup1\n      dup3\n      add\n        /* \"#utility.yul\":9167:9177   */\n      dup1\n      dup3\n      gt\n        /* \"#utility.yul\":9164:9200   */\n      iszero\n      tag_140\n      jumpi\n        /* \"#utility.yul\":9180:9198   */\n      tag_140\n      tag_435\n      jump\t// in\n        /* \"#utility.yul\":9337:9855   */\n    tag_437:\n        /* \"#utility.yul\":9439:9441   */\n      0x1f\n        /* \"#utility.yul\":9434:9437   */\n      dup3\n        /* \"#utility.yul\":9431:9442   */\n      gt\n        /* \"#utility.yul\":9428:9849   */\n      iszero\n      tag_174\n      jumpi\n        /* \"#utility.yul\":9475:9480   */\n      dup1\n        /* \"#utility.yul\":9472:9473   */\n      0x00\n        /* \"#utility.yul\":9465:9481   */\n      mstore\n        /* \"#utility.yul\":9519:9523   */\n      0x20\n        /* \"#utility.yul\":9516:9517   */\n      0x00\n        /* \"#utility.yul\":9506:9524   */\n      keccak256\n        /* \"#utility.yul\":9589:9591   */\n      0x1f\n        /* \"#utility.yul\":9577:9587   */\n      dup5\n        /* \"#utility.yul\":9573:9592   */\n      add\n        /* \"#utility.yul\":9570:9571   */\n      0x05\n        /* \"#utility.yul\":9566:9593   */\n      shr\n        /* \"#utility.yul\":9560:9564   */\n      dup2\n        /* \"#utility.yul\":9556:9594   */\n      add\n        /* \"#utility.yul\":9625:9629   */\n      0x20\n        /* \"#utility.yul\":9613:9623   */\n      dup6\n        /* \"#utility.yul\":9610:9630   */\n      lt\n        /* \"#utility.yul\":9607:9654   */\n      iszero\n      tag_520\n      jumpi\n      pop\n        /* \"#utility.yul\":9648:9652   */\n      dup1\n        /* \"#utility.yul\":9607:9654   */\n    tag_520:\n        /* \"#utility.yul\":9703:9705   */\n      0x1f\n        /* \"#utility.yul\":9698:9701   */\n      dup5\n        /* \"#utility.yul\":9694:9706   */\n      add\n        /* \"#utility.yul\":9691:9692   */\n      0x05\n        /* \"#utility.yul\":9687:9707   */\n      shr\n        /* \"#utility.yul\":9681:9685   */\n      dup3\n        /* \"#utility.yul\":9677:9708   */\n      add\n        /* \"#utility.yul\":9667:9708   */\n      swap2\n      pop\n        /* \"#utility.yul\":9758:9839   */\n    tag_521:\n        /* \"#utility.yul\":9776:9778   */\n      dup2\n        /* \"#utility.yul\":9769:9774   */\n      dup2\n        /* \"#utility.yul\":9766:9779   */\n      lt\n        /* \"#utility.yul\":9758:9839   */\n      iszero\n      tag_330\n      jumpi\n        /* \"#utility.yul\":9835:9836   */\n      0x00\n        /* \"#utility.yul\":9821:9837   */\n      dup2\n      sstore\n        /* \"#utility.yul\":9802:9803   */\n      0x01\n        /* \"#utility.yul\":9791:9804   */\n      add\n        /* \"#utility.yul\":9758:9839   */\n      jump(tag_521)\n        /* \"#utility.yul\":10031:11330   */\n    tag_189:\n        /* \"#utility.yul\":10157:10160   */\n      dup2\n        /* \"#utility.yul\":10151:10161   */\n      mload\n        /* \"#utility.yul\":10184:10202   */\n      0xffffffffffffffff\n        /* \"#utility.yul\":10176:10182   */\n      dup2\n        /* \"#utility.yul\":10173:10203   */\n      gt\n        /* \"#utility.yul\":10170:10226   */\n      iszero\n      tag_527\n      jumpi\n        /* \"#utility.yul\":10206:10224   */\n      tag_527\n      tag_249\n      jump\t// in\n    tag_527:\n        /* \"#utility.yul\":10235:10332   */\n      tag_528\n        /* \"#utility.yul\":10325:10331   */\n      dup2\n        /* \"#utility.yul\":10285:10323   */\n      tag_529\n        /* \"#utility.yul\":10317:10321   */\n      dup5\n        /* \"#utility.yul\":10311:10322   */\n      sload\n        /* \"#utility.yul\":10285:10323   */\n      tag_144\n      jump\t// in\n    tag_529:\n        /* \"#utility.yul\":10279:10283   */\n      dup5\n        /* \"#utility.yul\":10235:10332   */\n      tag_437\n      jump\t// in\n    tag_528:\n        /* \"#utility.yul\":10381:10385   */\n      0x20\n        /* \"#utility.yul\":10412:10414   */\n      0x1f\n        /* \"#utility.yul\":10401:10415   */\n      dup3\n      gt\n        /* \"#utility.yul\":10429:10430   */\n      0x01\n        /* \"#utility.yul\":10424:11073   */\n      dup2\n      eq\n      tag_531\n      jumpi\n        /* \"#utility.yul\":11117:11118   */\n      0x00\n        /* \"#utility.yul\":11134:11140   */\n      dup4\n        /* \"#utility.yul\":11131:11220   */\n      iszero\n      tag_532\n      jumpi\n      pop\n        /* \"#utility.yul\":11186:11205   */\n      dup5\n      dup3\n      add\n        /* \"#utility.yul\":11180:11206   */\n      mload\n        /* \"#utility.yul\":11131:11220   */\n    tag_532:\n      not(0x00)\n        /* \"#utility.yul\":9988:9989   */\n      0x03\n        /* \"#utility.yul\":9984:9995   */\n      dup6\n      swap1\n      shl\n        /* \"#utility.yul\":9980:10004   */\n      shr\n        /* \"#utility.yul\":9976:10005   */\n      not\n        /* \"#utility.yul\":9966:10006   */\n      and\n        /* \"#utility.yul\":10012:10013   */\n      0x01\n        /* \"#utility.yul\":10008:10019   */\n      dup5\n      swap1\n      shl\n        /* \"#utility.yul\":9963:10020   */\n      or\n        /* \"#utility.yul\":11233:11314   */\n      dup5\n      sstore\n        /* \"#utility.yul\":10394:11324   */\n      jump(tag_330)\n        /* \"#utility.yul\":10424:11073   */\n    tag_531:\n        /* \"#utility.yul\":9284:9285   */\n      0x00\n        /* \"#utility.yul\":9277:9291   */\n      dup5\n      dup2\n      mstore\n        /* \"#utility.yul\":9321:9325   */\n      0x20\n        /* \"#utility.yul\":9308:9326   */\n      dup2\n      keccak256\n      not(0x1f)\n        /* \"#utility.yul\":10460:10480   */\n      dup6\n      and\n      swap2\n        /* \"#utility.yul\":10578:10800   */\n    tag_535:\n        /* \"#utility.yul\":10592:10599   */\n      dup3\n        /* \"#utility.yul\":10589:10590   */\n      dup2\n        /* \"#utility.yul\":10586:10600   */\n      lt\n        /* \"#utility.yul\":10578:10800   */\n      iszero\n      tag_537\n      jumpi\n        /* \"#utility.yul\":10674:10693   */\n      dup8\n      dup6\n      add\n        /* \"#utility.yul\":10668:10694   */\n      mload\n        /* \"#utility.yul\":10653:10695   */\n      dup3\n      sstore\n        /* \"#utility.yul\":10781:10785   */\n      0x20\n        /* \"#utility.yul\":10766:10786   */\n      swap5\n      dup6\n      add\n      swap5\n        /* \"#utility.yul\":10734:10735   */\n      0x01\n        /* \"#utility.yul\":10722:10736   */\n      swap1\n      swap3\n      add\n      swap2\n        /* \"#utility.yul\":10608:10620   */\n      add\n        /* \"#utility.yul\":10578:10800   */\n      jump(tag_535)\n    tag_537:\n        /* \"#utility.yul\":10582:10585   */\n      pop\n        /* \"#utility.yul\":10828:10834   */\n      dup5\n        /* \"#utility.yul\":10819:10826   */\n      dup3\n        /* \"#utility.yul\":10816:10835   */\n      lt\n        /* \"#utility.yul\":10813:11014   */\n      iszero\n      tag_538\n      jumpi\n        /* \"#utility.yul\":10889:10908   */\n      dup7\n      dup5\n      add\n        /* \"#utility.yul\":10883:10909   */\n      mload\n      not(0x00)\n        /* \"#utility.yul\":10972:10973   */\n      0x03\n        /* \"#utility.yul\":10968:10982   */\n      dup8\n      swap1\n      shl\n        /* \"#utility.yul\":10984:10987   */\n      0xf8\n        /* \"#utility.yul\":10964:10988   */\n      and\n        /* \"#utility.yul\":10960:10997   */\n      shr\n        /* \"#utility.yul\":10956:10998   */\n      not\n        /* \"#utility.yul\":10941:10999   */\n      and\n        /* \"#utility.yul\":10926:11000   */\n      dup2\n      sstore\n        /* \"#utility.yul\":10813:11014   */\n    tag_538:\n      pop\n      pop\n      pop\n      pop\n        /* \"#utility.yul\":11060:11061   */\n      0x01\n        /* \"#utility.yul\":11044:11058   */\n      swap1\n      dup2\n      shl\n        /* \"#utility.yul\":11040:11062   */\n      add\n        /* \"#utility.yul\":11027:11063   */\n      swap1\n      sstore\n      pop\n        /* \"#utility.yul\":10031:11330   */\n      jump\t// out\n        /* \"#utility.yul\":11335:11470   */\n    tag_195:\n        /* \"#utility.yul\":11374:11377   */\n      0x00\n        /* \"#utility.yul\":11395:11412   */\n      0x01\n      dup3\n      add\n        /* \"#utility.yul\":11392:11435   */\n      tag_541\n      jumpi\n        /* \"#utility.yul\":11415:11433   */\n      tag_541\n      tag_435\n      jump\t// in\n    tag_541:\n      pop\n        /* \"#utility.yul\":11462:11463   */\n      0x01\n        /* \"#utility.yul\":11451:11464   */\n      add\n      swap1\n        /* \"#utility.yul\":11335:11470   */\n      jump\t// out\n        /* \"#utility.yul\":11475:11602   */\n    tag_204:\n        /* \"#utility.yul\":11536:11546   */\n      0x4e487b71\n        /* \"#utility.yul\":11531:11534   */\n      0xe0\n        /* \"#utility.yul\":11527:11547   */\n      shl\n        /* \"#utility.yul\":11524:11525   */\n      0x00\n        /* \"#utility.yul\":11517:11548   */\n      mstore\n        /* \"#utility.yul\":11567:11571   */\n      0x32\n        /* \"#utility.yul\":11564:11565   */\n      0x04\n        /* \"#utility.yul\":11557:11572   */\n      mstore\n        /* \"#utility.yul\":11591:11595   */\n      0x24\n        /* \"#utility.yul\":11588:11589   */\n      0x00\n        /* \"#utility.yul\":11581:11596   */\n      revert\n        /* \"#utility.yul\":11607:11743   */\n    tag_208:\n        /* \"#utility.yul\":11646:11649   */\n      0x00\n        /* \"#utility.yul\":11674:11679   */\n      dup2\n        /* \"#utility.yul\":11664:11703   */\n      tag_545\n      jumpi\n        /* \"#utility.yul\":11683:11701   */\n      tag_545\n      tag_435\n      jump\t// in\n    tag_545:\n      pop\n      not(0x00)\n        /* \"#utility.yul\":11719:11737   */\n      add\n      swap1\n        /* \"#utility.yul\":11607:11743   */\n      jump\t// out\n        /* \"#utility.yul\":11748:12233   */\n    tag_316:\n      sub(shl(0xa0, 0x01), 0x01)\n        /* \"#utility.yul\":11979:12011   */\n      dup6\n      dup2\n      and\n        /* \"#utility.yul\":11961:12012   */\n      dup3\n      mstore\n        /* \"#utility.yul\":12048:12080   */\n      dup5\n      and\n        /* \"#utility.yul\":12043:12045   */\n      0x20\n        /* \"#utility.yul\":12028:12046   */\n      dup3\n      add\n        /* \"#utility.yul\":12021:12081   */\n      mstore\n        /* \"#utility.yul\":12112:12114   */\n      0x40\n        /* \"#utility.yul\":12097:12115   */\n      dup2\n      add\n        /* \"#utility.yul\":12090:12124   */\n      dup4\n      swap1\n      mstore\n        /* \"#utility.yul\":12160:12163   */\n      0x80\n        /* \"#utility.yul\":12155:12157   */\n      0x60\n        /* \"#utility.yul\":12140:12158   */\n      dup3\n      add\n        /* \"#utility.yul\":12133:12164   */\n      dup2\n      swap1\n      mstore\n      0x00\n      swap1\n        /* \"#utility.yul\":12181:12227   */\n      tag_547\n      swap1\n        /* \"#utility.yul\":12207:12226   */\n      dup4\n      add\n        /* \"#utility.yul\":12199:12205   */\n      dup5\n        /* \"#utility.yul\":12181:12227   */\n      tag_433\n      jump\t// in\n    tag_547:\n        /* \"#utility.yul\":12173:12227   */\n      swap7\n        /* \"#utility.yul\":11748:12233   */\n      swap6\n      pop\n      pop\n      pop\n      pop\n      pop\n      pop\n      jump\t// out\n        /* \"#utility.yul\":12238:12487   */\n    tag_319:\n        /* \"#utility.yul\":12307:12313   */\n      0x00\n        /* \"#utility.yul\":12360:12362   */\n      0x20\n        /* \"#utility.yul\":12348:12357   */\n      dup3\n        /* \"#utility.yul\":12339:12346   */\n      dup5\n        /* \"#utility.yul\":12335:12358   */\n      sub\n        /* \"#utility.yul\":12331:12363   */\n      slt\n        /* \"#utility.yul\":12328:12380   */\n      iszero\n      tag_549\n      jumpi\n        /* \"#utility.yul\":12376:12377   */\n      0x00\n        /* \"#utility.yul\":12373:12374   */\n      dup1\n        /* \"#utility.yul\":12366:12378   */\n      revert\n        /* \"#utility.yul\":12328:12380   */\n    tag_549:\n        /* \"#utility.yul\":12408:12417   */\n      dup2\n        /* \"#utility.yul\":12402:12418   */\n      mload\n        /* \"#utility.yul\":12427:12457   */\n      tag_381\n        /* \"#utility.yul\":12451:12456   */\n      dup2\n        /* \"#utility.yul\":12427:12457   */\n      tag_430\n      jump\t// in\n        /* \"#utility.yul\":12492:12988   */\n    tag_344:\n        /* \"#utility.yul\":12671:12674   */\n      0x00\n        /* \"#utility.yul\":12709:12715   */\n      dup4\n        /* \"#utility.yul\":12703:12716   */\n      mload\n        /* \"#utility.yul\":12725:12791   */\n      tag_552\n        /* \"#utility.yul\":12784:12790   */\n      dup2\n        /* \"#utility.yul\":12779:12782   */\n      dup5\n        /* \"#utility.yul\":12772:12776   */\n      0x20\n        /* \"#utility.yul\":12764:12770   */\n      dup9\n        /* \"#utility.yul\":12760:12777   */\n      add\n        /* \"#utility.yul\":12725:12791   */\n      tag_432\n      jump\t// in\n    tag_552:\n        /* \"#utility.yul\":12854:12867   */\n      dup4\n      mload\n        /* \"#utility.yul\":12813:12829   */\n      swap1\n      dup4\n      add\n      swap1\n        /* \"#utility.yul\":12876:12946   */\n      tag_553\n        /* \"#utility.yul\":12854:12867   */\n      dup2\n        /* \"#utility.yul\":12813:12829   */\n      dup4\n        /* \"#utility.yul\":12923:12927   */\n      0x20\n        /* \"#utility.yul\":12911:12928   */\n      dup9\n      add\n        /* \"#utility.yul\":12876:12946   */\n      tag_432\n      jump\t// in\n    tag_553:\n        /* \"#utility.yul\":12962:12982   */\n      add\n      swap5\n        /* \"#utility.yul\":12492:12988   */\n      swap4\n      pop\n      pop\n      pop\n      pop\n      jump\t// out\n\n    auxdata: 0xa26469706673582212204652f29962e722fdf5a173a6f90335a94db26def1f729e2dde59b79e4b4c32a064736f6c634300081a0033\n}\n",
				"bytecode": {
					"linkReferences": {},
					"object": "608060405234801561001057600080fd5b50604051611f6f380380611f6f83398101604081905261002f9161011a565b80604051806040016040528060058152602001644c616e647360d81b8152506040518060400160405280600481526020016313185b9960e21b815250816000908161007a91906101e9565b50600161008782826101e9565b5050506001600160a01b0381166100b857604051631e4fbdf760e01b81526000600482015260240160405180910390fd5b6100c1816100c8565b50506102a7565b600780546001600160a01b038381166001600160a01b0319831681179093556040519116919082907f8be0079c531659141344cd1fd0a4f28419497f9722a3daafe3b4186f6b6457e090600090a35050565b60006020828403121561012c57600080fd5b81516001600160a01b038116811461014357600080fd5b9392505050565b634e487b7160e01b600052604160045260246000fd5b600181811c9082168061017457607f821691505b60208210810361019457634e487b7160e01b600052602260045260246000fd5b50919050565b601f8211156101e457806000526020600020601f840160051c810160208510156101c15750805b601f840160051c820191505b818110156101e157600081556001016101cd565b50505b505050565b81516001600160401b038111156102025761020261014a565b610216816102108454610160565b8461019a565b6020601f82116001811461024a57600083156102325750848201515b600019600385901b1c1916600184901b1784556101e1565b600084815260208120601f198516915b8281101561027a578785015182556020948501946001909201910161025a565b50848210156102985786840151600019600387901b60f8161c191681555b50505050600190811b01905550565b611cb9806102b66000396000f3fe608060405234801561001057600080fd5b506004361061018e5760003560e01c80638ad91345116100de578063b88d4fde11610097578063e985e9c511610071578063e985e9c51461038a578063f15376861461039d578063f2fde38b146103bd578063fbbffcb0146103d057600080fd5b8063b88d4fde14610341578063c87b56dd14610354578063d936547e1461036757600080fd5b80638ad91345146102dc5780638da5cb5b146102ef57806395d89b41146103005780639a590427146103085780639b19251a1461031b578063a22cb4651461032e57600080fd5b806323b872dd1161014b578063695850fb11610125578063695850fb1461029b5780636e0cee09146102ae57806370a08231146102c1578063715018a6146102d457600080fd5b806323b872dd1461026257806342842e0e146102755780636352211e1461028857600080fd5b806301ffc9a71461019357806305d85eda146101bb57806306fdde03146101e9578063081812fc146101fe578063095ea7b3146102295780632295370a1461023e575b600080fd5b6101a66101a1366004611640565b6103fb565b60405190151581526020015b60405180910390f35b6101db6101c9366004611679565b600a6020526000908152604090205481565b6040519081526020016101b2565b6101f161040c565b6040516101b291906116e4565b61021161020c3660046116f7565b61049e565b6040516001600160a01b0390911681526020016101b2565b61023c610237366004611710565b6104c7565b005b61025161024c3660046116f7565b6104d6565b6040516101b295949392919061173a565b61023c610270366004611772565b610591565b61023c610283366004611772565b610621565b6102116102963660046116f7565b610641565b61023c6102a936600461183f565b61064c565b61023c6102bc366004611888565b6107f1565b6101db6102cf366004611679565b610925565b61023c61096d565b6101f16102ea3660046116f7565b610981565b6007546001600160a01b0316610211565b6101f161098c565b61023c610316366004611679565b61099b565b61023c610329366004611679565b6109c4565b61023c61033c3660046118c4565b6109f0565b61023c61034f366004611900565b6109fb565b6101f16103623660046116f7565b610a12565b6101a6610375366004611679565b600c6020526000908152604090205460ff1681565b6101a661039836600461197c565b610a1d565b6103b06103ab366004611679565b610a4b565b6040516101b291906119af565b61023c6103cb366004611679565b610c4d565b6101db6103de366004611710565b600960209081526000928352604080842090915290825290205481565b600061040682610c8b565b92915050565b60606000805461041b90611a4b565b80601f016020809104026020016040519081016040528092919081815260200182805461044790611a4b565b80156104945780601f1061046957610100808354040283529160200191610494565b820191906000526020600020905b81548152906001019060200180831161047757829003601f168201915b5050505050905090565b60006104a982610cb0565b506000828152600460205260409020546001600160a01b0316610406565b6104d2828233610ce9565b5050565b600b60205260009081526040902080546001820154600283018054929391926104fe90611a4b565b80601f016020809104026020016040519081016040528092919081815260200182805461052a90611a4b565b80156105775780601f1061054c57610100808354040283529160200191610577565b820191906000526020600020905b81548152906001019060200180831161055a57829003601f168201915b50505050600383015460049093015491929160ff16905085565b6001600160a01b0382166105c057604051633250574960e11b8152600060048201526024015b60405180910390fd5b60006105cd838333610cf6565b9050836001600160a01b0316816001600160a01b03161461061b576040516364283d7b60e01b81526001600160a01b03808616600483015260248201849052821660448201526064016105b7565b50505050565b61063c838383604051806020016040528060008152506109fb565b505050565b600061040682610cb0565b336000908152600c602052604090205460ff166106bd5760405162461bcd60e51b815260206004820152602960248201527f596f7520617265206e6f7420617574686f72697a656420666f72206d696e74696044820152686e67206c616e64212160b81b60648201526084016105b7565b6106cb600880546001019055565b60006106d660085490565b336000908152600960209081526040808320600a9092528220549293508392909190610703906001611a9b565b81526020808201929092526040908101600090812093909355805160a081018252848152338452600a835292205490820190610740906001611a9b565b815260200183815260200142815260200160011515815250600b6000838152602001908152602001600020600082015181600001556020820151816001015560408201518160020190816107949190611af5565b50606082015160038201556080909101516004909101805460ff19169115159190911790556107c33382610def565b6107cd8183610e09565b336000908152600a602052604081208054916107e883611bb4565b91905055505050565b6001600160a01b0383166000908152600960209081526040808320600a909252822054849290610822906001611a9b565b815260200190815260200160002081905550600061083f82610a4b565b905060005b81518110156108f5578382828151811061086057610860611bcd565b602002602001015160000151036108ed576001600160a01b0383166000818152600960208181526040808420600a835281852054855280835290842054948452919052906108af846001611a9b565b815260208082019290925260409081016000908120939093556001600160a01b0386168352600a90915281208054916108e783611be3565b91905055505b600101610844565b506001600160a01b0384166000908152600a6020526040812080549161091a83611bb4565b919050555050505050565b60006001600160a01b038216610951576040516322718ad960e21b8152600060048201526024016105b7565b506001600160a01b031660009081526003602052604090205490565b610975610e59565b61097f6000610e86565b565b606061040682610a12565b60606001805461041b90611a4b565b6109a3610e59565b6001600160a01b03166000908152600c60205260409020805460ff19169055565b6109cc610e59565b6001600160a01b03166000908152600c60205260409020805460ff19166001179055565b6104d2338383610ed8565b610a06848484610591565b61061b84848484610f77565b6060610406826110a0565b6001600160a01b03918216600090815260056020908152604080832093909416825291909152205460ff1690565b6001600160a01b0381166000908152600a60205260408120546060919067ffffffffffffffff811115610a8057610a806117af565b604051908082528060200260200182016040528015610ae557816020015b610ad26040518060a00160405280600081526020016000815260200160608152602001600081526020016000151581525090565b815260200190600190039081610a9e5790505b50905060005b6001600160a01b0384166000908152600a6020526040902054811015610c46576001600160a01b038416600090815260096020526040812081610b2f846001611a9b565b8152602001908152602001600020549050600b60008281526020019081526020016000206040518060a00160405290816000820154815260200160018201548152602001600282018054610b8290611a4b565b80601f0160208091040260200160405190810160405280929190818152602001828054610bae90611a4b565b8015610bfb5780601f10610bd057610100808354040283529160200191610bfb565b820191906000526020600020905b815481529060010190602001808311610bde57829003601f168201915b50505091835250506003820154602082015260049091015460ff1615156040909101528351849084908110610c3257610c32611bcd565b602090810291909101015250600101610aeb565b5092915050565b610c55610e59565b6001600160a01b038116610c7f57604051631e4fbdf760e01b8152600060048201526024016105b7565b610c8881610e86565b50565b60006001600160e01b03198216632483248360e11b14806104065750610406826111b1565b6000818152600260205260408120546001600160a01b03168061040657604051637e27328960e01b8152600481018490526024016105b7565b61063c8383836001611201565b6000828152600260205260408120546001600160a01b0390811690831615610d2357610d23818486611307565b6001600160a01b03811615610d6157610d40600085600080611201565b6001600160a01b038116600090815260036020526040902080546000190190555b6001600160a01b03851615610d90576001600160a01b0385166000908152600360205260409020805460010190555b60008481526002602052604080822080546001600160a01b0319166001600160a01b0389811691821790925591518793918516917fddf252ad1be2c89b69c2b068fc378daa952ba7f163c4a11628f55a4df523b3ef91a4949350505050565b6104d282826040518060200160405280600081525061136b565b6000828152600660205260409020610e218282611af5565b506040518281527ff8e1a15aba9398e019f0b49df1a4fde98ee17ae345cb5f6b5e2c27f5033e8ce79060200160405180910390a15050565b6007546001600160a01b0316331461097f5760405163118cdaa760e01b81523360048201526024016105b7565b600780546001600160a01b038381166001600160a01b0319831681179093556040519116919082907f8be0079c531659141344cd1fd0a4f28419497f9722a3daafe3b4186f6b6457e090600090a35050565b6001600160a01b038216610f0a57604051630b61174360e31b81526001600160a01b03831660048201526024016105b7565b6001600160a01b03838116600081815260056020908152604080832094871680845294825291829020805460ff191686151590811790915591519182527f17307eab39ab6107e8899845ad3d59bd9653f200f220920489ca2b5937696c31910160405180910390a3505050565b6001600160a01b0383163b1561061b57604051630a85bd0160e11b81526001600160a01b0384169063150b7a0290610fb9903390889087908790600401611bfa565b6020604051808303816000875af1925050508015610ff4575060408051601f3d908101601f19168201909252610ff191810190611c37565b60015b61105d573d808015611022576040519150601f19603f3d011682016040523d82523d6000602084013e611027565b606091505b50805160000361105557604051633250574960e11b81526001600160a01b03851660048201526024016105b7565b805181602001fd5b6001600160e01b03198116630a85bd0160e11b1461109957604051633250574960e11b81526001600160a01b03851660048201526024016105b7565b5050505050565b60606110ab82610cb0565b50600082815260066020526040812080546110c590611a4b565b80601f01602080910402602001604051908101604052809291908181526020018280546110f190611a4b565b801561113e5780601f106111135761010080835404028352916020019161113e565b820191906000526020600020905b81548152906001019060200180831161112157829003601f168201915b50505050509050600061115c60408051602081019091526000815290565b9050805160000361116e575092915050565b8151156111a0578082604051602001611188929190611c54565b60405160208183030381529060405292505050919050565b6111a984611382565b949350505050565b60006001600160e01b031982166380ac58cd60e01b14806111e257506001600160e01b03198216635b5e139f60e01b145b8061040657506301ffc9a760e01b6001600160e01b0319831614610406565b808061121557506001600160a01b03821615155b156112d757600061122584610cb0565b90506001600160a01b038316158015906112515750826001600160a01b0316816001600160a01b031614155b801561126457506112628184610a1d565b155b1561128d5760405163a9fbf51f60e01b81526001600160a01b03841660048201526024016105b7565b81156112d55783856001600160a01b0316826001600160a01b03167f8c5be1e5ebec7d5bd14f71427d1e84f3dd0314c0f7b2291e5b200ac8c7c3b92560405160405180910390a45b505b5050600090815260046020526040902080546001600160a01b0319166001600160a01b0392909216919091179055565b6113128383836113f7565b61063c576001600160a01b03831661134057604051637e27328960e01b8152600481018290526024016105b7565b60405163177e802f60e01b81526001600160a01b0383166004820152602481018290526044016105b7565b611375838361145a565b61063c6000848484610f77565b606061138d82610cb0565b5060006113a560408051602081019091526000815290565b905060008151116113c557604051806020016040528060008152506113f0565b806113cf846114bf565b6040516020016113e0929190611c54565b6040516020818303038152906040525b9392505050565b60006001600160a01b038316158015906111a95750826001600160a01b0316846001600160a01b0316148061143157506114318484610a1d565b806111a95750506000908152600460205260409020546001600160a01b03908116911614919050565b6001600160a01b03821661148457604051633250574960e11b8152600060048201526024016105b7565b600061149283836000610cf6565b90506001600160a01b0381161561063c576040516339e3563760e11b8152600060048201526024016105b7565b606060006114cc83611552565b600101905060008167ffffffffffffffff8111156114ec576114ec6117af565b6040519080825280601f01601f191660200182016040528015611516576020820181803683370190505b5090508181016020015b600019016f181899199a1a9b1b9c1cb0b131b232b360811b600a86061a8153600a850494508461152057509392505050565b60008072184f03e93ff9f4daa797ed6e38ed64bf6a1f0160401b83106115915772184f03e93ff9f4daa797ed6e38ed64bf6a1f0160401b830492506040015b6d04ee2d6d415b85acef810000000083106115bd576d04ee2d6d415b85acef8100000000830492506020015b662386f26fc1000083106115db57662386f26fc10000830492506010015b6305f5e10083106115f3576305f5e100830492506008015b612710831061160757612710830492506004015b60648310611619576064830492506002015b600a83106104065760010192915050565b6001600160e01b031981168114610c8857600080fd5b60006020828403121561165257600080fd5b81356113f08161162a565b80356001600160a01b038116811461167457600080fd5b919050565b60006020828403121561168b57600080fd5b6113f08261165d565b60005b838110156116af578181015183820152602001611697565b50506000910152565b600081518084526116d0816020860160208601611694565b601f01601f19169290920160200192915050565b6020815260006113f060208301846116b8565b60006020828403121561170957600080fd5b5035919050565b6000806040838503121561172357600080fd5b61172c8361165d565b946020939093013593505050565b85815284602082015260a06040820152600061175960a08301866116b8565b6060830194909452509015156080909101529392505050565b60008060006060848603121561178757600080fd5b6117908461165d565b925061179e6020850161165d565b929592945050506040919091013590565b634e487b7160e01b600052604160045260246000fd5b60008067ffffffffffffffff8411156117e0576117e06117af565b50604051601f19601f85018116603f0116810181811067ffffffffffffffff8211171561180f5761180f6117af565b60405283815290508082840185101561182757600080fd5b83836020830137600060208583010152509392505050565b60006020828403121561185157600080fd5b813567ffffffffffffffff81111561186857600080fd5b8201601f8101841361187957600080fd5b6111a9848235602084016117c5565b60008060006060848603121561189d57600080fd5b6118a68461165d565b9250602084013591506118bb6040850161165d565b90509250925092565b600080604083850312156118d757600080fd5b6118e08361165d565b9150602083013580151581146118f557600080fd5b809150509250929050565b6000806000806080858703121561191657600080fd5b61191f8561165d565b935061192d6020860161165d565b925060408501359150606085013567ffffffffffffffff81111561195057600080fd5b8501601f8101871361196157600080fd5b611970878235602084016117c5565b91505092959194509250565b6000806040838503121561198f57600080fd5b6119988361165d565b91506119a66020840161165d565b90509250929050565b6000602082016020835280845180835260408501915060408160051b86010192506020860160005b82811015611a3f57603f1987860301845281518051865260208101516020870152604081015160a06040880152611a1160a08801826116b8565b60608381015190890152608092830151151592909701919091525060209384019391909101906001016119d7565b50929695505050505050565b600181811c90821680611a5f57607f821691505b602082108103611a7f57634e487b7160e01b600052602260045260246000fd5b50919050565b634e487b7160e01b600052601160045260246000fd5b8082018082111561040657610406611a85565b601f82111561063c57806000526020600020601f840160051c81016020851015611ad55750805b601f840160051c820191505b818110156110995760008155600101611ae1565b815167ffffffffffffffff811115611b0f57611b0f6117af565b611b2381611b1d8454611a4b565b84611aae565b6020601f821160018114611b575760008315611b3f5750848201515b600019600385901b1c1916600184901b178455611099565b600084815260208120601f198516915b82811015611b875787850151825560209485019460019092019101611b67565b5084821015611ba55786840151600019600387901b60f8161c191681555b50505050600190811b01905550565b600060018201611bc657611bc6611a85565b5060010190565b634e487b7160e01b600052603260045260246000fd5b600081611bf257611bf2611a85565b506000190190565b6001600160a01b0385811682528416602082015260408101839052608060608201819052600090611c2d908301846116b8565b9695505050505050565b600060208284031215611c4957600080fd5b81516113f08161162a565b60008351611c66818460208801611694565b835190830190611c7a818360208801611694565b0194935050505056fea26469706673582212204652f29962e722fdf5a173a6f90335a94db26def1f729e2dde59b79e4b4c32a064736f6c634300081a0033",
					"opcodes": "PUSH1 0x80 PUSH1 0x40 MSTORE CALLVALUE DUP1 ISZERO PUSH2 0x10 JUMPI PUSH1 0x0 DUP1 REVERT JUMPDEST POP PUSH1 0x40 MLOAD PUSH2 0x1F6F CODESIZE SUB DUP1 PUSH2 0x1F6F DUP4 CODECOPY DUP2 ADD PUSH1 0x40 DUP2 SWAP1 MSTORE PUSH2 0x2F SWAP2 PUSH2 0x11A JUMP JUMPDEST DUP1 PUSH1 0x40 MLOAD DUP1 PUSH1 0x40 ADD PUSH1 0x40 MSTORE DUP1 PUSH1 0x5 DUP2 MSTORE PUSH1 0x20 ADD PUSH5 0x4C616E6473 PUSH1 0xD8 SHL DUP2 MSTORE POP PUSH1 0x40 MLOAD DUP1 PUSH1 0x40 ADD PUSH1 0x40 MSTORE DUP1 PUSH1 0x4 DUP2 MSTORE PUSH1 0x20 ADD PUSH4 0x13185B99 PUSH1 0xE2 SHL DUP2 MSTORE POP DUP2 PUSH1 0x0 SWAP1 DUP2 PUSH2 0x7A SWAP2 SWAP1 PUSH2 0x1E9 JUMP JUMPDEST POP PUSH1 0x1 PUSH2 0x87 DUP3 DUP3 PUSH2 0x1E9 JUMP JUMPDEST POP POP POP PUSH1 0x1 PUSH1 0x1 PUSH1 0xA0 SHL SUB DUP2 AND PUSH2 0xB8 JUMPI PUSH1 0x40 MLOAD PUSH4 0x1E4FBDF7 PUSH1 0xE0 SHL DUP2 MSTORE PUSH1 0x0 PUSH1 0x4 DUP3 ADD MSTORE PUSH1 0x24 ADD PUSH1 0x40 MLOAD DUP1 SWAP2 SUB SWAP1 REVERT JUMPDEST PUSH2 0xC1 DUP2 PUSH2 0xC8 JUMP JUMPDEST POP POP PUSH2 0x2A7 JUMP JUMPDEST PUSH1 0x7 DUP1 SLOAD PUSH1 0x1 PUSH1 0x1 PUSH1 0xA0 SHL SUB DUP4 DUP2 AND PUSH1 0x1 PUSH1 0x1 PUSH1 0xA0 SHL SUB NOT DUP4 AND DUP2 OR SWAP1 SWAP4 SSTORE PUSH1 0x40 MLOAD SWAP2 AND SWAP2 SWAP1 DUP3 SWAP1 PUSH32 0x8BE0079C531659141344CD1FD0A4F28419497F9722A3DAAFE3B4186F6B6457E0 SWAP1 PUSH1 0x0 SWAP1 LOG3 POP POP JUMP JUMPDEST PUSH1 0x0 PUSH1 0x20 DUP3 DUP5 SUB SLT ISZERO PUSH2 0x12C JUMPI PUSH1 0x0 DUP1 REVERT JUMPDEST DUP2 MLOAD PUSH1 0x1 PUSH1 0x1 PUSH1 0xA0 SHL SUB DUP2 AND DUP2 EQ PUSH2 0x143 JUMPI PUSH1 0x0 DUP1 REVERT JUMPDEST SWAP4 SWAP3 POP POP POP JUMP JUMPDEST PUSH4 0x4E487B71 PUSH1 0xE0 SHL PUSH1 0x0 MSTORE PUSH1 0x41 PUSH1 0x4 MSTORE PUSH1 0x24 PUSH1 0x0 REVERT JUMPDEST PUSH1 0x1 DUP2 DUP2 SHR SWAP1 DUP3 AND DUP1 PUSH2 0x174 JUMPI PUSH1 0x7F DUP3 AND SWAP2 POP JUMPDEST PUSH1 0x20 DUP3 LT DUP2 SUB PUSH2 0x194 JUMPI PUSH4 0x4E487B71 PUSH1 0xE0 SHL PUSH1 0x0 MSTORE PUSH1 0x22 PUSH1 0x4 MSTORE PUSH1 0x24 PUSH1 0x0 REVERT JUMPDEST POP SWAP2 SWAP1 POP JUMP JUMPDEST PUSH1 0x1F DUP3 GT ISZERO PUSH2 0x1E4 JUMPI DUP1 PUSH1 0x0 MSTORE PUSH1 0x20 PUSH1 0x0 KECCAK256 PUSH1 0x1F DUP5 ADD PUSH1 0x5 SHR DUP2 ADD PUSH1 0x20 DUP6 LT ISZERO PUSH2 0x1C1 JUMPI POP DUP1 JUMPDEST PUSH1 0x1F DUP5 ADD PUSH1 0x5 SHR DUP3 ADD SWAP2 POP JUMPDEST DUP2 DUP2 LT ISZERO PUSH2 0x1E1 JUMPI PUSH1 0x0 DUP2 SSTORE PUSH1 0x1 ADD PUSH2 0x1CD JUMP JUMPDEST POP POP JUMPDEST POP POP POP JUMP JUMPDEST DUP2 MLOAD PUSH1 0x1 PUSH1 0x1 PUSH1 0x40 SHL SUB DUP2 GT ISZERO PUSH2 0x202 JUMPI PUSH2 0x202 PUSH2 0x14A JUMP JUMPDEST PUSH2 0x216 DUP2 PUSH2 0x210 DUP5 SLOAD PUSH2 0x160 JUMP JUMPDEST DUP5 PUSH2 0x19A JUMP JUMPDEST PUSH1 0x20 PUSH1 0x1F DUP3 GT PUSH1 0x1 DUP2 EQ PUSH2 0x24A JUMPI PUSH1 0x0 DUP4 ISZERO PUSH2 0x232 JUMPI POP DUP5 DUP3 ADD MLOAD JUMPDEST PUSH1 0x0 NOT PUSH1 0x3 DUP6 SWAP1 SHL SHR NOT AND PUSH1 0x1 DUP5 SWAP1 SHL OR DUP5 SSTORE PUSH2 0x1E1 JUMP JUMPDEST PUSH1 0x0 DUP5 DUP2 MSTORE PUSH1 0x20 DUP2 KECCAK256 PUSH1 0x1F NOT DUP6 AND SWAP2 JUMPDEST DUP3 DUP2 LT ISZERO PUSH2 0x27A JUMPI DUP8 DUP6 ADD MLOAD DUP3 SSTORE PUSH1 0x20 SWAP5 DUP6 ADD SWAP5 PUSH1 0x1 SWAP1 SWAP3 ADD SWAP2 ADD PUSH2 0x25A JUMP JUMPDEST POP DUP5 DUP3 LT ISZERO PUSH2 0x298 JUMPI DUP7 DUP5 ADD MLOAD PUSH1 0x0 NOT PUSH1 0x3 DUP8 SWAP1 SHL PUSH1 0xF8 AND SHR NOT AND DUP2 SSTORE JUMPDEST POP POP POP POP PUSH1 0x1 SWAP1 DUP2 SHL ADD SWAP1 SSTORE POP JUMP JUMPDEST PUSH2 0x1CB9 DUP1 PUSH2 0x2B6 PUSH1 0x0 CODECOPY PUSH1 0x0 RETURN INVALID PUSH1 0x80 PUSH1 0x40 MSTORE CALLVALUE DUP1 ISZERO PUSH2 0x10 JUMPI PUSH1 0x0 DUP1 REVERT JUMPDEST POP PUSH1 0x4 CALLDATASIZE LT PUSH2 0x18E JUMPI PUSH1 0x0 CALLDATALOAD PUSH1 0xE0 SHR DUP1 PUSH4 0x8AD91345 GT PUSH2 0xDE JUMPI DUP1 PUSH4 0xB88D4FDE GT PUSH2 0x97 JUMPI DUP1 PUSH4 0xE985E9C5 GT PUSH2 0x71 JUMPI DUP1 PUSH4 0xE985E9C5 EQ PUSH2 0x38A JUMPI DUP1 PUSH4 0xF1537686 EQ PUSH2 0x39D JUMPI DUP1 PUSH4 0xF2FDE38B EQ PUSH2 0x3BD JUMPI DUP1 PUSH4 0xFBBFFCB0 EQ PUSH2 0x3D0 JUMPI PUSH1 0x0 DUP1 REVERT JUMPDEST DUP1 PUSH4 0xB88D4FDE EQ PUSH2 0x341 JUMPI DUP1 PUSH4 0xC87B56DD EQ PUSH2 0x354 JUMPI DUP1 PUSH4 0xD936547E EQ PUSH2 0x367 JUMPI PUSH1 0x0 DUP1 REVERT JUMPDEST DUP1 PUSH4 0x8AD91345 EQ PUSH2 0x2DC JUMPI DUP1 PUSH4 0x8DA5CB5B EQ PUSH2 0x2EF JUMPI DUP1 PUSH4 0x95D89B41 EQ PUSH2 0x300 JUMPI DUP1 PUSH4 0x9A590427 EQ PUSH2 0x308 JUMPI DUP1 PUSH4 0x9B19251A EQ PUSH2 0x31B JUMPI DUP1 PUSH4 0xA22CB465 EQ PUSH2 0x32E JUMPI PUSH1 0x0 DUP1 REVERT JUMPDEST DUP1 PUSH4 0x23B872DD GT PUSH2 0x14B JUMPI DUP1 PUSH4 0x695850FB GT PUSH2 0x125 JUMPI DUP1 PUSH4 0x695850FB EQ PUSH2 0x29B JUMPI DUP1 PUSH4 0x6E0CEE09 EQ PUSH2 0x2AE JUMPI DUP1 PUSH4 0x70A08231 EQ PUSH2 0x2C1 JUMPI DUP1 PUSH4 0x715018A6 EQ PUSH2 0x2D4 JUMPI PUSH1 0x0 DUP1 REVERT JUMPDEST DUP1 PUSH4 0x23B872DD EQ PUSH2 0x262 JUMPI DUP1 PUSH4 0x42842E0E EQ PUSH2 0x275 JUMPI DUP1 PUSH4 0x6352211E EQ PUSH2 0x288 JUMPI PUSH1 0x0 DUP1 REVERT JUMPDEST DUP1 PUSH4 0x1FFC9A7 EQ PUSH2 0x193 JUMPI DUP1 PUSH4 0x5D85EDA EQ PUSH2 0x1BB JUMPI DUP1 PUSH4 0x6FDDE03 EQ PUSH2 0x1E9 JUMPI DUP1 PUSH4 0x81812FC EQ PUSH2 0x1FE JUMPI DUP1 PUSH4 0x95EA7B3 EQ PUSH2 0x229 JUMPI DUP1 PUSH4 0x2295370A EQ PUSH2 0x23E JUMPI JUMPDEST PUSH1 0x0 DUP1 REVERT JUMPDEST PUSH2 0x1A6 PUSH2 0x1A1 CALLDATASIZE PUSH1 0x4 PUSH2 0x1640 JUMP JUMPDEST PUSH2 0x3FB JUMP JUMPDEST PUSH1 0x40 MLOAD SWAP1 ISZERO ISZERO DUP2 MSTORE PUSH1 0x20 ADD JUMPDEST PUSH1 0x40 MLOAD DUP1 SWAP2 SUB SWAP1 RETURN JUMPDEST PUSH2 0x1DB PUSH2 0x1C9 CALLDATASIZE PUSH1 0x4 PUSH2 0x1679 JUMP JUMPDEST PUSH1 0xA PUSH1 0x20 MSTORE PUSH1 0x0 SWAP1 DUP2 MSTORE PUSH1 0x40 SWAP1 KECCAK256 SLOAD DUP2 JUMP JUMPDEST PUSH1 0x40 MLOAD SWAP1 DUP2 MSTORE PUSH1 0x20 ADD PUSH2 0x1B2 JUMP JUMPDEST PUSH2 0x1F1 PUSH2 0x40C JUMP JUMPDEST PUSH1 0x40 MLOAD PUSH2 0x1B2 SWAP2 SWAP1 PUSH2 0x16E4 JUMP JUMPDEST PUSH2 0x211 PUSH2 0x20C CALLDATASIZE PUSH1 0x4 PUSH2 0x16F7 JUMP JUMPDEST PUSH2 0x49E JUMP JUMPDEST PUSH1 0x40 MLOAD PUSH1 0x1 PUSH1 0x1 PUSH1 0xA0 SHL SUB SWAP1 SWAP2 AND DUP2 MSTORE PUSH1 0x20 ADD PUSH2 0x1B2 JUMP JUMPDEST PUSH2 0x23C PUSH2 0x237 CALLDATASIZE PUSH1 0x4 PUSH2 0x1710 JUMP JUMPDEST PUSH2 0x4C7 JUMP JUMPDEST STOP JUMPDEST PUSH2 0x251 PUSH2 0x24C CALLDATASIZE PUSH1 0x4 PUSH2 0x16F7 JUMP JUMPDEST PUSH2 0x4D6 JUMP JUMPDEST PUSH1 0x40 MLOAD PUSH2 0x1B2 SWAP6 SWAP5 SWAP4 SWAP3 SWAP2 SWAP1 PUSH2 0x173A JUMP JUMPDEST PUSH2 0x23C PUSH2 0x270 CALLDATASIZE PUSH1 0x4 PUSH2 0x1772 JUMP JUMPDEST PUSH2 0x591 JUMP JUMPDEST PUSH2 0x23C PUSH2 0x283 CALLDATASIZE PUSH1 0x4 PUSH2 0x1772 JUMP JUMPDEST PUSH2 0x621 JUMP JUMPDEST PUSH2 0x211 PUSH2 0x296 CALLDATASIZE PUSH1 0x4 PUSH2 0x16F7 JUMP JUMPDEST PUSH2 0x641 JUMP JUMPDEST PUSH2 0x23C PUSH2 0x2A9 CALLDATASIZE PUSH1 0x4 PUSH2 0x183F JUMP JUMPDEST PUSH2 0x64C JUMP JUMPDEST PUSH2 0x23C PUSH2 0x2BC CALLDATASIZE PUSH1 0x4 PUSH2 0x1888 JUMP JUMPDEST PUSH2 0x7F1 JUMP JUMPDEST PUSH2 0x1DB PUSH2 0x2CF CALLDATASIZE PUSH1 0x4 PUSH2 0x1679 JUMP JUMPDEST PUSH2 0x925 JUMP JUMPDEST PUSH2 0x23C PUSH2 0x96D JUMP JUMPDEST PUSH2 0x1F1 PUSH2 0x2EA CALLDATASIZE PUSH1 0x4 PUSH2 0x16F7 JUMP JUMPDEST PUSH2 0x981 JUMP JUMPDEST PUSH1 0x7 SLOAD PUSH1 0x1 PUSH1 0x1 PUSH1 0xA0 SHL SUB AND PUSH2 0x211 JUMP JUMPDEST PUSH2 0x1F1 PUSH2 0x98C JUMP JUMPDEST PUSH2 0x23C PUSH2 0x316 CALLDATASIZE PUSH1 0x4 PUSH2 0x1679 JUMP JUMPDEST PUSH2 0x99B JUMP JUMPDEST PUSH2 0x23C PUSH2 0x329 CALLDATASIZE PUSH1 0x4 PUSH2 0x1679 JUMP JUMPDEST PUSH2 0x9C4 JUMP JUMPDEST PUSH2 0x23C PUSH2 0x33C CALLDATASIZE PUSH1 0x4 PUSH2 0x18C4 JUMP JUMPDEST PUSH2 0x9F0 JUMP JUMPDEST PUSH2 0x23C PUSH2 0x34F CALLDATASIZE PUSH1 0x4 PUSH2 0x1900 JUMP JUMPDEST PUSH2 0x9FB JUMP JUMPDEST PUSH2 0x1F1 PUSH2 0x362 CALLDATASIZE PUSH1 0x4 PUSH2 0x16F7 JUMP JUMPDEST PUSH2 0xA12 JUMP JUMPDEST PUSH2 0x1A6 PUSH2 0x375 CALLDATASIZE PUSH1 0x4 PUSH2 0x1679 JUMP JUMPDEST PUSH1 0xC PUSH1 0x20 MSTORE PUSH1 0x0 SWAP1 DUP2 MSTORE PUSH1 0x40 SWAP1 KECCAK256 SLOAD PUSH1 0xFF AND DUP2 JUMP JUMPDEST PUSH2 0x1A6 PUSH2 0x398 CALLDATASIZE PUSH1 0x4 PUSH2 0x197C JUMP JUMPDEST PUSH2 0xA1D JUMP JUMPDEST PUSH2 0x3B0 PUSH2 0x3AB CALLDATASIZE PUSH1 0x4 PUSH2 0x1679 JUMP JUMPDEST PUSH2 0xA4B JUMP JUMPDEST PUSH1 0x40 MLOAD PUSH2 0x1B2 SWAP2 SWAP1 PUSH2 0x19AF JUMP JUMPDEST PUSH2 0x23C PUSH2 0x3CB CALLDATASIZE PUSH1 0x4 PUSH2 0x1679 JUMP JUMPDEST PUSH2 0xC4D JUMP JUMPDEST PUSH2 0x1DB PUSH2 0x3DE CALLDATASIZE PUSH1 0x4 PUSH2 0x1710 JUMP JUMPDEST PUSH1 0x9 PUSH1 0x20 SWAP1 DUP2 MSTORE PUSH1 0x0 SWAP3 DUP4 MSTORE PUSH1 0x40 DUP1 DUP5 KECCAK256 SWAP1 SWAP2 MSTORE SWAP1 DUP3 MSTORE SWAP1 KECCAK256 SLOAD DUP2 JUMP JUMPDEST PUSH1 0x0 PUSH2 0x406 DUP3 PUSH2 0xC8B JUMP JUMPDEST SWAP3 SWAP2 POP POP JUMP JUMPDEST PUSH1 0x60 PUSH1 0x0 DUP1 SLOAD PUSH2 0x41B SWAP1 PUSH2 0x1A4B JUMP JUMPDEST DUP1 PUSH1 0x1F ADD PUSH1 0x20 DUP1 SWAP2 DIV MUL PUSH1 0x20 ADD PUSH1 0x40 MLOAD SWAP1 DUP2 ADD PUSH1 0x40 MSTORE DUP1 SWAP3 SWAP2 SWAP1 DUP2 DUP2 MSTORE PUSH1 0x20 ADD DUP3 DUP1 SLOAD PUSH2 0x447 SWAP1 PUSH2 0x1A4B JUMP JUMPDEST DUP1 ISZERO PUSH2 0x494 JUMPI DUP1 PUSH1 0x1F LT PUSH2 0x469 JUMPI PUSH2 0x100 DUP1 DUP4 SLOAD DIV MUL DUP4 MSTORE SWAP2 PUSH1 0x20 ADD SWAP2 PUSH2 0x494 JUMP JUMPDEST DUP3 ADD SWAP2 SWAP1 PUSH1 0x0 MSTORE PUSH1 0x20 PUSH1 0x0 KECCAK256 SWAP1 JUMPDEST DUP2 SLOAD DUP2 MSTORE SWAP1 PUSH1 0x1 ADD SWAP1 PUSH1 0x20 ADD DUP1 DUP4 GT PUSH2 0x477 JUMPI DUP3 SWAP1 SUB PUSH1 0x1F AND DUP3 ADD SWAP2 JUMPDEST POP POP POP POP POP SWAP1 POP SWAP1 JUMP JUMPDEST PUSH1 0x0 PUSH2 0x4A9 DUP3 PUSH2 0xCB0 JUMP JUMPDEST POP PUSH1 0x0 DUP3 DUP2 MSTORE PUSH1 0x4 PUSH1 0x20 MSTORE PUSH1 0x40 SWAP1 KECCAK256 SLOAD PUSH1 0x1 PUSH1 0x1 PUSH1 0xA0 SHL SUB AND PUSH2 0x406 JUMP JUMPDEST PUSH2 0x4D2 DUP3 DUP3 CALLER PUSH2 0xCE9 JUMP JUMPDEST POP POP JUMP JUMPDEST PUSH1 0xB PUSH1 0x20 MSTORE PUSH1 0x0 SWAP1 DUP2 MSTORE PUSH1 0x40 SWAP1 KECCAK256 DUP1 SLOAD PUSH1 0x1 DUP3 ADD SLOAD PUSH1 0x2 DUP4 ADD DUP1 SLOAD SWAP3 SWAP4 SWAP2 SWAP3 PUSH2 0x4FE SWAP1 PUSH2 0x1A4B JUMP JUMPDEST DUP1 PUSH1 0x1F ADD PUSH1 0x20 DUP1 SWAP2 DIV MUL PUSH1 0x20 ADD PUSH1 0x40 MLOAD SWAP1 DUP2 ADD PUSH1 0x40 MSTORE DUP1 SWAP3 SWAP2 SWAP1 DUP2 DUP2 MSTORE PUSH1 0x20 ADD DUP3 DUP1 SLOAD PUSH2 0x52A SWAP1 PUSH2 0x1A4B JUMP JUMPDEST DUP1 ISZERO PUSH2 0x577 JUMPI DUP1 PUSH1 0x1F LT PUSH2 0x54C JUMPI PUSH2 0x100 DUP1 DUP4 SLOAD DIV MUL DUP4 MSTORE SWAP2 PUSH1 0x20 ADD SWAP2 PUSH2 0x577 JUMP JUMPDEST DUP3 ADD SWAP2 SWAP1 PUSH1 0x0 MSTORE PUSH1 0x20 PUSH1 0x0 KECCAK256 SWAP1 JUMPDEST DUP2 SLOAD DUP2 MSTORE SWAP1 PUSH1 0x1 ADD SWAP1 PUSH1 0x20 ADD DUP1 DUP4 GT PUSH2 0x55A JUMPI DUP3 SWAP1 SUB PUSH1 0x1F AND DUP3 ADD SWAP2 JUMPDEST POP POP POP POP PUSH1 0x3 DUP4 ADD SLOAD PUSH1 0x4 SWAP1 SWAP4 ADD SLOAD SWAP2 SWAP3 SWAP2 PUSH1 0xFF AND SWAP1 POP DUP6 JUMP JUMPDEST PUSH1 0x1 PUSH1 0x1 PUSH1 0xA0 SHL SUB DUP3 AND PUSH2 0x5C0 JUMPI PUSH1 0x40 MLOAD PUSH4 0x32505749 PUSH1 0xE1 SHL DUP2 MSTORE PUSH1 0x0 PUSH1 0x4 DUP3 ADD MSTORE PUSH1 0x24 ADD JUMPDEST PUSH1 0x40 MLOAD DUP1 SWAP2 SUB SWAP1 REVERT JUMPDEST PUSH1 0x0 PUSH2 0x5CD DUP4 DUP4 CALLER PUSH2 0xCF6 JUMP JUMPDEST SWAP1 POP DUP4 PUSH1 0x1 PUSH1 0x1 PUSH1 0xA0 SHL SUB AND DUP2 PUSH1 0x1 PUSH1 0x1 PUSH1 0xA0 SHL SUB AND EQ PUSH2 0x61B JUMPI PUSH1 0x40 MLOAD PUSH4 0x64283D7B PUSH1 0xE0 SHL DUP2 MSTORE PUSH1 0x1 PUSH1 0x1 PUSH1 0xA0 SHL SUB DUP1 DUP7 AND PUSH1 0x4 DUP4 ADD MSTORE PUSH1 0x24 DUP3 ADD DUP5 SWAP1 MSTORE DUP3 AND PUSH1 0x44 DUP3 ADD MSTORE PUSH1 0x64 ADD PUSH2 0x5B7 JUMP JUMPDEST POP POP POP POP JUMP JUMPDEST PUSH2 0x63C DUP4 DUP4 DUP4 PUSH1 0x40 MLOAD DUP1 PUSH1 0x20 ADD PUSH1 0x40 MSTORE DUP1 PUSH1 0x0 DUP2 MSTORE POP PUSH2 0x9FB JUMP JUMPDEST POP POP POP JUMP JUMPDEST PUSH1 0x0 PUSH2 0x406 DUP3 PUSH2 0xCB0 JUMP JUMPDEST CALLER PUSH1 0x0 SWAP1 DUP2 MSTORE PUSH1 0xC PUSH1 0x20 MSTORE PUSH1 0x40 SWAP1 KECCAK256 SLOAD PUSH1 0xFF AND PUSH2 0x6BD JUMPI PUSH1 0x40 MLOAD PUSH3 0x461BCD PUSH1 0xE5 SHL DUP2 MSTORE PUSH1 0x20 PUSH1 0x4 DUP3 ADD MSTORE PUSH1 0x29 PUSH1 0x24 DUP3 ADD MSTORE PUSH32 0x596F7520617265206E6F7420617574686F72697A656420666F72206D696E7469 PUSH1 0x44 DUP3 ADD MSTORE PUSH9 0x6E67206C616E642121 PUSH1 0xB8 SHL PUSH1 0x64 DUP3 ADD MSTORE PUSH1 0x84 ADD PUSH2 0x5B7 JUMP JUMPDEST PUSH2 0x6CB PUSH1 0x8 DUP1 SLOAD PUSH1 0x1 ADD SWAP1 SSTORE JUMP JUMPDEST PUSH1 0x0 PUSH2 0x6D6 PUSH1 0x8 SLOAD SWAP1 JUMP JUMPDEST CALLER PUSH1 0x0 SWAP1 DUP2 MSTORE PUSH1 0x9 PUSH1 0x20 SWAP1 DUP2 MSTORE PUSH1 0x40 DUP1 DUP4 KECCAK256 PUSH1 0xA SWAP1 SWAP3 MSTORE DUP3 KECCAK256 SLOAD SWAP3 SWAP4 POP DUP4 SWAP3 SWAP1 SWAP2 SWAP1 PUSH2 0x703 SWAP1 PUSH1 0x1 PUSH2 0x1A9B JUMP JUMPDEST DUP2 MSTORE PUSH1 0x20 DUP1 DUP3 ADD SWAP3 SWAP1 SWAP3 MSTORE PUSH1 0x40 SWAP1 DUP2 ADD PUSH1 0x0 SWAP1 DUP2 KECCAK256 SWAP4 SWAP1 SWAP4 SSTORE DUP1 MLOAD PUSH1 0xA0 DUP2 ADD DUP3 MSTORE DUP5 DUP2 MSTORE CALLER DUP5 MSTORE PUSH1 0xA DUP4 MSTORE SWAP3 KECCAK256 SLOAD SWAP1 DUP3 ADD SWAP1 PUSH2 0x740 SWAP1 PUSH1 0x1 PUSH2 0x1A9B JUMP JUMPDEST DUP2 MSTORE PUSH1 0x20 ADD DUP4 DUP2 MSTORE PUSH1 0x20 ADD TIMESTAMP DUP2 MSTORE PUSH1 0x20 ADD PUSH1 0x1 ISZERO ISZERO DUP2 MSTORE POP PUSH1 0xB PUSH1 0x0 DUP4 DUP2 MSTORE PUSH1 0x20 ADD SWAP1 DUP2 MSTORE PUSH1 0x20 ADD PUSH1 0x0 KECCAK256 PUSH1 0x0 DUP3 ADD MLOAD DUP2 PUSH1 0x0 ADD SSTORE PUSH1 0x20 DUP3 ADD MLOAD DUP2 PUSH1 0x1 ADD SSTORE PUSH1 0x40 DUP3 ADD MLOAD DUP2 PUSH1 0x2 ADD SWAP1 DUP2 PUSH2 0x794 SWAP2 SWAP1 PUSH2 0x1AF5 JUMP JUMPDEST POP PUSH1 0x60 DUP3 ADD MLOAD PUSH1 0x3 DUP3 ADD SSTORE PUSH1 0x80 SWAP1 SWAP2 ADD MLOAD PUSH1 0x4 SWAP1 SWAP2 ADD DUP1 SLOAD PUSH1 0xFF NOT AND SWAP2 ISZERO ISZERO SWAP2 SWAP1 SWAP2 OR SWAP1 SSTORE PUSH2 0x7C3 CALLER DUP3 PUSH2 0xDEF JUMP JUMPDEST PUSH2 0x7CD DUP2 DUP4 PUSH2 0xE09 JUMP JUMPDEST CALLER PUSH1 0x0 SWAP1 DUP2 MSTORE PUSH1 0xA PUSH1 0x20 MSTORE PUSH1 0x40 DUP2 KECCAK256 DUP1 SLOAD SWAP2 PUSH2 0x7E8 DUP4 PUSH2 0x1BB4 JUMP JUMPDEST SWAP2 SWAP1 POP SSTORE POP POP POP JUMP JUMPDEST PUSH1 0x1 PUSH1 0x1 PUSH1 0xA0 SHL SUB DUP4 AND PUSH1 0x0 SWAP1 DUP2 MSTORE PUSH1 0x9 PUSH1 0x20 SWAP1 DUP2 MSTORE PUSH1 0x40 DUP1 DUP4 KECCAK256 PUSH1 0xA SWAP1 SWAP3 MSTORE DUP3 KECCAK256 SLOAD DUP5 SWAP3 SWAP1 PUSH2 0x822 SWAP1 PUSH1 0x1 PUSH2 0x1A9B JUMP JUMPDEST DUP2 MSTORE PUSH1 0x20 ADD SWAP1 DUP2 MSTORE PUSH1 0x20 ADD PUSH1 0x0 KECCAK256 DUP2 SWAP1 SSTORE POP PUSH1 0x0 PUSH2 0x83F DUP3 PUSH2 0xA4B JUMP JUMPDEST SWAP1 POP PUSH1 0x0 JUMPDEST DUP2 MLOAD DUP2 LT ISZERO PUSH2 0x8F5 JUMPI DUP4 DUP3 DUP3 DUP2 MLOAD DUP2 LT PUSH2 0x860 JUMPI PUSH2 0x860 PUSH2 0x1BCD JUMP JUMPDEST PUSH1 0x20 MUL PUSH1 0x20 ADD ADD MLOAD PUSH1 0x0 ADD MLOAD SUB PUSH2 0x8ED JUMPI PUSH1 0x1 PUSH1 0x1 PUSH1 0xA0 SHL SUB DUP4 AND PUSH1 0x0 DUP2 DUP2 MSTORE PUSH1 0x9 PUSH1 0x20 DUP2 DUP2 MSTORE PUSH1 0x40 DUP1 DUP5 KECCAK256 PUSH1 0xA DUP4 MSTORE DUP2 DUP6 KECCAK256 SLOAD DUP6 MSTORE DUP1 DUP4 MSTORE SWAP1 DUP5 KECCAK256 SLOAD SWAP5 DUP5 MSTORE SWAP2 SWAP1 MSTORE SWAP1 PUSH2 0x8AF DUP5 PUSH1 0x1 PUSH2 0x1A9B JUMP JUMPDEST DUP2 MSTORE PUSH1 0x20 DUP1 DUP3 ADD SWAP3 SWAP1 SWAP3 MSTORE PUSH1 0x40 SWAP1 DUP2 ADD PUSH1 0x0 SWAP1 DUP2 KECCAK256 SWAP4 SWAP1 SWAP4 SSTORE PUSH1 0x1 PUSH1 0x1 PUSH1 0xA0 SHL SUB DUP7 AND DUP4 MSTORE PUSH1 0xA SWAP1 SWAP2 MSTORE DUP2 KECCAK256 DUP1 SLOAD SWAP2 PUSH2 0x8E7 DUP4 PUSH2 0x1BE3 JUMP JUMPDEST SWAP2 SWAP1 POP SSTORE POP JUMPDEST PUSH1 0x1 ADD PUSH2 0x844 JUMP JUMPDEST POP PUSH1 0x1 PUSH1 0x1 PUSH1 0xA0 SHL SUB DUP5 AND PUSH1 0x0 SWAP1 DUP2 MSTORE PUSH1 0xA PUSH1 0x20 MSTORE PUSH1 0x40 DUP2 KECCAK256 DUP1 SLOAD SWAP2 PUSH2 0x91A DUP4 PUSH2 0x1BB4 JUMP JUMPDEST SWAP2 SWAP1 POP SSTORE POP POP POP POP POP JUMP JUMPDEST PUSH1 0x0 PUSH1 0x1 PUSH1 0x1 PUSH1 0xA0 SHL SUB DUP3 AND PUSH2 0x951 JUMPI PUSH1 0x40 MLOAD PUSH4 0x22718AD9 PUSH1 0xE2 SHL DUP2 MSTORE PUSH1 0x0 PUSH1 0x4 DUP3 ADD MSTORE PUSH1 0x24 ADD PUSH2 0x5B7 JUMP JUMPDEST POP PUSH1 0x1 PUSH1 0x1 PUSH1 0xA0 SHL SUB AND PUSH1 0x0 SWAP1 DUP2 MSTORE PUSH1 0x3 PUSH1 0x20 MSTORE PUSH1 0x40 SWAP1 KECCAK256 SLOAD SWAP1 JUMP JUMPDEST PUSH2 0x975 PUSH2 0xE59 JUMP JUMPDEST PUSH2 0x97F PUSH1 0x0 PUSH2 0xE86 JUMP JUMPDEST JUMP JUMPDEST PUSH1 0x60 PUSH2 0x406 DUP3 PUSH2 0xA12 JUMP JUMPDEST PUSH1 0x60 PUSH1 0x1 DUP1 SLOAD PUSH2 0x41B SWAP1 PUSH2 0x1A4B JUMP JUMPDEST PUSH2 0x9A3 PUSH2 0xE59 JUMP JUMPDEST PUSH1 0x1 PUSH1 0x1 PUSH1 0xA0 SHL SUB AND PUSH1 0x0 SWAP1 DUP2 MSTORE PUSH1 0xC PUSH1 0x20 MSTORE PUSH1 0x40 SWAP1 KECCAK256 DUP1 SLOAD PUSH1 0xFF NOT AND SWAP1 SSTORE JUMP JUMPDEST PUSH2 0x9CC PUSH2 0xE59 JUMP JUMPDEST PUSH1 0x1 PUSH1 0x1 PUSH1 0xA0 SHL SUB AND PUSH1 0x0 SWAP1 DUP2 MSTORE PUSH1 0xC PUSH1 0x20 MSTORE PUSH1 0x40 SWAP1 KECCAK256 DUP1 SLOAD PUSH1 0xFF NOT AND PUSH1 0x1 OR SWAP1 SSTORE JUMP JUMPDEST PUSH2 0x4D2 CALLER DUP4 DUP4 PUSH2 0xED8 JUMP JUMPDEST PUSH2 0xA06 DUP5 DUP5 DUP5 PUSH2 0x591 JUMP JUMPDEST PUSH2 0x61B DUP5 DUP5 DUP5 DUP5 PUSH2 0xF77 JUMP JUMPDEST PUSH1 0x60 PUSH2 0x406 DUP3 PUSH2 0x10A0 JUMP JUMPDEST PUSH1 0x1 PUSH1 0x1 PUSH1 0xA0 SHL SUB SWAP2 DUP3 AND PUSH1 0x0 SWAP1 DUP2 MSTORE PUSH1 0x5 PUSH1 0x20 SWAP1 DUP2 MSTORE PUSH1 0x40 DUP1 DUP4 KECCAK256 SWAP4 SWAP1 SWAP5 AND DUP3 MSTORE SWAP2 SWAP1 SWAP2 MSTORE KECCAK256 SLOAD PUSH1 0xFF AND SWAP1 JUMP JUMPDEST PUSH1 0x1 PUSH1 0x1 PUSH1 0xA0 SHL SUB DUP2 AND PUSH1 0x0 SWAP1 DUP2 MSTORE PUSH1 0xA PUSH1 0x20 MSTORE PUSH1 0x40 DUP2 KECCAK256 SLOAD PUSH1 0x60 SWAP2 SWAP1 PUSH8 0xFFFFFFFFFFFFFFFF DUP2 GT ISZERO PUSH2 0xA80 JUMPI PUSH2 0xA80 PUSH2 0x17AF JUMP JUMPDEST PUSH1 0x40 MLOAD SWAP1 DUP1 DUP3 MSTORE DUP1 PUSH1 0x20 MUL PUSH1 0x20 ADD DUP3 ADD PUSH1 0x40 MSTORE DUP1 ISZERO PUSH2 0xAE5 JUMPI DUP2 PUSH1 0x20 ADD JUMPDEST PUSH2 0xAD2 PUSH1 0x40 MLOAD DUP1 PUSH1 0xA0 ADD PUSH1 0x40 MSTORE DUP1 PUSH1 0x0 DUP2 MSTORE PUSH1 0x20 ADD PUSH1 0x0 DUP2 MSTORE PUSH1 0x20 ADD PUSH1 0x60 DUP2 MSTORE PUSH1 0x20 ADD PUSH1 0x0 DUP2 MSTORE PUSH1 0x20 ADD PUSH1 0x0 ISZERO ISZERO DUP2 MSTORE POP SWAP1 JUMP JUMPDEST DUP2 MSTORE PUSH1 0x20 ADD SWAP1 PUSH1 0x1 SWAP1 SUB SWAP1 DUP2 PUSH2 0xA9E JUMPI SWAP1 POP JUMPDEST POP SWAP1 POP PUSH1 0x0 JUMPDEST PUSH1 0x1 PUSH1 0x1 PUSH1 0xA0 SHL SUB DUP5 AND PUSH1 0x0 SWAP1 DUP2 MSTORE PUSH1 0xA PUSH1 0x20 MSTORE PUSH1 0x40 SWAP1 KECCAK256 SLOAD DUP2 LT ISZERO PUSH2 0xC46 JUMPI PUSH1 0x1 PUSH1 0x1 PUSH1 0xA0 SHL SUB DUP5 AND PUSH1 0x0 SWAP1 DUP2 MSTORE PUSH1 0x9 PUSH1 0x20 MSTORE PUSH1 0x40 DUP2 KECCAK256 DUP2 PUSH2 0xB2F DUP5 PUSH1 0x1 PUSH2 0x1A9B JUMP JUMPDEST DUP2 MSTORE PUSH1 0x20 ADD SWAP1 DUP2 MSTORE PUSH1 0x20 ADD PUSH1 0x0 KECCAK256 SLOAD SWAP1 POP PUSH1 0xB PUSH1 0x0 DUP3 DUP2 MSTORE PUSH1 0x20 ADD SWAP1 DUP2 MSTORE PUSH1 0x20 ADD PUSH1 0x0 KECCAK256 PUSH1 0x40 MLOAD DUP1 PUSH1 0xA0 ADD PUSH1 0x40 MSTORE SWAP1 DUP2 PUSH1 0x0 DUP3 ADD SLOAD DUP2 MSTORE PUSH1 0x20 ADD PUSH1 0x1 DUP3 ADD SLOAD DUP2 MSTORE PUSH1 0x20 ADD PUSH1 0x2 DUP3 ADD DUP1 SLOAD PUSH2 0xB82 SWAP1 PUSH2 0x1A4B JUMP JUMPDEST DUP1 PUSH1 0x1F ADD PUSH1 0x20 DUP1 SWAP2 DIV MUL PUSH1 0x20 ADD PUSH1 0x40 MLOAD SWAP1 DUP2 ADD PUSH1 0x40 MSTORE DUP1 SWAP3 SWAP2 SWAP1 DUP2 DUP2 MSTORE PUSH1 0x20 ADD DUP3 DUP1 SLOAD PUSH2 0xBAE SWAP1 PUSH2 0x1A4B JUMP JUMPDEST DUP1 ISZERO PUSH2 0xBFB JUMPI DUP1 PUSH1 0x1F LT PUSH2 0xBD0 JUMPI PUSH2 0x100 DUP1 DUP4 SLOAD DIV MUL DUP4 MSTORE SWAP2 PUSH1 0x20 ADD SWAP2 PUSH2 0xBFB JUMP JUMPDEST DUP3 ADD SWAP2 SWAP1 PUSH1 0x0 MSTORE PUSH1 0x20 PUSH1 0x0 KECCAK256 SWAP1 JUMPDEST DUP2 SLOAD DUP2 MSTORE SWAP1 PUSH1 0x1 ADD SWAP1 PUSH1 0x20 ADD DUP1 DUP4 GT PUSH2 0xBDE JUMPI DUP3 SWAP1 SUB PUSH1 0x1F AND DUP3 ADD SWAP2 JUMPDEST POP POP POP SWAP2 DUP4 MSTORE POP POP PUSH1 0x3 DUP3 ADD SLOAD PUSH1 0x20 DUP3 ADD MSTORE PUSH1 0x4 SWAP1 SWAP2 ADD SLOAD PUSH1 0xFF AND ISZERO ISZERO PUSH1 0x40 SWAP1 SWAP2 ADD MSTORE DUP4 MLOAD DUP5 SWAP1 DUP5 SWAP1 DUP2 LT PUSH2 0xC32 JUMPI PUSH2 0xC32 PUSH2 0x1BCD JUMP JUMPDEST PUSH1 0x20 SWAP1 DUP2 MUL SWAP2 SWAP1 SWAP2 ADD ADD MSTORE POP PUSH1 0x1 ADD PUSH2 0xAEB JUMP JUMPDEST POP SWAP3 SWAP2 POP POP JUMP JUMPDEST PUSH2 0xC55 PUSH2 0xE59 JUMP JUMPDEST PUSH1 0x1 PUSH1 0x1 PUSH1 0xA0 SHL SUB DUP2 AND PUSH2 0xC7F JUMPI PUSH1 0x40 MLOAD PUSH4 0x1E4FBDF7 PUSH1 0xE0 SHL DUP2 MSTORE PUSH1 0x0 PUSH1 0x4 DUP3 ADD MSTORE PUSH1 0x24 ADD PUSH2 0x5B7 JUMP JUMPDEST PUSH2 0xC88 DUP2 PUSH2 0xE86 JUMP JUMPDEST POP JUMP JUMPDEST PUSH1 0x0 PUSH1 0x1 PUSH1 0x1 PUSH1 0xE0 SHL SUB NOT DUP3 AND PUSH4 0x24832483 PUSH1 0xE1 SHL EQ DUP1 PUSH2 0x406 JUMPI POP PUSH2 0x406 DUP3 PUSH2 0x11B1 JUMP JUMPDEST PUSH1 0x0 DUP2 DUP2 MSTORE PUSH1 0x2 PUSH1 0x20 MSTORE PUSH1 0x40 DUP2 KECCAK256 SLOAD PUSH1 0x1 PUSH1 0x1 PUSH1 0xA0 SHL SUB AND DUP1 PUSH2 0x406 JUMPI PUSH1 0x40 MLOAD PUSH4 0x7E273289 PUSH1 0xE0 SHL DUP2 MSTORE PUSH1 0x4 DUP2 ADD DUP5 SWAP1 MSTORE PUSH1 0x24 ADD PUSH2 0x5B7 JUMP JUMPDEST PUSH2 0x63C DUP4 DUP4 DUP4 PUSH1 0x1 PUSH2 0x1201 JUMP JUMPDEST PUSH1 0x0 DUP3 DUP2 MSTORE PUSH1 0x2 PUSH1 0x20 MSTORE PUSH1 0x40 DUP2 KECCAK256 SLOAD PUSH1 0x1 PUSH1 0x1 PUSH1 0xA0 SHL SUB SWAP1 DUP2 AND SWAP1 DUP4 AND ISZERO PUSH2 0xD23 JUMPI PUSH2 0xD23 DUP2 DUP5 DUP7 PUSH2 0x1307 JUMP JUMPDEST PUSH1 0x1 PUSH1 0x1 PUSH1 0xA0 SHL SUB DUP2 AND ISZERO PUSH2 0xD61 JUMPI PUSH2 0xD40 PUSH1 0x0 DUP6 PUSH1 0x0 DUP1 PUSH2 0x1201 JUMP JUMPDEST PUSH1 0x1 PUSH1 0x1 PUSH1 0xA0 SHL SUB DUP2 AND PUSH1 0x0 SWAP1 DUP2 MSTORE PUSH1 0x3 PUSH1 0x20 MSTORE PUSH1 0x40 SWAP1 KECCAK256 DUP1 SLOAD PUSH1 0x0 NOT ADD SWAP1 SSTORE JUMPDEST PUSH1 0x1 PUSH1 0x1 PUSH1 0xA0 SHL SUB DUP6 AND ISZERO PUSH2 0xD90 JUMPI PUSH1 0x1 PUSH1 0x1 PUSH1 0xA0 SHL SUB DUP6 AND PUSH1 0x0 SWAP1 DUP2 MSTORE PUSH1 0x3 PUSH1 0x20 MSTORE PUSH1 0x40 SWAP1 KECCAK256 DUP1 SLOAD PUSH1 0x1 ADD SWAP1 SSTORE JUMPDEST PUSH1 0x0 DUP5 DUP2 MSTORE PUSH1 0x2 PUSH1 0x20 MSTORE PUSH1 0x40 DUP1 DUP3 KECCAK256 DUP1 SLOAD PUSH1 0x1 PUSH1 0x1 PUSH1 0xA0 SHL SUB NOT AND PUSH1 0x1 PUSH1 0x1 PUSH1 0xA0 SHL SUB DUP10 DUP2 AND SWAP2 DUP3 OR SWAP1 SWAP3 SSTORE SWAP2 MLOAD DUP8 SWAP4 SWAP2 DUP6 AND SWAP2 PUSH32 0xDDF252AD1BE2C89B69C2B068FC378DAA952BA7F163C4A11628F55A4DF523B3EF SWAP2 LOG4 SWAP5 SWAP4 POP POP POP POP JUMP JUMPDEST PUSH2 0x4D2 DUP3 DUP3 PUSH1 0x40 MLOAD DUP1 PUSH1 0x20 ADD PUSH1 0x40 MSTORE DUP1 PUSH1 0x0 DUP2 MSTORE POP PUSH2 0x136B JUMP JUMPDEST PUSH1 0x0 DUP3 DUP2 MSTORE PUSH1 0x6 PUSH1 0x20 MSTORE PUSH1 0x40 SWAP1 KECCAK256 PUSH2 0xE21 DUP3 DUP3 PUSH2 0x1AF5 JUMP JUMPDEST POP PUSH1 0x40 MLOAD DUP3 DUP2 MSTORE PUSH32 0xF8E1A15ABA9398E019F0B49DF1A4FDE98EE17AE345CB5F6B5E2C27F5033E8CE7 SWAP1 PUSH1 0x20 ADD PUSH1 0x40 MLOAD DUP1 SWAP2 SUB SWAP1 LOG1 POP POP JUMP JUMPDEST PUSH1 0x7 SLOAD PUSH1 0x1 PUSH1 0x1 PUSH1 0xA0 SHL SUB AND CALLER EQ PUSH2 0x97F JUMPI PUSH1 0x40 MLOAD PUSH4 0x118CDAA7 PUSH1 0xE0 SHL DUP2 MSTORE CALLER PUSH1 0x4 DUP3 ADD MSTORE PUSH1 0x24 ADD PUSH2 0x5B7 JUMP JUMPDEST PUSH1 0x7 DUP1 SLOAD PUSH1 0x1 PUSH1 0x1 PUSH1 0xA0 SHL SUB DUP4 DUP2 AND PUSH1 0x1 PUSH1 0x1 PUSH1 0xA0 SHL SUB NOT DUP4 AND DUP2 OR SWAP1 SWAP4 SSTORE PUSH1 0x40 MLOAD SWAP2 AND SWAP2 SWAP1 DUP3 SWAP1 PUSH32 0x8BE0079C531659141344CD1FD0A4F28419497F9722A3DAAFE3B4186F6B6457E0 SWAP1 PUSH1 0x0 SWAP1 LOG3 POP POP JUMP JUMPDEST PUSH1 0x1 PUSH1 0x1 PUSH1 0xA0 SHL SUB DUP3 AND PUSH2 0xF0A JUMPI PUSH1 0x40 MLOAD PUSH4 0xB611743 PUSH1 0xE3 SHL DUP2 MSTORE PUSH1 0x1 PUSH1 0x1 PUSH1 0xA0 SHL SUB DUP4 AND PUSH1 0x4 DUP3 ADD MSTORE PUSH1 0x24 ADD PUSH2 0x5B7 JUMP JUMPDEST PUSH1 0x1 PUSH1 0x1 PUSH1 0xA0 SHL SUB DUP4 DUP2 AND PUSH1 0x0 DUP2 DUP2 MSTORE PUSH1 0x5 PUSH1 0x20 SWAP1 DUP2 MSTORE PUSH1 0x40 DUP1 DUP4 KECCAK256 SWAP5 DUP8 AND DUP1 DUP5 MSTORE SWAP5 DUP3 MSTORE SWAP2 DUP3 SWAP1 KECCAK256 DUP1 SLOAD PUSH1 0xFF NOT AND DUP7 ISZERO ISZERO SWAP1 DUP2 OR SWAP1 SWAP2 SSTORE SWAP2 MLOAD SWAP2 DUP3 MSTORE PUSH32 0x17307EAB39AB6107E8899845AD3D59BD9653F200F220920489CA2B5937696C31 SWAP2 ADD PUSH1 0x40 MLOAD DUP1 SWAP2 SUB SWAP1 LOG3 POP POP POP JUMP JUMPDEST PUSH1 0x1 PUSH1 0x1 PUSH1 0xA0 SHL SUB DUP4 AND EXTCODESIZE ISZERO PUSH2 0x61B JUMPI PUSH1 0x40 MLOAD PUSH4 0xA85BD01 PUSH1 0xE1 SHL DUP2 MSTORE PUSH1 0x1 PUSH1 0x1 PUSH1 0xA0 SHL SUB DUP5 AND SWAP1 PUSH4 0x150B7A02 SWAP1 PUSH2 0xFB9 SWAP1 CALLER SWAP1 DUP9 SWAP1 DUP8 SWAP1 DUP8 SWAP1 PUSH1 0x4 ADD PUSH2 0x1BFA JUMP JUMPDEST PUSH1 0x20 PUSH1 0x40 MLOAD DUP1 DUP4 SUB DUP2 PUSH1 0x0 DUP8 GAS CALL SWAP3 POP POP POP DUP1 ISZERO PUSH2 0xFF4 JUMPI POP PUSH1 0x40 DUP1 MLOAD PUSH1 0x1F RETURNDATASIZE SWAP1 DUP2 ADD PUSH1 0x1F NOT AND DUP3 ADD SWAP1 SWAP3 MSTORE PUSH2 0xFF1 SWAP2 DUP2 ADD SWAP1 PUSH2 0x1C37 JUMP JUMPDEST PUSH1 0x1 JUMPDEST PUSH2 0x105D JUMPI RETURNDATASIZE DUP1 DUP1 ISZERO PUSH2 0x1022 JUMPI PUSH1 0x40 MLOAD SWAP2 POP PUSH1 0x1F NOT PUSH1 0x3F RETURNDATASIZE ADD AND DUP3 ADD PUSH1 0x40 MSTORE RETURNDATASIZE DUP3 MSTORE RETURNDATASIZE PUSH1 0x0 PUSH1 0x20 DUP5 ADD RETURNDATACOPY PUSH2 0x1027 JUMP JUMPDEST PUSH1 0x60 SWAP2 POP JUMPDEST POP DUP1 MLOAD PUSH1 0x0 SUB PUSH2 0x1055 JUMPI PUSH1 0x40 MLOAD PUSH4 0x32505749 PUSH1 0xE1 SHL DUP2 MSTORE PUSH1 0x1 PUSH1 0x1 PUSH1 0xA0 SHL SUB DUP6 AND PUSH1 0x4 DUP3 ADD MSTORE PUSH1 0x24 ADD PUSH2 0x5B7 JUMP JUMPDEST DUP1 MLOAD DUP2 PUSH1 0x20 ADD REVERT JUMPDEST PUSH1 0x1 PUSH1 0x1 PUSH1 0xE0 SHL SUB NOT DUP2 AND PUSH4 0xA85BD01 PUSH1 0xE1 SHL EQ PUSH2 0x1099 JUMPI PUSH1 0x40 MLOAD PUSH4 0x32505749 PUSH1 0xE1 SHL DUP2 MSTORE PUSH1 0x1 PUSH1 0x1 PUSH1 0xA0 SHL SUB DUP6 AND PUSH1 0x4 DUP3 ADD MSTORE PUSH1 0x24 ADD PUSH2 0x5B7 JUMP JUMPDEST POP POP POP POP POP JUMP JUMPDEST PUSH1 0x60 PUSH2 0x10AB DUP3 PUSH2 0xCB0 JUMP JUMPDEST POP PUSH1 0x0 DUP3 DUP2 MSTORE PUSH1 0x6 PUSH1 0x20 MSTORE PUSH1 0x40 DUP2 KECCAK256 DUP1 SLOAD PUSH2 0x10C5 SWAP1 PUSH2 0x1A4B JUMP JUMPDEST DUP1 PUSH1 0x1F ADD PUSH1 0x20 DUP1 SWAP2 DIV MUL PUSH1 0x20 ADD PUSH1 0x40 MLOAD SWAP1 DUP2 ADD PUSH1 0x40 MSTORE DUP1 SWAP3 SWAP2 SWAP1 DUP2 DUP2 MSTORE PUSH1 0x20 ADD DUP3 DUP1 SLOAD PUSH2 0x10F1 SWAP1 PUSH2 0x1A4B JUMP JUMPDEST DUP1 ISZERO PUSH2 0x113E JUMPI DUP1 PUSH1 0x1F LT PUSH2 0x1113 JUMPI PUSH2 0x100 DUP1 DUP4 SLOAD DIV MUL DUP4 MSTORE SWAP2 PUSH1 0x20 ADD SWAP2 PUSH2 0x113E JUMP JUMPDEST DUP3 ADD SWAP2 SWAP1 PUSH1 0x0 MSTORE PUSH1 0x20 PUSH1 0x0 KECCAK256 SWAP1 JUMPDEST DUP2 SLOAD DUP2 MSTORE SWAP1 PUSH1 0x1 ADD SWAP1 PUSH1 0x20 ADD DUP1 DUP4 GT PUSH2 0x1121 JUMPI DUP3 SWAP1 SUB PUSH1 0x1F AND DUP3 ADD SWAP2 JUMPDEST POP POP POP POP POP SWAP1 POP PUSH1 0x0 PUSH2 0x115C PUSH1 0x40 DUP1 MLOAD PUSH1 0x20 DUP2 ADD SWAP1 SWAP2 MSTORE PUSH1 0x0 DUP2 MSTORE SWAP1 JUMP JUMPDEST SWAP1 POP DUP1 MLOAD PUSH1 0x0 SUB PUSH2 0x116E JUMPI POP SWAP3 SWAP2 POP POP JUMP JUMPDEST DUP2 MLOAD ISZERO PUSH2 0x11A0 JUMPI DUP1 DUP3 PUSH1 0x40 MLOAD PUSH1 0x20 ADD PUSH2 0x1188 SWAP3 SWAP2 SWAP1 PUSH2 0x1C54 JUMP JUMPDEST PUSH1 0x40 MLOAD PUSH1 0x20 DUP2 DUP4 SUB SUB DUP2 MSTORE SWAP1 PUSH1 0x40 MSTORE SWAP3 POP POP POP SWAP2 SWAP1 POP JUMP JUMPDEST PUSH2 0x11A9 DUP5 PUSH2 0x1382 JUMP JUMPDEST SWAP5 SWAP4 POP POP POP POP JUMP JUMPDEST PUSH1 0x0 PUSH1 0x1 PUSH1 0x1 PUSH1 0xE0 SHL SUB NOT DUP3 AND PUSH4 0x80AC58CD PUSH1 0xE0 SHL EQ DUP1 PUSH2 0x11E2 JUMPI POP PUSH1 0x1 PUSH1 0x1 PUSH1 0xE0 SHL SUB NOT DUP3 AND PUSH4 0x5B5E139F PUSH1 0xE0 SHL EQ JUMPDEST DUP1 PUSH2 0x406 JUMPI POP PUSH4 0x1FFC9A7 PUSH1 0xE0 SHL PUSH1 0x1 PUSH1 0x1 PUSH1 0xE0 SHL SUB NOT DUP4 AND EQ PUSH2 0x406 JUMP JUMPDEST DUP1 DUP1 PUSH2 0x1215 JUMPI POP PUSH1 0x1 PUSH1 0x1 PUSH1 0xA0 SHL SUB DUP3 AND ISZERO ISZERO JUMPDEST ISZERO PUSH2 0x12D7 JUMPI PUSH1 0x0 PUSH2 0x1225 DUP5 PUSH2 0xCB0 JUMP JUMPDEST SWAP1 POP PUSH1 0x1 PUSH1 0x1 PUSH1 0xA0 SHL SUB DUP4 AND ISZERO DUP1 ISZERO SWAP1 PUSH2 0x1251 JUMPI POP DUP3 PUSH1 0x1 PUSH1 0x1 PUSH1 0xA0 SHL SUB AND DUP2 PUSH1 0x1 PUSH1 0x1 PUSH1 0xA0 SHL SUB AND EQ ISZERO JUMPDEST DUP1 ISZERO PUSH2 0x1264 JUMPI POP PUSH2 0x1262 DUP2 DUP5 PUSH2 0xA1D JUMP JUMPDEST ISZERO JUMPDEST ISZERO PUSH2 0x128D JUMPI PUSH1 0x40 MLOAD PUSH4 0xA9FBF51F PUSH1 0xE0 SHL DUP2 MSTORE PUSH1 0x1 PUSH1 0x1 PUSH1 0xA0 SHL SUB DUP5 AND PUSH1 0x4 DUP3 ADD MSTORE PUSH1 0x24 ADD PUSH2 0x5B7 JUMP JUMPDEST DUP2 ISZERO PUSH2 0x12D5 JUMPI DUP4 DUP6 PUSH1 0x1 PUSH1 0x1 PUSH1 0xA0 SHL SUB AND DUP3 PUSH1 0x1 PUSH1 0x1 PUSH1 0xA0 SHL SUB AND PUSH32 0x8C5BE1E5EBEC7D5BD14F71427D1E84F3DD0314C0F7B2291E5B200AC8C7C3B925 PUSH1 0x40 MLOAD PUSH1 0x40 MLOAD DUP1 SWAP2 SUB SWAP1 LOG4 JUMPDEST POP JUMPDEST POP POP PUSH1 0x0 SWAP1 DUP2 MSTORE PUSH1 0x4 PUSH1 0x20 MSTORE PUSH1 0x40 SWAP1 KECCAK256 DUP1 SLOAD PUSH1 0x1 PUSH1 0x1 PUSH1 0xA0 SHL SUB NOT AND PUSH1 0x1 PUSH1 0x1 PUSH1 0xA0 SHL SUB SWAP3 SWAP1 SWAP3 AND SWAP2 SWAP1 SWAP2 OR SWAP1 SSTORE JUMP JUMPDEST PUSH2 0x1312 DUP4 DUP4 DUP4 PUSH2 0x13F7 JUMP JUMPDEST PUSH2 0x63C JUMPI PUSH1 0x1 PUSH1 0x1 PUSH1 0xA0 SHL SUB DUP4 AND PUSH2 0x1340 JUMPI PUSH1 0x40 MLOAD PUSH4 0x7E273289 PUSH1 0xE0 SHL DUP2 MSTORE PUSH1 0x4 DUP2 ADD DUP3 SWAP1 MSTORE PUSH1 0x24 ADD PUSH2 0x5B7 JUMP JUMPDEST PUSH1 0x40 MLOAD PUSH4 0x177E802F PUSH1 0xE0 SHL DUP2 MSTORE PUSH1 0x1 PUSH1 0x1 PUSH1 0xA0 SHL SUB DUP4 AND PUSH1 0x4 DUP3 ADD MSTORE PUSH1 0x24 DUP2 ADD DUP3 SWAP1 MSTORE PUSH1 0x44 ADD PUSH2 0x5B7 JUMP JUMPDEST PUSH2 0x1375 DUP4 DUP4 PUSH2 0x145A JUMP JUMPDEST PUSH2 0x63C PUSH1 0x0 DUP5 DUP5 DUP5 PUSH2 0xF77 JUMP JUMPDEST PUSH1 0x60 PUSH2 0x138D DUP3 PUSH2 0xCB0 JUMP JUMPDEST POP PUSH1 0x0 PUSH2 0x13A5 PUSH1 0x40 DUP1 MLOAD PUSH1 0x20 DUP2 ADD SWAP1 SWAP2 MSTORE PUSH1 0x0 DUP2 MSTORE SWAP1 JUMP JUMPDEST SWAP1 POP PUSH1 0x0 DUP2 MLOAD GT PUSH2 0x13C5 JUMPI PUSH1 0x40 MLOAD DUP1 PUSH1 0x20 ADD PUSH1 0x40 MSTORE DUP1 PUSH1 0x0 DUP2 MSTORE POP PUSH2 0x13F0 JUMP JUMPDEST DUP1 PUSH2 0x13CF DUP5 PUSH2 0x14BF JUMP JUMPDEST PUSH1 0x40 MLOAD PUSH1 0x20 ADD PUSH2 0x13E0 SWAP3 SWAP2 SWAP1 PUSH2 0x1C54 JUMP JUMPDEST PUSH1 0x40 MLOAD PUSH1 0x20 DUP2 DUP4 SUB SUB DUP2 MSTORE SWAP1 PUSH1 0x40 MSTORE JUMPDEST SWAP4 SWAP3 POP POP POP JUMP JUMPDEST PUSH1 0x0 PUSH1 0x1 PUSH1 0x1 PUSH1 0xA0 SHL SUB DUP4 AND ISZERO DUP1 ISZERO SWAP1 PUSH2 0x11A9 JUMPI POP DUP3 PUSH1 0x1 PUSH1 0x1 PUSH1 0xA0 SHL SUB AND DUP5 PUSH1 0x1 PUSH1 0x1 PUSH1 0xA0 SHL SUB AND EQ DUP1 PUSH2 0x1431 JUMPI POP PUSH2 0x1431 DUP5 DUP5 PUSH2 0xA1D JUMP JUMPDEST DUP1 PUSH2 0x11A9 JUMPI POP POP PUSH1 0x0 SWAP1 DUP2 MSTORE PUSH1 0x4 PUSH1 0x20 MSTORE PUSH1 0x40 SWAP1 KECCAK256 SLOAD PUSH1 0x1 PUSH1 0x1 PUSH1 0xA0 SHL SUB SWAP1 DUP2 AND SWAP2 AND EQ SWAP2 SWAP1 POP JUMP JUMPDEST PUSH1 0x1 PUSH1 0x1 PUSH1 0xA0 SHL SUB DUP3 AND PUSH2 0x1484 JUMPI PUSH1 0x40 MLOAD PUSH4 0x32505749 PUSH1 0xE1 SHL DUP2 MSTORE PUSH1 0x0 PUSH1 0x4 DUP3 ADD MSTORE PUSH1 0x24 ADD PUSH2 0x5B7 JUMP JUMPDEST PUSH1 0x0 PUSH2 0x1492 DUP4 DUP4 PUSH1 0x0 PUSH2 0xCF6 JUMP JUMPDEST SWAP1 POP PUSH1 0x1 PUSH1 0x1 PUSH1 0xA0 SHL SUB DUP2 AND ISZERO PUSH2 0x63C JUMPI PUSH1 0x40 MLOAD PUSH4 0x39E35637 PUSH1 0xE1 SHL DUP2 MSTORE PUSH1 0x0 PUSH1 0x4 DUP3 ADD MSTORE PUSH1 0x24 ADD PUSH2 0x5B7 JUMP JUMPDEST PUSH1 0x60 PUSH1 0x0 PUSH2 0x14CC DUP4 PUSH2 0x1552 JUMP JUMPDEST PUSH1 0x1 ADD SWAP1 POP PUSH1 0x0 DUP2 PUSH8 0xFFFFFFFFFFFFFFFF DUP2 GT ISZERO PUSH2 0x14EC JUMPI PUSH2 0x14EC PUSH2 0x17AF JUMP JUMPDEST PUSH1 0x40 MLOAD SWAP1 DUP1 DUP3 MSTORE DUP1 PUSH1 0x1F ADD PUSH1 0x1F NOT AND PUSH1 0x20 ADD DUP3 ADD PUSH1 0x40 MSTORE DUP1 ISZERO PUSH2 0x1516 JUMPI PUSH1 0x20 DUP3 ADD DUP2 DUP1 CALLDATASIZE DUP4 CALLDATACOPY ADD SWAP1 POP JUMPDEST POP SWAP1 POP DUP2 DUP2 ADD PUSH1 0x20 ADD JUMPDEST PUSH1 0x0 NOT ADD PUSH16 0x181899199A1A9B1B9C1CB0B131B232B3 PUSH1 0x81 SHL PUSH1 0xA DUP7 MOD BYTE DUP2 MSTORE8 PUSH1 0xA DUP6 DIV SWAP5 POP DUP5 PUSH2 0x1520 JUMPI POP SWAP4 SWAP3 POP POP POP JUMP JUMPDEST PUSH1 0x0 DUP1 PUSH19 0x184F03E93FF9F4DAA797ED6E38ED64BF6A1F01 PUSH1 0x40 SHL DUP4 LT PUSH2 0x1591 JUMPI PUSH19 0x184F03E93FF9F4DAA797ED6E38ED64BF6A1F01 PUSH1 0x40 SHL DUP4 DIV SWAP3 POP PUSH1 0x40 ADD JUMPDEST PUSH14 0x4EE2D6D415B85ACEF8100000000 DUP4 LT PUSH2 0x15BD JUMPI PUSH14 0x4EE2D6D415B85ACEF8100000000 DUP4 DIV SWAP3 POP PUSH1 0x20 ADD JUMPDEST PUSH7 0x2386F26FC10000 DUP4 LT PUSH2 0x15DB JUMPI PUSH7 0x2386F26FC10000 DUP4 DIV SWAP3 POP PUSH1 0x10 ADD JUMPDEST PUSH4 0x5F5E100 DUP4 LT PUSH2 0x15F3 JUMPI PUSH4 0x5F5E100 DUP4 DIV SWAP3 POP PUSH1 0x8 ADD JUMPDEST PUSH2 0x2710 DUP4 LT PUSH2 0x1607 JUMPI PUSH2 0x2710 DUP4 DIV SWAP3 POP PUSH1 0x4 ADD JUMPDEST PUSH1 0x64 DUP4 LT PUSH2 0x1619 JUMPI PUSH1 0x64 DUP4 DIV SWAP3 POP PUSH1 0x2 ADD JUMPDEST PUSH1 0xA DUP4 LT PUSH2 0x406 JUMPI PUSH1 0x1 ADD SWAP3 SWAP2 POP POP JUMP JUMPDEST PUSH1 0x1 PUSH1 0x1 PUSH1 0xE0 SHL SUB NOT DUP2 AND DUP2 EQ PUSH2 0xC88 JUMPI PUSH1 0x0 DUP1 REVERT JUMPDEST PUSH1 0x0 PUSH1 0x20 DUP3 DUP5 SUB SLT ISZERO PUSH2 0x1652 JUMPI PUSH1 0x0 DUP1 REVERT JUMPDEST DUP2 CALLDATALOAD PUSH2 0x13F0 DUP2 PUSH2 0x162A JUMP JUMPDEST DUP1 CALLDATALOAD PUSH1 0x1 PUSH1 0x1 PUSH1 0xA0 SHL SUB DUP2 AND DUP2 EQ PUSH2 0x1674 JUMPI PUSH1 0x0 DUP1 REVERT JUMPDEST SWAP2 SWAP1 POP JUMP JUMPDEST PUSH1 0x0 PUSH1 0x20 DUP3 DUP5 SUB SLT ISZERO PUSH2 0x168B JUMPI PUSH1 0x0 DUP1 REVERT JUMPDEST PUSH2 0x13F0 DUP3 PUSH2 0x165D JUMP JUMPDEST PUSH1 0x0 JUMPDEST DUP4 DUP2 LT ISZERO PUSH2 0x16AF JUMPI DUP2 DUP2 ADD MLOAD DUP4 DUP3 ADD MSTORE PUSH1 0x20 ADD PUSH2 0x1697 JUMP JUMPDEST POP POP PUSH1 0x0 SWAP2 ADD MSTORE JUMP JUMPDEST PUSH1 0x0 DUP2 MLOAD DUP1 DUP5 MSTORE PUSH2 0x16D0 DUP2 PUSH1 0x20 DUP7 ADD PUSH1 0x20 DUP7 ADD PUSH2 0x1694 JUMP JUMPDEST PUSH1 0x1F ADD PUSH1 0x1F NOT AND SWAP3 SWAP1 SWAP3 ADD PUSH1 0x20 ADD SWAP3 SWAP2 POP POP JUMP JUMPDEST PUSH1 0x20 DUP2 MSTORE PUSH1 0x0 PUSH2 0x13F0 PUSH1 0x20 DUP4 ADD DUP5 PUSH2 0x16B8 JUMP JUMPDEST PUSH1 0x0 PUSH1 0x20 DUP3 DUP5 SUB SLT ISZERO PUSH2 0x1709 JUMPI PUSH1 0x0 DUP1 REVERT JUMPDEST POP CALLDATALOAD SWAP2 SWAP1 POP JUMP JUMPDEST PUSH1 0x0 DUP1 PUSH1 0x40 DUP4 DUP6 SUB SLT ISZERO PUSH2 0x1723 JUMPI PUSH1 0x0 DUP1 REVERT JUMPDEST PUSH2 0x172C DUP4 PUSH2 0x165D JUMP JUMPDEST SWAP5 PUSH1 0x20 SWAP4 SWAP1 SWAP4 ADD CALLDATALOAD SWAP4 POP POP POP JUMP JUMPDEST DUP6 DUP2 MSTORE DUP5 PUSH1 0x20 DUP3 ADD MSTORE PUSH1 0xA0 PUSH1 0x40 DUP3 ADD MSTORE PUSH1 0x0 PUSH2 0x1759 PUSH1 0xA0 DUP4 ADD DUP7 PUSH2 0x16B8 JUMP JUMPDEST PUSH1 0x60 DUP4 ADD SWAP5 SWAP1 SWAP5 MSTORE POP SWAP1 ISZERO ISZERO PUSH1 0x80 SWAP1 SWAP2 ADD MSTORE SWAP4 SWAP3 POP POP POP JUMP JUMPDEST PUSH1 0x0 DUP1 PUSH1 0x0 PUSH1 0x60 DUP5 DUP7 SUB SLT ISZERO PUSH2 0x1787 JUMPI PUSH1 0x0 DUP1 REVERT JUMPDEST PUSH2 0x1790 DUP5 PUSH2 0x165D JUMP JUMPDEST SWAP3 POP PUSH2 0x179E PUSH1 0x20 DUP6 ADD PUSH2 0x165D JUMP JUMPDEST SWAP3 SWAP6 SWAP3 SWAP5 POP POP POP PUSH1 0x40 SWAP2 SWAP1 SWAP2 ADD CALLDATALOAD SWAP1 JUMP JUMPDEST PUSH4 0x4E487B71 PUSH1 0xE0 SHL PUSH1 0x0 MSTORE PUSH1 0x41 PUSH1 0x4 MSTORE PUSH1 0x24 PUSH1 0x0 REVERT JUMPDEST PUSH1 0x0 DUP1 PUSH8 0xFFFFFFFFFFFFFFFF DUP5 GT ISZERO PUSH2 0x17E0 JUMPI PUSH2 0x17E0 PUSH2 0x17AF JUMP JUMPDEST POP PUSH1 0x40 MLOAD PUSH1 0x1F NOT PUSH1 0x1F DUP6 ADD DUP2 AND PUSH1 0x3F ADD AND DUP2 ADD DUP2 DUP2 LT PUSH8 0xFFFFFFFFFFFFFFFF DUP3 GT OR ISZERO PUSH2 0x180F JUMPI PUSH2 0x180F PUSH2 0x17AF JUMP JUMPDEST PUSH1 0x40 MSTORE DUP4 DUP2 MSTORE SWAP1 POP DUP1 DUP3 DUP5 ADD DUP6 LT ISZERO PUSH2 0x1827 JUMPI PUSH1 0x0 DUP1 REVERT JUMPDEST DUP4 DUP4 PUSH1 0x20 DUP4 ADD CALLDATACOPY PUSH1 0x0 PUSH1 0x20 DUP6 DUP4 ADD ADD MSTORE POP SWAP4 SWAP3 POP POP POP JUMP JUMPDEST PUSH1 0x0 PUSH1 0x20 DUP3 DUP5 SUB SLT ISZERO PUSH2 0x1851 JUMPI PUSH1 0x0 DUP1 REVERT JUMPDEST DUP2 CALLDATALOAD PUSH8 0xFFFFFFFFFFFFFFFF DUP2 GT ISZERO PUSH2 0x1868 JUMPI PUSH1 0x0 DUP1 REVERT JUMPDEST DUP3 ADD PUSH1 0x1F DUP2 ADD DUP5 SGT PUSH2 0x1879 JUMPI PUSH1 0x0 DUP1 REVERT JUMPDEST PUSH2 0x11A9 DUP5 DUP3 CALLDATALOAD PUSH1 0x20 DUP5 ADD PUSH2 0x17C5 JUMP JUMPDEST PUSH1 0x0 DUP1 PUSH1 0x0 PUSH1 0x60 DUP5 DUP7 SUB SLT ISZERO PUSH2 0x189D JUMPI PUSH1 0x0 DUP1 REVERT JUMPDEST PUSH2 0x18A6 DUP5 PUSH2 0x165D JUMP JUMPDEST SWAP3 POP PUSH1 0x20 DUP5 ADD CALLDATALOAD SWAP2 POP PUSH2 0x18BB PUSH1 0x40 DUP6 ADD PUSH2 0x165D JUMP JUMPDEST SWAP1 POP SWAP3 POP SWAP3 POP SWAP3 JUMP JUMPDEST PUSH1 0x0 DUP1 PUSH1 0x40 DUP4 DUP6 SUB SLT ISZERO PUSH2 0x18D7 JUMPI PUSH1 0x0 DUP1 REVERT JUMPDEST PUSH2 0x18E0 DUP4 PUSH2 0x165D JUMP JUMPDEST SWAP2 POP PUSH1 0x20 DUP4 ADD CALLDATALOAD DUP1 ISZERO ISZERO DUP2 EQ PUSH2 0x18F5 JUMPI PUSH1 0x0 DUP1 REVERT JUMPDEST DUP1 SWAP2 POP POP SWAP3 POP SWAP3 SWAP1 POP JUMP JUMPDEST PUSH1 0x0 DUP1 PUSH1 0x0 DUP1 PUSH1 0x80 DUP6 DUP8 SUB SLT ISZERO PUSH2 0x1916 JUMPI PUSH1 0x0 DUP1 REVERT JUMPDEST PUSH2 0x191F DUP6 PUSH2 0x165D JUMP JUMPDEST SWAP4 POP PUSH2 0x192D PUSH1 0x20 DUP7 ADD PUSH2 0x165D JUMP JUMPDEST SWAP3 POP PUSH1 0x40 DUP6 ADD CALLDATALOAD SWAP2 POP PUSH1 0x60 DUP6 ADD CALLDATALOAD PUSH8 0xFFFFFFFFFFFFFFFF DUP2 GT ISZERO PUSH2 0x1950 JUMPI PUSH1 0x0 DUP1 REVERT JUMPDEST DUP6 ADD PUSH1 0x1F DUP2 ADD DUP8 SGT PUSH2 0x1961 JUMPI PUSH1 0x0 DUP1 REVERT JUMPDEST PUSH2 0x1970 DUP8 DUP3 CALLDATALOAD PUSH1 0x20 DUP5 ADD PUSH2 0x17C5 JUMP JUMPDEST SWAP2 POP POP SWAP3 SWAP6 SWAP2 SWAP5 POP SWAP3 POP JUMP JUMPDEST PUSH1 0x0 DUP1 PUSH1 0x40 DUP4 DUP6 SUB SLT ISZERO PUSH2 0x198F JUMPI PUSH1 0x0 DUP1 REVERT JUMPDEST PUSH2 0x1998 DUP4 PUSH2 0x165D JUMP JUMPDEST SWAP2 POP PUSH2 0x19A6 PUSH1 0x20 DUP5 ADD PUSH2 0x165D JUMP JUMPDEST SWAP1 POP SWAP3 POP SWAP3 SWAP1 POP JUMP JUMPDEST PUSH1 0x0 PUSH1 0x20 DUP3 ADD PUSH1 0x20 DUP4 MSTORE DUP1 DUP5 MLOAD DUP1 DUP4 MSTORE PUSH1 0x40 DUP6 ADD SWAP2 POP PUSH1 0x40 DUP2 PUSH1 0x5 SHL DUP7 ADD ADD SWAP3 POP PUSH1 0x20 DUP7 ADD PUSH1 0x0 JUMPDEST DUP3 DUP2 LT ISZERO PUSH2 0x1A3F JUMPI PUSH1 0x3F NOT DUP8 DUP7 SUB ADD DUP5 MSTORE DUP2 MLOAD DUP1 MLOAD DUP7 MSTORE PUSH1 0x20 DUP2 ADD MLOAD PUSH1 0x20 DUP8 ADD MSTORE PUSH1 0x40 DUP2 ADD MLOAD PUSH1 0xA0 PUSH1 0x40 DUP9 ADD MSTORE PUSH2 0x1A11 PUSH1 0xA0 DUP9 ADD DUP3 PUSH2 0x16B8 JUMP JUMPDEST PUSH1 0x60 DUP4 DUP2 ADD MLOAD SWAP1 DUP10 ADD MSTORE PUSH1 0x80 SWAP3 DUP4 ADD MLOAD ISZERO ISZERO SWAP3 SWAP1 SWAP8 ADD SWAP2 SWAP1 SWAP2 MSTORE POP PUSH1 0x20 SWAP4 DUP5 ADD SWAP4 SWAP2 SWAP1 SWAP2 ADD SWAP1 PUSH1 0x1 ADD PUSH2 0x19D7 JUMP JUMPDEST POP SWAP3 SWAP7 SWAP6 POP POP POP POP POP POP JUMP JUMPDEST PUSH1 0x1 DUP2 DUP2 SHR SWAP1 DUP3 AND DUP1 PUSH2 0x1A5F JUMPI PUSH1 0x7F DUP3 AND SWAP2 POP JUMPDEST PUSH1 0x20 DUP3 LT DUP2 SUB PUSH2 0x1A7F JUMPI PUSH4 0x4E487B71 PUSH1 0xE0 SHL PUSH1 0x0 MSTORE PUSH1 0x22 PUSH1 0x4 MSTORE PUSH1 0x24 PUSH1 0x0 REVERT JUMPDEST POP SWAP2 SWAP1 POP JUMP JUMPDEST PUSH4 0x4E487B71 PUSH1 0xE0 SHL PUSH1 0x0 MSTORE PUSH1 0x11 PUSH1 0x4 MSTORE PUSH1 0x24 PUSH1 0x0 REVERT JUMPDEST DUP1 DUP3 ADD DUP1 DUP3 GT ISZERO PUSH2 0x406 JUMPI PUSH2 0x406 PUSH2 0x1A85 JUMP JUMPDEST PUSH1 0x1F DUP3 GT ISZERO PUSH2 0x63C JUMPI DUP1 PUSH1 0x0 MSTORE PUSH1 0x20 PUSH1 0x0 KECCAK256 PUSH1 0x1F DUP5 ADD PUSH1 0x5 SHR DUP2 ADD PUSH1 0x20 DUP6 LT ISZERO PUSH2 0x1AD5 JUMPI POP DUP1 JUMPDEST PUSH1 0x1F DUP5 ADD PUSH1 0x5 SHR DUP3 ADD SWAP2 POP JUMPDEST DUP2 DUP2 LT ISZERO PUSH2 0x1099 JUMPI PUSH1 0x0 DUP2 SSTORE PUSH1 0x1 ADD PUSH2 0x1AE1 JUMP JUMPDEST DUP2 MLOAD PUSH8 0xFFFFFFFFFFFFFFFF DUP2 GT ISZERO PUSH2 0x1B0F JUMPI PUSH2 0x1B0F PUSH2 0x17AF JUMP JUMPDEST PUSH2 0x1B23 DUP2 PUSH2 0x1B1D DUP5 SLOAD PUSH2 0x1A4B JUMP JUMPDEST DUP5 PUSH2 0x1AAE JUMP JUMPDEST PUSH1 0x20 PUSH1 0x1F DUP3 GT PUSH1 0x1 DUP2 EQ PUSH2 0x1B57 JUMPI PUSH1 0x0 DUP4 ISZERO PUSH2 0x1B3F JUMPI POP DUP5 DUP3 ADD MLOAD JUMPDEST PUSH1 0x0 NOT PUSH1 0x3 DUP6 SWAP1 SHL SHR NOT AND PUSH1 0x1 DUP5 SWAP1 SHL OR DUP5 SSTORE PUSH2 0x1099 JUMP JUMPDEST PUSH1 0x0 DUP5 DUP2 MSTORE PUSH1 0x20 DUP2 KECCAK256 PUSH1 0x1F NOT DUP6 AND SWAP2 JUMPDEST DUP3 DUP2 LT ISZERO PUSH2 0x1B87 JUMPI DUP8 DUP6 ADD MLOAD DUP3 SSTORE PUSH1 0x20 SWAP5 DUP6 ADD SWAP5 PUSH1 0x1 SWAP1 SWAP3 ADD SWAP2 ADD PUSH2 0x1B67 JUMP JUMPDEST POP DUP5 DUP3 LT ISZERO PUSH2 0x1BA5 JUMPI DUP7 DUP5 ADD MLOAD PUSH1 0x0 NOT PUSH1 0x3 DUP8 SWAP1 SHL PUSH1 0xF8 AND SHR NOT AND DUP2 SSTORE JUMPDEST POP POP POP POP PUSH1 0x1 SWAP1 DUP2 SHL ADD SWAP1 SSTORE POP JUMP JUMPDEST PUSH1 0x0 PUSH1 0x1 DUP3 ADD PUSH2 0x1BC6 JUMPI PUSH2 0x1BC6 PUSH2 0x1A85 JUMP JUMPDEST POP PUSH1 0x1 ADD SWAP1 JUMP JUMPDEST PUSH4 0x4E487B71 PUSH1 0xE0 SHL PUSH1 0x0 MSTORE PUSH1 0x32 PUSH1 0x4 MSTORE PUSH1 0x24 PUSH1 0x0 REVERT JUMPDEST PUSH1 0x0 DUP2 PUSH2 0x1BF2 JUMPI PUSH2 0x1BF2 PUSH2 0x1A85 JUMP JUMPDEST POP PUSH1 0x0 NOT ADD SWAP1 JUMP JUMPDEST PUSH1 0x1 PUSH1 0x1 PUSH1 0xA0 SHL SUB DUP6 DUP2 AND DUP3 MSTORE DUP5 AND PUSH1 0x20 DUP3 ADD MSTORE PUSH1 0x40 DUP2 ADD DUP4 SWAP1 MSTORE PUSH1 0x80 PUSH1 0x60 DUP3 ADD DUP2 SWAP1 MSTORE PUSH1 0x0 SWAP1 PUSH2 0x1C2D SWAP1 DUP4 ADD DUP5 PUSH2 0x16B8 JUMP JUMPDEST SWAP7 SWAP6 POP POP POP POP POP POP JUMP JUMPDEST PUSH1 0x0 PUSH1 0x20 DUP3 DUP5 SUB SLT ISZERO PUSH2 0x1C49 JUMPI PUSH1 0x0 DUP1 REVERT JUMPDEST DUP2 MLOAD PUSH2 0x13F0 DUP2 PUSH2 0x162A JUMP JUMPDEST PUSH1 0x0 DUP4 MLOAD PUSH2 0x1C66 DUP2 DUP5 PUSH1 0x20 DUP9 ADD PUSH2 0x1694 JUMP JUMPDEST DUP4 MLOAD SWAP1 DUP4 ADD SWAP1 PUSH2 0x1C7A DUP2 DUP4 PUSH1 0x20 DUP9 ADD PUSH2 0x1694 JUMP JUMPDEST ADD SWAP5 SWAP4 POP POP POP POP JUMP INVALID LOG2 PUSH5 0x6970667358 0x22 SLT KECCAK256 CHAINID MSTORE CALLCODE SWAP10 PUSH3 0xE722FD CREATE2 LOG1 PUSH20 0xA6F90335A94DB26DEF1F729E2DDE59B79E4B4C32 LOG0 PUSH5 0x736F6C6343 STOP ADDMOD BYTE STOP CALLER "
				},
				"gasEstimates": {
					"creation": {
						"codeDepositCost": "1470600",
						"executionCost": "infinite",
						"totalCost": "infinite"
					},
					"external": {
						"NftId(address,uint256)": "2722",
						"NftMinting(uint256)": "infinite",
						"approve(address,uint256)": "31559",
						"balanceOf(address)": "2678",
						"count(address)": "2565",
						"getApproved(uint256)": "infinite",
						"getTokenId(address)": "infinite",
						"getTokenUri(uint256)": "infinite",
						"isApprovedForAll(address,address)": "infinite",
						"name()": "infinite",
						"owner()": "2376",
						"ownerOf(uint256)": "infinite",
						"renounceOwnership()": "infinite",
						"safeMint(string)": "infinite",
						"safeTransferFrom(address,address,uint256)": "infinite",
						"safeTransferFrom(address,address,uint256,bytes)": "infinite",
						"setApprovalForAll(address,bool)": "26792",
						"supportsInterface(bytes4)": "infinite",
						"symbol()": "infinite",
						"tokenURI(uint256)": "infinite",
						"transferFrom(address,address,uint256)": "infinite",
						"transferOwnership(address)": "28424",
						"unwhitelist(address)": "26857",
						"updateTokenId(address,uint256,address)": "infinite",
						"whitelist(address)": "26885",
						"whitelisted(address)": "2609"
					}
				},
				"methodIdentifiers": {
					"NftId(address,uint256)": "fbbffcb0",
					"NftMinting(uint256)": "2295370a",
					"approve(address,uint256)": "095ea7b3",
					"balanceOf(address)": "70a08231",
					"count(address)": "05d85eda",
					"getApproved(uint256)": "081812fc",
					"getTokenId(address)": "f1537686",
					"getTokenUri(uint256)": "8ad91345",
					"isApprovedForAll(address,address)": "e985e9c5",
					"name()": "06fdde03",
					"owner()": "8da5cb5b",
					"ownerOf(uint256)": "6352211e",
					"renounceOwnership()": "715018a6",
					"safeMint(string)": "695850fb",
					"safeTransferFrom(address,address,uint256)": "42842e0e",
					"safeTransferFrom(address,address,uint256,bytes)": "b88d4fde",
					"setApprovalForAll(address,bool)": "a22cb465",
					"supportsInterface(bytes4)": "01ffc9a7",
					"symbol()": "95d89b41",
					"tokenURI(uint256)": "c87b56dd",
					"transferFrom(address,address,uint256)": "23b872dd",
					"transferOwnership(address)": "f2fde38b",
					"unwhitelist(address)": "9a590427",
					"updateTokenId(address,uint256,address)": "6e0cee09",
					"whitelist(address)": "9b19251a",
					"whitelisted(address)": "d936547e"
				}
			},
			"storageLayout": {
				"storage": [
					{
						"astId": 349,
						"contract": "contracts/Element of Soul/Land.sol:SuperVet",
						"label": "_name",
						"offset": 0,
						"slot": "0",
						"type": "t_string_storage"
					},
					{
						"astId": 351,
						"contract": "contracts/Element of Soul/Land.sol:SuperVet",
						"label": "_symbol",
						"offset": 0,
						"slot": "1",
						"type": "t_string_storage"
					},
					{
						"astId": 355,
						"contract": "contracts/Element of Soul/Land.sol:SuperVet",
						"label": "_owners",
						"offset": 0,
						"slot": "2",
						"type": "t_mapping(t_uint256,t_address)"
					},
					{
						"astId": 359,
						"contract": "contracts/Element of Soul/Land.sol:SuperVet",
						"label": "_balances",
						"offset": 0,
						"slot": "3",
						"type": "t_mapping(t_address,t_uint256)"
					},
					{
						"astId": 363,
						"contract": "contracts/Element of Soul/Land.sol:SuperVet",
						"label": "_tokenApprovals",
						"offset": 0,
						"slot": "4",
						"type": "t_mapping(t_uint256,t_address)"
					},
					{
						"astId": 369,
						"contract": "contracts/Element of Soul/Land.sol:SuperVet",
						"label": "_operatorApprovals",
						"offset": 0,
						"slot": "5",
						"type": "t_mapping(t_address,t_mapping(t_address,t_bool))"
					},
					{
						"astId": 1488,
						"contract": "contracts/Element of Soul/Land.sol:SuperVet",
						"label": "_tokenURIs",
						"offset": 0,
						"slot": "6",
						"type": "t_mapping(t_uint256,t_string_storage)"
					},
					{
						"astId": 8,
						"contract": "contracts/Element of Soul/Land.sol:SuperVet",
						"label": "_owner",
						"offset": 0,
						"slot": "7",
						"type": "t_address"
					},
					{
						"astId": 3187,
						"contract": "contracts/Element of Soul/Land.sol:SuperVet",
						"label": "_itemsId",
						"offset": 0,
						"slot": "8",
						"type": "t_struct(Counter)1650_storage"
					},
					{
						"astId": 3204,
						"contract": "contracts/Element of Soul/Land.sol:SuperVet",
						"label": "NftId",
						"offset": 0,
						"slot": "9",
						"type": "t_mapping(t_address,t_mapping(t_uint256,t_uint256))"
					},
					{
						"astId": 3208,
						"contract": "contracts/Element of Soul/Land.sol:SuperVet",
						"label": "count",
						"offset": 0,
						"slot": "10",
						"type": "t_mapping(t_address,t_uint256)"
					},
					{
						"astId": 3213,
						"contract": "contracts/Element of Soul/Land.sol:SuperVet",
						"label": "NftMinting",
						"offset": 0,
						"slot": "11",
						"type": "t_mapping(t_uint256,t_struct(NFT)3198_storage)"
					},
					{
						"astId": 3217,
						"contract": "contracts/Element of Soul/Land.sol:SuperVet",
						"label": "whitelisted",
						"offset": 0,
						"slot": "12",
						"type": "t_mapping(t_address,t_bool)"
					}
				],
				"types": {
					"t_address": {
						"encoding": "inplace",
						"label": "address",
						"numberOfBytes": "20"
					},
					"t_bool": {
						"encoding": "inplace",
						"label": "bool",
						"numberOfBytes": "1"
					},
					"t_mapping(t_address,t_bool)": {
						"encoding": "mapping",
						"key": "t_address",
						"label": "mapping(address => bool)",
						"numberOfBytes": "32",
						"value": "t_bool"
					},
					"t_mapping(t_address,t_mapping(t_address,t_bool))": {
						"encoding": "mapping",
						"key": "t_address",
						"label": "mapping(address => mapping(address => bool))",
						"numberOfBytes": "32",
						"value": "t_mapping(t_address,t_bool)"
					},
					"t_mapping(t_address,t_mapping(t_uint256,t_uint256))": {
						"encoding": "mapping",
						"key": "t_address",
						"label": "mapping(address => mapping(uint256 => uint256))",
						"numberOfBytes": "32",
						"value": "t_mapping(t_uint256,t_uint256)"
					},
					"t_mapping(t_address,t_uint256)": {
						"encoding": "mapping",
						"key": "t_address",
						"label": "mapping(address => uint256)",
						"numberOfBytes": "32",
						"value": "t_uint256"
					},
					"t_mapping(t_uint256,t_address)": {
						"encoding": "mapping",
						"key": "t_uint256",
						"label": "mapping(uint256 => address)",
						"numberOfBytes": "32",
						"value": "t_address"
					},
					"t_mapping(t_uint256,t_string_storage)": {
						"encoding": "mapping",
						"key": "t_uint256",
						"label": "mapping(uint256 => string)",
						"numberOfBytes": "32",
						"value": "t_string_storage"
					},
					"t_mapping(t_uint256,t_struct(NFT)3198_storage)": {
						"encoding": "mapping",
						"key": "t_uint256",
						"label": "mapping(uint256 => struct SuperVet.NFT)",
						"numberOfBytes": "32",
						"value": "t_struct(NFT)3198_storage"
					},
					"t_mapping(t_uint256,t_uint256)": {
						"encoding": "mapping",
						"key": "t_uint256",
						"label": "mapping(uint256 => uint256)",
						"numberOfBytes": "32",
						"value": "t_uint256"
					},
					"t_string_storage": {
						"encoding": "bytes",
						"label": "string",
						"numberOfBytes": "32"
					},
					"t_struct(Counter)1650_storage": {
						"encoding": "inplace",
						"label": "struct Counters.Counter",
						"members": [
							{
								"astId": 1649,
								"contract": "contracts/Element of Soul/Land.sol:SuperVet",
								"label": "_value",
								"offset": 0,
								"slot": "0",
								"type": "t_uint256"
							}
						],
						"numberOfBytes": "32"
					},
					"t_struct(NFT)3198_storage": {
						"encoding": "inplace",
						"label": "struct SuperVet.NFT",
						"members": [
							{
								"astId": 3189,
								"contract": "contracts/Element of Soul/Land.sol:SuperVet",
								"label": "tokenId",
								"offset": 0,
								"slot": "0",
								"type": "t_uint256"
							},
							{
								"astId": 3191,
								"contract": "contracts/Element of Soul/Land.sol:SuperVet",
								"label": "count",
								"offset": 0,
								"slot": "1",
								"type": "t_uint256"
							},
							{
								"astId": 3193,
								"contract": "contracts/Element of Soul/Land.sol:SuperVet",
								"label": "uri",
								"offset": 0,
								"slot": "2",
								"type": "t_string_storage"
							},
							{
								"astId": 3195,
								"contract": "contracts/Element of Soul/Land.sol:SuperVet",
								"label": "mintTime",
								"offset": 0,
								"slot": "3",
								"type": "t_uint256"
							},
							{
								"astId": 3197,
								"contract": "contracts/Element of Soul/Land.sol:SuperVet",
								"label": "minted",
								"offset": 0,
								"slot": "4",
								"type": "t_bool"
							}
						],
						"numberOfBytes": "160"
					},
					"t_uint256": {
						"encoding": "inplace",
						"label": "uint256",
						"numberOfBytes": "32"
					}
				}
			},
			"userdoc": {
				"kind": "user",
				"methods": {},
				"version": 1
			}
		}
	}
}