{
	"contracts/fatcat/marketplace.sol": {
		"NFTMarketplace": {
			"abi": [
				{
					"inputs": [
						{
							"internalType": "address",
							"name": "owner",
							"type": "address"
						}
					],
					"stateMutability": "nonpayable",
					"type": "constructor"
				},
				{
					"inputs": [
						{
							"internalType": "address",
							"name": "owner",
							"type": "address"
						}
					],
					"name": "OwnableInvalidOwner",
					"type": "error"
				},
				{
					"inputs": [
						{
							"internalType": "address",
							"name": "account",
							"type": "address"
						}
					],
					"name": "OwnableUnauthorizedAccount",
					"type": "error"
				},
				{
					"anonymous": false,
					"inputs": [
						{
							"indexed": false,
							"internalType": "address",
							"name": "ArtistAddress",
							"type": "address"
						},
						{
							"indexed": false,
							"internalType": "uint256",
							"name": "ArtistFee",
							"type": "uint256"
						}
					],
					"name": "Fee",
					"type": "event"
				},
				{
					"anonymous": false,
					"inputs": [
						{
							"indexed": true,
							"internalType": "uint256",
							"name": "itemId",
							"type": "uint256"
						},
						{
							"indexed": true,
							"internalType": "address",
							"name": "creator",
							"type": "address"
						},
						{
							"indexed": false,
							"internalType": "string",
							"name": "uri",
							"type": "string"
						},
						{
							"indexed": false,
							"internalType": "uint256",
							"name": "price",
							"type": "uint256"
						}
					],
					"name": "ItemCreated",
					"type": "event"
				},
				{
					"anonymous": false,
					"inputs": [
						{
							"indexed": true,
							"internalType": "uint256",
							"name": "itemId",
							"type": "uint256"
						},
						{
							"indexed": true,
							"internalType": "address",
							"name": "buyer",
							"type": "address"
						},
						{
							"indexed": false,
							"internalType": "uint256",
							"name": "price",
							"type": "uint256"
						}
					],
					"name": "ItemSold",
					"type": "event"
				},
				{
					"anonymous": false,
					"inputs": [
						{
							"indexed": false,
							"internalType": "uint256",
							"name": "tokenId",
							"type": "uint256"
						},
						{
							"indexed": false,
							"internalType": "address",
							"name": "seller",
							"type": "address"
						},
						{
							"indexed": false,
							"internalType": "address",
							"name": "owner",
							"type": "address"
						},
						{
							"indexed": false,
							"internalType": "uint256",
							"name": "price",
							"type": "uint256"
						}
					],
					"name": "NFTCancel",
					"type": "event"
				},
				{
					"anonymous": false,
					"inputs": [
						{
							"indexed": false,
							"internalType": "uint256",
							"name": "tokenId",
							"type": "uint256"
						},
						{
							"indexed": false,
							"internalType": "address",
							"name": "seller",
							"type": "address"
						},
						{
							"indexed": false,
							"internalType": "address",
							"name": "owner",
							"type": "address"
						},
						{
							"indexed": false,
							"internalType": "uint256",
							"name": "price",
							"type": "uint256"
						}
					],
					"name": "NFTListed",
					"type": "event"
				},
				{
					"anonymous": false,
					"inputs": [
						{
							"indexed": false,
							"internalType": "uint256",
							"name": "tokenId",
							"type": "uint256"
						},
						{
							"indexed": false,
							"internalType": "address",
							"name": "seller",
							"type": "address"
						},
						{
							"indexed": false,
							"internalType": "address",
							"name": "owner",
							"type": "address"
						},
						{
							"indexed": false,
							"internalType": "uint256",
							"name": "price",
							"type": "uint256"
						},
						{
							"indexed": false,
							"internalType": "uint256",
							"name": "SoldTime",
							"type": "uint256"
						}
					],
					"name": "NFTSold",
					"type": "event"
				},
				{
					"anonymous": false,
					"inputs": [
						{
							"indexed": true,
							"internalType": "address",
							"name": "previousOwner",
							"type": "address"
						},
						{
							"indexed": true,
							"internalType": "address",
							"name": "newOwner",
							"type": "address"
						}
					],
					"name": "OwnershipTransferred",
					"type": "event"
				},
				{
					"inputs": [
						{
							"internalType": "uint256",
							"name": "listIndex",
							"type": "uint256"
						},
						{
							"internalType": "enum NFTMarketplace.memberShip",
							"name": "choice",
							"type": "uint8"
						}
					],
					"name": "Buy",
					"outputs": [],
					"stateMutability": "payable",
					"type": "function"
				},
				{
					"inputs": [
						{
							"internalType": "uint256",
							"name": "listIndex",
							"type": "uint256"
						}
					],
					"name": "CancleListForSale",
					"outputs": [],
					"stateMutability": "nonpayable",
					"type": "function"
				},
				{
					"inputs": [
						{
							"internalType": "uint256",
							"name": "",
							"type": "uint256"
						}
					],
					"name": "Index",
					"outputs": [
						{
							"internalType": "address",
							"name": "contractAddress",
							"type": "address"
						},
						{
							"internalType": "uint256",
							"name": "TokenId",
							"type": "uint256"
						}
					],
					"stateMutability": "view",
					"type": "function"
				},
				{
					"inputs": [
						{
							"internalType": "uint256",
							"name": "",
							"type": "uint256"
						}
					],
					"name": "Sales",
					"outputs": [
						{
							"internalType": "uint256",
							"name": "",
							"type": "uint256"
						}
					],
					"stateMutability": "view",
					"type": "function"
				},
				{
					"inputs": [
						{
							"internalType": "uint256",
							"name": "",
							"type": "uint256"
						}
					],
					"name": "Volume",
					"outputs": [
						{
							"internalType": "uint256",
							"name": "_price",
							"type": "uint256"
						},
						{
							"internalType": "uint256",
							"name": "_time",
							"type": "uint256"
						}
					],
					"stateMutability": "view",
					"type": "function"
				},
				{
					"inputs": [
						{
							"internalType": "address",
							"name": "mintContractAddress",
							"type": "address"
						},
						{
							"internalType": "uint256",
							"name": "",
							"type": "uint256"
						}
					],
					"name": "_items",
					"outputs": [
						{
							"internalType": "uint256",
							"name": "tokenId",
							"type": "uint256"
						},
						{
							"internalType": "address",
							"name": "seller",
							"type": "address"
						},
						{
							"internalType": "address",
							"name": "owner",
							"type": "address"
						},
						{
							"internalType": "uint256",
							"name": "price",
							"type": "uint256"
						},
						{
							"internalType": "uint256",
							"name": "count",
							"type": "uint256"
						},
						{
							"internalType": "bool",
							"name": "listed",
							"type": "bool"
						},
						{
							"internalType": "address",
							"name": "artist",
							"type": "address"
						},
						{
							"internalType": "uint256",
							"name": "artistFeePerAge",
							"type": "uint256"
						},
						{
							"internalType": "uint256",
							"name": "sellerFeePerAge",
							"type": "uint256"
						},
						{
							"internalType": "uint256",
							"name": "buyerFeePerAge",
							"type": "uint256"
						}
					],
					"stateMutability": "view",
					"type": "function"
				},
				{
					"inputs": [
						{
							"internalType": "address",
							"name": "userAddrr",
							"type": "address"
						}
					],
					"name": "checkBalanceOf",
					"outputs": [
						{
							"internalType": "bool",
							"name": "isGoldMember",
							"type": "bool"
						},
						{
							"internalType": "bool",
							"name": "isSilverMember",
							"type": "bool"
						},
						{
							"internalType": "bool",
							"name": "isBronzeMember",
							"type": "bool"
						},
						{
							"internalType": "bool",
							"name": "isStandardMember",
							"type": "bool"
						}
					],
					"stateMutability": "view",
					"type": "function"
				},
				{
					"inputs": [
						{
							"internalType": "uint256",
							"name": "",
							"type": "uint256"
						}
					],
					"name": "commission",
					"outputs": [
						{
							"internalType": "uint256",
							"name": "totalCommission",
							"type": "uint256"
						},
						{
							"internalType": "uint256",
							"name": "timestamp",
							"type": "uint256"
						}
					],
					"stateMutability": "view",
					"type": "function"
				},
				{
					"inputs": [
						{
							"internalType": "uint256",
							"name": "listIndex",
							"type": "uint256"
						},
						{
							"internalType": "uint256",
							"name": "price",
							"type": "uint256"
						}
					],
					"name": "editList",
					"outputs": [],
					"stateMutability": "nonpayable",
					"type": "function"
				},
				{
					"inputs": [],
					"name": "getAllListedNfts",
					"outputs": [
						{
							"components": [
								{
									"components": [
										{
											"internalType": "uint256",
											"name": "tokenId",
											"type": "uint256"
										},
										{
											"internalType": "address",
											"name": "seller",
											"type": "address"
										},
										{
											"internalType": "address",
											"name": "owner",
											"type": "address"
										},
										{
											"internalType": "uint256",
											"name": "price",
											"type": "uint256"
										},
										{
											"internalType": "uint256",
											"name": "count",
											"type": "uint256"
										},
										{
											"internalType": "bool",
											"name": "listed",
											"type": "bool"
										},
										{
											"internalType": "address",
											"name": "artist",
											"type": "address"
										},
										{
											"internalType": "uint256",
											"name": "artistFeePerAge",
											"type": "uint256"
										},
										{
											"internalType": "uint256",
											"name": "sellerFeePerAge",
											"type": "uint256"
										},
										{
											"internalType": "uint256",
											"name": "buyerFeePerAge",
											"type": "uint256"
										}
									],
									"internalType": "struct NFTMarketplace.NFTlist",
									"name": "listedData",
									"type": "tuple"
								},
								{
									"internalType": "uint256",
									"name": "Index",
									"type": "uint256"
								},
								{
									"internalType": "string",
									"name": "uriData",
									"type": "string"
								}
							],
							"internalType": "struct NFTMarketplace.ListedNftTokenId[]",
							"name": "",
							"type": "tuple[]"
						}
					],
					"stateMutability": "view",
					"type": "function"
				},
				{
					"inputs": [
						{
							"internalType": "address",
							"name": "mintContract",
							"type": "address"
						},
						{
							"internalType": "uint256",
							"name": "_tokenId",
							"type": "uint256"
						},
						{
							"internalType": "string",
							"name": "uri",
							"type": "string"
						},
						{
							"internalType": "uint256",
							"name": "price",
							"type": "uint256"
						},
						{
							"internalType": "address",
							"name": "artist",
							"type": "address"
						}
					],
					"name": "listItem",
					"outputs": [],
					"stateMutability": "nonpayable",
					"type": "function"
				},
				{
					"inputs": [
						{
							"internalType": "enum NFTMarketplace.memberShip",
							"name": "",
							"type": "uint8"
						}
					],
					"name": "memberShipPer",
					"outputs": [
						{
							"internalType": "uint256",
							"name": "",
							"type": "uint256"
						}
					],
					"stateMutability": "view",
					"type": "function"
				},
				{
					"inputs": [],
					"name": "owner",
					"outputs": [
						{
							"internalType": "address",
							"name": "",
							"type": "address"
						}
					],
					"stateMutability": "view",
					"type": "function"
				},
				{
					"inputs": [],
					"name": "renounceOwnership",
					"outputs": [],
					"stateMutability": "nonpayable",
					"type": "function"
				},
				{
					"inputs": [
						{
							"internalType": "address",
							"name": "newOwner",
							"type": "address"
						}
					],
					"name": "transferOwnership",
					"outputs": [],
					"stateMutability": "nonpayable",
					"type": "function"
				}
			],
			"devdoc": {
				"errors": {
					"OwnableInvalidOwner(address)": [
						{
							"details": "The owner is not a valid owner account. (eg. `address(0)`)"
						}
					],
					"OwnableUnauthorizedAccount(address)": [
						{
							"details": "The caller account is not authorized to perform an operation."
						}
					]
				},
				"kind": "dev",
				"methods": {
					"owner()": {
						"details": "Returns the address of the current owner."
					},
					"renounceOwnership()": {
						"details": "Leaves the contract without owner. It will not be possible to call `onlyOwner` functions. Can only be called by the current owner. NOTE: Renouncing ownership will leave the contract without an owner, thereby disabling any functionality that is only available to the owner."
					},
					"transferOwnership(address)": {
						"details": "Transfers ownership of the contract to a new account (`newOwner`). Can only be called by the current owner."
					}
				},
				"version": 1
			},
			"evm": {
				"assembly": "    /* \"contracts/fatcat/marketplace.sol\":1155:10487  contract NFTMarketplace is Ownable {... */\n  mstore(0x40, 0x80)\n    /* \"contracts/fatcat/marketplace.sol\":1440:1499  address FatCats= 0x5F31f088c0d692FF133bd3b11b923F4E1bE99E9B */\n  0x08\n  dup1\n  sload\n  not(sub(shl(0xa0, 0x01), 0x01))\n  swap1\n  dup2\n  and\n    /* \"contracts/fatcat/marketplace.sol\":1457:1499  0x5F31f088c0d692FF133bd3b11b923F4E1bE99E9B */\n  0x5f31f088c0d692ff133bd3b11b923f4e1be99e9b\n    /* \"contracts/fatcat/marketplace.sol\":1440:1499  address FatCats= 0x5F31f088c0d692FF133bd3b11b923F4E1bE99E9B */\n  or\n  swap1\n  swap2\n  sstore\n    /* \"contracts/fatcat/marketplace.sol\":1505:1568  address FatLeopards= 0xE2CBAdc3250Dc901596E1cDFFA778fc313162247 */\n  0x09\n  dup1\n  sload\n  dup3\n  and\n    /* \"contracts/fatcat/marketplace.sol\":1526:1568  0xE2CBAdc3250Dc901596E1cDFFA778fc313162247 */\n  0xe2cbadc3250dc901596e1cdffa778fc313162247\n    /* \"contracts/fatcat/marketplace.sol\":1505:1568  address FatLeopards= 0xE2CBAdc3250Dc901596E1cDFFA778fc313162247 */\n  or\n  swap1\n  sstore\n    /* \"contracts/fatcat/marketplace.sol\":1574:1635  address FatTigers= 0x572dD734F1068C1EDa13E0b655BC227b31AD8f72 */\n  0x0a\n  dup1\n  sload\n  dup3\n  and\n    /* \"contracts/fatcat/marketplace.sol\":1593:1635  0x572dD734F1068C1EDa13E0b655BC227b31AD8f72 */\n  0x572dd734f1068c1eda13e0b655bc227b31ad8f72\n    /* \"contracts/fatcat/marketplace.sol\":1574:1635  address FatTigers= 0x572dD734F1068C1EDa13E0b655BC227b31AD8f72 */\n  or\n  swap1\n  sstore\n    /* \"contracts/fatcat/marketplace.sol\":1641:1703  address FatKittens= 0xE533f399513F8Ed44D7E12E458d532Fe7005CF4e */\n  0x0b\n  dup1\n  sload\n  swap1\n  swap2\n  and\n    /* \"contracts/fatcat/marketplace.sol\":1661:1703  0xE533f399513F8Ed44D7E12E458d532Fe7005CF4e */\n  0xe533f399513f8ed44d7e12e458d532fe7005cf4e\n    /* \"contracts/fatcat/marketplace.sol\":1641:1703  address FatKittens= 0xE533f399513F8Ed44D7E12E458d532Fe7005CF4e */\n  or\n  swap1\n  sstore\n    /* \"contracts/fatcat/marketplace.sol\":1714:1961  constructor(address owner) Ownable(msg.sender){... */\n  callvalue\n  dup1\n  iszero\n  tag_1\n  jumpi\n  0x00\n  dup1\n  revert\ntag_1:\n  pop\n  mload(0x40)\n  sub(codesize, bytecodeSize)\n  dup1\n  bytecodeSize\n  dup4\n  codecopy\n  dup2\n  add\n  0x40\n  dup2\n  swap1\n  mstore\n  tag_2\n  swap2\n  tag_3\n  jump\t// in\ntag_2:\n    /* \"contracts/fatcat/marketplace.sol\":1749:1759  msg.sender */\n  caller\n  dup1\n    /* \"@openzeppelin/contracts/access/Ownable.sol\":1269:1364  if (initialOwner == address(0)) {... */\n  tag_7\n  jumpi\n    /* \"@openzeppelin/contracts/access/Ownable.sol\":1322:1353  OwnableInvalidOwner(address(0)) */\n  mload(0x40)\n  shl(0xe0, 0x1e4fbdf7)\n  dup2\n  mstore\n    /* \"@openzeppelin/contracts/access/Ownable.sol\":1350:1351  0 */\n  0x00\n    /* \"@openzeppelin/contracts/access/Ownable.sol\":1322:1353  OwnableInvalidOwner(address(0)) */\n  0x04\n  dup3\n  add\n    /* \"#utility.yul\":455:506   */\n  mstore\n    /* \"#utility.yul\":428:446   */\n  0x24\n  add\n    /* \"@openzeppelin/contracts/access/Ownable.sol\":1322:1353  OwnableInvalidOwner(address(0)) */\n  mload(0x40)\n  dup1\n  swap2\n  sub\n  swap1\n  revert\n    /* \"@openzeppelin/contracts/access/Ownable.sol\":1269:1364  if (initialOwner == address(0)) {... */\ntag_7:\n    /* \"@openzeppelin/contracts/access/Ownable.sol\":1373:1405  _transferOwnership(initialOwner) */\n  tag_10\n    /* \"@openzeppelin/contracts/access/Ownable.sol\":1392:1404  initialOwner */\n  dup2\n    /* \"@openzeppelin/contracts/access/Ownable.sol\":1373:1391  _transferOwnership */\n  tag_11\n    /* \"@openzeppelin/contracts/access/Ownable.sol\":1373:1405  _transferOwnership(initialOwner) */\n  jump\t// in\ntag_10:\n  pop\n  pop\n    /* \"contracts/fatcat/marketplace.sol\":1766:1779  memberShipPer */\n  0x0c\n    /* \"contracts/fatcat/marketplace.sol\":1766:1796  memberShipPer[memberShip.Gold] */\n  0x20\n  mstore\n    /* \"contracts/fatcat/marketplace.sol\":1799:1800  0 */\n  0x00\n    /* \"contracts/fatcat/marketplace.sol\":1766:1796  memberShipPer[memberShip.Gold] */\n  0x13649b2456f1b42fef0f0040b3aaeabcd21a76a0f3f5defd4f583839455116e8\n    /* \"contracts/fatcat/marketplace.sol\":1766:1800  memberShipPer[memberShip.Gold] = 0 */\n  dup2\n  swap1\n  sstore\n    /* \"contracts/fatcat/marketplace.sol\":1841:1842  3 */\n  0x03\n    /* \"contracts/fatcat/marketplace.sol\":1806:1838  memberShipPer[memberShip.Silver] */\n  0xd421a5181c571bba3f01190c922c3b2a896fc1d84e86c9f17ac10e67ebef8b5c\n    /* \"contracts/fatcat/marketplace.sol\":1806:1842  memberShipPer[memberShip.Silver] = 3 */\n  dup2\n  swap1\n  sstore\n    /* \"contracts/fatcat/marketplace.sol\":1883:1884  4 */\n  0x04\n    /* \"contracts/fatcat/marketplace.sol\":1848:1880  memberShipPer[memberShip.Bronze] */\n  0x5d6016397a73f5e079297ac5a36fef17b4d9c3831618e63ab105738020ddd720\n    /* \"contracts/fatcat/marketplace.sol\":1848:1884  memberShipPer[memberShip.Bronze] = 4 */\n  sstore\n    /* \"contracts/fatcat/marketplace.sol\":1890:1924  memberShipPer[memberShip.Standard] */\n  swap1\n  mstore\n    /* \"contracts/fatcat/marketplace.sol\":1927:1928  5 */\n  0x05\n    /* \"contracts/fatcat/marketplace.sol\":1890:1924  memberShipPer[memberShip.Standard] */\n  0xc0da782485e77ae272268ae0a3ff44c1552ecb60b3743924de17a815e0a3cfd7\n    /* \"contracts/fatcat/marketplace.sol\":1890:1928  memberShipPer[memberShip.Standard] = 5 */\n  sstore\n    /* \"contracts/fatcat/marketplace.sol\":1155:10487  contract NFTMarketplace is Ownable {... */\n  jump(tag_32)\n    /* \"@openzeppelin/contracts/access/Ownable.sol\":2912:3099  function _transferOwnership(address newOwner) internal virtual {... */\ntag_11:\n    /* \"@openzeppelin/contracts/access/Ownable.sol\":2985:3001  address oldOwner */\n  0x00\n    /* \"@openzeppelin/contracts/access/Ownable.sol\":3004:3010  _owner */\n  dup1\n  sload\n  sub(shl(0xa0, 0x01), 0x01)\n    /* \"@openzeppelin/contracts/access/Ownable.sol\":3020:3037  _owner = newOwner */\n  dup4\n  dup2\n  and\n  not(sub(shl(0xa0, 0x01), 0x01))\n  dup4\n  and\n  dup2\n  or\n  dup5\n  sstore\n    /* \"@openzeppelin/contracts/access/Ownable.sol\":3052:3092  OwnershipTransferred(oldOwner, newOwner) */\n  mload(0x40)\n    /* \"@openzeppelin/contracts/access/Ownable.sol\":3004:3010  _owner */\n  swap2\n  swap1\n  swap3\n  and\n  swap3\n  dup4\n  swap2\n    /* \"@openzeppelin/contracts/access/Ownable.sol\":3052:3092  OwnershipTransferred(oldOwner, newOwner) */\n  0x8be0079c531659141344cd1fd0a4f28419497f9722a3daafe3b4186f6b6457e0\n  swap2\n    /* \"@openzeppelin/contracts/access/Ownable.sol\":2985:3001  address oldOwner */\n  swap1\n    /* \"@openzeppelin/contracts/access/Ownable.sol\":3052:3092  OwnershipTransferred(oldOwner, newOwner) */\n  log3\n    /* \"@openzeppelin/contracts/access/Ownable.sol\":2975:3099  {... */\n  pop\n    /* \"@openzeppelin/contracts/access/Ownable.sol\":2912:3099  function _transferOwnership(address newOwner) internal virtual {... */\n  pop\n  jump\t// out\n    /* \"#utility.yul\":14:304   */\ntag_3:\n    /* \"#utility.yul\":84:90   */\n  0x00\n    /* \"#utility.yul\":137:139   */\n  0x20\n    /* \"#utility.yul\":125:134   */\n  dup3\n    /* \"#utility.yul\":116:123   */\n  dup5\n    /* \"#utility.yul\":112:135   */\n  sub\n    /* \"#utility.yul\":108:140   */\n  slt\n    /* \"#utility.yul\":105:157   */\n  iszero\n  tag_34\n  jumpi\n    /* \"#utility.yul\":153:154   */\n  0x00\n    /* \"#utility.yul\":150:151   */\n  dup1\n    /* \"#utility.yul\":143:155   */\n  revert\n    /* \"#utility.yul\":105:157   */\ntag_34:\n    /* \"#utility.yul\":179:195   */\n  dup2\n  mload\n  sub(shl(0xa0, 0x01), 0x01)\n    /* \"#utility.yul\":224:255   */\n  dup2\n  and\n    /* \"#utility.yul\":214:256   */\n  dup2\n  eq\n    /* \"#utility.yul\":204:274   */\n  tag_35\n  jumpi\n    /* \"#utility.yul\":270:271   */\n  0x00\n    /* \"#utility.yul\":267:268   */\n  dup1\n    /* \"#utility.yul\":260:272   */\n  revert\n    /* \"#utility.yul\":204:274   */\ntag_35:\n    /* \"#utility.yul\":293:298   */\n  swap4\n    /* \"#utility.yul\":14:304   */\n  swap3\n  pop\n  pop\n  pop\n  jump\t// out\n    /* \"#utility.yul\":517:644   */\ntag_32:\n    /* \"contracts/fatcat/marketplace.sol\":1155:10487  contract NFTMarketplace is Ownable {... */\n  dataSize(sub_0)\n  dup1\n  dataOffset(sub_0)\n  0x00\n  codecopy\n  0x00\n  return\nstop\n\nsub_0: assembly {\n        /* \"contracts/fatcat/marketplace.sol\":1155:10487  contract NFTMarketplace is Ownable {... */\n      mstore(0x40, 0x80)\n      jumpi(tag_1, lt(calldatasize, 0x04))\n      shr(0xe0, calldataload(0x00))\n      dup1\n      0x7c7ce62d\n      gt\n      tag_17\n      jumpi\n      dup1\n      0x9f5e6fd9\n      gt\n      tag_18\n      jumpi\n      dup1\n      0x9f5e6fd9\n      eq\n      tag_13\n      jumpi\n      dup1\n      0xb50c0d20\n      eq\n      tag_14\n      jumpi\n      dup1\n      0xbc4bc9c8\n      eq\n      tag_15\n      jumpi\n      dup1\n      0xf2fde38b\n      eq\n      tag_16\n      jumpi\n      0x00\n      dup1\n      revert\n    tag_18:\n      dup1\n      0x7c7ce62d\n      eq\n      tag_9\n      jumpi\n      dup1\n      0x8da5cb5b\n      eq\n      tag_10\n      jumpi\n      dup1\n      0x93f31109\n      eq\n      tag_11\n      jumpi\n      dup1\n      0x95ce4a3b\n      eq\n      tag_12\n      jumpi\n      0x00\n      dup1\n      revert\n    tag_17:\n      dup1\n      0x6081a0dd\n      gt\n      tag_19\n      jumpi\n      dup1\n      0x6081a0dd\n      eq\n      tag_5\n      jumpi\n      dup1\n      0x62590604\n      eq\n      tag_6\n      jumpi\n      dup1\n      0x715018a6\n      eq\n      tag_7\n      jumpi\n      dup1\n      0x752cd654\n      eq\n      tag_8\n      jumpi\n      0x00\n      dup1\n      revert\n    tag_19:\n      dup1\n      0x03147f39\n      eq\n      tag_2\n      jumpi\n      dup1\n      0x1065cf73\n      eq\n      tag_3\n      jumpi\n      dup1\n      0x3529280b\n      eq\n      tag_4\n      jumpi\n    tag_1:\n      0x00\n      dup1\n      revert\n        /* \"contracts/fatcat/marketplace.sol\":7502:8425  function checkBalanceOf (address userAddrr) public view returns ( ... */\n    tag_2:\n      callvalue\n      dup1\n      iszero\n      tag_20\n      jumpi\n      0x00\n      dup1\n      revert\n    tag_20:\n      pop\n      tag_21\n      tag_22\n      calldatasize\n      0x04\n      tag_23\n      jump\t// in\n    tag_22:\n      tag_24\n      jump\t// in\n    tag_21:\n      0x40\n      dup1\n      mload\n        /* \"#utility.yul\":711:725   */\n      swap5\n      iszero\n        /* \"#utility.yul\":704:726   */\n      iszero\n        /* \"#utility.yul\":686:727   */\n      dup6\n      mstore\n        /* \"#utility.yul\":770:784   */\n      swap3\n      iszero\n        /* \"#utility.yul\":763:785   */\n      iszero\n        /* \"#utility.yul\":758:760   */\n      0x20\n        /* \"#utility.yul\":743:761   */\n      dup6\n      add\n        /* \"#utility.yul\":736:786   */\n      mstore\n        /* \"#utility.yul\":829:843   */\n      swap1\n      iszero\n        /* \"#utility.yul\":822:844   */\n      iszero\n        /* \"#utility.yul\":802:820   */\n      swap2\n      dup4\n      add\n        /* \"#utility.yul\":795:845   */\n      swap2\n      swap1\n      swap2\n      mstore\n        /* \"#utility.yul\":888:902   */\n      iszero\n        /* \"#utility.yul\":881:903   */\n      iszero\n        /* \"#utility.yul\":876:878   */\n      0x60\n        /* \"#utility.yul\":861:879   */\n      dup3\n      add\n        /* \"#utility.yul\":854:904   */\n      mstore\n        /* \"#utility.yul\":673:676   */\n      0x80\n        /* \"#utility.yul\":658:677   */\n      add\n        /* \"contracts/fatcat/marketplace.sol\":7502:8425  function checkBalanceOf (address userAddrr) public view returns ( ... */\n    tag_25:\n      mload(0x40)\n      dup1\n      swap2\n      sub\n      swap1\n      return\n        /* \"contracts/fatcat/marketplace.sol\":3127:3176  mapping(uint => commissionData) public commission */\n    tag_3:\n      callvalue\n      dup1\n      iszero\n      tag_27\n      jumpi\n      0x00\n      dup1\n      revert\n    tag_27:\n      pop\n      tag_28\n      tag_29\n      calldatasize\n      0x04\n      tag_30\n      jump\t// in\n    tag_29:\n      mstore(0x20, 0x10)\n      0x00\n      swap1\n      dup2\n      mstore\n      0x40\n      swap1\n      keccak256\n      dup1\n      sload\n      0x01\n      swap1\n      swap2\n      add\n      sload\n      dup3\n      jump\n    tag_28:\n      0x40\n      dup1\n      mload\n        /* \"#utility.yul\":1320:1345   */\n      swap3\n      dup4\n      mstore\n        /* \"#utility.yul\":1376:1378   */\n      0x20\n        /* \"#utility.yul\":1361:1379   */\n      dup4\n      add\n        /* \"#utility.yul\":1354:1388   */\n      swap2\n      swap1\n      swap2\n      mstore\n        /* \"#utility.yul\":1293:1311   */\n      add\n        /* \"contracts/fatcat/marketplace.sol\":3127:3176  mapping(uint => commissionData) public commission */\n      tag_25\n        /* \"#utility.yul\":1146:1394   */\n      jump\n        /* \"contracts/fatcat/marketplace.sol\":3182:3216  mapping(uint => uint) public Sales */\n    tag_4:\n      callvalue\n      dup1\n      iszero\n      tag_34\n      jumpi\n      0x00\n      dup1\n      revert\n    tag_34:\n      pop\n      tag_35\n      tag_36\n      calldatasize\n      0x04\n      tag_30\n      jump\t// in\n    tag_36:\n      mstore(0x20, 0x11)\n      0x00\n      swap1\n      dup2\n      mstore\n      0x40\n      swap1\n      keccak256\n      sload\n      dup2\n      jump\n    tag_35:\n      mload(0x40)\n        /* \"#utility.yul\":1545:1570   */\n      swap1\n      dup2\n      mstore\n        /* \"#utility.yul\":1533:1535   */\n      0x20\n        /* \"#utility.yul\":1518:1536   */\n      add\n        /* \"contracts/fatcat/marketplace.sol\":3182:3216  mapping(uint => uint) public Sales */\n      tag_25\n        /* \"#utility.yul\":1399:1576   */\n      jump\n        /* \"contracts/fatcat/marketplace.sol\":8432:8826  function editList(uint listIndex, uint price) public { ... */\n    tag_5:\n      callvalue\n      dup1\n      iszero\n      tag_40\n      jumpi\n      0x00\n      dup1\n      revert\n    tag_40:\n      pop\n      tag_41\n      tag_42\n      calldatasize\n      0x04\n      tag_43\n      jump\t// in\n    tag_42:\n      tag_44\n      jump\t// in\n    tag_41:\n      stop\n        /* \"contracts/fatcat/marketplace.sol\":4600:7496  function Buy(uint listIndex, memberShip choice) public payable { ... */\n    tag_6:\n      tag_41\n      tag_46\n      calldatasize\n      0x04\n      tag_47\n      jump\t// in\n    tag_46:\n      tag_48\n      jump\t// in\n        /* \"@openzeppelin/contracts/access/Ownable.sol\":2293:2394  function renounceOwnership() public virtual onlyOwner {... */\n    tag_7:\n      callvalue\n      dup1\n      iszero\n      tag_49\n      jumpi\n      0x00\n      dup1\n      revert\n    tag_49:\n      pop\n      tag_41\n      tag_51\n      jump\t// in\n        /* \"contracts/fatcat/marketplace.sol\":3079:3120  mapping(uint => VolumeData) public Volume */\n    tag_8:\n      callvalue\n      dup1\n      iszero\n      tag_52\n      jumpi\n      0x00\n      dup1\n      revert\n    tag_52:\n      pop\n      tag_28\n      tag_54\n      calldatasize\n      0x04\n      tag_30\n      jump\t// in\n    tag_54:\n      mstore(0x20, 0x0f)\n      0x00\n      swap1\n      dup2\n      mstore\n      0x40\n      swap1\n      keccak256\n      dup1\n      sload\n      0x01\n      swap1\n      swap2\n      add\n      sload\n      dup3\n      jump\n        /* \"contracts/fatcat/marketplace.sol\":3910:4593  function listItem( address mintContract , uint _tokenId, string memory uri, uint256 price, address artist) public {... */\n    tag_9:\n      callvalue\n      dup1\n      iszero\n      tag_57\n      jumpi\n      0x00\n      dup1\n      revert\n    tag_57:\n      pop\n      tag_41\n      tag_59\n      calldatasize\n      0x04\n      tag_60\n      jump\t// in\n    tag_59:\n      tag_61\n      jump\t// in\n        /* \"@openzeppelin/contracts/access/Ownable.sol\":1638:1723  function owner() public view virtual returns (address) {... */\n    tag_10:\n      callvalue\n      dup1\n      iszero\n      tag_62\n      jumpi\n      0x00\n      dup1\n      revert\n    tag_62:\n      pop\n        /* \"@openzeppelin/contracts/access/Ownable.sol\":1684:1691  address */\n      0x00\n        /* \"@openzeppelin/contracts/access/Ownable.sol\":1710:1716  _owner */\n      sload\n        /* \"@openzeppelin/contracts/access/Ownable.sol\":1638:1723  function owner() public view virtual returns (address) {... */\n      mload(0x40)\n      sub(shl(0xa0, 0x01), 0x01)\n        /* \"@openzeppelin/contracts/access/Ownable.sol\":1710:1716  _owner */\n      swap1\n      swap2\n      and\n        /* \"#utility.yul\":4361:4412   */\n      dup2\n      mstore\n        /* \"#utility.yul\":4349:4351   */\n      0x20\n        /* \"#utility.yul\":4334:4352   */\n      add\n        /* \"@openzeppelin/contracts/access/Ownable.sol\":1638:1723  function owner() public view virtual returns (address) {... */\n      tag_25\n        /* \"#utility.yul\":4215:4418   */\n      jump\n        /* \"contracts/fatcat/marketplace.sol\":2944:3025  mapping(address mintContractAddress=> mapping (uint256 => NFTlist)) public _items */\n    tag_11:\n      callvalue\n      dup1\n      iszero\n      tag_67\n      jumpi\n      0x00\n      dup1\n      revert\n    tag_67:\n      pop\n      tag_68\n      tag_69\n      calldatasize\n      0x04\n      tag_70\n      jump\t// in\n    tag_69:\n      0x0d\n      0x20\n      swap1\n      dup2\n      mstore\n      0x00\n      swap3\n      dup4\n      mstore\n      0x40\n      dup1\n      dup5\n      keccak256\n      swap1\n      swap2\n      mstore\n      swap1\n      dup3\n      mstore\n      swap1\n      keccak256\n      dup1\n      sload\n      0x01\n      dup3\n      add\n      sload\n      0x02\n      dup4\n      add\n      sload\n      0x03\n      dup5\n      add\n      sload\n      0x04\n      dup6\n      add\n      sload\n      0x05\n      dup7\n      add\n      sload\n      0x06\n      dup8\n      add\n      sload\n      0x07\n      dup9\n      add\n      sload\n      0x08\n      swap1\n      swap9\n      add\n      sload\n      swap7\n      swap8\n      sub(shl(0xa0, 0x01), 0x01)\n      swap7\n      dup8\n      and\n      swap8\n      swap6\n      dup8\n      and\n      swap7\n      swap5\n      swap6\n      swap4\n      swap5\n      0xff\n      dup5\n      and\n      swap5\n      0x0100\n      swap1\n      swap5\n      div\n      and\n      swap3\n      dup11\n      jump\n    tag_68:\n      0x40\n      dup1\n      mload\n        /* \"#utility.yul\":5121:5146   */\n      swap11\n      dup12\n      mstore\n      sub(shl(0xa0, 0x01), 0x01)\n        /* \"#utility.yul\":5182:5214   */\n      swap10\n      dup11\n      and\n        /* \"#utility.yul\":5177:5179   */\n      0x20\n        /* \"#utility.yul\":5162:5180   */\n      dup13\n      add\n        /* \"#utility.yul\":5155:5215   */\n      mstore\n        /* \"#utility.yul\":5251:5283   */\n      swap8\n      dup10\n      and\n        /* \"#utility.yul\":5231:5249   */\n      swap8\n      dup11\n      add\n        /* \"#utility.yul\":5224:5284   */\n      swap8\n      swap1\n      swap8\n      mstore\n        /* \"#utility.yul\":5315:5317   */\n      0x60\n        /* \"#utility.yul\":5300:5318   */\n      dup10\n      add\n        /* \"#utility.yul\":5293:5327   */\n      swap6\n      swap1\n      swap6\n      mstore\n        /* \"#utility.yul\":5358:5361   */\n      0x80\n        /* \"#utility.yul\":5343:5362   */\n      dup9\n      add\n        /* \"#utility.yul\":5336:5371   */\n      swap4\n      swap1\n      swap4\n      mstore\n        /* \"#utility.yul\":5415:5429   */\n      swap1\n      iszero\n        /* \"#utility.yul\":5408:5430   */\n      iszero\n        /* \"#utility.yul\":5202:5205   */\n      0xa0\n        /* \"#utility.yul\":5387:5406   */\n      dup8\n      add\n        /* \"#utility.yul\":5380:5431   */\n      mstore\n        /* \"#utility.yul\":5468:5500   */\n      swap1\n      swap4\n      and\n        /* \"#utility.yul\":5462:5465   */\n      0xc0\n        /* \"#utility.yul\":5447:5466   */\n      dup6\n      add\n        /* \"#utility.yul\":5440:5501   */\n      mstore\n        /* \"#utility.yul\":5532:5535   */\n      0xe0\n        /* \"#utility.yul\":5517:5536   */\n      dup5\n      add\n        /* \"#utility.yul\":5510:5545   */\n      swap3\n      swap1\n      swap3\n      mstore\n        /* \"#utility.yul\":5576:5579   */\n      0x0100\n        /* \"#utility.yul\":5561:5580   */\n      dup4\n      add\n        /* \"#utility.yul\":5554:5589   */\n      swap2\n      swap1\n      swap2\n      mstore\n        /* \"#utility.yul\":5620:5623   */\n      0x0120\n        /* \"#utility.yul\":5605:5624   */\n      dup3\n      add\n        /* \"#utility.yul\":5598:5633   */\n      mstore\n        /* \"#utility.yul\":5108:5111   */\n      0x0140\n        /* \"#utility.yul\":5093:5112   */\n      add\n        /* \"contracts/fatcat/marketplace.sol\":2944:3025  mapping(address mintContractAddress=> mapping (uint256 => NFTlist)) public _items */\n      tag_25\n        /* \"#utility.yul\":4728:5639   */\n      jump\n        /* \"contracts/fatcat/marketplace.sol\":9900:10484  function getAllListedNfts() public view returns (ListedNftTokenId[] memory) { ... */\n    tag_12:\n      callvalue\n      dup1\n      iszero\n      tag_74\n      jumpi\n      0x00\n      dup1\n      revert\n    tag_74:\n      pop\n      tag_75\n      tag_76\n      jump\t// in\n    tag_75:\n      mload(0x40)\n      tag_25\n      swap2\n      swap1\n      tag_78\n      jump\t// in\n        /* \"contracts/fatcat/marketplace.sol\":8832:9894  function CancleListForSale(uint listIndex) public { ... */\n    tag_13:\n      callvalue\n      dup1\n      iszero\n      tag_79\n      jumpi\n      0x00\n      dup1\n      revert\n    tag_79:\n      pop\n      tag_41\n      tag_81\n      calldatasize\n      0x04\n      tag_30\n      jump\t// in\n    tag_81:\n      tag_82\n      jump\t// in\n        /* \"contracts/fatcat/marketplace.sol\":2550:2599  mapping (memberShip => uint) public memberShipPer */\n    tag_14:\n      callvalue\n      dup1\n      iszero\n      tag_83\n      jumpi\n      0x00\n      dup1\n      revert\n    tag_83:\n      pop\n      tag_35\n      tag_85\n      calldatasize\n      0x04\n      tag_86\n      jump\t// in\n    tag_85:\n      mstore(0x20, 0x0c)\n      0x00\n      swap1\n      dup2\n      mstore\n      0x40\n      swap1\n      keccak256\n      sload\n      dup2\n      jump\n        /* \"contracts/fatcat/marketplace.sol\":3031:3073  mapping(uint => tokenAddress) public Index */\n    tag_15:\n      callvalue\n      dup1\n      iszero\n      tag_89\n      jumpi\n      0x00\n      dup1\n      revert\n    tag_89:\n      pop\n      tag_90\n      tag_91\n      calldatasize\n      0x04\n      tag_30\n      jump\t// in\n    tag_91:\n      mstore(0x20, 0x0e)\n      0x00\n      swap1\n      dup2\n      mstore\n      0x40\n      swap1\n      keccak256\n      dup1\n      sload\n      0x01\n      swap1\n      swap2\n      add\n      sload\n      sub(shl(0xa0, 0x01), 0x01)\n      swap1\n      swap2\n      and\n      swap1\n      dup3\n      jump\n    tag_90:\n      0x40\n      dup1\n      mload\n      sub(shl(0xa0, 0x01), 0x01)\n        /* \"#utility.yul\":8474:8506   */\n      swap1\n      swap4\n      and\n        /* \"#utility.yul\":8456:8507   */\n      dup4\n      mstore\n        /* \"#utility.yul\":8538:8540   */\n      0x20\n        /* \"#utility.yul\":8523:8541   */\n      dup4\n      add\n        /* \"#utility.yul\":8516:8550   */\n      swap2\n      swap1\n      swap2\n      mstore\n        /* \"#utility.yul\":8429:8447   */\n      add\n        /* \"contracts/fatcat/marketplace.sol\":3031:3073  mapping(uint => tokenAddress) public Index */\n      tag_25\n        /* \"#utility.yul\":8282:8556   */\n      jump\n        /* \"@openzeppelin/contracts/access/Ownable.sol\":2543:2758  function transferOwnership(address newOwner) public virtual onlyOwner {... */\n    tag_16:\n      callvalue\n      dup1\n      iszero\n      tag_95\n      jumpi\n      0x00\n      dup1\n      revert\n    tag_95:\n      pop\n      tag_41\n      tag_97\n      calldatasize\n      0x04\n      tag_23\n      jump\t// in\n    tag_97:\n      tag_98\n      jump\t// in\n        /* \"contracts/fatcat/marketplace.sol\":7502:8425  function checkBalanceOf (address userAddrr) public view returns ( ... */\n    tag_24:\n        /* \"contracts/fatcat/marketplace.sol\":7705:7712  FatCats */\n      sload(0x08)\n        /* \"contracts/fatcat/marketplace.sol\":7694:7734  GetBalance(FatCats).balanceOf(userAddrr) */\n      mload(0x40)\n      shl(0xe0, 0x70a08231)\n      dup2\n      mstore\n      sub(shl(0xa0, 0x01), 0x01)\n        /* \"#utility.yul\":4379:4411   */\n      dup4\n      dup2\n      and\n        /* \"contracts/fatcat/marketplace.sol\":7694:7734  GetBalance(FatCats).balanceOf(userAddrr) */\n      0x04\n      dup4\n      add\n        /* \"#utility.yul\":4361:4412   */\n      mstore\n        /* \"contracts/fatcat/marketplace.sol\":7573:7590  bool isGoldMember */\n      0x00\n      swap3\n      dup4\n      swap3\n      dup4\n      swap3\n      dup4\n      swap3\n      dup4\n      swap3\n        /* \"contracts/fatcat/marketplace.sol\":7705:7712  FatCats */\n      swap2\n      and\n      swap1\n        /* \"contracts/fatcat/marketplace.sol\":7694:7723  GetBalance(FatCats).balanceOf */\n      0x70a08231\n      swap1\n        /* \"#utility.yul\":4334:4352   */\n      0x24\n      add\n        /* \"contracts/fatcat/marketplace.sol\":7694:7734  GetBalance(FatCats).balanceOf(userAddrr) */\n      0x20\n      mload(0x40)\n      dup1\n      dup4\n      sub\n      dup2\n      dup7\n      gas\n      staticcall\n      iszero\n      dup1\n      iszero\n      tag_102\n      jumpi\n      returndatasize\n      0x00\n      dup1\n      returndatacopy\n      revert(0x00, returndatasize)\n    tag_102:\n      pop\n      pop\n      pop\n      pop\n      mload(0x40)\n      returndatasize\n      not(0x1f)\n      0x1f\n      dup3\n      add\n      and\n      dup3\n      add\n      dup1\n      0x40\n      mstore\n      pop\n      dup2\n      add\n      swap1\n      tag_103\n      swap2\n      swap1\n      tag_104\n      jump\t// in\n    tag_103:\n        /* \"contracts/fatcat/marketplace.sol\":7773:7784  FatLeopards */\n      sload(0x09)\n        /* \"contracts/fatcat/marketplace.sol\":7762:7806  GetBalance(FatLeopards).balanceOf(userAddrr) */\n      mload(0x40)\n      shl(0xe0, 0x70a08231)\n      dup2\n      mstore\n      sub(shl(0xa0, 0x01), 0x01)\n        /* \"#utility.yul\":4379:4411   */\n      dup10\n      dup2\n      and\n        /* \"contracts/fatcat/marketplace.sol\":7762:7806  GetBalance(FatLeopards).balanceOf(userAddrr) */\n      0x04\n      dup4\n      add\n        /* \"#utility.yul\":4361:4412   */\n      mstore\n        /* \"contracts/fatcat/marketplace.sol\":7676:7734  uint tokenIdOne = GetBalance(FatCats).balanceOf(userAddrr) */\n      swap3\n      swap4\n      pop\n        /* \"contracts/fatcat/marketplace.sol\":7744:7759  uint tokenIdTwo */\n      0x00\n      swap3\n        /* \"contracts/fatcat/marketplace.sol\":7773:7784  FatLeopards */\n      swap1\n      swap2\n      and\n      swap1\n        /* \"contracts/fatcat/marketplace.sol\":7762:7795  GetBalance(FatLeopards).balanceOf */\n      0x70a08231\n      swap1\n        /* \"#utility.yul\":4334:4352   */\n      0x24\n      add\n        /* \"contracts/fatcat/marketplace.sol\":7762:7806  GetBalance(FatLeopards).balanceOf(userAddrr) */\n      0x20\n      mload(0x40)\n      dup1\n      dup4\n      sub\n      dup2\n      dup7\n      gas\n      staticcall\n      iszero\n      dup1\n      iszero\n      tag_107\n      jumpi\n      returndatasize\n      0x00\n      dup1\n      returndatacopy\n      revert(0x00, returndatasize)\n    tag_107:\n      pop\n      pop\n      pop\n      pop\n      mload(0x40)\n      returndatasize\n      not(0x1f)\n      0x1f\n      dup3\n      add\n      and\n      dup3\n      add\n      dup1\n      0x40\n      mstore\n      pop\n      dup2\n      add\n      swap1\n      tag_108\n      swap2\n      swap1\n      tag_104\n      jump\t// in\n    tag_108:\n        /* \"contracts/fatcat/marketplace.sol\":7847:7856  FatTigers */\n      sload(0x0a)\n        /* \"contracts/fatcat/marketplace.sol\":7836:7878  GetBalance(FatTigers).balanceOf(userAddrr) */\n      mload(0x40)\n      shl(0xe0, 0x70a08231)\n      dup2\n      mstore\n      sub(shl(0xa0, 0x01), 0x01)\n        /* \"#utility.yul\":4379:4411   */\n      dup11\n      dup2\n      and\n        /* \"contracts/fatcat/marketplace.sol\":7836:7878  GetBalance(FatTigers).balanceOf(userAddrr) */\n      0x04\n      dup4\n      add\n        /* \"#utility.yul\":4361:4412   */\n      mstore\n        /* \"contracts/fatcat/marketplace.sol\":7744:7806  uint tokenIdTwo = GetBalance(FatLeopards).balanceOf(userAddrr) */\n      swap3\n      swap4\n      pop\n        /* \"contracts/fatcat/marketplace.sol\":7816:7833  uint tokenIdThree */\n      0x00\n      swap3\n        /* \"contracts/fatcat/marketplace.sol\":7847:7856  FatTigers */\n      swap1\n      swap2\n      and\n      swap1\n        /* \"contracts/fatcat/marketplace.sol\":7836:7867  GetBalance(FatTigers).balanceOf */\n      0x70a08231\n      swap1\n        /* \"#utility.yul\":4334:4352   */\n      0x24\n      add\n        /* \"contracts/fatcat/marketplace.sol\":7836:7878  GetBalance(FatTigers).balanceOf(userAddrr) */\n      0x20\n      mload(0x40)\n      dup1\n      dup4\n      sub\n      dup2\n      dup7\n      gas\n      staticcall\n      iszero\n      dup1\n      iszero\n      tag_111\n      jumpi\n      returndatasize\n      0x00\n      dup1\n      returndatacopy\n      revert(0x00, returndatasize)\n    tag_111:\n      pop\n      pop\n      pop\n      pop\n      mload(0x40)\n      returndatasize\n      not(0x1f)\n      0x1f\n      dup3\n      add\n      and\n      dup3\n      add\n      dup1\n      0x40\n      mstore\n      pop\n      dup2\n      add\n      swap1\n      tag_112\n      swap2\n      swap1\n      tag_104\n      jump\t// in\n    tag_112:\n        /* \"contracts/fatcat/marketplace.sol\":7918:7928  FatKittens */\n      sload(0x0b)\n        /* \"contracts/fatcat/marketplace.sol\":7907:7950  GetBalance(FatKittens).balanceOf(userAddrr) */\n      mload(0x40)\n      shl(0xe0, 0x70a08231)\n      dup2\n      mstore\n      sub(shl(0xa0, 0x01), 0x01)\n        /* \"#utility.yul\":4379:4411   */\n      dup12\n      dup2\n      and\n        /* \"contracts/fatcat/marketplace.sol\":7907:7950  GetBalance(FatKittens).balanceOf(userAddrr) */\n      0x04\n      dup4\n      add\n        /* \"#utility.yul\":4361:4412   */\n      mstore\n        /* \"contracts/fatcat/marketplace.sol\":7816:7878  uint tokenIdThree = GetBalance(FatTigers).balanceOf(userAddrr) */\n      swap3\n      swap4\n      pop\n        /* \"contracts/fatcat/marketplace.sol\":7888:7904  uint tokenIdFour */\n      0x00\n      swap3\n        /* \"contracts/fatcat/marketplace.sol\":7918:7928  FatKittens */\n      swap1\n      swap2\n      and\n      swap1\n        /* \"contracts/fatcat/marketplace.sol\":7907:7939  GetBalance(FatKittens).balanceOf */\n      0x70a08231\n      swap1\n        /* \"#utility.yul\":4334:4352   */\n      0x24\n      add\n        /* \"contracts/fatcat/marketplace.sol\":7907:7950  GetBalance(FatKittens).balanceOf(userAddrr) */\n      0x20\n      mload(0x40)\n      dup1\n      dup4\n      sub\n      dup2\n      dup7\n      gas\n      staticcall\n      iszero\n      dup1\n      iszero\n      tag_115\n      jumpi\n      returndatasize\n      0x00\n      dup1\n      returndatacopy\n      revert(0x00, returndatasize)\n    tag_115:\n      pop\n      pop\n      pop\n      pop\n      mload(0x40)\n      returndatasize\n      not(0x1f)\n      0x1f\n      dup3\n      add\n      and\n      dup3\n      add\n      dup1\n      0x40\n      mstore\n      pop\n      dup2\n      add\n      swap1\n      tag_116\n      swap2\n      swap1\n      tag_104\n      jump\t// in\n    tag_116:\n        /* \"contracts/fatcat/marketplace.sol\":7888:7950  uint tokenIdFour = GetBalance(FatKittens).balanceOf(userAddrr) */\n      swap1\n      pop\n        /* \"contracts/fatcat/marketplace.sol\":7986:7987  0 */\n      0x00\n        /* \"contracts/fatcat/marketplace.sol\":7973:7983  tokenIdOne */\n      dup5\n        /* \"contracts/fatcat/marketplace.sol\":7973:7987  tokenIdOne > 0 */\n      gt\n        /* \"contracts/fatcat/marketplace.sol\":7973:8005  tokenIdOne > 0 && tokenIdTwo > 0 */\n      dup1\n      iszero\n      tag_117\n      jumpi\n      pop\n        /* \"contracts/fatcat/marketplace.sol\":8004:8005  0 */\n      0x00\n        /* \"contracts/fatcat/marketplace.sol\":7991:8001  tokenIdTwo */\n      dup4\n        /* \"contracts/fatcat/marketplace.sol\":7991:8005  tokenIdTwo > 0 */\n      gt\n        /* \"contracts/fatcat/marketplace.sol\":7973:8005  tokenIdOne > 0 && tokenIdTwo > 0 */\n    tag_117:\n        /* \"contracts/fatcat/marketplace.sol\":7973:8025  tokenIdOne > 0 && tokenIdTwo > 0 && tokenIdThree > 0 */\n      dup1\n      iszero\n      tag_118\n      jumpi\n      pop\n        /* \"contracts/fatcat/marketplace.sol\":8024:8025  0 */\n      0x00\n        /* \"contracts/fatcat/marketplace.sol\":8009:8021  tokenIdThree */\n      dup3\n        /* \"contracts/fatcat/marketplace.sol\":8009:8025  tokenIdThree > 0 */\n      gt\n        /* \"contracts/fatcat/marketplace.sol\":7973:8025  tokenIdOne > 0 && tokenIdTwo > 0 && tokenIdThree > 0 */\n    tag_118:\n        /* \"contracts/fatcat/marketplace.sol\":7973:8044  tokenIdOne > 0 && tokenIdTwo > 0 && tokenIdThree > 0 && tokenIdFour > 0 */\n      dup1\n      iszero\n      tag_119\n      jumpi\n      pop\n        /* \"contracts/fatcat/marketplace.sol\":8043:8044  0 */\n      0x00\n        /* \"contracts/fatcat/marketplace.sol\":8029:8040  tokenIdFour */\n      dup2\n        /* \"contracts/fatcat/marketplace.sol\":8029:8044  tokenIdFour > 0 */\n      gt\n        /* \"contracts/fatcat/marketplace.sol\":7973:8044  tokenIdOne > 0 && tokenIdTwo > 0 && tokenIdThree > 0 && tokenIdFour > 0 */\n    tag_119:\n        /* \"contracts/fatcat/marketplace.sol\":7969:8419  if (tokenIdOne > 0 && tokenIdTwo > 0 && tokenIdThree > 0 && tokenIdFour > 0) {... */\n      iszero\n      tag_120\n      jumpi\n        /* \"contracts/fatcat/marketplace.sol\":8069:8073  true */\n      0x01\n        /* \"contracts/fatcat/marketplace.sol\":8075:8079  true */\n      dup1\n        /* \"contracts/fatcat/marketplace.sol\":8081:8085  true */\n      0x01\n        /* \"contracts/fatcat/marketplace.sol\":8087:8091  true */\n      dup1\n        /* \"contracts/fatcat/marketplace.sol\":8060:8092  return ( true, true, true, true) */\n      swap8\n      pop\n      swap8\n      pop\n      swap8\n      pop\n      swap8\n      pop\n      pop\n      pop\n      pop\n      pop\n      jump(tag_99)\n        /* \"contracts/fatcat/marketplace.sol\":7969:8419  if (tokenIdOne > 0 && tokenIdTwo > 0 && tokenIdThree > 0 && tokenIdFour > 0) {... */\n    tag_120:\n        /* \"contracts/fatcat/marketplace.sol\":8126:8127  0 */\n      0x00\n        /* \"contracts/fatcat/marketplace.sol\":8113:8123  tokenIdTwo */\n      dup4\n        /* \"contracts/fatcat/marketplace.sol\":8113:8127  tokenIdTwo > 0 */\n      gt\n        /* \"contracts/fatcat/marketplace.sol\":8113:8147  tokenIdTwo > 0 && tokenIdThree > 0 */\n      dup1\n      iszero\n      tag_122\n      jumpi\n      pop\n        /* \"contracts/fatcat/marketplace.sol\":8146:8147  0 */\n      0x00\n        /* \"contracts/fatcat/marketplace.sol\":8131:8143  tokenIdThree */\n      dup3\n        /* \"contracts/fatcat/marketplace.sol\":8131:8147  tokenIdThree > 0 */\n      gt\n        /* \"contracts/fatcat/marketplace.sol\":8113:8147  tokenIdTwo > 0 && tokenIdThree > 0 */\n    tag_122:\n        /* \"contracts/fatcat/marketplace.sol\":8113:8166  tokenIdTwo > 0 && tokenIdThree > 0 && tokenIdFour > 0 */\n      dup1\n      iszero\n      tag_123\n      jumpi\n      pop\n        /* \"contracts/fatcat/marketplace.sol\":8165:8166  0 */\n      0x00\n        /* \"contracts/fatcat/marketplace.sol\":8151:8162  tokenIdFour */\n      dup2\n        /* \"contracts/fatcat/marketplace.sol\":8151:8166  tokenIdFour > 0 */\n      gt\n        /* \"contracts/fatcat/marketplace.sol\":8113:8166  tokenIdTwo > 0 && tokenIdThree > 0 && tokenIdFour > 0 */\n    tag_123:\n        /* \"contracts/fatcat/marketplace.sol\":8109:8419  if (tokenIdTwo > 0 && tokenIdThree > 0 && tokenIdFour > 0) {... */\n      iszero\n      tag_124\n      jumpi\n        /* \"contracts/fatcat/marketplace.sol\":8191:8196  false */\n      0x00\n        /* \"contracts/fatcat/marketplace.sol\":8198:8202  true */\n      0x01\n        /* \"contracts/fatcat/marketplace.sol\":8204:8208  true */\n      dup1\n        /* \"contracts/fatcat/marketplace.sol\":8210:8214  true */\n      0x01\n        /* \"contracts/fatcat/marketplace.sol\":8182:8215  return ( false, true, true, true) */\n      swap8\n      pop\n      swap8\n      pop\n      swap8\n      pop\n      swap8\n      pop\n      pop\n      pop\n      pop\n      pop\n      jump(tag_99)\n        /* \"contracts/fatcat/marketplace.sol\":8109:8419  if (tokenIdTwo > 0 && tokenIdThree > 0 && tokenIdFour > 0) {... */\n    tag_124:\n        /* \"contracts/fatcat/marketplace.sol\":8251:8252  0 */\n      0x00\n        /* \"contracts/fatcat/marketplace.sol\":8236:8248  tokenIdThree */\n      dup3\n        /* \"contracts/fatcat/marketplace.sol\":8236:8252  tokenIdThree > 0 */\n      gt\n        /* \"contracts/fatcat/marketplace.sol\":8236:8271  tokenIdThree > 0 && tokenIdFour > 0 */\n      dup1\n      iszero\n      tag_126\n      jumpi\n      pop\n        /* \"contracts/fatcat/marketplace.sol\":8270:8271  0 */\n      0x00\n        /* \"contracts/fatcat/marketplace.sol\":8256:8267  tokenIdFour */\n      dup2\n        /* \"contracts/fatcat/marketplace.sol\":8256:8271  tokenIdFour > 0 */\n      gt\n        /* \"contracts/fatcat/marketplace.sol\":8236:8271  tokenIdThree > 0 && tokenIdFour > 0 */\n    tag_126:\n        /* \"contracts/fatcat/marketplace.sol\":8232:8419  if (tokenIdThree > 0 && tokenIdFour > 0) {... */\n      iszero\n      tag_127\n      jumpi\n        /* \"contracts/fatcat/marketplace.sol\":8296:8301  false */\n      0x00\n        /* \"contracts/fatcat/marketplace.sol\":8303:8308  false */\n      dup1\n        /* \"contracts/fatcat/marketplace.sol\":8310:8314  true */\n      0x01\n        /* \"contracts/fatcat/marketplace.sol\":8316:8320  true */\n      dup1\n        /* \"contracts/fatcat/marketplace.sol\":8287:8321  return ( false, false, true, true) */\n      swap8\n      pop\n      swap8\n      pop\n      swap8\n      pop\n      swap8\n      pop\n      pop\n      pop\n      pop\n      pop\n      jump(tag_99)\n        /* \"contracts/fatcat/marketplace.sol\":8232:8419  if (tokenIdThree > 0 && tokenIdFour > 0) {... */\n    tag_127:\n        /* \"contracts/fatcat/marketplace.sol\":8342:8357  tokenIdFour > 0 */\n      dup1\n      iszero\n        /* \"contracts/fatcat/marketplace.sol\":8338:8419  if (tokenIdFour > 0) {... */\n      tag_129\n      jumpi\n        /* \"contracts/fatcat/marketplace.sol\":8382:8387  false */\n      0x00\n        /* \"contracts/fatcat/marketplace.sol\":8389:8394  false */\n      dup1\n        /* \"contracts/fatcat/marketplace.sol\":8396:8401  false */\n      0x00\n        /* \"contracts/fatcat/marketplace.sol\":8403:8407  true */\n      0x01\n        /* \"contracts/fatcat/marketplace.sol\":8373:8408  return ( false, false, false, true) */\n      swap8\n      pop\n      swap8\n      pop\n      swap8\n      pop\n      swap8\n      pop\n      pop\n      pop\n      pop\n      pop\n      jump(tag_99)\n        /* \"contracts/fatcat/marketplace.sol\":8338:8419  if (tokenIdFour > 0) {... */\n    tag_129:\n        /* \"contracts/fatcat/marketplace.sol\":7656:8425  { ... */\n      pop\n      pop\n      pop\n      pop\n        /* \"contracts/fatcat/marketplace.sol\":7502:8425  function checkBalanceOf (address userAddrr) public view returns ( ... */\n    tag_99:\n      swap2\n      swap4\n      pop\n      swap2\n      swap4\n      jump\t// out\n        /* \"contracts/fatcat/marketplace.sol\":8432:8826  function editList(uint listIndex, uint price) public { ... */\n    tag_44:\n        /* \"contracts/fatcat/marketplace.sol\":8504:8544  _items[Index[listIndex].contractAddress] */\n      0x00\n        /* \"contracts/fatcat/marketplace.sol\":8511:8527  Index[listIndex] */\n      dup3\n      dup2\n      mstore\n        /* \"contracts/fatcat/marketplace.sol\":8511:8516  Index */\n      0x0e\n        /* \"contracts/fatcat/marketplace.sol\":8511:8527  Index[listIndex] */\n      0x20\n      swap1\n      dup2\n      mstore\n      0x40\n      dup1\n      dup4\n      keccak256\n        /* \"contracts/fatcat/marketplace.sol\":8511:8543  Index[listIndex].contractAddress */\n      dup1\n      sload\n      sub(shl(0xa0, 0x01), 0x01)\n      and\n        /* \"contracts/fatcat/marketplace.sol\":8504:8544  _items[Index[listIndex].contractAddress] */\n      dup5\n      mstore\n        /* \"contracts/fatcat/marketplace.sol\":8504:8510  _items */\n      0x0d\n        /* \"contracts/fatcat/marketplace.sol\":8504:8544  _items[Index[listIndex].contractAddress] */\n      dup4\n      mstore\n      dup2\n      dup5\n      keccak256\n        /* \"contracts/fatcat/marketplace.sol\":8511:8543  Index[listIndex].contractAddress */\n      0x01\n        /* \"contracts/fatcat/marketplace.sol\":8545:8569  Index[listIndex].TokenId */\n      swap1\n      swap2\n      add\n      sload\n        /* \"contracts/fatcat/marketplace.sol\":8504:8570  _items[Index[listIndex].contractAddress][Index[listIndex].TokenId] */\n      dup5\n      mstore\n      swap1\n      swap2\n      mstore\n      swap1\n      keccak256\n        /* \"contracts/fatcat/marketplace.sol\":8504:8577  _items[Index[listIndex].contractAddress][Index[listIndex].TokenId].listed */\n      0x05\n      add\n      sload\n      0xff\n      and\n        /* \"contracts/fatcat/marketplace.sol\":8496:8602  require(_items[Index[listIndex].contractAddress][Index[listIndex].TokenId].listed,\"This Item not listed \") */\n      tag_131\n      jumpi\n      mload(0x40)\n      shl(0xe5, 0x461bcd)\n      dup2\n      mstore\n        /* \"#utility.yul\":8952:8954   */\n      0x20\n        /* \"contracts/fatcat/marketplace.sol\":8496:8602  require(_items[Index[listIndex].contractAddress][Index[listIndex].TokenId].listed,\"This Item not listed \") */\n      0x04\n      dup3\n      add\n        /* \"#utility.yul\":8934:8955   */\n      mstore\n        /* \"#utility.yul\":8991:8993   */\n      0x15\n        /* \"#utility.yul\":8971:8989   */\n      0x24\n      dup3\n      add\n        /* \"#utility.yul\":8964:8994   */\n      mstore\n      shl(0x5d, 0x02a3434b99024ba32b6903737ba103634b9ba32b21)\n        /* \"#utility.yul\":9010:9028   */\n      0x44\n      dup3\n      add\n        /* \"#utility.yul\":9003:9054   */\n      mstore\n        /* \"#utility.yul\":9071:9089   */\n      0x64\n      add\n        /* \"contracts/fatcat/marketplace.sol\":8496:8602  require(_items[Index[listIndex].contractAddress][Index[listIndex].TokenId].listed,\"This Item not listed \") */\n    tag_132:\n      mload(0x40)\n      dup1\n      swap2\n      sub\n      swap1\n      revert\n    tag_131:\n        /* \"contracts/fatcat/marketplace.sol\":8620:8660  _items[Index[listIndex].contractAddress] */\n      0x00\n        /* \"contracts/fatcat/marketplace.sol\":8627:8643  Index[listIndex] */\n      dup3\n      dup2\n      mstore\n        /* \"contracts/fatcat/marketplace.sol\":8627:8632  Index */\n      0x0e\n        /* \"contracts/fatcat/marketplace.sol\":8627:8643  Index[listIndex] */\n      0x20\n      swap1\n      dup2\n      mstore\n      0x40\n      dup1\n      dup4\n      keccak256\n        /* \"contracts/fatcat/marketplace.sol\":8627:8659  Index[listIndex].contractAddress */\n      dup1\n      sload\n      sub(shl(0xa0, 0x01), 0x01)\n      swap1\n      dup2\n      and\n        /* \"contracts/fatcat/marketplace.sol\":8620:8660  _items[Index[listIndex].contractAddress] */\n      dup6\n      mstore\n        /* \"contracts/fatcat/marketplace.sol\":8620:8626  _items */\n      0x0d\n        /* \"contracts/fatcat/marketplace.sol\":8620:8660  _items[Index[listIndex].contractAddress] */\n      dup5\n      mstore\n      dup3\n      dup6\n      keccak256\n        /* \"contracts/fatcat/marketplace.sol\":8627:8659  Index[listIndex].contractAddress */\n      0x01\n        /* \"contracts/fatcat/marketplace.sol\":8661:8685  Index[listIndex].TokenId */\n      swap3\n      dup4\n      add\n      sload\n        /* \"contracts/fatcat/marketplace.sol\":8620:8687  _items[Index[listIndex].contractAddress][Index[listIndex].TokenId ] */\n      dup7\n      mstore\n      swap1\n      swap4\n      mstore\n      swap3\n      keccak256\n        /* \"contracts/fatcat/marketplace.sol\":8620:8694  _items[Index[listIndex].contractAddress][Index[listIndex].TokenId ].seller */\n      swap1\n      swap2\n      add\n      sload\n      and\n        /* \"contracts/fatcat/marketplace.sol\":8698:8708  msg.sender */\n      caller\n        /* \"contracts/fatcat/marketplace.sol\":8620:8708  _items[Index[listIndex].contractAddress][Index[listIndex].TokenId ].seller == msg.sender */\n      eq\n        /* \"contracts/fatcat/marketplace.sol\":8612:8729  require(_items[Index[listIndex].contractAddress][Index[listIndex].TokenId ].seller == msg.sender,\"You are not Owner\") */\n      tag_134\n      jumpi\n      mload(0x40)\n      shl(0xe5, 0x461bcd)\n      dup2\n      mstore\n        /* \"#utility.yul\":9302:9304   */\n      0x20\n        /* \"contracts/fatcat/marketplace.sol\":8612:8729  require(_items[Index[listIndex].contractAddress][Index[listIndex].TokenId ].seller == msg.sender,\"You are not Owner\") */\n      0x04\n      dup3\n      add\n        /* \"#utility.yul\":9284:9305   */\n      mstore\n        /* \"#utility.yul\":9341:9343   */\n      0x11\n        /* \"#utility.yul\":9321:9339   */\n      0x24\n      dup3\n      add\n        /* \"#utility.yul\":9314:9344   */\n      mstore\n      shl(0x79, 0x2cb7ba9030b932903737ba1027bbb732b9)\n        /* \"#utility.yul\":9360:9378   */\n      0x44\n      dup3\n      add\n        /* \"#utility.yul\":9353:9400   */\n      mstore\n        /* \"#utility.yul\":9417:9435   */\n      0x64\n      add\n        /* \"contracts/fatcat/marketplace.sol\":8612:8729  require(_items[Index[listIndex].contractAddress][Index[listIndex].TokenId ].seller == msg.sender,\"You are not Owner\") */\n      tag_132\n        /* \"#utility.yul\":9100:9441   */\n      jump\n        /* \"contracts/fatcat/marketplace.sol\":8612:8729  require(_items[Index[listIndex].contractAddress][Index[listIndex].TokenId ].seller == msg.sender,\"You are not Owner\") */\n    tag_134:\n        /* \"contracts/fatcat/marketplace.sol\":8739:8779  _items[Index[listIndex].contractAddress] */\n      0x00\n        /* \"contracts/fatcat/marketplace.sol\":8746:8762  Index[listIndex] */\n      swap2\n      dup3\n      mstore\n        /* \"contracts/fatcat/marketplace.sol\":8746:8751  Index */\n      0x0e\n        /* \"contracts/fatcat/marketplace.sol\":8746:8762  Index[listIndex] */\n      0x20\n      swap1\n      dup2\n      mstore\n      0x40\n      dup1\n      dup5\n      keccak256\n        /* \"contracts/fatcat/marketplace.sol\":8746:8778  Index[listIndex].contractAddress */\n      dup1\n      sload\n      sub(shl(0xa0, 0x01), 0x01)\n      and\n        /* \"contracts/fatcat/marketplace.sol\":8739:8779  _items[Index[listIndex].contractAddress] */\n      dup6\n      mstore\n        /* \"contracts/fatcat/marketplace.sol\":8739:8745  _items */\n      0x0d\n        /* \"contracts/fatcat/marketplace.sol\":8739:8779  _items[Index[listIndex].contractAddress] */\n      dup4\n      mstore\n      dup2\n      dup6\n      keccak256\n        /* \"contracts/fatcat/marketplace.sol\":8746:8778  Index[listIndex].contractAddress */\n      0x01\n        /* \"contracts/fatcat/marketplace.sol\":8780:8804  Index[listIndex].TokenId */\n      swap1\n      swap2\n      add\n      sload\n        /* \"contracts/fatcat/marketplace.sol\":8739:8805  _items[Index[listIndex].contractAddress][Index[listIndex].TokenId] */\n      dup6\n      mstore\n      swap1\n      swap2\n      mstore\n      swap1\n      swap2\n      keccak256\n        /* \"contracts/fatcat/marketplace.sol\":8739:8811  _items[Index[listIndex].contractAddress][Index[listIndex].TokenId].price */\n      0x03\n      add\n        /* \"contracts/fatcat/marketplace.sol\":8739:8819  _items[Index[listIndex].contractAddress][Index[listIndex].TokenId].price = price */\n      sstore\n        /* \"contracts/fatcat/marketplace.sol\":8432:8826  function editList(uint listIndex, uint price) public { ... */\n      jump\t// out\n        /* \"contracts/fatcat/marketplace.sol\":4600:7496  function Buy(uint listIndex, memberShip choice) public payable { ... */\n    tag_48:\n        /* \"contracts/fatcat/marketplace.sol\":4674:4697  address contractAddress */\n      0x00\n        /* \"contracts/fatcat/marketplace.sol\":4700:4716  Index[listIndex] */\n      dup3\n      dup2\n      mstore\n        /* \"contracts/fatcat/marketplace.sol\":4700:4705  Index */\n      0x0e\n        /* \"contracts/fatcat/marketplace.sol\":4700:4716  Index[listIndex] */\n      0x20\n      mstore\n      0x40\n      dup2\n      keccak256\n        /* \"contracts/fatcat/marketplace.sol\":4700:4732  Index[listIndex].contractAddress */\n      dup1\n      sload\n      0x01\n        /* \"contracts/fatcat/marketplace.sol\":4757:4781  Index[listIndex].TokenId */\n      swap1\n      swap2\n      add\n      sload\n      sub(shl(0xa0, 0x01), 0x01)\n        /* \"contracts/fatcat/marketplace.sol\":4700:4732  Index[listIndex].contractAddress */\n      swap1\n      swap2\n      and\n      swap2\n        /* \"contracts/fatcat/marketplace.sol\":4880:4883  100 */\n      0x64\n        /* \"contracts/fatcat/marketplace.sol\":4855:4868  memberShipPer */\n      0x0c\n        /* \"contracts/fatcat/marketplace.sol\":4674:4697  address contractAddress */\n      dup3\n        /* \"contracts/fatcat/marketplace.sol\":4869:4875  choice */\n      dup7\n        /* \"contracts/fatcat/marketplace.sol\":4855:4876  memberShipPer[choice] */\n      0x03\n      dup2\n      gt\n      iszero\n      tag_139\n      jumpi\n      tag_139\n      tag_140\n      jump\t// in\n    tag_139:\n      0x03\n      dup2\n      gt\n      iszero\n      tag_142\n      jumpi\n      tag_142\n      tag_140\n      jump\t// in\n    tag_142:\n      dup2\n      mstore\n      0x20\n      dup1\n      dup3\n      add\n      swap3\n      swap1\n      swap3\n      mstore\n      0x40\n      swap1\n      dup2\n      add\n      0x00\n      swap1\n      dup2\n      keccak256\n      sload\n      sub(shl(0xa0, 0x01), 0x01)\n        /* \"contracts/fatcat/marketplace.sol\":4814:4837  _items[contractAddress] */\n      dup9\n      and\n      dup3\n      mstore\n        /* \"contracts/fatcat/marketplace.sol\":4814:4820  _items */\n      0x0d\n        /* \"contracts/fatcat/marketplace.sol\":4814:4837  _items[contractAddress] */\n      dup5\n      mstore\n      dup3\n      dup3\n      keccak256\n        /* \"contracts/fatcat/marketplace.sol\":4814:4846  _items[contractAddress][tokenId] */\n      dup8\n      dup4\n      mstore\n      swap1\n      swap4\n      mstore\n      keccak256\n        /* \"contracts/fatcat/marketplace.sol\":4814:4852  _items[contractAddress][tokenId].price */\n      0x03\n      add\n      sload\n        /* \"contracts/fatcat/marketplace.sol\":4814:4876  _items[contractAddress][tokenId].price * memberShipPer[choice] */\n      tag_143\n      swap2\n        /* \"contracts/fatcat/marketplace.sol\":4855:4876  memberShipPer[choice] */\n      swap1\n        /* \"contracts/fatcat/marketplace.sol\":4814:4876  _items[contractAddress][tokenId].price * memberShipPer[choice] */\n      tag_144\n      jump\t// in\n    tag_143:\n        /* \"contracts/fatcat/marketplace.sol\":4813:4883  (_items[contractAddress][tokenId].price * memberShipPer[choice]) / 100 */\n      tag_145\n      swap2\n      swap1\n      tag_146\n      jump\t// in\n    tag_145:\n      sub(shl(0xa0, 0x01), 0x01)\n        /* \"contracts/fatcat/marketplace.sol\":4902:4925  _items[contractAddress] */\n      dup5\n      dup2\n      and\n      0x00\n      swap1\n      dup2\n      mstore\n        /* \"contracts/fatcat/marketplace.sol\":4902:4908  _items */\n      0x0d\n        /* \"contracts/fatcat/marketplace.sol\":4902:4925  _items[contractAddress] */\n      0x20\n      swap1\n      dup2\n      mstore\n      0x40\n      dup1\n      dup4\n      keccak256\n        /* \"contracts/fatcat/marketplace.sol\":4902:4934  _items[contractAddress][tokenId] */\n      dup8\n      dup5\n      mstore\n      swap1\n      swap2\n      mstore\n      swap1\n      keccak256\n        /* \"contracts/fatcat/marketplace.sol\":4902:4941  _items[contractAddress][tokenId].seller */\n      0x01\n      add\n      sload\n        /* \"contracts/fatcat/marketplace.sol\":4791:4883  uint memberPerAgeCal= (_items[contractAddress][tokenId].price * memberShipPer[choice]) / 100 */\n      swap2\n      swap3\n      pop\n        /* \"contracts/fatcat/marketplace.sol\":4945:4955  msg.sender */\n      caller\n        /* \"contracts/fatcat/marketplace.sol\":4902:4941  _items[contractAddress][tokenId].seller */\n      swap2\n      and\n        /* \"contracts/fatcat/marketplace.sol\":4902:4955  _items[contractAddress][tokenId].seller != msg.sender */\n      sub\n        /* \"contracts/fatcat/marketplace.sol\":4894:4974  require(_items[contractAddress][tokenId].seller != msg.sender, \"Not the Seller\") */\n      tag_147\n      jumpi\n      mload(0x40)\n      shl(0xe5, 0x461bcd)\n      dup2\n      mstore\n        /* \"#utility.yul\":10307:10309   */\n      0x20\n        /* \"contracts/fatcat/marketplace.sol\":4894:4974  require(_items[contractAddress][tokenId].seller != msg.sender, \"Not the Seller\") */\n      0x04\n      dup3\n      add\n        /* \"#utility.yul\":10289:10310   */\n      mstore\n        /* \"#utility.yul\":10346:10348   */\n      0x0e\n        /* \"#utility.yul\":10326:10344   */\n      0x24\n      dup3\n      add\n        /* \"#utility.yul\":10319:10349   */\n      mstore\n      shl(0x91, 0x2737ba103a34329029b2b63632b9)\n        /* \"#utility.yul\":10365:10383   */\n      0x44\n      dup3\n      add\n        /* \"#utility.yul\":10358:10402   */\n      mstore\n        /* \"#utility.yul\":10419:10437   */\n      0x64\n      add\n        /* \"contracts/fatcat/marketplace.sol\":4894:4974  require(_items[contractAddress][tokenId].seller != msg.sender, \"Not the Seller\") */\n      tag_132\n        /* \"#utility.yul\":10105:10443   */\n      jump\n        /* \"contracts/fatcat/marketplace.sol\":4894:4974  require(_items[contractAddress][tokenId].seller != msg.sender, \"Not the Seller\") */\n    tag_147:\n      sub(shl(0xa0, 0x01), 0x01)\n        /* \"contracts/fatcat/marketplace.sol\":5007:5030  _items[contractAddress] */\n      dup4\n      and\n      0x00\n      swap1\n      dup2\n      mstore\n        /* \"contracts/fatcat/marketplace.sol\":5007:5013  _items */\n      0x0d\n        /* \"contracts/fatcat/marketplace.sol\":5007:5030  _items[contractAddress] */\n      0x20\n      swap1\n      dup2\n      mstore\n      0x40\n      dup1\n      dup4\n      keccak256\n        /* \"contracts/fatcat/marketplace.sol\":5007:5039  _items[contractAddress][tokenId] */\n      dup6\n      dup5\n      mstore\n      swap1\n      swap2\n      mstore\n      swap1\n      keccak256\n        /* \"contracts/fatcat/marketplace.sol\":5007:5045  _items[contractAddress][tokenId].price */\n      0x03\n      add\n      sload\n        /* \"contracts/fatcat/marketplace.sol\":5007:5063  _items[contractAddress][tokenId].price + memberPerAgeCal */\n      tag_150\n      swap1\n        /* \"contracts/fatcat/marketplace.sol\":5048:5063  memberPerAgeCal */\n      dup3\n      swap1\n        /* \"contracts/fatcat/marketplace.sol\":5007:5063  _items[contractAddress][tokenId].price + memberPerAgeCal */\n      tag_151\n      jump\t// in\n    tag_150:\n        /* \"contracts/fatcat/marketplace.sol\":4992:5001  msg.value */\n      callvalue\n        /* \"contracts/fatcat/marketplace.sol\":4992:5064  msg.value >=  (_items[contractAddress][tokenId].price + memberPerAgeCal) */\n      lt\n      iszero\n        /* \"contracts/fatcat/marketplace.sol\":4984:5085  require(msg.value >=  (_items[contractAddress][tokenId].price + memberPerAgeCal), \"Not enough price\") */\n      tag_152\n      jumpi\n      mload(0x40)\n      shl(0xe5, 0x461bcd)\n      dup2\n      mstore\n        /* \"#utility.yul\":10780:10782   */\n      0x20\n        /* \"contracts/fatcat/marketplace.sol\":4984:5085  require(msg.value >=  (_items[contractAddress][tokenId].price + memberPerAgeCal), \"Not enough price\") */\n      0x04\n      dup3\n      add\n        /* \"#utility.yul\":10762:10783   */\n      mstore\n        /* \"#utility.yul\":10819:10821   */\n      0x10\n        /* \"#utility.yul\":10799:10817   */\n      0x24\n      dup3\n      add\n        /* \"#utility.yul\":10792:10822   */\n      mstore\n      shl(0x80, 0x4e6f7420656e6f756768207072696365)\n        /* \"#utility.yul\":10838:10856   */\n      0x44\n      dup3\n      add\n        /* \"#utility.yul\":10831:10877   */\n      mstore\n        /* \"#utility.yul\":10894:10912   */\n      0x64\n      add\n        /* \"contracts/fatcat/marketplace.sol\":4984:5085  require(msg.value >=  (_items[contractAddress][tokenId].price + memberPerAgeCal), \"Not enough price\") */\n      tag_132\n        /* \"#utility.yul\":10578:10918   */\n      jump\n        /* \"contracts/fatcat/marketplace.sol\":4984:5085  require(msg.value >=  (_items[contractAddress][tokenId].price + memberPerAgeCal), \"Not enough price\") */\n    tag_152:\n        /* \"contracts/fatcat/marketplace.sol\":5095:5165  ERC721(contractAddress).transferFrom(address(this),msg.sender,tokenId) */\n      mload(0x40)\n      shl(0xe0, 0x23b872dd)\n      dup2\n      mstore\n        /* \"contracts/fatcat/marketplace.sol\":5140:5144  this */\n      address\n        /* \"contracts/fatcat/marketplace.sol\":5095:5165  ERC721(contractAddress).transferFrom(address(this),msg.sender,tokenId) */\n      0x04\n      dup3\n      add\n        /* \"#utility.yul\":11125:11176   */\n      mstore\n        /* \"contracts/fatcat/marketplace.sol\":5146:5156  msg.sender */\n      caller\n        /* \"#utility.yul\":11192:11210   */\n      0x24\n      dup3\n      add\n        /* \"#utility.yul\":11185:11245   */\n      mstore\n        /* \"#utility.yul\":11261:11279   */\n      0x44\n      dup2\n      add\n        /* \"#utility.yul\":11254:11288   */\n      dup4\n      swap1\n      mstore\n      sub(shl(0xa0, 0x01), 0x01)\n        /* \"contracts/fatcat/marketplace.sol\":5095:5131  ERC721(contractAddress).transferFrom */\n      dup5\n      and\n      swap1\n      0x23b872dd\n      swap1\n        /* \"#utility.yul\":11098:11116   */\n      0x64\n      add\n        /* \"contracts/fatcat/marketplace.sol\":5095:5165  ERC721(contractAddress).transferFrom(address(this),msg.sender,tokenId) */\n      0x00\n      mload(0x40)\n      dup1\n      dup4\n      sub\n      dup2\n      0x00\n      dup8\n      dup1\n      extcodesize\n      iszero\n      dup1\n      iszero\n      tag_157\n      jumpi\n      0x00\n      dup1\n      revert\n    tag_157:\n      pop\n      gas\n      call\n      iszero\n      dup1\n      iszero\n      tag_159\n      jumpi\n      returndatasize\n      0x00\n      dup1\n      returndatacopy\n      revert(0x00, returndatasize)\n    tag_159:\n      pop\n      pop\n      pop\n      pop\n      sub(shl(0xa0, 0x01), 0x01)\n        /* \"contracts/fatcat/marketplace.sol\":5414:5437  _items[contractAddress] */\n      dup4\n      and\n      0x00\n      swap1\n      dup2\n      mstore\n        /* \"contracts/fatcat/marketplace.sol\":5414:5420  _items */\n      0x0d\n        /* \"contracts/fatcat/marketplace.sol\":5414:5437  _items[contractAddress] */\n      0x20\n      swap1\n      dup2\n      mstore\n      0x40\n      dup1\n      dup4\n      keccak256\n        /* \"contracts/fatcat/marketplace.sol\":5414:5446  _items[contractAddress][tokenId] */\n      dup6\n      dup5\n      mstore\n      swap1\n      swap2\n      mstore\n      dup2\n      keccak256\n        /* \"contracts/fatcat/marketplace.sol\":5414:5452  _items[contractAddress][tokenId].count */\n      0x04\n      add\n      sload\n        /* \"contracts/fatcat/marketplace.sol\":5414:5457  _items[contractAddress][tokenId].count == 0 */\n      swap1\n      sub\n        /* \"contracts/fatcat/marketplace.sol\":5411:5713  if(_items[contractAddress][tokenId].count == 0){... */\n      tag_160\n      jumpi\n      sub(shl(0xa0, 0x01), 0x01)\n        /* \"contracts/fatcat/marketplace.sol\":5517:5540  _items[contractAddress] */\n      dup4\n      dup2\n      and\n      0x00\n      swap1\n      dup2\n      mstore\n        /* \"contracts/fatcat/marketplace.sol\":5517:5523  _items */\n      0x0d\n        /* \"contracts/fatcat/marketplace.sol\":5517:5540  _items[contractAddress] */\n      0x20\n      swap1\n      dup2\n      mstore\n      0x40\n      dup1\n      dup4\n      keccak256\n        /* \"contracts/fatcat/marketplace.sol\":5517:5549  _items[contractAddress][tokenId] */\n      dup7\n      dup5\n      mstore\n      swap1\n      swap2\n      mstore\n      swap1\n      keccak256\n        /* \"contracts/fatcat/marketplace.sol\":5517:5556  _items[contractAddress][tokenId].seller */\n      0x01\n      dup2\n      add\n      sload\n        /* \"contracts/fatcat/marketplace.sol\":5476:5515  _items[contractAddress][tokenId].artist */\n      0x05\n      dup3\n      add\n        /* \"contracts/fatcat/marketplace.sol\":5476:5556  _items[contractAddress][tokenId].artist =_items[contractAddress][tokenId].seller */\n      dup1\n      sload\n        /* \"contracts/fatcat/marketplace.sol\":5517:5556  _items[contractAddress][tokenId].seller */\n      swap2\n      swap1\n      swap4\n      and\n      0x0100\n        /* \"contracts/fatcat/marketplace.sol\":5476:5556  _items[contractAddress][tokenId].artist =_items[contractAddress][tokenId].seller */\n      mul\n      not(sub(shl(0xa8, 0x01), 0x0100))\n      swap1\n      swap2\n      and\n      or\n      swap1\n      swap2\n      sstore\n        /* \"contracts/fatcat/marketplace.sol\":5625:5627  85 */\n      0x55\n        /* \"contracts/fatcat/marketplace.sol\":5574:5622  _items[contractAddress][tokenId].artistFeePerAge */\n      0x06\n      dup3\n      add\n        /* \"contracts/fatcat/marketplace.sol\":5574:5627  _items[contractAddress][tokenId].artistFeePerAge = 85 */\n      sstore\n        /* \"contracts/fatcat/marketplace.sol\":5694:5696  15 */\n      0x0f\n        /* \"contracts/fatcat/marketplace.sol\":5645:5692  _items[contractAddress][tokenId].buyerFeePerAge */\n      0x08\n      swap1\n      swap2\n      add\n        /* \"contracts/fatcat/marketplace.sol\":5645:5696  _items[contractAddress][tokenId].buyerFeePerAge= 15 */\n      sstore\n        /* \"contracts/fatcat/marketplace.sol\":5411:5713  if(_items[contractAddress][tokenId].count == 0){... */\n    tag_160:\n      sub(shl(0xa0, 0x01), 0x01)\n        /* \"contracts/fatcat/marketplace.sol\":5729:5752  _items[contractAddress] */\n      dup4\n      and\n        /* \"contracts/fatcat/marketplace.sol\":5770:5771  0 */\n      0x00\n        /* \"contracts/fatcat/marketplace.sol\":5729:5752  _items[contractAddress] */\n      swap1\n      dup2\n      mstore\n        /* \"contracts/fatcat/marketplace.sol\":5729:5735  _items */\n      0x0d\n        /* \"contracts/fatcat/marketplace.sol\":5729:5752  _items[contractAddress] */\n      0x20\n      swap1\n      dup2\n      mstore\n      0x40\n      dup1\n      dup4\n      keccak256\n        /* \"contracts/fatcat/marketplace.sol\":5729:5761  _items[contractAddress][tokenId] */\n      dup6\n      dup5\n      mstore\n      swap1\n      swap2\n      mstore\n      swap1\n      keccak256\n        /* \"contracts/fatcat/marketplace.sol\":5729:5767  _items[contractAddress][tokenId].count */\n      0x04\n      add\n      sload\n        /* \"contracts/fatcat/marketplace.sol\":5729:5771  _items[contractAddress][tokenId].count > 0 */\n      iszero\n        /* \"contracts/fatcat/marketplace.sol\":5726:5995  if(_items[contractAddress][tokenId].count > 0){ ... */\n      tag_161\n      jumpi\n      sub(shl(0xa0, 0x01), 0x01)\n        /* \"contracts/fatcat/marketplace.sol\":5791:5814  _items[contractAddress] */\n      dup4\n      and\n      0x00\n      swap1\n      dup2\n      mstore\n        /* \"contracts/fatcat/marketplace.sol\":5791:5797  _items */\n      0x0d\n        /* \"contracts/fatcat/marketplace.sol\":5791:5814  _items[contractAddress] */\n      0x20\n      swap1\n      dup2\n      mstore\n      0x40\n      dup1\n      dup4\n      keccak256\n        /* \"contracts/fatcat/marketplace.sol\":5791:5823  _items[contractAddress][tokenId] */\n      dup6\n      dup5\n      mstore\n      swap1\n      swap2\n      mstore\n      swap1\n      keccak256\n        /* \"contracts/fatcat/marketplace.sol\":5842:5843  5 */\n      0x05\n        /* \"contracts/fatcat/marketplace.sol\":5791:5839  _items[contractAddress][tokenId].artistFeePerAge */\n      0x06\n      dup3\n      add\n        /* \"contracts/fatcat/marketplace.sol\":5791:5843  _items[contractAddress][tokenId].artistFeePerAge = 5 */\n      dup2\n      swap1\n      sstore\n        /* \"contracts/fatcat/marketplace.sol\":5910:5912  95 */\n      0x5f\n        /* \"contracts/fatcat/marketplace.sol\":5861:5909  _items[contractAddress][tokenId].sellerFeePerAge */\n      0x07\n      dup4\n      add\n        /* \"contracts/fatcat/marketplace.sol\":5861:5912  _items[contractAddress][tokenId].sellerFeePerAge=95 */\n      sstore\n        /* \"contracts/fatcat/marketplace.sol\":5930:5977  _items[contractAddress][tokenId].buyerFeePerAge */\n      0x08\n      swap1\n      swap2\n      add\n        /* \"contracts/fatcat/marketplace.sol\":5930:5980  _items[contractAddress][tokenId].buyerFeePerAge= 5 */\n      sstore\n        /* \"contracts/fatcat/marketplace.sol\":5726:5995  if(_items[contractAddress][tokenId].count > 0){ ... */\n    tag_161:\n        /* \"contracts/fatcat/marketplace.sol\":6109:6123  buyerFeePerAge */\n      sload(0x06)\n        /* \"contracts/fatcat/marketplace.sol\":6013:6029  uint buyerFeeCul */\n      0x00\n        /* \"contracts/fatcat/marketplace.sol\":6041:6057  Index[listIndex] */\n      dup7\n      dup2\n      mstore\n        /* \"contracts/fatcat/marketplace.sol\":6041:6046  Index */\n      0x0e\n        /* \"contracts/fatcat/marketplace.sol\":6041:6057  Index[listIndex] */\n      0x20\n      swap1\n      dup2\n      mstore\n      0x40\n      dup1\n      dup4\n      keccak256\n        /* \"contracts/fatcat/marketplace.sol\":6041:6073  Index[listIndex].contractAddress */\n      dup1\n      sload\n      sub(shl(0xa0, 0x01), 0x01)\n      and\n        /* \"contracts/fatcat/marketplace.sol\":6034:6074  _items[Index[listIndex].contractAddress] */\n      dup5\n      mstore\n        /* \"contracts/fatcat/marketplace.sol\":6034:6040  _items */\n      0x0d\n        /* \"contracts/fatcat/marketplace.sol\":6034:6074  _items[Index[listIndex].contractAddress] */\n      dup4\n      mstore\n      dup2\n      dup5\n      keccak256\n        /* \"contracts/fatcat/marketplace.sol\":6041:6073  Index[listIndex].contractAddress */\n      0x01\n        /* \"contracts/fatcat/marketplace.sol\":6075:6099  Index[listIndex].TokenId */\n      swap1\n      swap2\n      add\n      sload\n        /* \"contracts/fatcat/marketplace.sol\":6034:6100  _items[Index[listIndex].contractAddress][Index[listIndex].TokenId] */\n      dup5\n      mstore\n      swap1\n      swap2\n      mstore\n      dup2\n      keccak256\n        /* \"contracts/fatcat/marketplace.sol\":6034:6106  _items[Index[listIndex].contractAddress][Index[listIndex].TokenId].price */\n      0x03\n      add\n      sload\n        /* \"contracts/fatcat/marketplace.sol\":6013:6029  uint buyerFeeCul */\n      swap1\n      swap2\n        /* \"contracts/fatcat/marketplace.sol\":6127:6131  1000 */\n      0x03e8\n      swap2\n        /* \"contracts/fatcat/marketplace.sol\":6034:6123  _items[Index[listIndex].contractAddress][Index[listIndex].TokenId].price * buyerFeePerAge */\n      tag_162\n      swap2\n        /* \"contracts/fatcat/marketplace.sol\":6109:6123  buyerFeePerAge */\n      swap1\n        /* \"contracts/fatcat/marketplace.sol\":6034:6123  _items[Index[listIndex].contractAddress][Index[listIndex].TokenId].price * buyerFeePerAge */\n      tag_144\n      jump\t// in\n    tag_162:\n        /* \"contracts/fatcat/marketplace.sol\":6033:6131  (_items[Index[listIndex].contractAddress][Index[listIndex].TokenId].price * buyerFeePerAge) / 1000 */\n      tag_163\n      swap2\n      swap1\n      tag_146\n      jump\t// in\n    tag_163:\n        /* \"contracts/fatcat/marketplace.sol\":6237:6252  sellerFeePerAge */\n      sload(0x05)\n        /* \"contracts/fatcat/marketplace.sol\":6141:6158  uint sellerFeeCul */\n      0x00\n        /* \"contracts/fatcat/marketplace.sol\":6169:6185  Index[listIndex] */\n      dup9\n      dup2\n      mstore\n        /* \"contracts/fatcat/marketplace.sol\":6169:6174  Index */\n      0x0e\n        /* \"contracts/fatcat/marketplace.sol\":6169:6185  Index[listIndex] */\n      0x20\n      swap1\n      dup2\n      mstore\n      0x40\n      dup1\n      dup4\n      keccak256\n        /* \"contracts/fatcat/marketplace.sol\":6169:6201  Index[listIndex].contractAddress */\n      dup1\n      sload\n      sub(shl(0xa0, 0x01), 0x01)\n      and\n        /* \"contracts/fatcat/marketplace.sol\":6162:6202  _items[Index[listIndex].contractAddress] */\n      dup5\n      mstore\n        /* \"contracts/fatcat/marketplace.sol\":6162:6168  _items */\n      0x0d\n        /* \"contracts/fatcat/marketplace.sol\":6162:6202  _items[Index[listIndex].contractAddress] */\n      dup4\n      mstore\n      dup2\n      dup5\n      keccak256\n        /* \"contracts/fatcat/marketplace.sol\":6169:6201  Index[listIndex].contractAddress */\n      0x01\n        /* \"contracts/fatcat/marketplace.sol\":6203:6227  Index[listIndex].TokenId */\n      swap1\n      swap2\n      add\n      sload\n        /* \"contracts/fatcat/marketplace.sol\":6162:6228  _items[Index[listIndex].contractAddress][Index[listIndex].TokenId] */\n      dup5\n      mstore\n      swap1\n      swap2\n      mstore\n      dup2\n      keccak256\n        /* \"contracts/fatcat/marketplace.sol\":6162:6234  _items[Index[listIndex].contractAddress][Index[listIndex].TokenId].price */\n      0x03\n      add\n      sload\n        /* \"contracts/fatcat/marketplace.sol\":6013:6131  uint buyerFeeCul =  (_items[Index[listIndex].contractAddress][Index[listIndex].TokenId].price * buyerFeePerAge) / 1000 */\n      swap3\n      swap4\n      pop\n        /* \"contracts/fatcat/marketplace.sol\":6141:6158  uint sellerFeeCul */\n      swap2\n        /* \"contracts/fatcat/marketplace.sol\":6256:6260  1000 */\n      0x03e8\n      swap2\n        /* \"contracts/fatcat/marketplace.sol\":6162:6252  _items[Index[listIndex].contractAddress][Index[listIndex].TokenId].price * sellerFeePerAge */\n      tag_164\n      swap2\n      tag_144\n      jump\t// in\n    tag_164:\n        /* \"contracts/fatcat/marketplace.sol\":6161:6260  (_items[Index[listIndex].contractAddress][Index[listIndex].TokenId].price * sellerFeePerAge) / 1000 */\n      tag_165\n      swap2\n      swap1\n      tag_146\n      jump\t// in\n    tag_165:\n        /* \"contracts/fatcat/marketplace.sol\":6270:6287  uint artistFeePer */\n      0x00\n        /* \"contracts/fatcat/marketplace.sol\":6297:6313  Index[listIndex] */\n      dup9\n      dup2\n      mstore\n        /* \"contracts/fatcat/marketplace.sol\":6297:6302  Index */\n      0x0e\n        /* \"contracts/fatcat/marketplace.sol\":6297:6313  Index[listIndex] */\n      0x20\n      swap1\n      dup2\n      mstore\n      0x40\n      dup1\n      dup4\n      keccak256\n        /* \"contracts/fatcat/marketplace.sol\":6297:6329  Index[listIndex].contractAddress */\n      dup1\n      sload\n      sub(shl(0xa0, 0x01), 0x01)\n      swap1\n      dup2\n      and\n        /* \"contracts/fatcat/marketplace.sol\":6290:6330  _items[Index[listIndex].contractAddress] */\n      dup6\n      mstore\n        /* \"contracts/fatcat/marketplace.sol\":6290:6296  _items */\n      0x0d\n        /* \"contracts/fatcat/marketplace.sol\":6290:6330  _items[Index[listIndex].contractAddress] */\n      dup1\n      dup6\n      mstore\n      dup4\n      dup7\n      keccak256\n        /* \"contracts/fatcat/marketplace.sol\":6297:6329  Index[listIndex].contractAddress */\n      0x01\n        /* \"contracts/fatcat/marketplace.sol\":6331:6355  Index[listIndex].TokenId */\n      swap1\n      swap4\n      add\n      sload\n        /* \"contracts/fatcat/marketplace.sol\":6290:6356  _items[Index[listIndex].contractAddress][Index[listIndex].TokenId] */\n      dup7\n      mstore\n      swap2\n      dup5\n      mstore\n      dup3\n      dup6\n      keccak256\n        /* \"contracts/fatcat/marketplace.sol\":6290:6372  _items[Index[listIndex].contractAddress][Index[listIndex].TokenId].artistFeePerAge */\n      0x06\n      add\n      sload\n        /* \"contracts/fatcat/marketplace.sol\":6400:6423  _items[contractAddress] */\n      swap1\n      dup12\n      and\n      dup6\n      mstore\n      swap1\n      dup4\n      mstore\n      dup2\n      dup5\n      keccak256\n        /* \"contracts/fatcat/marketplace.sol\":6400:6432  _items[contractAddress][tokenId] */\n      dup10\n      dup6\n      mstore\n      swap1\n      swap3\n      mstore\n      dup3\n      keccak256\n        /* \"contracts/fatcat/marketplace.sol\":6400:6438  _items[contractAddress][tokenId].price */\n      0x03\n      add\n      sload\n        /* \"contracts/fatcat/marketplace.sol\":6141:6260  uint sellerFeeCul = (_items[Index[listIndex].contractAddress][Index[listIndex].TokenId].price * sellerFeePerAge) / 1000 */\n      swap3\n      swap4\n      pop\n        /* \"contracts/fatcat/marketplace.sol\":6290:6372  _items[Index[listIndex].contractAddress][Index[listIndex].TokenId].artistFeePerAge */\n      swap2\n        /* \"contracts/fatcat/marketplace.sol\":6457:6460  100 */\n      0x64\n      swap1\n        /* \"contracts/fatcat/marketplace.sol\":6400:6453  _items[contractAddress][tokenId].price * artistFeePer */\n      tag_166\n      swap1\n        /* \"contracts/fatcat/marketplace.sol\":6290:6372  _items[Index[listIndex].contractAddress][Index[listIndex].TokenId].artistFeePerAge */\n      dup5\n      swap1\n        /* \"contracts/fatcat/marketplace.sol\":6400:6453  _items[contractAddress][tokenId].price * artistFeePer */\n      tag_144\n      jump\t// in\n    tag_166:\n        /* \"contracts/fatcat/marketplace.sol\":6399:6460  (_items[contractAddress][tokenId].price * artistFeePer) / 100 */\n      tag_167\n      swap2\n      swap1\n      tag_146\n      jump\t// in\n    tag_167:\n        /* \"contracts/fatcat/marketplace.sol\":6382:6460  uint artistFee = (_items[contractAddress][tokenId].price * artistFeePer) / 100 */\n      swap1\n      pop\n        /* \"contracts/fatcat/marketplace.sol\":6470:6487  uint sellerAmount */\n      0x00\n        /* \"contracts/fatcat/marketplace.sol\":6558:6570  sellerFeeCul */\n      dup4\n        /* \"contracts/fatcat/marketplace.sol\":6532:6555  artistFee + buyerFeeCul */\n      tag_168\n        /* \"contracts/fatcat/marketplace.sol\":6544:6555  buyerFeeCul */\n      dup7\n        /* \"contracts/fatcat/marketplace.sol\":6382:6460  uint artistFee = (_items[contractAddress][tokenId].price * artistFeePer) / 100 */\n      dup5\n        /* \"contracts/fatcat/marketplace.sol\":6532:6555  artistFee + buyerFeeCul */\n      tag_151\n      jump\t// in\n    tag_168:\n        /* \"contracts/fatcat/marketplace.sol\":6532:6570  artistFee + buyerFeeCul + sellerFeeCul */\n      tag_169\n      swap2\n      swap1\n      tag_151\n      jump\t// in\n    tag_169:\n      sub(shl(0xa0, 0x01), 0x01)\n        /* \"contracts/fatcat/marketplace.sol\":6490:6513  _items[contractAddress] */\n      dup10\n      and\n      0x00\n      swap1\n      dup2\n      mstore\n        /* \"contracts/fatcat/marketplace.sol\":6490:6496  _items */\n      0x0d\n        /* \"contracts/fatcat/marketplace.sol\":6490:6513  _items[contractAddress] */\n      0x20\n      swap1\n      dup2\n      mstore\n      0x40\n      dup1\n      dup4\n      keccak256\n        /* \"contracts/fatcat/marketplace.sol\":6490:6522  _items[contractAddress][tokenId] */\n      dup12\n      dup5\n      mstore\n      swap1\n      swap2\n      mstore\n      swap1\n      keccak256\n        /* \"contracts/fatcat/marketplace.sol\":6490:6528  _items[contractAddress][tokenId].price */\n      0x03\n      add\n      sload\n        /* \"contracts/fatcat/marketplace.sol\":6490:6571  _items[contractAddress][tokenId].price - (artistFee + buyerFeeCul + sellerFeeCul) */\n      tag_170\n      swap2\n      swap1\n      tag_171\n      jump\t// in\n    tag_170:\n        /* \"contracts/fatcat/marketplace.sol\":6590:6630  _items[Index[listIndex].contractAddress] */\n      0x00\n        /* \"contracts/fatcat/marketplace.sol\":6597:6613  Index[listIndex] */\n      dup12\n      dup2\n      mstore\n        /* \"contracts/fatcat/marketplace.sol\":6597:6602  Index */\n      0x0e\n        /* \"contracts/fatcat/marketplace.sol\":6597:6613  Index[listIndex] */\n      0x20\n      swap1\n      dup2\n      mstore\n      0x40\n      dup1\n      dup4\n      keccak256\n        /* \"contracts/fatcat/marketplace.sol\":6597:6629  Index[listIndex].contractAddress */\n      dup1\n      sload\n      sub(shl(0xa0, 0x01), 0x01)\n      swap1\n      dup2\n      and\n        /* \"contracts/fatcat/marketplace.sol\":6590:6630  _items[Index[listIndex].contractAddress] */\n      dup6\n      mstore\n        /* \"contracts/fatcat/marketplace.sol\":6590:6596  _items */\n      0x0d\n        /* \"contracts/fatcat/marketplace.sol\":6590:6630  _items[Index[listIndex].contractAddress] */\n      dup5\n      mstore\n      dup3\n      dup6\n      keccak256\n        /* \"contracts/fatcat/marketplace.sol\":6597:6629  Index[listIndex].contractAddress */\n      0x01\n        /* \"contracts/fatcat/marketplace.sol\":6631:6655  Index[listIndex].TokenId */\n      swap3\n      dup4\n      add\n      sload\n        /* \"contracts/fatcat/marketplace.sol\":6590:6656  _items[Index[listIndex].contractAddress][Index[listIndex].TokenId] */\n      dup7\n      mstore\n      swap1\n      swap4\n      mstore\n      dup2\n      dup5\n      keccak256\n        /* \"contracts/fatcat/marketplace.sol\":6590:6663  _items[Index[listIndex].contractAddress][Index[listIndex].TokenId].seller */\n      add\n      sload\n        /* \"contracts/fatcat/marketplace.sol\":6582:6687  payable(_items[Index[listIndex].contractAddress][Index[listIndex].TokenId].seller).transfer(sellerAmount) */\n      swap1\n      mload\n        /* \"contracts/fatcat/marketplace.sol\":6470:6571  uint sellerAmount = _items[contractAddress][tokenId].price - (artistFee + buyerFeeCul + sellerFeeCul) */\n      swap4\n      swap5\n      pop\n        /* \"contracts/fatcat/marketplace.sol\":6590:6663  _items[Index[listIndex].contractAddress][Index[listIndex].TokenId].seller */\n      and\n      swap2\n        /* \"contracts/fatcat/marketplace.sol\":6582:6687  payable(_items[Index[listIndex].contractAddress][Index[listIndex].TokenId].seller).transfer(sellerAmount) */\n      dup4\n      iszero\n      0x08fc\n      mul\n      swap2\n        /* \"contracts/fatcat/marketplace.sol\":6470:6571  uint sellerAmount = _items[contractAddress][tokenId].price - (artistFee + buyerFeeCul + sellerFeeCul) */\n      dup5\n      swap2\n        /* \"contracts/fatcat/marketplace.sol\":6582:6687  payable(_items[Index[listIndex].contractAddress][Index[listIndex].TokenId].seller).transfer(sellerAmount) */\n      swap1\n      dup2\n        /* \"contracts/fatcat/marketplace.sol\":6590:6630  _items[Index[listIndex].contractAddress] */\n      dup2\n        /* \"contracts/fatcat/marketplace.sol\":6582:6687  payable(_items[Index[listIndex].contractAddress][Index[listIndex].TokenId].seller).transfer(sellerAmount) */\n      dup2\n        /* \"contracts/fatcat/marketplace.sol\":6470:6571  uint sellerAmount = _items[contractAddress][tokenId].price - (artistFee + buyerFeeCul + sellerFeeCul) */\n      dup6\n        /* \"contracts/fatcat/marketplace.sol\":6590:6663  _items[Index[listIndex].contractAddress][Index[listIndex].TokenId].seller */\n      dup9\n        /* \"contracts/fatcat/marketplace.sol\":6582:6687  payable(_items[Index[listIndex].contractAddress][Index[listIndex].TokenId].seller).transfer(sellerAmount) */\n      dup9\n      call\n      swap4\n      pop\n      pop\n      pop\n      pop\n      iszero\n      dup1\n      iszero\n      tag_173\n      jumpi\n      returndatasize\n      0x00\n      dup1\n      returndatacopy\n      revert(0x00, returndatasize)\n    tag_173:\n      pop\n        /* \"contracts/fatcat/marketplace.sol\":6706:6746  _items[Index[listIndex].contractAddress] */\n      0x00\n        /* \"contracts/fatcat/marketplace.sol\":6713:6729  Index[listIndex] */\n      dup11\n      dup2\n      mstore\n        /* \"contracts/fatcat/marketplace.sol\":6713:6718  Index */\n      0x0e\n        /* \"contracts/fatcat/marketplace.sol\":6713:6729  Index[listIndex] */\n      0x20\n      swap1\n      dup2\n      mstore\n      0x40\n      dup1\n      dup4\n      keccak256\n        /* \"contracts/fatcat/marketplace.sol\":6713:6745  Index[listIndex].contractAddress */\n      dup1\n      sload\n      sub(shl(0xa0, 0x01), 0x01)\n      swap1\n      dup2\n      and\n        /* \"contracts/fatcat/marketplace.sol\":6706:6746  _items[Index[listIndex].contractAddress] */\n      dup6\n      mstore\n        /* \"contracts/fatcat/marketplace.sol\":6706:6712  _items */\n      0x0d\n        /* \"contracts/fatcat/marketplace.sol\":6706:6746  _items[Index[listIndex].contractAddress] */\n      dup5\n      mstore\n      dup3\n      dup6\n      keccak256\n        /* \"contracts/fatcat/marketplace.sol\":6713:6745  Index[listIndex].contractAddress */\n      0x01\n        /* \"contracts/fatcat/marketplace.sol\":6747:6771  Index[listIndex].TokenId */\n      swap1\n      swap3\n      add\n      sload\n        /* \"contracts/fatcat/marketplace.sol\":6706:6772  _items[Index[listIndex].contractAddress][Index[listIndex].TokenId] */\n      dup6\n      mstore\n      swap3\n      mstore\n      dup1\n      dup4\n      keccak256\n        /* \"contracts/fatcat/marketplace.sol\":6706:6779  _items[Index[listIndex].contractAddress][Index[listIndex].TokenId].artist */\n      0x05\n      add\n      sload\n        /* \"contracts/fatcat/marketplace.sol\":6697:6800  payable (_items[Index[listIndex].contractAddress][Index[listIndex].TokenId].artist).transfer(artistFee) */\n      swap1\n      mload\n        /* \"contracts/fatcat/marketplace.sol\":6713:6745  Index[listIndex].contractAddress */\n      0x0100\n        /* \"contracts/fatcat/marketplace.sol\":6706:6779  _items[Index[listIndex].contractAddress][Index[listIndex].TokenId].artist */\n      swap1\n      swap2\n      div\n      swap1\n      swap2\n      and\n      swap2\n        /* \"contracts/fatcat/marketplace.sol\":6697:6800  payable (_items[Index[listIndex].contractAddress][Index[listIndex].TokenId].artist).transfer(artistFee) */\n      dup5\n      iszero\n      0x08fc\n      mul\n      swap2\n        /* \"contracts/fatcat/marketplace.sol\":6790:6799  artistFee */\n      dup6\n      swap2\n        /* \"contracts/fatcat/marketplace.sol\":6697:6800  payable (_items[Index[listIndex].contractAddress][Index[listIndex].TokenId].artist).transfer(artistFee) */\n      dup2\n        /* \"contracts/fatcat/marketplace.sol\":6706:6746  _items[Index[listIndex].contractAddress] */\n      dup2\n        /* \"contracts/fatcat/marketplace.sol\":6697:6800  payable (_items[Index[listIndex].contractAddress][Index[listIndex].TokenId].artist).transfer(artistFee) */\n      dup2\n        /* \"contracts/fatcat/marketplace.sol\":6790:6799  artistFee */\n      dup6\n        /* \"contracts/fatcat/marketplace.sol\":6706:6779  _items[Index[listIndex].contractAddress][Index[listIndex].TokenId].artist */\n      dup9\n        /* \"contracts/fatcat/marketplace.sol\":6697:6800  payable (_items[Index[listIndex].contractAddress][Index[listIndex].TokenId].artist).transfer(artistFee) */\n      dup9\n      call\n      swap4\n      pop\n      pop\n      pop\n      pop\n      iszero\n      dup1\n      iszero\n      tag_175\n      jumpi\n      returndatasize\n      0x00\n      dup1\n      returndatacopy\n      revert(0x00, returndatasize)\n    tag_175:\n      pop\n        /* \"@openzeppelin/contracts/access/Ownable.sol\":1684:1691  address */\n      0x00\n        /* \"@openzeppelin/contracts/access/Ownable.sol\":1710:1716  _owner */\n      dup1\n      sload\n        /* \"contracts/fatcat/marketplace.sol\":6810:6848  payable(owner()).transfer(buyerFeeCul) */\n      mload(0x40)\n      sub(shl(0xa0, 0x01), 0x01)\n        /* \"@openzeppelin/contracts/access/Ownable.sol\":1710:1716  _owner */\n      swap1\n      swap2\n      and\n      swap2\n        /* \"contracts/fatcat/marketplace.sol\":6810:6848  payable(owner()).transfer(buyerFeeCul) */\n      dup8\n      iszero\n      0x08fc\n      mul\n      swap2\n        /* \"contracts/fatcat/marketplace.sol\":6836:6847  buyerFeeCul */\n      dup9\n      swap2\n        /* \"contracts/fatcat/marketplace.sol\":6810:6848  payable(owner()).transfer(buyerFeeCul) */\n      dup2\n        /* \"@openzeppelin/contracts/access/Ownable.sol\":1684:1691  address */\n      dup2\n        /* \"contracts/fatcat/marketplace.sol\":6810:6848  payable(owner()).transfer(buyerFeeCul) */\n      dup2\n        /* \"contracts/fatcat/marketplace.sol\":6836:6847  buyerFeeCul */\n      dup6\n        /* \"@openzeppelin/contracts/access/Ownable.sol\":1710:1716  _owner */\n      dup9\n        /* \"contracts/fatcat/marketplace.sol\":6810:6848  payable(owner()).transfer(buyerFeeCul) */\n      dup9\n      call\n      swap4\n      pop\n      pop\n      pop\n      pop\n      iszero\n      dup1\n      iszero\n      tag_178\n      jumpi\n      returndatasize\n      0x00\n      dup1\n      returndatacopy\n      revert(0x00, returndatasize)\n    tag_178:\n      pop\n        /* \"@openzeppelin/contracts/access/Ownable.sol\":1684:1691  address */\n      0x00\n        /* \"@openzeppelin/contracts/access/Ownable.sol\":1710:1716  _owner */\n      dup1\n      sload\n        /* \"contracts/fatcat/marketplace.sol\":6858:6900  payable(owner()).transfer(memberPerAgeCal) */\n      mload(0x40)\n      sub(shl(0xa0, 0x01), 0x01)\n        /* \"@openzeppelin/contracts/access/Ownable.sol\":1710:1716  _owner */\n      swap1\n      swap2\n      and\n      swap2\n        /* \"contracts/fatcat/marketplace.sol\":6858:6900  payable(owner()).transfer(memberPerAgeCal) */\n      dup9\n      iszero\n      0x08fc\n      mul\n      swap2\n        /* \"contracts/fatcat/marketplace.sol\":6884:6899  memberPerAgeCal */\n      dup10\n      swap2\n        /* \"contracts/fatcat/marketplace.sol\":6858:6900  payable(owner()).transfer(memberPerAgeCal) */\n      dup2\n        /* \"@openzeppelin/contracts/access/Ownable.sol\":1684:1691  address */\n      dup2\n        /* \"contracts/fatcat/marketplace.sol\":6858:6900  payable(owner()).transfer(memberPerAgeCal) */\n      dup2\n        /* \"contracts/fatcat/marketplace.sol\":6884:6899  memberPerAgeCal */\n      dup6\n        /* \"@openzeppelin/contracts/access/Ownable.sol\":1710:1716  _owner */\n      dup9\n        /* \"contracts/fatcat/marketplace.sol\":6858:6900  payable(owner()).transfer(memberPerAgeCal) */\n      dup9\n      call\n      swap4\n      pop\n      pop\n      pop\n      pop\n      iszero\n      dup1\n      iszero\n      tag_181\n      jumpi\n      returndatasize\n      0x00\n      dup1\n      returndatacopy\n      revert(0x00, returndatasize)\n    tag_181:\n      pop\n      sub(shl(0xa0, 0x01), 0x01)\n        /* \"contracts/fatcat/marketplace.sol\":6910:6933  _items[contractAddress] */\n      dup9\n      and\n        /* \"contracts/fatcat/marketplace.sol\":6952:6957  false */\n      0x00\n        /* \"contracts/fatcat/marketplace.sol\":6910:6933  _items[contractAddress] */\n      swap1\n      dup2\n      mstore\n        /* \"contracts/fatcat/marketplace.sol\":6910:6916  _items */\n      0x0d\n        /* \"contracts/fatcat/marketplace.sol\":6910:6933  _items[contractAddress] */\n      0x20\n      swap1\n      dup2\n      mstore\n      0x40\n      dup1\n      dup4\n      keccak256\n        /* \"contracts/fatcat/marketplace.sol\":6910:6942  _items[contractAddress][tokenId] */\n      dup11\n      dup5\n      mstore\n      swap1\n      swap2\n      mstore\n      dup2\n      keccak256\n        /* \"contracts/fatcat/marketplace.sol\":6910:6949  _items[contractAddress][tokenId].listed */\n      0x05\n      dup2\n      add\n        /* \"contracts/fatcat/marketplace.sol\":6910:6957  _items[contractAddress][tokenId].listed = false */\n      dup1\n      sload\n      not(0xff)\n      and\n      swap1\n      sstore\n        /* \"contracts/fatcat/marketplace.sol\":7024:7062  _items[contractAddress][tokenId].count */\n      0x04\n      add\n        /* \"contracts/fatcat/marketplace.sol\":7024:7064  _items[contractAddress][tokenId].count++ */\n      dup1\n      sload\n      swap2\n      tag_182\n      dup4\n      tag_183\n      jump\t// in\n    tag_182:\n      swap2\n      swap1\n      pop\n      sstore\n      pop\n        /* \"contracts/fatcat/marketplace.sol\":7093:7098  Index */\n      0x0e\n        /* \"contracts/fatcat/marketplace.sol\":7093:7118  Index[_itemIds.current()] */\n      0x00\n        /* \"contracts/fatcat/marketplace.sol\":7099:7117  _itemIds.current() */\n      tag_184\n        /* \"contracts/fatcat/marketplace.sol\":7099:7107  _itemIds */\n      0x01\n        /* \"@openzeppelin/contracts/utils/Counters.sol\":918:932  counter._value */\n      sload\n      swap1\n        /* \"@openzeppelin/contracts/utils/Counters.sol\":827:939  function current(Counter storage counter) internal view returns (uint256) {... */\n      jump\n        /* \"contracts/fatcat/marketplace.sol\":7099:7117  _itemIds.current() */\n    tag_184:\n        /* \"contracts/fatcat/marketplace.sol\":7093:7118  Index[_itemIds.current()] */\n      dup2\n      mstore\n      0x20\n      dup1\n      dup3\n      add\n      swap3\n      swap1\n      swap3\n      mstore\n      0x40\n      swap1\n      dup2\n      add\n      0x00\n      swap1\n      dup2\n      keccak256\n        /* \"contracts/fatcat/marketplace.sol\":7075:7091  Index[listIndex] */\n      dup14\n      dup3\n      mstore\n        /* \"contracts/fatcat/marketplace.sol\":7075:7080  Index */\n      0x0e\n        /* \"contracts/fatcat/marketplace.sol\":7075:7091  Index[listIndex] */\n      swap1\n      swap4\n      mstore\n      keccak256\n        /* \"contracts/fatcat/marketplace.sol\":7075:7118  Index[listIndex]= Index[_itemIds.current()] */\n      dup2\n      sload\n      dup2\n      sload\n      not(sub(shl(0xa0, 0x01), 0x01))\n      and\n      sub(shl(0xa0, 0x01), 0x01)\n      swap1\n      swap2\n      and\n      or\n      dup2\n      sstore\n      0x01\n      swap2\n      dup3\n      add\n      sload\n      swap1\n      dup3\n      add\n      sstore\n        /* \"contracts/fatcat/marketplace.sol\":7128:7148  _itemIds.decrement() */\n      tag_186\n      swap1\n        /* \"contracts/fatcat/marketplace.sol\":7128:7146  _itemIds.decrement */\n      tag_187\n        /* \"contracts/fatcat/marketplace.sol\":7128:7148  _itemIds.decrement() */\n      jump\t// in\n    tag_186:\n        /* \"contracts/fatcat/marketplace.sol\":7167:7207  _items[Index[listIndex].contractAddress] */\n      0x00\n        /* \"contracts/fatcat/marketplace.sol\":7174:7190  Index[listIndex] */\n      dup11\n      dup2\n      mstore\n        /* \"contracts/fatcat/marketplace.sol\":7174:7179  Index */\n      0x0e\n        /* \"contracts/fatcat/marketplace.sol\":7174:7190  Index[listIndex] */\n      0x20\n      swap1\n      dup2\n      mstore\n      0x40\n      dup1\n      dup4\n      keccak256\n        /* \"contracts/fatcat/marketplace.sol\":7174:7206  Index[listIndex].contractAddress */\n      dup1\n      sload\n      sub(shl(0xa0, 0x01), 0x01)\n      swap1\n      dup2\n      and\n        /* \"contracts/fatcat/marketplace.sol\":7167:7207  _items[Index[listIndex].contractAddress] */\n      dup6\n      mstore\n        /* \"contracts/fatcat/marketplace.sol\":7167:7173  _items */\n      0x0d\n        /* \"contracts/fatcat/marketplace.sol\":7167:7207  _items[Index[listIndex].contractAddress] */\n      dup5\n      mstore\n      dup3\n      dup6\n      keccak256\n        /* \"contracts/fatcat/marketplace.sol\":7174:7206  Index[listIndex].contractAddress */\n      0x01\n        /* \"contracts/fatcat/marketplace.sol\":7208:7232  Index[listIndex].TokenId */\n      swap1\n      swap3\n      add\n      sload\n        /* \"contracts/fatcat/marketplace.sol\":7167:7233  _items[Index[listIndex].contractAddress][Index[listIndex].TokenId] */\n      dup6\n      mstore\n      swap1\n      dup4\n      mstore\n      swap3\n      dup2\n      swap1\n      keccak256\n        /* \"contracts/fatcat/marketplace.sol\":7167:7240  _items[Index[listIndex].contractAddress][Index[listIndex].TokenId].artist */\n      0x05\n      dup2\n      add\n      sload\n        /* \"contracts/fatcat/marketplace.sol\":7241:7323  _items[Index[listIndex].contractAddress][Index[listIndex].TokenId].artistFeePerAge */\n      0x06\n      swap1\n      swap2\n      add\n      sload\n        /* \"contracts/fatcat/marketplace.sol\":7163:7324  Fee(_items[Index[listIndex].contractAddress][Index[listIndex].TokenId].artist,_items[Index[listIndex].contractAddress][Index[listIndex].TokenId].artistFeePerAge) */\n      dup3\n      mload\n        /* \"contracts/fatcat/marketplace.sol\":7174:7206  Index[listIndex].contractAddress */\n      0x0100\n        /* \"contracts/fatcat/marketplace.sol\":7167:7240  _items[Index[listIndex].contractAddress][Index[listIndex].TokenId].artist */\n      swap1\n      swap3\n      div\n      swap1\n      swap5\n      and\n        /* \"#utility.yul\":8456:8507   */\n      dup2\n      mstore\n        /* \"#utility.yul\":8523:8541   */\n      swap2\n      dup3\n      add\n        /* \"#utility.yul\":8516:8550   */\n      swap3\n      swap1\n      swap3\n      mstore\n        /* \"contracts/fatcat/marketplace.sol\":7163:7324  Fee(_items[Index[listIndex].contractAddress][Index[listIndex].TokenId].artist,_items[Index[listIndex].contractAddress][Index[listIndex].TokenId].artistFeePerAge) */\n      0x7bd3aa7d673767f759ebf216e7f6c12844986c661ae6e0f1d988cf7eb7394d1d\n      swap2\n        /* \"#utility.yul\":8429:8447   */\n      add\n        /* \"contracts/fatcat/marketplace.sol\":7163:7324  Fee(_items[Index[listIndex].contractAddress][Index[listIndex].TokenId].artist,_items[Index[listIndex].contractAddress][Index[listIndex].TokenId].artistFeePerAge) */\n      mload(0x40)\n      dup1\n      swap2\n      sub\n      swap1\n      log1\n      sub(shl(0xa0, 0x01), 0x01)\n        /* \"contracts/fatcat/marketplace.sol\":7347:7370  _items[contractAddress] */\n      dup9\n      dup2\n      and\n      0x00\n      swap1\n      dup2\n      mstore\n        /* \"contracts/fatcat/marketplace.sol\":7347:7353  _items */\n      0x0d\n        /* \"contracts/fatcat/marketplace.sol\":7347:7370  _items[contractAddress] */\n      0x20\n      swap1\n      dup2\n      mstore\n      0x40\n      dup1\n      dup4\n      keccak256\n        /* \"contracts/fatcat/marketplace.sol\":7347:7379  _items[contractAddress][tokenId] */\n      dup12\n      dup5\n      mstore\n      dup3\n      mstore\n      swap2\n      dup3\n      swap1\n      keccak256\n        /* \"contracts/fatcat/marketplace.sol\":7347:7387  _items[contractAddress][tokenId].tokenId */\n      dup1\n      sload\n        /* \"contracts/fatcat/marketplace.sol\":7398:7437  _items[contractAddress][tokenId].seller */\n      0x01\n      swap1\n      swap2\n      add\n      sload\n        /* \"contracts/fatcat/marketplace.sol\":7339:7489  NFTSold(_items[contractAddress][tokenId].tokenId ,... */\n      dup4\n      mload\n        /* \"#utility.yul\":11831:11856   */\n      swap2\n      dup3\n      mstore\n        /* \"contracts/fatcat/marketplace.sol\":7398:7437  _items[contractAddress][tokenId].seller */\n      swap1\n      swap4\n      and\n        /* \"#utility.yul\":11872:11890   */\n      swap1\n      dup4\n      add\n        /* \"#utility.yul\":11865:11925   */\n      mstore\n        /* \"contracts/fatcat/marketplace.sol\":7447:7457  msg.sender */\n      caller\n        /* \"#utility.yul\":11941:11959   */\n      dup3\n      dup3\n      add\n        /* \"#utility.yul\":11934:11994   */\n      mstore\n        /* \"#utility.yul\":12025:12027   */\n      0x60\n        /* \"#utility.yul\":12010:12028   */\n      dup3\n      add\n        /* \"#utility.yul\":12003:12037   */\n      dup4\n      swap1\n      mstore\n        /* \"contracts/fatcat/marketplace.sol\":7473:7488  block.timestamp */\n      timestamp\n        /* \"#utility.yul\":12068:12071   */\n      0x80\n        /* \"#utility.yul\":12053:12072   */\n      dup4\n      add\n        /* \"#utility.yul\":12046:12081   */\n      mstore\n        /* \"contracts/fatcat/marketplace.sol\":7339:7489  NFTSold(_items[contractAddress][tokenId].tokenId ,... */\n      mload\n      0x5fafad85dec201c2e73b6a2bef6351129304a624ea8720ecd04cd7f04d83bc39\n      swap2\n      dup2\n      swap1\n      sub\n        /* \"#utility.yul\":11818:11821   */\n      0xa0\n        /* \"contracts/fatcat/marketplace.sol\":7339:7489  NFTSold(_items[contractAddress][tokenId].tokenId ,... */\n      add\n      swap1\n      log1\n        /* \"contracts/fatcat/marketplace.sol\":4663:7496  { ... */\n      pop\n      pop\n      pop\n      pop\n      pop\n      pop\n      pop\n      pop\n        /* \"contracts/fatcat/marketplace.sol\":4600:7496  function Buy(uint listIndex, memberShip choice) public payable { ... */\n      pop\n      pop\n      jump\t// out\n        /* \"@openzeppelin/contracts/access/Ownable.sol\":2293:2394  function renounceOwnership() public virtual onlyOwner {... */\n    tag_51:\n        /* \"@openzeppelin/contracts/access/Ownable.sol\":1531:1544  _checkOwner() */\n      tag_192\n        /* \"@openzeppelin/contracts/access/Ownable.sol\":1531:1542  _checkOwner */\n      tag_193\n        /* \"@openzeppelin/contracts/access/Ownable.sol\":1531:1544  _checkOwner() */\n      jump\t// in\n    tag_192:\n        /* \"@openzeppelin/contracts/access/Ownable.sol\":2357:2387  _transferOwnership(address(0)) */\n      tag_195\n        /* \"@openzeppelin/contracts/access/Ownable.sol\":2384:2385  0 */\n      0x00\n        /* \"@openzeppelin/contracts/access/Ownable.sol\":2357:2375  _transferOwnership */\n      tag_196\n        /* \"@openzeppelin/contracts/access/Ownable.sol\":2357:2387  _transferOwnership(address(0)) */\n      jump\t// in\n    tag_195:\n        /* \"@openzeppelin/contracts/access/Ownable.sol\":2293:2394  function renounceOwnership() public virtual onlyOwner {... */\n      jump\t// out\n        /* \"contracts/fatcat/marketplace.sol\":3910:4593  function listItem( address mintContract , uint _tokenId, string memory uri, uint256 price, address artist) public {... */\n    tag_61:\n        /* \"contracts/fatcat/marketplace.sol\":4034:4054  _itemIds.increment() */\n      tag_198\n        /* \"contracts/fatcat/marketplace.sol\":4034:4042  _itemIds */\n      0x01\n        /* \"@openzeppelin/contracts/utils/Counters.sol\":1032:1051  counter._value += 1 */\n      dup1\n      sload\n        /* \"@openzeppelin/contracts/utils/Counters.sol\":1050:1051  1 */\n      0x01\n        /* \"@openzeppelin/contracts/utils/Counters.sol\":1032:1051  counter._value += 1 */\n      add\n      swap1\n      sstore\n        /* \"@openzeppelin/contracts/utils/Counters.sol\":945:1068  function increment(Counter storage counter) internal {... */\n      jump\n        /* \"contracts/fatcat/marketplace.sol\":4034:4054  _itemIds.increment() */\n    tag_198:\n        /* \"contracts/fatcat/marketplace.sol\":4124:4274  NFTlist( _tokenId,msg.sender,address(this), price,_items[mintContract][_tokenId].count ,true , artist ,artistFeePerAge,sellerFeePerAge,buyerFeePerAge) */\n      mload(0x40)\n      dup1\n      0x0140\n      add\n      0x40\n      mstore\n      dup1\n        /* \"contracts/fatcat/marketplace.sol\":4133:4141  _tokenId */\n      dup6\n        /* \"contracts/fatcat/marketplace.sol\":4124:4274  NFTlist( _tokenId,msg.sender,address(this), price,_items[mintContract][_tokenId].count ,true , artist ,artistFeePerAge,sellerFeePerAge,buyerFeePerAge) */\n      dup2\n      mstore\n      0x20\n      add\n        /* \"contracts/fatcat/marketplace.sol\":4142:4152  msg.sender */\n      caller\n      sub(shl(0xa0, 0x01), 0x01)\n        /* \"contracts/fatcat/marketplace.sol\":4124:4274  NFTlist( _tokenId,msg.sender,address(this), price,_items[mintContract][_tokenId].count ,true , artist ,artistFeePerAge,sellerFeePerAge,buyerFeePerAge) */\n      and\n      dup2\n      mstore\n      0x20\n      add\n        /* \"contracts/fatcat/marketplace.sol\":4161:4165  this */\n      address\n      sub(shl(0xa0, 0x01), 0x01)\n        /* \"contracts/fatcat/marketplace.sol\":4124:4274  NFTlist( _tokenId,msg.sender,address(this), price,_items[mintContract][_tokenId].count ,true , artist ,artistFeePerAge,sellerFeePerAge,buyerFeePerAge) */\n      and\n      dup2\n      mstore\n      0x20\n      add\n        /* \"contracts/fatcat/marketplace.sol\":4168:4173  price */\n      dup4\n        /* \"contracts/fatcat/marketplace.sol\":4124:4274  NFTlist( _tokenId,msg.sender,address(this), price,_items[mintContract][_tokenId].count ,true , artist ,artistFeePerAge,sellerFeePerAge,buyerFeePerAge) */\n      dup2\n      mstore\n      0x20\n      add\n        /* \"contracts/fatcat/marketplace.sol\":4174:4180  _items */\n      0x0d\n        /* \"contracts/fatcat/marketplace.sol\":4174:4194  _items[mintContract] */\n      0x00\n        /* \"contracts/fatcat/marketplace.sol\":4181:4193  mintContract */\n      dup9\n      sub(shl(0xa0, 0x01), 0x01)\n        /* \"contracts/fatcat/marketplace.sol\":4174:4194  _items[mintContract] */\n      and\n      sub(shl(0xa0, 0x01), 0x01)\n      and\n      dup2\n      mstore\n      0x20\n      add\n      swap1\n      dup2\n      mstore\n      0x20\n      add\n      0x00\n      keccak256\n        /* \"contracts/fatcat/marketplace.sol\":4174:4204  _items[mintContract][_tokenId] */\n      0x00\n        /* \"contracts/fatcat/marketplace.sol\":4195:4203  _tokenId */\n      dup8\n        /* \"contracts/fatcat/marketplace.sol\":4174:4204  _items[mintContract][_tokenId] */\n      dup2\n      mstore\n      0x20\n      add\n      swap1\n      dup2\n      mstore\n      0x20\n      add\n      0x00\n      keccak256\n        /* \"contracts/fatcat/marketplace.sol\":4174:4210  _items[mintContract][_tokenId].count */\n      0x04\n      add\n      sload\n        /* \"contracts/fatcat/marketplace.sol\":4124:4274  NFTlist( _tokenId,msg.sender,address(this), price,_items[mintContract][_tokenId].count ,true , artist ,artistFeePerAge,sellerFeePerAge,buyerFeePerAge) */\n      dup2\n      mstore\n      0x20\n      add\n        /* \"contracts/fatcat/marketplace.sol\":4212:4216  true */\n      0x01\n        /* \"contracts/fatcat/marketplace.sol\":4124:4274  NFTlist( _tokenId,msg.sender,address(this), price,_items[mintContract][_tokenId].count ,true , artist ,artistFeePerAge,sellerFeePerAge,buyerFeePerAge) */\n      iszero\n      iszero\n      dup2\n      mstore\n      0x20\n      add\n        /* \"contracts/fatcat/marketplace.sol\":4219:4225  artist */\n      dup3\n      sub(shl(0xa0, 0x01), 0x01)\n        /* \"contracts/fatcat/marketplace.sol\":4124:4274  NFTlist( _tokenId,msg.sender,address(this), price,_items[mintContract][_tokenId].count ,true , artist ,artistFeePerAge,sellerFeePerAge,buyerFeePerAge) */\n      and\n      dup2\n      mstore\n      0x20\n      add\n        /* \"contracts/fatcat/marketplace.sol\":4227:4242  artistFeePerAge */\n      sload(0x04)\n        /* \"contracts/fatcat/marketplace.sol\":4124:4274  NFTlist( _tokenId,msg.sender,address(this), price,_items[mintContract][_tokenId].count ,true , artist ,artistFeePerAge,sellerFeePerAge,buyerFeePerAge) */\n      dup2\n      mstore\n      0x20\n      add\n        /* \"contracts/fatcat/marketplace.sol\":4243:4258  sellerFeePerAge */\n      sload(0x05)\n        /* \"contracts/fatcat/marketplace.sol\":4124:4274  NFTlist( _tokenId,msg.sender,address(this), price,_items[mintContract][_tokenId].count ,true , artist ,artistFeePerAge,sellerFeePerAge,buyerFeePerAge) */\n      dup2\n      mstore\n      0x20\n      add\n        /* \"contracts/fatcat/marketplace.sol\":4259:4273  buyerFeePerAge */\n      sload(0x06)\n        /* \"contracts/fatcat/marketplace.sol\":4124:4274  NFTlist( _tokenId,msg.sender,address(this), price,_items[mintContract][_tokenId].count ,true , artist ,artistFeePerAge,sellerFeePerAge,buyerFeePerAge) */\n      dup2\n      mstore\n      pop\n        /* \"contracts/fatcat/marketplace.sol\":4092:4098  _items */\n      0x0d\n        /* \"contracts/fatcat/marketplace.sol\":4092:4112  _items[mintContract] */\n      0x00\n        /* \"contracts/fatcat/marketplace.sol\":4099:4111  mintContract */\n      dup8\n      sub(shl(0xa0, 0x01), 0x01)\n        /* \"contracts/fatcat/marketplace.sol\":4092:4112  _items[mintContract] */\n      and\n      sub(shl(0xa0, 0x01), 0x01)\n      and\n      dup2\n      mstore\n      0x20\n      add\n      swap1\n      dup2\n      mstore\n      0x20\n      add\n      0x00\n      keccak256\n        /* \"contracts/fatcat/marketplace.sol\":4092:4122  _items[mintContract][_tokenId] */\n      0x00\n        /* \"contracts/fatcat/marketplace.sol\":4113:4121  _tokenId */\n      dup7\n        /* \"contracts/fatcat/marketplace.sol\":4092:4122  _items[mintContract][_tokenId] */\n      dup2\n      mstore\n      0x20\n      add\n      swap1\n      dup2\n      mstore\n      0x20\n      add\n      0x00\n      keccak256\n        /* \"contracts/fatcat/marketplace.sol\":4092:4274  _items[mintContract][_tokenId]= NFTlist( _tokenId,msg.sender,address(this), price,_items[mintContract][_tokenId].count ,true , artist ,artistFeePerAge,sellerFeePerAge,buyerFeePerAge) */\n      0x00\n      dup3\n      add\n      mload\n      dup2\n      0x00\n      add\n      sstore\n      0x20\n      dup3\n      add\n      mload\n      dup2\n      0x01\n      add\n      exp(0x0100, 0x00)\n      dup2\n      sload\n      dup2\n      sub(shl(0xa0, 0x01), 0x01)\n      mul\n      not\n      and\n      swap1\n      dup4\n      sub(shl(0xa0, 0x01), 0x01)\n      and\n      mul\n      or\n      swap1\n      sstore\n      pop\n      0x40\n      dup3\n      add\n      mload\n      dup2\n      0x02\n      add\n      exp(0x0100, 0x00)\n      dup2\n      sload\n      dup2\n      sub(shl(0xa0, 0x01), 0x01)\n      mul\n      not\n      and\n      swap1\n      dup4\n      sub(shl(0xa0, 0x01), 0x01)\n      and\n      mul\n      or\n      swap1\n      sstore\n      pop\n      0x60\n      dup3\n      add\n      mload\n      dup2\n      0x03\n      add\n      sstore\n      0x80\n      dup3\n      add\n      mload\n      dup2\n      0x04\n      add\n      sstore\n      0xa0\n      dup3\n      add\n      mload\n      dup2\n      0x05\n      add\n      exp(0x0100, 0x00)\n      dup2\n      sload\n      dup2\n      0xff\n      mul\n      not\n      and\n      swap1\n      dup4\n      iszero\n      iszero\n      mul\n      or\n      swap1\n      sstore\n      pop\n      0xc0\n      dup3\n      add\n      mload\n      dup2\n      0x05\n      add\n      exp(0x0100, 0x01)\n      dup2\n      sload\n      dup2\n      sub(shl(0xa0, 0x01), 0x01)\n      mul\n      not\n      and\n      swap1\n      dup4\n      sub(shl(0xa0, 0x01), 0x01)\n      and\n      mul\n      or\n      swap1\n      sstore\n      pop\n      0xe0\n      dup3\n      add\n      mload\n      dup2\n      0x06\n      add\n      sstore\n      0x0100\n      dup3\n      add\n      mload\n      dup2\n      0x07\n      add\n      sstore\n      0x0120\n      dup3\n      add\n      mload\n      dup2\n      0x08\n      add\n      sstore\n      swap1\n      pop\n      pop\n        /* \"contracts/fatcat/marketplace.sol\":4312:4348  tokenAddress(mintContract,_tokenId ) */\n      mload(0x40)\n      dup1\n      0x40\n      add\n      0x40\n      mstore\n      dup1\n        /* \"contracts/fatcat/marketplace.sol\":4325:4337  mintContract */\n      dup7\n      sub(shl(0xa0, 0x01), 0x01)\n        /* \"contracts/fatcat/marketplace.sol\":4312:4348  tokenAddress(mintContract,_tokenId ) */\n      and\n      dup2\n      mstore\n      0x20\n      add\n        /* \"contracts/fatcat/marketplace.sol\":4338:4346  _tokenId */\n      dup6\n        /* \"contracts/fatcat/marketplace.sol\":4312:4348  tokenAddress(mintContract,_tokenId ) */\n      dup2\n      mstore\n      pop\n        /* \"contracts/fatcat/marketplace.sol\":4284:4289  Index */\n      0x0e\n        /* \"contracts/fatcat/marketplace.sol\":4284:4309  Index[_itemIds.current()] */\n      0x00\n        /* \"contracts/fatcat/marketplace.sol\":4290:4308  _itemIds.current() */\n      tag_201\n        /* \"contracts/fatcat/marketplace.sol\":4290:4298  _itemIds */\n      0x01\n        /* \"@openzeppelin/contracts/utils/Counters.sol\":918:932  counter._value */\n      sload\n      swap1\n        /* \"@openzeppelin/contracts/utils/Counters.sol\":827:939  function current(Counter storage counter) internal view returns (uint256) {... */\n      jump\n        /* \"contracts/fatcat/marketplace.sol\":4290:4308  _itemIds.current() */\n    tag_201:\n        /* \"contracts/fatcat/marketplace.sol\":4284:4309  Index[_itemIds.current()] */\n      dup2\n      mstore\n      0x20\n      dup1\n      dup3\n      add\n      swap3\n      swap1\n      swap3\n      mstore\n      0x40\n      swap1\n      dup2\n      add\n      0x00\n      keccak256\n        /* \"contracts/fatcat/marketplace.sol\":4284:4348  Index[_itemIds.current()] = tokenAddress(mintContract,_tokenId ) */\n      dup4\n      mload\n      dup2\n      sload\n      not(sub(shl(0xa0, 0x01), 0x01))\n      and\n      sub(shl(0xa0, 0x01), 0x01)\n      swap2\n      dup3\n      and\n      or\n      dup3\n      sstore\n      swap4\n      swap1\n      swap3\n      add\n      mload\n      0x01\n      swap1\n      swap3\n      add\n      swap2\n      swap1\n      swap2\n      sstore\n        /* \"contracts/fatcat/marketplace.sol\":4358:4426  ERC721(mintContract).transferFrom(msg.sender,address(this),_tokenId) */\n      mload\n      shl(0xe0, 0x23b872dd)\n      dup2\n      mstore\n        /* \"contracts/fatcat/marketplace.sol\":4392:4402  msg.sender */\n      caller\n        /* \"contracts/fatcat/marketplace.sol\":4358:4426  ERC721(mintContract).transferFrom(msg.sender,address(this),_tokenId) */\n      0x04\n      dup3\n      add\n        /* \"#utility.yul\":11125:11176   */\n      mstore\n        /* \"contracts/fatcat/marketplace.sol\":4411:4415  this */\n      address\n        /* \"#utility.yul\":11192:11210   */\n      0x24\n      dup3\n      add\n        /* \"#utility.yul\":11185:11245   */\n      mstore\n        /* \"#utility.yul\":11261:11279   */\n      0x44\n      dup2\n      add\n        /* \"#utility.yul\":11254:11288   */\n      dup7\n      swap1\n      mstore\n        /* \"contracts/fatcat/marketplace.sol\":4358:4391  ERC721(mintContract).transferFrom */\n      swap1\n      dup7\n      and\n      swap1\n      0x23b872dd\n      swap1\n        /* \"#utility.yul\":11098:11116   */\n      0x64\n      add\n        /* \"contracts/fatcat/marketplace.sol\":4358:4426  ERC721(mintContract).transferFrom(msg.sender,address(this),_tokenId) */\n      0x00\n      mload(0x40)\n      dup1\n      dup4\n      sub\n      dup2\n      0x00\n      dup8\n      dup1\n      extcodesize\n      iszero\n      dup1\n      iszero\n      tag_203\n      jumpi\n      0x00\n      dup1\n      revert\n    tag_203:\n      pop\n      gas\n      call\n      iszero\n      dup1\n      iszero\n      tag_205\n      jumpi\n      returndatasize\n      0x00\n      dup1\n      returndatacopy\n      revert(0x00, returndatasize)\n    tag_205:\n      pop\n      pop\n        /* \"contracts/fatcat/marketplace.sol\":4458:4493  VolumeData(price , block.timestamp) */\n      0x40\n      dup1\n      mload\n      dup1\n      dup3\n      add\n      dup3\n      mstore\n      dup6\n      dup2\n      mstore\n        /* \"contracts/fatcat/marketplace.sol\":4477:4492  block.timestamp */\n      timestamp\n        /* \"contracts/fatcat/marketplace.sol\":4458:4493  VolumeData(price , block.timestamp) */\n      0x20\n      dup1\n      dup4\n      add\n      swap2\n      dup3\n      mstore\n        /* \"contracts/fatcat/marketplace.sol\":4443:4454  totalVolume */\n      0x03\n      dup1\n      sload\n      0x00\n        /* \"contracts/fatcat/marketplace.sol\":4436:4455  Volume[totalVolume] */\n      swap1\n      dup2\n      mstore\n        /* \"contracts/fatcat/marketplace.sol\":4436:4442  Volume */\n      0x0f\n        /* \"contracts/fatcat/marketplace.sol\":4436:4455  Volume[totalVolume] */\n      swap1\n      swap3\n      mstore\n      swap4\n      dup2\n      keccak256\n        /* \"contracts/fatcat/marketplace.sol\":4436:4493  Volume[totalVolume] = VolumeData(price , block.timestamp) */\n      swap3\n      mload\n      dup4\n      sstore\n      swap1\n      mload\n      0x01\n      swap1\n      swap3\n      add\n      swap2\n      swap1\n      swap2\n      sstore\n        /* \"contracts/fatcat/marketplace.sol\":4503:4516  totalVolume++ */\n      dup2\n      sload\n      swap4\n      pop\n        /* \"contracts/fatcat/marketplace.sol\":4443:4454  totalVolume */\n      swap1\n      swap2\n      pop\n        /* \"contracts/fatcat/marketplace.sol\":4503:4516  totalVolume++ */\n      tag_206\n      dup4\n      tag_183\n      jump\t// in\n    tag_206:\n      swap1\n      swap2\n      sstore\n      pop\n      pop\n        /* \"contracts/fatcat/marketplace.sol\":4543:4551  _itemIds */\n      0x01\n        /* \"@openzeppelin/contracts/utils/Counters.sol\":918:932  counter._value */\n      sload\n        /* \"contracts/fatcat/marketplace.sol\":4563:4573  msg.sender */\n      caller\n      swap1\n        /* \"contracts/fatcat/marketplace.sol\":4531:4586  ItemCreated(_itemIds.current(), msg.sender, uri, price) */\n      0x1603f20f721362b0691bb408edb3cf01409cd56da9edd4627b178750b7dd49a8\n        /* \"contracts/fatcat/marketplace.sol\":4575:4578  uri */\n      dup6\n        /* \"contracts/fatcat/marketplace.sol\":4580:4585  price */\n      dup6\n        /* \"contracts/fatcat/marketplace.sol\":4531:4586  ItemCreated(_itemIds.current(), msg.sender, uri, price) */\n      mload(0x40)\n      tag_208\n      swap3\n      swap2\n      swap1\n      tag_209\n      jump\t// in\n    tag_208:\n      mload(0x40)\n      dup1\n      swap2\n      sub\n      swap1\n      log3\n        /* \"contracts/fatcat/marketplace.sol\":3910:4593  function listItem( address mintContract , uint _tokenId, string memory uri, uint256 price, address artist) public {... */\n      pop\n      pop\n      pop\n      pop\n      pop\n      jump\t// out\n        /* \"contracts/fatcat/marketplace.sol\":9900:10484  function getAllListedNfts() public view returns (ListedNftTokenId[] memory) { ... */\n    tag_76:\n        /* \"contracts/fatcat/marketplace.sol\":9949:9974  ListedNftTokenId[] memory */\n      0x60\n        /* \"contracts/fatcat/marketplace.sol\":9983:10000  uint listNftCount */\n      0x00\n        /* \"contracts/fatcat/marketplace.sol\":10010:10049  ListedNftTokenId[] memory getNFTtokenid */\n      dup1\n        /* \"contracts/fatcat/marketplace.sol\":10075:10093  _itemIds.current() */\n      tag_212\n        /* \"contracts/fatcat/marketplace.sol\":10075:10083  _itemIds */\n      0x01\n        /* \"@openzeppelin/contracts/utils/Counters.sol\":918:932  counter._value */\n      sload\n      swap1\n        /* \"@openzeppelin/contracts/utils/Counters.sol\":827:939  function current(Counter storage counter) internal view returns (uint256) {... */\n      jump\n        /* \"contracts/fatcat/marketplace.sol\":10075:10093  _itemIds.current() */\n    tag_212:\n        /* \"contracts/fatcat/marketplace.sol\":10052:10094  new ListedNftTokenId[](_itemIds.current()) */\n      0xffffffffffffffff\n      dup2\n      gt\n      iszero\n      tag_214\n      jumpi\n      tag_214\n      tag_215\n      jump\t// in\n    tag_214:\n      mload(0x40)\n      swap1\n      dup1\n      dup3\n      mstore\n      dup1\n      0x20\n      mul\n      0x20\n      add\n      dup3\n      add\n      0x40\n      mstore\n      dup1\n      iszero\n      tag_216\n      jumpi\n      dup2\n      0x20\n      add\n    tag_217:\n      0x40\n      dup1\n      mload\n      0x01a0\n      dup2\n      add\n      dup3\n      mstore\n      0x00\n      0x60\n      dup1\n      dup4\n      add\n      dup3\n      dup2\n      mstore\n      0x80\n      dup5\n      add\n      dup4\n      swap1\n      mstore\n      0xa0\n      dup5\n      add\n      dup4\n      swap1\n      mstore\n      0xc0\n      dup5\n      add\n      dup4\n      swap1\n      mstore\n      0xe0\n      dup5\n      add\n      dup4\n      swap1\n      mstore\n      0x0100\n      dup5\n      add\n      dup4\n      swap1\n      mstore\n      0x0120\n      dup5\n      add\n      dup4\n      swap1\n      mstore\n      0x0140\n      dup5\n      add\n      dup4\n      swap1\n      mstore\n      0x0160\n      dup5\n      add\n      dup4\n      swap1\n      mstore\n      0x0180\n      dup5\n      add\n      dup4\n      swap1\n      mstore\n      dup4\n      mstore\n      0x20\n      dup4\n      add\n      swap2\n      swap1\n      swap2\n      mstore\n      swap2\n      dup2\n      add\n      swap2\n      swap1\n      swap2\n      mstore\n      dup2\n      mstore\n      0x20\n      add\n      swap1\n      0x01\n      swap1\n      sub\n      swap1\n      dup2\n      tag_217\n      jumpi\n      swap1\n      pop\n    tag_216:\n      pop\n        /* \"contracts/fatcat/marketplace.sol\":10010:10094  ListedNftTokenId[] memory getNFTtokenid = new ListedNftTokenId[](_itemIds.current()) */\n      swap1\n      pop\n        /* \"contracts/fatcat/marketplace.sol\":10119:10120  1 */\n      0x01\n        /* \"contracts/fatcat/marketplace.sol\":10105:10452  for (uint i = 1; i <= _itemIds.current(); i++) { ... */\n    tag_220:\n        /* \"contracts/fatcat/marketplace.sol\":10127:10135  _itemIds */\n      0x01\n        /* \"@openzeppelin/contracts/utils/Counters.sol\":918:932  counter._value */\n      sload\n        /* \"contracts/fatcat/marketplace.sol\":10122:10123  i */\n      dup2\n        /* \"contracts/fatcat/marketplace.sol\":10122:10145  i <= _itemIds.current() */\n      gt\n        /* \"contracts/fatcat/marketplace.sol\":10105:10452  for (uint i = 1; i <= _itemIds.current(); i++) { ... */\n      tag_221\n      jumpi\n        /* \"contracts/fatcat/marketplace.sol\":10167:10199  _items[Index[i].contractAddress] */\n      0x00\n        /* \"contracts/fatcat/marketplace.sol\":10174:10182  Index[i] */\n      dup2\n      dup2\n      mstore\n        /* \"contracts/fatcat/marketplace.sol\":10174:10179  Index */\n      0x0e\n        /* \"contracts/fatcat/marketplace.sol\":10174:10182  Index[i] */\n      0x20\n      swap1\n      dup2\n      mstore\n      0x40\n      dup1\n      dup4\n      keccak256\n        /* \"contracts/fatcat/marketplace.sol\":10174:10198  Index[i].contractAddress */\n      dup1\n      sload\n      sub(shl(0xa0, 0x01), 0x01)\n      and\n        /* \"contracts/fatcat/marketplace.sol\":10167:10199  _items[Index[i].contractAddress] */\n      dup5\n      mstore\n        /* \"contracts/fatcat/marketplace.sol\":10167:10173  _items */\n      0x0d\n        /* \"contracts/fatcat/marketplace.sol\":10167:10199  _items[Index[i].contractAddress] */\n      dup4\n      mstore\n      dup2\n      dup5\n      keccak256\n        /* \"contracts/fatcat/marketplace.sol\":10174:10198  Index[i].contractAddress */\n      0x01\n        /* \"contracts/fatcat/marketplace.sol\":10200:10216  Index[i].TokenId */\n      swap1\n      swap2\n      add\n      sload\n        /* \"contracts/fatcat/marketplace.sol\":10167:10217  _items[Index[i].contractAddress][Index[i].TokenId] */\n      dup5\n      mstore\n      swap1\n      swap2\n      mstore\n      swap1\n      keccak256\n        /* \"contracts/fatcat/marketplace.sol\":10167:10224  _items[Index[i].contractAddress][Index[i].TokenId].listed */\n      0x05\n      add\n      sload\n      0xff\n      and\n        /* \"contracts/fatcat/marketplace.sol\":10163:10446  if (_items[Index[i].contractAddress][Index[i].TokenId].listed) {... */\n      iszero\n      tag_224\n      jumpi\n        /* \"contracts/fatcat/marketplace.sol\":10270:10407  ListedNftTokenId(_items[Index[i].contractAddress][Index[i].TokenId],i,IConnected(Index[i].contractAddress).getTokenUri(Index[i].TokenId)) */\n      0x40\n      dup1\n      mload\n      0x00\n        /* \"contracts/fatcat/marketplace.sol\":10294:10302  Index[i] */\n      dup4\n      dup2\n      mstore\n        /* \"contracts/fatcat/marketplace.sol\":10294:10299  Index */\n      0x0e\n        /* \"contracts/fatcat/marketplace.sol\":10294:10302  Index[i] */\n      0x20\n      dup2\n      dup2\n      mstore\n      dup5\n      dup4\n      keccak256\n        /* \"contracts/fatcat/marketplace.sol\":10294:10318  Index[i].contractAddress */\n      dup1\n      sload\n      sub(shl(0xa0, 0x01), 0x01)\n      swap1\n      dup2\n      and\n        /* \"contracts/fatcat/marketplace.sol\":10287:10319  _items[Index[i].contractAddress] */\n      dup1\n      dup7\n      mstore\n        /* \"contracts/fatcat/marketplace.sol\":10287:10293  _items */\n      0x0d\n        /* \"contracts/fatcat/marketplace.sol\":10287:10319  _items[Index[i].contractAddress] */\n      dup5\n      mstore\n      dup8\n      dup7\n      keccak256\n        /* \"contracts/fatcat/marketplace.sol\":10294:10318  Index[i].contractAddress */\n      0x01\n        /* \"contracts/fatcat/marketplace.sol\":10320:10336  Index[i].TokenId */\n      swap4\n      dup5\n      add\n      sload\n        /* \"contracts/fatcat/marketplace.sol\":10287:10337  _items[Index[i].contractAddress][Index[i].TokenId] */\n      dup1\n      dup9\n      mstore\n      swap1\n      dup6\n      mstore\n      dup9\n      dup8\n      keccak256\n        /* \"contracts/fatcat/marketplace.sol\":10270:10407  ListedNftTokenId(_items[Index[i].contractAddress][Index[i].TokenId],i,IConnected(Index[i].contractAddress).getTokenUri(Index[i].TokenId)) */\n      0x01a0\n      dup10\n      add\n      dup11\n      mstore\n      dup1\n      sload\n      0x60\n      dup11\n      add\n      swap1\n      dup2\n      mstore\n      swap5\n      dup2\n      add\n      sload\n      dup5\n      and\n      0x80\n      dup11\n      add\n      mstore\n      0x02\n      dup2\n      add\n      sload\n      dup5\n      and\n      0xa0\n      dup11\n      add\n      mstore\n      0x03\n      dup2\n      add\n      sload\n      0xc0\n      dup11\n      add\n      mstore\n      0x04\n      dup1\n      dup3\n      add\n      sload\n      0xe0\n      dup12\n      add\n      mstore\n      0x05\n      dup3\n      add\n      sload\n      0xff\n      dup2\n      and\n      iszero\n      iszero\n        /* \"contracts/fatcat/marketplace.sol\":10294:10318  Index[i].contractAddress */\n      0x0100\n        /* \"contracts/fatcat/marketplace.sol\":10270:10407  ListedNftTokenId(_items[Index[i].contractAddress][Index[i].TokenId],i,IConnected(Index[i].contractAddress).getTokenUri(Index[i].TokenId)) */\n      dup1\n      dup14\n      add\n      swap2\n      swap1\n      swap2\n      mstore\n      swap1\n      div\n      swap1\n      swap5\n      and\n      0x0120\n      dup11\n      add\n      mstore\n      0x06\n      dup2\n      add\n      sload\n      0x0140\n      dup11\n      add\n      mstore\n      0x07\n      dup2\n      add\n      sload\n      0x0160\n      dup11\n      add\n      mstore\n      0x08\n      add\n      sload\n      0x0180\n      dup10\n      add\n      mstore\n      swap3\n      dup8\n      mstore\n      dup4\n      dup8\n      add\n      dup10\n      swap1\n      mstore\n        /* \"contracts/fatcat/marketplace.sol\":10351:10359  Index[i] */\n      swap5\n      dup9\n      swap1\n      mstore\n      swap3\n      swap1\n      swap2\n      mstore\n        /* \"contracts/fatcat/marketplace.sol\":10340:10406  IConnected(Index[i].contractAddress).getTokenUri(Index[i].TokenId) */\n      dup5\n      mload\n      shl(0xe0, 0x8ad91345)\n      dup2\n      mstore\n      swap2\n      dup3\n      add\n        /* \"#utility.yul\":1545:1570   */\n      mstore\n        /* \"contracts/fatcat/marketplace.sol\":10270:10407  ListedNftTokenId(_items[Index[i].contractAddress][Index[i].TokenId],i,IConnected(Index[i].contractAddress).getTokenUri(Index[i].TokenId)) */\n      swap2\n      swap3\n      dup4\n      add\n      swap2\n        /* \"contracts/fatcat/marketplace.sol\":10340:10388  IConnected(Index[i].contractAddress).getTokenUri */\n      0x8ad91345\n      swap1\n        /* \"#utility.yul\":1518:1536   */\n      0x24\n      add\n        /* \"contracts/fatcat/marketplace.sol\":10340:10406  IConnected(Index[i].contractAddress).getTokenUri(Index[i].TokenId) */\n      0x00\n      mload(0x40)\n      dup1\n      dup4\n      sub\n      dup2\n      dup7\n      gas\n      staticcall\n      iszero\n      dup1\n      iszero\n      tag_227\n      jumpi\n      returndatasize\n      0x00\n      dup1\n      returndatacopy\n      revert(0x00, returndatasize)\n    tag_227:\n      pop\n      pop\n      pop\n      pop\n      mload(0x40)\n      returndatasize\n      0x00\n      dup3\n      returndatacopy\n      0x1f\n      returndatasize\n      swap1\n      dup2\n      add\n      not(0x1f)\n      and\n      dup3\n      add\n      0x40\n      mstore\n      tag_228\n      swap2\n      swap1\n      dup2\n      add\n      swap1\n      tag_229\n      jump\t// in\n    tag_228:\n        /* \"contracts/fatcat/marketplace.sol\":10270:10407  ListedNftTokenId(_items[Index[i].contractAddress][Index[i].TokenId],i,IConnected(Index[i].contractAddress).getTokenUri(Index[i].TokenId)) */\n      dup2\n      mstore\n      pop\n        /* \"contracts/fatcat/marketplace.sol\":10240:10253  getNFTtokenid */\n      dup3\n        /* \"contracts/fatcat/marketplace.sol\":10254:10266  listNftCount */\n      dup5\n        /* \"contracts/fatcat/marketplace.sol\":10240:10267  getNFTtokenid[listNftCount] */\n      dup2\n      mload\n      dup2\n      lt\n      tag_231\n      jumpi\n      tag_231\n      tag_232\n      jump\t// in\n    tag_231:\n      0x20\n      mul\n      0x20\n      add\n      add\n        /* \"contracts/fatcat/marketplace.sol\":10240:10407  getNFTtokenid[listNftCount] = ListedNftTokenId(_items[Index[i].contractAddress][Index[i].TokenId],i,IConnected(Index[i].contractAddress).getTokenUri(Index[i].TokenId)) */\n      dup2\n      swap1\n      mstore\n      pop\n        /* \"contracts/fatcat/marketplace.sol\":10421:10435  listNftCount++ */\n      dup3\n      dup1\n      tag_233\n      swap1\n      tag_183\n      jump\t// in\n    tag_233:\n      swap4\n      pop\n      pop\n        /* \"contracts/fatcat/marketplace.sol\":10163:10446  if (_items[Index[i].contractAddress][Index[i].TokenId].listed) {... */\n    tag_224:\n        /* \"contracts/fatcat/marketplace.sol\":10147:10150  i++ */\n      dup1\n      tag_234\n      dup2\n      tag_183\n      jump\t// in\n    tag_234:\n      swap2\n      pop\n      pop\n        /* \"contracts/fatcat/marketplace.sol\":10105:10452  for (uint i = 1; i <= _itemIds.current(); i++) { ... */\n      jump(tag_220)\n    tag_221:\n      pop\n        /* \"contracts/fatcat/marketplace.sol\":10464:10477  getNFTtokenid */\n      swap3\n        /* \"contracts/fatcat/marketplace.sol\":9900:10484  function getAllListedNfts() public view returns (ListedNftTokenId[] memory) { ... */\n      swap2\n      pop\n      pop\n      jump\t// out\n        /* \"contracts/fatcat/marketplace.sol\":8832:9894  function CancleListForSale(uint listIndex) public { ... */\n    tag_82:\n        /* \"contracts/fatcat/marketplace.sol\":8901:8941  _items[Index[listIndex].contractAddress] */\n      0x00\n        /* \"contracts/fatcat/marketplace.sol\":8908:8924  Index[listIndex] */\n      dup2\n      dup2\n      mstore\n        /* \"contracts/fatcat/marketplace.sol\":8908:8913  Index */\n      0x0e\n        /* \"contracts/fatcat/marketplace.sol\":8908:8924  Index[listIndex] */\n      0x20\n      swap1\n      dup2\n      mstore\n      0x40\n      dup1\n      dup4\n      keccak256\n        /* \"contracts/fatcat/marketplace.sol\":8908:8940  Index[listIndex].contractAddress */\n      dup1\n      sload\n      sub(shl(0xa0, 0x01), 0x01)\n      and\n        /* \"contracts/fatcat/marketplace.sol\":8901:8941  _items[Index[listIndex].contractAddress] */\n      dup5\n      mstore\n        /* \"contracts/fatcat/marketplace.sol\":8901:8907  _items */\n      0x0d\n        /* \"contracts/fatcat/marketplace.sol\":8901:8941  _items[Index[listIndex].contractAddress] */\n      dup4\n      mstore\n      dup2\n      dup5\n      keccak256\n        /* \"contracts/fatcat/marketplace.sol\":8908:8940  Index[listIndex].contractAddress */\n      0x01\n        /* \"contracts/fatcat/marketplace.sol\":8942:8966  Index[listIndex].TokenId */\n      swap1\n      swap2\n      add\n      sload\n        /* \"contracts/fatcat/marketplace.sol\":8901:8967  _items[Index[listIndex].contractAddress][Index[listIndex].TokenId] */\n      dup5\n      mstore\n      swap1\n      swap2\n      mstore\n      swap1\n      keccak256\n        /* \"contracts/fatcat/marketplace.sol\":8901:8974  _items[Index[listIndex].contractAddress][Index[listIndex].TokenId].listed */\n      0x05\n      add\n      sload\n      0xff\n      and\n        /* \"contracts/fatcat/marketplace.sol\":8893:8999  require(_items[Index[listIndex].contractAddress][Index[listIndex].TokenId].listed,\"This Item not listed \") */\n      tag_236\n      jumpi\n      mload(0x40)\n      shl(0xe5, 0x461bcd)\n      dup2\n      mstore\n        /* \"#utility.yul\":8952:8954   */\n      0x20\n        /* \"contracts/fatcat/marketplace.sol\":8893:8999  require(_items[Index[listIndex].contractAddress][Index[listIndex].TokenId].listed,\"This Item not listed \") */\n      0x04\n      dup3\n      add\n        /* \"#utility.yul\":8934:8955   */\n      mstore\n        /* \"#utility.yul\":8991:8993   */\n      0x15\n        /* \"#utility.yul\":8971:8989   */\n      0x24\n      dup3\n      add\n        /* \"#utility.yul\":8964:8994   */\n      mstore\n      shl(0x5d, 0x02a3434b99024ba32b6903737ba103634b9ba32b21)\n        /* \"#utility.yul\":9010:9028   */\n      0x44\n      dup3\n      add\n        /* \"#utility.yul\":9003:9054   */\n      mstore\n        /* \"#utility.yul\":9071:9089   */\n      0x64\n      add\n        /* \"contracts/fatcat/marketplace.sol\":8893:8999  require(_items[Index[listIndex].contractAddress][Index[listIndex].TokenId].listed,\"This Item not listed \") */\n      tag_132\n        /* \"#utility.yul\":8750:9095   */\n      jump\n        /* \"contracts/fatcat/marketplace.sol\":8893:8999  require(_items[Index[listIndex].contractAddress][Index[listIndex].TokenId].listed,\"This Item not listed \") */\n    tag_236:\n        /* \"contracts/fatcat/marketplace.sol\":9083:9123  _items[Index[listIndex].contractAddress] */\n      0x00\n        /* \"contracts/fatcat/marketplace.sol\":9090:9106  Index[listIndex] */\n      dup2\n      dup2\n      mstore\n        /* \"contracts/fatcat/marketplace.sol\":9090:9095  Index */\n      0x0e\n        /* \"contracts/fatcat/marketplace.sol\":9090:9106  Index[listIndex] */\n      0x20\n      dup2\n      dup2\n      mstore\n      0x40\n      dup1\n      dup5\n      keccak256\n        /* \"contracts/fatcat/marketplace.sol\":9090:9122  Index[listIndex].contractAddress */\n      dup1\n      sload\n      sub(shl(0xa0, 0x01), 0x01)\n      swap1\n      dup2\n      and\n        /* \"contracts/fatcat/marketplace.sol\":9083:9123  _items[Index[listIndex].contractAddress] */\n      dup7\n      mstore\n        /* \"contracts/fatcat/marketplace.sol\":9083:9089  _items */\n      0x0d\n        /* \"contracts/fatcat/marketplace.sol\":9083:9123  _items[Index[listIndex].contractAddress] */\n      dup1\n      dup6\n      mstore\n      dup4\n      dup8\n      keccak256\n        /* \"contracts/fatcat/marketplace.sol\":9090:9122  Index[listIndex].contractAddress */\n      0x01\n        /* \"contracts/fatcat/marketplace.sol\":9124:9148  Index[listIndex].TokenId */\n      dup1\n      dup6\n      add\n      dup1\n      sload\n        /* \"contracts/fatcat/marketplace.sol\":9083:9149  _items[Index[listIndex].contractAddress][Index[listIndex].TokenId] */\n      dup11\n      mstore\n      swap2\n      dup8\n      mstore\n      dup6\n      dup10\n      keccak256\n        /* \"contracts/fatcat/marketplace.sol\":9083:9156  _items[Index[listIndex].contractAddress][Index[listIndex].TokenId].seller */\n      dup1\n      dup3\n      add\n      sload\n        /* \"contracts/fatcat/marketplace.sol\":9009:9081  _items[Index[listIndex].contractAddress][Index[listIndex].TokenId].owner */\n      0x02\n      swap1\n      swap2\n      add\n        /* \"contracts/fatcat/marketplace.sol\":9009:9156  _items[Index[listIndex].contractAddress][Index[listIndex].TokenId].owner =_items[Index[listIndex].contractAddress][Index[listIndex].TokenId].seller */\n      dup1\n      sload\n      not(sub(shl(0xa0, 0x01), 0x01))\n      and\n        /* \"contracts/fatcat/marketplace.sol\":9083:9156  _items[Index[listIndex].contractAddress][Index[listIndex].TokenId].seller */\n      swap2\n      dup7\n      and\n        /* \"contracts/fatcat/marketplace.sol\":9009:9156  _items[Index[listIndex].contractAddress][Index[listIndex].TokenId].owner =_items[Index[listIndex].contractAddress][Index[listIndex].TokenId].seller */\n      swap2\n      swap1\n      swap2\n      or\n      swap1\n      sstore\n        /* \"contracts/fatcat/marketplace.sol\":9173:9205  Index[listIndex].contractAddress */\n      swap4\n      sload\n      dup4\n      and\n        /* \"contracts/fatcat/marketplace.sol\":9234:9274  _items[Index[listIndex].contractAddress] */\n      dup1\n      dup10\n      mstore\n      swap2\n      dup7\n      mstore\n      dup5\n      dup9\n      keccak256\n        /* \"contracts/fatcat/marketplace.sol\":9275:9299  Index[listIndex].TokenId */\n      swap1\n      sload\n        /* \"contracts/fatcat/marketplace.sol\":9234:9300  _items[Index[listIndex].contractAddress][Index[listIndex].TokenId] */\n      dup1\n      dup10\n      mstore\n      swap1\n      dup7\n      mstore\n      dup5\n      dup9\n      keccak256\n        /* \"contracts/fatcat/marketplace.sol\":9234:9307  _items[Index[listIndex].contractAddress][Index[listIndex].TokenId].seller */\n      swap1\n      swap4\n      add\n      sload\n        /* \"contracts/fatcat/marketplace.sol\":9308:9324  Index[listIndex] */\n      swap7\n      dup9\n      swap1\n      mstore\n      swap5\n      swap1\n      swap4\n      mstore\n        /* \"contracts/fatcat/marketplace.sol\":9166:9333  ERC721(Index[listIndex].contractAddress).transferFrom(address(this),_items[Index[listIndex].contractAddress][Index[listIndex].TokenId].seller,Index[listIndex].TokenId) */\n      swap1\n      mload\n      shl(0xe0, 0x23b872dd)\n      dup2\n      mstore\n        /* \"contracts/fatcat/marketplace.sol\":9228:9232  this */\n      address\n        /* \"contracts/fatcat/marketplace.sol\":9166:9333  ERC721(Index[listIndex].contractAddress).transferFrom(address(this),_items[Index[listIndex].contractAddress][Index[listIndex].TokenId].seller,Index[listIndex].TokenId) */\n      0x04\n      dup3\n      add\n        /* \"#utility.yul\":11125:11176   */\n      mstore\n        /* \"contracts/fatcat/marketplace.sol\":9234:9307  _items[Index[listIndex].contractAddress][Index[listIndex].TokenId].seller */\n      swap4\n      swap1\n      swap2\n      and\n        /* \"#utility.yul\":11192:11210   */\n      0x24\n      dup5\n      add\n        /* \"#utility.yul\":11185:11245   */\n      mstore\n        /* \"#utility.yul\":11261:11279   */\n      0x44\n      dup4\n      add\n        /* \"#utility.yul\":11254:11288   */\n      mstore\n        /* \"contracts/fatcat/marketplace.sol\":9173:9205  Index[listIndex].contractAddress */\n      swap1\n        /* \"contracts/fatcat/marketplace.sol\":9166:9219  ERC721(Index[listIndex].contractAddress).transferFrom */\n      0x23b872dd\n      swap1\n        /* \"#utility.yul\":11098:11116   */\n      0x64\n      add\n        /* \"contracts/fatcat/marketplace.sol\":9166:9333  ERC721(Index[listIndex].contractAddress).transferFrom(address(this),_items[Index[listIndex].contractAddress][Index[listIndex].TokenId].seller,Index[listIndex].TokenId) */\n      0x00\n      mload(0x40)\n      dup1\n      dup4\n      sub\n      dup2\n      0x00\n      dup8\n      dup1\n      extcodesize\n      iszero\n      dup1\n      iszero\n      tag_239\n      jumpi\n      0x00\n      dup1\n      revert\n    tag_239:\n      pop\n      gas\n      call\n      iszero\n      dup1\n      iszero\n      tag_241\n      jumpi\n      returndatasize\n      0x00\n      dup1\n      returndatacopy\n      revert(0x00, returndatasize)\n    tag_241:\n      pop\n      pop\n      pop\n        /* \"contracts/fatcat/marketplace.sol\":9419:9424  false */\n      0x00\n        /* \"contracts/fatcat/marketplace.sol\":9350:9366  Index[listIndex] */\n      dup3\n      dup2\n      mstore\n        /* \"contracts/fatcat/marketplace.sol\":9350:9355  Index */\n      0x0e\n        /* \"contracts/fatcat/marketplace.sol\":9350:9366  Index[listIndex] */\n      0x20\n      dup2\n      dup2\n      mstore\n      0x40\n      dup1\n      dup5\n      keccak256\n        /* \"contracts/fatcat/marketplace.sol\":9350:9382  Index[listIndex].contractAddress */\n      dup1\n      sload\n      sub(shl(0xa0, 0x01), 0x01)\n      swap1\n      dup2\n      and\n        /* \"contracts/fatcat/marketplace.sol\":9343:9383  _items[Index[listIndex].contractAddress] */\n      dup7\n      mstore\n        /* \"contracts/fatcat/marketplace.sol\":9343:9349  _items */\n      0x0d\n        /* \"contracts/fatcat/marketplace.sol\":9343:9383  _items[Index[listIndex].contractAddress] */\n      dup1\n      dup6\n      mstore\n      dup4\n      dup8\n      keccak256\n        /* \"contracts/fatcat/marketplace.sol\":9350:9382  Index[listIndex].contractAddress */\n      0x01\n        /* \"contracts/fatcat/marketplace.sol\":9384:9408  Index[listIndex].TokenId */\n      dup1\n      dup6\n      add\n      dup1\n      sload\n        /* \"contracts/fatcat/marketplace.sol\":9343:9409  _items[Index[listIndex].contractAddress][Index[listIndex].TokenId] */\n      dup11\n      mstore\n      swap2\n      dup8\n      mstore\n      dup6\n      dup10\n      keccak256\n        /* \"contracts/fatcat/marketplace.sol\":9343:9416  _items[Index[listIndex].contractAddress][Index[listIndex].TokenId].listed */\n      0x05\n      add\n        /* \"contracts/fatcat/marketplace.sol\":9343:9424  _items[Index[listIndex].contractAddress][Index[listIndex].TokenId].listed = false */\n      dup1\n      sload\n      not(0xff)\n      and\n      swap1\n      sstore\n        /* \"contracts/fatcat/marketplace.sol\":9441:9473  Index[listIndex].contractAddress */\n      dup5\n      sload\n      dup5\n      and\n        /* \"contracts/fatcat/marketplace.sol\":9434:9474  _items[Index[listIndex].contractAddress] */\n      dup10\n      mstore\n      swap2\n      dup7\n      mstore\n      dup5\n      dup9\n      keccak256\n        /* \"contracts/fatcat/marketplace.sol\":9475:9499  Index[listIndex].TokenId */\n      dup2\n      sload\n        /* \"contracts/fatcat/marketplace.sol\":9434:9500  _items[Index[listIndex].contractAddress][Index[listIndex].TokenId] */\n      dup10\n      mstore\n      dup7\n      mstore\n      dup5\n      dup9\n      keccak256\n        /* \"contracts/fatcat/marketplace.sol\":9434:9506  _items[Index[listIndex].contractAddress][Index[listIndex].TokenId].count */\n      0x04\n      add\n        /* \"contracts/fatcat/marketplace.sol\":9434:9518  _items[Index[listIndex].contractAddress][Index[listIndex].TokenId].count = listIndex */\n      dup11\n      swap1\n      sstore\n        /* \"@openzeppelin/contracts/utils/Counters.sol\":918:932  counter._value */\n      dup2\n      sload\n        /* \"contracts/fatcat/marketplace.sol\":9547:9572  Index[_itemIds.current()] */\n      dup9\n      mstore\n      swap6\n      swap1\n      swap5\n      mstore\n      swap2\n      dup6\n      keccak256\n        /* \"contracts/fatcat/marketplace.sol\":9528:9544  Index[listIndex] */\n      swap5\n      dup8\n      swap1\n      mstore\n        /* \"contracts/fatcat/marketplace.sol\":9528:9572  Index[listIndex] = Index[_itemIds.current()] */\n      dup5\n      sload\n      dup2\n      sload\n      not(sub(shl(0xa0, 0x01), 0x01))\n      and\n      swap3\n      and\n      swap2\n      swap1\n      swap2\n      or\n      swap1\n      sstore\n      swap2\n      dup3\n      add\n      sload\n      swap1\n      sstore\n        /* \"contracts/fatcat/marketplace.sol\":9582:9602  _itemIds.decrement() */\n      tag_243\n      swap2\n      pop\n        /* \"contracts/fatcat/marketplace.sol\":9582:9600  _itemIds.decrement */\n      tag_187\n        /* \"contracts/fatcat/marketplace.sol\":9582:9602  _itemIds.decrement() */\n      jump\t// in\n    tag_243:\n        /* \"contracts/fatcat/marketplace.sol\":9627:9667  _items[Index[listIndex].contractAddress] */\n      0x00\n        /* \"contracts/fatcat/marketplace.sol\":9634:9650  Index[listIndex] */\n      dup2\n      dup2\n      mstore\n        /* \"contracts/fatcat/marketplace.sol\":9634:9639  Index */\n      0x0e\n        /* \"contracts/fatcat/marketplace.sol\":9634:9650  Index[listIndex] */\n      0x20\n      swap1\n      dup2\n      mstore\n      0x40\n      dup1\n      dup4\n      keccak256\n        /* \"contracts/fatcat/marketplace.sol\":9634:9666  Index[listIndex].contractAddress */\n      dup1\n      sload\n      sub(shl(0xa0, 0x01), 0x01)\n      swap1\n      dup2\n      and\n        /* \"contracts/fatcat/marketplace.sol\":9627:9667  _items[Index[listIndex].contractAddress] */\n      dup6\n      mstore\n        /* \"contracts/fatcat/marketplace.sol\":9627:9633  _items */\n      0x0d\n        /* \"contracts/fatcat/marketplace.sol\":9627:9667  _items[Index[listIndex].contractAddress] */\n      dup5\n      mstore\n      dup3\n      dup6\n      keccak256\n        /* \"contracts/fatcat/marketplace.sol\":9634:9666  Index[listIndex].contractAddress */\n      0x01\n        /* \"contracts/fatcat/marketplace.sol\":9668:9692  Index[listIndex].TokenId */\n      swap3\n      dup4\n      add\n      sload\n        /* \"contracts/fatcat/marketplace.sol\":9627:9693  _items[Index[listIndex].contractAddress][Index[listIndex].TokenId] */\n      dup7\n      mstore\n      dup5\n      mstore\n      swap4\n      dup3\n      swap1\n      keccak256\n        /* \"contracts/fatcat/marketplace.sol\":9627:9701  _items[Index[listIndex].contractAddress][Index[listIndex].TokenId].tokenId */\n      dup1\n      sload\n        /* \"contracts/fatcat/marketplace.sol\":9711:9784  _items[Index[listIndex].contractAddress][Index[listIndex].TokenId].seller */\n      swap2\n      dup2\n      add\n      sload\n        /* \"contracts/fatcat/marketplace.sol\":9814:9886  _items[Index[listIndex].contractAddress][Index[listIndex].TokenId].price */\n      0x03\n      swap1\n      swap2\n      add\n      sload\n        /* \"contracts/fatcat/marketplace.sol\":9617:9887  NFTCancel(_items[Index[listIndex].contractAddress][Index[listIndex].TokenId].tokenId,... */\n      dup4\n      mload\n        /* \"#utility.yul\":13425:13450   */\n      swap3\n      dup4\n      mstore\n        /* \"contracts/fatcat/marketplace.sol\":9711:9784  _items[Index[listIndex].contractAddress][Index[listIndex].TokenId].seller */\n      swap5\n      and\n        /* \"#utility.yul\":13466:13484   */\n      swap3\n      dup2\n      add\n        /* \"#utility.yul\":13459:13519   */\n      swap3\n      swap1\n      swap3\n      mstore\n        /* \"contracts/fatcat/marketplace.sol\":9794:9804  msg.sender */\n      caller\n        /* \"#utility.yul\":13535:13553   */\n      swap1\n      dup3\n      add\n        /* \"#utility.yul\":13528:13588   */\n      mstore\n        /* \"#utility.yul\":13619:13621   */\n      0x60\n        /* \"#utility.yul\":13604:13622   */\n      dup2\n      add\n        /* \"#utility.yul\":13597:13631   */\n      swap2\n      swap1\n      swap2\n      mstore\n        /* \"contracts/fatcat/marketplace.sol\":9617:9887  NFTCancel(_items[Index[listIndex].contractAddress][Index[listIndex].TokenId].tokenId,... */\n      0xfb0451e2371b977db14ce8db0bd62262e6ff8fe4b5960280928ba94e02443603\n      swap1\n        /* \"#utility.yul\":13412:13415   */\n      0x80\n        /* \"#utility.yul\":13397:13416   */\n      add\n        /* \"contracts/fatcat/marketplace.sol\":9617:9887  NFTCancel(_items[Index[listIndex].contractAddress][Index[listIndex].TokenId].tokenId,... */\n      mload(0x40)\n      dup1\n      swap2\n      sub\n      swap1\n      log1\n        /* \"contracts/fatcat/marketplace.sol\":8832:9894  function CancleListForSale(uint listIndex) public { ... */\n      pop\n      jump\t// out\n        /* \"@openzeppelin/contracts/access/Ownable.sol\":2543:2758  function transferOwnership(address newOwner) public virtual onlyOwner {... */\n    tag_98:\n        /* \"@openzeppelin/contracts/access/Ownable.sol\":1531:1544  _checkOwner() */\n      tag_247\n        /* \"@openzeppelin/contracts/access/Ownable.sol\":1531:1542  _checkOwner */\n      tag_193\n        /* \"@openzeppelin/contracts/access/Ownable.sol\":1531:1544  _checkOwner() */\n      jump\t// in\n    tag_247:\n      sub(shl(0xa0, 0x01), 0x01)\n        /* \"@openzeppelin/contracts/access/Ownable.sol\":2627:2649  newOwner == address(0) */\n      dup2\n      and\n        /* \"@openzeppelin/contracts/access/Ownable.sol\":2623:2714  if (newOwner == address(0)) {... */\n      tag_249\n      jumpi\n        /* \"@openzeppelin/contracts/access/Ownable.sol\":2672:2703  OwnableInvalidOwner(address(0)) */\n      mload(0x40)\n      shl(0xe0, 0x1e4fbdf7)\n      dup2\n      mstore\n        /* \"@openzeppelin/contracts/access/Ownable.sol\":2700:2701  0 */\n      0x00\n        /* \"@openzeppelin/contracts/access/Ownable.sol\":2672:2703  OwnableInvalidOwner(address(0)) */\n      0x04\n      dup3\n      add\n        /* \"#utility.yul\":4361:4412   */\n      mstore\n        /* \"#utility.yul\":4334:4352   */\n      0x24\n      add\n        /* \"@openzeppelin/contracts/access/Ownable.sol\":2672:2703  OwnableInvalidOwner(address(0)) */\n      tag_132\n        /* \"#utility.yul\":4215:4418   */\n      jump\n        /* \"@openzeppelin/contracts/access/Ownable.sol\":2623:2714  if (newOwner == address(0)) {... */\n    tag_249:\n        /* \"@openzeppelin/contracts/access/Ownable.sol\":2723:2751  _transferOwnership(newOwner) */\n      tag_251\n        /* \"@openzeppelin/contracts/access/Ownable.sol\":2742:2750  newOwner */\n      dup2\n        /* \"@openzeppelin/contracts/access/Ownable.sol\":2723:2741  _transferOwnership */\n      tag_196\n        /* \"@openzeppelin/contracts/access/Ownable.sol\":2723:2751  _transferOwnership(newOwner) */\n      jump\t// in\n    tag_251:\n        /* \"@openzeppelin/contracts/access/Ownable.sol\":2543:2758  function transferOwnership(address newOwner) public virtual onlyOwner {... */\n      pop\n      jump\t// out\n        /* \"@openzeppelin/contracts/utils/Counters.sol\":1074:1303  function decrement(Counter storage counter) internal {... */\n    tag_187:\n        /* \"@openzeppelin/contracts/utils/Counters.sol\":1153:1167  counter._value */\n      dup1\n      sload\n        /* \"@openzeppelin/contracts/utils/Counters.sol\":1185:1194  value > 0 */\n      dup1\n        /* \"@openzeppelin/contracts/utils/Counters.sol\":1177:1226  require(value > 0, \"Counter: decrement overflow\") */\n      tag_254\n      jumpi\n      mload(0x40)\n      shl(0xe5, 0x461bcd)\n      dup2\n      mstore\n        /* \"#utility.yul\":13844:13846   */\n      0x20\n        /* \"@openzeppelin/contracts/utils/Counters.sol\":1177:1226  require(value > 0, \"Counter: decrement overflow\") */\n      0x04\n      dup3\n      add\n        /* \"#utility.yul\":13826:13847   */\n      mstore\n        /* \"#utility.yul\":13883:13885   */\n      0x1b\n        /* \"#utility.yul\":13863:13881   */\n      0x24\n      dup3\n      add\n        /* \"#utility.yul\":13856:13886   */\n      mstore\n        /* \"#utility.yul\":13922:13951   */\n      0x436f756e7465723a2064656372656d656e74206f766572666c6f770000000000\n        /* \"#utility.yul\":13902:13920   */\n      0x44\n      dup3\n      add\n        /* \"#utility.yul\":13895:13952   */\n      mstore\n        /* \"#utility.yul\":13969:13987   */\n      0x64\n      add\n        /* \"@openzeppelin/contracts/utils/Counters.sol\":1177:1226  require(value > 0, \"Counter: decrement overflow\") */\n      tag_132\n        /* \"#utility.yul\":13642:13993   */\n      jump\n        /* \"@openzeppelin/contracts/utils/Counters.sol\":1177:1226  require(value > 0, \"Counter: decrement overflow\") */\n    tag_254:\n      not(0x00)\n        /* \"@openzeppelin/contracts/utils/Counters.sol\":1277:1286  value - 1 */\n      add\n        /* \"@openzeppelin/contracts/utils/Counters.sol\":1260:1286  counter._value = value - 1 */\n      swap1\n      sstore\n        /* \"@openzeppelin/contracts/utils/Counters.sol\":1074:1303  function decrement(Counter storage counter) internal {... */\n      jump\t// out\n        /* \"@openzeppelin/contracts/access/Ownable.sol\":1796:1958  function _checkOwner() internal view virtual {... */\n    tag_193:\n        /* \"@openzeppelin/contracts/access/Ownable.sol\":1684:1691  address */\n      0x00\n        /* \"@openzeppelin/contracts/access/Ownable.sol\":1710:1716  _owner */\n      sload\n      sub(shl(0xa0, 0x01), 0x01)\n      and\n        /* \"@openzeppelin/contracts/utils/Context.sol\":735:745  msg.sender */\n      caller\n        /* \"@openzeppelin/contracts/access/Ownable.sol\":1855:1878  owner() != _msgSender() */\n      eq\n        /* \"@openzeppelin/contracts/access/Ownable.sol\":1851:1952  if (owner() != _msgSender()) {... */\n      tag_195\n      jumpi\n        /* \"@openzeppelin/contracts/access/Ownable.sol\":1901:1941  OwnableUnauthorizedAccount(_msgSender()) */\n      mload(0x40)\n      shl(0xe0, 0x118cdaa7)\n      dup2\n      mstore\n        /* \"@openzeppelin/contracts/utils/Context.sol\":735:745  msg.sender */\n      caller\n        /* \"@openzeppelin/contracts/access/Ownable.sol\":1901:1941  OwnableUnauthorizedAccount(_msgSender()) */\n      0x04\n      dup3\n      add\n        /* \"#utility.yul\":4361:4412   */\n      mstore\n        /* \"#utility.yul\":4334:4352   */\n      0x24\n      add\n        /* \"@openzeppelin/contracts/access/Ownable.sol\":1901:1941  OwnableUnauthorizedAccount(_msgSender()) */\n      tag_132\n        /* \"#utility.yul\":4215:4418   */\n      jump\n        /* \"@openzeppelin/contracts/access/Ownable.sol\":2912:3099  function _transferOwnership(address newOwner) internal virtual {... */\n    tag_196:\n        /* \"@openzeppelin/contracts/access/Ownable.sol\":2985:3001  address oldOwner */\n      0x00\n        /* \"@openzeppelin/contracts/access/Ownable.sol\":3004:3010  _owner */\n      dup1\n      sload\n      sub(shl(0xa0, 0x01), 0x01)\n        /* \"@openzeppelin/contracts/access/Ownable.sol\":3020:3037  _owner = newOwner */\n      dup4\n      dup2\n      and\n      not(sub(shl(0xa0, 0x01), 0x01))\n      dup4\n      and\n      dup2\n      or\n      dup5\n      sstore\n        /* \"@openzeppelin/contracts/access/Ownable.sol\":3052:3092  OwnershipTransferred(oldOwner, newOwner) */\n      mload(0x40)\n        /* \"@openzeppelin/contracts/access/Ownable.sol\":3004:3010  _owner */\n      swap2\n      swap1\n      swap3\n      and\n      swap3\n      dup4\n      swap2\n        /* \"@openzeppelin/contracts/access/Ownable.sol\":3052:3092  OwnershipTransferred(oldOwner, newOwner) */\n      0x8be0079c531659141344cd1fd0a4f28419497f9722a3daafe3b4186f6b6457e0\n      swap2\n        /* \"@openzeppelin/contracts/access/Ownable.sol\":2985:3001  address oldOwner */\n      swap1\n        /* \"@openzeppelin/contracts/access/Ownable.sol\":3052:3092  OwnershipTransferred(oldOwner, newOwner) */\n      log3\n        /* \"@openzeppelin/contracts/access/Ownable.sol\":2975:3099  {... */\n      pop\n        /* \"@openzeppelin/contracts/access/Ownable.sol\":2912:3099  function _transferOwnership(address newOwner) internal virtual {... */\n      pop\n      jump\t// out\n        /* \"#utility.yul\":14:187   */\n    tag_269:\n        /* \"#utility.yul\":82:102   */\n      dup1\n      calldataload\n      sub(shl(0xa0, 0x01), 0x01)\n        /* \"#utility.yul\":131:162   */\n      dup2\n      and\n        /* \"#utility.yul\":121:163   */\n      dup2\n      eq\n        /* \"#utility.yul\":111:181   */\n      tag_280\n      jumpi\n        /* \"#utility.yul\":177:178   */\n      0x00\n        /* \"#utility.yul\":174:175   */\n      dup1\n        /* \"#utility.yul\":167:179   */\n      revert\n        /* \"#utility.yul\":111:181   */\n    tag_280:\n        /* \"#utility.yul\":14:187   */\n      swap2\n      swap1\n      pop\n      jump\t// out\n        /* \"#utility.yul\":192:378   */\n    tag_23:\n        /* \"#utility.yul\":251:257   */\n      0x00\n        /* \"#utility.yul\":304:306   */\n      0x20\n        /* \"#utility.yul\":292:301   */\n      dup3\n        /* \"#utility.yul\":283:290   */\n      dup5\n        /* \"#utility.yul\":279:302   */\n      sub\n        /* \"#utility.yul\":275:307   */\n      slt\n        /* \"#utility.yul\":272:324   */\n      iszero\n      tag_282\n      jumpi\n        /* \"#utility.yul\":320:321   */\n      0x00\n        /* \"#utility.yul\":317:318   */\n      dup1\n        /* \"#utility.yul\":310:322   */\n      revert\n        /* \"#utility.yul\":272:324   */\n    tag_282:\n        /* \"#utility.yul\":343:372   */\n      tag_283\n        /* \"#utility.yul\":362:371   */\n      dup3\n        /* \"#utility.yul\":343:372   */\n      tag_269\n      jump\t// in\n    tag_283:\n        /* \"#utility.yul\":333:372   */\n      swap4\n        /* \"#utility.yul\":192:378   */\n      swap3\n      pop\n      pop\n      pop\n      jump\t// out\n        /* \"#utility.yul\":915:1141   */\n    tag_30:\n        /* \"#utility.yul\":974:980   */\n      0x00\n        /* \"#utility.yul\":1027:1029   */\n      0x20\n        /* \"#utility.yul\":1015:1024   */\n      dup3\n        /* \"#utility.yul\":1006:1013   */\n      dup5\n        /* \"#utility.yul\":1002:1025   */\n      sub\n        /* \"#utility.yul\":998:1030   */\n      slt\n        /* \"#utility.yul\":995:1047   */\n      iszero\n      tag_287\n      jumpi\n        /* \"#utility.yul\":1043:1044   */\n      0x00\n        /* \"#utility.yul\":1040:1041   */\n      dup1\n        /* \"#utility.yul\":1033:1045   */\n      revert\n        /* \"#utility.yul\":995:1047   */\n    tag_287:\n      pop\n        /* \"#utility.yul\":1088:1111   */\n      calldataload\n      swap2\n        /* \"#utility.yul\":915:1141   */\n      swap1\n      pop\n      jump\t// out\n        /* \"#utility.yul\":1581:1927   */\n    tag_43:\n        /* \"#utility.yul\":1649:1655   */\n      0x00\n        /* \"#utility.yul\":1657:1663   */\n      dup1\n        /* \"#utility.yul\":1710:1712   */\n      0x40\n        /* \"#utility.yul\":1698:1707   */\n      dup4\n        /* \"#utility.yul\":1689:1696   */\n      dup6\n        /* \"#utility.yul\":1685:1708   */\n      sub\n        /* \"#utility.yul\":1681:1713   */\n      slt\n        /* \"#utility.yul\":1678:1730   */\n      iszero\n      tag_291\n      jumpi\n        /* \"#utility.yul\":1726:1727   */\n      0x00\n        /* \"#utility.yul\":1723:1724   */\n      dup1\n        /* \"#utility.yul\":1716:1728   */\n      revert\n        /* \"#utility.yul\":1678:1730   */\n    tag_291:\n      pop\n      pop\n        /* \"#utility.yul\":1771:1794   */\n      dup1\n      calldataload\n      swap3\n        /* \"#utility.yul\":1891:1893   */\n      0x20\n        /* \"#utility.yul\":1876:1894   */\n      swap1\n      swap2\n      add\n        /* \"#utility.yul\":1863:1895   */\n      calldataload\n      swap2\n      pop\n        /* \"#utility.yul\":1581:1927   */\n      jump\t// out\n        /* \"#utility.yul\":1932:2083   */\n    tag_271:\n        /* \"#utility.yul\":2008:2028   */\n      dup1\n      calldataload\n        /* \"#utility.yul\":2057:2058   */\n      0x04\n        /* \"#utility.yul\":2047:2059   */\n      dup2\n      lt\n        /* \"#utility.yul\":2037:2077   */\n      tag_280\n      jumpi\n        /* \"#utility.yul\":2073:2074   */\n      0x00\n        /* \"#utility.yul\":2070:2071   */\n      dup1\n        /* \"#utility.yul\":2063:2075   */\n      revert\n        /* \"#utility.yul\":2088:2411   */\n    tag_47:\n        /* \"#utility.yul\":2171:2177   */\n      0x00\n        /* \"#utility.yul\":2179:2185   */\n      dup1\n        /* \"#utility.yul\":2232:2234   */\n      0x40\n        /* \"#utility.yul\":2220:2229   */\n      dup4\n        /* \"#utility.yul\":2211:2218   */\n      dup6\n        /* \"#utility.yul\":2207:2230   */\n      sub\n        /* \"#utility.yul\":2203:2235   */\n      slt\n        /* \"#utility.yul\":2200:2252   */\n      iszero\n      tag_295\n      jumpi\n        /* \"#utility.yul\":2248:2249   */\n      0x00\n        /* \"#utility.yul\":2245:2246   */\n      dup1\n        /* \"#utility.yul\":2238:2250   */\n      revert\n        /* \"#utility.yul\":2200:2252   */\n    tag_295:\n        /* \"#utility.yul\":2293:2316   */\n      dup3\n      calldataload\n      swap2\n      pop\n        /* \"#utility.yul\":2359:2405   */\n      tag_296\n        /* \"#utility.yul\":2401:2403   */\n      0x20\n        /* \"#utility.yul\":2386:2404   */\n      dup5\n      add\n        /* \"#utility.yul\":2359:2405   */\n      tag_271\n      jump\t// in\n    tag_296:\n        /* \"#utility.yul\":2349:2405   */\n      swap1\n      pop\n        /* \"#utility.yul\":2088:2411   */\n      swap3\n      pop\n      swap3\n      swap1\n      pop\n      jump\t// out\n        /* \"#utility.yul\":2416:2543   */\n    tag_215:\n        /* \"#utility.yul\":2477:2487   */\n      0x4e487b71\n        /* \"#utility.yul\":2472:2475   */\n      0xe0\n        /* \"#utility.yul\":2468:2488   */\n      shl\n        /* \"#utility.yul\":2465:2466   */\n      0x00\n        /* \"#utility.yul\":2458:2489   */\n      mstore\n        /* \"#utility.yul\":2508:2512   */\n      0x41\n        /* \"#utility.yul\":2505:2506   */\n      0x04\n        /* \"#utility.yul\":2498:2513   */\n      mstore\n        /* \"#utility.yul\":2532:2536   */\n      0x24\n        /* \"#utility.yul\":2529:2530   */\n      0x00\n        /* \"#utility.yul\":2522:2537   */\n      revert\n        /* \"#utility.yul\":2548:2823   */\n    tag_272:\n        /* \"#utility.yul\":2619:2621   */\n      0x40\n        /* \"#utility.yul\":2613:2622   */\n      mload\n        /* \"#utility.yul\":2684:2686   */\n      0x1f\n        /* \"#utility.yul\":2665:2678   */\n      dup3\n      add\n      not(0x1f)\n        /* \"#utility.yul\":2661:2688   */\n      and\n        /* \"#utility.yul\":2649:2689   */\n      dup2\n      add\n        /* \"#utility.yul\":2719:2737   */\n      0xffffffffffffffff\n        /* \"#utility.yul\":2704:2738   */\n      dup2\n      gt\n        /* \"#utility.yul\":2740:2762   */\n      dup3\n      dup3\n      lt\n        /* \"#utility.yul\":2701:2763   */\n      or\n        /* \"#utility.yul\":2698:2786   */\n      iszero\n      tag_300\n      jumpi\n        /* \"#utility.yul\":2766:2784   */\n      tag_300\n      tag_215\n      jump\t// in\n    tag_300:\n        /* \"#utility.yul\":2802:2804   */\n      0x40\n        /* \"#utility.yul\":2795:2817   */\n      mstore\n        /* \"#utility.yul\":2548:2823   */\n      swap2\n      swap1\n      pop\n      jump\t// out\n        /* \"#utility.yul\":2828:3015   */\n    tag_273:\n        /* \"#utility.yul\":2877:2881   */\n      0x00\n        /* \"#utility.yul\":2910:2928   */\n      0xffffffffffffffff\n        /* \"#utility.yul\":2902:2908   */\n      dup3\n        /* \"#utility.yul\":2899:2929   */\n      gt\n        /* \"#utility.yul\":2896:2952   */\n      iszero\n      tag_303\n      jumpi\n        /* \"#utility.yul\":2932:2950   */\n      tag_303\n      tag_215\n      jump\t// in\n    tag_303:\n      pop\n        /* \"#utility.yul\":2998:3000   */\n      0x1f\n        /* \"#utility.yul\":2977:2992   */\n      add\n      not(0x1f)\n        /* \"#utility.yul\":2973:3002   */\n      and\n        /* \"#utility.yul\":3004:3008   */\n      0x20\n        /* \"#utility.yul\":2969:3009   */\n      add\n      swap1\n        /* \"#utility.yul\":2828:3015   */\n      jump\t// out\n        /* \"#utility.yul\":3020:4101   */\n    tag_60:\n        /* \"#utility.yul\":3125:3131   */\n      0x00\n        /* \"#utility.yul\":3133:3139   */\n      dup1\n        /* \"#utility.yul\":3141:3147   */\n      0x00\n        /* \"#utility.yul\":3149:3155   */\n      dup1\n        /* \"#utility.yul\":3157:3163   */\n      0x00\n        /* \"#utility.yul\":3210:3213   */\n      0xa0\n        /* \"#utility.yul\":3198:3207   */\n      dup7\n        /* \"#utility.yul\":3189:3196   */\n      dup9\n        /* \"#utility.yul\":3185:3208   */\n      sub\n        /* \"#utility.yul\":3181:3214   */\n      slt\n        /* \"#utility.yul\":3178:3231   */\n      iszero\n      tag_305\n      jumpi\n        /* \"#utility.yul\":3227:3228   */\n      0x00\n        /* \"#utility.yul\":3224:3225   */\n      dup1\n        /* \"#utility.yul\":3217:3229   */\n      revert\n        /* \"#utility.yul\":3178:3231   */\n    tag_305:\n        /* \"#utility.yul\":3250:3279   */\n      tag_306\n        /* \"#utility.yul\":3269:3278   */\n      dup7\n        /* \"#utility.yul\":3250:3279   */\n      tag_269\n      jump\t// in\n    tag_306:\n        /* \"#utility.yul\":3240:3279   */\n      swap5\n      pop\n        /* \"#utility.yul\":3348:3350   */\n      0x20\n        /* \"#utility.yul\":3333:3351   */\n      dup7\n      add\n        /* \"#utility.yul\":3320:3352   */\n      calldataload\n      swap4\n      pop\n        /* \"#utility.yul\":3427:3429   */\n      0x40\n        /* \"#utility.yul\":3412:3430   */\n      dup7\n      add\n        /* \"#utility.yul\":3399:3431   */\n      calldataload\n        /* \"#utility.yul\":3454:3472   */\n      0xffffffffffffffff\n        /* \"#utility.yul\":3443:3473   */\n      dup2\n      gt\n        /* \"#utility.yul\":3440:3490   */\n      iszero\n      tag_307\n      jumpi\n        /* \"#utility.yul\":3486:3487   */\n      0x00\n        /* \"#utility.yul\":3483:3484   */\n      dup1\n        /* \"#utility.yul\":3476:3488   */\n      revert\n        /* \"#utility.yul\":3440:3490   */\n    tag_307:\n        /* \"#utility.yul\":3509:3531   */\n      dup7\n      add\n        /* \"#utility.yul\":3562:3566   */\n      0x1f\n        /* \"#utility.yul\":3554:3567   */\n      dup2\n      add\n        /* \"#utility.yul\":3550:3577   */\n      dup9\n      sgt\n        /* \"#utility.yul\":3540:3595   */\n      tag_308\n      jumpi\n        /* \"#utility.yul\":3591:3592   */\n      0x00\n        /* \"#utility.yul\":3588:3589   */\n      dup1\n        /* \"#utility.yul\":3581:3593   */\n      revert\n        /* \"#utility.yul\":3540:3595   */\n    tag_308:\n        /* \"#utility.yul\":3631:3633   */\n      dup1\n        /* \"#utility.yul\":3618:3634   */\n      calldataload\n        /* \"#utility.yul\":3656:3709   */\n      tag_309\n        /* \"#utility.yul\":3672:3708   */\n      tag_310\n        /* \"#utility.yul\":3701:3707   */\n      dup3\n        /* \"#utility.yul\":3672:3708   */\n      tag_273\n      jump\t// in\n    tag_310:\n        /* \"#utility.yul\":3656:3709   */\n      tag_272\n      jump\t// in\n    tag_309:\n        /* \"#utility.yul\":3732:3738   */\n      dup2\n        /* \"#utility.yul\":3725:3730   */\n      dup2\n        /* \"#utility.yul\":3718:3739   */\n      mstore\n        /* \"#utility.yul\":3780:3787   */\n      dup10\n        /* \"#utility.yul\":3775:3777   */\n      0x20\n        /* \"#utility.yul\":3766:3772   */\n      dup4\n        /* \"#utility.yul\":3762:3764   */\n      dup6\n        /* \"#utility.yul\":3758:3773   */\n      add\n        /* \"#utility.yul\":3754:3778   */\n      add\n        /* \"#utility.yul\":3751:3788   */\n      gt\n        /* \"#utility.yul\":3748:3805   */\n      iszero\n      tag_311\n      jumpi\n        /* \"#utility.yul\":3801:3802   */\n      0x00\n        /* \"#utility.yul\":3798:3799   */\n      dup1\n        /* \"#utility.yul\":3791:3803   */\n      revert\n        /* \"#utility.yul\":3748:3805   */\n    tag_311:\n        /* \"#utility.yul\":3856:3862   */\n      dup2\n        /* \"#utility.yul\":3851:3853   */\n      0x20\n        /* \"#utility.yul\":3847:3849   */\n      dup5\n        /* \"#utility.yul\":3843:3854   */\n      add\n        /* \"#utility.yul\":3838:3840   */\n      0x20\n        /* \"#utility.yul\":3831:3836   */\n      dup4\n        /* \"#utility.yul\":3827:3841   */\n      add\n        /* \"#utility.yul\":3814:3863   */\n      calldatacopy\n        /* \"#utility.yul\":3908:3909   */\n      0x00\n        /* \"#utility.yul\":3883:3901   */\n      swap2\n      dup2\n      add\n        /* \"#utility.yul\":3903:3905   */\n      0x20\n        /* \"#utility.yul\":3879:3906   */\n      add\n        /* \"#utility.yul\":3872:3910   */\n      swap2\n      swap1\n      swap2\n      mstore\n        /* \"#utility.yul\":3887:3892   */\n      swap4\n      pop\n      pop\n        /* \"#utility.yul\":4007:4009   */\n      0x60\n        /* \"#utility.yul\":3992:4010   */\n      dup7\n      add\n        /* \"#utility.yul\":3979:4011   */\n      calldataload\n      swap2\n      pop\n        /* \"#utility.yul\":4056:4095   */\n      tag_312\n        /* \"#utility.yul\":4090:4093   */\n      0x80\n        /* \"#utility.yul\":4075:4094   */\n      dup8\n      add\n        /* \"#utility.yul\":4056:4095   */\n      tag_269\n      jump\t// in\n    tag_312:\n        /* \"#utility.yul\":4046:4095   */\n      swap1\n      pop\n        /* \"#utility.yul\":3020:4101   */\n      swap3\n      swap6\n      pop\n      swap3\n      swap6\n      swap1\n      swap4\n      pop\n      jump\t// out\n        /* \"#utility.yul\":4423:4723   */\n    tag_70:\n        /* \"#utility.yul\":4491:4497   */\n      0x00\n        /* \"#utility.yul\":4499:4505   */\n      dup1\n        /* \"#utility.yul\":4552:4554   */\n      0x40\n        /* \"#utility.yul\":4540:4549   */\n      dup4\n        /* \"#utility.yul\":4531:4538   */\n      dup6\n        /* \"#utility.yul\":4527:4550   */\n      sub\n        /* \"#utility.yul\":4523:4555   */\n      slt\n        /* \"#utility.yul\":4520:4572   */\n      iszero\n      tag_316\n      jumpi\n        /* \"#utility.yul\":4568:4569   */\n      0x00\n        /* \"#utility.yul\":4565:4566   */\n      dup1\n        /* \"#utility.yul\":4558:4570   */\n      revert\n        /* \"#utility.yul\":4520:4572   */\n    tag_316:\n        /* \"#utility.yul\":4591:4620   */\n      tag_317\n        /* \"#utility.yul\":4610:4619   */\n      dup4\n        /* \"#utility.yul\":4591:4620   */\n      tag_269\n      jump\t// in\n    tag_317:\n        /* \"#utility.yul\":4581:4620   */\n      swap5\n        /* \"#utility.yul\":4689:4691   */\n      0x20\n        /* \"#utility.yul\":4674:4692   */\n      swap4\n      swap1\n      swap4\n      add\n        /* \"#utility.yul\":4661:4693   */\n      calldataload\n      swap4\n      pop\n      pop\n      pop\n        /* \"#utility.yul\":4423:4723   */\n      jump\t// out\n        /* \"#utility.yul\":5644:5894   */\n    tag_275:\n        /* \"#utility.yul\":5729:5730   */\n      0x00\n        /* \"#utility.yul\":5739:5852   */\n    tag_320:\n        /* \"#utility.yul\":5753:5759   */\n      dup4\n        /* \"#utility.yul\":5750:5751   */\n      dup2\n        /* \"#utility.yul\":5747:5760   */\n      lt\n        /* \"#utility.yul\":5739:5852   */\n      iszero\n      tag_322\n      jumpi\n        /* \"#utility.yul\":5829:5840   */\n      dup2\n      dup2\n      add\n        /* \"#utility.yul\":5823:5841   */\n      mload\n        /* \"#utility.yul\":5810:5821   */\n      dup4\n      dup3\n      add\n        /* \"#utility.yul\":5803:5842   */\n      mstore\n        /* \"#utility.yul\":5775:5777   */\n      0x20\n        /* \"#utility.yul\":5768:5778   */\n      add\n        /* \"#utility.yul\":5739:5852   */\n      jump(tag_320)\n    tag_322:\n      pop\n      pop\n        /* \"#utility.yul\":5886:5887   */\n      0x00\n        /* \"#utility.yul\":5868:5884   */\n      swap2\n      add\n        /* \"#utility.yul\":5861:5888   */\n      mstore\n        /* \"#utility.yul\":5644:5894   */\n      jump\t// out\n        /* \"#utility.yul\":5899:6170   */\n    tag_276:\n        /* \"#utility.yul\":5941:5944   */\n      0x00\n        /* \"#utility.yul\":5979:5984   */\n      dup2\n        /* \"#utility.yul\":5973:5985   */\n      mload\n        /* \"#utility.yul\":6006:6012   */\n      dup1\n        /* \"#utility.yul\":6001:6004   */\n      dup5\n        /* \"#utility.yul\":5994:6013   */\n      mstore\n        /* \"#utility.yul\":6022:6098   */\n      tag_324\n        /* \"#utility.yul\":6091:6097   */\n      dup2\n        /* \"#utility.yul\":6084:6088   */\n      0x20\n        /* \"#utility.yul\":6079:6082   */\n      dup7\n        /* \"#utility.yul\":6075:6089   */\n      add\n        /* \"#utility.yul\":6068:6072   */\n      0x20\n        /* \"#utility.yul\":6061:6066   */\n      dup7\n        /* \"#utility.yul\":6057:6073   */\n      add\n        /* \"#utility.yul\":6022:6098   */\n      tag_275\n      jump\t// in\n    tag_324:\n        /* \"#utility.yul\":6152:6154   */\n      0x1f\n        /* \"#utility.yul\":6131:6146   */\n      add\n      not(0x1f)\n        /* \"#utility.yul\":6127:6156   */\n      and\n        /* \"#utility.yul\":6118:6157   */\n      swap3\n      swap1\n      swap3\n      add\n        /* \"#utility.yul\":6159:6163   */\n      0x20\n        /* \"#utility.yul\":6114:6164   */\n      add\n      swap3\n        /* \"#utility.yul\":5899:6170   */\n      swap2\n      pop\n      pop\n      jump\t// out\n        /* \"#utility.yul\":6175:8063   */\n    tag_78:\n        /* \"#utility.yul\":6385:6389   */\n      0x00\n        /* \"#utility.yul\":6433:6435   */\n      0x20\n        /* \"#utility.yul\":6422:6431   */\n      dup3\n        /* \"#utility.yul\":6418:6436   */\n      add\n        /* \"#utility.yul\":6463:6465   */\n      0x20\n        /* \"#utility.yul\":6452:6461   */\n      dup4\n        /* \"#utility.yul\":6445:6466   */\n      mstore\n        /* \"#utility.yul\":6486:6492   */\n      dup1\n        /* \"#utility.yul\":6521:6527   */\n      dup5\n        /* \"#utility.yul\":6515:6528   */\n      mload\n        /* \"#utility.yul\":6552:6558   */\n      dup1\n        /* \"#utility.yul\":6544:6550   */\n      dup4\n        /* \"#utility.yul\":6537:6559   */\n      mstore\n        /* \"#utility.yul\":6590:6592   */\n      0x40\n        /* \"#utility.yul\":6579:6588   */\n      dup6\n        /* \"#utility.yul\":6575:6593   */\n      add\n        /* \"#utility.yul\":6568:6593   */\n      swap2\n      pop\n        /* \"#utility.yul\":6652:6654   */\n      0x40\n        /* \"#utility.yul\":6642:6648   */\n      dup2\n        /* \"#utility.yul\":6639:6640   */\n      0x05\n        /* \"#utility.yul\":6635:6649   */\n      shl\n        /* \"#utility.yul\":6624:6633   */\n      dup7\n        /* \"#utility.yul\":6620:6650   */\n      add\n        /* \"#utility.yul\":6616:6655   */\n      add\n        /* \"#utility.yul\":6602:6655   */\n      swap3\n      pop\n        /* \"#utility.yul\":6690:6692   */\n      0x20\n        /* \"#utility.yul\":6682:6688   */\n      dup7\n        /* \"#utility.yul\":6678:6693   */\n      add\n        /* \"#utility.yul\":6711:6712   */\n      0x00\n        /* \"#utility.yul\":6721:8034   */\n    tag_326:\n        /* \"#utility.yul\":6735:6741   */\n      dup3\n        /* \"#utility.yul\":6732:6733   */\n      dup2\n        /* \"#utility.yul\":6729:6742   */\n      lt\n        /* \"#utility.yul\":6721:8034   */\n      iszero\n      tag_328\n      jumpi\n        /* \"#utility.yul\":6828:6830   */\n      0x3f\n        /* \"#utility.yul\":6824:6831   */\n      not\n        /* \"#utility.yul\":6812:6821   */\n      dup8\n        /* \"#utility.yul\":6804:6810   */\n      dup7\n        /* \"#utility.yul\":6800:6822   */\n      sub\n        /* \"#utility.yul\":6796:6832   */\n      add\n        /* \"#utility.yul\":6791:6794   */\n      dup5\n        /* \"#utility.yul\":6784:6833   */\n      mstore\n        /* \"#utility.yul\":6862:6868   */\n      dup2\n        /* \"#utility.yul\":6856:6869   */\n      mload\n        /* \"#utility.yul\":6898:6900   */\n      dup1\n        /* \"#utility.yul\":6892:6901   */\n      mload\n        /* \"#utility.yul\":6935:6937   */\n      dup1\n        /* \"#utility.yul\":6929:6938   */\n      mload\n        /* \"#utility.yul\":6921:6927   */\n      dup8\n        /* \"#utility.yul\":6914:6939   */\n      mstore\n        /* \"#utility.yul\":6986:6988   */\n      0x20\n        /* \"#utility.yul\":6982:6984   */\n      dup2\n        /* \"#utility.yul\":6978:6989   */\n      add\n        /* \"#utility.yul\":6972:6990   */\n      mload\n        /* \"#utility.yul\":7003:7052   */\n      tag_329\n        /* \"#utility.yul\":7048:7050   */\n      0x20\n        /* \"#utility.yul\":7040:7046   */\n      dup10\n        /* \"#utility.yul\":7036:7051   */\n      add\n        /* \"#utility.yul\":7022:7034   */\n      dup3\n      sub(shl(0xa0, 0x01), 0x01)\n        /* \"#utility.yul\":4172:4203   */\n      and\n        /* \"#utility.yul\":4160:4204   */\n      swap1\n      mstore\n        /* \"#utility.yul\":4106:4210   */\n      jump\n        /* \"#utility.yul\":7003:7052   */\n    tag_329:\n      pop\n        /* \"#utility.yul\":7101:7103   */\n      0x40\n        /* \"#utility.yul\":7097:7099   */\n      dup2\n        /* \"#utility.yul\":7093:7104   */\n      add\n        /* \"#utility.yul\":7087:7105   */\n      mload\n        /* \"#utility.yul\":7118:7169   */\n      tag_330\n        /* \"#utility.yul\":7165:7167   */\n      0x40\n        /* \"#utility.yul\":7157:7163   */\n      dup10\n        /* \"#utility.yul\":7153:7168   */\n      add\n        /* \"#utility.yul\":7137:7151   */\n      dup3\n      sub(shl(0xa0, 0x01), 0x01)\n        /* \"#utility.yul\":4172:4203   */\n      and\n        /* \"#utility.yul\":4160:4204   */\n      swap1\n      mstore\n        /* \"#utility.yul\":4106:4210   */\n      jump\n        /* \"#utility.yul\":7118:7169   */\n    tag_330:\n      pop\n        /* \"#utility.yul\":7222:7226   */\n      0x60\n        /* \"#utility.yul\":7218:7220   */\n      dup2\n        /* \"#utility.yul\":7214:7227   */\n      add\n        /* \"#utility.yul\":7208:7228   */\n      mload\n        /* \"#utility.yul\":7201:7205   */\n      0x60\n        /* \"#utility.yul\":7193:7199   */\n      dup9\n        /* \"#utility.yul\":7189:7206   */\n      add\n        /* \"#utility.yul\":7182:7229   */\n      mstore\n        /* \"#utility.yul\":7282:7286   */\n      0x80\n        /* \"#utility.yul\":7278:7280   */\n      dup2\n        /* \"#utility.yul\":7274:7287   */\n      add\n        /* \"#utility.yul\":7268:7288   */\n      mload\n        /* \"#utility.yul\":7261:7265   */\n      0x80\n        /* \"#utility.yul\":7253:7259   */\n      dup9\n        /* \"#utility.yul\":7249:7266   */\n      add\n        /* \"#utility.yul\":7242:7289   */\n      mstore\n        /* \"#utility.yul\":7338:7342   */\n      0xa0\n        /* \"#utility.yul\":7334:7336   */\n      dup2\n        /* \"#utility.yul\":7330:7343   */\n      add\n        /* \"#utility.yul\":7324:7344   */\n      mload\n        /* \"#utility.yul\":7357:7407   */\n      tag_331\n        /* \"#utility.yul\":7401:7405   */\n      0xa0\n        /* \"#utility.yul\":7393:7399   */\n      dup10\n        /* \"#utility.yul\":7389:7406   */\n      add\n        /* \"#utility.yul\":7373:7387   */\n      dup3\n        /* \"#utility.yul\":453:466   */\n      iszero\n        /* \"#utility.yul\":446:467   */\n      iszero\n        /* \"#utility.yul\":434:468   */\n      swap1\n      mstore\n        /* \"#utility.yul\":383:474   */\n      jump\n        /* \"#utility.yul\":7357:7407   */\n    tag_331:\n      pop\n        /* \"#utility.yul\":7456:7460   */\n      0xc0\n        /* \"#utility.yul\":7452:7454   */\n      dup2\n        /* \"#utility.yul\":7448:7461   */\n      add\n        /* \"#utility.yul\":7442:7462   */\n      mload\n        /* \"#utility.yul\":7475:7528   */\n      tag_332\n        /* \"#utility.yul\":7522:7526   */\n      0xc0\n        /* \"#utility.yul\":7514:7520   */\n      dup10\n        /* \"#utility.yul\":7510:7527   */\n      add\n        /* \"#utility.yul\":7494:7508   */\n      dup3\n      sub(shl(0xa0, 0x01), 0x01)\n        /* \"#utility.yul\":4172:4203   */\n      and\n        /* \"#utility.yul\":4160:4204   */\n      swap1\n      mstore\n        /* \"#utility.yul\":4106:4210   */\n      jump\n        /* \"#utility.yul\":7475:7528   */\n    tag_332:\n      pop\n        /* \"#utility.yul\":7581:7585   */\n      0xe0\n        /* \"#utility.yul\":7577:7579   */\n      dup2\n        /* \"#utility.yul\":7573:7586   */\n      add\n        /* \"#utility.yul\":7567:7587   */\n      mload\n        /* \"#utility.yul\":7560:7564   */\n      0xe0\n        /* \"#utility.yul\":7552:7558   */\n      dup9\n        /* \"#utility.yul\":7548:7565   */\n      add\n        /* \"#utility.yul\":7541:7588   */\n      mstore\n        /* \"#utility.yul\":7643:7649   */\n      0x0100\n        /* \"#utility.yul\":7639:7641   */\n      dup2\n        /* \"#utility.yul\":7635:7650   */\n      add\n        /* \"#utility.yul\":7629:7651   */\n      mload\n        /* \"#utility.yul\":7620:7626   */\n      0x0100\n        /* \"#utility.yul\":7612:7618   */\n      dup9\n        /* \"#utility.yul\":7608:7627   */\n      add\n        /* \"#utility.yul\":7601:7652   */\n      mstore\n        /* \"#utility.yul\":7707:7713   */\n      0x0120\n        /* \"#utility.yul\":7703:7705   */\n      dup2\n        /* \"#utility.yul\":7699:7714   */\n      add\n        /* \"#utility.yul\":7693:7715   */\n      mload\n        /* \"#utility.yul\":7684:7690   */\n      0x0120\n        /* \"#utility.yul\":7676:7682   */\n      dup9\n        /* \"#utility.yul\":7672:7691   */\n      add\n        /* \"#utility.yul\":7665:7716   */\n      mstore\n      pop\n        /* \"#utility.yul\":7771:7773   */\n      0x20\n        /* \"#utility.yul\":7767:7769   */\n      dup2\n        /* \"#utility.yul\":7763:7774   */\n      add\n        /* \"#utility.yul\":7757:7775   */\n      mload\n        /* \"#utility.yul\":7748:7754   */\n      0x0140\n        /* \"#utility.yul\":7740:7746   */\n      dup8\n        /* \"#utility.yul\":7736:7755   */\n      add\n        /* \"#utility.yul\":7729:7776   */\n      mstore\n        /* \"#utility.yul\":7825:7827   */\n      0x40\n        /* \"#utility.yul\":7821:7823   */\n      dup2\n        /* \"#utility.yul\":7817:7828   */\n      add\n        /* \"#utility.yul\":7811:7829   */\n      mload\n        /* \"#utility.yul\":7789:7829   */\n      swap1\n      pop\n        /* \"#utility.yul\":7870:7876   */\n      0x0180\n        /* \"#utility.yul\":7861:7867   */\n      0x0160\n        /* \"#utility.yul\":7853:7859   */\n      dup8\n        /* \"#utility.yul\":7849:7868   */\n      add\n        /* \"#utility.yul\":7842:7877   */\n      mstore\n        /* \"#utility.yul\":7900:7954   */\n      tag_333\n        /* \"#utility.yul\":7946:7952   */\n      0x0180\n        /* \"#utility.yul\":7938:7944   */\n      dup8\n        /* \"#utility.yul\":7934:7953   */\n      add\n        /* \"#utility.yul\":7918:7932   */\n      dup3\n        /* \"#utility.yul\":7900:7954   */\n      tag_276\n      jump\t// in\n    tag_333:\n        /* \"#utility.yul\":7890:7954   */\n      swap6\n      pop\n      pop\n        /* \"#utility.yul\":7989:7991   */\n      0x20\n        /* \"#utility.yul\":8012:8024   */\n      swap4\n      dup5\n      add\n      swap4\n        /* \"#utility.yul\":7977:7992   */\n      swap2\n      swap1\n      swap2\n      add\n      swap1\n        /* \"#utility.yul\":6757:6758   */\n      0x01\n        /* \"#utility.yul\":6750:6759   */\n      add\n        /* \"#utility.yul\":6721:8034   */\n      jump(tag_326)\n    tag_328:\n      pop\n        /* \"#utility.yul\":8051:8057   */\n      swap3\n      swap7\n        /* \"#utility.yul\":6175:8063   */\n      swap6\n      pop\n      pop\n      pop\n      pop\n      pop\n      pop\n      jump\t// out\n        /* \"#utility.yul\":8068:8277   */\n    tag_86:\n        /* \"#utility.yul\":8142:8148   */\n      0x00\n        /* \"#utility.yul\":8195:8197   */\n      0x20\n        /* \"#utility.yul\":8183:8192   */\n      dup3\n        /* \"#utility.yul\":8174:8181   */\n      dup5\n        /* \"#utility.yul\":8170:8193   */\n      sub\n        /* \"#utility.yul\":8166:8198   */\n      slt\n        /* \"#utility.yul\":8163:8215   */\n      iszero\n      tag_335\n      jumpi\n        /* \"#utility.yul\":8211:8212   */\n      0x00\n        /* \"#utility.yul\":8208:8209   */\n      dup1\n        /* \"#utility.yul\":8201:8213   */\n      revert\n        /* \"#utility.yul\":8163:8215   */\n    tag_335:\n        /* \"#utility.yul\":8234:8271   */\n      tag_283\n        /* \"#utility.yul\":8261:8270   */\n      dup3\n        /* \"#utility.yul\":8234:8271   */\n      tag_271\n      jump\t// in\n        /* \"#utility.yul\":8561:8745   */\n    tag_104:\n        /* \"#utility.yul\":8631:8637   */\n      0x00\n        /* \"#utility.yul\":8684:8686   */\n      0x20\n        /* \"#utility.yul\":8672:8681   */\n      dup3\n        /* \"#utility.yul\":8663:8670   */\n      dup5\n        /* \"#utility.yul\":8659:8682   */\n      sub\n        /* \"#utility.yul\":8655:8687   */\n      slt\n        /* \"#utility.yul\":8652:8704   */\n      iszero\n      tag_339\n      jumpi\n        /* \"#utility.yul\":8700:8701   */\n      0x00\n        /* \"#utility.yul\":8697:8698   */\n      dup1\n        /* \"#utility.yul\":8690:8702   */\n      revert\n        /* \"#utility.yul\":8652:8704   */\n    tag_339:\n      pop\n        /* \"#utility.yul\":8723:8739   */\n      mload\n      swap2\n        /* \"#utility.yul\":8561:8745   */\n      swap1\n      pop\n      jump\t// out\n        /* \"#utility.yul\":9446:9573   */\n    tag_140:\n        /* \"#utility.yul\":9507:9517   */\n      0x4e487b71\n        /* \"#utility.yul\":9502:9505   */\n      0xe0\n        /* \"#utility.yul\":9498:9518   */\n      shl\n        /* \"#utility.yul\":9495:9496   */\n      0x00\n        /* \"#utility.yul\":9488:9519   */\n      mstore\n        /* \"#utility.yul\":9538:9542   */\n      0x21\n        /* \"#utility.yul\":9535:9536   */\n      0x04\n        /* \"#utility.yul\":9528:9543   */\n      mstore\n        /* \"#utility.yul\":9562:9566   */\n      0x24\n        /* \"#utility.yul\":9559:9560   */\n      0x00\n        /* \"#utility.yul\":9552:9567   */\n      revert\n        /* \"#utility.yul\":9578:9705   */\n    tag_277:\n        /* \"#utility.yul\":9639:9649   */\n      0x4e487b71\n        /* \"#utility.yul\":9634:9637   */\n      0xe0\n        /* \"#utility.yul\":9630:9650   */\n      shl\n        /* \"#utility.yul\":9627:9628   */\n      0x00\n        /* \"#utility.yul\":9620:9651   */\n      mstore\n        /* \"#utility.yul\":9670:9674   */\n      0x11\n        /* \"#utility.yul\":9667:9668   */\n      0x04\n        /* \"#utility.yul\":9660:9675   */\n      mstore\n        /* \"#utility.yul\":9694:9698   */\n      0x24\n        /* \"#utility.yul\":9691:9692   */\n      0x00\n        /* \"#utility.yul\":9684:9699   */\n      revert\n        /* \"#utility.yul\":9710:9878   */\n    tag_144:\n        /* \"#utility.yul\":9783:9792   */\n      dup1\n      dup3\n      mul\n        /* \"#utility.yul\":9814:9823   */\n      dup2\n      iszero\n        /* \"#utility.yul\":9831:9846   */\n      dup3\n      dup3\n      div\n        /* \"#utility.yul\":9825:9847   */\n      dup5\n      eq\n        /* \"#utility.yul\":9811:9848   */\n      or\n        /* \"#utility.yul\":9801:9872   */\n      tag_346\n      jumpi\n        /* \"#utility.yul\":9852:9870   */\n      tag_346\n      tag_277\n      jump\t// in\n    tag_346:\n        /* \"#utility.yul\":9710:9878   */\n      swap3\n      swap2\n      pop\n      pop\n      jump\t// out\n        /* \"#utility.yul\":9883:10100   */\n    tag_146:\n        /* \"#utility.yul\":9923:9924   */\n      0x00\n        /* \"#utility.yul\":9949:9950   */\n      dup3\n        /* \"#utility.yul\":9939:10071   */\n      tag_348\n      jumpi\n        /* \"#utility.yul\":9993:10003   */\n      0x4e487b71\n        /* \"#utility.yul\":9988:9991   */\n      0xe0\n        /* \"#utility.yul\":9984:10004   */\n      shl\n        /* \"#utility.yul\":9981:9982   */\n      0x00\n        /* \"#utility.yul\":9974:10005   */\n      mstore\n        /* \"#utility.yul\":10028:10032   */\n      0x12\n        /* \"#utility.yul\":10025:10026   */\n      0x04\n        /* \"#utility.yul\":10018:10033   */\n      mstore\n        /* \"#utility.yul\":10056:10060   */\n      0x24\n        /* \"#utility.yul\":10053:10054   */\n      0x00\n        /* \"#utility.yul\":10046:10061   */\n      revert\n        /* \"#utility.yul\":9939:10071   */\n    tag_348:\n      pop\n        /* \"#utility.yul\":10085:10094   */\n      div\n      swap1\n        /* \"#utility.yul\":9883:10100   */\n      jump\t// out\n        /* \"#utility.yul\":10448:10573   */\n    tag_151:\n        /* \"#utility.yul\":10513:10522   */\n      dup1\n      dup3\n      add\n        /* \"#utility.yul\":10534:10544   */\n      dup1\n      dup3\n      gt\n        /* \"#utility.yul\":10531:10567   */\n      iszero\n      tag_346\n      jumpi\n        /* \"#utility.yul\":10547:10565   */\n      tag_346\n      tag_277\n      jump\t// in\n        /* \"#utility.yul\":11299:11427   */\n    tag_171:\n        /* \"#utility.yul\":11366:11375   */\n      dup2\n      dup2\n      sub\n        /* \"#utility.yul\":11387:11398   */\n      dup2\n      dup2\n      gt\n        /* \"#utility.yul\":11384:11421   */\n      iszero\n      tag_346\n      jumpi\n        /* \"#utility.yul\":11401:11419   */\n      tag_346\n      tag_277\n      jump\t// in\n        /* \"#utility.yul\":11432:11567   */\n    tag_183:\n        /* \"#utility.yul\":11471:11474   */\n      0x00\n        /* \"#utility.yul\":11492:11509   */\n      0x01\n      dup3\n      add\n        /* \"#utility.yul\":11489:11532   */\n      tag_360\n      jumpi\n        /* \"#utility.yul\":11512:11530   */\n      tag_360\n      tag_277\n      jump\t// in\n    tag_360:\n      pop\n        /* \"#utility.yul\":11559:11560   */\n      0x01\n        /* \"#utility.yul\":11548:11561   */\n      add\n      swap1\n        /* \"#utility.yul\":11432:11567   */\n      jump\t// out\n        /* \"#utility.yul\":12092:12383   */\n    tag_209:\n        /* \"#utility.yul\":12269:12271   */\n      0x40\n        /* \"#utility.yul\":12258:12267   */\n      dup2\n        /* \"#utility.yul\":12251:12272   */\n      mstore\n        /* \"#utility.yul\":12232:12236   */\n      0x00\n        /* \"#utility.yul\":12289:12334   */\n      tag_363\n        /* \"#utility.yul\":12330:12332   */\n      0x40\n        /* \"#utility.yul\":12319:12328   */\n      dup4\n        /* \"#utility.yul\":12315:12333   */\n      add\n        /* \"#utility.yul\":12307:12313   */\n      dup6\n        /* \"#utility.yul\":12289:12334   */\n      tag_276\n      jump\t// in\n    tag_363:\n        /* \"#utility.yul\":12281:12334   */\n      swap1\n      pop\n        /* \"#utility.yul\":12370:12376   */\n      dup3\n        /* \"#utility.yul\":12365:12367   */\n      0x20\n        /* \"#utility.yul\":12354:12363   */\n      dup4\n        /* \"#utility.yul\":12350:12368   */\n      add\n        /* \"#utility.yul\":12343:12377   */\n      mstore\n        /* \"#utility.yul\":12092:12383   */\n      swap4\n      swap3\n      pop\n      pop\n      pop\n      jump\t// out\n        /* \"#utility.yul\":12388:13057   */\n    tag_229:\n        /* \"#utility.yul\":12468:12474   */\n      0x00\n        /* \"#utility.yul\":12521:12523   */\n      0x20\n        /* \"#utility.yul\":12509:12518   */\n      dup3\n        /* \"#utility.yul\":12500:12507   */\n      dup5\n        /* \"#utility.yul\":12496:12519   */\n      sub\n        /* \"#utility.yul\":12492:12524   */\n      slt\n        /* \"#utility.yul\":12489:12541   */\n      iszero\n      tag_365\n      jumpi\n        /* \"#utility.yul\":12537:12538   */\n      0x00\n        /* \"#utility.yul\":12534:12535   */\n      dup1\n        /* \"#utility.yul\":12527:12539   */\n      revert\n        /* \"#utility.yul\":12489:12541   */\n    tag_365:\n        /* \"#utility.yul\":12570:12579   */\n      dup2\n        /* \"#utility.yul\":12564:12580   */\n      mload\n        /* \"#utility.yul\":12603:12621   */\n      0xffffffffffffffff\n        /* \"#utility.yul\":12595:12601   */\n      dup2\n        /* \"#utility.yul\":12592:12622   */\n      gt\n        /* \"#utility.yul\":12589:12639   */\n      iszero\n      tag_366\n      jumpi\n        /* \"#utility.yul\":12635:12636   */\n      0x00\n        /* \"#utility.yul\":12632:12633   */\n      dup1\n        /* \"#utility.yul\":12625:12637   */\n      revert\n        /* \"#utility.yul\":12589:12639   */\n    tag_366:\n        /* \"#utility.yul\":12658:12680   */\n      dup3\n      add\n        /* \"#utility.yul\":12711:12715   */\n      0x1f\n        /* \"#utility.yul\":12703:12716   */\n      dup2\n      add\n        /* \"#utility.yul\":12699:12726   */\n      dup5\n      sgt\n        /* \"#utility.yul\":12689:12744   */\n      tag_367\n      jumpi\n        /* \"#utility.yul\":12740:12741   */\n      0x00\n        /* \"#utility.yul\":12737:12738   */\n      dup1\n        /* \"#utility.yul\":12730:12742   */\n      revert\n        /* \"#utility.yul\":12689:12744   */\n    tag_367:\n        /* \"#utility.yul\":12773:12775   */\n      dup1\n        /* \"#utility.yul\":12767:12776   */\n      mload\n        /* \"#utility.yul\":12798:12851   */\n      tag_368\n        /* \"#utility.yul\":12814:12850   */\n      tag_310\n        /* \"#utility.yul\":12843:12849   */\n      dup3\n        /* \"#utility.yul\":12814:12850   */\n      tag_273\n      jump\t// in\n        /* \"#utility.yul\":12798:12851   */\n    tag_368:\n        /* \"#utility.yul\":12874:12880   */\n      dup2\n        /* \"#utility.yul\":12867:12872   */\n      dup2\n        /* \"#utility.yul\":12860:12881   */\n      mstore\n        /* \"#utility.yul\":12922:12929   */\n      dup6\n        /* \"#utility.yul\":12917:12919   */\n      0x20\n        /* \"#utility.yul\":12908:12914   */\n      dup4\n        /* \"#utility.yul\":12904:12906   */\n      dup6\n        /* \"#utility.yul\":12900:12915   */\n      add\n        /* \"#utility.yul\":12896:12920   */\n      add\n        /* \"#utility.yul\":12893:12930   */\n      gt\n        /* \"#utility.yul\":12890:12947   */\n      iszero\n      tag_370\n      jumpi\n        /* \"#utility.yul\":12943:12944   */\n      0x00\n        /* \"#utility.yul\":12940:12941   */\n      dup1\n        /* \"#utility.yul\":12933:12945   */\n      revert\n        /* \"#utility.yul\":12890:12947   */\n    tag_370:\n        /* \"#utility.yul\":12956:13027   */\n      tag_371\n        /* \"#utility.yul\":13020:13026   */\n      dup3\n        /* \"#utility.yul\":13015:13017   */\n      0x20\n        /* \"#utility.yul\":13008:13013   */\n      dup4\n        /* \"#utility.yul\":13004:13018   */\n      add\n        /* \"#utility.yul\":12999:13001   */\n      0x20\n        /* \"#utility.yul\":12995:12997   */\n      dup7\n        /* \"#utility.yul\":12991:13002   */\n      add\n        /* \"#utility.yul\":12956:13027   */\n      tag_275\n      jump\t// in\n    tag_371:\n        /* \"#utility.yul\":13046:13051   */\n      swap6\n        /* \"#utility.yul\":12388:13057   */\n      swap5\n      pop\n      pop\n      pop\n      pop\n      pop\n      jump\t// out\n        /* \"#utility.yul\":13062:13189   */\n    tag_232:\n        /* \"#utility.yul\":13123:13133   */\n      0x4e487b71\n        /* \"#utility.yul\":13118:13121   */\n      0xe0\n        /* \"#utility.yul\":13114:13134   */\n      shl\n        /* \"#utility.yul\":13111:13112   */\n      0x00\n        /* \"#utility.yul\":13104:13135   */\n      mstore\n        /* \"#utility.yul\":13154:13158   */\n      0x32\n        /* \"#utility.yul\":13151:13152   */\n      0x04\n        /* \"#utility.yul\":13144:13159   */\n      mstore\n        /* \"#utility.yul\":13178:13182   */\n      0x24\n        /* \"#utility.yul\":13175:13176   */\n      0x00\n        /* \"#utility.yul\":13168:13183   */\n      revert\n\n    auxdata: 0xa2646970667358221220b7cf876d243431b87f2a79a95367c296828e10477aca05fa16d71c50943a67c764736f6c634300081a0033\n}\n",
				"bytecode": {
					"linkReferences": {},
					"object": "6080604052600880546001600160a01b0319908116735f31f088c0d692ff133bd3b11b923f4e1be99e9b1790915560098054821673e2cbadc3250dc901596e1cdffa778fc313162247179055600a8054821673572dd734f1068c1eda13e0b655bc227b31ad8f72179055600b805490911673e533f399513f8ed44d7e12e458d532fe7005cf4e17905534801561009457600080fd5b50604051611fc3380380611fc38339810160408190526100b3916101d4565b33806100d957604051631e4fbdf760e01b81526000600482015260240160405180910390fd5b6100e281610184565b5050600c60205260007f13649b2456f1b42fef0f0040b3aaeabcd21a76a0f3f5defd4f583839455116e881905560037fd421a5181c571bba3f01190c922c3b2a896fc1d84e86c9f17ac10e67ebef8b5c81905560047f5d6016397a73f5e079297ac5a36fef17b4d9c3831618e63ab105738020ddd72055905260057fc0da782485e77ae272268ae0a3ff44c1552ecb60b3743924de17a815e0a3cfd755610204565b600080546001600160a01b038381166001600160a01b0319831681178455604051919092169283917f8be0079c531659141344cd1fd0a4f28419497f9722a3daafe3b4186f6b6457e09190a35050565b6000602082840312156101e657600080fd5b81516001600160a01b03811681146101fd57600080fd5b9392505050565b611db0806102136000396000f3fe6080604052600436106100e85760003560e01c80637c7ce62d1161008a5780639f5e6fd9116100595780639f5e6fd91461038e578063b50c0d20146103ae578063bc4bc9c8146103db578063f2fde38b1461043a57600080fd5b80637c7ce62d1461023e5780638da5cb5b1461025e57806393f311091461028657806395ce4a3b1461036c57600080fd5b80636081a0dd116100c65780636081a0dd146101c057806362590604146101e2578063715018a6146101f5578063752cd6541461020a57600080fd5b806303147f39146100ed5780631065cf731461013c5780633529280b14610185575b600080fd5b3480156100f957600080fd5b5061010d61010836600461188f565b61045a565b604080519415158552921515602085015290151591830191909152151560608201526080015b60405180910390f35b34801561014857600080fd5b506101706101573660046118b1565b6010602052600090815260409020805460019091015482565b60408051928352602083019190915201610133565b34801561019157600080fd5b506101b26101a03660046118b1565b60116020526000908152604090205481565b604051908152602001610133565b3480156101cc57600080fd5b506101e06101db3660046118ca565b610703565b005b6101e06101f03660046118fb565b610839565b34801561020157600080fd5b506101e0610f3e565b34801561021657600080fd5b506101706102253660046118b1565b600f602052600090815260409020805460019091015482565b34801561024a57600080fd5b506101e0610259366004611996565b610f52565b34801561026a57600080fd5b506000546040516001600160a01b039091168152602001610133565b34801561029257600080fd5b5061030b6102a1366004611a4b565b600d60209081526000928352604080842090915290825290208054600182015460028301546003840154600485015460058601546006870154600788015460089098015496976001600160a01b0396871697958716969495939460ff84169461010090940416928a565b604080519a8b526001600160a01b03998a1660208c0152978916978a01979097526060890195909552608088019390935290151560a087015290931660c085015260e084019290925261010083019190915261012082015261014001610133565b34801561037857600080fd5b50610381611273565b6040516101339190611ac5565b34801561039a57600080fd5b506101e06103a93660046118b1565b6114f2565b3480156103ba57600080fd5b506101b26103c9366004611bed565b600c6020526000908152604090205481565b3480156103e757600080fd5b5061041b6103f63660046118b1565b600e60205260009081526040902080546001909101546001600160a01b039091169082565b604080516001600160a01b039093168352602083019190915201610133565b34801561044657600080fd5b506101e061045536600461188f565b611761565b6008546040516370a0823160e01b81526001600160a01b03838116600483015260009283928392839283929116906370a0823190602401602060405180830381865afa1580156104ae573d6000803e3d6000fd5b505050506040513d601f19601f820116820180604052508101906104d29190611c08565b6009546040516370a0823160e01b81526001600160a01b038981166004830152929350600092909116906370a0823190602401602060405180830381865afa158015610522573d6000803e3d6000fd5b505050506040513d601f19601f820116820180604052508101906105469190611c08565b600a546040516370a0823160e01b81526001600160a01b038a81166004830152929350600092909116906370a0823190602401602060405180830381865afa158015610596573d6000803e3d6000fd5b505050506040513d601f19601f820116820180604052508101906105ba9190611c08565b600b546040516370a0823160e01b81526001600160a01b038b81166004830152929350600092909116906370a0823190602401602060405180830381865afa15801561060a573d6000803e3d6000fd5b505050506040513d601f19601f8201168201806040525081019061062e9190611c08565b90506000841180156106405750600083115b801561064c5750600082115b80156106585750600081115b15610674576001806001809750975097509750505050506106fc565b6000831180156106845750600082115b80156106905750600081115b156106ad57600060018060019750975097509750505050506106fc565b6000821180156106bd5750600081115b156106d9576000806001809750975097509750505050506106fc565b80156106f757600080600060019750975097509750505050506106fc565b505050505b9193509193565b6000828152600e6020908152604080832080546001600160a01b03168452600d8352818420600190910154845290915290206005015460ff166107855760405162461bcd60e51b815260206004820152601560248201527402a3434b99024ba32b6903737ba103634b9ba32b21605d1b60448201526064015b60405180910390fd5b6000828152600e6020908152604080832080546001600160a01b039081168552600d845282852060019283015486529093529220909101541633146108005760405162461bcd60e51b81526020600482015260116024820152702cb7ba9030b932903737ba1027bbb732b960791b604482015260640161077c565b6000918252600e6020908152604080842080546001600160a01b03168552600d8352818520600190910154855290915290912060030155565b6000828152600e6020526040812080546001909101546001600160a01b03909116916064600c8286600381111561087257610872611c21565b600381111561088357610883611c21565b815260208082019290925260409081016000908120546001600160a01b0388168252600d845282822087835290935220600301546108c19190611c4d565b6108cb9190611c6a565b6001600160a01b038481166000908152600d60209081526040808320878452909152902060010154919250339116036109375760405162461bcd60e51b815260206004820152600e60248201526d2737ba103a34329029b2b63632b960911b604482015260640161077c565b6001600160a01b0383166000908152600d60209081526040808320858452909152902060030154610969908290611c8c565b3410156109ab5760405162461bcd60e51b815260206004820152601060248201526f4e6f7420656e6f75676820707269636560801b604482015260640161077c565b6040516323b872dd60e01b8152306004820152336024820152604481018390526001600160a01b038416906323b872dd90606401600060405180830381600087803b1580156109f957600080fd5b505af1158015610a0d573d6000803e3d6000fd5b505050506001600160a01b0383166000908152600d602090815260408083208584529091528120600401549003610a96576001600160a01b038381166000908152600d60209081526040808320868452909152902060018101546005820180549190931661010002610100600160a81b03199091161790915560556006820155600f6008909101555b6001600160a01b0383166000908152600d6020908152604080832085845290915290206004015415610afc576001600160a01b0383166000908152600d602090815260408083208584529091529020600560068201819055605f60078301556008909101555b6006546000868152600e6020908152604080832080546001600160a01b03168452600d8352818420600190910154845290915281206003015490916103e891610b459190611c4d565b610b4f9190611c6a565b6005546000888152600e6020908152604080832080546001600160a01b03168452600d83528184206001909101548452909152812060030154929350916103e891610b9991611c4d565b610ba39190611c6a565b6000888152600e6020908152604080832080546001600160a01b039081168552600d808552838620600190930154865291845282852060060154908b16855290835281842089855290925282206003015492935091606490610c06908490611c4d565b610c109190611c6a565b9050600083610c1f8684611c8c565b610c299190611c8c565b6001600160a01b0389166000908152600d602090815260408083208b8452909152902060030154610c5a9190611c9f565b60008b8152600e6020908152604080832080546001600160a01b039081168552600d8452828520600192830154865290935281842001549051939450169183156108fc0291849190818181858888f19350505050158015610cbf573d6000803e3d6000fd5b5060008a8152600e6020908152604080832080546001600160a01b039081168552600d8452828520600190920154855292528083206005015490516101009091049091169184156108fc02918591818181858888f19350505050158015610d2a573d6000803e3d6000fd5b50600080546040516001600160a01b039091169187156108fc02918891818181858888f19350505050158015610d64573d6000803e3d6000fd5b50600080546040516001600160a01b039091169188156108fc02918991818181858888f19350505050158015610d9e573d6000803e3d6000fd5b506001600160a01b0388166000908152600d602090815260408083208a8452909152812060058101805460ff19169055600401805491610ddd83611cb2565b9190505550600e6000610def60015490565b8152602080820192909252604090810160009081208d8252600e90935220815481546001600160a01b0319166001600160a01b0390911617815560019182015490820155610e3c9061179f565b60008a8152600e6020908152604080832080546001600160a01b039081168552600d8452828520600190920154855290835292819020600581015460069091015482516101009092049094168152918201929092527f7bd3aa7d673767f759ebf216e7f6c12844986c661ae6e0f1d988cf7eb7394d1d910160405180910390a16001600160a01b038881166000908152600d602090815260408083208b84528252918290208054600190910154835191825290931690830152338282015260608201839052426080830152517f5fafad85dec201c2e73b6a2bef6351129304a624ea8720ecd04cd7f04d83bc399181900360a00190a150505050505050505050565b610f466117f6565b610f506000611823565b565b610f60600180546001019055565b604051806101400160405280858152602001336001600160a01b03168152602001306001600160a01b03168152602001838152602001600d6000886001600160a01b03166001600160a01b031681526020019081526020016000206000878152602001908152602001600020600401548152602001600115158152602001826001600160a01b0316815260200160045481526020016005548152602001600654815250600d6000876001600160a01b03166001600160a01b0316815260200190815260200160002060008681526020019081526020016000206000820151816000015560208201518160010160006101000a8154816001600160a01b0302191690836001600160a01b0316021790555060408201518160020160006101000a8154816001600160a01b0302191690836001600160a01b03160217905550606082015181600301556080820151816004015560a08201518160050160006101000a81548160ff02191690831515021790555060c08201518160050160016101000a8154816001600160a01b0302191690836001600160a01b0316021790555060e08201518160060155610100820151816007015561012082015181600801559050506040518060400160405280866001600160a01b0316815260200185815250600e600061114c60015490565b81526020808201929092526040908101600020835181546001600160a01b0319166001600160a01b039182161782559390920151600190920191909155516323b872dd60e01b815233600482015230602482015260448101869052908616906323b872dd90606401600060405180830381600087803b1580156111ce57600080fd5b505af11580156111e2573d6000803e3d6000fd5b5050604080518082018252858152426020808301918252600380546000908152600f9092529381209251835590516001909201919091558154935090915061122983611cb2565b909155505060015433907f1603f20f721362b0691bb408edb3cf01409cd56da9edd4627b178750b7dd49a88585604051611264929190611ccb565b60405180910390a35050505050565b606060008061128160015490565b67ffffffffffffffff81111561129957611299611927565b60405190808252806020026020018201604052801561133457816020015b604080516101a081018252600060608083018281526080840183905260a0840183905260c0840183905260e084018390526101008401839052610120840183905261014084018390526101608401839052610180840183905283526020830191909152918101919091528152602001906001900390816112b75790505b50905060015b60015481116114eb576000818152600e6020908152604080832080546001600160a01b03168452600d8352818420600190910154845290915290206005015460ff16156114d957604080516000838152600e602081815284832080546001600160a01b03908116808652600d84528786206001938401548088529085528887206101a089018a52805460608a0190815294810154841660808a01526002810154841660a08a0152600381015460c08a015260048082015460e08b0152600582015460ff81161515610100808d019190915290049094166101208a015260068101546101408a015260078101546101608a01526008015461018089015292875283870189905294889052929091528451638ad9134560e01b8152918201529192830191638ad9134590602401600060405180830381865afa158015611482573d6000803e3d6000fd5b505050506040513d6000823e601f3d908101601f191682016040526114aa9190810190611ced565b8152508284815181106114bf576114bf611d64565b602002602001018190525082806114d590611cb2565b9350505b806114e381611cb2565b91505061133a565b5092915050565b6000818152600e6020908152604080832080546001600160a01b03168452600d8352818420600190910154845290915290206005015460ff1661156f5760405162461bcd60e51b815260206004820152601560248201527402a3434b99024ba32b6903737ba103634b9ba32b21605d1b604482015260640161077c565b6000818152600e6020818152604080842080546001600160a01b039081168652600d808552838720600180850180548a5291875285892080820154600290910180546001600160a01b03191691861691909117905593548316808952918652848820905480895290865284882090930154968890529490935290516323b872dd60e01b81523060048201529390911660248401526044830152906323b872dd90606401600060405180830381600087803b15801561162c57600080fd5b505af1158015611640573d6000803e3d6000fd5b5050506000828152600e6020818152604080842080546001600160a01b039081168652600d808552838720600180850180548a52918752858920600501805460ff191690558454841689529186528488208154895286528488206004018a9055815488529590945291852094879052845481546001600160a01b03191692169190911790559182015490556116d5915061179f565b6000818152600e6020908152604080832080546001600160a01b039081168552600d845282852060019283015486528452938290208054918101546003909101548351928352941692810192909252339082015260608101919091527ffb0451e2371b977db14ce8db0bd62262e6ff8fe4b5960280928ba94e024436039060800160405180910390a150565b6117696117f6565b6001600160a01b03811661179357604051631e4fbdf760e01b81526000600482015260240161077c565b61179c81611823565b50565b8054806117ee5760405162461bcd60e51b815260206004820152601b60248201527f436f756e7465723a2064656372656d656e74206f766572666c6f770000000000604482015260640161077c565b600019019055565b6000546001600160a01b03163314610f505760405163118cdaa760e01b815233600482015260240161077c565b600080546001600160a01b038381166001600160a01b0319831681178455604051919092169283917f8be0079c531659141344cd1fd0a4f28419497f9722a3daafe3b4186f6b6457e09190a35050565b80356001600160a01b038116811461188a57600080fd5b919050565b6000602082840312156118a157600080fd5b6118aa82611873565b9392505050565b6000602082840312156118c357600080fd5b5035919050565b600080604083850312156118dd57600080fd5b50508035926020909101359150565b80356004811061188a57600080fd5b6000806040838503121561190e57600080fd5b8235915061191e602084016118ec565b90509250929050565b634e487b7160e01b600052604160045260246000fd5b604051601f8201601f1916810167ffffffffffffffff8111828210171561196657611966611927565b604052919050565b600067ffffffffffffffff82111561198857611988611927565b50601f01601f191660200190565b600080600080600060a086880312156119ae57600080fd5b6119b786611873565b945060208601359350604086013567ffffffffffffffff8111156119da57600080fd5b8601601f810188136119eb57600080fd5b80356119fe6119f98261196e565b61193d565b818152896020838501011115611a1357600080fd5b8160208401602083013760009181016020019190915293505060608601359150611a3f60808701611873565b90509295509295909350565b60008060408385031215611a5e57600080fd5b611a6783611873565b946020939093013593505050565b60005b83811015611a90578181015183820152602001611a78565b50506000910152565b60008151808452611ab1816020860160208601611a75565b601f01601f19169290920160200192915050565b6000602082016020835280845180835260408501915060408160051b86010192506020860160005b82811015611be157603f1987860301845281518051805187526020810151611b2060208901826001600160a01b03169052565b506040810151611b3b60408901826001600160a01b03169052565b50606081015160608801526080810151608088015260a0810151611b6360a089018215159052565b5060c0810151611b7e60c08901826001600160a01b03169052565b5060e081015160e088015261010081015161010088015261012081015161012088015250602081015161014087015260408101519050610180610160870152611bcb610180870182611a99565b9550506020938401939190910190600101611aed565b50929695505050505050565b600060208284031215611bff57600080fd5b6118aa826118ec565b600060208284031215611c1a57600080fd5b5051919050565b634e487b7160e01b600052602160045260246000fd5b634e487b7160e01b600052601160045260246000fd5b8082028115828204841417611c6457611c64611c37565b92915050565b600082611c8757634e487b7160e01b600052601260045260246000fd5b500490565b80820180821115611c6457611c64611c37565b81810381811115611c6457611c64611c37565b600060018201611cc457611cc4611c37565b5060010190565b604081526000611cde6040830185611a99565b90508260208301529392505050565b600060208284031215611cff57600080fd5b815167ffffffffffffffff811115611d1657600080fd5b8201601f81018413611d2757600080fd5b8051611d356119f98261196e565b818152856020838501011115611d4a57600080fd5b611d5b826020830160208601611a75565b95945050505050565b634e487b7160e01b600052603260045260246000fdfea2646970667358221220b7cf876d243431b87f2a79a95367c296828e10477aca05fa16d71c50943a67c764736f6c634300081a0033",
					"opcodes": "PUSH1 0x80 PUSH1 0x40 MSTORE PUSH1 0x8 DUP1 SLOAD PUSH1 0x1 PUSH1 0x1 PUSH1 0xA0 SHL SUB NOT SWAP1 DUP2 AND PUSH20 0x5F31F088C0D692FF133BD3B11B923F4E1BE99E9B OR SWAP1 SWAP2 SSTORE PUSH1 0x9 DUP1 SLOAD DUP3 AND PUSH20 0xE2CBADC3250DC901596E1CDFFA778FC313162247 OR SWAP1 SSTORE PUSH1 0xA DUP1 SLOAD DUP3 AND PUSH20 0x572DD734F1068C1EDA13E0B655BC227B31AD8F72 OR SWAP1 SSTORE PUSH1 0xB DUP1 SLOAD SWAP1 SWAP2 AND PUSH20 0xE533F399513F8ED44D7E12E458D532FE7005CF4E OR SWAP1 SSTORE CALLVALUE DUP1 ISZERO PUSH2 0x94 JUMPI PUSH1 0x0 DUP1 REVERT JUMPDEST POP PUSH1 0x40 MLOAD PUSH2 0x1FC3 CODESIZE SUB DUP1 PUSH2 0x1FC3 DUP4 CODECOPY DUP2 ADD PUSH1 0x40 DUP2 SWAP1 MSTORE PUSH2 0xB3 SWAP2 PUSH2 0x1D4 JUMP JUMPDEST CALLER DUP1 PUSH2 0xD9 JUMPI PUSH1 0x40 MLOAD PUSH4 0x1E4FBDF7 PUSH1 0xE0 SHL DUP2 MSTORE PUSH1 0x0 PUSH1 0x4 DUP3 ADD MSTORE PUSH1 0x24 ADD PUSH1 0x40 MLOAD DUP1 SWAP2 SUB SWAP1 REVERT JUMPDEST PUSH2 0xE2 DUP2 PUSH2 0x184 JUMP JUMPDEST POP POP PUSH1 0xC PUSH1 0x20 MSTORE PUSH1 0x0 PUSH32 0x13649B2456F1B42FEF0F0040B3AAEABCD21A76A0F3F5DEFD4F583839455116E8 DUP2 SWAP1 SSTORE PUSH1 0x3 PUSH32 0xD421A5181C571BBA3F01190C922C3B2A896FC1D84E86C9F17AC10E67EBEF8B5C DUP2 SWAP1 SSTORE PUSH1 0x4 PUSH32 0x5D6016397A73F5E079297AC5A36FEF17B4D9C3831618E63AB105738020DDD720 SSTORE SWAP1 MSTORE PUSH1 0x5 PUSH32 0xC0DA782485E77AE272268AE0A3FF44C1552ECB60B3743924DE17A815E0A3CFD7 SSTORE PUSH2 0x204 JUMP JUMPDEST PUSH1 0x0 DUP1 SLOAD PUSH1 0x1 PUSH1 0x1 PUSH1 0xA0 SHL SUB DUP4 DUP2 AND PUSH1 0x1 PUSH1 0x1 PUSH1 0xA0 SHL SUB NOT DUP4 AND DUP2 OR DUP5 SSTORE PUSH1 0x40 MLOAD SWAP2 SWAP1 SWAP3 AND SWAP3 DUP4 SWAP2 PUSH32 0x8BE0079C531659141344CD1FD0A4F28419497F9722A3DAAFE3B4186F6B6457E0 SWAP2 SWAP1 LOG3 POP POP JUMP JUMPDEST PUSH1 0x0 PUSH1 0x20 DUP3 DUP5 SUB SLT ISZERO PUSH2 0x1E6 JUMPI PUSH1 0x0 DUP1 REVERT JUMPDEST DUP2 MLOAD PUSH1 0x1 PUSH1 0x1 PUSH1 0xA0 SHL SUB DUP2 AND DUP2 EQ PUSH2 0x1FD JUMPI PUSH1 0x0 DUP1 REVERT JUMPDEST SWAP4 SWAP3 POP POP POP JUMP JUMPDEST PUSH2 0x1DB0 DUP1 PUSH2 0x213 PUSH1 0x0 CODECOPY PUSH1 0x0 RETURN INVALID PUSH1 0x80 PUSH1 0x40 MSTORE PUSH1 0x4 CALLDATASIZE LT PUSH2 0xE8 JUMPI PUSH1 0x0 CALLDATALOAD PUSH1 0xE0 SHR DUP1 PUSH4 0x7C7CE62D GT PUSH2 0x8A JUMPI DUP1 PUSH4 0x9F5E6FD9 GT PUSH2 0x59 JUMPI DUP1 PUSH4 0x9F5E6FD9 EQ PUSH2 0x38E JUMPI DUP1 PUSH4 0xB50C0D20 EQ PUSH2 0x3AE JUMPI DUP1 PUSH4 0xBC4BC9C8 EQ PUSH2 0x3DB JUMPI DUP1 PUSH4 0xF2FDE38B EQ PUSH2 0x43A JUMPI PUSH1 0x0 DUP1 REVERT JUMPDEST DUP1 PUSH4 0x7C7CE62D EQ PUSH2 0x23E JUMPI DUP1 PUSH4 0x8DA5CB5B EQ PUSH2 0x25E JUMPI DUP1 PUSH4 0x93F31109 EQ PUSH2 0x286 JUMPI DUP1 PUSH4 0x95CE4A3B EQ PUSH2 0x36C JUMPI PUSH1 0x0 DUP1 REVERT JUMPDEST DUP1 PUSH4 0x6081A0DD GT PUSH2 0xC6 JUMPI DUP1 PUSH4 0x6081A0DD EQ PUSH2 0x1C0 JUMPI DUP1 PUSH4 0x62590604 EQ PUSH2 0x1E2 JUMPI DUP1 PUSH4 0x715018A6 EQ PUSH2 0x1F5 JUMPI DUP1 PUSH4 0x752CD654 EQ PUSH2 0x20A JUMPI PUSH1 0x0 DUP1 REVERT JUMPDEST DUP1 PUSH4 0x3147F39 EQ PUSH2 0xED JUMPI DUP1 PUSH4 0x1065CF73 EQ PUSH2 0x13C JUMPI DUP1 PUSH4 0x3529280B EQ PUSH2 0x185 JUMPI JUMPDEST PUSH1 0x0 DUP1 REVERT JUMPDEST CALLVALUE DUP1 ISZERO PUSH2 0xF9 JUMPI PUSH1 0x0 DUP1 REVERT JUMPDEST POP PUSH2 0x10D PUSH2 0x108 CALLDATASIZE PUSH1 0x4 PUSH2 0x188F JUMP JUMPDEST PUSH2 0x45A JUMP JUMPDEST PUSH1 0x40 DUP1 MLOAD SWAP5 ISZERO ISZERO DUP6 MSTORE SWAP3 ISZERO ISZERO PUSH1 0x20 DUP6 ADD MSTORE SWAP1 ISZERO ISZERO SWAP2 DUP4 ADD SWAP2 SWAP1 SWAP2 MSTORE ISZERO ISZERO PUSH1 0x60 DUP3 ADD MSTORE PUSH1 0x80 ADD JUMPDEST PUSH1 0x40 MLOAD DUP1 SWAP2 SUB SWAP1 RETURN JUMPDEST CALLVALUE DUP1 ISZERO PUSH2 0x148 JUMPI PUSH1 0x0 DUP1 REVERT JUMPDEST POP PUSH2 0x170 PUSH2 0x157 CALLDATASIZE PUSH1 0x4 PUSH2 0x18B1 JUMP JUMPDEST PUSH1 0x10 PUSH1 0x20 MSTORE PUSH1 0x0 SWAP1 DUP2 MSTORE PUSH1 0x40 SWAP1 KECCAK256 DUP1 SLOAD PUSH1 0x1 SWAP1 SWAP2 ADD SLOAD DUP3 JUMP JUMPDEST PUSH1 0x40 DUP1 MLOAD SWAP3 DUP4 MSTORE PUSH1 0x20 DUP4 ADD SWAP2 SWAP1 SWAP2 MSTORE ADD PUSH2 0x133 JUMP JUMPDEST CALLVALUE DUP1 ISZERO PUSH2 0x191 JUMPI PUSH1 0x0 DUP1 REVERT JUMPDEST POP PUSH2 0x1B2 PUSH2 0x1A0 CALLDATASIZE PUSH1 0x4 PUSH2 0x18B1 JUMP JUMPDEST PUSH1 0x11 PUSH1 0x20 MSTORE PUSH1 0x0 SWAP1 DUP2 MSTORE PUSH1 0x40 SWAP1 KECCAK256 SLOAD DUP2 JUMP JUMPDEST PUSH1 0x40 MLOAD SWAP1 DUP2 MSTORE PUSH1 0x20 ADD PUSH2 0x133 JUMP JUMPDEST CALLVALUE DUP1 ISZERO PUSH2 0x1CC JUMPI PUSH1 0x0 DUP1 REVERT JUMPDEST POP PUSH2 0x1E0 PUSH2 0x1DB CALLDATASIZE PUSH1 0x4 PUSH2 0x18CA JUMP JUMPDEST PUSH2 0x703 JUMP JUMPDEST STOP JUMPDEST PUSH2 0x1E0 PUSH2 0x1F0 CALLDATASIZE PUSH1 0x4 PUSH2 0x18FB JUMP JUMPDEST PUSH2 0x839 JUMP JUMPDEST CALLVALUE DUP1 ISZERO PUSH2 0x201 JUMPI PUSH1 0x0 DUP1 REVERT JUMPDEST POP PUSH2 0x1E0 PUSH2 0xF3E JUMP JUMPDEST CALLVALUE DUP1 ISZERO PUSH2 0x216 JUMPI PUSH1 0x0 DUP1 REVERT JUMPDEST POP PUSH2 0x170 PUSH2 0x225 CALLDATASIZE PUSH1 0x4 PUSH2 0x18B1 JUMP JUMPDEST PUSH1 0xF PUSH1 0x20 MSTORE PUSH1 0x0 SWAP1 DUP2 MSTORE PUSH1 0x40 SWAP1 KECCAK256 DUP1 SLOAD PUSH1 0x1 SWAP1 SWAP2 ADD SLOAD DUP3 JUMP JUMPDEST CALLVALUE DUP1 ISZERO PUSH2 0x24A JUMPI PUSH1 0x0 DUP1 REVERT JUMPDEST POP PUSH2 0x1E0 PUSH2 0x259 CALLDATASIZE PUSH1 0x4 PUSH2 0x1996 JUMP JUMPDEST PUSH2 0xF52 JUMP JUMPDEST CALLVALUE DUP1 ISZERO PUSH2 0x26A JUMPI PUSH1 0x0 DUP1 REVERT JUMPDEST POP PUSH1 0x0 SLOAD PUSH1 0x40 MLOAD PUSH1 0x1 PUSH1 0x1 PUSH1 0xA0 SHL SUB SWAP1 SWAP2 AND DUP2 MSTORE PUSH1 0x20 ADD PUSH2 0x133 JUMP JUMPDEST CALLVALUE DUP1 ISZERO PUSH2 0x292 JUMPI PUSH1 0x0 DUP1 REVERT JUMPDEST POP PUSH2 0x30B PUSH2 0x2A1 CALLDATASIZE PUSH1 0x4 PUSH2 0x1A4B JUMP JUMPDEST PUSH1 0xD PUSH1 0x20 SWAP1 DUP2 MSTORE PUSH1 0x0 SWAP3 DUP4 MSTORE PUSH1 0x40 DUP1 DUP5 KECCAK256 SWAP1 SWAP2 MSTORE SWAP1 DUP3 MSTORE SWAP1 KECCAK256 DUP1 SLOAD PUSH1 0x1 DUP3 ADD SLOAD PUSH1 0x2 DUP4 ADD SLOAD PUSH1 0x3 DUP5 ADD SLOAD PUSH1 0x4 DUP6 ADD SLOAD PUSH1 0x5 DUP7 ADD SLOAD PUSH1 0x6 DUP8 ADD SLOAD PUSH1 0x7 DUP9 ADD SLOAD PUSH1 0x8 SWAP1 SWAP9 ADD SLOAD SWAP7 SWAP8 PUSH1 0x1 PUSH1 0x1 PUSH1 0xA0 SHL SUB SWAP7 DUP8 AND SWAP8 SWAP6 DUP8 AND SWAP7 SWAP5 SWAP6 SWAP4 SWAP5 PUSH1 0xFF DUP5 AND SWAP5 PUSH2 0x100 SWAP1 SWAP5 DIV AND SWAP3 DUP11 JUMP JUMPDEST PUSH1 0x40 DUP1 MLOAD SWAP11 DUP12 MSTORE PUSH1 0x1 PUSH1 0x1 PUSH1 0xA0 SHL SUB SWAP10 DUP11 AND PUSH1 0x20 DUP13 ADD MSTORE SWAP8 DUP10 AND SWAP8 DUP11 ADD SWAP8 SWAP1 SWAP8 MSTORE PUSH1 0x60 DUP10 ADD SWAP6 SWAP1 SWAP6 MSTORE PUSH1 0x80 DUP9 ADD SWAP4 SWAP1 SWAP4 MSTORE SWAP1 ISZERO ISZERO PUSH1 0xA0 DUP8 ADD MSTORE SWAP1 SWAP4 AND PUSH1 0xC0 DUP6 ADD MSTORE PUSH1 0xE0 DUP5 ADD SWAP3 SWAP1 SWAP3 MSTORE PUSH2 0x100 DUP4 ADD SWAP2 SWAP1 SWAP2 MSTORE PUSH2 0x120 DUP3 ADD MSTORE PUSH2 0x140 ADD PUSH2 0x133 JUMP JUMPDEST CALLVALUE DUP1 ISZERO PUSH2 0x378 JUMPI PUSH1 0x0 DUP1 REVERT JUMPDEST POP PUSH2 0x381 PUSH2 0x1273 JUMP JUMPDEST PUSH1 0x40 MLOAD PUSH2 0x133 SWAP2 SWAP1 PUSH2 0x1AC5 JUMP JUMPDEST CALLVALUE DUP1 ISZERO PUSH2 0x39A JUMPI PUSH1 0x0 DUP1 REVERT JUMPDEST POP PUSH2 0x1E0 PUSH2 0x3A9 CALLDATASIZE PUSH1 0x4 PUSH2 0x18B1 JUMP JUMPDEST PUSH2 0x14F2 JUMP JUMPDEST CALLVALUE DUP1 ISZERO PUSH2 0x3BA JUMPI PUSH1 0x0 DUP1 REVERT JUMPDEST POP PUSH2 0x1B2 PUSH2 0x3C9 CALLDATASIZE PUSH1 0x4 PUSH2 0x1BED JUMP JUMPDEST PUSH1 0xC PUSH1 0x20 MSTORE PUSH1 0x0 SWAP1 DUP2 MSTORE PUSH1 0x40 SWAP1 KECCAK256 SLOAD DUP2 JUMP JUMPDEST CALLVALUE DUP1 ISZERO PUSH2 0x3E7 JUMPI PUSH1 0x0 DUP1 REVERT JUMPDEST POP PUSH2 0x41B PUSH2 0x3F6 CALLDATASIZE PUSH1 0x4 PUSH2 0x18B1 JUMP JUMPDEST PUSH1 0xE PUSH1 0x20 MSTORE PUSH1 0x0 SWAP1 DUP2 MSTORE PUSH1 0x40 SWAP1 KECCAK256 DUP1 SLOAD PUSH1 0x1 SWAP1 SWAP2 ADD SLOAD PUSH1 0x1 PUSH1 0x1 PUSH1 0xA0 SHL SUB SWAP1 SWAP2 AND SWAP1 DUP3 JUMP JUMPDEST PUSH1 0x40 DUP1 MLOAD PUSH1 0x1 PUSH1 0x1 PUSH1 0xA0 SHL SUB SWAP1 SWAP4 AND DUP4 MSTORE PUSH1 0x20 DUP4 ADD SWAP2 SWAP1 SWAP2 MSTORE ADD PUSH2 0x133 JUMP JUMPDEST CALLVALUE DUP1 ISZERO PUSH2 0x446 JUMPI PUSH1 0x0 DUP1 REVERT JUMPDEST POP PUSH2 0x1E0 PUSH2 0x455 CALLDATASIZE PUSH1 0x4 PUSH2 0x188F JUMP JUMPDEST PUSH2 0x1761 JUMP JUMPDEST PUSH1 0x8 SLOAD PUSH1 0x40 MLOAD PUSH4 0x70A08231 PUSH1 0xE0 SHL DUP2 MSTORE PUSH1 0x1 PUSH1 0x1 PUSH1 0xA0 SHL SUB DUP4 DUP2 AND PUSH1 0x4 DUP4 ADD MSTORE PUSH1 0x0 SWAP3 DUP4 SWAP3 DUP4 SWAP3 DUP4 SWAP3 DUP4 SWAP3 SWAP2 AND SWAP1 PUSH4 0x70A08231 SWAP1 PUSH1 0x24 ADD PUSH1 0x20 PUSH1 0x40 MLOAD DUP1 DUP4 SUB DUP2 DUP7 GAS STATICCALL ISZERO DUP1 ISZERO PUSH2 0x4AE JUMPI RETURNDATASIZE PUSH1 0x0 DUP1 RETURNDATACOPY RETURNDATASIZE PUSH1 0x0 REVERT JUMPDEST POP POP POP POP PUSH1 0x40 MLOAD RETURNDATASIZE PUSH1 0x1F NOT PUSH1 0x1F DUP3 ADD AND DUP3 ADD DUP1 PUSH1 0x40 MSTORE POP DUP2 ADD SWAP1 PUSH2 0x4D2 SWAP2 SWAP1 PUSH2 0x1C08 JUMP JUMPDEST PUSH1 0x9 SLOAD PUSH1 0x40 MLOAD PUSH4 0x70A08231 PUSH1 0xE0 SHL DUP2 MSTORE PUSH1 0x1 PUSH1 0x1 PUSH1 0xA0 SHL SUB DUP10 DUP2 AND PUSH1 0x4 DUP4 ADD MSTORE SWAP3 SWAP4 POP PUSH1 0x0 SWAP3 SWAP1 SWAP2 AND SWAP1 PUSH4 0x70A08231 SWAP1 PUSH1 0x24 ADD PUSH1 0x20 PUSH1 0x40 MLOAD DUP1 DUP4 SUB DUP2 DUP7 GAS STATICCALL ISZERO DUP1 ISZERO PUSH2 0x522 JUMPI RETURNDATASIZE PUSH1 0x0 DUP1 RETURNDATACOPY RETURNDATASIZE PUSH1 0x0 REVERT JUMPDEST POP POP POP POP PUSH1 0x40 MLOAD RETURNDATASIZE PUSH1 0x1F NOT PUSH1 0x1F DUP3 ADD AND DUP3 ADD DUP1 PUSH1 0x40 MSTORE POP DUP2 ADD SWAP1 PUSH2 0x546 SWAP2 SWAP1 PUSH2 0x1C08 JUMP JUMPDEST PUSH1 0xA SLOAD PUSH1 0x40 MLOAD PUSH4 0x70A08231 PUSH1 0xE0 SHL DUP2 MSTORE PUSH1 0x1 PUSH1 0x1 PUSH1 0xA0 SHL SUB DUP11 DUP2 AND PUSH1 0x4 DUP4 ADD MSTORE SWAP3 SWAP4 POP PUSH1 0x0 SWAP3 SWAP1 SWAP2 AND SWAP1 PUSH4 0x70A08231 SWAP1 PUSH1 0x24 ADD PUSH1 0x20 PUSH1 0x40 MLOAD DUP1 DUP4 SUB DUP2 DUP7 GAS STATICCALL ISZERO DUP1 ISZERO PUSH2 0x596 JUMPI RETURNDATASIZE PUSH1 0x0 DUP1 RETURNDATACOPY RETURNDATASIZE PUSH1 0x0 REVERT JUMPDEST POP POP POP POP PUSH1 0x40 MLOAD RETURNDATASIZE PUSH1 0x1F NOT PUSH1 0x1F DUP3 ADD AND DUP3 ADD DUP1 PUSH1 0x40 MSTORE POP DUP2 ADD SWAP1 PUSH2 0x5BA SWAP2 SWAP1 PUSH2 0x1C08 JUMP JUMPDEST PUSH1 0xB SLOAD PUSH1 0x40 MLOAD PUSH4 0x70A08231 PUSH1 0xE0 SHL DUP2 MSTORE PUSH1 0x1 PUSH1 0x1 PUSH1 0xA0 SHL SUB DUP12 DUP2 AND PUSH1 0x4 DUP4 ADD MSTORE SWAP3 SWAP4 POP PUSH1 0x0 SWAP3 SWAP1 SWAP2 AND SWAP1 PUSH4 0x70A08231 SWAP1 PUSH1 0x24 ADD PUSH1 0x20 PUSH1 0x40 MLOAD DUP1 DUP4 SUB DUP2 DUP7 GAS STATICCALL ISZERO DUP1 ISZERO PUSH2 0x60A JUMPI RETURNDATASIZE PUSH1 0x0 DUP1 RETURNDATACOPY RETURNDATASIZE PUSH1 0x0 REVERT JUMPDEST POP POP POP POP PUSH1 0x40 MLOAD RETURNDATASIZE PUSH1 0x1F NOT PUSH1 0x1F DUP3 ADD AND DUP3 ADD DUP1 PUSH1 0x40 MSTORE POP DUP2 ADD SWAP1 PUSH2 0x62E SWAP2 SWAP1 PUSH2 0x1C08 JUMP JUMPDEST SWAP1 POP PUSH1 0x0 DUP5 GT DUP1 ISZERO PUSH2 0x640 JUMPI POP PUSH1 0x0 DUP4 GT JUMPDEST DUP1 ISZERO PUSH2 0x64C JUMPI POP PUSH1 0x0 DUP3 GT JUMPDEST DUP1 ISZERO PUSH2 0x658 JUMPI POP PUSH1 0x0 DUP2 GT JUMPDEST ISZERO PUSH2 0x674 JUMPI PUSH1 0x1 DUP1 PUSH1 0x1 DUP1 SWAP8 POP SWAP8 POP SWAP8 POP SWAP8 POP POP POP POP POP PUSH2 0x6FC JUMP JUMPDEST PUSH1 0x0 DUP4 GT DUP1 ISZERO PUSH2 0x684 JUMPI POP PUSH1 0x0 DUP3 GT JUMPDEST DUP1 ISZERO PUSH2 0x690 JUMPI POP PUSH1 0x0 DUP2 GT JUMPDEST ISZERO PUSH2 0x6AD JUMPI PUSH1 0x0 PUSH1 0x1 DUP1 PUSH1 0x1 SWAP8 POP SWAP8 POP SWAP8 POP SWAP8 POP POP POP POP POP PUSH2 0x6FC JUMP JUMPDEST PUSH1 0x0 DUP3 GT DUP1 ISZERO PUSH2 0x6BD JUMPI POP PUSH1 0x0 DUP2 GT JUMPDEST ISZERO PUSH2 0x6D9 JUMPI PUSH1 0x0 DUP1 PUSH1 0x1 DUP1 SWAP8 POP SWAP8 POP SWAP8 POP SWAP8 POP POP POP POP POP PUSH2 0x6FC JUMP JUMPDEST DUP1 ISZERO PUSH2 0x6F7 JUMPI PUSH1 0x0 DUP1 PUSH1 0x0 PUSH1 0x1 SWAP8 POP SWAP8 POP SWAP8 POP SWAP8 POP POP POP POP POP PUSH2 0x6FC JUMP JUMPDEST POP POP POP POP JUMPDEST SWAP2 SWAP4 POP SWAP2 SWAP4 JUMP JUMPDEST PUSH1 0x0 DUP3 DUP2 MSTORE PUSH1 0xE PUSH1 0x20 SWAP1 DUP2 MSTORE PUSH1 0x40 DUP1 DUP4 KECCAK256 DUP1 SLOAD PUSH1 0x1 PUSH1 0x1 PUSH1 0xA0 SHL SUB AND DUP5 MSTORE PUSH1 0xD DUP4 MSTORE DUP2 DUP5 KECCAK256 PUSH1 0x1 SWAP1 SWAP2 ADD SLOAD DUP5 MSTORE SWAP1 SWAP2 MSTORE SWAP1 KECCAK256 PUSH1 0x5 ADD SLOAD PUSH1 0xFF AND PUSH2 0x785 JUMPI PUSH1 0x40 MLOAD PUSH3 0x461BCD PUSH1 0xE5 SHL DUP2 MSTORE PUSH1 0x20 PUSH1 0x4 DUP3 ADD MSTORE PUSH1 0x15 PUSH1 0x24 DUP3 ADD MSTORE PUSH21 0x2A3434B99024BA32B6903737BA103634B9BA32B21 PUSH1 0x5D SHL PUSH1 0x44 DUP3 ADD MSTORE PUSH1 0x64 ADD JUMPDEST PUSH1 0x40 MLOAD DUP1 SWAP2 SUB SWAP1 REVERT JUMPDEST PUSH1 0x0 DUP3 DUP2 MSTORE PUSH1 0xE PUSH1 0x20 SWAP1 DUP2 MSTORE PUSH1 0x40 DUP1 DUP4 KECCAK256 DUP1 SLOAD PUSH1 0x1 PUSH1 0x1 PUSH1 0xA0 SHL SUB SWAP1 DUP2 AND DUP6 MSTORE PUSH1 0xD DUP5 MSTORE DUP3 DUP6 KECCAK256 PUSH1 0x1 SWAP3 DUP4 ADD SLOAD DUP7 MSTORE SWAP1 SWAP4 MSTORE SWAP3 KECCAK256 SWAP1 SWAP2 ADD SLOAD AND CALLER EQ PUSH2 0x800 JUMPI PUSH1 0x40 MLOAD PUSH3 0x461BCD PUSH1 0xE5 SHL DUP2 MSTORE PUSH1 0x20 PUSH1 0x4 DUP3 ADD MSTORE PUSH1 0x11 PUSH1 0x24 DUP3 ADD MSTORE PUSH17 0x2CB7BA9030B932903737BA1027BBB732B9 PUSH1 0x79 SHL PUSH1 0x44 DUP3 ADD MSTORE PUSH1 0x64 ADD PUSH2 0x77C JUMP JUMPDEST PUSH1 0x0 SWAP2 DUP3 MSTORE PUSH1 0xE PUSH1 0x20 SWAP1 DUP2 MSTORE PUSH1 0x40 DUP1 DUP5 KECCAK256 DUP1 SLOAD PUSH1 0x1 PUSH1 0x1 PUSH1 0xA0 SHL SUB AND DUP6 MSTORE PUSH1 0xD DUP4 MSTORE DUP2 DUP6 KECCAK256 PUSH1 0x1 SWAP1 SWAP2 ADD SLOAD DUP6 MSTORE SWAP1 SWAP2 MSTORE SWAP1 SWAP2 KECCAK256 PUSH1 0x3 ADD SSTORE JUMP JUMPDEST PUSH1 0x0 DUP3 DUP2 MSTORE PUSH1 0xE PUSH1 0x20 MSTORE PUSH1 0x40 DUP2 KECCAK256 DUP1 SLOAD PUSH1 0x1 SWAP1 SWAP2 ADD SLOAD PUSH1 0x1 PUSH1 0x1 PUSH1 0xA0 SHL SUB SWAP1 SWAP2 AND SWAP2 PUSH1 0x64 PUSH1 0xC DUP3 DUP7 PUSH1 0x3 DUP2 GT ISZERO PUSH2 0x872 JUMPI PUSH2 0x872 PUSH2 0x1C21 JUMP JUMPDEST PUSH1 0x3 DUP2 GT ISZERO PUSH2 0x883 JUMPI PUSH2 0x883 PUSH2 0x1C21 JUMP JUMPDEST DUP2 MSTORE PUSH1 0x20 DUP1 DUP3 ADD SWAP3 SWAP1 SWAP3 MSTORE PUSH1 0x40 SWAP1 DUP2 ADD PUSH1 0x0 SWAP1 DUP2 KECCAK256 SLOAD PUSH1 0x1 PUSH1 0x1 PUSH1 0xA0 SHL SUB DUP9 AND DUP3 MSTORE PUSH1 0xD DUP5 MSTORE DUP3 DUP3 KECCAK256 DUP8 DUP4 MSTORE SWAP1 SWAP4 MSTORE KECCAK256 PUSH1 0x3 ADD SLOAD PUSH2 0x8C1 SWAP2 SWAP1 PUSH2 0x1C4D JUMP JUMPDEST PUSH2 0x8CB SWAP2 SWAP1 PUSH2 0x1C6A JUMP JUMPDEST PUSH1 0x1 PUSH1 0x1 PUSH1 0xA0 SHL SUB DUP5 DUP2 AND PUSH1 0x0 SWAP1 DUP2 MSTORE PUSH1 0xD PUSH1 0x20 SWAP1 DUP2 MSTORE PUSH1 0x40 DUP1 DUP4 KECCAK256 DUP8 DUP5 MSTORE SWAP1 SWAP2 MSTORE SWAP1 KECCAK256 PUSH1 0x1 ADD SLOAD SWAP2 SWAP3 POP CALLER SWAP2 AND SUB PUSH2 0x937 JUMPI PUSH1 0x40 MLOAD PUSH3 0x461BCD PUSH1 0xE5 SHL DUP2 MSTORE PUSH1 0x20 PUSH1 0x4 DUP3 ADD MSTORE PUSH1 0xE PUSH1 0x24 DUP3 ADD MSTORE PUSH14 0x2737BA103A34329029B2B63632B9 PUSH1 0x91 SHL PUSH1 0x44 DUP3 ADD MSTORE PUSH1 0x64 ADD PUSH2 0x77C JUMP JUMPDEST PUSH1 0x1 PUSH1 0x1 PUSH1 0xA0 SHL SUB DUP4 AND PUSH1 0x0 SWAP1 DUP2 MSTORE PUSH1 0xD PUSH1 0x20 SWAP1 DUP2 MSTORE PUSH1 0x40 DUP1 DUP4 KECCAK256 DUP6 DUP5 MSTORE SWAP1 SWAP2 MSTORE SWAP1 KECCAK256 PUSH1 0x3 ADD SLOAD PUSH2 0x969 SWAP1 DUP3 SWAP1 PUSH2 0x1C8C JUMP JUMPDEST CALLVALUE LT ISZERO PUSH2 0x9AB JUMPI PUSH1 0x40 MLOAD PUSH3 0x461BCD PUSH1 0xE5 SHL DUP2 MSTORE PUSH1 0x20 PUSH1 0x4 DUP3 ADD MSTORE PUSH1 0x10 PUSH1 0x24 DUP3 ADD MSTORE PUSH16 0x4E6F7420656E6F756768207072696365 PUSH1 0x80 SHL PUSH1 0x44 DUP3 ADD MSTORE PUSH1 0x64 ADD PUSH2 0x77C JUMP JUMPDEST PUSH1 0x40 MLOAD PUSH4 0x23B872DD PUSH1 0xE0 SHL DUP2 MSTORE ADDRESS PUSH1 0x4 DUP3 ADD MSTORE CALLER PUSH1 0x24 DUP3 ADD MSTORE PUSH1 0x44 DUP2 ADD DUP4 SWAP1 MSTORE PUSH1 0x1 PUSH1 0x1 PUSH1 0xA0 SHL SUB DUP5 AND SWAP1 PUSH4 0x23B872DD SWAP1 PUSH1 0x64 ADD PUSH1 0x0 PUSH1 0x40 MLOAD DUP1 DUP4 SUB DUP2 PUSH1 0x0 DUP8 DUP1 EXTCODESIZE ISZERO DUP1 ISZERO PUSH2 0x9F9 JUMPI PUSH1 0x0 DUP1 REVERT JUMPDEST POP GAS CALL ISZERO DUP1 ISZERO PUSH2 0xA0D JUMPI RETURNDATASIZE PUSH1 0x0 DUP1 RETURNDATACOPY RETURNDATASIZE PUSH1 0x0 REVERT JUMPDEST POP POP POP POP PUSH1 0x1 PUSH1 0x1 PUSH1 0xA0 SHL SUB DUP4 AND PUSH1 0x0 SWAP1 DUP2 MSTORE PUSH1 0xD PUSH1 0x20 SWAP1 DUP2 MSTORE PUSH1 0x40 DUP1 DUP4 KECCAK256 DUP6 DUP5 MSTORE SWAP1 SWAP2 MSTORE DUP2 KECCAK256 PUSH1 0x4 ADD SLOAD SWAP1 SUB PUSH2 0xA96 JUMPI PUSH1 0x1 PUSH1 0x1 PUSH1 0xA0 SHL SUB DUP4 DUP2 AND PUSH1 0x0 SWAP1 DUP2 MSTORE PUSH1 0xD PUSH1 0x20 SWAP1 DUP2 MSTORE PUSH1 0x40 DUP1 DUP4 KECCAK256 DUP7 DUP5 MSTORE SWAP1 SWAP2 MSTORE SWAP1 KECCAK256 PUSH1 0x1 DUP2 ADD SLOAD PUSH1 0x5 DUP3 ADD DUP1 SLOAD SWAP2 SWAP1 SWAP4 AND PUSH2 0x100 MUL PUSH2 0x100 PUSH1 0x1 PUSH1 0xA8 SHL SUB NOT SWAP1 SWAP2 AND OR SWAP1 SWAP2 SSTORE PUSH1 0x55 PUSH1 0x6 DUP3 ADD SSTORE PUSH1 0xF PUSH1 0x8 SWAP1 SWAP2 ADD SSTORE JUMPDEST PUSH1 0x1 PUSH1 0x1 PUSH1 0xA0 SHL SUB DUP4 AND PUSH1 0x0 SWAP1 DUP2 MSTORE PUSH1 0xD PUSH1 0x20 SWAP1 DUP2 MSTORE PUSH1 0x40 DUP1 DUP4 KECCAK256 DUP6 DUP5 MSTORE SWAP1 SWAP2 MSTORE SWAP1 KECCAK256 PUSH1 0x4 ADD SLOAD ISZERO PUSH2 0xAFC JUMPI PUSH1 0x1 PUSH1 0x1 PUSH1 0xA0 SHL SUB DUP4 AND PUSH1 0x0 SWAP1 DUP2 MSTORE PUSH1 0xD PUSH1 0x20 SWAP1 DUP2 MSTORE PUSH1 0x40 DUP1 DUP4 KECCAK256 DUP6 DUP5 MSTORE SWAP1 SWAP2 MSTORE SWAP1 KECCAK256 PUSH1 0x5 PUSH1 0x6 DUP3 ADD DUP2 SWAP1 SSTORE PUSH1 0x5F PUSH1 0x7 DUP4 ADD SSTORE PUSH1 0x8 SWAP1 SWAP2 ADD SSTORE JUMPDEST PUSH1 0x6 SLOAD PUSH1 0x0 DUP7 DUP2 MSTORE PUSH1 0xE PUSH1 0x20 SWAP1 DUP2 MSTORE PUSH1 0x40 DUP1 DUP4 KECCAK256 DUP1 SLOAD PUSH1 0x1 PUSH1 0x1 PUSH1 0xA0 SHL SUB AND DUP5 MSTORE PUSH1 0xD DUP4 MSTORE DUP2 DUP5 KECCAK256 PUSH1 0x1 SWAP1 SWAP2 ADD SLOAD DUP5 MSTORE SWAP1 SWAP2 MSTORE DUP2 KECCAK256 PUSH1 0x3 ADD SLOAD SWAP1 SWAP2 PUSH2 0x3E8 SWAP2 PUSH2 0xB45 SWAP2 SWAP1 PUSH2 0x1C4D JUMP JUMPDEST PUSH2 0xB4F SWAP2 SWAP1 PUSH2 0x1C6A JUMP JUMPDEST PUSH1 0x5 SLOAD PUSH1 0x0 DUP9 DUP2 MSTORE PUSH1 0xE PUSH1 0x20 SWAP1 DUP2 MSTORE PUSH1 0x40 DUP1 DUP4 KECCAK256 DUP1 SLOAD PUSH1 0x1 PUSH1 0x1 PUSH1 0xA0 SHL SUB AND DUP5 MSTORE PUSH1 0xD DUP4 MSTORE DUP2 DUP5 KECCAK256 PUSH1 0x1 SWAP1 SWAP2 ADD SLOAD DUP5 MSTORE SWAP1 SWAP2 MSTORE DUP2 KECCAK256 PUSH1 0x3 ADD SLOAD SWAP3 SWAP4 POP SWAP2 PUSH2 0x3E8 SWAP2 PUSH2 0xB99 SWAP2 PUSH2 0x1C4D JUMP JUMPDEST PUSH2 0xBA3 SWAP2 SWAP1 PUSH2 0x1C6A JUMP JUMPDEST PUSH1 0x0 DUP9 DUP2 MSTORE PUSH1 0xE PUSH1 0x20 SWAP1 DUP2 MSTORE PUSH1 0x40 DUP1 DUP4 KECCAK256 DUP1 SLOAD PUSH1 0x1 PUSH1 0x1 PUSH1 0xA0 SHL SUB SWAP1 DUP2 AND DUP6 MSTORE PUSH1 0xD DUP1 DUP6 MSTORE DUP4 DUP7 KECCAK256 PUSH1 0x1 SWAP1 SWAP4 ADD SLOAD DUP7 MSTORE SWAP2 DUP5 MSTORE DUP3 DUP6 KECCAK256 PUSH1 0x6 ADD SLOAD SWAP1 DUP12 AND DUP6 MSTORE SWAP1 DUP4 MSTORE DUP2 DUP5 KECCAK256 DUP10 DUP6 MSTORE SWAP1 SWAP3 MSTORE DUP3 KECCAK256 PUSH1 0x3 ADD SLOAD SWAP3 SWAP4 POP SWAP2 PUSH1 0x64 SWAP1 PUSH2 0xC06 SWAP1 DUP5 SWAP1 PUSH2 0x1C4D JUMP JUMPDEST PUSH2 0xC10 SWAP2 SWAP1 PUSH2 0x1C6A JUMP JUMPDEST SWAP1 POP PUSH1 0x0 DUP4 PUSH2 0xC1F DUP7 DUP5 PUSH2 0x1C8C JUMP JUMPDEST PUSH2 0xC29 SWAP2 SWAP1 PUSH2 0x1C8C JUMP JUMPDEST PUSH1 0x1 PUSH1 0x1 PUSH1 0xA0 SHL SUB DUP10 AND PUSH1 0x0 SWAP1 DUP2 MSTORE PUSH1 0xD PUSH1 0x20 SWAP1 DUP2 MSTORE PUSH1 0x40 DUP1 DUP4 KECCAK256 DUP12 DUP5 MSTORE SWAP1 SWAP2 MSTORE SWAP1 KECCAK256 PUSH1 0x3 ADD SLOAD PUSH2 0xC5A SWAP2 SWAP1 PUSH2 0x1C9F JUMP JUMPDEST PUSH1 0x0 DUP12 DUP2 MSTORE PUSH1 0xE PUSH1 0x20 SWAP1 DUP2 MSTORE PUSH1 0x40 DUP1 DUP4 KECCAK256 DUP1 SLOAD PUSH1 0x1 PUSH1 0x1 PUSH1 0xA0 SHL SUB SWAP1 DUP2 AND DUP6 MSTORE PUSH1 0xD DUP5 MSTORE DUP3 DUP6 KECCAK256 PUSH1 0x1 SWAP3 DUP4 ADD SLOAD DUP7 MSTORE SWAP1 SWAP4 MSTORE DUP2 DUP5 KECCAK256 ADD SLOAD SWAP1 MLOAD SWAP4 SWAP5 POP AND SWAP2 DUP4 ISZERO PUSH2 0x8FC MUL SWAP2 DUP5 SWAP2 SWAP1 DUP2 DUP2 DUP2 DUP6 DUP9 DUP9 CALL SWAP4 POP POP POP POP ISZERO DUP1 ISZERO PUSH2 0xCBF JUMPI RETURNDATASIZE PUSH1 0x0 DUP1 RETURNDATACOPY RETURNDATASIZE PUSH1 0x0 REVERT JUMPDEST POP PUSH1 0x0 DUP11 DUP2 MSTORE PUSH1 0xE PUSH1 0x20 SWAP1 DUP2 MSTORE PUSH1 0x40 DUP1 DUP4 KECCAK256 DUP1 SLOAD PUSH1 0x1 PUSH1 0x1 PUSH1 0xA0 SHL SUB SWAP1 DUP2 AND DUP6 MSTORE PUSH1 0xD DUP5 MSTORE DUP3 DUP6 KECCAK256 PUSH1 0x1 SWAP1 SWAP3 ADD SLOAD DUP6 MSTORE SWAP3 MSTORE DUP1 DUP4 KECCAK256 PUSH1 0x5 ADD SLOAD SWAP1 MLOAD PUSH2 0x100 SWAP1 SWAP2 DIV SWAP1 SWAP2 AND SWAP2 DUP5 ISZERO PUSH2 0x8FC MUL SWAP2 DUP6 SWAP2 DUP2 DUP2 DUP2 DUP6 DUP9 DUP9 CALL SWAP4 POP POP POP POP ISZERO DUP1 ISZERO PUSH2 0xD2A JUMPI RETURNDATASIZE PUSH1 0x0 DUP1 RETURNDATACOPY RETURNDATASIZE PUSH1 0x0 REVERT JUMPDEST POP PUSH1 0x0 DUP1 SLOAD PUSH1 0x40 MLOAD PUSH1 0x1 PUSH1 0x1 PUSH1 0xA0 SHL SUB SWAP1 SWAP2 AND SWAP2 DUP8 ISZERO PUSH2 0x8FC MUL SWAP2 DUP9 SWAP2 DUP2 DUP2 DUP2 DUP6 DUP9 DUP9 CALL SWAP4 POP POP POP POP ISZERO DUP1 ISZERO PUSH2 0xD64 JUMPI RETURNDATASIZE PUSH1 0x0 DUP1 RETURNDATACOPY RETURNDATASIZE PUSH1 0x0 REVERT JUMPDEST POP PUSH1 0x0 DUP1 SLOAD PUSH1 0x40 MLOAD PUSH1 0x1 PUSH1 0x1 PUSH1 0xA0 SHL SUB SWAP1 SWAP2 AND SWAP2 DUP9 ISZERO PUSH2 0x8FC MUL SWAP2 DUP10 SWAP2 DUP2 DUP2 DUP2 DUP6 DUP9 DUP9 CALL SWAP4 POP POP POP POP ISZERO DUP1 ISZERO PUSH2 0xD9E JUMPI RETURNDATASIZE PUSH1 0x0 DUP1 RETURNDATACOPY RETURNDATASIZE PUSH1 0x0 REVERT JUMPDEST POP PUSH1 0x1 PUSH1 0x1 PUSH1 0xA0 SHL SUB DUP9 AND PUSH1 0x0 SWAP1 DUP2 MSTORE PUSH1 0xD PUSH1 0x20 SWAP1 DUP2 MSTORE PUSH1 0x40 DUP1 DUP4 KECCAK256 DUP11 DUP5 MSTORE SWAP1 SWAP2 MSTORE DUP2 KECCAK256 PUSH1 0x5 DUP2 ADD DUP1 SLOAD PUSH1 0xFF NOT AND SWAP1 SSTORE PUSH1 0x4 ADD DUP1 SLOAD SWAP2 PUSH2 0xDDD DUP4 PUSH2 0x1CB2 JUMP JUMPDEST SWAP2 SWAP1 POP SSTORE POP PUSH1 0xE PUSH1 0x0 PUSH2 0xDEF PUSH1 0x1 SLOAD SWAP1 JUMP JUMPDEST DUP2 MSTORE PUSH1 0x20 DUP1 DUP3 ADD SWAP3 SWAP1 SWAP3 MSTORE PUSH1 0x40 SWAP1 DUP2 ADD PUSH1 0x0 SWAP1 DUP2 KECCAK256 DUP14 DUP3 MSTORE PUSH1 0xE SWAP1 SWAP4 MSTORE KECCAK256 DUP2 SLOAD DUP2 SLOAD PUSH1 0x1 PUSH1 0x1 PUSH1 0xA0 SHL SUB NOT AND PUSH1 0x1 PUSH1 0x1 PUSH1 0xA0 SHL SUB SWAP1 SWAP2 AND OR DUP2 SSTORE PUSH1 0x1 SWAP2 DUP3 ADD SLOAD SWAP1 DUP3 ADD SSTORE PUSH2 0xE3C SWAP1 PUSH2 0x179F JUMP JUMPDEST PUSH1 0x0 DUP11 DUP2 MSTORE PUSH1 0xE PUSH1 0x20 SWAP1 DUP2 MSTORE PUSH1 0x40 DUP1 DUP4 KECCAK256 DUP1 SLOAD PUSH1 0x1 PUSH1 0x1 PUSH1 0xA0 SHL SUB SWAP1 DUP2 AND DUP6 MSTORE PUSH1 0xD DUP5 MSTORE DUP3 DUP6 KECCAK256 PUSH1 0x1 SWAP1 SWAP3 ADD SLOAD DUP6 MSTORE SWAP1 DUP4 MSTORE SWAP3 DUP2 SWAP1 KECCAK256 PUSH1 0x5 DUP2 ADD SLOAD PUSH1 0x6 SWAP1 SWAP2 ADD SLOAD DUP3 MLOAD PUSH2 0x100 SWAP1 SWAP3 DIV SWAP1 SWAP5 AND DUP2 MSTORE SWAP2 DUP3 ADD SWAP3 SWAP1 SWAP3 MSTORE PUSH32 0x7BD3AA7D673767F759EBF216E7F6C12844986C661AE6E0F1D988CF7EB7394D1D SWAP2 ADD PUSH1 0x40 MLOAD DUP1 SWAP2 SUB SWAP1 LOG1 PUSH1 0x1 PUSH1 0x1 PUSH1 0xA0 SHL SUB DUP9 DUP2 AND PUSH1 0x0 SWAP1 DUP2 MSTORE PUSH1 0xD PUSH1 0x20 SWAP1 DUP2 MSTORE PUSH1 0x40 DUP1 DUP4 KECCAK256 DUP12 DUP5 MSTORE DUP3 MSTORE SWAP2 DUP3 SWAP1 KECCAK256 DUP1 SLOAD PUSH1 0x1 SWAP1 SWAP2 ADD SLOAD DUP4 MLOAD SWAP2 DUP3 MSTORE SWAP1 SWAP4 AND SWAP1 DUP4 ADD MSTORE CALLER DUP3 DUP3 ADD MSTORE PUSH1 0x60 DUP3 ADD DUP4 SWAP1 MSTORE TIMESTAMP PUSH1 0x80 DUP4 ADD MSTORE MLOAD PUSH32 0x5FAFAD85DEC201C2E73B6A2BEF6351129304A624EA8720ECD04CD7F04D83BC39 SWAP2 DUP2 SWAP1 SUB PUSH1 0xA0 ADD SWAP1 LOG1 POP POP POP POP POP POP POP POP POP POP JUMP JUMPDEST PUSH2 0xF46 PUSH2 0x17F6 JUMP JUMPDEST PUSH2 0xF50 PUSH1 0x0 PUSH2 0x1823 JUMP JUMPDEST JUMP JUMPDEST PUSH2 0xF60 PUSH1 0x1 DUP1 SLOAD PUSH1 0x1 ADD SWAP1 SSTORE JUMP JUMPDEST PUSH1 0x40 MLOAD DUP1 PUSH2 0x140 ADD PUSH1 0x40 MSTORE DUP1 DUP6 DUP2 MSTORE PUSH1 0x20 ADD CALLER PUSH1 0x1 PUSH1 0x1 PUSH1 0xA0 SHL SUB AND DUP2 MSTORE PUSH1 0x20 ADD ADDRESS PUSH1 0x1 PUSH1 0x1 PUSH1 0xA0 SHL SUB AND DUP2 MSTORE PUSH1 0x20 ADD DUP4 DUP2 MSTORE PUSH1 0x20 ADD PUSH1 0xD PUSH1 0x0 DUP9 PUSH1 0x1 PUSH1 0x1 PUSH1 0xA0 SHL SUB AND PUSH1 0x1 PUSH1 0x1 PUSH1 0xA0 SHL SUB AND DUP2 MSTORE PUSH1 0x20 ADD SWAP1 DUP2 MSTORE PUSH1 0x20 ADD PUSH1 0x0 KECCAK256 PUSH1 0x0 DUP8 DUP2 MSTORE PUSH1 0x20 ADD SWAP1 DUP2 MSTORE PUSH1 0x20 ADD PUSH1 0x0 KECCAK256 PUSH1 0x4 ADD SLOAD DUP2 MSTORE PUSH1 0x20 ADD PUSH1 0x1 ISZERO ISZERO DUP2 MSTORE PUSH1 0x20 ADD DUP3 PUSH1 0x1 PUSH1 0x1 PUSH1 0xA0 SHL SUB AND DUP2 MSTORE PUSH1 0x20 ADD PUSH1 0x4 SLOAD DUP2 MSTORE PUSH1 0x20 ADD PUSH1 0x5 SLOAD DUP2 MSTORE PUSH1 0x20 ADD PUSH1 0x6 SLOAD DUP2 MSTORE POP PUSH1 0xD PUSH1 0x0 DUP8 PUSH1 0x1 PUSH1 0x1 PUSH1 0xA0 SHL SUB AND PUSH1 0x1 PUSH1 0x1 PUSH1 0xA0 SHL SUB AND DUP2 MSTORE PUSH1 0x20 ADD SWAP1 DUP2 MSTORE PUSH1 0x20 ADD PUSH1 0x0 KECCAK256 PUSH1 0x0 DUP7 DUP2 MSTORE PUSH1 0x20 ADD SWAP1 DUP2 MSTORE PUSH1 0x20 ADD PUSH1 0x0 KECCAK256 PUSH1 0x0 DUP3 ADD MLOAD DUP2 PUSH1 0x0 ADD SSTORE PUSH1 0x20 DUP3 ADD MLOAD DUP2 PUSH1 0x1 ADD PUSH1 0x0 PUSH2 0x100 EXP DUP2 SLOAD DUP2 PUSH1 0x1 PUSH1 0x1 PUSH1 0xA0 SHL SUB MUL NOT AND SWAP1 DUP4 PUSH1 0x1 PUSH1 0x1 PUSH1 0xA0 SHL SUB AND MUL OR SWAP1 SSTORE POP PUSH1 0x40 DUP3 ADD MLOAD DUP2 PUSH1 0x2 ADD PUSH1 0x0 PUSH2 0x100 EXP DUP2 SLOAD DUP2 PUSH1 0x1 PUSH1 0x1 PUSH1 0xA0 SHL SUB MUL NOT AND SWAP1 DUP4 PUSH1 0x1 PUSH1 0x1 PUSH1 0xA0 SHL SUB AND MUL OR SWAP1 SSTORE POP PUSH1 0x60 DUP3 ADD MLOAD DUP2 PUSH1 0x3 ADD SSTORE PUSH1 0x80 DUP3 ADD MLOAD DUP2 PUSH1 0x4 ADD SSTORE PUSH1 0xA0 DUP3 ADD MLOAD DUP2 PUSH1 0x5 ADD PUSH1 0x0 PUSH2 0x100 EXP DUP2 SLOAD DUP2 PUSH1 0xFF MUL NOT AND SWAP1 DUP4 ISZERO ISZERO MUL OR SWAP1 SSTORE POP PUSH1 0xC0 DUP3 ADD MLOAD DUP2 PUSH1 0x5 ADD PUSH1 0x1 PUSH2 0x100 EXP DUP2 SLOAD DUP2 PUSH1 0x1 PUSH1 0x1 PUSH1 0xA0 SHL SUB MUL NOT AND SWAP1 DUP4 PUSH1 0x1 PUSH1 0x1 PUSH1 0xA0 SHL SUB AND MUL OR SWAP1 SSTORE POP PUSH1 0xE0 DUP3 ADD MLOAD DUP2 PUSH1 0x6 ADD SSTORE PUSH2 0x100 DUP3 ADD MLOAD DUP2 PUSH1 0x7 ADD SSTORE PUSH2 0x120 DUP3 ADD MLOAD DUP2 PUSH1 0x8 ADD SSTORE SWAP1 POP POP PUSH1 0x40 MLOAD DUP1 PUSH1 0x40 ADD PUSH1 0x40 MSTORE DUP1 DUP7 PUSH1 0x1 PUSH1 0x1 PUSH1 0xA0 SHL SUB AND DUP2 MSTORE PUSH1 0x20 ADD DUP6 DUP2 MSTORE POP PUSH1 0xE PUSH1 0x0 PUSH2 0x114C PUSH1 0x1 SLOAD SWAP1 JUMP JUMPDEST DUP2 MSTORE PUSH1 0x20 DUP1 DUP3 ADD SWAP3 SWAP1 SWAP3 MSTORE PUSH1 0x40 SWAP1 DUP2 ADD PUSH1 0x0 KECCAK256 DUP4 MLOAD DUP2 SLOAD PUSH1 0x1 PUSH1 0x1 PUSH1 0xA0 SHL SUB NOT AND PUSH1 0x1 PUSH1 0x1 PUSH1 0xA0 SHL SUB SWAP2 DUP3 AND OR DUP3 SSTORE SWAP4 SWAP1 SWAP3 ADD MLOAD PUSH1 0x1 SWAP1 SWAP3 ADD SWAP2 SWAP1 SWAP2 SSTORE MLOAD PUSH4 0x23B872DD PUSH1 0xE0 SHL DUP2 MSTORE CALLER PUSH1 0x4 DUP3 ADD MSTORE ADDRESS PUSH1 0x24 DUP3 ADD MSTORE PUSH1 0x44 DUP2 ADD DUP7 SWAP1 MSTORE SWAP1 DUP7 AND SWAP1 PUSH4 0x23B872DD SWAP1 PUSH1 0x64 ADD PUSH1 0x0 PUSH1 0x40 MLOAD DUP1 DUP4 SUB DUP2 PUSH1 0x0 DUP8 DUP1 EXTCODESIZE ISZERO DUP1 ISZERO PUSH2 0x11CE JUMPI PUSH1 0x0 DUP1 REVERT JUMPDEST POP GAS CALL ISZERO DUP1 ISZERO PUSH2 0x11E2 JUMPI RETURNDATASIZE PUSH1 0x0 DUP1 RETURNDATACOPY RETURNDATASIZE PUSH1 0x0 REVERT JUMPDEST POP POP PUSH1 0x40 DUP1 MLOAD DUP1 DUP3 ADD DUP3 MSTORE DUP6 DUP2 MSTORE TIMESTAMP PUSH1 0x20 DUP1 DUP4 ADD SWAP2 DUP3 MSTORE PUSH1 0x3 DUP1 SLOAD PUSH1 0x0 SWAP1 DUP2 MSTORE PUSH1 0xF SWAP1 SWAP3 MSTORE SWAP4 DUP2 KECCAK256 SWAP3 MLOAD DUP4 SSTORE SWAP1 MLOAD PUSH1 0x1 SWAP1 SWAP3 ADD SWAP2 SWAP1 SWAP2 SSTORE DUP2 SLOAD SWAP4 POP SWAP1 SWAP2 POP PUSH2 0x1229 DUP4 PUSH2 0x1CB2 JUMP JUMPDEST SWAP1 SWAP2 SSTORE POP POP PUSH1 0x1 SLOAD CALLER SWAP1 PUSH32 0x1603F20F721362B0691BB408EDB3CF01409CD56DA9EDD4627B178750B7DD49A8 DUP6 DUP6 PUSH1 0x40 MLOAD PUSH2 0x1264 SWAP3 SWAP2 SWAP1 PUSH2 0x1CCB JUMP JUMPDEST PUSH1 0x40 MLOAD DUP1 SWAP2 SUB SWAP1 LOG3 POP POP POP POP POP JUMP JUMPDEST PUSH1 0x60 PUSH1 0x0 DUP1 PUSH2 0x1281 PUSH1 0x1 SLOAD SWAP1 JUMP JUMPDEST PUSH8 0xFFFFFFFFFFFFFFFF DUP2 GT ISZERO PUSH2 0x1299 JUMPI PUSH2 0x1299 PUSH2 0x1927 JUMP JUMPDEST PUSH1 0x40 MLOAD SWAP1 DUP1 DUP3 MSTORE DUP1 PUSH1 0x20 MUL PUSH1 0x20 ADD DUP3 ADD PUSH1 0x40 MSTORE DUP1 ISZERO PUSH2 0x1334 JUMPI DUP2 PUSH1 0x20 ADD JUMPDEST PUSH1 0x40 DUP1 MLOAD PUSH2 0x1A0 DUP2 ADD DUP3 MSTORE PUSH1 0x0 PUSH1 0x60 DUP1 DUP4 ADD DUP3 DUP2 MSTORE PUSH1 0x80 DUP5 ADD DUP4 SWAP1 MSTORE PUSH1 0xA0 DUP5 ADD DUP4 SWAP1 MSTORE PUSH1 0xC0 DUP5 ADD DUP4 SWAP1 MSTORE PUSH1 0xE0 DUP5 ADD DUP4 SWAP1 MSTORE PUSH2 0x100 DUP5 ADD DUP4 SWAP1 MSTORE PUSH2 0x120 DUP5 ADD DUP4 SWAP1 MSTORE PUSH2 0x140 DUP5 ADD DUP4 SWAP1 MSTORE PUSH2 0x160 DUP5 ADD DUP4 SWAP1 MSTORE PUSH2 0x180 DUP5 ADD DUP4 SWAP1 MSTORE DUP4 MSTORE PUSH1 0x20 DUP4 ADD SWAP2 SWAP1 SWAP2 MSTORE SWAP2 DUP2 ADD SWAP2 SWAP1 SWAP2 MSTORE DUP2 MSTORE PUSH1 0x20 ADD SWAP1 PUSH1 0x1 SWAP1 SUB SWAP1 DUP2 PUSH2 0x12B7 JUMPI SWAP1 POP JUMPDEST POP SWAP1 POP PUSH1 0x1 JUMPDEST PUSH1 0x1 SLOAD DUP2 GT PUSH2 0x14EB JUMPI PUSH1 0x0 DUP2 DUP2 MSTORE PUSH1 0xE PUSH1 0x20 SWAP1 DUP2 MSTORE PUSH1 0x40 DUP1 DUP4 KECCAK256 DUP1 SLOAD PUSH1 0x1 PUSH1 0x1 PUSH1 0xA0 SHL SUB AND DUP5 MSTORE PUSH1 0xD DUP4 MSTORE DUP2 DUP5 KECCAK256 PUSH1 0x1 SWAP1 SWAP2 ADD SLOAD DUP5 MSTORE SWAP1 SWAP2 MSTORE SWAP1 KECCAK256 PUSH1 0x5 ADD SLOAD PUSH1 0xFF AND ISZERO PUSH2 0x14D9 JUMPI PUSH1 0x40 DUP1 MLOAD PUSH1 0x0 DUP4 DUP2 MSTORE PUSH1 0xE PUSH1 0x20 DUP2 DUP2 MSTORE DUP5 DUP4 KECCAK256 DUP1 SLOAD PUSH1 0x1 PUSH1 0x1 PUSH1 0xA0 SHL SUB SWAP1 DUP2 AND DUP1 DUP7 MSTORE PUSH1 0xD DUP5 MSTORE DUP8 DUP7 KECCAK256 PUSH1 0x1 SWAP4 DUP5 ADD SLOAD DUP1 DUP9 MSTORE SWAP1 DUP6 MSTORE DUP9 DUP8 KECCAK256 PUSH2 0x1A0 DUP10 ADD DUP11 MSTORE DUP1 SLOAD PUSH1 0x60 DUP11 ADD SWAP1 DUP2 MSTORE SWAP5 DUP2 ADD SLOAD DUP5 AND PUSH1 0x80 DUP11 ADD MSTORE PUSH1 0x2 DUP2 ADD SLOAD DUP5 AND PUSH1 0xA0 DUP11 ADD MSTORE PUSH1 0x3 DUP2 ADD SLOAD PUSH1 0xC0 DUP11 ADD MSTORE PUSH1 0x4 DUP1 DUP3 ADD SLOAD PUSH1 0xE0 DUP12 ADD MSTORE PUSH1 0x5 DUP3 ADD SLOAD PUSH1 0xFF DUP2 AND ISZERO ISZERO PUSH2 0x100 DUP1 DUP14 ADD SWAP2 SWAP1 SWAP2 MSTORE SWAP1 DIV SWAP1 SWAP5 AND PUSH2 0x120 DUP11 ADD MSTORE PUSH1 0x6 DUP2 ADD SLOAD PUSH2 0x140 DUP11 ADD MSTORE PUSH1 0x7 DUP2 ADD SLOAD PUSH2 0x160 DUP11 ADD MSTORE PUSH1 0x8 ADD SLOAD PUSH2 0x180 DUP10 ADD MSTORE SWAP3 DUP8 MSTORE DUP4 DUP8 ADD DUP10 SWAP1 MSTORE SWAP5 DUP9 SWAP1 MSTORE SWAP3 SWAP1 SWAP2 MSTORE DUP5 MLOAD PUSH4 0x8AD91345 PUSH1 0xE0 SHL DUP2 MSTORE SWAP2 DUP3 ADD MSTORE SWAP2 SWAP3 DUP4 ADD SWAP2 PUSH4 0x8AD91345 SWAP1 PUSH1 0x24 ADD PUSH1 0x0 PUSH1 0x40 MLOAD DUP1 DUP4 SUB DUP2 DUP7 GAS STATICCALL ISZERO DUP1 ISZERO PUSH2 0x1482 JUMPI RETURNDATASIZE PUSH1 0x0 DUP1 RETURNDATACOPY RETURNDATASIZE PUSH1 0x0 REVERT JUMPDEST POP POP POP POP PUSH1 0x40 MLOAD RETURNDATASIZE PUSH1 0x0 DUP3 RETURNDATACOPY PUSH1 0x1F RETURNDATASIZE SWAP1 DUP2 ADD PUSH1 0x1F NOT AND DUP3 ADD PUSH1 0x40 MSTORE PUSH2 0x14AA SWAP2 SWAP1 DUP2 ADD SWAP1 PUSH2 0x1CED JUMP JUMPDEST DUP2 MSTORE POP DUP3 DUP5 DUP2 MLOAD DUP2 LT PUSH2 0x14BF JUMPI PUSH2 0x14BF PUSH2 0x1D64 JUMP JUMPDEST PUSH1 0x20 MUL PUSH1 0x20 ADD ADD DUP2 SWAP1 MSTORE POP DUP3 DUP1 PUSH2 0x14D5 SWAP1 PUSH2 0x1CB2 JUMP JUMPDEST SWAP4 POP POP JUMPDEST DUP1 PUSH2 0x14E3 DUP2 PUSH2 0x1CB2 JUMP JUMPDEST SWAP2 POP POP PUSH2 0x133A JUMP JUMPDEST POP SWAP3 SWAP2 POP POP JUMP JUMPDEST PUSH1 0x0 DUP2 DUP2 MSTORE PUSH1 0xE PUSH1 0x20 SWAP1 DUP2 MSTORE PUSH1 0x40 DUP1 DUP4 KECCAK256 DUP1 SLOAD PUSH1 0x1 PUSH1 0x1 PUSH1 0xA0 SHL SUB AND DUP5 MSTORE PUSH1 0xD DUP4 MSTORE DUP2 DUP5 KECCAK256 PUSH1 0x1 SWAP1 SWAP2 ADD SLOAD DUP5 MSTORE SWAP1 SWAP2 MSTORE SWAP1 KECCAK256 PUSH1 0x5 ADD SLOAD PUSH1 0xFF AND PUSH2 0x156F JUMPI PUSH1 0x40 MLOAD PUSH3 0x461BCD PUSH1 0xE5 SHL DUP2 MSTORE PUSH1 0x20 PUSH1 0x4 DUP3 ADD MSTORE PUSH1 0x15 PUSH1 0x24 DUP3 ADD MSTORE PUSH21 0x2A3434B99024BA32B6903737BA103634B9BA32B21 PUSH1 0x5D SHL PUSH1 0x44 DUP3 ADD MSTORE PUSH1 0x64 ADD PUSH2 0x77C JUMP JUMPDEST PUSH1 0x0 DUP2 DUP2 MSTORE PUSH1 0xE PUSH1 0x20 DUP2 DUP2 MSTORE PUSH1 0x40 DUP1 DUP5 KECCAK256 DUP1 SLOAD PUSH1 0x1 PUSH1 0x1 PUSH1 0xA0 SHL SUB SWAP1 DUP2 AND DUP7 MSTORE PUSH1 0xD DUP1 DUP6 MSTORE DUP4 DUP8 KECCAK256 PUSH1 0x1 DUP1 DUP6 ADD DUP1 SLOAD DUP11 MSTORE SWAP2 DUP8 MSTORE DUP6 DUP10 KECCAK256 DUP1 DUP3 ADD SLOAD PUSH1 0x2 SWAP1 SWAP2 ADD DUP1 SLOAD PUSH1 0x1 PUSH1 0x1 PUSH1 0xA0 SHL SUB NOT AND SWAP2 DUP7 AND SWAP2 SWAP1 SWAP2 OR SWAP1 SSTORE SWAP4 SLOAD DUP4 AND DUP1 DUP10 MSTORE SWAP2 DUP7 MSTORE DUP5 DUP9 KECCAK256 SWAP1 SLOAD DUP1 DUP10 MSTORE SWAP1 DUP7 MSTORE DUP5 DUP9 KECCAK256 SWAP1 SWAP4 ADD SLOAD SWAP7 DUP9 SWAP1 MSTORE SWAP5 SWAP1 SWAP4 MSTORE SWAP1 MLOAD PUSH4 0x23B872DD PUSH1 0xE0 SHL DUP2 MSTORE ADDRESS PUSH1 0x4 DUP3 ADD MSTORE SWAP4 SWAP1 SWAP2 AND PUSH1 0x24 DUP5 ADD MSTORE PUSH1 0x44 DUP4 ADD MSTORE SWAP1 PUSH4 0x23B872DD SWAP1 PUSH1 0x64 ADD PUSH1 0x0 PUSH1 0x40 MLOAD DUP1 DUP4 SUB DUP2 PUSH1 0x0 DUP8 DUP1 EXTCODESIZE ISZERO DUP1 ISZERO PUSH2 0x162C JUMPI PUSH1 0x0 DUP1 REVERT JUMPDEST POP GAS CALL ISZERO DUP1 ISZERO PUSH2 0x1640 JUMPI RETURNDATASIZE PUSH1 0x0 DUP1 RETURNDATACOPY RETURNDATASIZE PUSH1 0x0 REVERT JUMPDEST POP POP POP PUSH1 0x0 DUP3 DUP2 MSTORE PUSH1 0xE PUSH1 0x20 DUP2 DUP2 MSTORE PUSH1 0x40 DUP1 DUP5 KECCAK256 DUP1 SLOAD PUSH1 0x1 PUSH1 0x1 PUSH1 0xA0 SHL SUB SWAP1 DUP2 AND DUP7 MSTORE PUSH1 0xD DUP1 DUP6 MSTORE DUP4 DUP8 KECCAK256 PUSH1 0x1 DUP1 DUP6 ADD DUP1 SLOAD DUP11 MSTORE SWAP2 DUP8 MSTORE DUP6 DUP10 KECCAK256 PUSH1 0x5 ADD DUP1 SLOAD PUSH1 0xFF NOT AND SWAP1 SSTORE DUP5 SLOAD DUP5 AND DUP10 MSTORE SWAP2 DUP7 MSTORE DUP5 DUP9 KECCAK256 DUP2 SLOAD DUP10 MSTORE DUP7 MSTORE DUP5 DUP9 KECCAK256 PUSH1 0x4 ADD DUP11 SWAP1 SSTORE DUP2 SLOAD DUP9 MSTORE SWAP6 SWAP1 SWAP5 MSTORE SWAP2 DUP6 KECCAK256 SWAP5 DUP8 SWAP1 MSTORE DUP5 SLOAD DUP2 SLOAD PUSH1 0x1 PUSH1 0x1 PUSH1 0xA0 SHL SUB NOT AND SWAP3 AND SWAP2 SWAP1 SWAP2 OR SWAP1 SSTORE SWAP2 DUP3 ADD SLOAD SWAP1 SSTORE PUSH2 0x16D5 SWAP2 POP PUSH2 0x179F JUMP JUMPDEST PUSH1 0x0 DUP2 DUP2 MSTORE PUSH1 0xE PUSH1 0x20 SWAP1 DUP2 MSTORE PUSH1 0x40 DUP1 DUP4 KECCAK256 DUP1 SLOAD PUSH1 0x1 PUSH1 0x1 PUSH1 0xA0 SHL SUB SWAP1 DUP2 AND DUP6 MSTORE PUSH1 0xD DUP5 MSTORE DUP3 DUP6 KECCAK256 PUSH1 0x1 SWAP3 DUP4 ADD SLOAD DUP7 MSTORE DUP5 MSTORE SWAP4 DUP3 SWAP1 KECCAK256 DUP1 SLOAD SWAP2 DUP2 ADD SLOAD PUSH1 0x3 SWAP1 SWAP2 ADD SLOAD DUP4 MLOAD SWAP3 DUP4 MSTORE SWAP5 AND SWAP3 DUP2 ADD SWAP3 SWAP1 SWAP3 MSTORE CALLER SWAP1 DUP3 ADD MSTORE PUSH1 0x60 DUP2 ADD SWAP2 SWAP1 SWAP2 MSTORE PUSH32 0xFB0451E2371B977DB14CE8DB0BD62262E6FF8FE4B5960280928BA94E02443603 SWAP1 PUSH1 0x80 ADD PUSH1 0x40 MLOAD DUP1 SWAP2 SUB SWAP1 LOG1 POP JUMP JUMPDEST PUSH2 0x1769 PUSH2 0x17F6 JUMP JUMPDEST PUSH1 0x1 PUSH1 0x1 PUSH1 0xA0 SHL SUB DUP2 AND PUSH2 0x1793 JUMPI PUSH1 0x40 MLOAD PUSH4 0x1E4FBDF7 PUSH1 0xE0 SHL DUP2 MSTORE PUSH1 0x0 PUSH1 0x4 DUP3 ADD MSTORE PUSH1 0x24 ADD PUSH2 0x77C JUMP JUMPDEST PUSH2 0x179C DUP2 PUSH2 0x1823 JUMP JUMPDEST POP JUMP JUMPDEST DUP1 SLOAD DUP1 PUSH2 0x17EE JUMPI PUSH1 0x40 MLOAD PUSH3 0x461BCD PUSH1 0xE5 SHL DUP2 MSTORE PUSH1 0x20 PUSH1 0x4 DUP3 ADD MSTORE PUSH1 0x1B PUSH1 0x24 DUP3 ADD MSTORE PUSH32 0x436F756E7465723A2064656372656D656E74206F766572666C6F770000000000 PUSH1 0x44 DUP3 ADD MSTORE PUSH1 0x64 ADD PUSH2 0x77C JUMP JUMPDEST PUSH1 0x0 NOT ADD SWAP1 SSTORE JUMP JUMPDEST PUSH1 0x0 SLOAD PUSH1 0x1 PUSH1 0x1 PUSH1 0xA0 SHL SUB AND CALLER EQ PUSH2 0xF50 JUMPI PUSH1 0x40 MLOAD PUSH4 0x118CDAA7 PUSH1 0xE0 SHL DUP2 MSTORE CALLER PUSH1 0x4 DUP3 ADD MSTORE PUSH1 0x24 ADD PUSH2 0x77C JUMP JUMPDEST PUSH1 0x0 DUP1 SLOAD PUSH1 0x1 PUSH1 0x1 PUSH1 0xA0 SHL SUB DUP4 DUP2 AND PUSH1 0x1 PUSH1 0x1 PUSH1 0xA0 SHL SUB NOT DUP4 AND DUP2 OR DUP5 SSTORE PUSH1 0x40 MLOAD SWAP2 SWAP1 SWAP3 AND SWAP3 DUP4 SWAP2 PUSH32 0x8BE0079C531659141344CD1FD0A4F28419497F9722A3DAAFE3B4186F6B6457E0 SWAP2 SWAP1 LOG3 POP POP JUMP JUMPDEST DUP1 CALLDATALOAD PUSH1 0x1 PUSH1 0x1 PUSH1 0xA0 SHL SUB DUP2 AND DUP2 EQ PUSH2 0x188A JUMPI PUSH1 0x0 DUP1 REVERT JUMPDEST SWAP2 SWAP1 POP JUMP JUMPDEST PUSH1 0x0 PUSH1 0x20 DUP3 DUP5 SUB SLT ISZERO PUSH2 0x18A1 JUMPI PUSH1 0x0 DUP1 REVERT JUMPDEST PUSH2 0x18AA DUP3 PUSH2 0x1873 JUMP JUMPDEST SWAP4 SWAP3 POP POP POP JUMP JUMPDEST PUSH1 0x0 PUSH1 0x20 DUP3 DUP5 SUB SLT ISZERO PUSH2 0x18C3 JUMPI PUSH1 0x0 DUP1 REVERT JUMPDEST POP CALLDATALOAD SWAP2 SWAP1 POP JUMP JUMPDEST PUSH1 0x0 DUP1 PUSH1 0x40 DUP4 DUP6 SUB SLT ISZERO PUSH2 0x18DD JUMPI PUSH1 0x0 DUP1 REVERT JUMPDEST POP POP DUP1 CALLDATALOAD SWAP3 PUSH1 0x20 SWAP1 SWAP2 ADD CALLDATALOAD SWAP2 POP JUMP JUMPDEST DUP1 CALLDATALOAD PUSH1 0x4 DUP2 LT PUSH2 0x188A JUMPI PUSH1 0x0 DUP1 REVERT JUMPDEST PUSH1 0x0 DUP1 PUSH1 0x40 DUP4 DUP6 SUB SLT ISZERO PUSH2 0x190E JUMPI PUSH1 0x0 DUP1 REVERT JUMPDEST DUP3 CALLDATALOAD SWAP2 POP PUSH2 0x191E PUSH1 0x20 DUP5 ADD PUSH2 0x18EC JUMP JUMPDEST SWAP1 POP SWAP3 POP SWAP3 SWAP1 POP JUMP JUMPDEST PUSH4 0x4E487B71 PUSH1 0xE0 SHL PUSH1 0x0 MSTORE PUSH1 0x41 PUSH1 0x4 MSTORE PUSH1 0x24 PUSH1 0x0 REVERT JUMPDEST PUSH1 0x40 MLOAD PUSH1 0x1F DUP3 ADD PUSH1 0x1F NOT AND DUP2 ADD PUSH8 0xFFFFFFFFFFFFFFFF DUP2 GT DUP3 DUP3 LT OR ISZERO PUSH2 0x1966 JUMPI PUSH2 0x1966 PUSH2 0x1927 JUMP JUMPDEST PUSH1 0x40 MSTORE SWAP2 SWAP1 POP JUMP JUMPDEST PUSH1 0x0 PUSH8 0xFFFFFFFFFFFFFFFF DUP3 GT ISZERO PUSH2 0x1988 JUMPI PUSH2 0x1988 PUSH2 0x1927 JUMP JUMPDEST POP PUSH1 0x1F ADD PUSH1 0x1F NOT AND PUSH1 0x20 ADD SWAP1 JUMP JUMPDEST PUSH1 0x0 DUP1 PUSH1 0x0 DUP1 PUSH1 0x0 PUSH1 0xA0 DUP7 DUP9 SUB SLT ISZERO PUSH2 0x19AE JUMPI PUSH1 0x0 DUP1 REVERT JUMPDEST PUSH2 0x19B7 DUP7 PUSH2 0x1873 JUMP JUMPDEST SWAP5 POP PUSH1 0x20 DUP7 ADD CALLDATALOAD SWAP4 POP PUSH1 0x40 DUP7 ADD CALLDATALOAD PUSH8 0xFFFFFFFFFFFFFFFF DUP2 GT ISZERO PUSH2 0x19DA JUMPI PUSH1 0x0 DUP1 REVERT JUMPDEST DUP7 ADD PUSH1 0x1F DUP2 ADD DUP9 SGT PUSH2 0x19EB JUMPI PUSH1 0x0 DUP1 REVERT JUMPDEST DUP1 CALLDATALOAD PUSH2 0x19FE PUSH2 0x19F9 DUP3 PUSH2 0x196E JUMP JUMPDEST PUSH2 0x193D JUMP JUMPDEST DUP2 DUP2 MSTORE DUP10 PUSH1 0x20 DUP4 DUP6 ADD ADD GT ISZERO PUSH2 0x1A13 JUMPI PUSH1 0x0 DUP1 REVERT JUMPDEST DUP2 PUSH1 0x20 DUP5 ADD PUSH1 0x20 DUP4 ADD CALLDATACOPY PUSH1 0x0 SWAP2 DUP2 ADD PUSH1 0x20 ADD SWAP2 SWAP1 SWAP2 MSTORE SWAP4 POP POP PUSH1 0x60 DUP7 ADD CALLDATALOAD SWAP2 POP PUSH2 0x1A3F PUSH1 0x80 DUP8 ADD PUSH2 0x1873 JUMP JUMPDEST SWAP1 POP SWAP3 SWAP6 POP SWAP3 SWAP6 SWAP1 SWAP4 POP JUMP JUMPDEST PUSH1 0x0 DUP1 PUSH1 0x40 DUP4 DUP6 SUB SLT ISZERO PUSH2 0x1A5E JUMPI PUSH1 0x0 DUP1 REVERT JUMPDEST PUSH2 0x1A67 DUP4 PUSH2 0x1873 JUMP JUMPDEST SWAP5 PUSH1 0x20 SWAP4 SWAP1 SWAP4 ADD CALLDATALOAD SWAP4 POP POP POP JUMP JUMPDEST PUSH1 0x0 JUMPDEST DUP4 DUP2 LT ISZERO PUSH2 0x1A90 JUMPI DUP2 DUP2 ADD MLOAD DUP4 DUP3 ADD MSTORE PUSH1 0x20 ADD PUSH2 0x1A78 JUMP JUMPDEST POP POP PUSH1 0x0 SWAP2 ADD MSTORE JUMP JUMPDEST PUSH1 0x0 DUP2 MLOAD DUP1 DUP5 MSTORE PUSH2 0x1AB1 DUP2 PUSH1 0x20 DUP7 ADD PUSH1 0x20 DUP7 ADD PUSH2 0x1A75 JUMP JUMPDEST PUSH1 0x1F ADD PUSH1 0x1F NOT AND SWAP3 SWAP1 SWAP3 ADD PUSH1 0x20 ADD SWAP3 SWAP2 POP POP JUMP JUMPDEST PUSH1 0x0 PUSH1 0x20 DUP3 ADD PUSH1 0x20 DUP4 MSTORE DUP1 DUP5 MLOAD DUP1 DUP4 MSTORE PUSH1 0x40 DUP6 ADD SWAP2 POP PUSH1 0x40 DUP2 PUSH1 0x5 SHL DUP7 ADD ADD SWAP3 POP PUSH1 0x20 DUP7 ADD PUSH1 0x0 JUMPDEST DUP3 DUP2 LT ISZERO PUSH2 0x1BE1 JUMPI PUSH1 0x3F NOT DUP8 DUP7 SUB ADD DUP5 MSTORE DUP2 MLOAD DUP1 MLOAD DUP1 MLOAD DUP8 MSTORE PUSH1 0x20 DUP2 ADD MLOAD PUSH2 0x1B20 PUSH1 0x20 DUP10 ADD DUP3 PUSH1 0x1 PUSH1 0x1 PUSH1 0xA0 SHL SUB AND SWAP1 MSTORE JUMP JUMPDEST POP PUSH1 0x40 DUP2 ADD MLOAD PUSH2 0x1B3B PUSH1 0x40 DUP10 ADD DUP3 PUSH1 0x1 PUSH1 0x1 PUSH1 0xA0 SHL SUB AND SWAP1 MSTORE JUMP JUMPDEST POP PUSH1 0x60 DUP2 ADD MLOAD PUSH1 0x60 DUP9 ADD MSTORE PUSH1 0x80 DUP2 ADD MLOAD PUSH1 0x80 DUP9 ADD MSTORE PUSH1 0xA0 DUP2 ADD MLOAD PUSH2 0x1B63 PUSH1 0xA0 DUP10 ADD DUP3 ISZERO ISZERO SWAP1 MSTORE JUMP JUMPDEST POP PUSH1 0xC0 DUP2 ADD MLOAD PUSH2 0x1B7E PUSH1 0xC0 DUP10 ADD DUP3 PUSH1 0x1 PUSH1 0x1 PUSH1 0xA0 SHL SUB AND SWAP1 MSTORE JUMP JUMPDEST POP PUSH1 0xE0 DUP2 ADD MLOAD PUSH1 0xE0 DUP9 ADD MSTORE PUSH2 0x100 DUP2 ADD MLOAD PUSH2 0x100 DUP9 ADD MSTORE PUSH2 0x120 DUP2 ADD MLOAD PUSH2 0x120 DUP9 ADD MSTORE POP PUSH1 0x20 DUP2 ADD MLOAD PUSH2 0x140 DUP8 ADD MSTORE PUSH1 0x40 DUP2 ADD MLOAD SWAP1 POP PUSH2 0x180 PUSH2 0x160 DUP8 ADD MSTORE PUSH2 0x1BCB PUSH2 0x180 DUP8 ADD DUP3 PUSH2 0x1A99 JUMP JUMPDEST SWAP6 POP POP PUSH1 0x20 SWAP4 DUP5 ADD SWAP4 SWAP2 SWAP1 SWAP2 ADD SWAP1 PUSH1 0x1 ADD PUSH2 0x1AED JUMP JUMPDEST POP SWAP3 SWAP7 SWAP6 POP POP POP POP POP POP JUMP JUMPDEST PUSH1 0x0 PUSH1 0x20 DUP3 DUP5 SUB SLT ISZERO PUSH2 0x1BFF JUMPI PUSH1 0x0 DUP1 REVERT JUMPDEST PUSH2 0x18AA DUP3 PUSH2 0x18EC JUMP JUMPDEST PUSH1 0x0 PUSH1 0x20 DUP3 DUP5 SUB SLT ISZERO PUSH2 0x1C1A JUMPI PUSH1 0x0 DUP1 REVERT JUMPDEST POP MLOAD SWAP2 SWAP1 POP JUMP JUMPDEST PUSH4 0x4E487B71 PUSH1 0xE0 SHL PUSH1 0x0 MSTORE PUSH1 0x21 PUSH1 0x4 MSTORE PUSH1 0x24 PUSH1 0x0 REVERT JUMPDEST PUSH4 0x4E487B71 PUSH1 0xE0 SHL PUSH1 0x0 MSTORE PUSH1 0x11 PUSH1 0x4 MSTORE PUSH1 0x24 PUSH1 0x0 REVERT JUMPDEST DUP1 DUP3 MUL DUP2 ISZERO DUP3 DUP3 DIV DUP5 EQ OR PUSH2 0x1C64 JUMPI PUSH2 0x1C64 PUSH2 0x1C37 JUMP JUMPDEST SWAP3 SWAP2 POP POP JUMP JUMPDEST PUSH1 0x0 DUP3 PUSH2 0x1C87 JUMPI PUSH4 0x4E487B71 PUSH1 0xE0 SHL PUSH1 0x0 MSTORE PUSH1 0x12 PUSH1 0x4 MSTORE PUSH1 0x24 PUSH1 0x0 REVERT JUMPDEST POP DIV SWAP1 JUMP JUMPDEST DUP1 DUP3 ADD DUP1 DUP3 GT ISZERO PUSH2 0x1C64 JUMPI PUSH2 0x1C64 PUSH2 0x1C37 JUMP JUMPDEST DUP2 DUP2 SUB DUP2 DUP2 GT ISZERO PUSH2 0x1C64 JUMPI PUSH2 0x1C64 PUSH2 0x1C37 JUMP JUMPDEST PUSH1 0x0 PUSH1 0x1 DUP3 ADD PUSH2 0x1CC4 JUMPI PUSH2 0x1CC4 PUSH2 0x1C37 JUMP JUMPDEST POP PUSH1 0x1 ADD SWAP1 JUMP JUMPDEST PUSH1 0x40 DUP2 MSTORE PUSH1 0x0 PUSH2 0x1CDE PUSH1 0x40 DUP4 ADD DUP6 PUSH2 0x1A99 JUMP JUMPDEST SWAP1 POP DUP3 PUSH1 0x20 DUP4 ADD MSTORE SWAP4 SWAP3 POP POP POP JUMP JUMPDEST PUSH1 0x0 PUSH1 0x20 DUP3 DUP5 SUB SLT ISZERO PUSH2 0x1CFF JUMPI PUSH1 0x0 DUP1 REVERT JUMPDEST DUP2 MLOAD PUSH8 0xFFFFFFFFFFFFFFFF DUP2 GT ISZERO PUSH2 0x1D16 JUMPI PUSH1 0x0 DUP1 REVERT JUMPDEST DUP3 ADD PUSH1 0x1F DUP2 ADD DUP5 SGT PUSH2 0x1D27 JUMPI PUSH1 0x0 DUP1 REVERT JUMPDEST DUP1 MLOAD PUSH2 0x1D35 PUSH2 0x19F9 DUP3 PUSH2 0x196E JUMP JUMPDEST DUP2 DUP2 MSTORE DUP6 PUSH1 0x20 DUP4 DUP6 ADD ADD GT ISZERO PUSH2 0x1D4A JUMPI PUSH1 0x0 DUP1 REVERT JUMPDEST PUSH2 0x1D5B DUP3 PUSH1 0x20 DUP4 ADD PUSH1 0x20 DUP7 ADD PUSH2 0x1A75 JUMP JUMPDEST SWAP6 SWAP5 POP POP POP POP POP JUMP JUMPDEST PUSH4 0x4E487B71 PUSH1 0xE0 SHL PUSH1 0x0 MSTORE PUSH1 0x32 PUSH1 0x4 MSTORE PUSH1 0x24 PUSH1 0x0 REVERT INVALID LOG2 PUSH5 0x6970667358 0x22 SLT KECCAK256 0xB7 0xCF DUP8 PUSH14 0x243431B87F2A79A95367C296828E LT SELFBALANCE PUSH27 0xCA05FA16D71C50943A67C764736F6C634300081A00330000000000 "
				},
				"gasEstimates": {
					"creation": {
						"codeDepositCost": "1520000",
						"executionCost": "infinite",
						"totalCost": "infinite"
					},
					"external": {
						"Buy(uint256,uint8)": "infinite",
						"CancleListForSale(uint256)": "infinite",
						"Index(uint256)": "4691",
						"Sales(uint256)": "2506",
						"Volume(uint256)": "4666",
						"_items(address,uint256)": "19880",
						"checkBalanceOf(address)": "infinite",
						"commission(uint256)": "4623",
						"editList(uint256,uint256)": "39941",
						"getAllListedNfts()": "infinite",
						"listItem(address,uint256,string,uint256,address)": "infinite",
						"memberShipPer(uint8)": "2545",
						"owner()": "2346",
						"renounceOwnership()": "infinite",
						"transferOwnership(address)": "28421"
					}
				},
				"methodIdentifiers": {
					"Buy(uint256,uint8)": "62590604",
					"CancleListForSale(uint256)": "9f5e6fd9",
					"Index(uint256)": "bc4bc9c8",
					"Sales(uint256)": "3529280b",
					"Volume(uint256)": "752cd654",
					"_items(address,uint256)": "93f31109",
					"checkBalanceOf(address)": "03147f39",
					"commission(uint256)": "1065cf73",
					"editList(uint256,uint256)": "6081a0dd",
					"getAllListedNfts()": "95ce4a3b",
					"listItem(address,uint256,string,uint256,address)": "7c7ce62d",
					"memberShipPer(uint8)": "b50c0d20",
					"owner()": "8da5cb5b",
					"renounceOwnership()": "715018a6",
					"transferOwnership(address)": "f2fde38b"
				}
			},
			"storageLayout": {
				"storage": [
					{
						"astId": 8,
						"contract": "contracts/fatcat/marketplace.sol:NFTMarketplace",
						"label": "_owner",
						"offset": 0,
						"slot": "0",
						"type": "t_address"
					},
					{
						"astId": 3232,
						"contract": "contracts/fatcat/marketplace.sol:NFTMarketplace",
						"label": "_itemIds",
						"offset": 0,
						"slot": "1",
						"type": "t_struct(Counter)1650_storage"
					},
					{
						"astId": 3235,
						"contract": "contracts/fatcat/marketplace.sol:NFTMarketplace",
						"label": "_itemsSold",
						"offset": 0,
						"slot": "2",
						"type": "t_struct(Counter)1650_storage"
					},
					{
						"astId": 3237,
						"contract": "contracts/fatcat/marketplace.sol:NFTMarketplace",
						"label": "totalVolume",
						"offset": 0,
						"slot": "3",
						"type": "t_uint256"
					},
					{
						"astId": 3239,
						"contract": "contracts/fatcat/marketplace.sol:NFTMarketplace",
						"label": "artistFeePerAge",
						"offset": 0,
						"slot": "4",
						"type": "t_uint256"
					},
					{
						"astId": 3241,
						"contract": "contracts/fatcat/marketplace.sol:NFTMarketplace",
						"label": "sellerFeePerAge",
						"offset": 0,
						"slot": "5",
						"type": "t_uint256"
					},
					{
						"astId": 3243,
						"contract": "contracts/fatcat/marketplace.sol:NFTMarketplace",
						"label": "buyerFeePerAge",
						"offset": 0,
						"slot": "6",
						"type": "t_uint256"
					},
					{
						"astId": 3245,
						"contract": "contracts/fatcat/marketplace.sol:NFTMarketplace",
						"label": "soldCount",
						"offset": 0,
						"slot": "7",
						"type": "t_uint256"
					},
					{
						"astId": 3248,
						"contract": "contracts/fatcat/marketplace.sol:NFTMarketplace",
						"label": "FatCats",
						"offset": 0,
						"slot": "8",
						"type": "t_address"
					},
					{
						"astId": 3251,
						"contract": "contracts/fatcat/marketplace.sol:NFTMarketplace",
						"label": "FatLeopards",
						"offset": 0,
						"slot": "9",
						"type": "t_address"
					},
					{
						"astId": 3254,
						"contract": "contracts/fatcat/marketplace.sol:NFTMarketplace",
						"label": "FatTigers",
						"offset": 0,
						"slot": "10",
						"type": "t_address"
					},
					{
						"astId": 3257,
						"contract": "contracts/fatcat/marketplace.sol:NFTMarketplace",
						"label": "FatKittens",
						"offset": 0,
						"slot": "11",
						"type": "t_address"
					},
					{
						"astId": 3346,
						"contract": "contracts/fatcat/marketplace.sol:NFTMarketplace",
						"label": "memberShipPer",
						"offset": 0,
						"slot": "12",
						"type": "t_mapping(t_enum(memberShip)3305,t_uint256)"
					},
					{
						"astId": 3361,
						"contract": "contracts/fatcat/marketplace.sol:NFTMarketplace",
						"label": "_items",
						"offset": 0,
						"slot": "13",
						"type": "t_mapping(t_address,t_mapping(t_uint256,t_struct(NFTlist)3326_storage))"
					},
					{
						"astId": 3366,
						"contract": "contracts/fatcat/marketplace.sol:NFTMarketplace",
						"label": "Index",
						"offset": 0,
						"slot": "14",
						"type": "t_mapping(t_uint256,t_struct(tokenAddress)3331_storage)"
					},
					{
						"astId": 3371,
						"contract": "contracts/fatcat/marketplace.sol:NFTMarketplace",
						"label": "Volume",
						"offset": 0,
						"slot": "15",
						"type": "t_mapping(t_uint256,t_struct(VolumeData)3336_storage)"
					},
					{
						"astId": 3376,
						"contract": "contracts/fatcat/marketplace.sol:NFTMarketplace",
						"label": "commission",
						"offset": 0,
						"slot": "16",
						"type": "t_mapping(t_uint256,t_struct(commissionData)3341_storage)"
					},
					{
						"astId": 3380,
						"contract": "contracts/fatcat/marketplace.sol:NFTMarketplace",
						"label": "Sales",
						"offset": 0,
						"slot": "17",
						"type": "t_mapping(t_uint256,t_uint256)"
					}
				],
				"types": {
					"t_address": {
						"encoding": "inplace",
						"label": "address",
						"numberOfBytes": "20"
					},
					"t_bool": {
						"encoding": "inplace",
						"label": "bool",
						"numberOfBytes": "1"
					},
					"t_enum(memberShip)3305": {
						"encoding": "inplace",
						"label": "enum NFTMarketplace.memberShip",
						"numberOfBytes": "1"
					},
					"t_mapping(t_address,t_mapping(t_uint256,t_struct(NFTlist)3326_storage))": {
						"encoding": "mapping",
						"key": "t_address",
						"label": "mapping(address => mapping(uint256 => struct NFTMarketplace.NFTlist))",
						"numberOfBytes": "32",
						"value": "t_mapping(t_uint256,t_struct(NFTlist)3326_storage)"
					},
					"t_mapping(t_enum(memberShip)3305,t_uint256)": {
						"encoding": "mapping",
						"key": "t_enum(memberShip)3305",
						"label": "mapping(enum NFTMarketplace.memberShip => uint256)",
						"numberOfBytes": "32",
						"value": "t_uint256"
					},
					"t_mapping(t_uint256,t_struct(NFTlist)3326_storage)": {
						"encoding": "mapping",
						"key": "t_uint256",
						"label": "mapping(uint256 => struct NFTMarketplace.NFTlist)",
						"numberOfBytes": "32",
						"value": "t_struct(NFTlist)3326_storage"
					},
					"t_mapping(t_uint256,t_struct(VolumeData)3336_storage)": {
						"encoding": "mapping",
						"key": "t_uint256",
						"label": "mapping(uint256 => struct NFTMarketplace.VolumeData)",
						"numberOfBytes": "32",
						"value": "t_struct(VolumeData)3336_storage"
					},
					"t_mapping(t_uint256,t_struct(commissionData)3341_storage)": {
						"encoding": "mapping",
						"key": "t_uint256",
						"label": "mapping(uint256 => struct NFTMarketplace.commissionData)",
						"numberOfBytes": "32",
						"value": "t_struct(commissionData)3341_storage"
					},
					"t_mapping(t_uint256,t_struct(tokenAddress)3331_storage)": {
						"encoding": "mapping",
						"key": "t_uint256",
						"label": "mapping(uint256 => struct NFTMarketplace.tokenAddress)",
						"numberOfBytes": "32",
						"value": "t_struct(tokenAddress)3331_storage"
					},
					"t_mapping(t_uint256,t_uint256)": {
						"encoding": "mapping",
						"key": "t_uint256",
						"label": "mapping(uint256 => uint256)",
						"numberOfBytes": "32",
						"value": "t_uint256"
					},
					"t_struct(Counter)1650_storage": {
						"encoding": "inplace",
						"label": "struct Counters.Counter",
						"members": [
							{
								"astId": 1649,
								"contract": "contracts/fatcat/marketplace.sol:NFTMarketplace",
								"label": "_value",
								"offset": 0,
								"slot": "0",
								"type": "t_uint256"
							}
						],
						"numberOfBytes": "32"
					},
					"t_struct(NFTlist)3326_storage": {
						"encoding": "inplace",
						"label": "struct NFTMarketplace.NFTlist",
						"members": [
							{
								"astId": 3307,
								"contract": "contracts/fatcat/marketplace.sol:NFTMarketplace",
								"label": "tokenId",
								"offset": 0,
								"slot": "0",
								"type": "t_uint256"
							},
							{
								"astId": 3309,
								"contract": "contracts/fatcat/marketplace.sol:NFTMarketplace",
								"label": "seller",
								"offset": 0,
								"slot": "1",
								"type": "t_address"
							},
							{
								"astId": 3311,
								"contract": "contracts/fatcat/marketplace.sol:NFTMarketplace",
								"label": "owner",
								"offset": 0,
								"slot": "2",
								"type": "t_address"
							},
							{
								"astId": 3313,
								"contract": "contracts/fatcat/marketplace.sol:NFTMarketplace",
								"label": "price",
								"offset": 0,
								"slot": "3",
								"type": "t_uint256"
							},
							{
								"astId": 3315,
								"contract": "contracts/fatcat/marketplace.sol:NFTMarketplace",
								"label": "count",
								"offset": 0,
								"slot": "4",
								"type": "t_uint256"
							},
							{
								"astId": 3317,
								"contract": "contracts/fatcat/marketplace.sol:NFTMarketplace",
								"label": "listed",
								"offset": 0,
								"slot": "5",
								"type": "t_bool"
							},
							{
								"astId": 3319,
								"contract": "contracts/fatcat/marketplace.sol:NFTMarketplace",
								"label": "artist",
								"offset": 1,
								"slot": "5",
								"type": "t_address"
							},
							{
								"astId": 3321,
								"contract": "contracts/fatcat/marketplace.sol:NFTMarketplace",
								"label": "artistFeePerAge",
								"offset": 0,
								"slot": "6",
								"type": "t_uint256"
							},
							{
								"astId": 3323,
								"contract": "contracts/fatcat/marketplace.sol:NFTMarketplace",
								"label": "sellerFeePerAge",
								"offset": 0,
								"slot": "7",
								"type": "t_uint256"
							},
							{
								"astId": 3325,
								"contract": "contracts/fatcat/marketplace.sol:NFTMarketplace",
								"label": "buyerFeePerAge",
								"offset": 0,
								"slot": "8",
								"type": "t_uint256"
							}
						],
						"numberOfBytes": "288"
					},
					"t_struct(VolumeData)3336_storage": {
						"encoding": "inplace",
						"label": "struct NFTMarketplace.VolumeData",
						"members": [
							{
								"astId": 3333,
								"contract": "contracts/fatcat/marketplace.sol:NFTMarketplace",
								"label": "_price",
								"offset": 0,
								"slot": "0",
								"type": "t_uint256"
							},
							{
								"astId": 3335,
								"contract": "contracts/fatcat/marketplace.sol:NFTMarketplace",
								"label": "_time",
								"offset": 0,
								"slot": "1",
								"type": "t_uint256"
							}
						],
						"numberOfBytes": "64"
					},
					"t_struct(commissionData)3341_storage": {
						"encoding": "inplace",
						"label": "struct NFTMarketplace.commissionData",
						"members": [
							{
								"astId": 3338,
								"contract": "contracts/fatcat/marketplace.sol:NFTMarketplace",
								"label": "totalCommission",
								"offset": 0,
								"slot": "0",
								"type": "t_uint256"
							},
							{
								"astId": 3340,
								"contract": "contracts/fatcat/marketplace.sol:NFTMarketplace",
								"label": "timestamp",
								"offset": 0,
								"slot": "1",
								"type": "t_uint256"
							}
						],
						"numberOfBytes": "64"
					},
					"t_struct(tokenAddress)3331_storage": {
						"encoding": "inplace",
						"label": "struct NFTMarketplace.tokenAddress",
						"members": [
							{
								"astId": 3328,
								"contract": "contracts/fatcat/marketplace.sol:NFTMarketplace",
								"label": "contractAddress",
								"offset": 0,
								"slot": "0",
								"type": "t_address"
							},
							{
								"astId": 3330,
								"contract": "contracts/fatcat/marketplace.sol:NFTMarketplace",
								"label": "TokenId",
								"offset": 0,
								"slot": "1",
								"type": "t_uint256"
							}
						],
						"numberOfBytes": "64"
					},
					"t_uint256": {
						"encoding": "inplace",
						"label": "uint256",
						"numberOfBytes": "32"
					}
				}
			},
			"userdoc": {
				"kind": "user",
				"methods": {},
				"version": 1
			}
		}
	}
}