{
	"contracts/fatcat 5aug (1)/contracts/fatcat 5aug/preSale.sol": {
		"TimeVillageToken": {
			"abi": [
				{
					"inputs": [
						{
							"internalType": "address",
							"name": "_UsdcContract",
							"type": "address"
						},
						{
							"internalType": "address",
							"name": "ownerAddress",
							"type": "address"
						}
					],
					"stateMutability": "nonpayable",
					"type": "constructor"
				},
				{
					"inputs": [
						{
							"internalType": "address",
							"name": "target",
							"type": "address"
						}
					],
					"name": "AddressEmptyCode",
					"type": "error"
				},
				{
					"inputs": [
						{
							"internalType": "address",
							"name": "account",
							"type": "address"
						}
					],
					"name": "AddressInsufficientBalance",
					"type": "error"
				},
				{
					"inputs": [
						{
							"internalType": "address",
							"name": "spender",
							"type": "address"
						},
						{
							"internalType": "uint256",
							"name": "allowance",
							"type": "uint256"
						},
						{
							"internalType": "uint256",
							"name": "needed",
							"type": "uint256"
						}
					],
					"name": "ERC20InsufficientAllowance",
					"type": "error"
				},
				{
					"inputs": [
						{
							"internalType": "address",
							"name": "sender",
							"type": "address"
						},
						{
							"internalType": "uint256",
							"name": "balance",
							"type": "uint256"
						},
						{
							"internalType": "uint256",
							"name": "needed",
							"type": "uint256"
						}
					],
					"name": "ERC20InsufficientBalance",
					"type": "error"
				},
				{
					"inputs": [
						{
							"internalType": "address",
							"name": "approver",
							"type": "address"
						}
					],
					"name": "ERC20InvalidApprover",
					"type": "error"
				},
				{
					"inputs": [
						{
							"internalType": "address",
							"name": "receiver",
							"type": "address"
						}
					],
					"name": "ERC20InvalidReceiver",
					"type": "error"
				},
				{
					"inputs": [
						{
							"internalType": "address",
							"name": "sender",
							"type": "address"
						}
					],
					"name": "ERC20InvalidSender",
					"type": "error"
				},
				{
					"inputs": [
						{
							"internalType": "address",
							"name": "spender",
							"type": "address"
						}
					],
					"name": "ERC20InvalidSpender",
					"type": "error"
				},
				{
					"inputs": [],
					"name": "FailedInnerCall",
					"type": "error"
				},
				{
					"inputs": [
						{
							"internalType": "address",
							"name": "owner",
							"type": "address"
						}
					],
					"name": "OwnableInvalidOwner",
					"type": "error"
				},
				{
					"inputs": [
						{
							"internalType": "address",
							"name": "account",
							"type": "address"
						}
					],
					"name": "OwnableUnauthorizedAccount",
					"type": "error"
				},
				{
					"inputs": [
						{
							"internalType": "address",
							"name": "token",
							"type": "address"
						}
					],
					"name": "SafeERC20FailedOperation",
					"type": "error"
				},
				{
					"anonymous": false,
					"inputs": [
						{
							"indexed": true,
							"internalType": "address",
							"name": "owner",
							"type": "address"
						},
						{
							"indexed": true,
							"internalType": "address",
							"name": "spender",
							"type": "address"
						},
						{
							"indexed": false,
							"internalType": "uint256",
							"name": "value",
							"type": "uint256"
						}
					],
					"name": "Approval",
					"type": "event"
				},
				{
					"anonymous": false,
					"inputs": [
						{
							"indexed": true,
							"internalType": "address",
							"name": "previousOwner",
							"type": "address"
						},
						{
							"indexed": true,
							"internalType": "address",
							"name": "newOwner",
							"type": "address"
						}
					],
					"name": "OwnershipTransferred",
					"type": "event"
				},
				{
					"anonymous": false,
					"inputs": [
						{
							"indexed": false,
							"internalType": "address",
							"name": "account",
							"type": "address"
						}
					],
					"name": "Paused",
					"type": "event"
				},
				{
					"anonymous": false,
					"inputs": [
						{
							"indexed": true,
							"internalType": "address",
							"name": "from",
							"type": "address"
						},
						{
							"indexed": true,
							"internalType": "address",
							"name": "to",
							"type": "address"
						},
						{
							"indexed": false,
							"internalType": "uint256",
							"name": "value",
							"type": "uint256"
						}
					],
					"name": "Transfer",
					"type": "event"
				},
				{
					"anonymous": false,
					"inputs": [
						{
							"indexed": false,
							"internalType": "address",
							"name": "account",
							"type": "address"
						}
					],
					"name": "Unpaused",
					"type": "event"
				},
				{
					"inputs": [
						{
							"internalType": "uint256",
							"name": "_amount",
							"type": "uint256"
						}
					],
					"name": "AdminAddToken",
					"outputs": [],
					"stateMutability": "nonpayable",
					"type": "function"
				},
				{
					"inputs": [
						{
							"internalType": "address",
							"name": "owner",
							"type": "address"
						},
						{
							"internalType": "uint256",
							"name": "_amount",
							"type": "uint256"
						}
					],
					"name": "Claim",
					"outputs": [],
					"stateMutability": "nonpayable",
					"type": "function"
				},
				{
					"inputs": [],
					"name": "IsClaim",
					"outputs": [
						{
							"internalType": "bool",
							"name": "",
							"type": "bool"
						}
					],
					"stateMutability": "view",
					"type": "function"
				},
				{
					"inputs": [
						{
							"internalType": "address",
							"name": "",
							"type": "address"
						}
					],
					"name": "NumberOfBuying",
					"outputs": [
						{
							"internalType": "uint256",
							"name": "",
							"type": "uint256"
						}
					],
					"stateMutability": "view",
					"type": "function"
				},
				{
					"inputs": [
						{
							"internalType": "address",
							"name": "",
							"type": "address"
						},
						{
							"internalType": "uint256",
							"name": "",
							"type": "uint256"
						}
					],
					"name": "TokenRecord",
					"outputs": [
						{
							"internalType": "address",
							"name": "user",
							"type": "address"
						},
						{
							"internalType": "uint256",
							"name": "amount",
							"type": "uint256"
						},
						{
							"internalType": "uint256",
							"name": "currency",
							"type": "uint256"
						},
						{
							"internalType": "uint256",
							"name": "cost",
							"type": "uint256"
						},
						{
							"internalType": "bool",
							"name": "claim",
							"type": "bool"
						},
						{
							"internalType": "enum TimeVillageToken.currency",
							"name": "choice",
							"type": "uint8"
						}
					],
					"stateMutability": "view",
					"type": "function"
				},
				{
					"inputs": [
						{
							"internalType": "address",
							"name": "",
							"type": "address"
						},
						{
							"internalType": "address",
							"name": "",
							"type": "address"
						}
					],
					"name": "TokenRecords",
					"outputs": [
						{
							"internalType": "uint256",
							"name": "price",
							"type": "uint256"
						},
						{
							"internalType": "uint256",
							"name": "amount",
							"type": "uint256"
						},
						{
							"internalType": "uint256",
							"name": "time",
							"type": "uint256"
						},
						{
							"internalType": "address",
							"name": "user",
							"type": "address"
						},
						{
							"internalType": "address",
							"name": "contractAddress",
							"type": "address"
						}
					],
					"stateMutability": "view",
					"type": "function"
				},
				{
					"inputs": [
						{
							"internalType": "address",
							"name": "owner",
							"type": "address"
						},
						{
							"internalType": "address",
							"name": "spender",
							"type": "address"
						}
					],
					"name": "allowance",
					"outputs": [
						{
							"internalType": "uint256",
							"name": "",
							"type": "uint256"
						}
					],
					"stateMutability": "view",
					"type": "function"
				},
				{
					"inputs": [
						{
							"internalType": "address",
							"name": "spender",
							"type": "address"
						},
						{
							"internalType": "uint256",
							"name": "value",
							"type": "uint256"
						}
					],
					"name": "approve",
					"outputs": [
						{
							"internalType": "bool",
							"name": "",
							"type": "bool"
						}
					],
					"stateMutability": "nonpayable",
					"type": "function"
				},
				{
					"inputs": [
						{
							"internalType": "address",
							"name": "account",
							"type": "address"
						}
					],
					"name": "balanceOf",
					"outputs": [
						{
							"internalType": "uint256",
							"name": "",
							"type": "uint256"
						}
					],
					"stateMutability": "view",
					"type": "function"
				},
				{
					"inputs": [
						{
							"internalType": "uint256",
							"name": "value",
							"type": "uint256"
						}
					],
					"name": "burn",
					"outputs": [],
					"stateMutability": "nonpayable",
					"type": "function"
				},
				{
					"inputs": [
						{
							"internalType": "address",
							"name": "account",
							"type": "address"
						},
						{
							"internalType": "uint256",
							"name": "value",
							"type": "uint256"
						}
					],
					"name": "burnFrom",
					"outputs": [],
					"stateMutability": "nonpayable",
					"type": "function"
				},
				{
					"inputs": [
						{
							"internalType": "uint256",
							"name": "_amount",
							"type": "uint256"
						},
						{
							"internalType": "enum TimeVillageToken.currency",
							"name": "choice",
							"type": "uint8"
						}
					],
					"name": "buyTokens",
					"outputs": [],
					"stateMutability": "nonpayable",
					"type": "function"
				},
				{
					"inputs": [],
					"name": "decimals",
					"outputs": [
						{
							"internalType": "uint8",
							"name": "",
							"type": "uint8"
						}
					],
					"stateMutability": "view",
					"type": "function"
				},
				{
					"inputs": [],
					"name": "name",
					"outputs": [
						{
							"internalType": "string",
							"name": "",
							"type": "string"
						}
					],
					"stateMutability": "view",
					"type": "function"
				},
				{
					"inputs": [],
					"name": "owner",
					"outputs": [
						{
							"internalType": "address",
							"name": "",
							"type": "address"
						}
					],
					"stateMutability": "view",
					"type": "function"
				},
				{
					"inputs": [],
					"name": "pause",
					"outputs": [],
					"stateMutability": "nonpayable",
					"type": "function"
				},
				{
					"inputs": [],
					"name": "paused",
					"outputs": [
						{
							"internalType": "bool",
							"name": "",
							"type": "bool"
						}
					],
					"stateMutability": "view",
					"type": "function"
				},
				{
					"inputs": [],
					"name": "priceFeed",
					"outputs": [
						{
							"internalType": "contract AggregatorV3Interface",
							"name": "",
							"type": "address"
						}
					],
					"stateMutability": "view",
					"type": "function"
				},
				{
					"inputs": [],
					"name": "renounceOwnership",
					"outputs": [],
					"stateMutability": "nonpayable",
					"type": "function"
				},
				{
					"inputs": [],
					"name": "symbol",
					"outputs": [
						{
							"internalType": "string",
							"name": "",
							"type": "string"
						}
					],
					"stateMutability": "view",
					"type": "function"
				},
				{
					"inputs": [],
					"name": "totalSupply",
					"outputs": [
						{
							"internalType": "uint256",
							"name": "",
							"type": "uint256"
						}
					],
					"stateMutability": "view",
					"type": "function"
				},
				{
					"inputs": [
						{
							"internalType": "address",
							"name": "to",
							"type": "address"
						},
						{
							"internalType": "uint256",
							"name": "value",
							"type": "uint256"
						}
					],
					"name": "transfer",
					"outputs": [
						{
							"internalType": "bool",
							"name": "",
							"type": "bool"
						}
					],
					"stateMutability": "nonpayable",
					"type": "function"
				},
				{
					"inputs": [
						{
							"internalType": "address",
							"name": "from",
							"type": "address"
						},
						{
							"internalType": "address",
							"name": "to",
							"type": "address"
						},
						{
							"internalType": "uint256",
							"name": "value",
							"type": "uint256"
						}
					],
					"name": "transferFrom",
					"outputs": [
						{
							"internalType": "bool",
							"name": "",
							"type": "bool"
						}
					],
					"stateMutability": "nonpayable",
					"type": "function"
				},
				{
					"inputs": [
						{
							"internalType": "address",
							"name": "newOwner",
							"type": "address"
						}
					],
					"name": "transferOwnership",
					"outputs": [],
					"stateMutability": "nonpayable",
					"type": "function"
				},
				{
					"inputs": [],
					"name": "unpause",
					"outputs": [],
					"stateMutability": "nonpayable",
					"type": "function"
				}
			],
			"devdoc": {
				"errors": {
					"AddressEmptyCode(address)": [
						{
							"details": "There's no code at `target` (it is not a contract)."
						}
					],
					"AddressInsufficientBalance(address)": [
						{
							"details": "The ETH balance of the account is not enough to perform the operation."
						}
					],
					"ERC20InsufficientAllowance(address,uint256,uint256)": [
						{
							"details": "Indicates a failure with the `spender`s `allowance`. Used in transfers.",
							"params": {
								"allowance": "Amount of tokens a `spender` is allowed to operate with.",
								"needed": "Minimum amount required to perform a transfer.",
								"spender": "Address that may be allowed to operate on tokens without being their owner."
							}
						}
					],
					"ERC20InsufficientBalance(address,uint256,uint256)": [
						{
							"details": "Indicates an error related to the current `balance` of a `sender`. Used in transfers.",
							"params": {
								"balance": "Current balance for the interacting account.",
								"needed": "Minimum amount required to perform a transfer.",
								"sender": "Address whose tokens are being transferred."
							}
						}
					],
					"ERC20InvalidApprover(address)": [
						{
							"details": "Indicates a failure with the `approver` of a token to be approved. Used in approvals.",
							"params": {
								"approver": "Address initiating an approval operation."
							}
						}
					],
					"ERC20InvalidReceiver(address)": [
						{
							"details": "Indicates a failure with the token `receiver`. Used in transfers.",
							"params": {
								"receiver": "Address to which tokens are being transferred."
							}
						}
					],
					"ERC20InvalidSender(address)": [
						{
							"details": "Indicates a failure with the token `sender`. Used in transfers.",
							"params": {
								"sender": "Address whose tokens are being transferred."
							}
						}
					],
					"ERC20InvalidSpender(address)": [
						{
							"details": "Indicates a failure with the `spender` to be approved. Used in approvals.",
							"params": {
								"spender": "Address that may be allowed to operate on tokens without being their owner."
							}
						}
					],
					"FailedInnerCall()": [
						{
							"details": "A call to an address target failed. The target may have reverted."
						}
					],
					"OwnableInvalidOwner(address)": [
						{
							"details": "The owner is not a valid owner account. (eg. `address(0)`)"
						}
					],
					"OwnableUnauthorizedAccount(address)": [
						{
							"details": "The caller account is not authorized to perform an operation."
						}
					],
					"SafeERC20FailedOperation(address)": [
						{
							"details": "An operation with an ERC20 token failed."
						}
					]
				},
				"events": {
					"Approval(address,address,uint256)": {
						"details": "Emitted when the allowance of a `spender` for an `owner` is set by a call to {approve}. `value` is the new allowance."
					},
					"Paused(address)": {
						"details": "Emitted when the pause is triggered by `account`."
					},
					"Transfer(address,address,uint256)": {
						"details": "Emitted when `value` tokens are moved from one account (`from`) to another (`to`). Note that `value` may be zero."
					},
					"Unpaused(address)": {
						"details": "Emitted when the pause is lifted by `account`."
					}
				},
				"kind": "dev",
				"methods": {
					"allowance(address,address)": {
						"details": "See {IERC20-allowance}."
					},
					"approve(address,uint256)": {
						"details": "See {IERC20-approve}. NOTE: If `value` is the maximum `uint256`, the allowance is not updated on `transferFrom`. This is semantically equivalent to an infinite approval. Requirements: - `spender` cannot be the zero address."
					},
					"balanceOf(address)": {
						"details": "See {IERC20-balanceOf}."
					},
					"burn(uint256)": {
						"details": "Destroys a `value` amount of tokens from the caller. See {ERC20-_burn}."
					},
					"burnFrom(address,uint256)": {
						"details": "Destroys a `value` amount of tokens from `account`, deducting from the caller's allowance. See {ERC20-_burn} and {ERC20-allowance}. Requirements: - the caller must have allowance for ``accounts``'s tokens of at least `value`."
					},
					"decimals()": {
						"details": "Returns the number of decimals used to get its user representation. For example, if `decimals` equals `2`, a balance of `505` tokens should be displayed to a user as `5.05` (`505 / 10 ** 2`). Tokens usually opt for a value of 18, imitating the relationship between Ether and Wei. This is the default value returned by this function, unless it's overridden. NOTE: This information is only used for _display_ purposes: it in no way affects any of the arithmetic of the contract, including {IERC20-balanceOf} and {IERC20-transfer}."
					},
					"name()": {
						"details": "Returns the name of the token."
					},
					"owner()": {
						"details": "Returns the address of the current owner."
					},
					"paused()": {
						"details": "Returns true if the contract is paused, and false otherwise."
					},
					"renounceOwnership()": {
						"details": "Leaves the contract without owner. It will not be possible to call `onlyOwner` functions. Can only be called by the current owner. NOTE: Renouncing ownership will leave the contract without an owner, thereby disabling any functionality that is only available to the owner."
					},
					"symbol()": {
						"details": "Returns the symbol of the token, usually a shorter version of the name."
					},
					"totalSupply()": {
						"details": "See {IERC20-totalSupply}."
					},
					"transfer(address,uint256)": {
						"details": "See {IERC20-transfer}. Requirements: - `to` cannot be the zero address. - the caller must have a balance of at least `value`."
					},
					"transferFrom(address,address,uint256)": {
						"details": "See {IERC20-transferFrom}. Emits an {Approval} event indicating the updated allowance. This is not required by the EIP. See the note at the beginning of {ERC20}. NOTE: Does not update the allowance if the current allowance is the maximum `uint256`. Requirements: - `from` and `to` cannot be the zero address. - `from` must have a balance of at least `value`. - the caller must have allowance for ``from``'s tokens of at least `value`."
					},
					"transferOwnership(address)": {
						"details": "Transfers ownership of the contract to a new account (`newOwner`). Can only be called by the current owner."
					}
				},
				"version": 1
			},
			"evm": {
				"assembly": "    /* \"contracts/fatcat 5aug (1)/contracts/fatcat 5aug/preSale.sol\":558:3804  contract TimeVillageToken is ERC20, ERC20Burnable, Pausable, Ownable,ReentrancyGuard {... */\n  mstore(0x40, 0xa0)\n    /* \"contracts/fatcat 5aug (1)/contracts/fatcat 5aug/preSale.sol\":1525:1819  constructor(address _UsdcContract, address ownerAddress) ERC20(\"Time Village Token\", \"TVT\") Ownable(ownerAddress){... */\n  callvalue\n  dup1\n  iszero\n  tag_1\n  jumpi\n  0x00\n  dup1\n  revert\ntag_1:\n  pop\n  mload(0x40)\n  sub(codesize, bytecodeSize)\n  dup1\n  bytecodeSize\n  dup4\n  codecopy\n  dup2\n  add\n  0x40\n  dup2\n  swap1\n  mstore\n  tag_2\n  swap2\n  tag_3\n  jump\t// in\ntag_2:\n    /* \"contracts/fatcat 5aug (1)/contracts/fatcat 5aug/preSale.sol\":1625:1637  ownerAddress */\n  dup1\n    /* \"@openzeppelin/contracts/token/ERC20/ERC20.sol\":1896:2009  constructor(string memory name_, string memory symbol_) {... */\n  mload(0x40)\n  dup1\n  0x40\n  add\n  0x40\n  mstore\n  dup1\n  0x12\n  dup2\n  mstore\n  0x20\n  add\n  shl(0x71, 0x2a34b6b2902b34b63630b3b2902a37b5b2b7)\n  dup2\n  mstore\n  pop\n  mload(0x40)\n  dup1\n  0x40\n  add\n  0x40\n  mstore\n  dup1\n  0x03\n  dup2\n  mstore\n  0x20\n  add\n  shl(0xea, 0x151595)\n  dup2\n  mstore\n  pop\n    /* \"@openzeppelin/contracts/token/ERC20/ERC20.sol\":1970:1975  name_ */\n  dup2\n    /* \"@openzeppelin/contracts/token/ERC20/ERC20.sol\":1962:1967  _name */\n  0x03\n    /* \"@openzeppelin/contracts/token/ERC20/ERC20.sol\":1962:1975  _name = name_ */\n  swap1\n  dup2\n  tag_10\n  swap2\n  swap1\n  tag_11\n  jump\t// in\ntag_10:\n  pop\n    /* \"@openzeppelin/contracts/token/ERC20/ERC20.sol\":1985:1992  _symbol */\n  0x04\n    /* \"@openzeppelin/contracts/token/ERC20/ERC20.sol\":1985:2002  _symbol = symbol_ */\n  tag_12\n    /* \"@openzeppelin/contracts/token/ERC20/ERC20.sol\":1995:2002  symbol_ */\n  dup3\n    /* \"@openzeppelin/contracts/token/ERC20/ERC20.sol\":1985:1992  _symbol */\n  dup3\n    /* \"@openzeppelin/contracts/token/ERC20/ERC20.sol\":1985:2002  _symbol = symbol_ */\n  tag_11\n  jump\t// in\ntag_12:\n  pop\n  pop\n    /* \"@openzeppelin/contracts/security/Pausable.sol\":996:1003  _paused */\n  0x05\n    /* \"@openzeppelin/contracts/security/Pausable.sol\":996:1011  _paused = false */\n  dup1\n  sload\n  not(0xff)\n  and\n  swap1\n  sstore\n  pop\n  sub(shl(0xa0, 0x01), 0x01)\n    /* \"@openzeppelin/contracts/access/Ownable.sol\":1273:1299  initialOwner == address(0) */\n  dup2\n  and\n    /* \"@openzeppelin/contracts/access/Ownable.sol\":1269:1364  if (initialOwner == address(0)) {... */\n  tag_15\n  jumpi\n    /* \"@openzeppelin/contracts/access/Ownable.sol\":1322:1353  OwnableInvalidOwner(address(0)) */\n  mload(0x40)\n  shl(0xe0, 0x1e4fbdf7)\n  dup2\n  mstore\n    /* \"@openzeppelin/contracts/access/Ownable.sol\":1350:1351  0 */\n  0x00\n    /* \"@openzeppelin/contracts/access/Ownable.sol\":1322:1353  OwnableInvalidOwner(address(0)) */\n  0x04\n  dup3\n  add\n    /* \"#utility.yul\":3281:3332   */\n  mstore\n    /* \"#utility.yul\":3254:3272   */\n  0x24\n  add\n    /* \"@openzeppelin/contracts/access/Ownable.sol\":1322:1353  OwnableInvalidOwner(address(0)) */\ntag_16:\n  mload(0x40)\n  dup1\n  swap2\n  sub\n  swap1\n  revert\n    /* \"@openzeppelin/contracts/access/Ownable.sol\":1269:1364  if (initialOwner == address(0)) {... */\ntag_15:\n    /* \"@openzeppelin/contracts/access/Ownable.sol\":1373:1405  _transferOwnership(initialOwner) */\n  tag_18\n    /* \"@openzeppelin/contracts/access/Ownable.sol\":1392:1404  initialOwner */\n  dup2\n    /* \"@openzeppelin/contracts/access/Ownable.sol\":1373:1391  _transferOwnership */\n  tag_19\n    /* \"@openzeppelin/contracts/access/Ownable.sol\":1373:1405  _transferOwnership(initialOwner) */\n  jump\t// in\ntag_18:\n  pop\n    /* \"@openzeppelin/contracts/security/ReentrancyGuard.sol\":1716:1717  1 */\n  0x01\n    /* \"@openzeppelin/contracts/security/ReentrancyGuard.sol\":1821:1828  _status */\n  0x06\n    /* \"@openzeppelin/contracts/security/ReentrancyGuard.sol\":1821:1843  _status = _NOT_ENTERED */\n  sstore\n    /* \"contracts/fatcat 5aug (1)/contracts/fatcat 5aug/preSale.sol\":1644:1692  _mint(msg.sender, 2500000000 * 10 ** decimals()) */\n  tag_22\n    /* \"contracts/fatcat 5aug (1)/contracts/fatcat 5aug/preSale.sol\":1650:1660  msg.sender */\n  caller\n    /* \"contracts/fatcat 5aug (1)/contracts/fatcat 5aug/preSale.sol\":1675:1691  10 ** decimals() */\n  tag_25\n    /* \"@openzeppelin/contracts/token/ERC20/ERC20.sol\":3075:3077  18 */\n  0x12\n    /* \"contracts/fatcat 5aug (1)/contracts/fatcat 5aug/preSale.sol\":1675:1677  10 */\n  0x0a\n    /* \"contracts/fatcat 5aug (1)/contracts/fatcat 5aug/preSale.sol\":1675:1691  10 ** decimals() */\n  tag_26\n  jump\t// in\ntag_25:\n    /* \"contracts/fatcat 5aug (1)/contracts/fatcat 5aug/preSale.sol\":1662:1691  2500000000 * 10 ** decimals() */\n  tag_27\n  swap1\n    /* \"contracts/fatcat 5aug (1)/contracts/fatcat 5aug/preSale.sol\":1662:1672  2500000000 */\n  0x9502f900\n    /* \"contracts/fatcat 5aug (1)/contracts/fatcat 5aug/preSale.sol\":1662:1691  2500000000 * 10 ** decimals() */\n  tag_28\n  jump\t// in\ntag_27:\n    /* \"contracts/fatcat 5aug (1)/contracts/fatcat 5aug/preSale.sol\":1644:1649  _mint */\n  tag_29\n    /* \"contracts/fatcat 5aug (1)/contracts/fatcat 5aug/preSale.sol\":1644:1692  _mint(msg.sender, 2500000000 * 10 ** decimals()) */\n  jump\t// in\ntag_22:\n  pop\n  sub(shl(0xa0, 0x01), 0x01)\n    /* \"contracts/fatcat 5aug (1)/contracts/fatcat 5aug/preSale.sol\":1784:1812  UsdcContract = _UsdcContract */\n  and\n  0x80\n  mstore\n    /* \"contracts/fatcat 5aug (1)/contracts/fatcat 5aug/preSale.sol\":558:3804  contract TimeVillageToken is ERC20, ERC20Burnable, Pausable, Ownable,ReentrancyGuard {... */\n  jump(tag_59)\n    /* \"@openzeppelin/contracts/access/Ownable.sol\":2912:3099  function _transferOwnership(address newOwner) internal virtual {... */\ntag_19:\n    /* \"@openzeppelin/contracts/access/Ownable.sol\":3004:3010  _owner */\n  0x05\n  dup1\n  sload\n  sub(shl(0xa0, 0x01), 0x01)\n    /* \"@openzeppelin/contracts/access/Ownable.sol\":3020:3037  _owner = newOwner */\n  dup4\n  dup2\n  and\n    /* \"@openzeppelin/contracts/access/Ownable.sol\":3004:3010  _owner */\n  0x0100\n    /* \"@openzeppelin/contracts/access/Ownable.sol\":3020:3037  _owner = newOwner */\n  dup2\n  dup2\n  mul\n  not(sub(shl(0xa8, 0x01), 0x0100))\n  dup6\n  and\n  or\n  swap1\n  swap5\n  sstore\n    /* \"@openzeppelin/contracts/access/Ownable.sol\":3052:3092  OwnershipTransferred(oldOwner, newOwner) */\n  mload(0x40)\n    /* \"@openzeppelin/contracts/access/Ownable.sol\":3004:3010  _owner */\n  swap4\n  swap1\n  swap3\n  div\n  and\n  swap2\n  dup3\n  swap1\n    /* \"@openzeppelin/contracts/access/Ownable.sol\":3052:3092  OwnershipTransferred(oldOwner, newOwner) */\n  0x8be0079c531659141344cd1fd0a4f28419497f9722a3daafe3b4186f6b6457e0\n  swap1\n    /* \"@openzeppelin/contracts/access/Ownable.sol\":2985:3001  address oldOwner */\n  0x00\n  swap1\n    /* \"@openzeppelin/contracts/access/Ownable.sol\":3052:3092  OwnershipTransferred(oldOwner, newOwner) */\n  log3\n    /* \"@openzeppelin/contracts/access/Ownable.sol\":2975:3099  {... */\n  pop\n    /* \"@openzeppelin/contracts/access/Ownable.sol\":2912:3099  function _transferOwnership(address newOwner) internal virtual {... */\n  pop\n  jump\t// out\n    /* \"@openzeppelin/contracts/token/ERC20/ERC20.sol\":7721:7929  function _mint(address account, uint256 value) internal {... */\ntag_29:\n  sub(shl(0xa0, 0x01), 0x01)\n    /* \"@openzeppelin/contracts/token/ERC20/ERC20.sol\":7791:7812  account == address(0) */\n  dup3\n  and\n    /* \"@openzeppelin/contracts/token/ERC20/ERC20.sol\":7787:7878  if (account == address(0)) {... */\n  tag_34\n  jumpi\n    /* \"@openzeppelin/contracts/token/ERC20/ERC20.sol\":7835:7867  ERC20InvalidReceiver(address(0)) */\n  mload(0x40)\n  shl(0xe0, 0xec442f05)\n  dup2\n  mstore\n    /* \"@openzeppelin/contracts/token/ERC20/ERC20.sol\":7864:7865  0 */\n  0x00\n    /* \"@openzeppelin/contracts/token/ERC20/ERC20.sol\":7835:7867  ERC20InvalidReceiver(address(0)) */\n  0x04\n  dup3\n  add\n    /* \"#utility.yul\":3281:3332   */\n  mstore\n    /* \"#utility.yul\":3254:3272   */\n  0x24\n  add\n    /* \"@openzeppelin/contracts/token/ERC20/ERC20.sol\":7835:7867  ERC20InvalidReceiver(address(0)) */\n  tag_16\n    /* \"#utility.yul\":3135:3338   */\n  jump\n    /* \"@openzeppelin/contracts/token/ERC20/ERC20.sol\":7787:7878  if (account == address(0)) {... */\ntag_34:\n    /* \"@openzeppelin/contracts/token/ERC20/ERC20.sol\":7887:7922  _update(address(0), account, value) */\n  tag_36\n    /* \"@openzeppelin/contracts/token/ERC20/ERC20.sol\":7903:7904  0 */\n  0x00\n    /* \"@openzeppelin/contracts/token/ERC20/ERC20.sol\":7907:7914  account */\n  dup4\n    /* \"@openzeppelin/contracts/token/ERC20/ERC20.sol\":7916:7921  value */\n  dup4\n    /* \"@openzeppelin/contracts/token/ERC20/ERC20.sol\":7887:7894  _update */\n  tag_37\n    /* \"@openzeppelin/contracts/token/ERC20/ERC20.sol\":7887:7922  _update(address(0), account, value) */\n  jump\t// in\ntag_36:\n    /* \"@openzeppelin/contracts/token/ERC20/ERC20.sol\":7721:7929  function _mint(address account, uint256 value) internal {... */\n  pop\n  pop\n  jump\t// out\n    /* \"@openzeppelin/contracts/token/ERC20/ERC20.sol\":6271:7378  function _update(address from, address to, uint256 value) internal virtual {... */\ntag_37:\n  sub(shl(0xa0, 0x01), 0x01)\n    /* \"@openzeppelin/contracts/token/ERC20/ERC20.sol\":6360:6378  from == address(0) */\n  dup4\n  and\n    /* \"@openzeppelin/contracts/token/ERC20/ERC20.sol\":6356:6896  if (from == address(0)) {... */\n  tag_39\n  jumpi\n    /* \"@openzeppelin/contracts/token/ERC20/ERC20.sol\":6512:6517  value */\n  dup1\n    /* \"@openzeppelin/contracts/token/ERC20/ERC20.sol\":6496:6508  _totalSupply */\n  0x02\n  0x00\n    /* \"@openzeppelin/contracts/token/ERC20/ERC20.sol\":6496:6517  _totalSupply += value */\n  dup3\n  dup3\n  sload\n  tag_40\n  swap2\n  swap1\n  tag_41\n  jump\t// in\ntag_40:\n  swap1\n  swap2\n  sstore\n  pop\n    /* \"@openzeppelin/contracts/token/ERC20/ERC20.sol\":6356:6896  if (from == address(0)) {... */\n  tag_42\n  swap1\n  pop\n  jump\ntag_39:\n  sub(shl(0xa0, 0x01), 0x01)\n    /* \"@openzeppelin/contracts/token/ERC20/ERC20.sol\":6570:6585  _balances[from] */\n  dup4\n  and\n    /* \"@openzeppelin/contracts/token/ERC20/ERC20.sol\":6548:6567  uint256 fromBalance */\n  0x00\n    /* \"@openzeppelin/contracts/token/ERC20/ERC20.sol\":6570:6585  _balances[from] */\n  swap1\n  dup2\n  mstore\n  0x20\n  dup2\n  swap1\n  mstore\n  0x40\n  swap1\n  keccak256\n  sload\n    /* \"@openzeppelin/contracts/token/ERC20/ERC20.sol\":6603:6622  fromBalance < value */\n  dup2\n  dup2\n  lt\n    /* \"@openzeppelin/contracts/token/ERC20/ERC20.sol\":6599:6714  if (fromBalance < value) {... */\n  iszero\n  tag_43\n  jumpi\n    /* \"@openzeppelin/contracts/token/ERC20/ERC20.sol\":6649:6699  ERC20InsufficientBalance(from, fromBalance, value) */\n  mload(0x40)\n  shl(0xe2, 0x391434e3)\n  dup2\n  mstore\n  sub(shl(0xa0, 0x01), 0x01)\n    /* \"#utility.yul\":5430:5462   */\n  dup6\n  and\n    /* \"@openzeppelin/contracts/token/ERC20/ERC20.sol\":6649:6699  ERC20InsufficientBalance(from, fromBalance, value) */\n  0x04\n  dup3\n  add\n    /* \"#utility.yul\":5412:5463   */\n  mstore\n    /* \"#utility.yul\":5479:5497   */\n  0x24\n  dup2\n  add\n    /* \"#utility.yul\":5472:5506   */\n  dup3\n  swap1\n  mstore\n    /* \"#utility.yul\":5522:5540   */\n  0x44\n  dup2\n  add\n    /* \"#utility.yul\":5515:5549   */\n  dup4\n  swap1\n  mstore\n    /* \"#utility.yul\":5385:5403   */\n  0x64\n  add\n    /* \"@openzeppelin/contracts/token/ERC20/ERC20.sol\":6649:6699  ERC20InsufficientBalance(from, fromBalance, value) */\n  tag_16\n    /* \"#utility.yul\":5210:5555   */\n  jump\n    /* \"@openzeppelin/contracts/token/ERC20/ERC20.sol\":6599:6714  if (fromBalance < value) {... */\ntag_43:\n  sub(shl(0xa0, 0x01), 0x01)\n    /* \"@openzeppelin/contracts/token/ERC20/ERC20.sol\":6834:6849  _balances[from] */\n  dup5\n  and\n    /* \"@openzeppelin/contracts/token/ERC20/ERC20.sol\":6834:6843  _balances */\n  0x00\n    /* \"@openzeppelin/contracts/token/ERC20/ERC20.sol\":6834:6849  _balances[from] */\n  swap1\n  dup2\n  mstore\n  0x20\n  dup2\n  swap1\n  mstore\n  0x40\n  swap1\n  keccak256\n    /* \"@openzeppelin/contracts/token/ERC20/ERC20.sol\":6852:6871  fromBalance - value */\n  swap1\n  dup3\n  swap1\n  sub\n    /* \"@openzeppelin/contracts/token/ERC20/ERC20.sol\":6834:6871  _balances[from] = fromBalance - value */\n  swap1\n  sstore\n    /* \"@openzeppelin/contracts/token/ERC20/ERC20.sol\":6356:6896  if (from == address(0)) {... */\ntag_42:\n  sub(shl(0xa0, 0x01), 0x01)\n    /* \"@openzeppelin/contracts/token/ERC20/ERC20.sol\":6910:6926  to == address(0) */\n  dup3\n  and\n    /* \"@openzeppelin/contracts/token/ERC20/ERC20.sol\":6906:7331  if (to == address(0)) {... */\n  tag_46\n  jumpi\n    /* \"@openzeppelin/contracts/token/ERC20/ERC20.sol\":7073:7085  _totalSupply */\n  0x02\n    /* \"@openzeppelin/contracts/token/ERC20/ERC20.sol\":7073:7094  _totalSupply -= value */\n  dup1\n  sload\n  dup3\n  swap1\n  sub\n  swap1\n  sstore\n    /* \"@openzeppelin/contracts/token/ERC20/ERC20.sol\":6906:7331  if (to == address(0)) {... */\n  jump(tag_47)\ntag_46:\n  sub(shl(0xa0, 0x01), 0x01)\n    /* \"@openzeppelin/contracts/token/ERC20/ERC20.sol\":7284:7297  _balances[to] */\n  dup3\n  and\n    /* \"@openzeppelin/contracts/token/ERC20/ERC20.sol\":7284:7293  _balances */\n  0x00\n    /* \"@openzeppelin/contracts/token/ERC20/ERC20.sol\":7284:7297  _balances[to] */\n  swap1\n  dup2\n  mstore\n  0x20\n  dup2\n  swap1\n  mstore\n  0x40\n  swap1\n  keccak256\n    /* \"@openzeppelin/contracts/token/ERC20/ERC20.sol\":7284:7306  _balances[to] += value */\n  dup1\n  sload\n  dup3\n  add\n  swap1\n  sstore\n    /* \"@openzeppelin/contracts/token/ERC20/ERC20.sol\":6906:7331  if (to == address(0)) {... */\ntag_47:\n    /* \"@openzeppelin/contracts/token/ERC20/ERC20.sol\":7361:7363  to */\n  dup2\n  sub(shl(0xa0, 0x01), 0x01)\n    /* \"@openzeppelin/contracts/token/ERC20/ERC20.sol\":7346:7371  Transfer(from, to, value) */\n  and\n    /* \"@openzeppelin/contracts/token/ERC20/ERC20.sol\":7355:7359  from */\n  dup4\n  sub(shl(0xa0, 0x01), 0x01)\n    /* \"@openzeppelin/contracts/token/ERC20/ERC20.sol\":7346:7371  Transfer(from, to, value) */\n  and\n  0xddf252ad1be2c89b69c2b068fc378daa952ba7f163c4a11628f55a4df523b3ef\n    /* \"@openzeppelin/contracts/token/ERC20/ERC20.sol\":7365:7370  value */\n  dup4\n    /* \"@openzeppelin/contracts/token/ERC20/ERC20.sol\":7346:7371  Transfer(from, to, value) */\n  mload(0x40)\n  tag_48\n  swap2\n    /* \"#utility.yul\":5706:5731   */\n  dup2\n  mstore\n    /* \"#utility.yul\":5694:5696   */\n  0x20\n    /* \"#utility.yul\":5679:5697   */\n  add\n  swap1\n    /* \"#utility.yul\":5560:5737   */\n  jump\n    /* \"@openzeppelin/contracts/token/ERC20/ERC20.sol\":7346:7371  Transfer(from, to, value) */\ntag_48:\n  mload(0x40)\n  dup1\n  swap2\n  sub\n  swap1\n  log3\n    /* \"@openzeppelin/contracts/token/ERC20/ERC20.sol\":6271:7378  function _update(address from, address to, uint256 value) internal virtual {... */\n  pop\n  pop\n  pop\n  jump\t// out\n    /* \"#utility.yul\":14:191   */\ntag_50:\n    /* \"#utility.yul\":93:106   */\n  dup1\n  mload\n  sub(shl(0xa0, 0x01), 0x01)\n    /* \"#utility.yul\":135:166   */\n  dup2\n  and\n    /* \"#utility.yul\":125:167   */\n  dup2\n  eq\n    /* \"#utility.yul\":115:185   */\n  tag_61\n  jumpi\n    /* \"#utility.yul\":181:182   */\n  0x00\n    /* \"#utility.yul\":178:179   */\n  dup1\n    /* \"#utility.yul\":171:183   */\n  revert\n    /* \"#utility.yul\":115:185   */\ntag_61:\n    /* \"#utility.yul\":14:191   */\n  swap2\n  swap1\n  pop\n  jump\t// out\n    /* \"#utility.yul\":196:489   */\ntag_3:\n    /* \"#utility.yul\":275:281   */\n  0x00\n    /* \"#utility.yul\":283:289   */\n  dup1\n    /* \"#utility.yul\":336:338   */\n  0x40\n    /* \"#utility.yul\":324:333   */\n  dup4\n    /* \"#utility.yul\":315:322   */\n  dup6\n    /* \"#utility.yul\":311:334   */\n  sub\n    /* \"#utility.yul\":307:339   */\n  slt\n    /* \"#utility.yul\":304:356   */\n  iszero\n  tag_63\n  jumpi\n    /* \"#utility.yul\":352:353   */\n  0x00\n    /* \"#utility.yul\":349:350   */\n  dup1\n    /* \"#utility.yul\":342:354   */\n  revert\n    /* \"#utility.yul\":304:356   */\ntag_63:\n    /* \"#utility.yul\":375:415   */\n  tag_64\n    /* \"#utility.yul\":405:414   */\n  dup4\n    /* \"#utility.yul\":375:415   */\n  tag_50\n  jump\t// in\ntag_64:\n    /* \"#utility.yul\":365:415   */\n  swap2\n  pop\n    /* \"#utility.yul\":434:483   */\n  tag_65\n    /* \"#utility.yul\":479:481   */\n  0x20\n    /* \"#utility.yul\":468:477   */\n  dup5\n    /* \"#utility.yul\":464:482   */\n  add\n    /* \"#utility.yul\":434:483   */\n  tag_50\n  jump\t// in\ntag_65:\n    /* \"#utility.yul\":424:483   */\n  swap1\n  pop\n    /* \"#utility.yul\":196:489   */\n  swap3\n  pop\n  swap3\n  swap1\n  pop\n  jump\t// out\n    /* \"#utility.yul\":494:621   */\ntag_51:\n    /* \"#utility.yul\":555:565   */\n  0x4e487b71\n    /* \"#utility.yul\":550:553   */\n  0xe0\n    /* \"#utility.yul\":546:566   */\n  shl\n    /* \"#utility.yul\":543:544   */\n  0x00\n    /* \"#utility.yul\":536:567   */\n  mstore\n    /* \"#utility.yul\":586:590   */\n  0x41\n    /* \"#utility.yul\":583:584   */\n  0x04\n    /* \"#utility.yul\":576:591   */\n  mstore\n    /* \"#utility.yul\":610:614   */\n  0x24\n    /* \"#utility.yul\":607:608   */\n  0x00\n    /* \"#utility.yul\":600:615   */\n  revert\n    /* \"#utility.yul\":626:1006   */\ntag_52:\n    /* \"#utility.yul\":705:706   */\n  0x01\n    /* \"#utility.yul\":701:713   */\n  dup2\n  dup2\n  shr\n  swap1\n    /* \"#utility.yul\":748:760   */\n  dup3\n  and\n  dup1\n    /* \"#utility.yul\":769:830   */\n  tag_68\n  jumpi\n    /* \"#utility.yul\":823:827   */\n  0x7f\n    /* \"#utility.yul\":815:821   */\n  dup3\n    /* \"#utility.yul\":811:828   */\n  and\n    /* \"#utility.yul\":801:828   */\n  swap2\n  pop\n    /* \"#utility.yul\":769:830   */\ntag_68:\n    /* \"#utility.yul\":876:878   */\n  0x20\n    /* \"#utility.yul\":868:874   */\n  dup3\n    /* \"#utility.yul\":865:879   */\n  lt\n    /* \"#utility.yul\":845:863   */\n  dup2\n    /* \"#utility.yul\":842:880   */\n  sub\n    /* \"#utility.yul\":839:1000   */\n  tag_69\n  jumpi\n    /* \"#utility.yul\":922:932   */\n  0x4e487b71\n    /* \"#utility.yul\":917:920   */\n  0xe0\n    /* \"#utility.yul\":913:933   */\n  shl\n    /* \"#utility.yul\":910:911   */\n  0x00\n    /* \"#utility.yul\":903:934   */\n  mstore\n    /* \"#utility.yul\":957:961   */\n  0x22\n    /* \"#utility.yul\":954:955   */\n  0x04\n    /* \"#utility.yul\":947:962   */\n  mstore\n    /* \"#utility.yul\":985:989   */\n  0x24\n    /* \"#utility.yul\":982:983   */\n  0x00\n    /* \"#utility.yul\":975:990   */\n  revert\n    /* \"#utility.yul\":839:1000   */\ntag_69:\n  pop\n    /* \"#utility.yul\":626:1006   */\n  swap2\n  swap1\n  pop\n  jump\t// out\n    /* \"#utility.yul\":1137:1655   */\ntag_54:\n    /* \"#utility.yul\":1239:1241   */\n  0x1f\n    /* \"#utility.yul\":1234:1237   */\n  dup3\n    /* \"#utility.yul\":1231:1242   */\n  gt\n    /* \"#utility.yul\":1228:1649   */\n  iszero\n  tag_72\n  jumpi\n    /* \"#utility.yul\":1275:1280   */\n  dup1\n    /* \"#utility.yul\":1272:1273   */\n  0x00\n    /* \"#utility.yul\":1265:1281   */\n  mstore\n    /* \"#utility.yul\":1319:1323   */\n  0x20\n    /* \"#utility.yul\":1316:1317   */\n  0x00\n    /* \"#utility.yul\":1306:1324   */\n  keccak256\n    /* \"#utility.yul\":1389:1391   */\n  0x1f\n    /* \"#utility.yul\":1377:1387   */\n  dup5\n    /* \"#utility.yul\":1373:1392   */\n  add\n    /* \"#utility.yul\":1370:1371   */\n  0x05\n    /* \"#utility.yul\":1366:1393   */\n  shr\n    /* \"#utility.yul\":1360:1364   */\n  dup2\n    /* \"#utility.yul\":1356:1394   */\n  add\n    /* \"#utility.yul\":1425:1429   */\n  0x20\n    /* \"#utility.yul\":1413:1423   */\n  dup6\n    /* \"#utility.yul\":1410:1430   */\n  lt\n    /* \"#utility.yul\":1407:1454   */\n  iszero\n  tag_73\n  jumpi\n  pop\n    /* \"#utility.yul\":1448:1452   */\n  dup1\n    /* \"#utility.yul\":1407:1454   */\ntag_73:\n    /* \"#utility.yul\":1503:1505   */\n  0x1f\n    /* \"#utility.yul\":1498:1501   */\n  dup5\n    /* \"#utility.yul\":1494:1506   */\n  add\n    /* \"#utility.yul\":1491:1492   */\n  0x05\n    /* \"#utility.yul\":1487:1507   */\n  shr\n    /* \"#utility.yul\":1481:1485   */\n  dup3\n    /* \"#utility.yul\":1477:1508   */\n  add\n    /* \"#utility.yul\":1467:1508   */\n  swap2\n  pop\n    /* \"#utility.yul\":1558:1639   */\ntag_74:\n    /* \"#utility.yul\":1576:1578   */\n  dup2\n    /* \"#utility.yul\":1569:1574   */\n  dup2\n    /* \"#utility.yul\":1566:1579   */\n  lt\n    /* \"#utility.yul\":1558:1639   */\n  iszero\n  tag_76\n  jumpi\n    /* \"#utility.yul\":1635:1636   */\n  0x00\n    /* \"#utility.yul\":1621:1637   */\n  dup2\n  sstore\n    /* \"#utility.yul\":1602:1603   */\n  0x01\n    /* \"#utility.yul\":1591:1604   */\n  add\n    /* \"#utility.yul\":1558:1639   */\n  jump(tag_74)\ntag_76:\n    /* \"#utility.yul\":1562:1565   */\n  pop\n  pop\n    /* \"#utility.yul\":1228:1649   */\ntag_72:\n    /* \"#utility.yul\":1137:1655   */\n  pop\n  pop\n  pop\n  jump\t// out\n    /* \"#utility.yul\":1831:3130   */\ntag_11:\n    /* \"#utility.yul\":1951:1961   */\n  dup2\n  mload\n  sub(shl(0x40, 0x01), 0x01)\n    /* \"#utility.yul\":1973:2003   */\n  dup2\n  gt\n    /* \"#utility.yul\":1970:2026   */\n  iszero\n  tag_80\n  jumpi\n    /* \"#utility.yul\":2006:2024   */\n  tag_80\n  tag_51\n  jump\t// in\ntag_80:\n    /* \"#utility.yul\":2035:2132   */\n  tag_81\n    /* \"#utility.yul\":2125:2131   */\n  dup2\n    /* \"#utility.yul\":2085:2123   */\n  tag_82\n    /* \"#utility.yul\":2117:2121   */\n  dup5\n    /* \"#utility.yul\":2111:2122   */\n  sload\n    /* \"#utility.yul\":2085:2123   */\n  tag_52\n  jump\t// in\ntag_82:\n    /* \"#utility.yul\":2079:2083   */\n  dup5\n    /* \"#utility.yul\":2035:2132   */\n  tag_54\n  jump\t// in\ntag_81:\n    /* \"#utility.yul\":2181:2185   */\n  0x20\n    /* \"#utility.yul\":2212:2214   */\n  0x1f\n    /* \"#utility.yul\":2201:2215   */\n  dup3\n  gt\n    /* \"#utility.yul\":2229:2230   */\n  0x01\n    /* \"#utility.yul\":2224:2873   */\n  dup2\n  eq\n  tag_84\n  jumpi\n    /* \"#utility.yul\":2917:2918   */\n  0x00\n    /* \"#utility.yul\":2934:2940   */\n  dup4\n    /* \"#utility.yul\":2931:3020   */\n  iszero\n  tag_85\n  jumpi\n  pop\n    /* \"#utility.yul\":2986:3005   */\n  dup5\n  dup3\n  add\n    /* \"#utility.yul\":2980:3006   */\n  mload\n    /* \"#utility.yul\":2931:3020   */\ntag_85:\n  not(0x00)\n    /* \"#utility.yul\":1788:1789   */\n  0x03\n    /* \"#utility.yul\":1784:1795   */\n  dup6\n  swap1\n  shl\n    /* \"#utility.yul\":1780:1804   */\n  shr\n    /* \"#utility.yul\":1776:1805   */\n  not\n    /* \"#utility.yul\":1766:1806   */\n  and\n    /* \"#utility.yul\":1812:1813   */\n  0x01\n    /* \"#utility.yul\":1808:1819   */\n  dup5\n  swap1\n  shl\n    /* \"#utility.yul\":1763:1820   */\n  or\n    /* \"#utility.yul\":3033:3114   */\n  dup5\n  sstore\n    /* \"#utility.yul\":2194:3124   */\n  jump(tag_76)\n    /* \"#utility.yul\":2224:2873   */\ntag_84:\n    /* \"#utility.yul\":1084:1085   */\n  0x00\n    /* \"#utility.yul\":1077:1091   */\n  dup5\n  dup2\n  mstore\n    /* \"#utility.yul\":1121:1125   */\n  0x20\n    /* \"#utility.yul\":1108:1126   */\n  dup2\n  keccak256\n  not(0x1f)\n    /* \"#utility.yul\":2260:2280   */\n  dup6\n  and\n  swap2\n    /* \"#utility.yul\":2378:2600   */\ntag_88:\n    /* \"#utility.yul\":2392:2399   */\n  dup3\n    /* \"#utility.yul\":2389:2390   */\n  dup2\n    /* \"#utility.yul\":2386:2400   */\n  lt\n    /* \"#utility.yul\":2378:2600   */\n  iszero\n  tag_90\n  jumpi\n    /* \"#utility.yul\":2474:2493   */\n  dup8\n  dup6\n  add\n    /* \"#utility.yul\":2468:2494   */\n  mload\n    /* \"#utility.yul\":2453:2495   */\n  dup3\n  sstore\n    /* \"#utility.yul\":2581:2585   */\n  0x20\n    /* \"#utility.yul\":2566:2586   */\n  swap5\n  dup6\n  add\n  swap5\n    /* \"#utility.yul\":2534:2535   */\n  0x01\n    /* \"#utility.yul\":2522:2536   */\n  swap1\n  swap3\n  add\n  swap2\n    /* \"#utility.yul\":2408:2420   */\n  add\n    /* \"#utility.yul\":2378:2600   */\n  jump(tag_88)\ntag_90:\n    /* \"#utility.yul\":2382:2385   */\n  pop\n    /* \"#utility.yul\":2628:2634   */\n  dup5\n    /* \"#utility.yul\":2619:2626   */\n  dup3\n    /* \"#utility.yul\":2616:2635   */\n  lt\n    /* \"#utility.yul\":2613:2814   */\n  iszero\n  tag_91\n  jumpi\n    /* \"#utility.yul\":2689:2708   */\n  dup7\n  dup5\n  add\n    /* \"#utility.yul\":2683:2709   */\n  mload\n  not(0x00)\n    /* \"#utility.yul\":2772:2773   */\n  0x03\n    /* \"#utility.yul\":2768:2782   */\n  dup8\n  swap1\n  shl\n    /* \"#utility.yul\":2784:2787   */\n  0xf8\n    /* \"#utility.yul\":2764:2788   */\n  and\n    /* \"#utility.yul\":2760:2797   */\n  shr\n    /* \"#utility.yul\":2756:2798   */\n  not\n    /* \"#utility.yul\":2741:2799   */\n  and\n    /* \"#utility.yul\":2726:2800   */\n  dup2\n  sstore\n    /* \"#utility.yul\":2613:2814   */\ntag_91:\n  pop\n  pop\n  pop\n  pop\n    /* \"#utility.yul\":2860:2861   */\n  0x01\n    /* \"#utility.yul\":2844:2858   */\n  swap1\n  dup2\n  shl\n    /* \"#utility.yul\":2840:2862   */\n  add\n    /* \"#utility.yul\":2827:2863   */\n  swap1\n  sstore\n  pop\n    /* \"#utility.yul\":1831:3130   */\n  jump\t// out\n    /* \"#utility.yul\":3343:3470   */\ntag_56:\n    /* \"#utility.yul\":3404:3414   */\n  0x4e487b71\n    /* \"#utility.yul\":3399:3402   */\n  0xe0\n    /* \"#utility.yul\":3395:3415   */\n  shl\n    /* \"#utility.yul\":3392:3393   */\n  0x00\n    /* \"#utility.yul\":3385:3416   */\n  mstore\n    /* \"#utility.yul\":3435:3439   */\n  0x11\n    /* \"#utility.yul\":3432:3433   */\n  0x04\n    /* \"#utility.yul\":3425:3440   */\n  mstore\n    /* \"#utility.yul\":3459:3463   */\n  0x24\n    /* \"#utility.yul\":3456:3457   */\n  0x00\n    /* \"#utility.yul\":3449:3464   */\n  revert\n    /* \"#utility.yul\":3475:3850   */\ntag_57:\n    /* \"#utility.yul\":3563:3564   */\n  0x01\n    /* \"#utility.yul\":3581:3586   */\n  dup2\n    /* \"#utility.yul\":3595:3844   */\ntag_95:\n    /* \"#utility.yul\":3616:3617   */\n  0x01\n    /* \"#utility.yul\":3606:3614   */\n  dup5\n    /* \"#utility.yul\":3603:3618   */\n  gt\n    /* \"#utility.yul\":3595:3844   */\n  iszero\n  tag_97\n  jumpi\n    /* \"#utility.yul\":3666:3670   */\n  dup1\n    /* \"#utility.yul\":3661:3664   */\n  dup6\n    /* \"#utility.yul\":3657:3671   */\n  div\n    /* \"#utility.yul\":3651:3655   */\n  dup2\n    /* \"#utility.yul\":3648:3672   */\n  gt\n    /* \"#utility.yul\":3645:3695   */\n  iszero\n  tag_99\n  jumpi\n    /* \"#utility.yul\":3675:3693   */\n  tag_99\n  tag_56\n  jump\t// in\ntag_99:\n    /* \"#utility.yul\":3725:3726   */\n  0x01\n    /* \"#utility.yul\":3715:3723   */\n  dup5\n    /* \"#utility.yul\":3711:3727   */\n  and\n    /* \"#utility.yul\":3708:3757   */\n  iszero\n  tag_100\n  jumpi\n    /* \"#utility.yul\":3739:3755   */\n  swap1\n  dup2\n  mul\n  swap1\n    /* \"#utility.yul\":3708:3757   */\ntag_100:\n    /* \"#utility.yul\":3822:3823   */\n  0x01\n    /* \"#utility.yul\":3818:3834   */\n  swap4\n  swap1\n  swap4\n  shr\n  swap3\n    /* \"#utility.yul\":3778:3793   */\n  dup1\n  mul\n    /* \"#utility.yul\":3595:3844   */\n  jump(tag_95)\ntag_97:\n    /* \"#utility.yul\":3475:3850   */\n  swap4\n  pop\n  swap4\n  swap2\n  pop\n  pop\n  jump\t// out\n    /* \"#utility.yul\":3855:4757   */\ntag_58:\n    /* \"#utility.yul\":3904:3909   */\n  0x00\n    /* \"#utility.yul\":3934:3942   */\n  dup3\n    /* \"#utility.yul\":3924:4004   */\n  tag_102\n  jumpi\n  pop\n    /* \"#utility.yul\":3975:3976   */\n  0x01\n    /* \"#utility.yul\":3989:3994   */\n  jump(tag_101)\n    /* \"#utility.yul\":3924:4004   */\ntag_102:\n    /* \"#utility.yul\":4023:4027   */\n  dup2\n    /* \"#utility.yul\":4013:4089   */\n  tag_103\n  jumpi\n  pop\n    /* \"#utility.yul\":4060:4061   */\n  0x00\n    /* \"#utility.yul\":4074:4079   */\n  jump(tag_101)\n    /* \"#utility.yul\":4013:4089   */\ntag_103:\n    /* \"#utility.yul\":4105:4109   */\n  dup2\n    /* \"#utility.yul\":4123:4124   */\n  0x01\n    /* \"#utility.yul\":4118:4177   */\n  dup2\n  eq\n  tag_105\n  jumpi\n    /* \"#utility.yul\":4191:4192   */\n  0x02\n    /* \"#utility.yul\":4186:4360   */\n  dup2\n  eq\n  tag_106\n  jumpi\n    /* \"#utility.yul\":4098:4360   */\n  jump(tag_104)\n    /* \"#utility.yul\":4118:4177   */\ntag_105:\n    /* \"#utility.yul\":4148:4149   */\n  0x01\n    /* \"#utility.yul\":4139:4149   */\n  swap2\n  pop\n    /* \"#utility.yul\":4162:4167   */\n  pop\n  jump(tag_101)\n    /* \"#utility.yul\":4186:4360   */\ntag_106:\n    /* \"#utility.yul\":4223:4226   */\n  0xff\n    /* \"#utility.yul\":4213:4221   */\n  dup5\n    /* \"#utility.yul\":4210:4227   */\n  gt\n    /* \"#utility.yul\":4207:4250   */\n  iszero\n  tag_108\n  jumpi\n    /* \"#utility.yul\":4230:4248   */\n  tag_108\n  tag_56\n  jump\t// in\ntag_108:\n  pop\n  pop\n    /* \"#utility.yul\":4286:4287   */\n  0x01\n    /* \"#utility.yul\":4272:4288   */\n  dup3\n  shl\n    /* \"#utility.yul\":4345:4350   */\n  jump(tag_101)\n    /* \"#utility.yul\":4098:4360   */\ntag_104:\n  pop\n    /* \"#utility.yul\":4444:4446   */\n  0x20\n    /* \"#utility.yul\":4434:4442   */\n  dup4\n    /* \"#utility.yul\":4431:4447   */\n  lt\n    /* \"#utility.yul\":4425:4428   */\n  0x0133\n    /* \"#utility.yul\":4419:4423   */\n  dup4\n    /* \"#utility.yul\":4416:4429   */\n  lt\n    /* \"#utility.yul\":4412:4448   */\n  and\n    /* \"#utility.yul\":4406:4408   */\n  0x4e\n    /* \"#utility.yul\":4396:4404   */\n  dup5\n    /* \"#utility.yul\":4393:4409   */\n  lt\n    /* \"#utility.yul\":4388:4390   */\n  0x0b\n    /* \"#utility.yul\":4382:4386   */\n  dup5\n    /* \"#utility.yul\":4379:4391   */\n  lt\n    /* \"#utility.yul\":4375:4410   */\n  and\n    /* \"#utility.yul\":4372:4449   */\n  or\n    /* \"#utility.yul\":4369:4572   */\n  iszero\n  tag_109\n  jumpi\n  pop\n    /* \"#utility.yul\":4481:4500   */\n  dup2\n  dup2\n  exp\n    /* \"#utility.yul\":4557:4562   */\n  jump(tag_101)\n    /* \"#utility.yul\":4369:4572   */\ntag_109:\n    /* \"#utility.yul\":4604:4646   */\n  tag_110\n  not(0x00)\n    /* \"#utility.yul\":4629:4637   */\n  dup5\n    /* \"#utility.yul\":4623:4627   */\n  dup5\n    /* \"#utility.yul\":4604:4646   */\n  tag_57\n  jump\t// in\ntag_110:\n    /* \"#utility.yul\":4682:4688   */\n  dup1\n    /* \"#utility.yul\":4678:4679   */\n  0x00\n    /* \"#utility.yul\":4674:4680   */\n  not\n    /* \"#utility.yul\":4670:4689   */\n  div\n    /* \"#utility.yul\":4661:4668   */\n  dup3\n    /* \"#utility.yul\":4658:4690   */\n  gt\n    /* \"#utility.yul\":4655:4713   */\n  iszero\n  tag_112\n  jumpi\n    /* \"#utility.yul\":4693:4711   */\n  tag_112\n  tag_56\n  jump\t// in\ntag_112:\n    /* \"#utility.yul\":4731:4751   */\n  mul\n  swap1\n  pop\n    /* \"#utility.yul\":3855:4757   */\ntag_101:\n  swap3\n  swap2\n  pop\n  pop\n  jump\t// out\n    /* \"#utility.yul\":4762:4902   */\ntag_26:\n    /* \"#utility.yul\":4820:4825   */\n  0x00\n    /* \"#utility.yul\":4849:4896   */\n  tag_114\n    /* \"#utility.yul\":4890:4894   */\n  0xff\n    /* \"#utility.yul\":4880:4888   */\n  dup5\n    /* \"#utility.yul\":4876:4895   */\n  and\n    /* \"#utility.yul\":4870:4874   */\n  dup4\n    /* \"#utility.yul\":4849:4896   */\n  tag_58\n  jump\t// in\ntag_114:\n    /* \"#utility.yul\":4840:4896   */\n  swap4\n    /* \"#utility.yul\":4762:4902   */\n  swap3\n  pop\n  pop\n  pop\n  jump\t// out\n    /* \"#utility.yul\":4907:5075   */\ntag_28:\n    /* \"#utility.yul\":4980:4989   */\n  dup1\n  dup3\n  mul\n    /* \"#utility.yul\":5011:5020   */\n  dup2\n  iszero\n    /* \"#utility.yul\":5028:5043   */\n  dup3\n  dup3\n  div\n    /* \"#utility.yul\":5022:5044   */\n  dup5\n  eq\n    /* \"#utility.yul\":5008:5045   */\n  or\n    /* \"#utility.yul\":4998:5069   */\n  tag_101\n  jumpi\n    /* \"#utility.yul\":5049:5067   */\n  tag_101\n  tag_56\n  jump\t// in\n    /* \"#utility.yul\":5080:5205   */\ntag_41:\n    /* \"#utility.yul\":5145:5154   */\n  dup1\n  dup3\n  add\n    /* \"#utility.yul\":5166:5176   */\n  dup1\n  dup3\n  gt\n    /* \"#utility.yul\":5163:5199   */\n  iszero\n  tag_101\n  jumpi\n    /* \"#utility.yul\":5179:5197   */\n  tag_101\n  tag_56\n  jump\t// in\n    /* \"#utility.yul\":5560:5737   */\ntag_59:\n    /* \"contracts/fatcat 5aug (1)/contracts/fatcat 5aug/preSale.sol\":558:3804  contract TimeVillageToken is ERC20, ERC20Burnable, Pausable, Ownable,ReentrancyGuard {... */\n  mload(0x80)\n  codecopy(0x00, dataOffset(sub_0), dataSize(sub_0))\n  0x00\n  assignImmutable(\"0x93ad96917475117018167204867bb7b7d508b38811a18e6cdc5a086e50cc1943\")\n  return(0x00, dataSize(sub_0))\nstop\n\nsub_0: assembly {\n        /* \"contracts/fatcat 5aug (1)/contracts/fatcat 5aug/preSale.sol\":558:3804  contract TimeVillageToken is ERC20, ERC20Burnable, Pausable, Ownable,ReentrancyGuard {... */\n      mstore(0x40, 0x80)\n      callvalue\n      dup1\n      iszero\n      tag_1\n      jumpi\n      0x00\n      dup1\n      revert\n    tag_1:\n      pop\n      jumpi(tag_2, lt(calldatasize, 0x04))\n      shr(0xe0, calldataload(0x00))\n      dup1\n      0x715018a6\n      gt\n      tag_28\n      jumpi\n      dup1\n      0x95d89b41\n      gt\n      tag_29\n      jumpi\n      dup1\n      0xc0cd40ee\n      gt\n      tag_30\n      jumpi\n      dup1\n      0xc0cd40ee\n      eq\n      tag_24\n      jumpi\n      dup1\n      0xcec90fe7\n      eq\n      tag_25\n      jumpi\n      dup1\n      0xdd62ed3e\n      eq\n      tag_26\n      jumpi\n      dup1\n      0xf2fde38b\n      eq\n      tag_27\n      jumpi\n      0x00\n      dup1\n      revert\n    tag_30:\n      dup1\n      0x95d89b41\n      eq\n      tag_21\n      jumpi\n      dup1\n      0xa3c50cfd\n      eq\n      tag_22\n      jumpi\n      dup1\n      0xa9059cbb\n      eq\n      tag_23\n      jumpi\n      0x00\n      dup1\n      revert\n    tag_29:\n      dup1\n      0x715018a6\n      eq\n      tag_15\n      jumpi\n      dup1\n      0x741bef1a\n      eq\n      tag_16\n      jumpi\n      dup1\n      0x79cc6790\n      eq\n      tag_17\n      jumpi\n      dup1\n      0x8456cb59\n      eq\n      tag_18\n      jumpi\n      dup1\n      0x8d3ce8a5\n      eq\n      tag_19\n      jumpi\n      dup1\n      0x8da5cb5b\n      eq\n      tag_20\n      jumpi\n      0x00\n      dup1\n      revert\n    tag_28:\n      dup1\n      0x3f4ba83a\n      gt\n      tag_31\n      jumpi\n      dup1\n      0x3f4ba83a\n      eq\n      tag_9\n      jumpi\n      dup1\n      0x42966c68\n      eq\n      tag_10\n      jumpi\n      dup1\n      0x47cee97c\n      eq\n      tag_11\n      jumpi\n      dup1\n      0x584707eb\n      eq\n      tag_12\n      jumpi\n      dup1\n      0x5c975abb\n      eq\n      tag_13\n      jumpi\n      dup1\n      0x70a08231\n      eq\n      tag_14\n      jumpi\n      0x00\n      dup1\n      revert\n    tag_31:\n      dup1\n      0x02ab3fed\n      eq\n      tag_3\n      jumpi\n      dup1\n      0x06fdde03\n      eq\n      tag_4\n      jumpi\n      dup1\n      0x095ea7b3\n      eq\n      tag_5\n      jumpi\n      dup1\n      0x18160ddd\n      eq\n      tag_6\n      jumpi\n      dup1\n      0x23b872dd\n      eq\n      tag_7\n      jumpi\n      dup1\n      0x313ce567\n      eq\n      tag_8\n      jumpi\n    tag_2:\n      0x00\n      dup1\n      revert\n        /* \"contracts/fatcat 5aug (1)/contracts/fatcat 5aug/preSale.sol\":1442:1488  mapping (address =>uint) public NumberOfBuying */\n    tag_3:\n      tag_32\n      tag_33\n      calldatasize\n      0x04\n      tag_34\n      jump\t// in\n    tag_33:\n      mstore(0x20, 0x0e)\n      0x00\n      swap1\n      dup2\n      mstore\n      0x40\n      swap1\n      keccak256\n      sload\n      dup2\n      jump\n    tag_32:\n      mload(0x40)\n        /* \"#utility.yul\":529:554   */\n      swap1\n      dup2\n      mstore\n        /* \"#utility.yul\":517:519   */\n      0x20\n        /* \"#utility.yul\":502:520   */\n      add\n        /* \"contracts/fatcat 5aug (1)/contracts/fatcat 5aug/preSale.sol\":1442:1488  mapping (address =>uint) public NumberOfBuying */\n    tag_36:\n      mload(0x40)\n      dup1\n      swap2\n      sub\n      swap1\n      return\n        /* \"@openzeppelin/contracts/token/ERC20/ERC20.sol\":2074:2163  function name() public view virtual returns (string memory) {... */\n    tag_4:\n      tag_38\n      tag_39\n      jump\t// in\n    tag_38:\n      mload(0x40)\n      tag_36\n      swap2\n      swap1\n      tag_41\n      jump\t// in\n        /* \"@openzeppelin/contracts/token/ERC20/ERC20.sol\":4293:4479  function approve(address spender, uint256 value) public virtual returns (bool) {... */\n    tag_5:\n      tag_42\n      tag_43\n      calldatasize\n      0x04\n      tag_44\n      jump\t// in\n    tag_43:\n      tag_45\n      jump\t// in\n    tag_42:\n      mload(0x40)\n        /* \"#utility.yul\":1691:1705   */\n      swap1\n      iszero\n        /* \"#utility.yul\":1684:1706   */\n      iszero\n        /* \"#utility.yul\":1666:1707   */\n      dup2\n      mstore\n        /* \"#utility.yul\":1654:1656   */\n      0x20\n        /* \"#utility.yul\":1639:1657   */\n      add\n        /* \"@openzeppelin/contracts/token/ERC20/ERC20.sol\":4293:4479  function approve(address spender, uint256 value) public virtual returns (bool) {... */\n      tag_36\n        /* \"#utility.yul\":1526:1713   */\n      jump\n        /* \"@openzeppelin/contracts/token/ERC20/ERC20.sol\":3144:3241  function totalSupply() public view virtual returns (uint256) {... */\n    tag_6:\n        /* \"@openzeppelin/contracts/token/ERC20/ERC20.sol\":3222:3234  _totalSupply */\n      sload(0x02)\n        /* \"@openzeppelin/contracts/token/ERC20/ERC20.sol\":3144:3241  function totalSupply() public view virtual returns (uint256) {... */\n      jump(tag_32)\n        /* \"@openzeppelin/contracts/token/ERC20/ERC20.sol\":5039:5283  function transferFrom(address from, address to, uint256 value) public virtual returns (bool) {... */\n    tag_7:\n      tag_42\n      tag_52\n      calldatasize\n      0x04\n      tag_53\n      jump\t// in\n    tag_52:\n      tag_54\n      jump\t// in\n        /* \"@openzeppelin/contracts/token/ERC20/ERC20.sol\":3002:3084  function decimals() public view virtual returns (uint8) {... */\n    tag_8:\n      mload(0x40)\n        /* \"@openzeppelin/contracts/token/ERC20/ERC20.sol\":3075:3077  18 */\n      0x12\n        /* \"#utility.yul\":2239:2275   */\n      dup2\n      mstore\n        /* \"#utility.yul\":2227:2229   */\n      0x20\n        /* \"#utility.yul\":2212:2230   */\n      add\n        /* \"@openzeppelin/contracts/token/ERC20/ERC20.sol\":3002:3084  function decimals() public view virtual returns (uint8) {... */\n      tag_36\n        /* \"#utility.yul\":2097:2281   */\n      jump\n        /* \"contracts/fatcat 5aug (1)/contracts/fatcat 5aug/preSale.sol\":3520:3583  function unpause() public onlyOwner {... */\n    tag_9:\n      tag_60\n      tag_61\n      jump\t// in\n    tag_60:\n      stop\n        /* \"@openzeppelin/contracts/token/ERC20/extensions/ERC20Burnable.sol\":618:705  function burn(uint256 value) public virtual {... */\n    tag_10:\n      tag_60\n      tag_63\n      calldatasize\n      0x04\n      tag_64\n      jump\t// in\n    tag_63:\n      tag_65\n      jump\t// in\n        /* \"contracts/fatcat 5aug (1)/contracts/fatcat 5aug/preSale.sol\":3083:3448  function Claim(address owner, uint _amount) public {... */\n    tag_11:\n      tag_60\n      tag_67\n      calldatasize\n      0x04\n      tag_44\n      jump\t// in\n    tag_67:\n      tag_68\n      jump\t// in\n        /* \"contracts/fatcat 5aug (1)/contracts/fatcat 5aug/preSale.sol\":1245:1312  mapping (address => mapping(uint => userRecord)) public TokenRecord */\n    tag_12:\n      tag_69\n      tag_70\n      calldatasize\n      0x04\n      tag_44\n      jump\t// in\n    tag_70:\n      0x0b\n      0x20\n      swap1\n      dup2\n      mstore\n      0x00\n      swap3\n      dup4\n      mstore\n      0x40\n      dup1\n      dup5\n      keccak256\n      swap1\n      swap2\n      mstore\n      swap1\n      dup3\n      mstore\n      swap1\n      keccak256\n      dup1\n      sload\n      0x01\n      dup3\n      add\n      sload\n      0x02\n      dup4\n      add\n      sload\n      0x03\n      dup5\n      add\n      sload\n      0x04\n      swap1\n      swap5\n      add\n      sload\n      sub(shl(0xa0, 0x01), 0x01)\n      swap1\n      swap4\n      and\n      swap4\n      swap2\n      swap3\n      swap1\n      swap2\n      swap1\n      0xff\n      dup1\n      dup3\n      and\n      swap2\n      0x0100\n      swap1\n      div\n      and\n      dup7\n      jump\n    tag_69:\n      mload(0x40)\n      tag_36\n      swap7\n      swap6\n      swap5\n      swap4\n      swap3\n      swap2\n      swap1\n      tag_73\n      jump\t// in\n        /* \"@openzeppelin/contracts/security/Pausable.sol\":1615:1699  function paused() public view virtual returns (bool) {... */\n    tag_13:\n        /* \"@openzeppelin/contracts/security/Pausable.sol\":1685:1692  _paused */\n      and(0xff, sload(0x05))\n        /* \"@openzeppelin/contracts/security/Pausable.sol\":1615:1699  function paused() public view virtual returns (bool) {... */\n      jump(tag_42)\n        /* \"@openzeppelin/contracts/token/ERC20/ERC20.sol\":3299:3415  function balanceOf(address account) public view virtual returns (uint256) {... */\n    tag_14:\n      tag_32\n      tag_78\n      calldatasize\n      0x04\n      tag_34\n      jump\t// in\n    tag_78:\n      sub(shl(0xa0, 0x01), 0x01)\n        /* \"@openzeppelin/contracts/token/ERC20/ERC20.sol\":3390:3408  _balances[account] */\n      and\n        /* \"@openzeppelin/contracts/token/ERC20/ERC20.sol\":3364:3371  uint256 */\n      0x00\n        /* \"@openzeppelin/contracts/token/ERC20/ERC20.sol\":3390:3408  _balances[account] */\n      swap1\n      dup2\n      mstore\n      0x20\n      dup2\n      swap1\n      mstore\n      0x40\n      swap1\n      keccak256\n      sload\n      swap1\n        /* \"@openzeppelin/contracts/token/ERC20/ERC20.sol\":3299:3415  function balanceOf(address account) public view virtual returns (uint256) {... */\n      jump\n        /* \"@openzeppelin/contracts/access/Ownable.sol\":2293:2394  function renounceOwnership() public virtual onlyOwner {... */\n    tag_15:\n      tag_60\n      tag_82\n      jump\t// in\n        /* \"contracts/fatcat 5aug (1)/contracts/fatcat 5aug/preSale.sol\":647:685  AggregatorV3Interface public priceFeed */\n    tag_16:\n      sload(0x07)\n      tag_83\n      swap1\n      sub(shl(0xa0, 0x01), 0x01)\n      and\n      dup2\n      jump\n    tag_83:\n      mload(0x40)\n      sub(shl(0xa0, 0x01), 0x01)\n        /* \"#utility.yul\":3581:3613   */\n      swap1\n      swap2\n      and\n        /* \"#utility.yul\":3563:3614   */\n      dup2\n      mstore\n        /* \"#utility.yul\":3551:3553   */\n      0x20\n        /* \"#utility.yul\":3536:3554   */\n      add\n        /* \"contracts/fatcat 5aug (1)/contracts/fatcat 5aug/preSale.sol\":647:685  AggregatorV3Interface public priceFeed */\n      tag_36\n        /* \"#utility.yul\":3389:3620   */\n      jump\n        /* \"@openzeppelin/contracts/token/ERC20/extensions/ERC20Burnable.sol\":1021:1179  function burnFrom(address account, uint256 value) public virtual {... */\n    tag_17:\n      tag_60\n      tag_88\n      calldatasize\n      0x04\n      tag_44\n      jump\t// in\n    tag_88:\n      tag_89\n      jump\t// in\n        /* \"contracts/fatcat 5aug (1)/contracts/fatcat 5aug/preSale.sol\":3456:3515  function pause() public onlyOwner {... */\n    tag_18:\n      tag_60\n      tag_91\n      jump\t// in\n        /* \"contracts/fatcat 5aug (1)/contracts/fatcat 5aug/preSale.sol\":2006:3075  function buyTokens(uint256 _amount,   currency choice) public nonReentrant {... */\n    tag_19:\n      tag_60\n      tag_93\n      calldatasize\n      0x04\n      tag_94\n      jump\t// in\n    tag_93:\n      tag_95\n      jump\t// in\n        /* \"@openzeppelin/contracts/access/Ownable.sol\":1638:1723  function owner() public view virtual returns (address) {... */\n    tag_20:\n        /* \"@openzeppelin/contracts/access/Ownable.sol\":1710:1716  _owner */\n      sload(0x05)\n      0x0100\n      swap1\n      div\n      sub(shl(0xa0, 0x01), 0x01)\n      and\n        /* \"@openzeppelin/contracts/access/Ownable.sol\":1638:1723  function owner() public view virtual returns (address) {... */\n      jump(tag_83)\n        /* \"@openzeppelin/contracts/token/ERC20/ERC20.sol\":2276:2369  function symbol() public view virtual returns (string memory) {... */\n    tag_21:\n      tag_38\n      tag_101\n      jump\t// in\n        /* \"contracts/fatcat 5aug (1)/contracts/fatcat 5aug/preSale.sol\":815:834  bool public IsClaim */\n    tag_22:\n      sload(0x09)\n      tag_42\n      swap1\n      0xff\n      and\n      dup2\n      jump\n        /* \"@openzeppelin/contracts/token/ERC20/ERC20.sol\":3610:3788  function transfer(address to, uint256 value) public virtual returns (bool) {... */\n    tag_23:\n      tag_42\n      tag_107\n      calldatasize\n      0x04\n      tag_44\n      jump\t// in\n    tag_107:\n      tag_108\n      jump\t// in\n        /* \"contracts/fatcat 5aug (1)/contracts/fatcat 5aug/preSale.sol\":1844:1988  function AdminAddToken(uint _amount) public onlyOwner{... */\n    tag_24:\n      tag_60\n      tag_111\n      calldatasize\n      0x04\n      tag_64\n      jump\t// in\n    tag_111:\n      tag_112\n      jump\t// in\n        /* \"contracts/fatcat 5aug (1)/contracts/fatcat 5aug/preSale.sol\":1318:1389  mapping (address => mapping(address => userDetail)) public TokenRecords */\n    tag_25:\n      tag_113\n      tag_114\n      calldatasize\n      0x04\n      tag_115\n      jump\t// in\n    tag_114:\n      0x0c\n      0x20\n      swap1\n      dup2\n      mstore\n      0x00\n      swap3\n      dup4\n      mstore\n      0x40\n      dup1\n      dup5\n      keccak256\n      swap1\n      swap2\n      mstore\n      swap1\n      dup3\n      mstore\n      swap1\n      keccak256\n      dup1\n      sload\n      0x01\n      dup3\n      add\n      sload\n      0x02\n      dup4\n      add\n      sload\n      0x03\n      dup5\n      add\n      sload\n      0x04\n      swap1\n      swap5\n      add\n      sload\n      swap3\n      swap4\n      swap2\n      swap3\n      swap1\n      swap2\n      sub(shl(0xa0, 0x01), 0x01)\n      swap1\n      dup2\n      and\n      swap2\n      and\n      dup6\n      jump\n    tag_113:\n      0x40\n      dup1\n      mload\n        /* \"#utility.yul\":4751:4776   */\n      swap6\n      dup7\n      mstore\n        /* \"#utility.yul\":4807:4809   */\n      0x20\n        /* \"#utility.yul\":4792:4810   */\n      dup7\n      add\n        /* \"#utility.yul\":4785:4819   */\n      swap5\n      swap1\n      swap5\n      mstore\n        /* \"#utility.yul\":4835:4853   */\n      swap3\n      dup5\n      add\n        /* \"#utility.yul\":4828:4862   */\n      swap2\n      swap1\n      swap2\n      mstore\n      sub(shl(0xa0, 0x01), 0x01)\n        /* \"#utility.yul\":4898:4930   */\n      swap1\n      dup2\n      and\n        /* \"#utility.yul\":4893:4895   */\n      0x60\n        /* \"#utility.yul\":4878:4896   */\n      dup5\n      add\n        /* \"#utility.yul\":4871:4931   */\n      mstore\n        /* \"#utility.yul\":4968:5000   */\n      and\n        /* \"#utility.yul\":4962:4965   */\n      0x80\n        /* \"#utility.yul\":4947:4966   */\n      dup3\n      add\n        /* \"#utility.yul\":4940:5001   */\n      mstore\n        /* \"#utility.yul\":4738:4741   */\n      0xa0\n        /* \"#utility.yul\":4723:4742   */\n      add\n        /* \"contracts/fatcat 5aug (1)/contracts/fatcat 5aug/preSale.sol\":1318:1389  mapping (address => mapping(address => userDetail)) public TokenRecords */\n      tag_36\n        /* \"#utility.yul\":4492:5007   */\n      jump\n        /* \"@openzeppelin/contracts/token/ERC20/ERC20.sol\":3846:3986  function allowance(address owner, address spender) public view virtual returns (uint256) {... */\n    tag_26:\n      tag_32\n      tag_120\n      calldatasize\n      0x04\n      tag_115\n      jump\t// in\n    tag_120:\n      sub(shl(0xa0, 0x01), 0x01)\n        /* \"@openzeppelin/contracts/token/ERC20/ERC20.sol\":3952:3970  _allowances[owner] */\n      swap2\n      dup3\n      and\n        /* \"@openzeppelin/contracts/token/ERC20/ERC20.sol\":3926:3933  uint256 */\n      0x00\n        /* \"@openzeppelin/contracts/token/ERC20/ERC20.sol\":3952:3970  _allowances[owner] */\n      swap1\n      dup2\n      mstore\n        /* \"@openzeppelin/contracts/token/ERC20/ERC20.sol\":3952:3963  _allowances */\n      0x01\n        /* \"@openzeppelin/contracts/token/ERC20/ERC20.sol\":3952:3970  _allowances[owner] */\n      0x20\n      swap1\n      dup2\n      mstore\n      0x40\n      dup1\n      dup4\n      keccak256\n        /* \"@openzeppelin/contracts/token/ERC20/ERC20.sol\":3952:3979  _allowances[owner][spender] */\n      swap4\n      swap1\n      swap5\n      and\n      dup3\n      mstore\n      swap2\n      swap1\n      swap2\n      mstore\n      keccak256\n      sload\n      swap1\n        /* \"@openzeppelin/contracts/token/ERC20/ERC20.sol\":3846:3986  function allowance(address owner, address spender) public view virtual returns (uint256) {... */\n      jump\n        /* \"@openzeppelin/contracts/access/Ownable.sol\":2543:2758  function transferOwnership(address newOwner) public virtual onlyOwner {... */\n    tag_27:\n      tag_60\n      tag_124\n      calldatasize\n      0x04\n      tag_34\n      jump\t// in\n    tag_124:\n      tag_125\n      jump\t// in\n        /* \"@openzeppelin/contracts/token/ERC20/ERC20.sol\":2074:2163  function name() public view virtual returns (string memory) {... */\n    tag_39:\n        /* \"@openzeppelin/contracts/token/ERC20/ERC20.sol\":2119:2132  string memory */\n      0x60\n        /* \"@openzeppelin/contracts/token/ERC20/ERC20.sol\":2151:2156  _name */\n      0x03\n        /* \"@openzeppelin/contracts/token/ERC20/ERC20.sol\":2144:2156  return _name */\n      dup1\n      sload\n      tag_127\n      swap1\n      tag_128\n      jump\t// in\n    tag_127:\n      dup1\n      0x1f\n      add\n      0x20\n      dup1\n      swap2\n      div\n      mul\n      0x20\n      add\n      mload(0x40)\n      swap1\n      dup2\n      add\n      0x40\n      mstore\n      dup1\n      swap3\n      swap2\n      swap1\n      dup2\n      dup2\n      mstore\n      0x20\n      add\n      dup3\n      dup1\n      sload\n      tag_129\n      swap1\n      tag_128\n      jump\t// in\n    tag_129:\n      dup1\n      iszero\n      tag_130\n      jumpi\n      dup1\n      0x1f\n      lt\n      tag_131\n      jumpi\n      0x0100\n      dup1\n      dup4\n      sload\n      div\n      mul\n      dup4\n      mstore\n      swap2\n      0x20\n      add\n      swap2\n      jump(tag_130)\n    tag_131:\n      dup3\n      add\n      swap2\n      swap1\n      0x00\n      mstore\n      keccak256(0x00, 0x20)\n      swap1\n    tag_132:\n      dup2\n      sload\n      dup2\n      mstore\n      swap1\n      0x01\n      add\n      swap1\n      0x20\n      add\n      dup1\n      dup4\n      gt\n      tag_132\n      jumpi\n      dup3\n      swap1\n      sub\n      0x1f\n      and\n      dup3\n      add\n      swap2\n    tag_130:\n      pop\n      pop\n      pop\n      pop\n      pop\n      swap1\n      pop\n        /* \"@openzeppelin/contracts/token/ERC20/ERC20.sol\":2074:2163  function name() public view virtual returns (string memory) {... */\n      swap1\n      jump\t// out\n        /* \"@openzeppelin/contracts/token/ERC20/ERC20.sol\":4293:4479  function approve(address spender, uint256 value) public virtual returns (bool) {... */\n    tag_45:\n        /* \"@openzeppelin/contracts/token/ERC20/ERC20.sol\":4366:4370  bool */\n      0x00\n        /* \"@openzeppelin/contracts/utils/Context.sol\":735:745  msg.sender */\n      caller\n        /* \"@openzeppelin/contracts/token/ERC20/ERC20.sol\":4420:4451  _approve(owner, spender, value) */\n      tag_136\n        /* \"@openzeppelin/contracts/utils/Context.sol\":735:745  msg.sender */\n      dup2\n        /* \"@openzeppelin/contracts/token/ERC20/ERC20.sol\":4436:4443  spender */\n      dup6\n        /* \"@openzeppelin/contracts/token/ERC20/ERC20.sol\":4445:4450  value */\n      dup6\n        /* \"@openzeppelin/contracts/token/ERC20/ERC20.sol\":4420:4428  _approve */\n      tag_137\n        /* \"@openzeppelin/contracts/token/ERC20/ERC20.sol\":4420:4451  _approve(owner, spender, value) */\n      jump\t// in\n    tag_136:\n        /* \"@openzeppelin/contracts/token/ERC20/ERC20.sol\":4468:4472  true */\n      0x01\n        /* \"@openzeppelin/contracts/token/ERC20/ERC20.sol\":4461:4472  return true */\n      swap2\n      pop\n      pop\n        /* \"@openzeppelin/contracts/token/ERC20/ERC20.sol\":4293:4479  function approve(address spender, uint256 value) public virtual returns (bool) {... */\n    tag_133:\n      swap3\n      swap2\n      pop\n      pop\n      jump\t// out\n        /* \"@openzeppelin/contracts/token/ERC20/ERC20.sol\":5039:5283  function transferFrom(address from, address to, uint256 value) public virtual returns (bool) {... */\n    tag_54:\n        /* \"@openzeppelin/contracts/token/ERC20/ERC20.sol\":5126:5130  bool */\n      0x00\n        /* \"@openzeppelin/contracts/utils/Context.sol\":735:745  msg.sender */\n      caller\n        /* \"@openzeppelin/contracts/token/ERC20/ERC20.sol\":5182:5219  _spendAllowance(from, spender, value) */\n      tag_141\n        /* \"@openzeppelin/contracts/token/ERC20/ERC20.sol\":5198:5202  from */\n      dup6\n        /* \"@openzeppelin/contracts/utils/Context.sol\":735:745  msg.sender */\n      dup3\n        /* \"@openzeppelin/contracts/token/ERC20/ERC20.sol\":5213:5218  value */\n      dup6\n        /* \"@openzeppelin/contracts/token/ERC20/ERC20.sol\":5182:5197  _spendAllowance */\n      tag_142\n        /* \"@openzeppelin/contracts/token/ERC20/ERC20.sol\":5182:5219  _spendAllowance(from, spender, value) */\n      jump\t// in\n    tag_141:\n        /* \"@openzeppelin/contracts/token/ERC20/ERC20.sol\":5229:5255  _transfer(from, to, value) */\n      tag_143\n        /* \"@openzeppelin/contracts/token/ERC20/ERC20.sol\":5239:5243  from */\n      dup6\n        /* \"@openzeppelin/contracts/token/ERC20/ERC20.sol\":5245:5247  to */\n      dup6\n        /* \"@openzeppelin/contracts/token/ERC20/ERC20.sol\":5249:5254  value */\n      dup6\n        /* \"@openzeppelin/contracts/token/ERC20/ERC20.sol\":5229:5238  _transfer */\n      tag_144\n        /* \"@openzeppelin/contracts/token/ERC20/ERC20.sol\":5229:5255  _transfer(from, to, value) */\n      jump\t// in\n    tag_143:\n        /* \"@openzeppelin/contracts/token/ERC20/ERC20.sol\":5272:5276  true */\n      0x01\n        /* \"@openzeppelin/contracts/token/ERC20/ERC20.sol\":5265:5276  return true */\n      swap2\n      pop\n      pop\n        /* \"@openzeppelin/contracts/token/ERC20/ERC20.sol\":5039:5283  function transferFrom(address from, address to, uint256 value) public virtual returns (bool) {... */\n    tag_139:\n      swap4\n      swap3\n      pop\n      pop\n      pop\n      jump\t// out\n        /* \"contracts/fatcat 5aug (1)/contracts/fatcat 5aug/preSale.sol\":3520:3583  function unpause() public onlyOwner {... */\n    tag_61:\n        /* \"@openzeppelin/contracts/access/Ownable.sol\":1531:1544  _checkOwner() */\n      tag_147\n        /* \"@openzeppelin/contracts/access/Ownable.sol\":1531:1542  _checkOwner */\n      tag_148\n        /* \"@openzeppelin/contracts/access/Ownable.sol\":1531:1544  _checkOwner() */\n      jump\t// in\n    tag_147:\n        /* \"contracts/fatcat 5aug (1)/contracts/fatcat 5aug/preSale.sol\":3566:3576  _unpause() */\n      tag_150\n        /* \"contracts/fatcat 5aug (1)/contracts/fatcat 5aug/preSale.sol\":3566:3574  _unpause */\n      tag_151\n        /* \"contracts/fatcat 5aug (1)/contracts/fatcat 5aug/preSale.sol\":3566:3576  _unpause() */\n      jump\t// in\n    tag_150:\n        /* \"contracts/fatcat 5aug (1)/contracts/fatcat 5aug/preSale.sol\":3520:3583  function unpause() public onlyOwner {... */\n      jump\t// out\n        /* \"@openzeppelin/contracts/token/ERC20/extensions/ERC20Burnable.sol\":618:705  function burn(uint256 value) public virtual {... */\n    tag_65:\n        /* \"@openzeppelin/contracts/token/ERC20/extensions/ERC20Burnable.sol\":672:698  _burn(_msgSender(), value) */\n      tag_153\n        /* \"@openzeppelin/contracts/utils/Context.sol\":735:745  msg.sender */\n      caller\n        /* \"@openzeppelin/contracts/token/ERC20/extensions/ERC20Burnable.sol\":692:697  value */\n      dup3\n        /* \"@openzeppelin/contracts/token/ERC20/extensions/ERC20Burnable.sol\":672:677  _burn */\n      tag_155\n        /* \"@openzeppelin/contracts/token/ERC20/extensions/ERC20Burnable.sol\":672:698  _burn(_msgSender(), value) */\n      jump\t// in\n    tag_153:\n        /* \"@openzeppelin/contracts/token/ERC20/extensions/ERC20Burnable.sol\":618:705  function burn(uint256 value) public virtual {... */\n      pop\n      jump\t// out\n        /* \"contracts/fatcat 5aug (1)/contracts/fatcat 5aug/preSale.sol\":3083:3448  function Claim(address owner, uint _amount) public {... */\n    tag_68:\n        /* \"contracts/fatcat 5aug (1)/contracts/fatcat 5aug/preSale.sol\":3173:3177  this */\n      address\n        /* \"contracts/fatcat 5aug (1)/contracts/fatcat 5aug/preSale.sol\":3152:3179  TokenRecords[address(this)] */\n      0x00\n      swap1\n      dup2\n      mstore\n        /* \"contracts/fatcat 5aug (1)/contracts/fatcat 5aug/preSale.sol\":3152:3164  TokenRecords */\n      0x0c\n        /* \"contracts/fatcat 5aug (1)/contracts/fatcat 5aug/preSale.sol\":3152:3179  TokenRecords[address(this)] */\n      0x20\n      swap1\n      dup2\n      mstore\n      0x40\n      dup1\n      dup4\n      keccak256\n      sub(shl(0xa0, 0x01), 0x01)\n        /* \"contracts/fatcat 5aug (1)/contracts/fatcat 5aug/preSale.sol\":3152:3186  TokenRecords[address(this)][owner] */\n      dup7\n      and\n      dup5\n      mstore\n      swap1\n      swap2\n      mstore\n      swap1\n      keccak256\n        /* \"contracts/fatcat 5aug (1)/contracts/fatcat 5aug/preSale.sol\":3152:3191  TokenRecords[address(this)][owner].time */\n      0x02\n      add\n      sload\n        /* \"contracts/fatcat 5aug (1)/contracts/fatcat 5aug/preSale.sol\":3200:3215  block.timestamp */\n      timestamp\n      swap1\n        /* \"contracts/fatcat 5aug (1)/contracts/fatcat 5aug/preSale.sol\":3152:3196  TokenRecords[address(this)][owner].time + 10 */\n      tag_157\n      swap1\n        /* \"contracts/fatcat 5aug (1)/contracts/fatcat 5aug/preSale.sol\":3194:3196  10 */\n      0x0a\n        /* \"contracts/fatcat 5aug (1)/contracts/fatcat 5aug/preSale.sol\":3152:3196  TokenRecords[address(this)][owner].time + 10 */\n      tag_158\n      jump\t// in\n    tag_157:\n        /* \"contracts/fatcat 5aug (1)/contracts/fatcat 5aug/preSale.sol\":3152:3215  TokenRecords[address(this)][owner].time + 10 <= block.timestamp */\n      gt\n      iszero\n        /* \"contracts/fatcat 5aug (1)/contracts/fatcat 5aug/preSale.sol\":3144:3239  require(TokenRecords[address(this)][owner].time + 10 <= block.timestamp, \"Current time exceed\") */\n      tag_159\n      jumpi\n      mload(0x40)\n      shl(0xe5, 0x461bcd)\n      dup2\n      mstore\n        /* \"#utility.yul\":5861:5863   */\n      0x20\n        /* \"contracts/fatcat 5aug (1)/contracts/fatcat 5aug/preSale.sol\":3144:3239  require(TokenRecords[address(this)][owner].time + 10 <= block.timestamp, \"Current time exceed\") */\n      0x04\n      dup3\n      add\n        /* \"#utility.yul\":5843:5864   */\n      mstore\n        /* \"#utility.yul\":5900:5902   */\n      0x13\n        /* \"#utility.yul\":5880:5898   */\n      0x24\n      dup3\n      add\n        /* \"#utility.yul\":5873:5903   */\n      mstore\n      shl(0x6a, 0x10dd5c9c995b9d081d1a5b5948195e18d95959)\n        /* \"#utility.yul\":5919:5937   */\n      0x44\n      dup3\n      add\n        /* \"#utility.yul\":5912:5961   */\n      mstore\n        /* \"#utility.yul\":5978:5996   */\n      0x64\n      add\n        /* \"contracts/fatcat 5aug (1)/contracts/fatcat 5aug/preSale.sol\":3144:3239  require(TokenRecords[address(this)][owner].time + 10 <= block.timestamp, \"Current time exceed\") */\n    tag_160:\n      mload(0x40)\n      dup1\n      swap2\n      sub\n      swap1\n      revert\n    tag_159:\n        /* \"contracts/fatcat 5aug (1)/contracts/fatcat 5aug/preSale.sol\":3278:3282  this */\n      address\n        /* \"contracts/fatcat 5aug (1)/contracts/fatcat 5aug/preSale.sol\":3257:3284  TokenRecords[address(this)] */\n      0x00\n      swap1\n      dup2\n      mstore\n        /* \"contracts/fatcat 5aug (1)/contracts/fatcat 5aug/preSale.sol\":3257:3269  TokenRecords */\n      0x0c\n        /* \"contracts/fatcat 5aug (1)/contracts/fatcat 5aug/preSale.sol\":3257:3284  TokenRecords[address(this)] */\n      0x20\n      swap1\n      dup2\n      mstore\n      0x40\n      dup1\n      dup4\n      keccak256\n      sub(shl(0xa0, 0x01), 0x01)\n        /* \"contracts/fatcat 5aug (1)/contracts/fatcat 5aug/preSale.sol\":3257:3291  TokenRecords[address(this)][owner] */\n      dup7\n      and\n      dup5\n      mstore\n      swap1\n      swap2\n      mstore\n      swap1\n      keccak256\n        /* \"contracts/fatcat 5aug (1)/contracts/fatcat 5aug/preSale.sol\":3257:3298  TokenRecords[address(this)][owner].amount */\n      0x01\n      add\n      sload\n        /* \"contracts/fatcat 5aug (1)/contracts/fatcat 5aug/preSale.sol\":3257:3309  TokenRecords[address(this)][owner].amount == _amount */\n      dup2\n      eq\n        /* \"contracts/fatcat 5aug (1)/contracts/fatcat 5aug/preSale.sol\":3249:3330  require(TokenRecords[address(this)][owner].amount == _amount, \"Amount not match\") */\n      tag_162\n      jumpi\n      mload(0x40)\n      shl(0xe5, 0x461bcd)\n      dup2\n      mstore\n        /* \"#utility.yul\":6209:6211   */\n      0x20\n        /* \"contracts/fatcat 5aug (1)/contracts/fatcat 5aug/preSale.sol\":3249:3330  require(TokenRecords[address(this)][owner].amount == _amount, \"Amount not match\") */\n      0x04\n      dup3\n      add\n        /* \"#utility.yul\":6191:6212   */\n      mstore\n        /* \"#utility.yul\":6248:6250   */\n      0x10\n        /* \"#utility.yul\":6228:6246   */\n      0x24\n      dup3\n      add\n        /* \"#utility.yul\":6221:6251   */\n      mstore\n      shl(0x83, 0x082dadeeadce840dcdee840dac2e8c6d)\n        /* \"#utility.yul\":6267:6285   */\n      0x44\n      dup3\n      add\n        /* \"#utility.yul\":6260:6306   */\n      mstore\n        /* \"#utility.yul\":6323:6341   */\n      0x64\n      add\n        /* \"contracts/fatcat 5aug (1)/contracts/fatcat 5aug/preSale.sol\":3249:3330  require(TokenRecords[address(this)][owner].amount == _amount, \"Amount not match\") */\n      tag_160\n        /* \"#utility.yul\":6007:6347   */\n      jump\n        /* \"contracts/fatcat 5aug (1)/contracts/fatcat 5aug/preSale.sol\":3249:3330  require(TokenRecords[address(this)][owner].amount == _amount, \"Amount not match\") */\n    tag_162:\n        /* \"contracts/fatcat 5aug (1)/contracts/fatcat 5aug/preSale.sol\":3340:3386  IERC20(address(this)).transfer(owner, _amount) */\n      mload(0x40)\n      shl(0xe0, 0xa9059cbb)\n      dup2\n      mstore\n      sub(shl(0xa0, 0x01), 0x01)\n        /* \"#utility.yul\":6544:6576   */\n      dup4\n      and\n        /* \"contracts/fatcat 5aug (1)/contracts/fatcat 5aug/preSale.sol\":3340:3386  IERC20(address(this)).transfer(owner, _amount) */\n      0x04\n      dup3\n      add\n        /* \"#utility.yul\":6526:6577   */\n      mstore\n        /* \"#utility.yul\":6593:6611   */\n      0x24\n      dup2\n      add\n        /* \"#utility.yul\":6586:6620   */\n      dup3\n      swap1\n      mstore\n        /* \"contracts/fatcat 5aug (1)/contracts/fatcat 5aug/preSale.sol\":3355:3359  this */\n      address\n      swap1\n        /* \"contracts/fatcat 5aug (1)/contracts/fatcat 5aug/preSale.sol\":3340:3370  IERC20(address(this)).transfer */\n      0xa9059cbb\n      swap1\n        /* \"#utility.yul\":6499:6517   */\n      0x44\n      add\n        /* \"contracts/fatcat 5aug (1)/contracts/fatcat 5aug/preSale.sol\":3340:3386  IERC20(address(this)).transfer(owner, _amount) */\n      0x20\n      mload(0x40)\n      dup1\n      dup4\n      sub\n      dup2\n      0x00\n      dup8\n      gas\n      call\n      iszero\n      dup1\n      iszero\n      tag_168\n      jumpi\n      returndatasize\n      0x00\n      dup1\n      returndatacopy\n      revert(0x00, returndatasize)\n    tag_168:\n      pop\n      pop\n      pop\n      pop\n      mload(0x40)\n      returndatasize\n      not(0x1f)\n      0x1f\n      dup3\n      add\n      and\n      dup3\n      add\n      dup1\n      0x40\n      mstore\n      pop\n      dup2\n      add\n      swap1\n      tag_169\n      swap2\n      swap1\n      tag_170\n      jump\t// in\n    tag_169:\n      pop\n      pop\n        /* \"contracts/fatcat 5aug (1)/contracts/fatcat 5aug/preSale.sol\":3417:3421  this */\n      address\n        /* \"contracts/fatcat 5aug (1)/contracts/fatcat 5aug/preSale.sol\":3440:3441  0 */\n      0x00\n        /* \"contracts/fatcat 5aug (1)/contracts/fatcat 5aug/preSale.sol\":3396:3423  TokenRecords[address(this)] */\n      swap1\n      dup2\n      mstore\n        /* \"contracts/fatcat 5aug (1)/contracts/fatcat 5aug/preSale.sol\":3396:3408  TokenRecords */\n      0x0c\n        /* \"contracts/fatcat 5aug (1)/contracts/fatcat 5aug/preSale.sol\":3396:3423  TokenRecords[address(this)] */\n      0x20\n      swap1\n      dup2\n      mstore\n      0x40\n      dup1\n      dup4\n      keccak256\n      sub(shl(0xa0, 0x01), 0x01)\n        /* \"contracts/fatcat 5aug (1)/contracts/fatcat 5aug/preSale.sol\":3396:3430  TokenRecords[address(this)][owner] */\n      swap5\n      swap1\n      swap5\n      and\n      dup4\n      mstore\n      swap3\n      swap1\n      mstore\n      swap1\n      dup2\n      keccak256\n        /* \"contracts/fatcat 5aug (1)/contracts/fatcat 5aug/preSale.sol\":3396:3437  TokenRecords[address(this)][owner].amount */\n      0x01\n      add\n        /* \"contracts/fatcat 5aug (1)/contracts/fatcat 5aug/preSale.sol\":3396:3441  TokenRecords[address(this)][owner].amount = 0 */\n      sstore\n        /* \"contracts/fatcat 5aug (1)/contracts/fatcat 5aug/preSale.sol\":3083:3448  function Claim(address owner, uint _amount) public {... */\n      jump\t// out\n        /* \"@openzeppelin/contracts/access/Ownable.sol\":2293:2394  function renounceOwnership() public virtual onlyOwner {... */\n    tag_82:\n        /* \"@openzeppelin/contracts/access/Ownable.sol\":1531:1544  _checkOwner() */\n      tag_174\n        /* \"@openzeppelin/contracts/access/Ownable.sol\":1531:1542  _checkOwner */\n      tag_148\n        /* \"@openzeppelin/contracts/access/Ownable.sol\":1531:1544  _checkOwner() */\n      jump\t// in\n    tag_174:\n        /* \"@openzeppelin/contracts/access/Ownable.sol\":2357:2387  _transferOwnership(address(0)) */\n      tag_150\n        /* \"@openzeppelin/contracts/access/Ownable.sol\":2384:2385  0 */\n      0x00\n        /* \"@openzeppelin/contracts/access/Ownable.sol\":2357:2375  _transferOwnership */\n      tag_177\n        /* \"@openzeppelin/contracts/access/Ownable.sol\":2357:2387  _transferOwnership(address(0)) */\n      jump\t// in\n        /* \"@openzeppelin/contracts/token/ERC20/extensions/ERC20Burnable.sol\":1021:1179  function burnFrom(address account, uint256 value) public virtual {... */\n    tag_89:\n        /* \"@openzeppelin/contracts/token/ERC20/extensions/ERC20Burnable.sol\":1096:1141  _spendAllowance(account, _msgSender(), value) */\n      tag_179\n        /* \"@openzeppelin/contracts/token/ERC20/extensions/ERC20Burnable.sol\":1112:1119  account */\n      dup3\n        /* \"@openzeppelin/contracts/utils/Context.sol\":735:745  msg.sender */\n      caller\n        /* \"@openzeppelin/contracts/token/ERC20/extensions/ERC20Burnable.sol\":1135:1140  value */\n      dup4\n        /* \"@openzeppelin/contracts/token/ERC20/extensions/ERC20Burnable.sol\":1096:1111  _spendAllowance */\n      tag_142\n        /* \"@openzeppelin/contracts/token/ERC20/extensions/ERC20Burnable.sol\":1096:1141  _spendAllowance(account, _msgSender(), value) */\n      jump\t// in\n    tag_179:\n        /* \"@openzeppelin/contracts/token/ERC20/extensions/ERC20Burnable.sol\":1151:1172  _burn(account, value) */\n      tag_181\n        /* \"@openzeppelin/contracts/token/ERC20/extensions/ERC20Burnable.sol\":1157:1164  account */\n      dup3\n        /* \"@openzeppelin/contracts/token/ERC20/extensions/ERC20Burnable.sol\":1166:1171  value */\n      dup3\n        /* \"@openzeppelin/contracts/token/ERC20/extensions/ERC20Burnable.sol\":1151:1156  _burn */\n      tag_155\n        /* \"@openzeppelin/contracts/token/ERC20/extensions/ERC20Burnable.sol\":1151:1172  _burn(account, value) */\n      jump\t// in\n    tag_181:\n        /* \"@openzeppelin/contracts/token/ERC20/extensions/ERC20Burnable.sol\":1021:1179  function burnFrom(address account, uint256 value) public virtual {... */\n      pop\n      pop\n      jump\t// out\n        /* \"contracts/fatcat 5aug (1)/contracts/fatcat 5aug/preSale.sol\":3456:3515  function pause() public onlyOwner {... */\n    tag_91:\n        /* \"@openzeppelin/contracts/access/Ownable.sol\":1531:1544  _checkOwner() */\n      tag_183\n        /* \"@openzeppelin/contracts/access/Ownable.sol\":1531:1542  _checkOwner */\n      tag_148\n        /* \"@openzeppelin/contracts/access/Ownable.sol\":1531:1544  _checkOwner() */\n      jump\t// in\n    tag_183:\n        /* \"contracts/fatcat 5aug (1)/contracts/fatcat 5aug/preSale.sol\":3500:3508  _pause() */\n      tag_150\n        /* \"contracts/fatcat 5aug (1)/contracts/fatcat 5aug/preSale.sol\":3500:3506  _pause */\n      tag_186\n        /* \"contracts/fatcat 5aug (1)/contracts/fatcat 5aug/preSale.sol\":3500:3508  _pause() */\n      jump\t// in\n        /* \"contracts/fatcat 5aug (1)/contracts/fatcat 5aug/preSale.sol\":2006:3075  function buyTokens(uint256 _amount,   currency choice) public nonReentrant {... */\n    tag_95:\n        /* \"@openzeppelin/contracts/security/ReentrancyGuard.sol\":2261:2282  _nonReentrantBefore() */\n      tag_188\n        /* \"@openzeppelin/contracts/security/ReentrancyGuard.sol\":2261:2280  _nonReentrantBefore */\n      tag_189\n        /* \"@openzeppelin/contracts/security/ReentrancyGuard.sol\":2261:2282  _nonReentrantBefore() */\n      jump\t// in\n    tag_188:\n        /* \"contracts/fatcat 5aug (1)/contracts/fatcat 5aug/preSale.sol\":2246:2260  _currencyCoice */\n      0x0d\n        /* \"contracts/fatcat 5aug (1)/contracts/fatcat 5aug/preSale.sol\":2246:2275  _currencyCoice[currency.USDT] */\n      0x20\n      mstore\n        /* \"contracts/fatcat 5aug (1)/contracts/fatcat 5aug/preSale.sol\":2157:2179  uint256 currencyinUSDT */\n      0x00\n        /* \"contracts/fatcat 5aug (1)/contracts/fatcat 5aug/preSale.sol\":2246:2275  _currencyCoice[currency.USDT] */\n      0x81955a0a11e65eac625c29e8882660bae4e165a75d72780094acae8ece9a29ee\n        /* \"contracts/fatcat 5aug (1)/contracts/fatcat 5aug/preSale.sol\":2246:2279  _currencyCoice[currency.USDT] = 0 */\n      dup2\n      swap1\n      sstore\n        /* \"contracts/fatcat 5aug (1)/contracts/fatcat 5aug/preSale.sol\":2182:2183  1 */\n      0x01\n        /* \"contracts/fatcat 5aug (1)/contracts/fatcat 5aug/preSale.sol\":2289:2317  _currencyCoice[currency.BNB] */\n      dup1\n      dup3\n      mstore\n      0xfd54ff1ed53f34a900b24c5ba64f85761163b5d82d98a47b9bd80e45466993c5\n        /* \"contracts/fatcat 5aug (1)/contracts/fatcat 5aug/preSale.sol\":2289:2321  _currencyCoice[currency.BNB] = 1 */\n      dup2\n      swap1\n      sstore\n        /* \"contracts/fatcat 5aug (1)/contracts/fatcat 5aug/preSale.sol\":2331:2351  numberOfTransactions */\n      0x08\n        /* \"@openzeppelin/contracts/utils/Counters.sol\":1032:1051  counter._value += 1 */\n      dup1\n      sload\n      dup3\n      add\n      swap1\n      sstore\n        /* \"contracts/fatcat 5aug (1)/contracts/fatcat 5aug/preSale.sol\":2182:2183  1 */\n      swap1\n        /* \"contracts/fatcat 5aug (1)/contracts/fatcat 5aug/preSale.sol\":2214:2217  317 */\n      0x013d\n      swap1\n        /* \"contracts/fatcat 5aug (1)/contracts/fatcat 5aug/preSale.sol\":2376:2390  _currencyCoice */\n      0x0d\n        /* \"contracts/fatcat 5aug (1)/contracts/fatcat 5aug/preSale.sol\":2376:2398  _currencyCoice[choice] */\n      0x00\n        /* \"contracts/fatcat 5aug (1)/contracts/fatcat 5aug/preSale.sol\":2391:2397  choice */\n      dup6\n        /* \"contracts/fatcat 5aug (1)/contracts/fatcat 5aug/preSale.sol\":2376:2398  _currencyCoice[choice] */\n      0x01\n      dup2\n      gt\n      iszero\n      tag_203\n      jumpi\n      tag_203\n      tag_193\n      jump\t// in\n    tag_203:\n      0x01\n      dup2\n      gt\n      iszero\n      tag_205\n      jumpi\n      tag_205\n      tag_193\n      jump\t// in\n    tag_205:\n      dup2\n      mstore\n      0x20\n      add\n      swap1\n      dup2\n      mstore\n      0x20\n      add\n      0x00\n      keccak256\n      sload\n        /* \"contracts/fatcat 5aug (1)/contracts/fatcat 5aug/preSale.sol\":2403:2404  0 */\n      0x00\n        /* \"contracts/fatcat 5aug (1)/contracts/fatcat 5aug/preSale.sol\":2376:2404  _currencyCoice[choice] ==  0 */\n      sub\n        /* \"contracts/fatcat 5aug (1)/contracts/fatcat 5aug/preSale.sol\":2373:2464  if(_currencyCoice[choice] ==  0){ ... */\n      tag_206\n      jumpi\n        /* \"contracts/fatcat 5aug (1)/contracts/fatcat 5aug/preSale.sol\":2429:2452  _amount* currencyinUSDT */\n      tag_207\n        /* \"contracts/fatcat 5aug (1)/contracts/fatcat 5aug/preSale.sol\":2438:2452  currencyinUSDT */\n      dup4\n        /* \"contracts/fatcat 5aug (1)/contracts/fatcat 5aug/preSale.sol\":2429:2436  _amount */\n      dup7\n        /* \"contracts/fatcat 5aug (1)/contracts/fatcat 5aug/preSale.sol\":2429:2452  _amount* currencyinUSDT */\n      tag_208\n      jump\t// in\n    tag_207:\n        /* \"contracts/fatcat 5aug (1)/contracts/fatcat 5aug/preSale.sol\":2420:2453  cost  = (_amount* currencyinUSDT) */\n      swap1\n      pop\n        /* \"contracts/fatcat 5aug (1)/contracts/fatcat 5aug/preSale.sol\":2373:2464  if(_currencyCoice[choice] ==  0){ ... */\n    tag_206:\n        /* \"contracts/fatcat 5aug (1)/contracts/fatcat 5aug/preSale.sol\":2477:2491  _currencyCoice */\n      0x0d\n        /* \"contracts/fatcat 5aug (1)/contracts/fatcat 5aug/preSale.sol\":2477:2499  _currencyCoice[choice] */\n      0x00\n        /* \"contracts/fatcat 5aug (1)/contracts/fatcat 5aug/preSale.sol\":2492:2498  choice */\n      dup6\n        /* \"contracts/fatcat 5aug (1)/contracts/fatcat 5aug/preSale.sol\":2477:2499  _currencyCoice[choice] */\n      0x01\n      dup2\n      gt\n      iszero\n      tag_210\n      jumpi\n      tag_210\n      tag_193\n      jump\t// in\n    tag_210:\n      0x01\n      dup2\n      gt\n      iszero\n      tag_212\n      jumpi\n      tag_212\n      tag_193\n      jump\t// in\n    tag_212:\n      dup2\n      mstore\n      0x20\n      add\n      swap1\n      dup2\n      mstore\n      0x20\n      add\n      0x00\n      keccak256\n      sload\n        /* \"contracts/fatcat 5aug (1)/contracts/fatcat 5aug/preSale.sol\":2504:2505  1 */\n      0x01\n        /* \"contracts/fatcat 5aug (1)/contracts/fatcat 5aug/preSale.sol\":2477:2505  _currencyCoice[choice] ==  1 */\n      sub\n        /* \"contracts/fatcat 5aug (1)/contracts/fatcat 5aug/preSale.sol\":2474:2564  if(_currencyCoice[choice] ==  1){ ... */\n      tag_213\n      jumpi\n        /* \"contracts/fatcat 5aug (1)/contracts/fatcat 5aug/preSale.sol\":2530:2552  _amount* currencyinBNB */\n      tag_214\n        /* \"contracts/fatcat 5aug (1)/contracts/fatcat 5aug/preSale.sol\":2539:2552  currencyinBNB */\n      dup3\n        /* \"contracts/fatcat 5aug (1)/contracts/fatcat 5aug/preSale.sol\":2530:2537  _amount */\n      dup7\n        /* \"contracts/fatcat 5aug (1)/contracts/fatcat 5aug/preSale.sol\":2530:2552  _amount* currencyinBNB */\n      tag_208\n      jump\t// in\n    tag_214:\n        /* \"contracts/fatcat 5aug (1)/contracts/fatcat 5aug/preSale.sol\":2521:2553  cost  = (_amount* currencyinBNB) */\n      swap1\n      pop\n        /* \"contracts/fatcat 5aug (1)/contracts/fatcat 5aug/preSale.sol\":2474:2564  if(_currencyCoice[choice] ==  1){ ... */\n    tag_213:\n        /* \"contracts/fatcat 5aug (1)/contracts/fatcat 5aug/preSale.sol\":2588:2598  msg.sender */\n      caller\n        /* \"contracts/fatcat 5aug (1)/contracts/fatcat 5aug/preSale.sol\":2573:2599  NumberOfBuying[msg.sender] */\n      0x00\n      swap1\n      dup2\n      mstore\n        /* \"contracts/fatcat 5aug (1)/contracts/fatcat 5aug/preSale.sol\":2573:2587  NumberOfBuying */\n      0x0e\n        /* \"contracts/fatcat 5aug (1)/contracts/fatcat 5aug/preSale.sol\":2573:2599  NumberOfBuying[msg.sender] */\n      0x20\n      mstore\n      0x40\n      dup2\n      keccak256\n        /* \"contracts/fatcat 5aug (1)/contracts/fatcat 5aug/preSale.sol\":2573:2601  NumberOfBuying[msg.sender]++ */\n      dup1\n      sload\n      swap2\n      tag_215\n      dup4\n      tag_216\n      jump\t// in\n    tag_215:\n      swap1\n      swap2\n      sstore\n      pop\n      pop\n        /* \"contracts/fatcat 5aug (1)/contracts/fatcat 5aug/preSale.sol\":2657:2667  msg.sender */\n      caller\n        /* \"contracts/fatcat 5aug (1)/contracts/fatcat 5aug/preSale.sol\":2611:2639  uint currentTransactionCount */\n      0x00\n        /* \"contracts/fatcat 5aug (1)/contracts/fatcat 5aug/preSale.sol\":2642:2668  NumberOfBuying[msg.sender] */\n      dup2\n      dup2\n      mstore\n        /* \"contracts/fatcat 5aug (1)/contracts/fatcat 5aug/preSale.sol\":2642:2656  NumberOfBuying */\n      0x0e\n        /* \"contracts/fatcat 5aug (1)/contracts/fatcat 5aug/preSale.sol\":2642:2668  NumberOfBuying[msg.sender] */\n      0x20\n      swap1\n      dup2\n      mstore\n      0x40\n      swap2\n      dup3\n      swap1\n      keccak256\n      sload\n        /* \"contracts/fatcat 5aug (1)/contracts/fatcat 5aug/preSale.sol\":2729:2796  userRecord(msg.sender, _amount, currencyinUSDT, cost, true, choice) */\n      dup3\n      mload\n      0xc0\n      dup2\n      add\n      dup5\n      mstore\n      swap4\n      dup5\n      mstore\n      swap1\n      dup4\n      add\n      dup9\n      swap1\n      mstore\n      swap1\n      dup3\n      add\n      dup6\n      swap1\n      mstore\n      0x60\n      dup3\n      add\n      dup4\n      swap1\n      mstore\n        /* \"contracts/fatcat 5aug (1)/contracts/fatcat 5aug/preSale.sol\":2783:2787  true */\n      0x01\n        /* \"contracts/fatcat 5aug (1)/contracts/fatcat 5aug/preSale.sol\":2729:2796  userRecord(msg.sender, _amount, currencyinUSDT, cost, true, choice) */\n      0x80\n      dup4\n      add\n      dup2\n      swap1\n      mstore\n        /* \"contracts/fatcat 5aug (1)/contracts/fatcat 5aug/preSale.sol\":2642:2668  NumberOfBuying[msg.sender] */\n      swap1\n      swap2\n        /* \"contracts/fatcat 5aug (1)/contracts/fatcat 5aug/preSale.sol\":2729:2796  userRecord(msg.sender, _amount, currencyinUSDT, cost, true, choice) */\n      swap1\n      0xa0\n      dup3\n      add\n      swap1\n        /* \"contracts/fatcat 5aug (1)/contracts/fatcat 5aug/preSale.sol\":2789:2795  choice */\n      dup8\n      swap1\n        /* \"contracts/fatcat 5aug (1)/contracts/fatcat 5aug/preSale.sol\":2729:2796  userRecord(msg.sender, _amount, currencyinUSDT, cost, true, choice) */\n      dup2\n      gt\n      iszero\n      tag_218\n      jumpi\n      tag_218\n      tag_193\n      jump\t// in\n    tag_218:\n      swap1\n      mstore\n        /* \"contracts/fatcat 5aug (1)/contracts/fatcat 5aug/preSale.sol\":2690:2700  msg.sender */\n      caller\n        /* \"contracts/fatcat 5aug (1)/contracts/fatcat 5aug/preSale.sol\":2678:2701  TokenRecord[msg.sender] */\n      0x00\n      swap1\n      dup2\n      mstore\n        /* \"contracts/fatcat 5aug (1)/contracts/fatcat 5aug/preSale.sol\":2678:2689  TokenRecord */\n      0x0b\n        /* \"contracts/fatcat 5aug (1)/contracts/fatcat 5aug/preSale.sol\":2678:2701  TokenRecord[msg.sender] */\n      0x20\n      swap1\n      dup2\n      mstore\n      0x40\n      dup1\n      dup4\n      keccak256\n        /* \"contracts/fatcat 5aug (1)/contracts/fatcat 5aug/preSale.sol\":2678:2726  TokenRecord[msg.sender][currentTransactionCount] */\n      dup6\n      dup5\n      mstore\n      dup3\n      mstore\n      swap2\n      dup3\n      swap1\n      keccak256\n        /* \"contracts/fatcat 5aug (1)/contracts/fatcat 5aug/preSale.sol\":2678:2796  TokenRecord[msg.sender][currentTransactionCount] = userRecord(msg.sender, _amount, currencyinUSDT, cost, true, choice) */\n      dup4\n      mload\n      dup2\n      sload\n      not(sub(shl(0xa0, 0x01), 0x01))\n      and\n      sub(shl(0xa0, 0x01), 0x01)\n      swap1\n      swap2\n      and\n      or\n      dup2\n      sstore\n      swap1\n      dup4\n      add\n      mload\n      0x01\n      dup1\n      dup4\n      add\n      swap2\n      swap1\n      swap2\n      sstore\n      swap2\n      dup4\n      add\n      mload\n      0x02\n      dup3\n      add\n      sstore\n      0x60\n      dup4\n      add\n      mload\n      0x03\n      dup3\n      add\n      sstore\n      0x80\n      dup4\n      add\n      mload\n      0x04\n      dup3\n      add\n      dup1\n      sload\n      not(0xff)\n      dup2\n      and\n      swap3\n      iszero\n      iszero\n      swap3\n      dup4\n      or\n      dup3\n      sstore\n      0xa0\n      dup7\n      add\n      mload\n        /* \"contracts/fatcat 5aug (1)/contracts/fatcat 5aug/preSale.sol\":2678:2726  TokenRecord[msg.sender][currentTransactionCount] */\n      swap4\n      swap5\n        /* \"contracts/fatcat 5aug (1)/contracts/fatcat 5aug/preSale.sol\":2678:2796  TokenRecord[msg.sender][currentTransactionCount] = userRecord(msg.sender, _amount, currencyinUSDT, cost, true, choice) */\n      swap2\n      swap3\n      not(0xffff)\n      swap1\n      swap2\n      and\n      not(0xff00)\n      swap1\n      swap2\n      and\n      or\n      swap1\n      0x0100\n      swap1\n      dup5\n      swap1\n      dup2\n      gt\n      iszero\n      tag_220\n      jumpi\n      tag_220\n      tag_193\n      jump\t// in\n    tag_220:\n      mul\n      or\n      swap1\n      sstore\n      pop\n      pop\n        /* \"contracts/fatcat 5aug (1)/contracts/fatcat 5aug/preSale.sol\":2914:2993  userDetail(currencyinUSDT, _amount, block.timestamp, msg.sender, address(this)) */\n      0x40\n      dup1\n      mload\n      0xa0\n      dup2\n      add\n      dup3\n      mstore\n      dup7\n      dup2\n      mstore\n      0x20\n      dup1\n      dup3\n      add\n      dup11\n      dup2\n      mstore\n        /* \"contracts/fatcat 5aug (1)/contracts/fatcat 5aug/preSale.sol\":2950:2965  block.timestamp */\n      timestamp\n        /* \"contracts/fatcat 5aug (1)/contracts/fatcat 5aug/preSale.sol\":2914:2993  userDetail(currencyinUSDT, _amount, block.timestamp, msg.sender, address(this)) */\n      dup4\n      dup6\n      add\n      swap1\n      dup2\n      mstore\n        /* \"contracts/fatcat 5aug (1)/contracts/fatcat 5aug/preSale.sol\":2967:2977  msg.sender */\n      caller\n        /* \"contracts/fatcat 5aug (1)/contracts/fatcat 5aug/preSale.sol\":2914:2993  userDetail(currencyinUSDT, _amount, block.timestamp, msg.sender, address(this)) */\n      0x60\n      dup6\n      add\n      dup2\n      dup2\n      mstore\n        /* \"contracts/fatcat 5aug (1)/contracts/fatcat 5aug/preSale.sol\":2987:2991  this */\n      address\n        /* \"contracts/fatcat 5aug (1)/contracts/fatcat 5aug/preSale.sol\":2914:2993  userDetail(currencyinUSDT, _amount, block.timestamp, msg.sender, address(this)) */\n      0x80\n      dup8\n      add\n      dup2\n      dup2\n      mstore\n      0x00\n        /* \"contracts/fatcat 5aug (1)/contracts/fatcat 5aug/preSale.sol\":2872:2899  TokenRecords[address(this)] */\n      swap2\n      dup3\n      mstore\n        /* \"contracts/fatcat 5aug (1)/contracts/fatcat 5aug/preSale.sol\":2872:2884  TokenRecords */\n      0x0c\n        /* \"contracts/fatcat 5aug (1)/contracts/fatcat 5aug/preSale.sol\":2872:2899  TokenRecords[address(this)] */\n      dup8\n      mstore\n      dup9\n      dup3\n      keccak256\n        /* \"contracts/fatcat 5aug (1)/contracts/fatcat 5aug/preSale.sol\":2872:2911  TokenRecords[address(this)][msg.sender] */\n      dup5\n      dup4\n      mstore\n      swap1\n      swap7\n      mstore\n      swap7\n      swap1\n      swap7\n      keccak256\n        /* \"contracts/fatcat 5aug (1)/contracts/fatcat 5aug/preSale.sol\":2872:2993  TokenRecords[address(this)][msg.sender] = userDetail(currencyinUSDT, _amount, block.timestamp, msg.sender, address(this)) */\n      swap5\n      mload\n      dup6\n      sstore\n      swap2\n      mload\n      0x01\n      dup6\n      add\n      sstore\n      mload\n      0x02\n      dup5\n      add\n      sstore\n      swap3\n      mload\n      0x03\n      dup4\n      add\n      dup1\n      sload\n      not(sub(shl(0xa0, 0x01), 0x01))\n      swap1\n      dup2\n      and\n      sub(shl(0xa0, 0x01), 0x01)\n      swap4\n      dup5\n      and\n      or\n      swap1\n      swap2\n      sstore\n      swap2\n      mload\n      0x04\n      swap1\n      swap4\n      add\n      dup1\n      sload\n      swap1\n      swap3\n      and\n      swap3\n      dup2\n      and\n      swap3\n      swap1\n      swap3\n      or\n      swap1\n      sstore\n        /* \"@openzeppelin/contracts/access/Ownable.sol\":1710:1716  _owner */\n      sload(0x05)\n        /* \"contracts/fatcat 5aug (1)/contracts/fatcat 5aug/preSale.sol\":3003:3067  IERC20(UsdcContract).safeTransferFrom(msg.sender, owner() ,cost) */\n      tag_221\n      swap4\n      pop\n        /* \"@openzeppelin/contracts/access/Ownable.sol\":1710:1716  _owner */\n      0x0100\n      swap1\n      div\n      and\n      sub(shl(0xa0, 0x01), 0x01)\n        /* \"contracts/fatcat 5aug (1)/contracts/fatcat 5aug/preSale.sol\":3010:3022  UsdcContract */\n      immutable(\"0x93ad96917475117018167204867bb7b7d508b38811a18e6cdc5a086e50cc1943\")\n        /* \"contracts/fatcat 5aug (1)/contracts/fatcat 5aug/preSale.sol\":3003:3040  IERC20(UsdcContract).safeTransferFrom */\n      and\n      swap2\n        /* \"contracts/fatcat 5aug (1)/contracts/fatcat 5aug/preSale.sol\":3003:3067  IERC20(UsdcContract).safeTransferFrom(msg.sender, owner() ,cost) */\n      swap1\n        /* \"contracts/fatcat 5aug (1)/contracts/fatcat 5aug/preSale.sol\":3062:3066  cost */\n      dup6\n        /* \"contracts/fatcat 5aug (1)/contracts/fatcat 5aug/preSale.sol\":3003:3040  IERC20(UsdcContract).safeTransferFrom */\n      tag_223\n        /* \"contracts/fatcat 5aug (1)/contracts/fatcat 5aug/preSale.sol\":3003:3067  IERC20(UsdcContract).safeTransferFrom(msg.sender, owner() ,cost) */\n      jump\t// in\n    tag_221:\n        /* \"contracts/fatcat 5aug (1)/contracts/fatcat 5aug/preSale.sol\":2081:3075  {... */\n      pop\n      pop\n      pop\n      pop\n        /* \"@openzeppelin/contracts/security/ReentrancyGuard.sol\":2303:2323  _nonReentrantAfter() */\n      tag_181\n        /* \"@openzeppelin/contracts/security/ReentrancyGuard.sol\":1716:1717  1 */\n      0x01\n        /* \"@openzeppelin/contracts/security/ReentrancyGuard.sol\":2809:2816  _status */\n      0x06\n        /* \"@openzeppelin/contracts/security/ReentrancyGuard.sol\":2809:2831  _status = _NOT_ENTERED */\n      sstore\n        /* \"@openzeppelin/contracts/security/ReentrancyGuard.sol\":2629:2838  function _nonReentrantAfter() private {... */\n      jump\n        /* \"@openzeppelin/contracts/token/ERC20/ERC20.sol\":2276:2369  function symbol() public view virtual returns (string memory) {... */\n    tag_101:\n        /* \"@openzeppelin/contracts/token/ERC20/ERC20.sol\":2323:2336  string memory */\n      0x60\n        /* \"@openzeppelin/contracts/token/ERC20/ERC20.sol\":2355:2362  _symbol */\n      0x04\n        /* \"@openzeppelin/contracts/token/ERC20/ERC20.sol\":2348:2362  return _symbol */\n      dup1\n      sload\n      tag_127\n      swap1\n      tag_128\n      jump\t// in\n        /* \"@openzeppelin/contracts/token/ERC20/ERC20.sol\":3610:3788  function transfer(address to, uint256 value) public virtual returns (bool) {... */\n    tag_108:\n        /* \"@openzeppelin/contracts/token/ERC20/ERC20.sol\":3679:3683  bool */\n      0x00\n        /* \"@openzeppelin/contracts/utils/Context.sol\":735:745  msg.sender */\n      caller\n        /* \"@openzeppelin/contracts/token/ERC20/ERC20.sol\":3733:3760  _transfer(owner, to, value) */\n      tag_136\n        /* \"@openzeppelin/contracts/utils/Context.sol\":735:745  msg.sender */\n      dup2\n        /* \"@openzeppelin/contracts/token/ERC20/ERC20.sol\":3750:3752  to */\n      dup6\n        /* \"@openzeppelin/contracts/token/ERC20/ERC20.sol\":3754:3759  value */\n      dup6\n        /* \"@openzeppelin/contracts/token/ERC20/ERC20.sol\":3733:3742  _transfer */\n      tag_144\n        /* \"@openzeppelin/contracts/token/ERC20/ERC20.sol\":3733:3760  _transfer(owner, to, value) */\n      jump\t// in\n        /* \"contracts/fatcat 5aug (1)/contracts/fatcat 5aug/preSale.sol\":1844:1988  function AdminAddToken(uint _amount) public onlyOwner{... */\n    tag_112:\n        /* \"@openzeppelin/contracts/access/Ownable.sol\":1531:1544  _checkOwner() */\n      tag_237\n        /* \"@openzeppelin/contracts/access/Ownable.sol\":1531:1542  _checkOwner */\n      tag_148\n        /* \"@openzeppelin/contracts/access/Ownable.sol\":1531:1544  _checkOwner() */\n      jump\t// in\n    tag_237:\n        /* \"contracts/fatcat 5aug (1)/contracts/fatcat 5aug/preSale.sol\":1907:1981  IERC20(address(this)).safeTransferFrom(msg.sender, address(this) ,_amount) */\n      tag_153\n        /* \"contracts/fatcat 5aug (1)/contracts/fatcat 5aug/preSale.sol\":1966:1970  this */\n      address\n        /* \"contracts/fatcat 5aug (1)/contracts/fatcat 5aug/preSale.sol\":1946:1956  msg.sender */\n      caller\n        /* \"contracts/fatcat 5aug (1)/contracts/fatcat 5aug/preSale.sol\":1966:1970  this */\n      dup2\n        /* \"contracts/fatcat 5aug (1)/contracts/fatcat 5aug/preSale.sol\":1973:1980  _amount */\n      dup5\n        /* \"contracts/fatcat 5aug (1)/contracts/fatcat 5aug/preSale.sol\":1907:1945  IERC20(address(this)).safeTransferFrom */\n      tag_223\n        /* \"contracts/fatcat 5aug (1)/contracts/fatcat 5aug/preSale.sol\":1907:1981  IERC20(address(this)).safeTransferFrom(msg.sender, address(this) ,_amount) */\n      jump\t// in\n        /* \"@openzeppelin/contracts/access/Ownable.sol\":2543:2758  function transferOwnership(address newOwner) public virtual onlyOwner {... */\n    tag_125:\n        /* \"@openzeppelin/contracts/access/Ownable.sol\":1531:1544  _checkOwner() */\n      tag_242\n        /* \"@openzeppelin/contracts/access/Ownable.sol\":1531:1542  _checkOwner */\n      tag_148\n        /* \"@openzeppelin/contracts/access/Ownable.sol\":1531:1544  _checkOwner() */\n      jump\t// in\n    tag_242:\n      sub(shl(0xa0, 0x01), 0x01)\n        /* \"@openzeppelin/contracts/access/Ownable.sol\":2627:2649  newOwner == address(0) */\n      dup2\n      and\n        /* \"@openzeppelin/contracts/access/Ownable.sol\":2623:2714  if (newOwner == address(0)) {... */\n      tag_244\n      jumpi\n        /* \"@openzeppelin/contracts/access/Ownable.sol\":2672:2703  OwnableInvalidOwner(address(0)) */\n      mload(0x40)\n      shl(0xe0, 0x1e4fbdf7)\n      dup2\n      mstore\n        /* \"@openzeppelin/contracts/access/Ownable.sol\":2700:2701  0 */\n      0x00\n        /* \"@openzeppelin/contracts/access/Ownable.sol\":2672:2703  OwnableInvalidOwner(address(0)) */\n      0x04\n      dup3\n      add\n        /* \"#utility.yul\":3563:3614   */\n      mstore\n        /* \"#utility.yul\":3536:3554   */\n      0x24\n      add\n        /* \"@openzeppelin/contracts/access/Ownable.sol\":2672:2703  OwnableInvalidOwner(address(0)) */\n      tag_160\n        /* \"#utility.yul\":3389:3620   */\n      jump\n        /* \"@openzeppelin/contracts/access/Ownable.sol\":2623:2714  if (newOwner == address(0)) {... */\n    tag_244:\n        /* \"@openzeppelin/contracts/access/Ownable.sol\":2723:2751  _transferOwnership(newOwner) */\n      tag_153\n        /* \"@openzeppelin/contracts/access/Ownable.sol\":2742:2750  newOwner */\n      dup2\n        /* \"@openzeppelin/contracts/access/Ownable.sol\":2723:2741  _transferOwnership */\n      tag_177\n        /* \"@openzeppelin/contracts/access/Ownable.sol\":2723:2751  _transferOwnership(newOwner) */\n      jump\t// in\n        /* \"@openzeppelin/contracts/token/ERC20/ERC20.sol\":8989:9117  function _approve(address owner, address spender, uint256 value) internal {... */\n    tag_137:\n        /* \"@openzeppelin/contracts/token/ERC20/ERC20.sol\":9073:9110  _approve(owner, spender, value, true) */\n      tag_249\n        /* \"@openzeppelin/contracts/token/ERC20/ERC20.sol\":9082:9087  owner */\n      dup4\n        /* \"@openzeppelin/contracts/token/ERC20/ERC20.sol\":9089:9096  spender */\n      dup4\n        /* \"@openzeppelin/contracts/token/ERC20/ERC20.sol\":9098:9103  value */\n      dup4\n        /* \"@openzeppelin/contracts/token/ERC20/ERC20.sol\":9105:9109  true */\n      0x01\n        /* \"@openzeppelin/contracts/token/ERC20/ERC20.sol\":9073:9081  _approve */\n      tag_250\n        /* \"@openzeppelin/contracts/token/ERC20/ERC20.sol\":9073:9110  _approve(owner, spender, value, true) */\n      jump\t// in\n    tag_249:\n        /* \"@openzeppelin/contracts/token/ERC20/ERC20.sol\":8989:9117  function _approve(address owner, address spender, uint256 value) internal {... */\n      pop\n      pop\n      pop\n      jump\t// out\n        /* \"@openzeppelin/contracts/token/ERC20/ERC20.sol\":10663:11140  function _spendAllowance(address owner, address spender, uint256 value) internal virtual {... */\n    tag_142:\n      sub(shl(0xa0, 0x01), 0x01)\n        /* \"@openzeppelin/contracts/token/ERC20/ERC20.sol\":3952:3970  _allowances[owner] */\n      dup4\n      dup2\n      and\n        /* \"@openzeppelin/contracts/token/ERC20/ERC20.sol\":10762:10786  uint256 currentAllowance */\n      0x00\n        /* \"@openzeppelin/contracts/token/ERC20/ERC20.sol\":3952:3970  _allowances[owner] */\n      swap1\n      dup2\n      mstore\n        /* \"@openzeppelin/contracts/token/ERC20/ERC20.sol\":3952:3963  _allowances */\n      0x01\n        /* \"@openzeppelin/contracts/token/ERC20/ERC20.sol\":3952:3970  _allowances[owner] */\n      0x20\n      swap1\n      dup2\n      mstore\n      0x40\n      dup1\n      dup4\n      keccak256\n        /* \"@openzeppelin/contracts/token/ERC20/ERC20.sol\":3952:3979  _allowances[owner][spender] */\n      swap4\n      dup7\n      and\n      dup4\n      mstore\n      swap3\n      swap1\n      mstore\n      keccak256\n      sload\n      not(0x00)\n        /* \"@openzeppelin/contracts/token/ERC20/ERC20.sol\":10828:10865  currentAllowance != type(uint256).max */\n      dup2\n      eq\n        /* \"@openzeppelin/contracts/token/ERC20/ERC20.sol\":10824:11134  if (currentAllowance != type(uint256).max) {... */\n      tag_257\n      jumpi\n        /* \"@openzeppelin/contracts/token/ERC20/ERC20.sol\":10904:10909  value */\n      dup2\n        /* \"@openzeppelin/contracts/token/ERC20/ERC20.sol\":10885:10901  currentAllowance */\n      dup2\n        /* \"@openzeppelin/contracts/token/ERC20/ERC20.sol\":10885:10909  currentAllowance < value */\n      lt\n        /* \"@openzeppelin/contracts/token/ERC20/ERC20.sol\":10881:11011  if (currentAllowance < value) {... */\n      iszero\n      tag_254\n      jumpi\n        /* \"@openzeppelin/contracts/token/ERC20/ERC20.sol\":10936:10996  ERC20InsufficientAllowance(spender, currentAllowance, value) */\n      mload(0x40)\n      shl(0xe1, 0x7dc7a0d9)\n      dup2\n      mstore\n      sub(shl(0xa0, 0x01), 0x01)\n        /* \"#utility.yul\":7446:7478   */\n      dup5\n      and\n        /* \"@openzeppelin/contracts/token/ERC20/ERC20.sol\":10936:10996  ERC20InsufficientAllowance(spender, currentAllowance, value) */\n      0x04\n      dup3\n      add\n        /* \"#utility.yul\":7428:7479   */\n      mstore\n        /* \"#utility.yul\":7495:7513   */\n      0x24\n      dup2\n      add\n        /* \"#utility.yul\":7488:7522   */\n      dup3\n      swap1\n      mstore\n        /* \"#utility.yul\":7538:7556   */\n      0x44\n      dup2\n      add\n        /* \"#utility.yul\":7531:7565   */\n      dup4\n      swap1\n      mstore\n        /* \"#utility.yul\":7401:7419   */\n      0x64\n      add\n        /* \"@openzeppelin/contracts/token/ERC20/ERC20.sol\":10936:10996  ERC20InsufficientAllowance(spender, currentAllowance, value) */\n      tag_160\n        /* \"#utility.yul\":7226:7571   */\n      jump\n        /* \"@openzeppelin/contracts/token/ERC20/ERC20.sol\":10881:11011  if (currentAllowance < value) {... */\n    tag_254:\n        /* \"@openzeppelin/contracts/token/ERC20/ERC20.sol\":11052:11109  _approve(owner, spender, currentAllowance - value, false) */\n      tag_257\n        /* \"@openzeppelin/contracts/token/ERC20/ERC20.sol\":11061:11066  owner */\n      dup5\n        /* \"@openzeppelin/contracts/token/ERC20/ERC20.sol\":11068:11075  spender */\n      dup5\n        /* \"@openzeppelin/contracts/token/ERC20/ERC20.sol\":11096:11101  value */\n      dup5\n        /* \"@openzeppelin/contracts/token/ERC20/ERC20.sol\":11077:11093  currentAllowance */\n      dup5\n        /* \"@openzeppelin/contracts/token/ERC20/ERC20.sol\":11077:11101  currentAllowance - value */\n      sub\n        /* \"@openzeppelin/contracts/token/ERC20/ERC20.sol\":11103:11108  false */\n      0x00\n        /* \"@openzeppelin/contracts/token/ERC20/ERC20.sol\":11052:11060  _approve */\n      tag_250\n        /* \"@openzeppelin/contracts/token/ERC20/ERC20.sol\":11052:11109  _approve(owner, spender, currentAllowance - value, false) */\n      jump\t// in\n    tag_257:\n        /* \"@openzeppelin/contracts/token/ERC20/ERC20.sol\":10752:11140  {... */\n      pop\n        /* \"@openzeppelin/contracts/token/ERC20/ERC20.sol\":10663:11140  function _spendAllowance(address owner, address spender, uint256 value) internal virtual {... */\n      pop\n      pop\n      pop\n      jump\t// out\n        /* \"@openzeppelin/contracts/token/ERC20/ERC20.sol\":5656:5956  function _transfer(address from, address to, uint256 value) internal {... */\n    tag_144:\n      sub(shl(0xa0, 0x01), 0x01)\n        /* \"@openzeppelin/contracts/token/ERC20/ERC20.sol\":5739:5757  from == address(0) */\n      dup4\n      and\n        /* \"@openzeppelin/contracts/token/ERC20/ERC20.sol\":5735:5821  if (from == address(0)) {... */\n      tag_259\n      jumpi\n        /* \"@openzeppelin/contracts/token/ERC20/ERC20.sol\":5780:5810  ERC20InvalidSender(address(0)) */\n      mload(0x40)\n      shl(0xe1, 0x4b637e8f)\n      dup2\n      mstore\n        /* \"@openzeppelin/contracts/token/ERC20/ERC20.sol\":5807:5808  0 */\n      0x00\n        /* \"@openzeppelin/contracts/token/ERC20/ERC20.sol\":5780:5810  ERC20InvalidSender(address(0)) */\n      0x04\n      dup3\n      add\n        /* \"#utility.yul\":3563:3614   */\n      mstore\n        /* \"#utility.yul\":3536:3554   */\n      0x24\n      add\n        /* \"@openzeppelin/contracts/token/ERC20/ERC20.sol\":5780:5810  ERC20InvalidSender(address(0)) */\n      tag_160\n        /* \"#utility.yul\":3389:3620   */\n      jump\n        /* \"@openzeppelin/contracts/token/ERC20/ERC20.sol\":5735:5821  if (from == address(0)) {... */\n    tag_259:\n      sub(shl(0xa0, 0x01), 0x01)\n        /* \"@openzeppelin/contracts/token/ERC20/ERC20.sol\":5834:5850  to == address(0) */\n      dup3\n      and\n        /* \"@openzeppelin/contracts/token/ERC20/ERC20.sol\":5830:5916  if (to == address(0)) {... */\n      tag_261\n      jumpi\n        /* \"@openzeppelin/contracts/token/ERC20/ERC20.sol\":5873:5905  ERC20InvalidReceiver(address(0)) */\n      mload(0x40)\n      shl(0xe0, 0xec442f05)\n      dup2\n      mstore\n        /* \"@openzeppelin/contracts/token/ERC20/ERC20.sol\":5902:5903  0 */\n      0x00\n        /* \"@openzeppelin/contracts/token/ERC20/ERC20.sol\":5873:5905  ERC20InvalidReceiver(address(0)) */\n      0x04\n      dup3\n      add\n        /* \"#utility.yul\":3563:3614   */\n      mstore\n        /* \"#utility.yul\":3536:3554   */\n      0x24\n      add\n        /* \"@openzeppelin/contracts/token/ERC20/ERC20.sol\":5873:5905  ERC20InvalidReceiver(address(0)) */\n      tag_160\n        /* \"#utility.yul\":3389:3620   */\n      jump\n        /* \"@openzeppelin/contracts/token/ERC20/ERC20.sol\":5830:5916  if (to == address(0)) {... */\n    tag_261:\n        /* \"@openzeppelin/contracts/token/ERC20/ERC20.sol\":5925:5949  _update(from, to, value) */\n      tag_249\n        /* \"@openzeppelin/contracts/token/ERC20/ERC20.sol\":5933:5937  from */\n      dup4\n        /* \"@openzeppelin/contracts/token/ERC20/ERC20.sol\":5939:5941  to */\n      dup4\n        /* \"@openzeppelin/contracts/token/ERC20/ERC20.sol\":5943:5948  value */\n      dup4\n        /* \"@openzeppelin/contracts/token/ERC20/ERC20.sol\":5925:5932  _update */\n      tag_264\n        /* \"@openzeppelin/contracts/token/ERC20/ERC20.sol\":5925:5949  _update(from, to, value) */\n      jump\t// in\n        /* \"@openzeppelin/contracts/access/Ownable.sol\":1796:1958  function _checkOwner() internal view virtual {... */\n    tag_148:\n        /* \"@openzeppelin/contracts/access/Ownable.sol\":1710:1716  _owner */\n      sload(0x05)\n      sub(shl(0xa0, 0x01), 0x01)\n      0x0100\n      swap1\n      swap2\n      div\n      and\n        /* \"@openzeppelin/contracts/utils/Context.sol\":735:745  msg.sender */\n      caller\n        /* \"@openzeppelin/contracts/access/Ownable.sol\":1855:1878  owner() != _msgSender() */\n      eq\n        /* \"@openzeppelin/contracts/access/Ownable.sol\":1851:1952  if (owner() != _msgSender()) {... */\n      tag_150\n      jumpi\n        /* \"@openzeppelin/contracts/access/Ownable.sol\":1901:1941  OwnableUnauthorizedAccount(_msgSender()) */\n      mload(0x40)\n      shl(0xe0, 0x118cdaa7)\n      dup2\n      mstore\n        /* \"@openzeppelin/contracts/utils/Context.sol\":735:745  msg.sender */\n      caller\n        /* \"@openzeppelin/contracts/access/Ownable.sol\":1901:1941  OwnableUnauthorizedAccount(_msgSender()) */\n      0x04\n      dup3\n      add\n        /* \"#utility.yul\":3563:3614   */\n      mstore\n        /* \"#utility.yul\":3536:3554   */\n      0x24\n      add\n        /* \"@openzeppelin/contracts/access/Ownable.sol\":1901:1941  OwnableUnauthorizedAccount(_msgSender()) */\n      tag_160\n        /* \"#utility.yul\":3389:3620   */\n      jump\n        /* \"@openzeppelin/contracts/security/Pausable.sol\":2433:2550  function _unpause() internal virtual whenPaused {... */\n    tag_151:\n        /* \"@openzeppelin/contracts/security/Pausable.sol\":1486:1502  _requirePaused() */\n      tag_272\n        /* \"@openzeppelin/contracts/security/Pausable.sol\":1486:1500  _requirePaused */\n      tag_273\n        /* \"@openzeppelin/contracts/security/Pausable.sol\":1486:1502  _requirePaused() */\n      jump\t// in\n    tag_272:\n        /* \"@openzeppelin/contracts/security/Pausable.sol\":2491:2498  _paused */\n      0x05\n        /* \"@openzeppelin/contracts/security/Pausable.sol\":2491:2506  _paused = false */\n      dup1\n      sload\n      not(0xff)\n      and\n      swap1\n      sstore\n        /* \"@openzeppelin/contracts/security/Pausable.sol\":2521:2543  Unpaused(_msgSender()) */\n      0x5db9ee0a495bf2e6ff9c91a7834c1ba4fdd244a5e8aa4e537bd38aeae4b073aa\n        /* \"@openzeppelin/contracts/utils/Context.sol\":735:745  msg.sender */\n      caller\n        /* \"@openzeppelin/contracts/security/Pausable.sol\":2530:2542  _msgSender() */\n    tag_275:\n        /* \"@openzeppelin/contracts/security/Pausable.sol\":2521:2543  Unpaused(_msgSender()) */\n      mload(0x40)\n      sub(shl(0xa0, 0x01), 0x01)\n        /* \"#utility.yul\":3581:3613   */\n      swap1\n      swap2\n      and\n        /* \"#utility.yul\":3563:3614   */\n      dup2\n      mstore\n        /* \"#utility.yul\":3551:3553   */\n      0x20\n        /* \"#utility.yul\":3536:3554   */\n      add\n        /* \"@openzeppelin/contracts/security/Pausable.sol\":2521:2543  Unpaused(_msgSender()) */\n      mload(0x40)\n      dup1\n      swap2\n      sub\n      swap1\n      log1\n        /* \"@openzeppelin/contracts/security/Pausable.sol\":2433:2550  function _unpause() internal virtual whenPaused {... */\n      jump\t// out\n        /* \"@openzeppelin/contracts/token/ERC20/ERC20.sol\":8247:8453  function _burn(address account, uint256 value) internal {... */\n    tag_155:\n      sub(shl(0xa0, 0x01), 0x01)\n        /* \"@openzeppelin/contracts/token/ERC20/ERC20.sol\":8317:8338  account == address(0) */\n      dup3\n      and\n        /* \"@openzeppelin/contracts/token/ERC20/ERC20.sol\":8313:8402  if (account == address(0)) {... */\n      tag_278\n      jumpi\n        /* \"@openzeppelin/contracts/token/ERC20/ERC20.sol\":8361:8391  ERC20InvalidSender(address(0)) */\n      mload(0x40)\n      shl(0xe1, 0x4b637e8f)\n      dup2\n      mstore\n        /* \"@openzeppelin/contracts/token/ERC20/ERC20.sol\":8388:8389  0 */\n      0x00\n        /* \"@openzeppelin/contracts/token/ERC20/ERC20.sol\":8361:8391  ERC20InvalidSender(address(0)) */\n      0x04\n      dup3\n      add\n        /* \"#utility.yul\":3563:3614   */\n      mstore\n        /* \"#utility.yul\":3536:3554   */\n      0x24\n      add\n        /* \"@openzeppelin/contracts/token/ERC20/ERC20.sol\":8361:8391  ERC20InvalidSender(address(0)) */\n      tag_160\n        /* \"#utility.yul\":3389:3620   */\n      jump\n        /* \"@openzeppelin/contracts/token/ERC20/ERC20.sol\":8313:8402  if (account == address(0)) {... */\n    tag_278:\n        /* \"@openzeppelin/contracts/token/ERC20/ERC20.sol\":8411:8446  _update(account, address(0), value) */\n      tag_181\n        /* \"@openzeppelin/contracts/token/ERC20/ERC20.sol\":8419:8426  account */\n      dup3\n        /* \"@openzeppelin/contracts/token/ERC20/ERC20.sol\":8436:8437  0 */\n      0x00\n        /* \"@openzeppelin/contracts/token/ERC20/ERC20.sol\":8440:8445  value */\n      dup4\n        /* \"@openzeppelin/contracts/token/ERC20/ERC20.sol\":8411:8418  _update */\n      tag_264\n        /* \"@openzeppelin/contracts/token/ERC20/ERC20.sol\":8411:8446  _update(account, address(0), value) */\n      jump\t// in\n        /* \"@openzeppelin/contracts/access/Ownable.sol\":2912:3099  function _transferOwnership(address newOwner) internal virtual {... */\n    tag_177:\n        /* \"@openzeppelin/contracts/access/Ownable.sol\":3004:3010  _owner */\n      0x05\n      dup1\n      sload\n      sub(shl(0xa0, 0x01), 0x01)\n        /* \"@openzeppelin/contracts/access/Ownable.sol\":3020:3037  _owner = newOwner */\n      dup4\n      dup2\n      and\n        /* \"@openzeppelin/contracts/access/Ownable.sol\":3004:3010  _owner */\n      0x0100\n        /* \"@openzeppelin/contracts/access/Ownable.sol\":3020:3037  _owner = newOwner */\n      dup2\n      dup2\n      mul\n      not(sub(shl(0xa8, 0x01), 0x0100))\n      dup6\n      and\n      or\n      swap1\n      swap5\n      sstore\n        /* \"@openzeppelin/contracts/access/Ownable.sol\":3052:3092  OwnershipTransferred(oldOwner, newOwner) */\n      mload(0x40)\n        /* \"@openzeppelin/contracts/access/Ownable.sol\":3004:3010  _owner */\n      swap4\n      swap1\n      swap3\n      div\n      and\n      swap2\n      dup3\n      swap1\n        /* \"@openzeppelin/contracts/access/Ownable.sol\":3052:3092  OwnershipTransferred(oldOwner, newOwner) */\n      0x8be0079c531659141344cd1fd0a4f28419497f9722a3daafe3b4186f6b6457e0\n      swap1\n        /* \"@openzeppelin/contracts/access/Ownable.sol\":2985:3001  address oldOwner */\n      0x00\n      swap1\n        /* \"@openzeppelin/contracts/access/Ownable.sol\":3052:3092  OwnershipTransferred(oldOwner, newOwner) */\n      log3\n        /* \"@openzeppelin/contracts/access/Ownable.sol\":2975:3099  {... */\n      pop\n        /* \"@openzeppelin/contracts/access/Ownable.sol\":2912:3099  function _transferOwnership(address newOwner) internal virtual {... */\n      pop\n      jump\t// out\n        /* \"@openzeppelin/contracts/security/Pausable.sol\":2186:2301  function _pause() internal virtual whenNotPaused {... */\n    tag_186:\n        /* \"@openzeppelin/contracts/security/Pausable.sol\":1239:1258  _requireNotPaused() */\n      tag_283\n        /* \"@openzeppelin/contracts/security/Pausable.sol\":1239:1256  _requireNotPaused */\n      tag_284\n        /* \"@openzeppelin/contracts/security/Pausable.sol\":1239:1258  _requireNotPaused() */\n      jump\t// in\n    tag_283:\n        /* \"@openzeppelin/contracts/security/Pausable.sol\":2245:2252  _paused */\n      0x05\n        /* \"@openzeppelin/contracts/security/Pausable.sol\":2245:2259  _paused = true */\n      dup1\n      sload\n      not(0xff)\n      and\n        /* \"@openzeppelin/contracts/security/Pausable.sol\":2255:2259  true */\n      0x01\n        /* \"@openzeppelin/contracts/security/Pausable.sol\":2245:2259  _paused = true */\n      or\n      swap1\n      sstore\n        /* \"@openzeppelin/contracts/security/Pausable.sol\":2274:2294  Paused(_msgSender()) */\n      0x62e78cea01bee320cd4e420270b5ea74000d11b0c9f74754ebdbfc544b05a258\n        /* \"@openzeppelin/contracts/security/Pausable.sol\":2281:2293  _msgSender() */\n      tag_275\n        /* \"@openzeppelin/contracts/utils/Context.sol\":735:745  msg.sender */\n      caller\n      swap1\n        /* \"@openzeppelin/contracts/utils/Context.sol\":656:752  function _msgSender() internal view virtual returns (address) {... */\n      jump\n        /* \"@openzeppelin/contracts/security/ReentrancyGuard.sol\":2336:2623  function _nonReentrantBefore() private {... */\n    tag_189:\n        /* \"@openzeppelin/contracts/security/ReentrancyGuard.sol\":1759:1760  2 */\n      0x02\n        /* \"@openzeppelin/contracts/security/ReentrancyGuard.sol\":2468:2475  _status */\n      sload(0x06)\n        /* \"@openzeppelin/contracts/security/ReentrancyGuard.sol\":2468:2487  _status != _ENTERED */\n      sub\n        /* \"@openzeppelin/contracts/security/ReentrancyGuard.sol\":2460:2523  require(_status != _ENTERED, \"ReentrancyGuard: reentrant call\") */\n      tag_289\n      jumpi\n      mload(0x40)\n      shl(0xe5, 0x461bcd)\n      dup2\n      mstore\n        /* \"#utility.yul\":7778:7780   */\n      0x20\n        /* \"@openzeppelin/contracts/security/ReentrancyGuard.sol\":2460:2523  require(_status != _ENTERED, \"ReentrancyGuard: reentrant call\") */\n      0x04\n      dup3\n      add\n        /* \"#utility.yul\":7760:7781   */\n      mstore\n        /* \"#utility.yul\":7817:7819   */\n      0x1f\n        /* \"#utility.yul\":7797:7815   */\n      0x24\n      dup3\n      add\n        /* \"#utility.yul\":7790:7820   */\n      mstore\n        /* \"#utility.yul\":7856:7889   */\n      0x5265656e7472616e637947756172643a207265656e7472616e742063616c6c00\n        /* \"#utility.yul\":7836:7854   */\n      0x44\n      dup3\n      add\n        /* \"#utility.yul\":7829:7890   */\n      mstore\n        /* \"#utility.yul\":7907:7925   */\n      0x64\n      add\n        /* \"@openzeppelin/contracts/security/ReentrancyGuard.sol\":2460:2523  require(_status != _ENTERED, \"ReentrancyGuard: reentrant call\") */\n      tag_160\n        /* \"#utility.yul\":7576:7931   */\n      jump\n        /* \"@openzeppelin/contracts/security/ReentrancyGuard.sol\":2460:2523  require(_status != _ENTERED, \"ReentrancyGuard: reentrant call\") */\n    tag_289:\n        /* \"@openzeppelin/contracts/security/ReentrancyGuard.sol\":1759:1760  2 */\n      0x02\n        /* \"@openzeppelin/contracts/security/ReentrancyGuard.sol\":2598:2605  _status */\n      0x06\n        /* \"@openzeppelin/contracts/security/ReentrancyGuard.sol\":2598:2616  _status = _ENTERED */\n      sstore\n        /* \"@openzeppelin/contracts/security/ReentrancyGuard.sol\":2336:2623  function _nonReentrantBefore() private {... */\n      jump\t// out\n        /* \"@openzeppelin/contracts/token/ERC20/utils/SafeERC20.sol\":1702:1890  function safeTransferFrom(IERC20 token, address from, address to, uint256 value) internal {... */\n    tag_223:\n        /* \"@openzeppelin/contracts/token/ERC20/utils/SafeERC20.sol\":1829:1882  abi.encodeCall(token.transferFrom, (from, to, value)) */\n      0x40\n      dup1\n      mload\n      sub(shl(0xa0, 0x01), 0x01)\n        /* \"#utility.yul\":8156:8188   */\n      dup6\n      dup2\n      and\n        /* \"@openzeppelin/contracts/token/ERC20/utils/SafeERC20.sol\":1829:1882  abi.encodeCall(token.transferFrom, (from, to, value)) */\n      0x24\n      dup4\n      add\n        /* \"#utility.yul\":8138:8189   */\n      mstore\n        /* \"#utility.yul\":8225:8257   */\n      dup5\n      and\n        /* \"#utility.yul\":8205:8223   */\n      0x44\n      dup3\n      add\n        /* \"#utility.yul\":8198:8258   */\n      mstore\n        /* \"#utility.yul\":8274:8292   */\n      0x64\n      dup1\n      dup3\n      add\n        /* \"#utility.yul\":8267:8301   */\n      dup5\n      swap1\n      mstore\n        /* \"@openzeppelin/contracts/token/ERC20/utils/SafeERC20.sol\":1829:1882  abi.encodeCall(token.transferFrom, (from, to, value)) */\n      dup3\n      mload\n      dup1\n      dup4\n      sub\n      swap1\n      swap2\n      add\n      dup2\n      mstore\n        /* \"#utility.yul\":8111:8129   */\n      0x84\n      swap1\n      swap2\n      add\n        /* \"@openzeppelin/contracts/token/ERC20/utils/SafeERC20.sol\":1829:1882  abi.encodeCall(token.transferFrom, (from, to, value)) */\n      swap1\n      swap2\n      mstore\n      0x20\n      dup2\n      add\n      dup1\n      mload\n      sub(shl(0xe0, 0x01), 0x01)\n      and\n      shl(0xe0, 0x23b872dd)\n      or\n      swap1\n      mstore\n        /* \"@openzeppelin/contracts/token/ERC20/utils/SafeERC20.sol\":1802:1883  _callOptionalReturn(token, abi.encodeCall(token.transferFrom, (from, to, value))) */\n      tag_257\n      swap1\n        /* \"@openzeppelin/contracts/token/ERC20/utils/SafeERC20.sol\":1822:1827  token */\n      dup6\n      swap1\n        /* \"@openzeppelin/contracts/token/ERC20/utils/SafeERC20.sol\":1802:1821  _callOptionalReturn */\n      tag_297\n        /* \"@openzeppelin/contracts/token/ERC20/utils/SafeERC20.sol\":1802:1883  _callOptionalReturn(token, abi.encodeCall(token.transferFrom, (from, to, value))) */\n      jump\t// in\n        /* \"@openzeppelin/contracts/token/ERC20/ERC20.sol\":9949:10381  function _approve(address owner, address spender, uint256 value, bool emitEvent) internal virtual {... */\n    tag_250:\n      sub(shl(0xa0, 0x01), 0x01)\n        /* \"@openzeppelin/contracts/token/ERC20/ERC20.sol\":10061:10080  owner == address(0) */\n      dup5\n      and\n        /* \"@openzeppelin/contracts/token/ERC20/ERC20.sol\":10057:10146  if (owner == address(0)) {... */\n      tag_300\n      jumpi\n        /* \"@openzeppelin/contracts/token/ERC20/ERC20.sol\":10103:10135  ERC20InvalidApprover(address(0)) */\n      mload(0x40)\n      shl(0xe0, 0xe602df05)\n      dup2\n      mstore\n        /* \"@openzeppelin/contracts/token/ERC20/ERC20.sol\":10132:10133  0 */\n      0x00\n        /* \"@openzeppelin/contracts/token/ERC20/ERC20.sol\":10103:10135  ERC20InvalidApprover(address(0)) */\n      0x04\n      dup3\n      add\n        /* \"#utility.yul\":3563:3614   */\n      mstore\n        /* \"#utility.yul\":3536:3554   */\n      0x24\n      add\n        /* \"@openzeppelin/contracts/token/ERC20/ERC20.sol\":10103:10135  ERC20InvalidApprover(address(0)) */\n      tag_160\n        /* \"#utility.yul\":3389:3620   */\n      jump\n        /* \"@openzeppelin/contracts/token/ERC20/ERC20.sol\":10057:10146  if (owner == address(0)) {... */\n    tag_300:\n      sub(shl(0xa0, 0x01), 0x01)\n        /* \"@openzeppelin/contracts/token/ERC20/ERC20.sol\":10159:10180  spender == address(0) */\n      dup4\n      and\n        /* \"@openzeppelin/contracts/token/ERC20/ERC20.sol\":10155:10245  if (spender == address(0)) {... */\n      tag_302\n      jumpi\n        /* \"@openzeppelin/contracts/token/ERC20/ERC20.sol\":10203:10234  ERC20InvalidSpender(address(0)) */\n      mload(0x40)\n      shl(0xe1, 0x4a1406b1)\n      dup2\n      mstore\n        /* \"@openzeppelin/contracts/token/ERC20/ERC20.sol\":10231:10232  0 */\n      0x00\n        /* \"@openzeppelin/contracts/token/ERC20/ERC20.sol\":10203:10234  ERC20InvalidSpender(address(0)) */\n      0x04\n      dup3\n      add\n        /* \"#utility.yul\":3563:3614   */\n      mstore\n        /* \"#utility.yul\":3536:3554   */\n      0x24\n      add\n        /* \"@openzeppelin/contracts/token/ERC20/ERC20.sol\":10203:10234  ERC20InvalidSpender(address(0)) */\n      tag_160\n        /* \"#utility.yul\":3389:3620   */\n      jump\n        /* \"@openzeppelin/contracts/token/ERC20/ERC20.sol\":10155:10245  if (spender == address(0)) {... */\n    tag_302:\n      sub(shl(0xa0, 0x01), 0x01)\n        /* \"@openzeppelin/contracts/token/ERC20/ERC20.sol\":10254:10272  _allowances[owner] */\n      dup1\n      dup6\n      and\n      0x00\n      swap1\n      dup2\n      mstore\n        /* \"@openzeppelin/contracts/token/ERC20/ERC20.sol\":10254:10265  _allowances */\n      0x01\n        /* \"@openzeppelin/contracts/token/ERC20/ERC20.sol\":10254:10272  _allowances[owner] */\n      0x20\n      swap1\n      dup2\n      mstore\n      0x40\n      dup1\n      dup4\n      keccak256\n        /* \"@openzeppelin/contracts/token/ERC20/ERC20.sol\":10254:10281  _allowances[owner][spender] */\n      swap4\n      dup8\n      and\n      dup4\n      mstore\n      swap3\n      swap1\n      mstore\n      keccak256\n        /* \"@openzeppelin/contracts/token/ERC20/ERC20.sol\":10254:10289  _allowances[owner][spender] = value */\n      dup3\n      swap1\n      sstore\n        /* \"@openzeppelin/contracts/token/ERC20/ERC20.sol\":10299:10375  if (emitEvent) {... */\n      dup1\n      iszero\n      tag_257\n      jumpi\n        /* \"@openzeppelin/contracts/token/ERC20/ERC20.sol\":10349:10356  spender */\n      dup3\n      sub(shl(0xa0, 0x01), 0x01)\n        /* \"@openzeppelin/contracts/token/ERC20/ERC20.sol\":10333:10364  Approval(owner, spender, value) */\n      and\n        /* \"@openzeppelin/contracts/token/ERC20/ERC20.sol\":10342:10347  owner */\n      dup5\n      sub(shl(0xa0, 0x01), 0x01)\n        /* \"@openzeppelin/contracts/token/ERC20/ERC20.sol\":10333:10364  Approval(owner, spender, value) */\n      and\n      0x8c5be1e5ebec7d5bd14f71427d1e84f3dd0314c0f7b2291e5b200ac8c7c3b925\n        /* \"@openzeppelin/contracts/token/ERC20/ERC20.sol\":10358:10363  value */\n      dup5\n        /* \"@openzeppelin/contracts/token/ERC20/ERC20.sol\":10333:10364  Approval(owner, spender, value) */\n      mload(0x40)\n      tag_305\n      swap2\n        /* \"#utility.yul\":529:554   */\n      dup2\n      mstore\n        /* \"#utility.yul\":517:519   */\n      0x20\n        /* \"#utility.yul\":502:520   */\n      add\n      swap1\n        /* \"#utility.yul\":383:560   */\n      jump\n        /* \"@openzeppelin/contracts/token/ERC20/ERC20.sol\":10333:10364  Approval(owner, spender, value) */\n    tag_305:\n      mload(0x40)\n      dup1\n      swap2\n      sub\n      swap1\n      log3\n        /* \"@openzeppelin/contracts/token/ERC20/ERC20.sol\":9949:10381  function _approve(address owner, address spender, uint256 value, bool emitEvent) internal virtual {... */\n      pop\n      pop\n      pop\n      pop\n      jump\t// out\n        /* \"@openzeppelin/contracts/token/ERC20/ERC20.sol\":6271:7378  function _update(address from, address to, uint256 value) internal virtual {... */\n    tag_264:\n      sub(shl(0xa0, 0x01), 0x01)\n        /* \"@openzeppelin/contracts/token/ERC20/ERC20.sol\":6360:6378  from == address(0) */\n      dup4\n      and\n        /* \"@openzeppelin/contracts/token/ERC20/ERC20.sol\":6356:6896  if (from == address(0)) {... */\n      tag_307\n      jumpi\n        /* \"@openzeppelin/contracts/token/ERC20/ERC20.sol\":6512:6517  value */\n      dup1\n        /* \"@openzeppelin/contracts/token/ERC20/ERC20.sol\":6496:6508  _totalSupply */\n      0x02\n      0x00\n        /* \"@openzeppelin/contracts/token/ERC20/ERC20.sol\":6496:6517  _totalSupply += value */\n      dup3\n      dup3\n      sload\n      tag_308\n      swap2\n      swap1\n      tag_158\n      jump\t// in\n    tag_308:\n      swap1\n      swap2\n      sstore\n      pop\n        /* \"@openzeppelin/contracts/token/ERC20/ERC20.sol\":6356:6896  if (from == address(0)) {... */\n      tag_309\n      swap1\n      pop\n      jump\n    tag_307:\n      sub(shl(0xa0, 0x01), 0x01)\n        /* \"@openzeppelin/contracts/token/ERC20/ERC20.sol\":6570:6585  _balances[from] */\n      dup4\n      and\n        /* \"@openzeppelin/contracts/token/ERC20/ERC20.sol\":6548:6567  uint256 fromBalance */\n      0x00\n        /* \"@openzeppelin/contracts/token/ERC20/ERC20.sol\":6570:6585  _balances[from] */\n      swap1\n      dup2\n      mstore\n      0x20\n      dup2\n      swap1\n      mstore\n      0x40\n      swap1\n      keccak256\n      sload\n        /* \"@openzeppelin/contracts/token/ERC20/ERC20.sol\":6603:6622  fromBalance < value */\n      dup2\n      dup2\n      lt\n        /* \"@openzeppelin/contracts/token/ERC20/ERC20.sol\":6599:6714  if (fromBalance < value) {... */\n      iszero\n      tag_310\n      jumpi\n        /* \"@openzeppelin/contracts/token/ERC20/ERC20.sol\":6649:6699  ERC20InsufficientBalance(from, fromBalance, value) */\n      mload(0x40)\n      shl(0xe2, 0x391434e3)\n      dup2\n      mstore\n      sub(shl(0xa0, 0x01), 0x01)\n        /* \"#utility.yul\":7446:7478   */\n      dup6\n      and\n        /* \"@openzeppelin/contracts/token/ERC20/ERC20.sol\":6649:6699  ERC20InsufficientBalance(from, fromBalance, value) */\n      0x04\n      dup3\n      add\n        /* \"#utility.yul\":7428:7479   */\n      mstore\n        /* \"#utility.yul\":7495:7513   */\n      0x24\n      dup2\n      add\n        /* \"#utility.yul\":7488:7522   */\n      dup3\n      swap1\n      mstore\n        /* \"#utility.yul\":7538:7556   */\n      0x44\n      dup2\n      add\n        /* \"#utility.yul\":7531:7565   */\n      dup4\n      swap1\n      mstore\n        /* \"#utility.yul\":7401:7419   */\n      0x64\n      add\n        /* \"@openzeppelin/contracts/token/ERC20/ERC20.sol\":6649:6699  ERC20InsufficientBalance(from, fromBalance, value) */\n      tag_160\n        /* \"#utility.yul\":7226:7571   */\n      jump\n        /* \"@openzeppelin/contracts/token/ERC20/ERC20.sol\":6599:6714  if (fromBalance < value) {... */\n    tag_310:\n      sub(shl(0xa0, 0x01), 0x01)\n        /* \"@openzeppelin/contracts/token/ERC20/ERC20.sol\":6834:6849  _balances[from] */\n      dup5\n      and\n        /* \"@openzeppelin/contracts/token/ERC20/ERC20.sol\":6834:6843  _balances */\n      0x00\n        /* \"@openzeppelin/contracts/token/ERC20/ERC20.sol\":6834:6849  _balances[from] */\n      swap1\n      dup2\n      mstore\n      0x20\n      dup2\n      swap1\n      mstore\n      0x40\n      swap1\n      keccak256\n        /* \"@openzeppelin/contracts/token/ERC20/ERC20.sol\":6852:6871  fromBalance - value */\n      swap1\n      dup3\n      swap1\n      sub\n        /* \"@openzeppelin/contracts/token/ERC20/ERC20.sol\":6834:6871  _balances[from] = fromBalance - value */\n      swap1\n      sstore\n        /* \"@openzeppelin/contracts/token/ERC20/ERC20.sol\":6356:6896  if (from == address(0)) {... */\n    tag_309:\n      sub(shl(0xa0, 0x01), 0x01)\n        /* \"@openzeppelin/contracts/token/ERC20/ERC20.sol\":6910:6926  to == address(0) */\n      dup3\n      and\n        /* \"@openzeppelin/contracts/token/ERC20/ERC20.sol\":6906:7331  if (to == address(0)) {... */\n      tag_312\n      jumpi\n        /* \"@openzeppelin/contracts/token/ERC20/ERC20.sol\":7073:7085  _totalSupply */\n      0x02\n        /* \"@openzeppelin/contracts/token/ERC20/ERC20.sol\":7073:7094  _totalSupply -= value */\n      dup1\n      sload\n      dup3\n      swap1\n      sub\n      swap1\n      sstore\n        /* \"@openzeppelin/contracts/token/ERC20/ERC20.sol\":6906:7331  if (to == address(0)) {... */\n      jump(tag_313)\n    tag_312:\n      sub(shl(0xa0, 0x01), 0x01)\n        /* \"@openzeppelin/contracts/token/ERC20/ERC20.sol\":7284:7297  _balances[to] */\n      dup3\n      and\n        /* \"@openzeppelin/contracts/token/ERC20/ERC20.sol\":7284:7293  _balances */\n      0x00\n        /* \"@openzeppelin/contracts/token/ERC20/ERC20.sol\":7284:7297  _balances[to] */\n      swap1\n      dup2\n      mstore\n      0x20\n      dup2\n      swap1\n      mstore\n      0x40\n      swap1\n      keccak256\n        /* \"@openzeppelin/contracts/token/ERC20/ERC20.sol\":7284:7306  _balances[to] += value */\n      dup1\n      sload\n      dup3\n      add\n      swap1\n      sstore\n        /* \"@openzeppelin/contracts/token/ERC20/ERC20.sol\":6906:7331  if (to == address(0)) {... */\n    tag_313:\n        /* \"@openzeppelin/contracts/token/ERC20/ERC20.sol\":7361:7363  to */\n      dup2\n      sub(shl(0xa0, 0x01), 0x01)\n        /* \"@openzeppelin/contracts/token/ERC20/ERC20.sol\":7346:7371  Transfer(from, to, value) */\n      and\n        /* \"@openzeppelin/contracts/token/ERC20/ERC20.sol\":7355:7359  from */\n      dup4\n      sub(shl(0xa0, 0x01), 0x01)\n        /* \"@openzeppelin/contracts/token/ERC20/ERC20.sol\":7346:7371  Transfer(from, to, value) */\n      and\n      0xddf252ad1be2c89b69c2b068fc378daa952ba7f163c4a11628f55a4df523b3ef\n        /* \"@openzeppelin/contracts/token/ERC20/ERC20.sol\":7365:7370  value */\n      dup4\n        /* \"@openzeppelin/contracts/token/ERC20/ERC20.sol\":7346:7371  Transfer(from, to, value) */\n      mload(0x40)\n      tag_314\n      swap2\n        /* \"#utility.yul\":529:554   */\n      dup2\n      mstore\n        /* \"#utility.yul\":517:519   */\n      0x20\n        /* \"#utility.yul\":502:520   */\n      add\n      swap1\n        /* \"#utility.yul\":383:560   */\n      jump\n        /* \"@openzeppelin/contracts/token/ERC20/ERC20.sol\":7346:7371  Transfer(from, to, value) */\n    tag_314:\n      mload(0x40)\n      dup1\n      swap2\n      sub\n      swap1\n      log3\n        /* \"@openzeppelin/contracts/token/ERC20/ERC20.sol\":6271:7378  function _update(address from, address to, uint256 value) internal virtual {... */\n      pop\n      pop\n      pop\n      jump\t// out\n        /* \"@openzeppelin/contracts/security/Pausable.sol\":1945:2051  function _requirePaused() internal view virtual {... */\n    tag_273:\n        /* \"@openzeppelin/contracts/security/Pausable.sol\":1685:1692  _paused */\n      and(0xff, sload(0x05))\n        /* \"@openzeppelin/contracts/security/Pausable.sol\":2003:2044  require(paused(), \"Pausable: not paused\") */\n      tag_150\n      jumpi\n      mload(0x40)\n      shl(0xe5, 0x461bcd)\n      dup2\n      mstore\n        /* \"#utility.yul\":8514:8516   */\n      0x20\n        /* \"@openzeppelin/contracts/security/Pausable.sol\":2003:2044  require(paused(), \"Pausable: not paused\") */\n      0x04\n      dup3\n      add\n        /* \"#utility.yul\":8496:8517   */\n      mstore\n        /* \"#utility.yul\":8553:8555   */\n      0x14\n        /* \"#utility.yul\":8533:8551   */\n      0x24\n      dup3\n      add\n        /* \"#utility.yul\":8526:8556   */\n      mstore\n      shl(0x62, 0x14185d5cd8589b194e881b9bdd081c185d5cd959)\n        /* \"#utility.yul\":8572:8590   */\n      0x44\n      dup3\n      add\n        /* \"#utility.yul\":8565:8615   */\n      mstore\n        /* \"#utility.yul\":8632:8650   */\n      0x64\n      add\n        /* \"@openzeppelin/contracts/security/Pausable.sol\":2003:2044  require(paused(), \"Pausable: not paused\") */\n      tag_160\n        /* \"#utility.yul\":8312:8656   */\n      jump\n        /* \"@openzeppelin/contracts/security/Pausable.sol\":1767:1873  function _requireNotPaused() internal view virtual {... */\n    tag_284:\n        /* \"@openzeppelin/contracts/security/Pausable.sol\":1685:1692  _paused */\n      and(0xff, sload(0x05))\n        /* \"@openzeppelin/contracts/security/Pausable.sol\":1836:1845  !paused() */\n      iszero\n        /* \"@openzeppelin/contracts/security/Pausable.sol\":1828:1866  require(!paused(), \"Pausable: paused\") */\n      tag_150\n      jumpi\n      mload(0x40)\n      shl(0xe5, 0x461bcd)\n      dup2\n      mstore\n        /* \"#utility.yul\":8863:8865   */\n      0x20\n        /* \"@openzeppelin/contracts/security/Pausable.sol\":1828:1866  require(!paused(), \"Pausable: paused\") */\n      0x04\n      dup3\n      add\n        /* \"#utility.yul\":8845:8866   */\n      mstore\n        /* \"#utility.yul\":8902:8904   */\n      0x10\n        /* \"#utility.yul\":8882:8900   */\n      0x24\n      dup3\n      add\n        /* \"#utility.yul\":8875:8905   */\n      mstore\n      shl(0x82, 0x14185d5cd8589b194e881c185d5cd959)\n        /* \"#utility.yul\":8921:8939   */\n      0x44\n      dup3\n      add\n        /* \"#utility.yul\":8914:8960   */\n      mstore\n        /* \"#utility.yul\":8977:8995   */\n      0x64\n      add\n        /* \"@openzeppelin/contracts/security/Pausable.sol\":1828:1866  require(!paused(), \"Pausable: paused\") */\n      tag_160\n        /* \"#utility.yul\":8661:9001   */\n      jump\n        /* \"@openzeppelin/contracts/token/ERC20/utils/SafeERC20.sol\":4059:4688  function _callOptionalReturn(IERC20 token, bytes memory data) private {... */\n    tag_297:\n        /* \"@openzeppelin/contracts/token/ERC20/utils/SafeERC20.sol\":4478:4501  bytes memory returndata */\n      0x00\n        /* \"@openzeppelin/contracts/token/ERC20/utils/SafeERC20.sol\":4504:4537  address(token).functionCall(data) */\n      tag_326\n      sub(shl(0xa0, 0x01), 0x01)\n        /* \"@openzeppelin/contracts/token/ERC20/utils/SafeERC20.sol\":4504:4531  address(token).functionCall */\n      dup5\n      and\n        /* \"@openzeppelin/contracts/token/ERC20/utils/SafeERC20.sol\":4532:4536  data */\n      dup4\n        /* \"@openzeppelin/contracts/token/ERC20/utils/SafeERC20.sol\":4504:4531  address(token).functionCall */\n      tag_327\n        /* \"@openzeppelin/contracts/token/ERC20/utils/SafeERC20.sol\":4504:4537  address(token).functionCall(data) */\n      jump\t// in\n    tag_326:\n        /* \"@openzeppelin/contracts/token/ERC20/utils/SafeERC20.sol\":4478:4537  bytes memory returndata = address(token).functionCall(data) */\n      swap1\n      pop\n        /* \"@openzeppelin/contracts/token/ERC20/utils/SafeERC20.sol\":4551:4561  returndata */\n      dup1\n        /* \"@openzeppelin/contracts/token/ERC20/utils/SafeERC20.sol\":4551:4568  returndata.length */\n      mload\n        /* \"@openzeppelin/contracts/token/ERC20/utils/SafeERC20.sol\":4572:4573  0 */\n      0x00\n        /* \"@openzeppelin/contracts/token/ERC20/utils/SafeERC20.sol\":4551:4573  returndata.length != 0 */\n      eq\n      iszero\n        /* \"@openzeppelin/contracts/token/ERC20/utils/SafeERC20.sol\":4551:4608  returndata.length != 0 && !abi.decode(returndata, (bool)) */\n      dup1\n      iszero\n      tag_328\n      jumpi\n      pop\n        /* \"@openzeppelin/contracts/token/ERC20/utils/SafeERC20.sol\":4589:4599  returndata */\n      dup1\n        /* \"@openzeppelin/contracts/token/ERC20/utils/SafeERC20.sol\":4578:4608  abi.decode(returndata, (bool)) */\n      dup1\n      0x20\n      add\n      swap1\n      mload\n      dup2\n      add\n      swap1\n      tag_329\n      swap2\n      swap1\n      tag_170\n      jump\t// in\n    tag_329:\n        /* \"@openzeppelin/contracts/token/ERC20/utils/SafeERC20.sol\":4577:4608  !abi.decode(returndata, (bool)) */\n      iszero\n        /* \"@openzeppelin/contracts/token/ERC20/utils/SafeERC20.sol\":4551:4608  returndata.length != 0 && !abi.decode(returndata, (bool)) */\n    tag_328:\n        /* \"@openzeppelin/contracts/token/ERC20/utils/SafeERC20.sol\":4547:4682  if (returndata.length != 0 && !abi.decode(returndata, (bool))) {... */\n      iszero\n      tag_249\n      jumpi\n        /* \"@openzeppelin/contracts/token/ERC20/utils/SafeERC20.sol\":4631:4671  SafeERC20FailedOperation(address(token)) */\n      mload(0x40)\n      shl(0xe0, 0x5274afe7)\n      dup2\n      mstore\n      sub(shl(0xa0, 0x01), 0x01)\n        /* \"#utility.yul\":3581:3613   */\n      dup5\n      and\n        /* \"@openzeppelin/contracts/token/ERC20/utils/SafeERC20.sol\":4631:4671  SafeERC20FailedOperation(address(token)) */\n      0x04\n      dup3\n      add\n        /* \"#utility.yul\":3563:3614   */\n      mstore\n        /* \"#utility.yul\":3536:3554   */\n      0x24\n      add\n        /* \"@openzeppelin/contracts/token/ERC20/utils/SafeERC20.sol\":4631:4671  SafeERC20FailedOperation(address(token)) */\n      tag_160\n        /* \"#utility.yul\":3389:3620   */\n      jump\n        /* \"@openzeppelin/contracts/utils/Address.sol\":2705:2856  function functionCall(address target, bytes memory data) internal returns (bytes memory) {... */\n    tag_327:\n        /* \"@openzeppelin/contracts/utils/Address.sol\":2780:2792  bytes memory */\n      0x60\n        /* \"@openzeppelin/contracts/utils/Address.sol\":2811:2849  functionCallWithValue(target, data, 0) */\n      tag_139\n        /* \"@openzeppelin/contracts/utils/Address.sol\":2833:2839  target */\n      dup4\n        /* \"@openzeppelin/contracts/utils/Address.sol\":2841:2845  data */\n      dup4\n        /* \"@openzeppelin/contracts/utils/Address.sol\":2847:2848  0 */\n      0x00\n        /* \"@openzeppelin/contracts/utils/Address.sol\":2780:2792  bytes memory */\n      dup5\n        /* \"@openzeppelin/contracts/utils/Address.sol\":3421:3433  bool success */\n      0x00\n        /* \"@openzeppelin/contracts/utils/Address.sol\":3435:3458  bytes memory returndata */\n      dup1\n        /* \"@openzeppelin/contracts/utils/Address.sol\":3462:3468  target */\n      dup6\n      sub(shl(0xa0, 0x01), 0x01)\n        /* \"@openzeppelin/contracts/utils/Address.sol\":3462:3473  target.call */\n      and\n        /* \"@openzeppelin/contracts/utils/Address.sol\":3481:3486  value */\n      dup5\n        /* \"@openzeppelin/contracts/utils/Address.sol\":3488:3492  data */\n      dup7\n        /* \"@openzeppelin/contracts/utils/Address.sol\":3462:3493  target.call{value: value}(data) */\n      mload(0x40)\n      tag_338\n      swap2\n      swap1\n      tag_339\n      jump\t// in\n    tag_338:\n      0x00\n      mload(0x40)\n      dup1\n      dup4\n      sub\n      dup2\n      dup6\n      dup8\n      gas\n      call\n      swap3\n      pop\n      pop\n      pop\n      returndatasize\n      dup1\n      0x00\n      dup2\n      eq\n      tag_342\n      jumpi\n      mload(0x40)\n      swap2\n      pop\n      and(add(returndatasize, 0x3f), not(0x1f))\n      dup3\n      add\n      0x40\n      mstore\n      returndatasize\n      dup3\n      mstore\n      returndatasize\n      0x00\n      0x20\n      dup5\n      add\n      returndatacopy\n      jump(tag_341)\n    tag_342:\n      0x60\n      swap2\n      pop\n    tag_341:\n      pop\n        /* \"@openzeppelin/contracts/utils/Address.sol\":3420:3493  (bool success, bytes memory returndata) = target.call{value: value}(data) */\n      swap2\n      pop\n      swap2\n      pop\n        /* \"@openzeppelin/contracts/utils/Address.sol\":3510:3565  verifyCallResultFromTarget(target, success, returndata) */\n      tag_343\n        /* \"@openzeppelin/contracts/utils/Address.sol\":3537:3543  target */\n      dup7\n        /* \"@openzeppelin/contracts/utils/Address.sol\":3545:3552  success */\n      dup4\n        /* \"@openzeppelin/contracts/utils/Address.sol\":3554:3564  returndata */\n      dup4\n        /* \"@openzeppelin/contracts/utils/Address.sol\":3510:3536  verifyCallResultFromTarget */\n      tag_344\n        /* \"@openzeppelin/contracts/utils/Address.sol\":3510:3565  verifyCallResultFromTarget(target, success, returndata) */\n      jump\t// in\n    tag_343:\n        /* \"@openzeppelin/contracts/utils/Address.sol\":3503:3565  return verifyCallResultFromTarget(target, success, returndata) */\n      swap7\n        /* \"@openzeppelin/contracts/utils/Address.sol\":3180:3572  function functionCallWithValue(address target, bytes memory data, uint256 value) internal returns (bytes memory) {... */\n      swap6\n      pop\n      pop\n      pop\n      pop\n      pop\n      pop\n      jump\t// out\n        /* \"@openzeppelin/contracts/utils/Address.sol\":4625:5207  function verifyCallResultFromTarget(... */\n    tag_344:\n        /* \"@openzeppelin/contracts/utils/Address.sol\":4769:4781  bytes memory */\n      0x60\n        /* \"@openzeppelin/contracts/utils/Address.sol\":4798:4805  success */\n      dup3\n        /* \"@openzeppelin/contracts/utils/Address.sol\":4793:5201  if (!success) {... */\n      tag_346\n      jumpi\n        /* \"@openzeppelin/contracts/utils/Address.sol\":4821:4840  _revert(returndata) */\n      tag_347\n        /* \"@openzeppelin/contracts/utils/Address.sol\":4829:4839  returndata */\n      dup3\n        /* \"@openzeppelin/contracts/utils/Address.sol\":4821:4828  _revert */\n      tag_348\n        /* \"@openzeppelin/contracts/utils/Address.sol\":4821:4840  _revert(returndata) */\n      jump\t// in\n    tag_347:\n        /* \"@openzeppelin/contracts/utils/Address.sol\":4793:5201  if (!success) {... */\n      jump(tag_139)\n    tag_346:\n        /* \"@openzeppelin/contracts/utils/Address.sol\":5045:5062  returndata.length */\n      dup2\n      mload\n        /* \"@openzeppelin/contracts/utils/Address.sol\":5045:5067  returndata.length == 0 */\n      iszero\n        /* \"@openzeppelin/contracts/utils/Address.sol\":5045:5094  returndata.length == 0 && target.code.length == 0 */\n      dup1\n      iszero\n      tag_350\n      jumpi\n      pop\n      sub(shl(0xa0, 0x01), 0x01)\n        /* \"@openzeppelin/contracts/utils/Address.sol\":5071:5089  target.code.length */\n      dup5\n      and\n      extcodesize\n        /* \"@openzeppelin/contracts/utils/Address.sol\":5071:5094  target.code.length == 0 */\n      iszero\n        /* \"@openzeppelin/contracts/utils/Address.sol\":5045:5094  returndata.length == 0 && target.code.length == 0 */\n    tag_350:\n        /* \"@openzeppelin/contracts/utils/Address.sol\":5041:5160  if (returndata.length == 0 && target.code.length == 0) {... */\n      iszero\n      tag_351\n      jumpi\n        /* \"@openzeppelin/contracts/utils/Address.sol\":5121:5145  AddressEmptyCode(target) */\n      mload(0x40)\n      shl(0xe0, 0x9996b315)\n      dup2\n      mstore\n      sub(shl(0xa0, 0x01), 0x01)\n        /* \"#utility.yul\":3581:3613   */\n      dup6\n      and\n        /* \"@openzeppelin/contracts/utils/Address.sol\":5121:5145  AddressEmptyCode(target) */\n      0x04\n      dup3\n      add\n        /* \"#utility.yul\":3563:3614   */\n      mstore\n        /* \"#utility.yul\":3536:3554   */\n      0x24\n      add\n        /* \"@openzeppelin/contracts/utils/Address.sol\":5121:5145  AddressEmptyCode(target) */\n      tag_160\n        /* \"#utility.yul\":3389:3620   */\n      jump\n        /* \"@openzeppelin/contracts/utils/Address.sol\":5041:5160  if (returndata.length == 0 && target.code.length == 0) {... */\n    tag_351:\n      pop\n        /* \"@openzeppelin/contracts/utils/Address.sol\":5180:5190  returndata */\n      dup1\n        /* \"@openzeppelin/contracts/utils/Address.sol\":5173:5190  return returndata */\n      jump(tag_139)\n        /* \"@openzeppelin/contracts/utils/Address.sol\":5743:6259  function _revert(bytes memory returndata) private pure {... */\n    tag_348:\n        /* \"@openzeppelin/contracts/utils/Address.sol\":5874:5891  returndata.length */\n      dup1\n      mload\n        /* \"@openzeppelin/contracts/utils/Address.sol\":5874:5895  returndata.length > 0 */\n      iszero\n        /* \"@openzeppelin/contracts/utils/Address.sol\":5870:6253  if (returndata.length > 0) {... */\n      tag_354\n      jumpi\n        /* \"@openzeppelin/contracts/utils/Address.sol\":6102:6112  returndata */\n      dup1\n        /* \"@openzeppelin/contracts/utils/Address.sol\":6096:6113  mload(returndata) */\n      mload\n        /* \"@openzeppelin/contracts/utils/Address.sol\":6158:6173  returndata_size */\n      dup1\n        /* \"@openzeppelin/contracts/utils/Address.sol\":6145:6155  returndata */\n      dup3\n        /* \"@openzeppelin/contracts/utils/Address.sol\":6141:6143  32 */\n      0x20\n        /* \"@openzeppelin/contracts/utils/Address.sol\":6137:6156  add(32, returndata) */\n      add\n        /* \"@openzeppelin/contracts/utils/Address.sol\":6130:6174  revert(add(32, returndata), returndata_size) */\n      revert\n        /* \"@openzeppelin/contracts/utils/Address.sol\":5870:6253  if (returndata.length > 0) {... */\n    tag_354:\n        /* \"@openzeppelin/contracts/utils/Address.sol\":6225:6242  FailedInnerCall() */\n      mload(0x40)\n      shl(0xe1, 0x0a12f521)\n      dup2\n      mstore\n      0x04\n      add\n      mload(0x40)\n      dup1\n      swap2\n      sub\n      swap1\n      revert\n        /* \"#utility.yul\":14:187   */\n    tag_356:\n        /* \"#utility.yul\":82:102   */\n      dup1\n      calldataload\n      sub(shl(0xa0, 0x01), 0x01)\n        /* \"#utility.yul\":131:162   */\n      dup2\n      and\n        /* \"#utility.yul\":121:163   */\n      dup2\n      eq\n        /* \"#utility.yul\":111:181   */\n      tag_361\n      jumpi\n        /* \"#utility.yul\":177:178   */\n      0x00\n        /* \"#utility.yul\":174:175   */\n      dup1\n        /* \"#utility.yul\":167:179   */\n      revert\n        /* \"#utility.yul\":111:181   */\n    tag_361:\n        /* \"#utility.yul\":14:187   */\n      swap2\n      swap1\n      pop\n      jump\t// out\n        /* \"#utility.yul\":192:378   */\n    tag_34:\n        /* \"#utility.yul\":251:257   */\n      0x00\n        /* \"#utility.yul\":304:306   */\n      0x20\n        /* \"#utility.yul\":292:301   */\n      dup3\n        /* \"#utility.yul\":283:290   */\n      dup5\n        /* \"#utility.yul\":279:302   */\n      sub\n        /* \"#utility.yul\":275:307   */\n      slt\n        /* \"#utility.yul\":272:324   */\n      iszero\n      tag_363\n      jumpi\n        /* \"#utility.yul\":320:321   */\n      0x00\n        /* \"#utility.yul\":317:318   */\n      dup1\n        /* \"#utility.yul\":310:322   */\n      revert\n        /* \"#utility.yul\":272:324   */\n    tag_363:\n        /* \"#utility.yul\":343:372   */\n      tag_139\n        /* \"#utility.yul\":362:371   */\n      dup3\n        /* \"#utility.yul\":343:372   */\n      tag_356\n      jump\t// in\n        /* \"#utility.yul\":565:815   */\n    tag_357:\n        /* \"#utility.yul\":650:651   */\n      0x00\n        /* \"#utility.yul\":660:773   */\n    tag_367:\n        /* \"#utility.yul\":674:680   */\n      dup4\n        /* \"#utility.yul\":671:672   */\n      dup2\n        /* \"#utility.yul\":668:681   */\n      lt\n        /* \"#utility.yul\":660:773   */\n      iszero\n      tag_369\n      jumpi\n        /* \"#utility.yul\":750:761   */\n      dup2\n      dup2\n      add\n        /* \"#utility.yul\":744:762   */\n      mload\n        /* \"#utility.yul\":731:742   */\n      dup4\n      dup3\n      add\n        /* \"#utility.yul\":724:763   */\n      mstore\n        /* \"#utility.yul\":696:698   */\n      0x20\n        /* \"#utility.yul\":689:699   */\n      add\n        /* \"#utility.yul\":660:773   */\n      jump(tag_367)\n    tag_369:\n      pop\n      pop\n        /* \"#utility.yul\":807:808   */\n      0x00\n        /* \"#utility.yul\":789:805   */\n      swap2\n      add\n        /* \"#utility.yul\":782:809   */\n      mstore\n        /* \"#utility.yul\":565:815   */\n      jump\t// out\n        /* \"#utility.yul\":820:1216   */\n    tag_41:\n        /* \"#utility.yul\":969:971   */\n      0x20\n        /* \"#utility.yul\":958:967   */\n      dup2\n        /* \"#utility.yul\":951:972   */\n      mstore\n        /* \"#utility.yul\":932:936   */\n      0x00\n        /* \"#utility.yul\":1001:1007   */\n      dup3\n        /* \"#utility.yul\":995:1008   */\n      mload\n        /* \"#utility.yul\":1044:1050   */\n      dup1\n        /* \"#utility.yul\":1039:1041   */\n      0x20\n        /* \"#utility.yul\":1028:1037   */\n      dup5\n        /* \"#utility.yul\":1024:1042   */\n      add\n        /* \"#utility.yul\":1017:1051   */\n      mstore\n        /* \"#utility.yul\":1060:1139   */\n      tag_371\n        /* \"#utility.yul\":1132:1138   */\n      dup2\n        /* \"#utility.yul\":1127:1129   */\n      0x40\n        /* \"#utility.yul\":1116:1125   */\n      dup6\n        /* \"#utility.yul\":1112:1130   */\n      add\n        /* \"#utility.yul\":1107:1109   */\n      0x20\n        /* \"#utility.yul\":1099:1105   */\n      dup8\n        /* \"#utility.yul\":1095:1110   */\n      add\n        /* \"#utility.yul\":1060:1139   */\n      tag_357\n      jump\t// in\n    tag_371:\n        /* \"#utility.yul\":1200:1202   */\n      0x1f\n        /* \"#utility.yul\":1179:1194   */\n      add\n      not(0x1f)\n        /* \"#utility.yul\":1175:1204   */\n      and\n        /* \"#utility.yul\":1160:1205   */\n      swap2\n      swap1\n      swap2\n      add\n        /* \"#utility.yul\":1207:1209   */\n      0x40\n        /* \"#utility.yul\":1156:1210   */\n      add\n      swap3\n        /* \"#utility.yul\":820:1216   */\n      swap2\n      pop\n      pop\n      jump\t// out\n        /* \"#utility.yul\":1221:1521   */\n    tag_44:\n        /* \"#utility.yul\":1289:1295   */\n      0x00\n        /* \"#utility.yul\":1297:1303   */\n      dup1\n        /* \"#utility.yul\":1350:1352   */\n      0x40\n        /* \"#utility.yul\":1338:1347   */\n      dup4\n        /* \"#utility.yul\":1329:1336   */\n      dup6\n        /* \"#utility.yul\":1325:1348   */\n      sub\n        /* \"#utility.yul\":1321:1353   */\n      slt\n        /* \"#utility.yul\":1318:1370   */\n      iszero\n      tag_373\n      jumpi\n        /* \"#utility.yul\":1366:1367   */\n      0x00\n        /* \"#utility.yul\":1363:1364   */\n      dup1\n        /* \"#utility.yul\":1356:1368   */\n      revert\n        /* \"#utility.yul\":1318:1370   */\n    tag_373:\n        /* \"#utility.yul\":1389:1418   */\n      tag_374\n        /* \"#utility.yul\":1408:1417   */\n      dup4\n        /* \"#utility.yul\":1389:1418   */\n      tag_356\n      jump\t// in\n    tag_374:\n        /* \"#utility.yul\":1379:1418   */\n      swap5\n        /* \"#utility.yul\":1487:1489   */\n      0x20\n        /* \"#utility.yul\":1472:1490   */\n      swap4\n      swap1\n      swap4\n      add\n        /* \"#utility.yul\":1459:1491   */\n      calldataload\n      swap4\n      pop\n      pop\n      pop\n        /* \"#utility.yul\":1221:1521   */\n      jump\t// out\n        /* \"#utility.yul\":1718:2092   */\n    tag_53:\n        /* \"#utility.yul\":1795:1801   */\n      0x00\n        /* \"#utility.yul\":1803:1809   */\n      dup1\n        /* \"#utility.yul\":1811:1817   */\n      0x00\n        /* \"#utility.yul\":1864:1866   */\n      0x60\n        /* \"#utility.yul\":1852:1861   */\n      dup5\n        /* \"#utility.yul\":1843:1850   */\n      dup7\n        /* \"#utility.yul\":1839:1862   */\n      sub\n        /* \"#utility.yul\":1835:1867   */\n      slt\n        /* \"#utility.yul\":1832:1884   */\n      iszero\n      tag_377\n      jumpi\n        /* \"#utility.yul\":1880:1881   */\n      0x00\n        /* \"#utility.yul\":1877:1878   */\n      dup1\n        /* \"#utility.yul\":1870:1882   */\n      revert\n        /* \"#utility.yul\":1832:1884   */\n    tag_377:\n        /* \"#utility.yul\":1903:1932   */\n      tag_378\n        /* \"#utility.yul\":1922:1931   */\n      dup5\n        /* \"#utility.yul\":1903:1932   */\n      tag_356\n      jump\t// in\n    tag_378:\n        /* \"#utility.yul\":1893:1932   */\n      swap3\n      pop\n        /* \"#utility.yul\":1951:1989   */\n      tag_379\n        /* \"#utility.yul\":1985:1987   */\n      0x20\n        /* \"#utility.yul\":1974:1983   */\n      dup6\n        /* \"#utility.yul\":1970:1988   */\n      add\n        /* \"#utility.yul\":1951:1989   */\n      tag_356\n      jump\t// in\n    tag_379:\n        /* \"#utility.yul\":1718:2092   */\n      swap3\n      swap6\n        /* \"#utility.yul\":1941:1989   */\n      swap3\n      swap5\n      pop\n      pop\n      pop\n        /* \"#utility.yul\":2058:2060   */\n      0x40\n        /* \"#utility.yul\":2043:2061   */\n      swap2\n      swap1\n      swap2\n      add\n        /* \"#utility.yul\":2030:2062   */\n      calldataload\n      swap1\n        /* \"#utility.yul\":1718:2092   */\n      jump\t// out\n        /* \"#utility.yul\":2286:2512   */\n    tag_64:\n        /* \"#utility.yul\":2345:2351   */\n      0x00\n        /* \"#utility.yul\":2398:2400   */\n      0x20\n        /* \"#utility.yul\":2386:2395   */\n      dup3\n        /* \"#utility.yul\":2377:2384   */\n      dup5\n        /* \"#utility.yul\":2373:2396   */\n      sub\n        /* \"#utility.yul\":2369:2401   */\n      slt\n        /* \"#utility.yul\":2366:2418   */\n      iszero\n      tag_382\n      jumpi\n        /* \"#utility.yul\":2414:2415   */\n      0x00\n        /* \"#utility.yul\":2411:2412   */\n      dup1\n        /* \"#utility.yul\":2404:2416   */\n      revert\n        /* \"#utility.yul\":2366:2418   */\n    tag_382:\n      pop\n        /* \"#utility.yul\":2459:2482   */\n      calldataload\n      swap2\n        /* \"#utility.yul\":2286:2512   */\n      swap1\n      pop\n      jump\t// out\n        /* \"#utility.yul\":2517:2644   */\n    tag_193:\n        /* \"#utility.yul\":2578:2588   */\n      0x4e487b71\n        /* \"#utility.yul\":2573:2576   */\n      0xe0\n        /* \"#utility.yul\":2569:2589   */\n      shl\n        /* \"#utility.yul\":2566:2567   */\n      0x00\n        /* \"#utility.yul\":2559:2590   */\n      mstore\n        /* \"#utility.yul\":2609:2613   */\n      0x21\n        /* \"#utility.yul\":2606:2607   */\n      0x04\n        /* \"#utility.yul\":2599:2614   */\n      mstore\n        /* \"#utility.yul\":2633:2637   */\n      0x24\n        /* \"#utility.yul\":2630:2631   */\n      0x00\n        /* \"#utility.yul\":2623:2638   */\n      revert\n        /* \"#utility.yul\":2649:3384   */\n    tag_73:\n      sub(shl(0xa0, 0x01), 0x01)\n        /* \"#utility.yul\":2959:2991   */\n      dup8\n      and\n        /* \"#utility.yul\":2941:2992   */\n      dup2\n      mstore\n        /* \"#utility.yul\":3023:3025   */\n      0x20\n        /* \"#utility.yul\":3008:3026   */\n      dup2\n      add\n        /* \"#utility.yul\":3001:3035   */\n      dup7\n      swap1\n      mstore\n        /* \"#utility.yul\":3066:3068   */\n      0x40\n        /* \"#utility.yul\":3051:3069   */\n      dup2\n      add\n        /* \"#utility.yul\":3044:3078   */\n      dup6\n      swap1\n      mstore\n        /* \"#utility.yul\":3109:3111   */\n      0x60\n        /* \"#utility.yul\":3094:3112   */\n      dup2\n      add\n        /* \"#utility.yul\":3087:3121   */\n      dup5\n      swap1\n      mstore\n        /* \"#utility.yul\":3165:3179   */\n      dup3\n      iszero\n        /* \"#utility.yul\":3158:3180   */\n      iszero\n        /* \"#utility.yul\":3152:3155   */\n      0x80\n        /* \"#utility.yul\":3137:3156   */\n      dup3\n      add\n        /* \"#utility.yul\":3130:3181   */\n      mstore\n        /* \"#utility.yul\":2928:2931   */\n      0xc0\n        /* \"#utility.yul\":2913:2932   */\n      dup2\n      add\n        /* \"#utility.yul\":3211:3212   */\n      0x02\n        /* \"#utility.yul\":3200:3213   */\n      dup4\n      lt\n        /* \"#utility.yul\":3190:3334   */\n      tag_385\n      jumpi\n        /* \"#utility.yul\":3256:3266   */\n      0x4e487b71\n        /* \"#utility.yul\":3251:3254   */\n      0xe0\n        /* \"#utility.yul\":3247:3267   */\n      shl\n        /* \"#utility.yul\":3244:3245   */\n      0x00\n        /* \"#utility.yul\":3237:3268   */\n      mstore\n        /* \"#utility.yul\":3291:3295   */\n      0x21\n        /* \"#utility.yul\":3288:3289   */\n      0x04\n        /* \"#utility.yul\":3281:3296   */\n      mstore\n        /* \"#utility.yul\":3319:3323   */\n      0x24\n        /* \"#utility.yul\":3316:3317   */\n      0x00\n        /* \"#utility.yul\":3309:3324   */\n      revert\n        /* \"#utility.yul\":3190:3334   */\n    tag_385:\n        /* \"#utility.yul\":3371:3377   */\n      dup3\n        /* \"#utility.yul\":3365:3368   */\n      0xa0\n        /* \"#utility.yul\":3354:3363   */\n      dup4\n        /* \"#utility.yul\":3350:3369   */\n      add\n        /* \"#utility.yul\":3343:3378   */\n      mstore\n        /* \"#utility.yul\":2649:3384   */\n      swap8\n      swap7\n      pop\n      pop\n      pop\n      pop\n      pop\n      pop\n      pop\n      jump\t// out\n        /* \"#utility.yul\":3625:4014   */\n    tag_94:\n        /* \"#utility.yul\":3706:3712   */\n      0x00\n        /* \"#utility.yul\":3714:3720   */\n      dup1\n        /* \"#utility.yul\":3767:3769   */\n      0x40\n        /* \"#utility.yul\":3755:3764   */\n      dup4\n        /* \"#utility.yul\":3746:3753   */\n      dup6\n        /* \"#utility.yul\":3742:3765   */\n      sub\n        /* \"#utility.yul\":3738:3770   */\n      slt\n        /* \"#utility.yul\":3735:3787   */\n      iszero\n      tag_388\n      jumpi\n        /* \"#utility.yul\":3783:3784   */\n      0x00\n        /* \"#utility.yul\":3780:3781   */\n      dup1\n        /* \"#utility.yul\":3773:3785   */\n      revert\n        /* \"#utility.yul\":3735:3787   */\n    tag_388:\n        /* \"#utility.yul\":3828:3851   */\n      dup3\n      calldataload\n      swap2\n      pop\n        /* \"#utility.yul\":3927:3929   */\n      0x20\n        /* \"#utility.yul\":3912:3930   */\n      dup4\n      add\n        /* \"#utility.yul\":3899:3931   */\n      calldataload\n        /* \"#utility.yul\":3962:3963   */\n      0x02\n        /* \"#utility.yul\":3950:3964   */\n      dup2\n      lt\n        /* \"#utility.yul\":3940:3982   */\n      tag_389\n      jumpi\n        /* \"#utility.yul\":3978:3979   */\n      0x00\n        /* \"#utility.yul\":3975:3976   */\n      dup1\n        /* \"#utility.yul\":3968:3980   */\n      revert\n        /* \"#utility.yul\":3940:3982   */\n    tag_389:\n        /* \"#utility.yul\":4001:4008   */\n      dup1\n        /* \"#utility.yul\":3991:4008   */\n      swap2\n      pop\n      pop\n        /* \"#utility.yul\":3625:4014   */\n      swap3\n      pop\n      swap3\n      swap1\n      pop\n      jump\t// out\n        /* \"#utility.yul\":4227:4487   */\n    tag_115:\n        /* \"#utility.yul\":4295:4301   */\n      0x00\n        /* \"#utility.yul\":4303:4309   */\n      dup1\n        /* \"#utility.yul\":4356:4358   */\n      0x40\n        /* \"#utility.yul\":4344:4353   */\n      dup4\n        /* \"#utility.yul\":4335:4342   */\n      dup6\n        /* \"#utility.yul\":4331:4354   */\n      sub\n        /* \"#utility.yul\":4327:4359   */\n      slt\n        /* \"#utility.yul\":4324:4376   */\n      iszero\n      tag_392\n      jumpi\n        /* \"#utility.yul\":4372:4373   */\n      0x00\n        /* \"#utility.yul\":4369:4370   */\n      dup1\n        /* \"#utility.yul\":4362:4374   */\n      revert\n        /* \"#utility.yul\":4324:4376   */\n    tag_392:\n        /* \"#utility.yul\":4395:4424   */\n      tag_393\n        /* \"#utility.yul\":4414:4423   */\n      dup4\n        /* \"#utility.yul\":4395:4424   */\n      tag_356\n      jump\t// in\n    tag_393:\n        /* \"#utility.yul\":4385:4424   */\n      swap2\n      pop\n        /* \"#utility.yul\":4443:4481   */\n      tag_394\n        /* \"#utility.yul\":4477:4479   */\n      0x20\n        /* \"#utility.yul\":4466:4475   */\n      dup5\n        /* \"#utility.yul\":4462:4480   */\n      add\n        /* \"#utility.yul\":4443:4481   */\n      tag_356\n      jump\t// in\n    tag_394:\n        /* \"#utility.yul\":4433:4481   */\n      swap1\n      pop\n        /* \"#utility.yul\":4227:4487   */\n      swap3\n      pop\n      swap3\n      swap1\n      pop\n      jump\t// out\n        /* \"#utility.yul\":5012:5392   */\n    tag_128:\n        /* \"#utility.yul\":5091:5092   */\n      0x01\n        /* \"#utility.yul\":5087:5099   */\n      dup2\n      dup2\n      shr\n      swap1\n        /* \"#utility.yul\":5134:5146   */\n      dup3\n      and\n      dup1\n        /* \"#utility.yul\":5155:5216   */\n      tag_397\n      jumpi\n        /* \"#utility.yul\":5209:5213   */\n      0x7f\n        /* \"#utility.yul\":5201:5207   */\n      dup3\n        /* \"#utility.yul\":5197:5214   */\n      and\n        /* \"#utility.yul\":5187:5214   */\n      swap2\n      pop\n        /* \"#utility.yul\":5155:5216   */\n    tag_397:\n        /* \"#utility.yul\":5262:5264   */\n      0x20\n        /* \"#utility.yul\":5254:5260   */\n      dup3\n        /* \"#utility.yul\":5251:5265   */\n      lt\n        /* \"#utility.yul\":5231:5249   */\n      dup2\n        /* \"#utility.yul\":5228:5266   */\n      sub\n        /* \"#utility.yul\":5225:5386   */\n      tag_398\n      jumpi\n        /* \"#utility.yul\":5308:5318   */\n      0x4e487b71\n        /* \"#utility.yul\":5303:5306   */\n      0xe0\n        /* \"#utility.yul\":5299:5319   */\n      shl\n        /* \"#utility.yul\":5296:5297   */\n      0x00\n        /* \"#utility.yul\":5289:5320   */\n      mstore\n        /* \"#utility.yul\":5343:5347   */\n      0x22\n        /* \"#utility.yul\":5340:5341   */\n      0x04\n        /* \"#utility.yul\":5333:5348   */\n      mstore\n        /* \"#utility.yul\":5371:5375   */\n      0x24\n        /* \"#utility.yul\":5368:5369   */\n      0x00\n        /* \"#utility.yul\":5361:5376   */\n      revert\n        /* \"#utility.yul\":5225:5386   */\n    tag_398:\n      pop\n        /* \"#utility.yul\":5012:5392   */\n      swap2\n      swap1\n      pop\n      jump\t// out\n        /* \"#utility.yul\":5397:5524   */\n    tag_358:\n        /* \"#utility.yul\":5458:5468   */\n      0x4e487b71\n        /* \"#utility.yul\":5453:5456   */\n      0xe0\n        /* \"#utility.yul\":5449:5469   */\n      shl\n        /* \"#utility.yul\":5446:5447   */\n      0x00\n        /* \"#utility.yul\":5439:5470   */\n      mstore\n        /* \"#utility.yul\":5489:5493   */\n      0x11\n        /* \"#utility.yul\":5486:5487   */\n      0x04\n        /* \"#utility.yul\":5479:5494   */\n      mstore\n        /* \"#utility.yul\":5513:5517   */\n      0x24\n        /* \"#utility.yul\":5510:5511   */\n      0x00\n        /* \"#utility.yul\":5503:5518   */\n      revert\n        /* \"#utility.yul\":5529:5654   */\n    tag_158:\n        /* \"#utility.yul\":5594:5603   */\n      dup1\n      dup3\n      add\n        /* \"#utility.yul\":5615:5625   */\n      dup1\n      dup3\n      gt\n        /* \"#utility.yul\":5612:5648   */\n      iszero\n      tag_133\n      jumpi\n        /* \"#utility.yul\":5628:5646   */\n      tag_133\n      tag_358\n      jump\t// in\n        /* \"#utility.yul\":6631:6908   */\n    tag_170:\n        /* \"#utility.yul\":6698:6704   */\n      0x00\n        /* \"#utility.yul\":6751:6753   */\n      0x20\n        /* \"#utility.yul\":6739:6748   */\n      dup3\n        /* \"#utility.yul\":6730:6737   */\n      dup5\n        /* \"#utility.yul\":6726:6749   */\n      sub\n        /* \"#utility.yul\":6722:6754   */\n      slt\n        /* \"#utility.yul\":6719:6771   */\n      iszero\n      tag_407\n      jumpi\n        /* \"#utility.yul\":6767:6768   */\n      0x00\n        /* \"#utility.yul\":6764:6765   */\n      dup1\n        /* \"#utility.yul\":6757:6769   */\n      revert\n        /* \"#utility.yul\":6719:6771   */\n    tag_407:\n        /* \"#utility.yul\":6799:6808   */\n      dup2\n        /* \"#utility.yul\":6793:6809   */\n      mload\n        /* \"#utility.yul\":6852:6857   */\n      dup1\n        /* \"#utility.yul\":6845:6858   */\n      iszero\n        /* \"#utility.yul\":6838:6859   */\n      iszero\n        /* \"#utility.yul\":6831:6836   */\n      dup2\n        /* \"#utility.yul\":6828:6860   */\n      eq\n        /* \"#utility.yul\":6818:6878   */\n      tag_139\n      jumpi\n        /* \"#utility.yul\":6874:6875   */\n      0x00\n        /* \"#utility.yul\":6871:6872   */\n      dup1\n        /* \"#utility.yul\":6864:6876   */\n      revert\n        /* \"#utility.yul\":6913:7081   */\n    tag_208:\n        /* \"#utility.yul\":6986:6995   */\n      dup1\n      dup3\n      mul\n        /* \"#utility.yul\":7017:7026   */\n      dup2\n      iszero\n        /* \"#utility.yul\":7034:7049   */\n      dup3\n      dup3\n      div\n        /* \"#utility.yul\":7028:7050   */\n      dup5\n      eq\n        /* \"#utility.yul\":7014:7051   */\n      or\n        /* \"#utility.yul\":7004:7075   */\n      tag_133\n      jumpi\n        /* \"#utility.yul\":7055:7073   */\n      tag_133\n      tag_358\n      jump\t// in\n        /* \"#utility.yul\":7086:7221   */\n    tag_216:\n        /* \"#utility.yul\":7125:7128   */\n      0x00\n        /* \"#utility.yul\":7146:7163   */\n      0x01\n      dup3\n      add\n        /* \"#utility.yul\":7143:7186   */\n      tag_414\n      jumpi\n        /* \"#utility.yul\":7166:7184   */\n      tag_414\n      tag_358\n      jump\t// in\n    tag_414:\n      pop\n        /* \"#utility.yul\":7213:7214   */\n      0x01\n        /* \"#utility.yul\":7202:7215   */\n      add\n      swap1\n        /* \"#utility.yul\":7086:7221   */\n      jump\t// out\n        /* \"#utility.yul\":9006:9293   */\n    tag_339:\n        /* \"#utility.yul\":9135:9138   */\n      0x00\n        /* \"#utility.yul\":9173:9179   */\n      dup3\n        /* \"#utility.yul\":9167:9180   */\n      mload\n        /* \"#utility.yul\":9189:9255   */\n      tag_421\n        /* \"#utility.yul\":9248:9254   */\n      dup2\n        /* \"#utility.yul\":9243:9246   */\n      dup5\n        /* \"#utility.yul\":9236:9240   */\n      0x20\n        /* \"#utility.yul\":9228:9234   */\n      dup8\n        /* \"#utility.yul\":9224:9241   */\n      add\n        /* \"#utility.yul\":9189:9255   */\n      tag_357\n      jump\t// in\n    tag_421:\n        /* \"#utility.yul\":9271:9287   */\n      swap2\n      swap1\n      swap2\n      add\n      swap3\n        /* \"#utility.yul\":9006:9293   */\n      swap2\n      pop\n      pop\n      jump\t// out\n\n    auxdata: 0xa26469706673582212205049776f4c986580ec88732a8f9a98540482d1273ffc6b7394a5fe20f423095564736f6c634300081a0033\n}\n",
				"bytecode": {
					"linkReferences": {},
					"object": "60a060405234801561001057600080fd5b50604051611a23380380611a2383398101604081905261002f916102ed565b80604051806040016040528060128152602001712a34b6b2902b34b63630b3b2902a37b5b2b760711b8152506040518060400160405280600381526020016215159560ea1b815250816003908161008691906103bf565b50600461009382826103bf565b50506005805460ff19169055506001600160a01b0381166100cf57604051631e4fbdf760e01b8152600060048201526024015b60405180910390fd5b6100d881610113565b506001600655610101336100ee6012600a61057c565b6100fc90639502f900610592565b61016d565b506001600160a01b03166080526105bc565b600580546001600160a01b03838116610100818102610100600160a81b031985161790945560405193909204169182907f8be0079c531659141344cd1fd0a4f28419497f9722a3daafe3b4186f6b6457e090600090a35050565b6001600160a01b0382166101975760405163ec442f0560e01b8152600060048201526024016100c6565b6101a3600083836101a7565b5050565b6001600160a01b0383166101d25780600260008282546101c791906105a9565b909155506102449050565b6001600160a01b038316600090815260208190526040902054818110156102255760405163391434e360e21b81526001600160a01b038516600482015260248101829052604481018390526064016100c6565b6001600160a01b03841660009081526020819052604090209082900390555b6001600160a01b0382166102605760028054829003905561027f565b6001600160a01b03821660009081526020819052604090208054820190555b816001600160a01b0316836001600160a01b03167fddf252ad1be2c89b69c2b068fc378daa952ba7f163c4a11628f55a4df523b3ef836040516102c491815260200190565b60405180910390a3505050565b80516001600160a01b03811681146102e857600080fd5b919050565b6000806040838503121561030057600080fd5b610309836102d1565b9150610317602084016102d1565b90509250929050565b634e487b7160e01b600052604160045260246000fd5b600181811c9082168061034a57607f821691505b60208210810361036a57634e487b7160e01b600052602260045260246000fd5b50919050565b601f8211156103ba57806000526020600020601f840160051c810160208510156103975750805b601f840160051c820191505b818110156103b757600081556001016103a3565b50505b505050565b81516001600160401b038111156103d8576103d8610320565b6103ec816103e68454610336565b84610370565b6020601f82116001811461042057600083156104085750848201515b600019600385901b1c1916600184901b1784556103b7565b600084815260208120601f198516915b828110156104505787850151825560209485019460019092019101610430565b508482101561046e5786840151600019600387901b60f8161c191681555b50505050600190811b01905550565b634e487b7160e01b600052601160045260246000fd5b6001815b60018411156104ce578085048111156104b2576104b261047d565b60018416156104c057908102905b60019390931c928002610497565b935093915050565b6000826104e557506001610576565b816104f257506000610576565b816001811461050857600281146105125761052e565b6001915050610576565b60ff8411156105235761052361047d565b50506001821b610576565b5060208310610133831016604e8410600b8410161715610551575081810a610576565b61055e6000198484610493565b80600019048211156105725761057261047d565b0290505b92915050565b600061058b60ff8416836104d6565b9392505050565b80820281158282048414176105765761057661047d565b808201808211156105765761057661047d565b60805161144c6105d760003960006109d0015261144c6000f3fe608060405234801561001057600080fd5b50600436106101735760003560e01c8063715018a6116100de57806395d89b4111610097578063c0cd40ee11610071578063c0cd40ee14610380578063cec90fe714610393578063dd62ed3e1461041b578063f2fde38b1461045457600080fd5b806395d89b4114610358578063a3c50cfd14610360578063a9059cbb1461036d57600080fd5b8063715018a6146102e1578063741bef1a146102e957806379cc6790146103145780638456cb59146103275780638d3ce8a51461032f5780638da5cb5b1461034257600080fd5b80633f4ba83a116101305780633f4ba83a1461020d57806342966c681461021757806347cee97c1461022a578063584707eb1461023d5780635c975abb146102ad57806370a08231146102b857600080fd5b806302ab3fed1461017857806306fdde03146101ab578063095ea7b3146101c057806318160ddd146101e357806323b872dd146101eb578063313ce567146101fe575b600080fd5b61019861018636600461117a565b600e6020526000908152604090205481565b6040519081526020015b60405180910390f35b6101b3610467565b6040516101a291906111b9565b6101d36101ce3660046111ec565b6104f9565b60405190151581526020016101a2565b600254610198565b6101d36101f9366004611216565b610513565b604051601281526020016101a2565b610215610539565b005b610215610225366004611253565b61054b565b6102156102383660046111ec565b610558565b61029b61024b3660046111ec565b600b602090815260009283526040808420909152908252902080546001820154600283015460038401546004909401546001600160a01b0390931693919290919060ff8082169161010090041686565b6040516101a296959493929190611282565b60055460ff166101d3565b6101986102c636600461117a565b6001600160a01b031660009081526020819052604090205490565b6102156106dc565b6007546102fc906001600160a01b031681565b6040516001600160a01b0390911681526020016101a2565b6102156103223660046111ec565b6106ee565b610215610707565b61021561033d3660046112de565b610717565b60055461010090046001600160a01b03166102fc565b6101b3610a06565b6009546101d39060ff1681565b6101d361037b3660046111ec565b610a15565b61021561038e366004611253565b610a23565b6103e76103a1366004611312565b600c602090815260009283526040808420909152908252902080546001820154600283015460038401546004909401549293919290916001600160a01b03908116911685565b604080519586526020860194909452928401919091526001600160a01b03908116606084015216608082015260a0016101a2565b610198610429366004611312565b6001600160a01b03918216600090815260016020908152604080832093909416825291909152205490565b61021561046236600461117a565b610a37565b60606003805461047690611345565b80601f01602080910402602001604051908101604052809291908181526020018280546104a290611345565b80156104ef5780601f106104c4576101008083540402835291602001916104ef565b820191906000526020600020905b8154815290600101906020018083116104d257829003601f168201915b5050505050905090565b600033610507818585610a72565b60019150505b92915050565b600033610521858285610a84565b61052c858585610b02565b60019150505b9392505050565b610541610b61565b610549610b94565b565b6105553382610be6565b50565b306000908152600c602090815260408083206001600160a01b0386168452909152902060020154429061058c90600a611395565b11156105d55760405162461bcd60e51b815260206004820152601360248201527210dd5c9c995b9d081d1a5b5948195e18d95959606a1b60448201526064015b60405180910390fd5b306000908152600c602090815260408083206001600160a01b0386168452909152902060010154811461063d5760405162461bcd60e51b815260206004820152601060248201526f082dadeeadce840dcdee840dac2e8c6d60831b60448201526064016105cc565b60405163a9059cbb60e01b81526001600160a01b038316600482015260248101829052309063a9059cbb906044016020604051808303816000875af115801561068a573d6000803e3d6000fd5b505050506040513d601f19601f820116820180604052508101906106ae91906113a8565b5050306000908152600c602090815260408083206001600160a01b0394909416835292905290812060010155565b6106e4610b61565b6105496000610c1c565b6106f9823383610a84565b6107038282610be6565b5050565b61070f610b61565b610549610c76565b61071f610cb3565b600d60205260007f81955a0a11e65eac625c29e8882660bae4e165a75d72780094acae8ece9a29ee81905560018082527ffd54ff1ed53f34a900b24c5ba64f85761163b5d82d98a47b9bd80e45466993c581905560088054820190559061013d90600d60008560018111156107965761079661126c565b60018111156107a7576107a761126c565b8152602001908152602001600020546000036107ca576107c783866113ca565b90505b600d60008560018111156107e0576107e061126c565b60018111156107f1576107f161126c565b8152602001908152602001600020546001036108145761081182866113ca565b90505b336000908152600e6020526040812080549161082f836113e1565b9091555050336000818152600e602090815260409182902054825160c0810184529384529083018890529082018590526060820183905260016080830181905290919060a082019087908111156108885761088861126c565b9052336000908152600b60209081526040808320858452825291829020835181546001600160a01b0319166001600160a01b039091161781559083015160018083019190915591830151600282015560608301516003820155608083015160048201805460ff198116921515928317825560a08601519394919261ffff1990911661ff001990911617906101009084908111156109275761092761126c565b0217905550506040805160a08101825286815260208082018a815242838501908152336060850181815230608087018181526000918252600c875288822084835290965296909620945185559151600185015551600284015592516003830180546001600160a01b03199081166001600160a01b03938416179091559151600490930180549092169281169290921790556005546109f893506101009004166001600160a01b037f000000000000000000000000000000000000000000000000000000000000000016919085610d0c565b505050506107036001600655565b60606004805461047690611345565b600033610507818585610b02565b610a2b610b61565b61055530338184610d0c565b610a3f610b61565b6001600160a01b038116610a6957604051631e4fbdf760e01b8152600060048201526024016105cc565b61055581610c1c565b610a7f8383836001610d66565b505050565b6001600160a01b038381166000908152600160209081526040808320938616835292905220546000198114610afc5781811015610aed57604051637dc7a0d960e11b81526001600160a01b038416600482015260248101829052604481018390526064016105cc565b610afc84848484036000610d66565b50505050565b6001600160a01b038316610b2c57604051634b637e8f60e11b8152600060048201526024016105cc565b6001600160a01b038216610b565760405163ec442f0560e01b8152600060048201526024016105cc565b610a7f838383610e3b565b6005546001600160a01b036101009091041633146105495760405163118cdaa760e01b81523360048201526024016105cc565b610b9c610f65565b6005805460ff191690557f5db9ee0a495bf2e6ff9c91a7834c1ba4fdd244a5e8aa4e537bd38aeae4b073aa335b6040516001600160a01b03909116815260200160405180910390a1565b6001600160a01b038216610c1057604051634b637e8f60e11b8152600060048201526024016105cc565b61070382600083610e3b565b600580546001600160a01b03838116610100818102610100600160a81b031985161790945560405193909204169182907f8be0079c531659141344cd1fd0a4f28419497f9722a3daafe3b4186f6b6457e090600090a35050565b610c7e610fae565b6005805460ff191660011790557f62e78cea01bee320cd4e420270b5ea74000d11b0c9f74754ebdbfc544b05a258610bc93390565b600260065403610d055760405162461bcd60e51b815260206004820152601f60248201527f5265656e7472616e637947756172643a207265656e7472616e742063616c6c0060448201526064016105cc565b6002600655565b604080516001600160a01b0385811660248301528416604482015260648082018490528251808303909101815260849091019091526020810180516001600160e01b03166323b872dd60e01b179052610afc908590610ff4565b6001600160a01b038416610d905760405163e602df0560e01b8152600060048201526024016105cc565b6001600160a01b038316610dba57604051634a1406b160e11b8152600060048201526024016105cc565b6001600160a01b0380851660009081526001602090815260408083209387168352929052208290558015610afc57826001600160a01b0316846001600160a01b03167f8c5be1e5ebec7d5bd14f71427d1e84f3dd0314c0f7b2291e5b200ac8c7c3b92584604051610e2d91815260200190565b60405180910390a350505050565b6001600160a01b038316610e66578060026000828254610e5b9190611395565b90915550610ed89050565b6001600160a01b03831660009081526020819052604090205481811015610eb95760405163391434e360e21b81526001600160a01b038516600482015260248101829052604481018390526064016105cc565b6001600160a01b03841660009081526020819052604090209082900390555b6001600160a01b038216610ef457600280548290039055610f13565b6001600160a01b03821660009081526020819052604090208054820190555b816001600160a01b0316836001600160a01b03167fddf252ad1be2c89b69c2b068fc378daa952ba7f163c4a11628f55a4df523b3ef83604051610f5891815260200190565b60405180910390a3505050565b60055460ff166105495760405162461bcd60e51b815260206004820152601460248201527314185d5cd8589b194e881b9bdd081c185d5cd95960621b60448201526064016105cc565b60055460ff16156105495760405162461bcd60e51b815260206004820152601060248201526f14185d5cd8589b194e881c185d5cd95960821b60448201526064016105cc565b60006110096001600160a01b03841683611057565b9050805160001415801561102e57508080602001905181019061102c91906113a8565b155b15610a7f57604051635274afe760e01b81526001600160a01b03841660048201526024016105cc565b60606105328383600084600080856001600160a01b0316848660405161107d91906113fa565b60006040518083038185875af1925050503d80600081146110ba576040519150601f19603f3d011682016040523d82523d6000602084013e6110bf565b606091505b50915091506110cf8683836110d9565b9695505050505050565b6060826110ee576110e982611135565b610532565b815115801561110557506001600160a01b0384163b155b1561112e57604051639996b31560e01b81526001600160a01b03851660048201526024016105cc565b5080610532565b8051156111455780518082602001fd5b604051630a12f52160e11b815260040160405180910390fd5b80356001600160a01b038116811461117557600080fd5b919050565b60006020828403121561118c57600080fd5b6105328261115e565b60005b838110156111b0578181015183820152602001611198565b50506000910152565b60208152600082518060208401526111d8816040850160208701611195565b601f01601f19169190910160400192915050565b600080604083850312156111ff57600080fd5b6112088361115e565b946020939093013593505050565b60008060006060848603121561122b57600080fd5b6112348461115e565b92506112426020850161115e565b929592945050506040919091013590565b60006020828403121561126557600080fd5b5035919050565b634e487b7160e01b600052602160045260246000fd5b6001600160a01b0387168152602081018690526040810185905260608101849052821515608082015260c08101600283106112cd57634e487b7160e01b600052602160045260246000fd5b8260a0830152979650505050505050565b600080604083850312156112f157600080fd5b8235915060208301356002811061130757600080fd5b809150509250929050565b6000806040838503121561132557600080fd5b61132e8361115e565b915061133c6020840161115e565b90509250929050565b600181811c9082168061135957607f821691505b60208210810361137957634e487b7160e01b600052602260045260246000fd5b50919050565b634e487b7160e01b600052601160045260246000fd5b8082018082111561050d5761050d61137f565b6000602082840312156113ba57600080fd5b8151801515811461053257600080fd5b808202811582820484141761050d5761050d61137f565b6000600182016113f3576113f361137f565b5060010190565b6000825161140c818460208701611195565b919091019291505056fea26469706673582212205049776f4c986580ec88732a8f9a98540482d1273ffc6b7394a5fe20f423095564736f6c634300081a0033",
					"opcodes": "PUSH1 0xA0 PUSH1 0x40 MSTORE CALLVALUE DUP1 ISZERO PUSH2 0x10 JUMPI PUSH1 0x0 DUP1 REVERT JUMPDEST POP PUSH1 0x40 MLOAD PUSH2 0x1A23 CODESIZE SUB DUP1 PUSH2 0x1A23 DUP4 CODECOPY DUP2 ADD PUSH1 0x40 DUP2 SWAP1 MSTORE PUSH2 0x2F SWAP2 PUSH2 0x2ED JUMP JUMPDEST DUP1 PUSH1 0x40 MLOAD DUP1 PUSH1 0x40 ADD PUSH1 0x40 MSTORE DUP1 PUSH1 0x12 DUP2 MSTORE PUSH1 0x20 ADD PUSH18 0x2A34B6B2902B34B63630B3B2902A37B5B2B7 PUSH1 0x71 SHL DUP2 MSTORE POP PUSH1 0x40 MLOAD DUP1 PUSH1 0x40 ADD PUSH1 0x40 MSTORE DUP1 PUSH1 0x3 DUP2 MSTORE PUSH1 0x20 ADD PUSH3 0x151595 PUSH1 0xEA SHL DUP2 MSTORE POP DUP2 PUSH1 0x3 SWAP1 DUP2 PUSH2 0x86 SWAP2 SWAP1 PUSH2 0x3BF JUMP JUMPDEST POP PUSH1 0x4 PUSH2 0x93 DUP3 DUP3 PUSH2 0x3BF JUMP JUMPDEST POP POP PUSH1 0x5 DUP1 SLOAD PUSH1 0xFF NOT AND SWAP1 SSTORE POP PUSH1 0x1 PUSH1 0x1 PUSH1 0xA0 SHL SUB DUP2 AND PUSH2 0xCF JUMPI PUSH1 0x40 MLOAD PUSH4 0x1E4FBDF7 PUSH1 0xE0 SHL DUP2 MSTORE PUSH1 0x0 PUSH1 0x4 DUP3 ADD MSTORE PUSH1 0x24 ADD JUMPDEST PUSH1 0x40 MLOAD DUP1 SWAP2 SUB SWAP1 REVERT JUMPDEST PUSH2 0xD8 DUP2 PUSH2 0x113 JUMP JUMPDEST POP PUSH1 0x1 PUSH1 0x6 SSTORE PUSH2 0x101 CALLER PUSH2 0xEE PUSH1 0x12 PUSH1 0xA PUSH2 0x57C JUMP JUMPDEST PUSH2 0xFC SWAP1 PUSH4 0x9502F900 PUSH2 0x592 JUMP JUMPDEST PUSH2 0x16D JUMP JUMPDEST POP PUSH1 0x1 PUSH1 0x1 PUSH1 0xA0 SHL SUB AND PUSH1 0x80 MSTORE PUSH2 0x5BC JUMP JUMPDEST PUSH1 0x5 DUP1 SLOAD PUSH1 0x1 PUSH1 0x1 PUSH1 0xA0 SHL SUB DUP4 DUP2 AND PUSH2 0x100 DUP2 DUP2 MUL PUSH2 0x100 PUSH1 0x1 PUSH1 0xA8 SHL SUB NOT DUP6 AND OR SWAP1 SWAP5 SSTORE PUSH1 0x40 MLOAD SWAP4 SWAP1 SWAP3 DIV AND SWAP2 DUP3 SWAP1 PUSH32 0x8BE0079C531659141344CD1FD0A4F28419497F9722A3DAAFE3B4186F6B6457E0 SWAP1 PUSH1 0x0 SWAP1 LOG3 POP POP JUMP JUMPDEST PUSH1 0x1 PUSH1 0x1 PUSH1 0xA0 SHL SUB DUP3 AND PUSH2 0x197 JUMPI PUSH1 0x40 MLOAD PUSH4 0xEC442F05 PUSH1 0xE0 SHL DUP2 MSTORE PUSH1 0x0 PUSH1 0x4 DUP3 ADD MSTORE PUSH1 0x24 ADD PUSH2 0xC6 JUMP JUMPDEST PUSH2 0x1A3 PUSH1 0x0 DUP4 DUP4 PUSH2 0x1A7 JUMP JUMPDEST POP POP JUMP JUMPDEST PUSH1 0x1 PUSH1 0x1 PUSH1 0xA0 SHL SUB DUP4 AND PUSH2 0x1D2 JUMPI DUP1 PUSH1 0x2 PUSH1 0x0 DUP3 DUP3 SLOAD PUSH2 0x1C7 SWAP2 SWAP1 PUSH2 0x5A9 JUMP JUMPDEST SWAP1 SWAP2 SSTORE POP PUSH2 0x244 SWAP1 POP JUMP JUMPDEST PUSH1 0x1 PUSH1 0x1 PUSH1 0xA0 SHL SUB DUP4 AND PUSH1 0x0 SWAP1 DUP2 MSTORE PUSH1 0x20 DUP2 SWAP1 MSTORE PUSH1 0x40 SWAP1 KECCAK256 SLOAD DUP2 DUP2 LT ISZERO PUSH2 0x225 JUMPI PUSH1 0x40 MLOAD PUSH4 0x391434E3 PUSH1 0xE2 SHL DUP2 MSTORE PUSH1 0x1 PUSH1 0x1 PUSH1 0xA0 SHL SUB DUP6 AND PUSH1 0x4 DUP3 ADD MSTORE PUSH1 0x24 DUP2 ADD DUP3 SWAP1 MSTORE PUSH1 0x44 DUP2 ADD DUP4 SWAP1 MSTORE PUSH1 0x64 ADD PUSH2 0xC6 JUMP JUMPDEST PUSH1 0x1 PUSH1 0x1 PUSH1 0xA0 SHL SUB DUP5 AND PUSH1 0x0 SWAP1 DUP2 MSTORE PUSH1 0x20 DUP2 SWAP1 MSTORE PUSH1 0x40 SWAP1 KECCAK256 SWAP1 DUP3 SWAP1 SUB SWAP1 SSTORE JUMPDEST PUSH1 0x1 PUSH1 0x1 PUSH1 0xA0 SHL SUB DUP3 AND PUSH2 0x260 JUMPI PUSH1 0x2 DUP1 SLOAD DUP3 SWAP1 SUB SWAP1 SSTORE PUSH2 0x27F JUMP JUMPDEST PUSH1 0x1 PUSH1 0x1 PUSH1 0xA0 SHL SUB DUP3 AND PUSH1 0x0 SWAP1 DUP2 MSTORE PUSH1 0x20 DUP2 SWAP1 MSTORE PUSH1 0x40 SWAP1 KECCAK256 DUP1 SLOAD DUP3 ADD SWAP1 SSTORE JUMPDEST DUP2 PUSH1 0x1 PUSH1 0x1 PUSH1 0xA0 SHL SUB AND DUP4 PUSH1 0x1 PUSH1 0x1 PUSH1 0xA0 SHL SUB AND PUSH32 0xDDF252AD1BE2C89B69C2B068FC378DAA952BA7F163C4A11628F55A4DF523B3EF DUP4 PUSH1 0x40 MLOAD PUSH2 0x2C4 SWAP2 DUP2 MSTORE PUSH1 0x20 ADD SWAP1 JUMP JUMPDEST PUSH1 0x40 MLOAD DUP1 SWAP2 SUB SWAP1 LOG3 POP POP POP JUMP JUMPDEST DUP1 MLOAD PUSH1 0x1 PUSH1 0x1 PUSH1 0xA0 SHL SUB DUP2 AND DUP2 EQ PUSH2 0x2E8 JUMPI PUSH1 0x0 DUP1 REVERT JUMPDEST SWAP2 SWAP1 POP JUMP JUMPDEST PUSH1 0x0 DUP1 PUSH1 0x40 DUP4 DUP6 SUB SLT ISZERO PUSH2 0x300 JUMPI PUSH1 0x0 DUP1 REVERT JUMPDEST PUSH2 0x309 DUP4 PUSH2 0x2D1 JUMP JUMPDEST SWAP2 POP PUSH2 0x317 PUSH1 0x20 DUP5 ADD PUSH2 0x2D1 JUMP JUMPDEST SWAP1 POP SWAP3 POP SWAP3 SWAP1 POP JUMP JUMPDEST PUSH4 0x4E487B71 PUSH1 0xE0 SHL PUSH1 0x0 MSTORE PUSH1 0x41 PUSH1 0x4 MSTORE PUSH1 0x24 PUSH1 0x0 REVERT JUMPDEST PUSH1 0x1 DUP2 DUP2 SHR SWAP1 DUP3 AND DUP1 PUSH2 0x34A JUMPI PUSH1 0x7F DUP3 AND SWAP2 POP JUMPDEST PUSH1 0x20 DUP3 LT DUP2 SUB PUSH2 0x36A JUMPI PUSH4 0x4E487B71 PUSH1 0xE0 SHL PUSH1 0x0 MSTORE PUSH1 0x22 PUSH1 0x4 MSTORE PUSH1 0x24 PUSH1 0x0 REVERT JUMPDEST POP SWAP2 SWAP1 POP JUMP JUMPDEST PUSH1 0x1F DUP3 GT ISZERO PUSH2 0x3BA JUMPI DUP1 PUSH1 0x0 MSTORE PUSH1 0x20 PUSH1 0x0 KECCAK256 PUSH1 0x1F DUP5 ADD PUSH1 0x5 SHR DUP2 ADD PUSH1 0x20 DUP6 LT ISZERO PUSH2 0x397 JUMPI POP DUP1 JUMPDEST PUSH1 0x1F DUP5 ADD PUSH1 0x5 SHR DUP3 ADD SWAP2 POP JUMPDEST DUP2 DUP2 LT ISZERO PUSH2 0x3B7 JUMPI PUSH1 0x0 DUP2 SSTORE PUSH1 0x1 ADD PUSH2 0x3A3 JUMP JUMPDEST POP POP JUMPDEST POP POP POP JUMP JUMPDEST DUP2 MLOAD PUSH1 0x1 PUSH1 0x1 PUSH1 0x40 SHL SUB DUP2 GT ISZERO PUSH2 0x3D8 JUMPI PUSH2 0x3D8 PUSH2 0x320 JUMP JUMPDEST PUSH2 0x3EC DUP2 PUSH2 0x3E6 DUP5 SLOAD PUSH2 0x336 JUMP JUMPDEST DUP5 PUSH2 0x370 JUMP JUMPDEST PUSH1 0x20 PUSH1 0x1F DUP3 GT PUSH1 0x1 DUP2 EQ PUSH2 0x420 JUMPI PUSH1 0x0 DUP4 ISZERO PUSH2 0x408 JUMPI POP DUP5 DUP3 ADD MLOAD JUMPDEST PUSH1 0x0 NOT PUSH1 0x3 DUP6 SWAP1 SHL SHR NOT AND PUSH1 0x1 DUP5 SWAP1 SHL OR DUP5 SSTORE PUSH2 0x3B7 JUMP JUMPDEST PUSH1 0x0 DUP5 DUP2 MSTORE PUSH1 0x20 DUP2 KECCAK256 PUSH1 0x1F NOT DUP6 AND SWAP2 JUMPDEST DUP3 DUP2 LT ISZERO PUSH2 0x450 JUMPI DUP8 DUP6 ADD MLOAD DUP3 SSTORE PUSH1 0x20 SWAP5 DUP6 ADD SWAP5 PUSH1 0x1 SWAP1 SWAP3 ADD SWAP2 ADD PUSH2 0x430 JUMP JUMPDEST POP DUP5 DUP3 LT ISZERO PUSH2 0x46E JUMPI DUP7 DUP5 ADD MLOAD PUSH1 0x0 NOT PUSH1 0x3 DUP8 SWAP1 SHL PUSH1 0xF8 AND SHR NOT AND DUP2 SSTORE JUMPDEST POP POP POP POP PUSH1 0x1 SWAP1 DUP2 SHL ADD SWAP1 SSTORE POP JUMP JUMPDEST PUSH4 0x4E487B71 PUSH1 0xE0 SHL PUSH1 0x0 MSTORE PUSH1 0x11 PUSH1 0x4 MSTORE PUSH1 0x24 PUSH1 0x0 REVERT JUMPDEST PUSH1 0x1 DUP2 JUMPDEST PUSH1 0x1 DUP5 GT ISZERO PUSH2 0x4CE JUMPI DUP1 DUP6 DIV DUP2 GT ISZERO PUSH2 0x4B2 JUMPI PUSH2 0x4B2 PUSH2 0x47D JUMP JUMPDEST PUSH1 0x1 DUP5 AND ISZERO PUSH2 0x4C0 JUMPI SWAP1 DUP2 MUL SWAP1 JUMPDEST PUSH1 0x1 SWAP4 SWAP1 SWAP4 SHR SWAP3 DUP1 MUL PUSH2 0x497 JUMP JUMPDEST SWAP4 POP SWAP4 SWAP2 POP POP JUMP JUMPDEST PUSH1 0x0 DUP3 PUSH2 0x4E5 JUMPI POP PUSH1 0x1 PUSH2 0x576 JUMP JUMPDEST DUP2 PUSH2 0x4F2 JUMPI POP PUSH1 0x0 PUSH2 0x576 JUMP JUMPDEST DUP2 PUSH1 0x1 DUP2 EQ PUSH2 0x508 JUMPI PUSH1 0x2 DUP2 EQ PUSH2 0x512 JUMPI PUSH2 0x52E JUMP JUMPDEST PUSH1 0x1 SWAP2 POP POP PUSH2 0x576 JUMP JUMPDEST PUSH1 0xFF DUP5 GT ISZERO PUSH2 0x523 JUMPI PUSH2 0x523 PUSH2 0x47D JUMP JUMPDEST POP POP PUSH1 0x1 DUP3 SHL PUSH2 0x576 JUMP JUMPDEST POP PUSH1 0x20 DUP4 LT PUSH2 0x133 DUP4 LT AND PUSH1 0x4E DUP5 LT PUSH1 0xB DUP5 LT AND OR ISZERO PUSH2 0x551 JUMPI POP DUP2 DUP2 EXP PUSH2 0x576 JUMP JUMPDEST PUSH2 0x55E PUSH1 0x0 NOT DUP5 DUP5 PUSH2 0x493 JUMP JUMPDEST DUP1 PUSH1 0x0 NOT DIV DUP3 GT ISZERO PUSH2 0x572 JUMPI PUSH2 0x572 PUSH2 0x47D JUMP JUMPDEST MUL SWAP1 POP JUMPDEST SWAP3 SWAP2 POP POP JUMP JUMPDEST PUSH1 0x0 PUSH2 0x58B PUSH1 0xFF DUP5 AND DUP4 PUSH2 0x4D6 JUMP JUMPDEST SWAP4 SWAP3 POP POP POP JUMP JUMPDEST DUP1 DUP3 MUL DUP2 ISZERO DUP3 DUP3 DIV DUP5 EQ OR PUSH2 0x576 JUMPI PUSH2 0x576 PUSH2 0x47D JUMP JUMPDEST DUP1 DUP3 ADD DUP1 DUP3 GT ISZERO PUSH2 0x576 JUMPI PUSH2 0x576 PUSH2 0x47D JUMP JUMPDEST PUSH1 0x80 MLOAD PUSH2 0x144C PUSH2 0x5D7 PUSH1 0x0 CODECOPY PUSH1 0x0 PUSH2 0x9D0 ADD MSTORE PUSH2 0x144C PUSH1 0x0 RETURN INVALID PUSH1 0x80 PUSH1 0x40 MSTORE CALLVALUE DUP1 ISZERO PUSH2 0x10 JUMPI PUSH1 0x0 DUP1 REVERT JUMPDEST POP PUSH1 0x4 CALLDATASIZE LT PUSH2 0x173 JUMPI PUSH1 0x0 CALLDATALOAD PUSH1 0xE0 SHR DUP1 PUSH4 0x715018A6 GT PUSH2 0xDE JUMPI DUP1 PUSH4 0x95D89B41 GT PUSH2 0x97 JUMPI DUP1 PUSH4 0xC0CD40EE GT PUSH2 0x71 JUMPI DUP1 PUSH4 0xC0CD40EE EQ PUSH2 0x380 JUMPI DUP1 PUSH4 0xCEC90FE7 EQ PUSH2 0x393 JUMPI DUP1 PUSH4 0xDD62ED3E EQ PUSH2 0x41B JUMPI DUP1 PUSH4 0xF2FDE38B EQ PUSH2 0x454 JUMPI PUSH1 0x0 DUP1 REVERT JUMPDEST DUP1 PUSH4 0x95D89B41 EQ PUSH2 0x358 JUMPI DUP1 PUSH4 0xA3C50CFD EQ PUSH2 0x360 JUMPI DUP1 PUSH4 0xA9059CBB EQ PUSH2 0x36D JUMPI PUSH1 0x0 DUP1 REVERT JUMPDEST DUP1 PUSH4 0x715018A6 EQ PUSH2 0x2E1 JUMPI DUP1 PUSH4 0x741BEF1A EQ PUSH2 0x2E9 JUMPI DUP1 PUSH4 0x79CC6790 EQ PUSH2 0x314 JUMPI DUP1 PUSH4 0x8456CB59 EQ PUSH2 0x327 JUMPI DUP1 PUSH4 0x8D3CE8A5 EQ PUSH2 0x32F JUMPI DUP1 PUSH4 0x8DA5CB5B EQ PUSH2 0x342 JUMPI PUSH1 0x0 DUP1 REVERT JUMPDEST DUP1 PUSH4 0x3F4BA83A GT PUSH2 0x130 JUMPI DUP1 PUSH4 0x3F4BA83A EQ PUSH2 0x20D JUMPI DUP1 PUSH4 0x42966C68 EQ PUSH2 0x217 JUMPI DUP1 PUSH4 0x47CEE97C EQ PUSH2 0x22A JUMPI DUP1 PUSH4 0x584707EB EQ PUSH2 0x23D JUMPI DUP1 PUSH4 0x5C975ABB EQ PUSH2 0x2AD JUMPI DUP1 PUSH4 0x70A08231 EQ PUSH2 0x2B8 JUMPI PUSH1 0x0 DUP1 REVERT JUMPDEST DUP1 PUSH4 0x2AB3FED EQ PUSH2 0x178 JUMPI DUP1 PUSH4 0x6FDDE03 EQ PUSH2 0x1AB JUMPI DUP1 PUSH4 0x95EA7B3 EQ PUSH2 0x1C0 JUMPI DUP1 PUSH4 0x18160DDD EQ PUSH2 0x1E3 JUMPI DUP1 PUSH4 0x23B872DD EQ PUSH2 0x1EB JUMPI DUP1 PUSH4 0x313CE567 EQ PUSH2 0x1FE JUMPI JUMPDEST PUSH1 0x0 DUP1 REVERT JUMPDEST PUSH2 0x198 PUSH2 0x186 CALLDATASIZE PUSH1 0x4 PUSH2 0x117A JUMP JUMPDEST PUSH1 0xE PUSH1 0x20 MSTORE PUSH1 0x0 SWAP1 DUP2 MSTORE PUSH1 0x40 SWAP1 KECCAK256 SLOAD DUP2 JUMP JUMPDEST PUSH1 0x40 MLOAD SWAP1 DUP2 MSTORE PUSH1 0x20 ADD JUMPDEST PUSH1 0x40 MLOAD DUP1 SWAP2 SUB SWAP1 RETURN JUMPDEST PUSH2 0x1B3 PUSH2 0x467 JUMP JUMPDEST PUSH1 0x40 MLOAD PUSH2 0x1A2 SWAP2 SWAP1 PUSH2 0x11B9 JUMP JUMPDEST PUSH2 0x1D3 PUSH2 0x1CE CALLDATASIZE PUSH1 0x4 PUSH2 0x11EC JUMP JUMPDEST PUSH2 0x4F9 JUMP JUMPDEST PUSH1 0x40 MLOAD SWAP1 ISZERO ISZERO DUP2 MSTORE PUSH1 0x20 ADD PUSH2 0x1A2 JUMP JUMPDEST PUSH1 0x2 SLOAD PUSH2 0x198 JUMP JUMPDEST PUSH2 0x1D3 PUSH2 0x1F9 CALLDATASIZE PUSH1 0x4 PUSH2 0x1216 JUMP JUMPDEST PUSH2 0x513 JUMP JUMPDEST PUSH1 0x40 MLOAD PUSH1 0x12 DUP2 MSTORE PUSH1 0x20 ADD PUSH2 0x1A2 JUMP JUMPDEST PUSH2 0x215 PUSH2 0x539 JUMP JUMPDEST STOP JUMPDEST PUSH2 0x215 PUSH2 0x225 CALLDATASIZE PUSH1 0x4 PUSH2 0x1253 JUMP JUMPDEST PUSH2 0x54B JUMP JUMPDEST PUSH2 0x215 PUSH2 0x238 CALLDATASIZE PUSH1 0x4 PUSH2 0x11EC JUMP JUMPDEST PUSH2 0x558 JUMP JUMPDEST PUSH2 0x29B PUSH2 0x24B CALLDATASIZE PUSH1 0x4 PUSH2 0x11EC JUMP JUMPDEST PUSH1 0xB PUSH1 0x20 SWAP1 DUP2 MSTORE PUSH1 0x0 SWAP3 DUP4 MSTORE PUSH1 0x40 DUP1 DUP5 KECCAK256 SWAP1 SWAP2 MSTORE SWAP1 DUP3 MSTORE SWAP1 KECCAK256 DUP1 SLOAD PUSH1 0x1 DUP3 ADD SLOAD PUSH1 0x2 DUP4 ADD SLOAD PUSH1 0x3 DUP5 ADD SLOAD PUSH1 0x4 SWAP1 SWAP5 ADD SLOAD PUSH1 0x1 PUSH1 0x1 PUSH1 0xA0 SHL SUB SWAP1 SWAP4 AND SWAP4 SWAP2 SWAP3 SWAP1 SWAP2 SWAP1 PUSH1 0xFF DUP1 DUP3 AND SWAP2 PUSH2 0x100 SWAP1 DIV AND DUP7 JUMP JUMPDEST PUSH1 0x40 MLOAD PUSH2 0x1A2 SWAP7 SWAP6 SWAP5 SWAP4 SWAP3 SWAP2 SWAP1 PUSH2 0x1282 JUMP JUMPDEST PUSH1 0x5 SLOAD PUSH1 0xFF AND PUSH2 0x1D3 JUMP JUMPDEST PUSH2 0x198 PUSH2 0x2C6 CALLDATASIZE PUSH1 0x4 PUSH2 0x117A JUMP JUMPDEST PUSH1 0x1 PUSH1 0x1 PUSH1 0xA0 SHL SUB AND PUSH1 0x0 SWAP1 DUP2 MSTORE PUSH1 0x20 DUP2 SWAP1 MSTORE PUSH1 0x40 SWAP1 KECCAK256 SLOAD SWAP1 JUMP JUMPDEST PUSH2 0x215 PUSH2 0x6DC JUMP JUMPDEST PUSH1 0x7 SLOAD PUSH2 0x2FC SWAP1 PUSH1 0x1 PUSH1 0x1 PUSH1 0xA0 SHL SUB AND DUP2 JUMP JUMPDEST PUSH1 0x40 MLOAD PUSH1 0x1 PUSH1 0x1 PUSH1 0xA0 SHL SUB SWAP1 SWAP2 AND DUP2 MSTORE PUSH1 0x20 ADD PUSH2 0x1A2 JUMP JUMPDEST PUSH2 0x215 PUSH2 0x322 CALLDATASIZE PUSH1 0x4 PUSH2 0x11EC JUMP JUMPDEST PUSH2 0x6EE JUMP JUMPDEST PUSH2 0x215 PUSH2 0x707 JUMP JUMPDEST PUSH2 0x215 PUSH2 0x33D CALLDATASIZE PUSH1 0x4 PUSH2 0x12DE JUMP JUMPDEST PUSH2 0x717 JUMP JUMPDEST PUSH1 0x5 SLOAD PUSH2 0x100 SWAP1 DIV PUSH1 0x1 PUSH1 0x1 PUSH1 0xA0 SHL SUB AND PUSH2 0x2FC JUMP JUMPDEST PUSH2 0x1B3 PUSH2 0xA06 JUMP JUMPDEST PUSH1 0x9 SLOAD PUSH2 0x1D3 SWAP1 PUSH1 0xFF AND DUP2 JUMP JUMPDEST PUSH2 0x1D3 PUSH2 0x37B CALLDATASIZE PUSH1 0x4 PUSH2 0x11EC JUMP JUMPDEST PUSH2 0xA15 JUMP JUMPDEST PUSH2 0x215 PUSH2 0x38E CALLDATASIZE PUSH1 0x4 PUSH2 0x1253 JUMP JUMPDEST PUSH2 0xA23 JUMP JUMPDEST PUSH2 0x3E7 PUSH2 0x3A1 CALLDATASIZE PUSH1 0x4 PUSH2 0x1312 JUMP JUMPDEST PUSH1 0xC PUSH1 0x20 SWAP1 DUP2 MSTORE PUSH1 0x0 SWAP3 DUP4 MSTORE PUSH1 0x40 DUP1 DUP5 KECCAK256 SWAP1 SWAP2 MSTORE SWAP1 DUP3 MSTORE SWAP1 KECCAK256 DUP1 SLOAD PUSH1 0x1 DUP3 ADD SLOAD PUSH1 0x2 DUP4 ADD SLOAD PUSH1 0x3 DUP5 ADD SLOAD PUSH1 0x4 SWAP1 SWAP5 ADD SLOAD SWAP3 SWAP4 SWAP2 SWAP3 SWAP1 SWAP2 PUSH1 0x1 PUSH1 0x1 PUSH1 0xA0 SHL SUB SWAP1 DUP2 AND SWAP2 AND DUP6 JUMP JUMPDEST PUSH1 0x40 DUP1 MLOAD SWAP6 DUP7 MSTORE PUSH1 0x20 DUP7 ADD SWAP5 SWAP1 SWAP5 MSTORE SWAP3 DUP5 ADD SWAP2 SWAP1 SWAP2 MSTORE PUSH1 0x1 PUSH1 0x1 PUSH1 0xA0 SHL SUB SWAP1 DUP2 AND PUSH1 0x60 DUP5 ADD MSTORE AND PUSH1 0x80 DUP3 ADD MSTORE PUSH1 0xA0 ADD PUSH2 0x1A2 JUMP JUMPDEST PUSH2 0x198 PUSH2 0x429 CALLDATASIZE PUSH1 0x4 PUSH2 0x1312 JUMP JUMPDEST PUSH1 0x1 PUSH1 0x1 PUSH1 0xA0 SHL SUB SWAP2 DUP3 AND PUSH1 0x0 SWAP1 DUP2 MSTORE PUSH1 0x1 PUSH1 0x20 SWAP1 DUP2 MSTORE PUSH1 0x40 DUP1 DUP4 KECCAK256 SWAP4 SWAP1 SWAP5 AND DUP3 MSTORE SWAP2 SWAP1 SWAP2 MSTORE KECCAK256 SLOAD SWAP1 JUMP JUMPDEST PUSH2 0x215 PUSH2 0x462 CALLDATASIZE PUSH1 0x4 PUSH2 0x117A JUMP JUMPDEST PUSH2 0xA37 JUMP JUMPDEST PUSH1 0x60 PUSH1 0x3 DUP1 SLOAD PUSH2 0x476 SWAP1 PUSH2 0x1345 JUMP JUMPDEST DUP1 PUSH1 0x1F ADD PUSH1 0x20 DUP1 SWAP2 DIV MUL PUSH1 0x20 ADD PUSH1 0x40 MLOAD SWAP1 DUP2 ADD PUSH1 0x40 MSTORE DUP1 SWAP3 SWAP2 SWAP1 DUP2 DUP2 MSTORE PUSH1 0x20 ADD DUP3 DUP1 SLOAD PUSH2 0x4A2 SWAP1 PUSH2 0x1345 JUMP JUMPDEST DUP1 ISZERO PUSH2 0x4EF JUMPI DUP1 PUSH1 0x1F LT PUSH2 0x4C4 JUMPI PUSH2 0x100 DUP1 DUP4 SLOAD DIV MUL DUP4 MSTORE SWAP2 PUSH1 0x20 ADD SWAP2 PUSH2 0x4EF JUMP JUMPDEST DUP3 ADD SWAP2 SWAP1 PUSH1 0x0 MSTORE PUSH1 0x20 PUSH1 0x0 KECCAK256 SWAP1 JUMPDEST DUP2 SLOAD DUP2 MSTORE SWAP1 PUSH1 0x1 ADD SWAP1 PUSH1 0x20 ADD DUP1 DUP4 GT PUSH2 0x4D2 JUMPI DUP3 SWAP1 SUB PUSH1 0x1F AND DUP3 ADD SWAP2 JUMPDEST POP POP POP POP POP SWAP1 POP SWAP1 JUMP JUMPDEST PUSH1 0x0 CALLER PUSH2 0x507 DUP2 DUP6 DUP6 PUSH2 0xA72 JUMP JUMPDEST PUSH1 0x1 SWAP2 POP POP JUMPDEST SWAP3 SWAP2 POP POP JUMP JUMPDEST PUSH1 0x0 CALLER PUSH2 0x521 DUP6 DUP3 DUP6 PUSH2 0xA84 JUMP JUMPDEST PUSH2 0x52C DUP6 DUP6 DUP6 PUSH2 0xB02 JUMP JUMPDEST PUSH1 0x1 SWAP2 POP POP JUMPDEST SWAP4 SWAP3 POP POP POP JUMP JUMPDEST PUSH2 0x541 PUSH2 0xB61 JUMP JUMPDEST PUSH2 0x549 PUSH2 0xB94 JUMP JUMPDEST JUMP JUMPDEST PUSH2 0x555 CALLER DUP3 PUSH2 0xBE6 JUMP JUMPDEST POP JUMP JUMPDEST ADDRESS PUSH1 0x0 SWAP1 DUP2 MSTORE PUSH1 0xC PUSH1 0x20 SWAP1 DUP2 MSTORE PUSH1 0x40 DUP1 DUP4 KECCAK256 PUSH1 0x1 PUSH1 0x1 PUSH1 0xA0 SHL SUB DUP7 AND DUP5 MSTORE SWAP1 SWAP2 MSTORE SWAP1 KECCAK256 PUSH1 0x2 ADD SLOAD TIMESTAMP SWAP1 PUSH2 0x58C SWAP1 PUSH1 0xA PUSH2 0x1395 JUMP JUMPDEST GT ISZERO PUSH2 0x5D5 JUMPI PUSH1 0x40 MLOAD PUSH3 0x461BCD PUSH1 0xE5 SHL DUP2 MSTORE PUSH1 0x20 PUSH1 0x4 DUP3 ADD MSTORE PUSH1 0x13 PUSH1 0x24 DUP3 ADD MSTORE PUSH19 0x10DD5C9C995B9D081D1A5B5948195E18D95959 PUSH1 0x6A SHL PUSH1 0x44 DUP3 ADD MSTORE PUSH1 0x64 ADD JUMPDEST PUSH1 0x40 MLOAD DUP1 SWAP2 SUB SWAP1 REVERT JUMPDEST ADDRESS PUSH1 0x0 SWAP1 DUP2 MSTORE PUSH1 0xC PUSH1 0x20 SWAP1 DUP2 MSTORE PUSH1 0x40 DUP1 DUP4 KECCAK256 PUSH1 0x1 PUSH1 0x1 PUSH1 0xA0 SHL SUB DUP7 AND DUP5 MSTORE SWAP1 SWAP2 MSTORE SWAP1 KECCAK256 PUSH1 0x1 ADD SLOAD DUP2 EQ PUSH2 0x63D JUMPI PUSH1 0x40 MLOAD PUSH3 0x461BCD PUSH1 0xE5 SHL DUP2 MSTORE PUSH1 0x20 PUSH1 0x4 DUP3 ADD MSTORE PUSH1 0x10 PUSH1 0x24 DUP3 ADD MSTORE PUSH16 0x82DADEEADCE840DCDEE840DAC2E8C6D PUSH1 0x83 SHL PUSH1 0x44 DUP3 ADD MSTORE PUSH1 0x64 ADD PUSH2 0x5CC JUMP JUMPDEST PUSH1 0x40 MLOAD PUSH4 0xA9059CBB PUSH1 0xE0 SHL DUP2 MSTORE PUSH1 0x1 PUSH1 0x1 PUSH1 0xA0 SHL SUB DUP4 AND PUSH1 0x4 DUP3 ADD MSTORE PUSH1 0x24 DUP2 ADD DUP3 SWAP1 MSTORE ADDRESS SWAP1 PUSH4 0xA9059CBB SWAP1 PUSH1 0x44 ADD PUSH1 0x20 PUSH1 0x40 MLOAD DUP1 DUP4 SUB DUP2 PUSH1 0x0 DUP8 GAS CALL ISZERO DUP1 ISZERO PUSH2 0x68A JUMPI RETURNDATASIZE PUSH1 0x0 DUP1 RETURNDATACOPY RETURNDATASIZE PUSH1 0x0 REVERT JUMPDEST POP POP POP POP PUSH1 0x40 MLOAD RETURNDATASIZE PUSH1 0x1F NOT PUSH1 0x1F DUP3 ADD AND DUP3 ADD DUP1 PUSH1 0x40 MSTORE POP DUP2 ADD SWAP1 PUSH2 0x6AE SWAP2 SWAP1 PUSH2 0x13A8 JUMP JUMPDEST POP POP ADDRESS PUSH1 0x0 SWAP1 DUP2 MSTORE PUSH1 0xC PUSH1 0x20 SWAP1 DUP2 MSTORE PUSH1 0x40 DUP1 DUP4 KECCAK256 PUSH1 0x1 PUSH1 0x1 PUSH1 0xA0 SHL SUB SWAP5 SWAP1 SWAP5 AND DUP4 MSTORE SWAP3 SWAP1 MSTORE SWAP1 DUP2 KECCAK256 PUSH1 0x1 ADD SSTORE JUMP JUMPDEST PUSH2 0x6E4 PUSH2 0xB61 JUMP JUMPDEST PUSH2 0x549 PUSH1 0x0 PUSH2 0xC1C JUMP JUMPDEST PUSH2 0x6F9 DUP3 CALLER DUP4 PUSH2 0xA84 JUMP JUMPDEST PUSH2 0x703 DUP3 DUP3 PUSH2 0xBE6 JUMP JUMPDEST POP POP JUMP JUMPDEST PUSH2 0x70F PUSH2 0xB61 JUMP JUMPDEST PUSH2 0x549 PUSH2 0xC76 JUMP JUMPDEST PUSH2 0x71F PUSH2 0xCB3 JUMP JUMPDEST PUSH1 0xD PUSH1 0x20 MSTORE PUSH1 0x0 PUSH32 0x81955A0A11E65EAC625C29E8882660BAE4E165A75D72780094ACAE8ECE9A29EE DUP2 SWAP1 SSTORE PUSH1 0x1 DUP1 DUP3 MSTORE PUSH32 0xFD54FF1ED53F34A900B24C5BA64F85761163B5D82D98A47B9BD80E45466993C5 DUP2 SWAP1 SSTORE PUSH1 0x8 DUP1 SLOAD DUP3 ADD SWAP1 SSTORE SWAP1 PUSH2 0x13D SWAP1 PUSH1 0xD PUSH1 0x0 DUP6 PUSH1 0x1 DUP2 GT ISZERO PUSH2 0x796 JUMPI PUSH2 0x796 PUSH2 0x126C JUMP JUMPDEST PUSH1 0x1 DUP2 GT ISZERO PUSH2 0x7A7 JUMPI PUSH2 0x7A7 PUSH2 0x126C JUMP JUMPDEST DUP2 MSTORE PUSH1 0x20 ADD SWAP1 DUP2 MSTORE PUSH1 0x20 ADD PUSH1 0x0 KECCAK256 SLOAD PUSH1 0x0 SUB PUSH2 0x7CA JUMPI PUSH2 0x7C7 DUP4 DUP7 PUSH2 0x13CA JUMP JUMPDEST SWAP1 POP JUMPDEST PUSH1 0xD PUSH1 0x0 DUP6 PUSH1 0x1 DUP2 GT ISZERO PUSH2 0x7E0 JUMPI PUSH2 0x7E0 PUSH2 0x126C JUMP JUMPDEST PUSH1 0x1 DUP2 GT ISZERO PUSH2 0x7F1 JUMPI PUSH2 0x7F1 PUSH2 0x126C JUMP JUMPDEST DUP2 MSTORE PUSH1 0x20 ADD SWAP1 DUP2 MSTORE PUSH1 0x20 ADD PUSH1 0x0 KECCAK256 SLOAD PUSH1 0x1 SUB PUSH2 0x814 JUMPI PUSH2 0x811 DUP3 DUP7 PUSH2 0x13CA JUMP JUMPDEST SWAP1 POP JUMPDEST CALLER PUSH1 0x0 SWAP1 DUP2 MSTORE PUSH1 0xE PUSH1 0x20 MSTORE PUSH1 0x40 DUP2 KECCAK256 DUP1 SLOAD SWAP2 PUSH2 0x82F DUP4 PUSH2 0x13E1 JUMP JUMPDEST SWAP1 SWAP2 SSTORE POP POP CALLER PUSH1 0x0 DUP2 DUP2 MSTORE PUSH1 0xE PUSH1 0x20 SWAP1 DUP2 MSTORE PUSH1 0x40 SWAP2 DUP3 SWAP1 KECCAK256 SLOAD DUP3 MLOAD PUSH1 0xC0 DUP2 ADD DUP5 MSTORE SWAP4 DUP5 MSTORE SWAP1 DUP4 ADD DUP9 SWAP1 MSTORE SWAP1 DUP3 ADD DUP6 SWAP1 MSTORE PUSH1 0x60 DUP3 ADD DUP4 SWAP1 MSTORE PUSH1 0x1 PUSH1 0x80 DUP4 ADD DUP2 SWAP1 MSTORE SWAP1 SWAP2 SWAP1 PUSH1 0xA0 DUP3 ADD SWAP1 DUP8 SWAP1 DUP2 GT ISZERO PUSH2 0x888 JUMPI PUSH2 0x888 PUSH2 0x126C JUMP JUMPDEST SWAP1 MSTORE CALLER PUSH1 0x0 SWAP1 DUP2 MSTORE PUSH1 0xB PUSH1 0x20 SWAP1 DUP2 MSTORE PUSH1 0x40 DUP1 DUP4 KECCAK256 DUP6 DUP5 MSTORE DUP3 MSTORE SWAP2 DUP3 SWAP1 KECCAK256 DUP4 MLOAD DUP2 SLOAD PUSH1 0x1 PUSH1 0x1 PUSH1 0xA0 SHL SUB NOT AND PUSH1 0x1 PUSH1 0x1 PUSH1 0xA0 SHL SUB SWAP1 SWAP2 AND OR DUP2 SSTORE SWAP1 DUP4 ADD MLOAD PUSH1 0x1 DUP1 DUP4 ADD SWAP2 SWAP1 SWAP2 SSTORE SWAP2 DUP4 ADD MLOAD PUSH1 0x2 DUP3 ADD SSTORE PUSH1 0x60 DUP4 ADD MLOAD PUSH1 0x3 DUP3 ADD SSTORE PUSH1 0x80 DUP4 ADD MLOAD PUSH1 0x4 DUP3 ADD DUP1 SLOAD PUSH1 0xFF NOT DUP2 AND SWAP3 ISZERO ISZERO SWAP3 DUP4 OR DUP3 SSTORE PUSH1 0xA0 DUP7 ADD MLOAD SWAP4 SWAP5 SWAP2 SWAP3 PUSH2 0xFFFF NOT SWAP1 SWAP2 AND PUSH2 0xFF00 NOT SWAP1 SWAP2 AND OR SWAP1 PUSH2 0x100 SWAP1 DUP5 SWAP1 DUP2 GT ISZERO PUSH2 0x927 JUMPI PUSH2 0x927 PUSH2 0x126C JUMP JUMPDEST MUL OR SWAP1 SSTORE POP POP PUSH1 0x40 DUP1 MLOAD PUSH1 0xA0 DUP2 ADD DUP3 MSTORE DUP7 DUP2 MSTORE PUSH1 0x20 DUP1 DUP3 ADD DUP11 DUP2 MSTORE TIMESTAMP DUP4 DUP6 ADD SWAP1 DUP2 MSTORE CALLER PUSH1 0x60 DUP6 ADD DUP2 DUP2 MSTORE ADDRESS PUSH1 0x80 DUP8 ADD DUP2 DUP2 MSTORE PUSH1 0x0 SWAP2 DUP3 MSTORE PUSH1 0xC DUP8 MSTORE DUP9 DUP3 KECCAK256 DUP5 DUP4 MSTORE SWAP1 SWAP7 MSTORE SWAP7 SWAP1 SWAP7 KECCAK256 SWAP5 MLOAD DUP6 SSTORE SWAP2 MLOAD PUSH1 0x1 DUP6 ADD SSTORE MLOAD PUSH1 0x2 DUP5 ADD SSTORE SWAP3 MLOAD PUSH1 0x3 DUP4 ADD DUP1 SLOAD PUSH1 0x1 PUSH1 0x1 PUSH1 0xA0 SHL SUB NOT SWAP1 DUP2 AND PUSH1 0x1 PUSH1 0x1 PUSH1 0xA0 SHL SUB SWAP4 DUP5 AND OR SWAP1 SWAP2 SSTORE SWAP2 MLOAD PUSH1 0x4 SWAP1 SWAP4 ADD DUP1 SLOAD SWAP1 SWAP3 AND SWAP3 DUP2 AND SWAP3 SWAP1 SWAP3 OR SWAP1 SSTORE PUSH1 0x5 SLOAD PUSH2 0x9F8 SWAP4 POP PUSH2 0x100 SWAP1 DIV AND PUSH1 0x1 PUSH1 0x1 PUSH1 0xA0 SHL SUB PUSH32 0x0 AND SWAP2 SWAP1 DUP6 PUSH2 0xD0C JUMP JUMPDEST POP POP POP POP PUSH2 0x703 PUSH1 0x1 PUSH1 0x6 SSTORE JUMP JUMPDEST PUSH1 0x60 PUSH1 0x4 DUP1 SLOAD PUSH2 0x476 SWAP1 PUSH2 0x1345 JUMP JUMPDEST PUSH1 0x0 CALLER PUSH2 0x507 DUP2 DUP6 DUP6 PUSH2 0xB02 JUMP JUMPDEST PUSH2 0xA2B PUSH2 0xB61 JUMP JUMPDEST PUSH2 0x555 ADDRESS CALLER DUP2 DUP5 PUSH2 0xD0C JUMP JUMPDEST PUSH2 0xA3F PUSH2 0xB61 JUMP JUMPDEST PUSH1 0x1 PUSH1 0x1 PUSH1 0xA0 SHL SUB DUP2 AND PUSH2 0xA69 JUMPI PUSH1 0x40 MLOAD PUSH4 0x1E4FBDF7 PUSH1 0xE0 SHL DUP2 MSTORE PUSH1 0x0 PUSH1 0x4 DUP3 ADD MSTORE PUSH1 0x24 ADD PUSH2 0x5CC JUMP JUMPDEST PUSH2 0x555 DUP2 PUSH2 0xC1C JUMP JUMPDEST PUSH2 0xA7F DUP4 DUP4 DUP4 PUSH1 0x1 PUSH2 0xD66 JUMP JUMPDEST POP POP POP JUMP JUMPDEST PUSH1 0x1 PUSH1 0x1 PUSH1 0xA0 SHL SUB DUP4 DUP2 AND PUSH1 0x0 SWAP1 DUP2 MSTORE PUSH1 0x1 PUSH1 0x20 SWAP1 DUP2 MSTORE PUSH1 0x40 DUP1 DUP4 KECCAK256 SWAP4 DUP7 AND DUP4 MSTORE SWAP3 SWAP1 MSTORE KECCAK256 SLOAD PUSH1 0x0 NOT DUP2 EQ PUSH2 0xAFC JUMPI DUP2 DUP2 LT ISZERO PUSH2 0xAED JUMPI PUSH1 0x40 MLOAD PUSH4 0x7DC7A0D9 PUSH1 0xE1 SHL DUP2 MSTORE PUSH1 0x1 PUSH1 0x1 PUSH1 0xA0 SHL SUB DUP5 AND PUSH1 0x4 DUP3 ADD MSTORE PUSH1 0x24 DUP2 ADD DUP3 SWAP1 MSTORE PUSH1 0x44 DUP2 ADD DUP4 SWAP1 MSTORE PUSH1 0x64 ADD PUSH2 0x5CC JUMP JUMPDEST PUSH2 0xAFC DUP5 DUP5 DUP5 DUP5 SUB PUSH1 0x0 PUSH2 0xD66 JUMP JUMPDEST POP POP POP POP JUMP JUMPDEST PUSH1 0x1 PUSH1 0x1 PUSH1 0xA0 SHL SUB DUP4 AND PUSH2 0xB2C JUMPI PUSH1 0x40 MLOAD PUSH4 0x4B637E8F PUSH1 0xE1 SHL DUP2 MSTORE PUSH1 0x0 PUSH1 0x4 DUP3 ADD MSTORE PUSH1 0x24 ADD PUSH2 0x5CC JUMP JUMPDEST PUSH1 0x1 PUSH1 0x1 PUSH1 0xA0 SHL SUB DUP3 AND PUSH2 0xB56 JUMPI PUSH1 0x40 MLOAD PUSH4 0xEC442F05 PUSH1 0xE0 SHL DUP2 MSTORE PUSH1 0x0 PUSH1 0x4 DUP3 ADD MSTORE PUSH1 0x24 ADD PUSH2 0x5CC JUMP JUMPDEST PUSH2 0xA7F DUP4 DUP4 DUP4 PUSH2 0xE3B JUMP JUMPDEST PUSH1 0x5 SLOAD PUSH1 0x1 PUSH1 0x1 PUSH1 0xA0 SHL SUB PUSH2 0x100 SWAP1 SWAP2 DIV AND CALLER EQ PUSH2 0x549 JUMPI PUSH1 0x40 MLOAD PUSH4 0x118CDAA7 PUSH1 0xE0 SHL DUP2 MSTORE CALLER PUSH1 0x4 DUP3 ADD MSTORE PUSH1 0x24 ADD PUSH2 0x5CC JUMP JUMPDEST PUSH2 0xB9C PUSH2 0xF65 JUMP JUMPDEST PUSH1 0x5 DUP1 SLOAD PUSH1 0xFF NOT AND SWAP1 SSTORE PUSH32 0x5DB9EE0A495BF2E6FF9C91A7834C1BA4FDD244A5E8AA4E537BD38AEAE4B073AA CALLER JUMPDEST PUSH1 0x40 MLOAD PUSH1 0x1 PUSH1 0x1 PUSH1 0xA0 SHL SUB SWAP1 SWAP2 AND DUP2 MSTORE PUSH1 0x20 ADD PUSH1 0x40 MLOAD DUP1 SWAP2 SUB SWAP1 LOG1 JUMP JUMPDEST PUSH1 0x1 PUSH1 0x1 PUSH1 0xA0 SHL SUB DUP3 AND PUSH2 0xC10 JUMPI PUSH1 0x40 MLOAD PUSH4 0x4B637E8F PUSH1 0xE1 SHL DUP2 MSTORE PUSH1 0x0 PUSH1 0x4 DUP3 ADD MSTORE PUSH1 0x24 ADD PUSH2 0x5CC JUMP JUMPDEST PUSH2 0x703 DUP3 PUSH1 0x0 DUP4 PUSH2 0xE3B JUMP JUMPDEST PUSH1 0x5 DUP1 SLOAD PUSH1 0x1 PUSH1 0x1 PUSH1 0xA0 SHL SUB DUP4 DUP2 AND PUSH2 0x100 DUP2 DUP2 MUL PUSH2 0x100 PUSH1 0x1 PUSH1 0xA8 SHL SUB NOT DUP6 AND OR SWAP1 SWAP5 SSTORE PUSH1 0x40 MLOAD SWAP4 SWAP1 SWAP3 DIV AND SWAP2 DUP3 SWAP1 PUSH32 0x8BE0079C531659141344CD1FD0A4F28419497F9722A3DAAFE3B4186F6B6457E0 SWAP1 PUSH1 0x0 SWAP1 LOG3 POP POP JUMP JUMPDEST PUSH2 0xC7E PUSH2 0xFAE JUMP JUMPDEST PUSH1 0x5 DUP1 SLOAD PUSH1 0xFF NOT AND PUSH1 0x1 OR SWAP1 SSTORE PUSH32 0x62E78CEA01BEE320CD4E420270B5EA74000D11B0C9F74754EBDBFC544B05A258 PUSH2 0xBC9 CALLER SWAP1 JUMP JUMPDEST PUSH1 0x2 PUSH1 0x6 SLOAD SUB PUSH2 0xD05 JUMPI PUSH1 0x40 MLOAD PUSH3 0x461BCD PUSH1 0xE5 SHL DUP2 MSTORE PUSH1 0x20 PUSH1 0x4 DUP3 ADD MSTORE PUSH1 0x1F PUSH1 0x24 DUP3 ADD MSTORE PUSH32 0x5265656E7472616E637947756172643A207265656E7472616E742063616C6C00 PUSH1 0x44 DUP3 ADD MSTORE PUSH1 0x64 ADD PUSH2 0x5CC JUMP JUMPDEST PUSH1 0x2 PUSH1 0x6 SSTORE JUMP JUMPDEST PUSH1 0x40 DUP1 MLOAD PUSH1 0x1 PUSH1 0x1 PUSH1 0xA0 SHL SUB DUP6 DUP2 AND PUSH1 0x24 DUP4 ADD MSTORE DUP5 AND PUSH1 0x44 DUP3 ADD MSTORE PUSH1 0x64 DUP1 DUP3 ADD DUP5 SWAP1 MSTORE DUP3 MLOAD DUP1 DUP4 SUB SWAP1 SWAP2 ADD DUP2 MSTORE PUSH1 0x84 SWAP1 SWAP2 ADD SWAP1 SWAP2 MSTORE PUSH1 0x20 DUP2 ADD DUP1 MLOAD PUSH1 0x1 PUSH1 0x1 PUSH1 0xE0 SHL SUB AND PUSH4 0x23B872DD PUSH1 0xE0 SHL OR SWAP1 MSTORE PUSH2 0xAFC SWAP1 DUP6 SWAP1 PUSH2 0xFF4 JUMP JUMPDEST PUSH1 0x1 PUSH1 0x1 PUSH1 0xA0 SHL SUB DUP5 AND PUSH2 0xD90 JUMPI PUSH1 0x40 MLOAD PUSH4 0xE602DF05 PUSH1 0xE0 SHL DUP2 MSTORE PUSH1 0x0 PUSH1 0x4 DUP3 ADD MSTORE PUSH1 0x24 ADD PUSH2 0x5CC JUMP JUMPDEST PUSH1 0x1 PUSH1 0x1 PUSH1 0xA0 SHL SUB DUP4 AND PUSH2 0xDBA JUMPI PUSH1 0x40 MLOAD PUSH4 0x4A1406B1 PUSH1 0xE1 SHL DUP2 MSTORE PUSH1 0x0 PUSH1 0x4 DUP3 ADD MSTORE PUSH1 0x24 ADD PUSH2 0x5CC JUMP JUMPDEST PUSH1 0x1 PUSH1 0x1 PUSH1 0xA0 SHL SUB DUP1 DUP6 AND PUSH1 0x0 SWAP1 DUP2 MSTORE PUSH1 0x1 PUSH1 0x20 SWAP1 DUP2 MSTORE PUSH1 0x40 DUP1 DUP4 KECCAK256 SWAP4 DUP8 AND DUP4 MSTORE SWAP3 SWAP1 MSTORE KECCAK256 DUP3 SWAP1 SSTORE DUP1 ISZERO PUSH2 0xAFC JUMPI DUP3 PUSH1 0x1 PUSH1 0x1 PUSH1 0xA0 SHL SUB AND DUP5 PUSH1 0x1 PUSH1 0x1 PUSH1 0xA0 SHL SUB AND PUSH32 0x8C5BE1E5EBEC7D5BD14F71427D1E84F3DD0314C0F7B2291E5B200AC8C7C3B925 DUP5 PUSH1 0x40 MLOAD PUSH2 0xE2D SWAP2 DUP2 MSTORE PUSH1 0x20 ADD SWAP1 JUMP JUMPDEST PUSH1 0x40 MLOAD DUP1 SWAP2 SUB SWAP1 LOG3 POP POP POP POP JUMP JUMPDEST PUSH1 0x1 PUSH1 0x1 PUSH1 0xA0 SHL SUB DUP4 AND PUSH2 0xE66 JUMPI DUP1 PUSH1 0x2 PUSH1 0x0 DUP3 DUP3 SLOAD PUSH2 0xE5B SWAP2 SWAP1 PUSH2 0x1395 JUMP JUMPDEST SWAP1 SWAP2 SSTORE POP PUSH2 0xED8 SWAP1 POP JUMP JUMPDEST PUSH1 0x1 PUSH1 0x1 PUSH1 0xA0 SHL SUB DUP4 AND PUSH1 0x0 SWAP1 DUP2 MSTORE PUSH1 0x20 DUP2 SWAP1 MSTORE PUSH1 0x40 SWAP1 KECCAK256 SLOAD DUP2 DUP2 LT ISZERO PUSH2 0xEB9 JUMPI PUSH1 0x40 MLOAD PUSH4 0x391434E3 PUSH1 0xE2 SHL DUP2 MSTORE PUSH1 0x1 PUSH1 0x1 PUSH1 0xA0 SHL SUB DUP6 AND PUSH1 0x4 DUP3 ADD MSTORE PUSH1 0x24 DUP2 ADD DUP3 SWAP1 MSTORE PUSH1 0x44 DUP2 ADD DUP4 SWAP1 MSTORE PUSH1 0x64 ADD PUSH2 0x5CC JUMP JUMPDEST PUSH1 0x1 PUSH1 0x1 PUSH1 0xA0 SHL SUB DUP5 AND PUSH1 0x0 SWAP1 DUP2 MSTORE PUSH1 0x20 DUP2 SWAP1 MSTORE PUSH1 0x40 SWAP1 KECCAK256 SWAP1 DUP3 SWAP1 SUB SWAP1 SSTORE JUMPDEST PUSH1 0x1 PUSH1 0x1 PUSH1 0xA0 SHL SUB DUP3 AND PUSH2 0xEF4 JUMPI PUSH1 0x2 DUP1 SLOAD DUP3 SWAP1 SUB SWAP1 SSTORE PUSH2 0xF13 JUMP JUMPDEST PUSH1 0x1 PUSH1 0x1 PUSH1 0xA0 SHL SUB DUP3 AND PUSH1 0x0 SWAP1 DUP2 MSTORE PUSH1 0x20 DUP2 SWAP1 MSTORE PUSH1 0x40 SWAP1 KECCAK256 DUP1 SLOAD DUP3 ADD SWAP1 SSTORE JUMPDEST DUP2 PUSH1 0x1 PUSH1 0x1 PUSH1 0xA0 SHL SUB AND DUP4 PUSH1 0x1 PUSH1 0x1 PUSH1 0xA0 SHL SUB AND PUSH32 0xDDF252AD1BE2C89B69C2B068FC378DAA952BA7F163C4A11628F55A4DF523B3EF DUP4 PUSH1 0x40 MLOAD PUSH2 0xF58 SWAP2 DUP2 MSTORE PUSH1 0x20 ADD SWAP1 JUMP JUMPDEST PUSH1 0x40 MLOAD DUP1 SWAP2 SUB SWAP1 LOG3 POP POP POP JUMP JUMPDEST PUSH1 0x5 SLOAD PUSH1 0xFF AND PUSH2 0x549 JUMPI PUSH1 0x40 MLOAD PUSH3 0x461BCD PUSH1 0xE5 SHL DUP2 MSTORE PUSH1 0x20 PUSH1 0x4 DUP3 ADD MSTORE PUSH1 0x14 PUSH1 0x24 DUP3 ADD MSTORE PUSH20 0x14185D5CD8589B194E881B9BDD081C185D5CD959 PUSH1 0x62 SHL PUSH1 0x44 DUP3 ADD MSTORE PUSH1 0x64 ADD PUSH2 0x5CC JUMP JUMPDEST PUSH1 0x5 SLOAD PUSH1 0xFF AND ISZERO PUSH2 0x549 JUMPI PUSH1 0x40 MLOAD PUSH3 0x461BCD PUSH1 0xE5 SHL DUP2 MSTORE PUSH1 0x20 PUSH1 0x4 DUP3 ADD MSTORE PUSH1 0x10 PUSH1 0x24 DUP3 ADD MSTORE PUSH16 0x14185D5CD8589B194E881C185D5CD959 PUSH1 0x82 SHL PUSH1 0x44 DUP3 ADD MSTORE PUSH1 0x64 ADD PUSH2 0x5CC JUMP JUMPDEST PUSH1 0x0 PUSH2 0x1009 PUSH1 0x1 PUSH1 0x1 PUSH1 0xA0 SHL SUB DUP5 AND DUP4 PUSH2 0x1057 JUMP JUMPDEST SWAP1 POP DUP1 MLOAD PUSH1 0x0 EQ ISZERO DUP1 ISZERO PUSH2 0x102E JUMPI POP DUP1 DUP1 PUSH1 0x20 ADD SWAP1 MLOAD DUP2 ADD SWAP1 PUSH2 0x102C SWAP2 SWAP1 PUSH2 0x13A8 JUMP JUMPDEST ISZERO JUMPDEST ISZERO PUSH2 0xA7F JUMPI PUSH1 0x40 MLOAD PUSH4 0x5274AFE7 PUSH1 0xE0 SHL DUP2 MSTORE PUSH1 0x1 PUSH1 0x1 PUSH1 0xA0 SHL SUB DUP5 AND PUSH1 0x4 DUP3 ADD MSTORE PUSH1 0x24 ADD PUSH2 0x5CC JUMP JUMPDEST PUSH1 0x60 PUSH2 0x532 DUP4 DUP4 PUSH1 0x0 DUP5 PUSH1 0x0 DUP1 DUP6 PUSH1 0x1 PUSH1 0x1 PUSH1 0xA0 SHL SUB AND DUP5 DUP7 PUSH1 0x40 MLOAD PUSH2 0x107D SWAP2 SWAP1 PUSH2 0x13FA JUMP JUMPDEST PUSH1 0x0 PUSH1 0x40 MLOAD DUP1 DUP4 SUB DUP2 DUP6 DUP8 GAS CALL SWAP3 POP POP POP RETURNDATASIZE DUP1 PUSH1 0x0 DUP2 EQ PUSH2 0x10BA JUMPI PUSH1 0x40 MLOAD SWAP2 POP PUSH1 0x1F NOT PUSH1 0x3F RETURNDATASIZE ADD AND DUP3 ADD PUSH1 0x40 MSTORE RETURNDATASIZE DUP3 MSTORE RETURNDATASIZE PUSH1 0x0 PUSH1 0x20 DUP5 ADD RETURNDATACOPY PUSH2 0x10BF JUMP JUMPDEST PUSH1 0x60 SWAP2 POP JUMPDEST POP SWAP2 POP SWAP2 POP PUSH2 0x10CF DUP7 DUP4 DUP4 PUSH2 0x10D9 JUMP JUMPDEST SWAP7 SWAP6 POP POP POP POP POP POP JUMP JUMPDEST PUSH1 0x60 DUP3 PUSH2 0x10EE JUMPI PUSH2 0x10E9 DUP3 PUSH2 0x1135 JUMP JUMPDEST PUSH2 0x532 JUMP JUMPDEST DUP2 MLOAD ISZERO DUP1 ISZERO PUSH2 0x1105 JUMPI POP PUSH1 0x1 PUSH1 0x1 PUSH1 0xA0 SHL SUB DUP5 AND EXTCODESIZE ISZERO JUMPDEST ISZERO PUSH2 0x112E JUMPI PUSH1 0x40 MLOAD PUSH4 0x9996B315 PUSH1 0xE0 SHL DUP2 MSTORE PUSH1 0x1 PUSH1 0x1 PUSH1 0xA0 SHL SUB DUP6 AND PUSH1 0x4 DUP3 ADD MSTORE PUSH1 0x24 ADD PUSH2 0x5CC JUMP JUMPDEST POP DUP1 PUSH2 0x532 JUMP JUMPDEST DUP1 MLOAD ISZERO PUSH2 0x1145 JUMPI DUP1 MLOAD DUP1 DUP3 PUSH1 0x20 ADD REVERT JUMPDEST PUSH1 0x40 MLOAD PUSH4 0xA12F521 PUSH1 0xE1 SHL DUP2 MSTORE PUSH1 0x4 ADD PUSH1 0x40 MLOAD DUP1 SWAP2 SUB SWAP1 REVERT JUMPDEST DUP1 CALLDATALOAD PUSH1 0x1 PUSH1 0x1 PUSH1 0xA0 SHL SUB DUP2 AND DUP2 EQ PUSH2 0x1175 JUMPI PUSH1 0x0 DUP1 REVERT JUMPDEST SWAP2 SWAP1 POP JUMP JUMPDEST PUSH1 0x0 PUSH1 0x20 DUP3 DUP5 SUB SLT ISZERO PUSH2 0x118C JUMPI PUSH1 0x0 DUP1 REVERT JUMPDEST PUSH2 0x532 DUP3 PUSH2 0x115E JUMP JUMPDEST PUSH1 0x0 JUMPDEST DUP4 DUP2 LT ISZERO PUSH2 0x11B0 JUMPI DUP2 DUP2 ADD MLOAD DUP4 DUP3 ADD MSTORE PUSH1 0x20 ADD PUSH2 0x1198 JUMP JUMPDEST POP POP PUSH1 0x0 SWAP2 ADD MSTORE JUMP JUMPDEST PUSH1 0x20 DUP2 MSTORE PUSH1 0x0 DUP3 MLOAD DUP1 PUSH1 0x20 DUP5 ADD MSTORE PUSH2 0x11D8 DUP2 PUSH1 0x40 DUP6 ADD PUSH1 0x20 DUP8 ADD PUSH2 0x1195 JUMP JUMPDEST PUSH1 0x1F ADD PUSH1 0x1F NOT AND SWAP2 SWAP1 SWAP2 ADD PUSH1 0x40 ADD SWAP3 SWAP2 POP POP JUMP JUMPDEST PUSH1 0x0 DUP1 PUSH1 0x40 DUP4 DUP6 SUB SLT ISZERO PUSH2 0x11FF JUMPI PUSH1 0x0 DUP1 REVERT JUMPDEST PUSH2 0x1208 DUP4 PUSH2 0x115E JUMP JUMPDEST SWAP5 PUSH1 0x20 SWAP4 SWAP1 SWAP4 ADD CALLDATALOAD SWAP4 POP POP POP JUMP JUMPDEST PUSH1 0x0 DUP1 PUSH1 0x0 PUSH1 0x60 DUP5 DUP7 SUB SLT ISZERO PUSH2 0x122B JUMPI PUSH1 0x0 DUP1 REVERT JUMPDEST PUSH2 0x1234 DUP5 PUSH2 0x115E JUMP JUMPDEST SWAP3 POP PUSH2 0x1242 PUSH1 0x20 DUP6 ADD PUSH2 0x115E JUMP JUMPDEST SWAP3 SWAP6 SWAP3 SWAP5 POP POP POP PUSH1 0x40 SWAP2 SWAP1 SWAP2 ADD CALLDATALOAD SWAP1 JUMP JUMPDEST PUSH1 0x0 PUSH1 0x20 DUP3 DUP5 SUB SLT ISZERO PUSH2 0x1265 JUMPI PUSH1 0x0 DUP1 REVERT JUMPDEST POP CALLDATALOAD SWAP2 SWAP1 POP JUMP JUMPDEST PUSH4 0x4E487B71 PUSH1 0xE0 SHL PUSH1 0x0 MSTORE PUSH1 0x21 PUSH1 0x4 MSTORE PUSH1 0x24 PUSH1 0x0 REVERT JUMPDEST PUSH1 0x1 PUSH1 0x1 PUSH1 0xA0 SHL SUB DUP8 AND DUP2 MSTORE PUSH1 0x20 DUP2 ADD DUP7 SWAP1 MSTORE PUSH1 0x40 DUP2 ADD DUP6 SWAP1 MSTORE PUSH1 0x60 DUP2 ADD DUP5 SWAP1 MSTORE DUP3 ISZERO ISZERO PUSH1 0x80 DUP3 ADD MSTORE PUSH1 0xC0 DUP2 ADD PUSH1 0x2 DUP4 LT PUSH2 0x12CD JUMPI PUSH4 0x4E487B71 PUSH1 0xE0 SHL PUSH1 0x0 MSTORE PUSH1 0x21 PUSH1 0x4 MSTORE PUSH1 0x24 PUSH1 0x0 REVERT JUMPDEST DUP3 PUSH1 0xA0 DUP4 ADD MSTORE SWAP8 SWAP7 POP POP POP POP POP POP POP JUMP JUMPDEST PUSH1 0x0 DUP1 PUSH1 0x40 DUP4 DUP6 SUB SLT ISZERO PUSH2 0x12F1 JUMPI PUSH1 0x0 DUP1 REVERT JUMPDEST DUP3 CALLDATALOAD SWAP2 POP PUSH1 0x20 DUP4 ADD CALLDATALOAD PUSH1 0x2 DUP2 LT PUSH2 0x1307 JUMPI PUSH1 0x0 DUP1 REVERT JUMPDEST DUP1 SWAP2 POP POP SWAP3 POP SWAP3 SWAP1 POP JUMP JUMPDEST PUSH1 0x0 DUP1 PUSH1 0x40 DUP4 DUP6 SUB SLT ISZERO PUSH2 0x1325 JUMPI PUSH1 0x0 DUP1 REVERT JUMPDEST PUSH2 0x132E DUP4 PUSH2 0x115E JUMP JUMPDEST SWAP2 POP PUSH2 0x133C PUSH1 0x20 DUP5 ADD PUSH2 0x115E JUMP JUMPDEST SWAP1 POP SWAP3 POP SWAP3 SWAP1 POP JUMP JUMPDEST PUSH1 0x1 DUP2 DUP2 SHR SWAP1 DUP3 AND DUP1 PUSH2 0x1359 JUMPI PUSH1 0x7F DUP3 AND SWAP2 POP JUMPDEST PUSH1 0x20 DUP3 LT DUP2 SUB PUSH2 0x1379 JUMPI PUSH4 0x4E487B71 PUSH1 0xE0 SHL PUSH1 0x0 MSTORE PUSH1 0x22 PUSH1 0x4 MSTORE PUSH1 0x24 PUSH1 0x0 REVERT JUMPDEST POP SWAP2 SWAP1 POP JUMP JUMPDEST PUSH4 0x4E487B71 PUSH1 0xE0 SHL PUSH1 0x0 MSTORE PUSH1 0x11 PUSH1 0x4 MSTORE PUSH1 0x24 PUSH1 0x0 REVERT JUMPDEST DUP1 DUP3 ADD DUP1 DUP3 GT ISZERO PUSH2 0x50D JUMPI PUSH2 0x50D PUSH2 0x137F JUMP JUMPDEST PUSH1 0x0 PUSH1 0x20 DUP3 DUP5 SUB SLT ISZERO PUSH2 0x13BA JUMPI PUSH1 0x0 DUP1 REVERT JUMPDEST DUP2 MLOAD DUP1 ISZERO ISZERO DUP2 EQ PUSH2 0x532 JUMPI PUSH1 0x0 DUP1 REVERT JUMPDEST DUP1 DUP3 MUL DUP2 ISZERO DUP3 DUP3 DIV DUP5 EQ OR PUSH2 0x50D JUMPI PUSH2 0x50D PUSH2 0x137F JUMP JUMPDEST PUSH1 0x0 PUSH1 0x1 DUP3 ADD PUSH2 0x13F3 JUMPI PUSH2 0x13F3 PUSH2 0x137F JUMP JUMPDEST POP PUSH1 0x1 ADD SWAP1 JUMP JUMPDEST PUSH1 0x0 DUP3 MLOAD PUSH2 0x140C DUP2 DUP5 PUSH1 0x20 DUP8 ADD PUSH2 0x1195 JUMP JUMPDEST SWAP2 SWAP1 SWAP2 ADD SWAP3 SWAP2 POP POP JUMP INVALID LOG2 PUSH5 0x6970667358 0x22 SLT KECCAK256 POP BLOBHASH PUSH24 0x6F4C986580EC88732A8F9A98540482D1273FFC6B7394A5FE KECCAK256 DELEGATECALL 0x23 MULMOD SSTORE PUSH5 0x736F6C6343 STOP ADDMOD BYTE STOP CALLER "
				},
				"gasEstimates": {
					"creation": {
						"codeDepositCost": "1039200",
						"executionCost": "infinite",
						"totalCost": "infinite"
					},
					"external": {
						"AdminAddToken(uint256)": "infinite",
						"Claim(address,uint256)": "infinite",
						"IsClaim()": "2377",
						"NumberOfBuying(address)": "2532",
						"TokenRecord(address,uint256)": "11416",
						"TokenRecords(address,address)": "infinite",
						"allowance(address,address)": "infinite",
						"approve(address,uint256)": "24784",
						"balanceOf(address)": "2662",
						"burn(uint256)": "50966",
						"burnFrom(address,uint256)": "infinite",
						"buyTokens(uint256,uint8)": "infinite",
						"decimals()": "311",
						"name()": "infinite",
						"owner()": "2475",
						"pause()": "infinite",
						"paused()": "2415",
						"priceFeed()": "2382",
						"renounceOwnership()": "infinite",
						"symbol()": "infinite",
						"totalSupply()": "2371",
						"transfer(address,uint256)": "51311",
						"transferFrom(address,address,uint256)": "infinite",
						"transferOwnership(address)": "28479",
						"unpause()": "infinite"
					}
				},
				"methodIdentifiers": {
					"AdminAddToken(uint256)": "c0cd40ee",
					"Claim(address,uint256)": "47cee97c",
					"IsClaim()": "a3c50cfd",
					"NumberOfBuying(address)": "02ab3fed",
					"TokenRecord(address,uint256)": "584707eb",
					"TokenRecords(address,address)": "cec90fe7",
					"allowance(address,address)": "dd62ed3e",
					"approve(address,uint256)": "095ea7b3",
					"balanceOf(address)": "70a08231",
					"burn(uint256)": "42966c68",
					"burnFrom(address,uint256)": "79cc6790",
					"buyTokens(uint256,uint8)": "8d3ce8a5",
					"decimals()": "313ce567",
					"name()": "06fdde03",
					"owner()": "8da5cb5b",
					"pause()": "8456cb59",
					"paused()": "5c975abb",
					"priceFeed()": "741bef1a",
					"renounceOwnership()": "715018a6",
					"symbol()": "95d89b41",
					"totalSupply()": "18160ddd",
					"transfer(address,uint256)": "a9059cbb",
					"transferFrom(address,address,uint256)": "23b872dd",
					"transferOwnership(address)": "f2fde38b",
					"unpause()": "3f4ba83a"
				}
			},
			"storageLayout": {
				"storage": [
					{
						"astId": 526,
						"contract": "contracts/fatcat 5aug (1)/contracts/fatcat 5aug/preSale.sol:TimeVillageToken",
						"label": "_balances",
						"offset": 0,
						"slot": "0",
						"type": "t_mapping(t_address,t_uint256)"
					},
					{
						"astId": 532,
						"contract": "contracts/fatcat 5aug (1)/contracts/fatcat 5aug/preSale.sol:TimeVillageToken",
						"label": "_allowances",
						"offset": 0,
						"slot": "1",
						"type": "t_mapping(t_address,t_mapping(t_address,t_uint256))"
					},
					{
						"astId": 534,
						"contract": "contracts/fatcat 5aug (1)/contracts/fatcat 5aug/preSale.sol:TimeVillageToken",
						"label": "_totalSupply",
						"offset": 0,
						"slot": "2",
						"type": "t_uint256"
					},
					{
						"astId": 536,
						"contract": "contracts/fatcat 5aug (1)/contracts/fatcat 5aug/preSale.sol:TimeVillageToken",
						"label": "_name",
						"offset": 0,
						"slot": "3",
						"type": "t_string_storage"
					},
					{
						"astId": 538,
						"contract": "contracts/fatcat 5aug (1)/contracts/fatcat 5aug/preSale.sol:TimeVillageToken",
						"label": "_symbol",
						"offset": 0,
						"slot": "4",
						"type": "t_string_storage"
					},
					{
						"astId": 348,
						"contract": "contracts/fatcat 5aug (1)/contracts/fatcat 5aug/preSale.sol:TimeVillageToken",
						"label": "_paused",
						"offset": 0,
						"slot": "5",
						"type": "t_bool"
					},
					{
						"astId": 54,
						"contract": "contracts/fatcat 5aug (1)/contracts/fatcat 5aug/preSale.sol:TimeVillageToken",
						"label": "_owner",
						"offset": 1,
						"slot": "5",
						"type": "t_address"
					},
					{
						"astId": 449,
						"contract": "contracts/fatcat 5aug (1)/contracts/fatcat 5aug/preSale.sol:TimeVillageToken",
						"label": "_status",
						"offset": 0,
						"slot": "6",
						"type": "t_uint256"
					},
					{
						"astId": 1874,
						"contract": "contracts/fatcat 5aug (1)/contracts/fatcat 5aug/preSale.sol:TimeVillageToken",
						"label": "priceFeed",
						"offset": 0,
						"slot": "7",
						"type": "t_contract(AggregatorV3Interface)45"
					},
					{
						"astId": 1881,
						"contract": "contracts/fatcat 5aug (1)/contracts/fatcat 5aug/preSale.sol:TimeVillageToken",
						"label": "numberOfTransactions",
						"offset": 0,
						"slot": "8",
						"type": "t_struct(Counter)1783_storage"
					},
					{
						"astId": 1887,
						"contract": "contracts/fatcat 5aug (1)/contracts/fatcat 5aug/preSale.sol:TimeVillageToken",
						"label": "IsClaim",
						"offset": 0,
						"slot": "9",
						"type": "t_bool"
					},
					{
						"astId": 1889,
						"contract": "contracts/fatcat 5aug (1)/contracts/fatcat 5aug/preSale.sol:TimeVillageToken",
						"label": "AddminAddress",
						"offset": 1,
						"slot": "9",
						"type": "t_address"
					},
					{
						"astId": 1891,
						"contract": "contracts/fatcat 5aug (1)/contracts/fatcat 5aug/preSale.sol:TimeVillageToken",
						"label": "USDT",
						"offset": 0,
						"slot": "10",
						"type": "t_address"
					},
					{
						"astId": 1925,
						"contract": "contracts/fatcat 5aug (1)/contracts/fatcat 5aug/preSale.sol:TimeVillageToken",
						"label": "TokenRecord",
						"offset": 0,
						"slot": "11",
						"type": "t_mapping(t_address,t_mapping(t_uint256,t_struct(userRecord)1907_storage))"
					},
					{
						"astId": 1932,
						"contract": "contracts/fatcat 5aug (1)/contracts/fatcat 5aug/preSale.sol:TimeVillageToken",
						"label": "TokenRecords",
						"offset": 0,
						"slot": "12",
						"type": "t_mapping(t_address,t_mapping(t_address,t_struct(userDetail)1918_storage))"
					},
					{
						"astId": 1937,
						"contract": "contracts/fatcat 5aug (1)/contracts/fatcat 5aug/preSale.sol:TimeVillageToken",
						"label": "_currencyCoice",
						"offset": 0,
						"slot": "13",
						"type": "t_mapping(t_enum(currency)1944,t_uint256)"
					},
					{
						"astId": 1941,
						"contract": "contracts/fatcat 5aug (1)/contracts/fatcat 5aug/preSale.sol:TimeVillageToken",
						"label": "NumberOfBuying",
						"offset": 0,
						"slot": "14",
						"type": "t_mapping(t_address,t_uint256)"
					}
				],
				"types": {
					"t_address": {
						"encoding": "inplace",
						"label": "address",
						"numberOfBytes": "20"
					},
					"t_bool": {
						"encoding": "inplace",
						"label": "bool",
						"numberOfBytes": "1"
					},
					"t_contract(AggregatorV3Interface)45": {
						"encoding": "inplace",
						"label": "contract AggregatorV3Interface",
						"numberOfBytes": "20"
					},
					"t_enum(currency)1944": {
						"encoding": "inplace",
						"label": "enum TimeVillageToken.currency",
						"numberOfBytes": "1"
					},
					"t_mapping(t_address,t_mapping(t_address,t_struct(userDetail)1918_storage))": {
						"encoding": "mapping",
						"key": "t_address",
						"label": "mapping(address => mapping(address => struct TimeVillageToken.userDetail))",
						"numberOfBytes": "32",
						"value": "t_mapping(t_address,t_struct(userDetail)1918_storage)"
					},
					"t_mapping(t_address,t_mapping(t_address,t_uint256))": {
						"encoding": "mapping",
						"key": "t_address",
						"label": "mapping(address => mapping(address => uint256))",
						"numberOfBytes": "32",
						"value": "t_mapping(t_address,t_uint256)"
					},
					"t_mapping(t_address,t_mapping(t_uint256,t_struct(userRecord)1907_storage))": {
						"encoding": "mapping",
						"key": "t_address",
						"label": "mapping(address => mapping(uint256 => struct TimeVillageToken.userRecord))",
						"numberOfBytes": "32",
						"value": "t_mapping(t_uint256,t_struct(userRecord)1907_storage)"
					},
					"t_mapping(t_address,t_struct(userDetail)1918_storage)": {
						"encoding": "mapping",
						"key": "t_address",
						"label": "mapping(address => struct TimeVillageToken.userDetail)",
						"numberOfBytes": "32",
						"value": "t_struct(userDetail)1918_storage"
					},
					"t_mapping(t_address,t_uint256)": {
						"encoding": "mapping",
						"key": "t_address",
						"label": "mapping(address => uint256)",
						"numberOfBytes": "32",
						"value": "t_uint256"
					},
					"t_mapping(t_enum(currency)1944,t_uint256)": {
						"encoding": "mapping",
						"key": "t_enum(currency)1944",
						"label": "mapping(enum TimeVillageToken.currency => uint256)",
						"numberOfBytes": "32",
						"value": "t_uint256"
					},
					"t_mapping(t_uint256,t_struct(userRecord)1907_storage)": {
						"encoding": "mapping",
						"key": "t_uint256",
						"label": "mapping(uint256 => struct TimeVillageToken.userRecord)",
						"numberOfBytes": "32",
						"value": "t_struct(userRecord)1907_storage"
					},
					"t_string_storage": {
						"encoding": "bytes",
						"label": "string",
						"numberOfBytes": "32"
					},
					"t_struct(Counter)1783_storage": {
						"encoding": "inplace",
						"label": "struct Counters.Counter",
						"members": [
							{
								"astId": 1782,
								"contract": "contracts/fatcat 5aug (1)/contracts/fatcat 5aug/preSale.sol:TimeVillageToken",
								"label": "_value",
								"offset": 0,
								"slot": "0",
								"type": "t_uint256"
							}
						],
						"numberOfBytes": "32"
					},
					"t_struct(userDetail)1918_storage": {
						"encoding": "inplace",
						"label": "struct TimeVillageToken.userDetail",
						"members": [
							{
								"astId": 1909,
								"contract": "contracts/fatcat 5aug (1)/contracts/fatcat 5aug/preSale.sol:TimeVillageToken",
								"label": "price",
								"offset": 0,
								"slot": "0",
								"type": "t_uint256"
							},
							{
								"astId": 1911,
								"contract": "contracts/fatcat 5aug (1)/contracts/fatcat 5aug/preSale.sol:TimeVillageToken",
								"label": "amount",
								"offset": 0,
								"slot": "1",
								"type": "t_uint256"
							},
							{
								"astId": 1913,
								"contract": "contracts/fatcat 5aug (1)/contracts/fatcat 5aug/preSale.sol:TimeVillageToken",
								"label": "time",
								"offset": 0,
								"slot": "2",
								"type": "t_uint256"
							},
							{
								"astId": 1915,
								"contract": "contracts/fatcat 5aug (1)/contracts/fatcat 5aug/preSale.sol:TimeVillageToken",
								"label": "user",
								"offset": 0,
								"slot": "3",
								"type": "t_address"
							},
							{
								"astId": 1917,
								"contract": "contracts/fatcat 5aug (1)/contracts/fatcat 5aug/preSale.sol:TimeVillageToken",
								"label": "contractAddress",
								"offset": 0,
								"slot": "4",
								"type": "t_address"
							}
						],
						"numberOfBytes": "160"
					},
					"t_struct(userRecord)1907_storage": {
						"encoding": "inplace",
						"label": "struct TimeVillageToken.userRecord",
						"members": [
							{
								"astId": 1895,
								"contract": "contracts/fatcat 5aug (1)/contracts/fatcat 5aug/preSale.sol:TimeVillageToken",
								"label": "user",
								"offset": 0,
								"slot": "0",
								"type": "t_address"
							},
							{
								"astId": 1897,
								"contract": "contracts/fatcat 5aug (1)/contracts/fatcat 5aug/preSale.sol:TimeVillageToken",
								"label": "amount",
								"offset": 0,
								"slot": "1",
								"type": "t_uint256"
							},
							{
								"astId": 1899,
								"contract": "contracts/fatcat 5aug (1)/contracts/fatcat 5aug/preSale.sol:TimeVillageToken",
								"label": "currency",
								"offset": 0,
								"slot": "2",
								"type": "t_uint256"
							},
							{
								"astId": 1901,
								"contract": "contracts/fatcat 5aug (1)/contracts/fatcat 5aug/preSale.sol:TimeVillageToken",
								"label": "cost",
								"offset": 0,
								"slot": "3",
								"type": "t_uint256"
							},
							{
								"astId": 1903,
								"contract": "contracts/fatcat 5aug (1)/contracts/fatcat 5aug/preSale.sol:TimeVillageToken",
								"label": "claim",
								"offset": 0,
								"slot": "4",
								"type": "t_bool"
							},
							{
								"astId": 1906,
								"contract": "contracts/fatcat 5aug (1)/contracts/fatcat 5aug/preSale.sol:TimeVillageToken",
								"label": "choice",
								"offset": 1,
								"slot": "4",
								"type": "t_enum(currency)1944"
							}
						],
						"numberOfBytes": "160"
					},
					"t_uint256": {
						"encoding": "inplace",
						"label": "uint256",
						"numberOfBytes": "32"
					}
				}
			},
			"userdoc": {
				"kind": "user",
				"methods": {},
				"version": 1
			}
		}
	}
}